{
	"contracts/Gem.sol": {
		"Gem": {
			"abi": [
				{
					"inputs": [],
					"stateMutability": "nonpayable",
					"type": "constructor"
				},
				{
					"inputs": [
						{
							"internalType": "address",
							"name": "user",
							"type": "address"
						},
						{
							"internalType": "address",
							"name": "spender",
							"type": "address"
						}
					],
					"name": "checkAllowance",
					"outputs": [
						{
							"internalType": "uint256",
							"name": "",
							"type": "uint256"
						}
					],
					"stateMutability": "view",
					"type": "function"
				},
				{
					"inputs": [
						{
							"internalType": "address",
							"name": "myAdd",
							"type": "address"
						}
					],
					"name": "checkBal",
					"outputs": [
						{
							"internalType": "uint256",
							"name": "",
							"type": "uint256"
						}
					],
					"stateMutability": "view",
					"type": "function"
				},
				{
					"inputs": [],
					"name": "checkCredit",
					"outputs": [
						{
							"internalType": "uint256",
							"name": "",
							"type": "uint256"
						}
					],
					"stateMutability": "view",
					"type": "function"
				},
				{
					"inputs": [],
					"name": "getCredit",
					"outputs": [],
					"stateMutability": "payable",
					"type": "function"
				},
				{
					"inputs": [
						{
							"internalType": "address",
							"name": "receipt",
							"type": "address"
						},
						{
							"internalType": "uint256",
							"name": "amt",
							"type": "uint256"
						}
					],
					"name": "giveApproval",
					"outputs": [],
					"stateMutability": "nonpayable",
					"type": "function"
				},
				{
					"inputs": [
						{
							"internalType": "address",
							"name": "recipient",
							"type": "address"
						},
						{
							"internalType": "uint256",
							"name": "value",
							"type": "uint256"
						}
					],
					"name": "transfer",
					"outputs": [
						{
							"internalType": "bool",
							"name": "",
							"type": "bool"
						}
					],
					"stateMutability": "nonpayable",
					"type": "function"
				},
				{
					"inputs": [
						{
							"internalType": "address",
							"name": "from",
							"type": "address"
						},
						{
							"internalType": "address",
							"name": "to",
							"type": "address"
						},
						{
							"internalType": "uint256",
							"name": "amt",
							"type": "uint256"
						}
					],
					"name": "transferFrom",
					"outputs": [],
					"stateMutability": "nonpayable",
					"type": "function"
				}
			],
			"devdoc": {
				"kind": "dev",
				"methods": {},
				"version": 1
			},
			"evm": {
				"assembly": "    /* \"contracts/Gem.sol\":82:1900  contract Gem {... */\n  mstore(0x40, 0x80)\n    /* \"contracts/Gem.sol\":202:327  constructor() {... */\n  callvalue\n  dup1\n  iszero\n  tag_1\n  jumpi\n  0x00\n  dup1\n  revert\ntag_1:\n  pop\n    /* \"contracts/Gem.sol\":226:233  ERC20 e */\n  0x00\n    /* \"contracts/Gem.sol\":236:265  new ERC20(\"Beast Gem\", \"BGM\") */\n  mload(0x40)\n  tag_4\n  swap1\n  tag_5\n  jump\t// in\ntag_4:\n  tag_6\n  swap1\n  tag_7\n  jump\t// in\ntag_6:\n  mload(0x40)\n  dup1\n  swap2\n  sub\n  swap1\n  0x00\n  create\n  dup1\n  iszero\n  dup1\n  iszero\n  tag_8\n  jumpi\n  returndatasize\n  0x00\n  dup1\n  returndatacopy\n  revert(0x00, returndatasize)\ntag_8:\n  pop\n    /* \"contracts/Gem.sol\":226:265  ERC20 e = new ERC20(\"Beast Gem\", \"BGM\") */\n  swap1\n  pop\n    /* \"contracts/Gem.sol\":291:292  e */\n  dup1\n    /* \"contracts/Gem.sol\":275:288  erc20Contract */\n  0x00\n  dup1\n    /* \"contracts/Gem.sol\":275:292  erc20Contract = e */\n  0x0100\n  exp\n  dup2\n  sload\n  dup2\n  0xffffffffffffffffffffffffffffffffffffffff\n  mul\n  not\n  and\n  swap1\n  dup4\n  0xffffffffffffffffffffffffffffffffffffffff\n  and\n  mul\n  or\n  swap1\n  sstore\n  pop\n    /* \"contracts/Gem.sol\":310:320  msg.sender */\n  caller\n    /* \"contracts/Gem.sol\":302:307  owner */\n  0x03\n  0x00\n    /* \"contracts/Gem.sol\":302:320  owner = msg.sender */\n  0x0100\n  exp\n  dup2\n  sload\n  dup2\n  0xffffffffffffffffffffffffffffffffffffffff\n  mul\n  not\n  and\n  swap1\n  dup4\n  0xffffffffffffffffffffffffffffffffffffffff\n  and\n  mul\n  or\n  swap1\n  sstore\n  pop\n    /* \"contracts/Gem.sol\":216:327  {... */\n  pop\n    /* \"contracts/Gem.sol\":82:1900  contract Gem {... */\n  jump(tag_9)\ntag_5:\n  dataSize(sub_1)\n  dup1\n  dataOffset(sub_1)\n  dup4\n  codecopy\n  add\n  swap1\n  jump\t// out\n    /* \"#utility.yul\":7:176   */\ntag_10:\n    /* \"#utility.yul\":91:102   */\n  0x00\n    /* \"#utility.yul\":125:131   */\n  dup3\n    /* \"#utility.yul\":120:123   */\n  dup3\n    /* \"#utility.yul\":113:132   */\n  mstore\n    /* \"#utility.yul\":165:169   */\n  0x20\n    /* \"#utility.yul\":160:163   */\n  dup3\n    /* \"#utility.yul\":156:170   */\n  add\n    /* \"#utility.yul\":141:170   */\n  swap1\n  pop\n    /* \"#utility.yul\":7:176   */\n  swap3\n  swap2\n  pop\n  pop\n  jump\t// out\n    /* \"#utility.yul\":182:341   */\ntag_11:\n    /* \"#utility.yul\":322:333   */\n  0x42656173742047656d0000000000000000000000000000000000000000000000\n    /* \"#utility.yul\":318:319   */\n  0x00\n    /* \"#utility.yul\":310:316   */\n  dup3\n    /* \"#utility.yul\":306:320   */\n  add\n    /* \"#utility.yul\":299:334   */\n  mstore\n    /* \"#utility.yul\":182:341   */\n  pop\n  jump\t// out\n    /* \"#utility.yul\":347:712   */\ntag_12:\n    /* \"#utility.yul\":489:492   */\n  0x00\n    /* \"#utility.yul\":510:576   */\n  tag_19\n    /* \"#utility.yul\":574:575   */\n  0x09\n    /* \"#utility.yul\":569:572   */\n  dup4\n    /* \"#utility.yul\":510:576   */\n  tag_10\n  jump\t// in\ntag_19:\n    /* \"#utility.yul\":503:576   */\n  swap2\n  pop\n    /* \"#utility.yul\":585:678   */\n  tag_20\n    /* \"#utility.yul\":674:677   */\n  dup3\n    /* \"#utility.yul\":585:678   */\n  tag_11\n  jump\t// in\ntag_20:\n    /* \"#utility.yul\":703:705   */\n  0x20\n    /* \"#utility.yul\":698:701   */\n  dup3\n    /* \"#utility.yul\":694:706   */\n  add\n    /* \"#utility.yul\":687:706   */\n  swap1\n  pop\n    /* \"#utility.yul\":347:712   */\n  swap2\n  swap1\n  pop\n  jump\t// out\n    /* \"#utility.yul\":718:871   */\ntag_13:\n    /* \"#utility.yul\":858:863   */\n  0x42474d0000000000000000000000000000000000000000000000000000000000\n    /* \"#utility.yul\":854:855   */\n  0x00\n    /* \"#utility.yul\":846:852   */\n  dup3\n    /* \"#utility.yul\":842:856   */\n  add\n    /* \"#utility.yul\":835:864   */\n  mstore\n    /* \"#utility.yul\":718:871   */\n  pop\n  jump\t// out\n    /* \"#utility.yul\":877:1242   */\ntag_14:\n    /* \"#utility.yul\":1019:1022   */\n  0x00\n    /* \"#utility.yul\":1040:1106   */\n  tag_23\n    /* \"#utility.yul\":1104:1105   */\n  0x03\n    /* \"#utility.yul\":1099:1102   */\n  dup4\n    /* \"#utility.yul\":1040:1106   */\n  tag_10\n  jump\t// in\ntag_23:\n    /* \"#utility.yul\":1033:1106   */\n  swap2\n  pop\n    /* \"#utility.yul\":1115:1208   */\n  tag_24\n    /* \"#utility.yul\":1204:1207   */\n  dup3\n    /* \"#utility.yul\":1115:1208   */\n  tag_13\n  jump\t// in\ntag_24:\n    /* \"#utility.yul\":1233:1235   */\n  0x20\n    /* \"#utility.yul\":1228:1231   */\n  dup3\n    /* \"#utility.yul\":1224:1236   */\n  add\n    /* \"#utility.yul\":1217:1236   */\n  swap1\n  pop\n    /* \"#utility.yul\":877:1242   */\n  swap2\n  swap1\n  pop\n  jump\t// out\n    /* \"#utility.yul\":1248:1974   */\ntag_7:\n    /* \"#utility.yul\":1515:1519   */\n  0x00\n    /* \"#utility.yul\":1553:1555   */\n  0x40\n    /* \"#utility.yul\":1542:1551   */\n  dup3\n    /* \"#utility.yul\":1538:1556   */\n  add\n    /* \"#utility.yul\":1530:1556   */\n  swap1\n  pop\n    /* \"#utility.yul\":1602:1611   */\n  dup2\n    /* \"#utility.yul\":1596:1600   */\n  dup2\n    /* \"#utility.yul\":1592:1612   */\n  sub\n    /* \"#utility.yul\":1588:1589   */\n  0x00\n    /* \"#utility.yul\":1577:1586   */\n  dup4\n    /* \"#utility.yul\":1573:1590   */\n  add\n    /* \"#utility.yul\":1566:1613   */\n  mstore\n    /* \"#utility.yul\":1630:1761   */\n  tag_26\n    /* \"#utility.yul\":1756:1760   */\n  dup2\n    /* \"#utility.yul\":1630:1761   */\n  tag_12\n  jump\t// in\ntag_26:\n    /* \"#utility.yul\":1622:1761   */\n  swap1\n  pop\n    /* \"#utility.yul\":1808:1817   */\n  dup2\n    /* \"#utility.yul\":1802:1806   */\n  dup2\n    /* \"#utility.yul\":1798:1818   */\n  sub\n    /* \"#utility.yul\":1793:1795   */\n  0x20\n    /* \"#utility.yul\":1782:1791   */\n  dup4\n    /* \"#utility.yul\":1778:1796   */\n  add\n    /* \"#utility.yul\":1771:1819   */\n  mstore\n    /* \"#utility.yul\":1836:1967   */\n  tag_27\n    /* \"#utility.yul\":1962:1966   */\n  dup2\n    /* \"#utility.yul\":1836:1967   */\n  tag_14\n  jump\t// in\ntag_27:\n    /* \"#utility.yul\":1828:1967   */\n  swap1\n  pop\n    /* \"#utility.yul\":1248:1974   */\n  swap2\n  swap1\n  pop\n  jump\t// out\n    /* \"contracts/Gem.sol\":82:1900  contract Gem {... */\ntag_9:\n  dataSize(sub_0)\n  dup1\n  dataOffset(sub_0)\n  0x00\n  codecopy\n  0x00\n  return\nstop\n\nsub_0: assembly {\n        /* \"contracts/Gem.sol\":82:1900  contract Gem {... */\n      mstore(0x40, 0x80)\n      jumpi(tag_1, lt(calldatasize, 0x04))\n      shr(0xe0, calldataload(0x00))\n      dup1\n      0x59296e7b\n      gt\n      tag_9\n      jumpi\n      dup1\n      0x59296e7b\n      eq\n      tag_5\n      jumpi\n      dup1\n      0x6cba6290\n      eq\n      tag_6\n      jumpi\n      dup1\n      0x8b099b23\n      eq\n      tag_7\n      jumpi\n      dup1\n      0xa9059cbb\n      eq\n      tag_8\n      jumpi\n      jump(tag_1)\n    tag_9:\n      dup1\n      0x0bff0bcf\n      eq\n      tag_2\n      jumpi\n      dup1\n      0x23b872dd\n      eq\n      tag_3\n      jumpi\n      dup1\n      0x584a0927\n      eq\n      tag_4\n      jumpi\n    tag_1:\n      0x00\n      dup1\n      revert\n        /* \"contracts/Gem.sol\":1477:1649  function giveApproval(address receipt, uint256 amt) public {... */\n    tag_2:\n      callvalue\n      dup1\n      iszero\n      tag_10\n      jumpi\n      0x00\n      dup1\n      revert\n    tag_10:\n      pop\n      tag_11\n      0x04\n      dup1\n      calldatasize\n      sub\n      dup2\n      add\n      swap1\n      tag_12\n      swap2\n      swap1\n      tag_13\n      jump\t// in\n    tag_12:\n      tag_14\n      jump\t// in\n    tag_11:\n      stop\n        /* \"contracts/Gem.sol\":1159:1471  function transferFrom(address from, address to, uint256 amt) public {... */\n    tag_3:\n      callvalue\n      dup1\n      iszero\n      tag_15\n      jumpi\n      0x00\n      dup1\n      revert\n    tag_15:\n      pop\n      tag_16\n      0x04\n      dup1\n      calldatasize\n      sub\n      dup2\n      add\n      swap1\n      tag_17\n      swap2\n      swap1\n      tag_18\n      jump\t// in\n    tag_17:\n      tag_19\n      jump\t// in\n    tag_16:\n      stop\n        /* \"contracts/Gem.sol\":796:956  function checkBal(address myAdd) public view returns (uint256) {... */\n    tag_4:\n      callvalue\n      dup1\n      iszero\n      tag_20\n      jumpi\n      0x00\n      dup1\n      revert\n    tag_20:\n      pop\n      tag_21\n      0x04\n      dup1\n      calldatasize\n      sub\n      dup2\n      add\n      swap1\n      tag_22\n      swap2\n      swap1\n      tag_23\n      jump\t// in\n    tag_22:\n      tag_24\n      jump\t// in\n    tag_21:\n      mload(0x40)\n      tag_25\n      swap2\n      swap1\n      tag_26\n      jump\t// in\n    tag_25:\n      mload(0x40)\n      dup1\n      swap2\n      sub\n      swap1\n      return\n        /* \"contracts/Gem.sol\":333:630  function getCredit() public payable {... */\n    tag_5:\n      tag_27\n      tag_28\n      jump\t// in\n    tag_27:\n      stop\n        /* \"contracts/Gem.sol\":636:790  function checkCredit() public view returns(uint256) {... */\n    tag_6:\n      callvalue\n      dup1\n      iszero\n      tag_29\n      jumpi\n      0x00\n      dup1\n      revert\n    tag_29:\n      pop\n      tag_30\n      tag_31\n      jump\t// in\n    tag_30:\n      mload(0x40)\n      tag_32\n      swap2\n      swap1\n      tag_26\n      jump\t// in\n    tag_32:\n      mload(0x40)\n      dup1\n      swap2\n      sub\n      swap1\n      return\n        /* \"contracts/Gem.sol\":1655:1897  function checkAllowance(address user, address spender) public view returns (uint256) {... */\n    tag_7:\n      callvalue\n      dup1\n      iszero\n      tag_33\n      jumpi\n      0x00\n      dup1\n      revert\n    tag_33:\n      pop\n      tag_34\n      0x04\n      dup1\n      calldatasize\n      sub\n      dup2\n      add\n      swap1\n      tag_35\n      swap2\n      swap1\n      tag_36\n      jump\t// in\n    tag_35:\n      tag_37\n      jump\t// in\n    tag_34:\n      mload(0x40)\n      tag_38\n      swap2\n      swap1\n      tag_26\n      jump\t// in\n    tag_38:\n      mload(0x40)\n      dup1\n      swap2\n      sub\n      swap1\n      return\n        /* \"contracts/Gem.sol\":962:1153  function transfer(address recipient, uint256 value) public returns (bool) {... */\n    tag_8:\n      callvalue\n      dup1\n      iszero\n      tag_39\n      jumpi\n      0x00\n      dup1\n      revert\n    tag_39:\n      pop\n      tag_40\n      0x04\n      dup1\n      calldatasize\n      sub\n      dup2\n      add\n      swap1\n      tag_41\n      swap2\n      swap1\n      tag_13\n      jump\t// in\n    tag_41:\n      tag_42\n      jump\t// in\n    tag_40:\n      mload(0x40)\n      tag_43\n      swap2\n      swap1\n      tag_44\n      jump\t// in\n    tag_43:\n      mload(0x40)\n      dup1\n      swap2\n      sub\n      swap1\n      return\n        /* \"contracts/Gem.sol\":1477:1649  function giveApproval(address receipt, uint256 amt) public {... */\n    tag_14:\n        /* \"contracts/Gem.sol\":1607:1620  erc20Contract */\n      0x00\n      dup1\n      sload\n      swap1\n      0x0100\n      exp\n      swap1\n      div\n      0xffffffffffffffffffffffffffffffffffffffff\n      and\n        /* \"contracts/Gem.sol\":1607:1628  erc20Contract.approve */\n      0xffffffffffffffffffffffffffffffffffffffff\n      and\n      0x095ea7b3\n        /* \"contracts/Gem.sol\":1629:1636  receipt */\n      dup4\n        /* \"contracts/Gem.sol\":1638:1641  amt */\n      dup4\n        /* \"contracts/Gem.sol\":1607:1642  erc20Contract.approve(receipt, amt) */\n      mload(0x40)\n      dup4\n      0xffffffff\n      and\n      0xe0\n      shl\n      dup2\n      mstore\n      0x04\n      add\n      tag_46\n      swap3\n      swap2\n      swap1\n      tag_47\n      jump\t// in\n    tag_46:\n      0x20\n      mload(0x40)\n      dup1\n      dup4\n      sub\n      dup2\n      0x00\n      dup8\n      gas\n      call\n      iszero\n      dup1\n      iszero\n      tag_49\n      jumpi\n      returndatasize\n      0x00\n      dup1\n      returndatacopy\n      revert(0x00, returndatasize)\n    tag_49:\n      pop\n      pop\n      pop\n      pop\n      mload(0x40)\n      returndatasize\n      not(0x1f)\n      0x1f\n      dup3\n      add\n      and\n      dup3\n      add\n      dup1\n      0x40\n      mstore\n      pop\n      dup2\n      add\n      swap1\n      tag_50\n      swap2\n      swap1\n      tag_51\n      jump\t// in\n    tag_50:\n      pop\n        /* \"contracts/Gem.sol\":1477:1649  function giveApproval(address receipt, uint256 amt) public {... */\n      pop\n      pop\n      jump\t// out\n        /* \"contracts/Gem.sol\":1159:1471  function transferFrom(address from, address to, uint256 amt) public {... */\n    tag_19:\n        /* \"contracts/Gem.sol\":1364:1367  amt */\n      dup1\n        /* \"contracts/Gem.sol\":1320:1333  erc20Contract */\n      0x00\n      dup1\n      sload\n      swap1\n      0x0100\n      exp\n      swap1\n      div\n      0xffffffffffffffffffffffffffffffffffffffff\n      and\n        /* \"contracts/Gem.sol\":1320:1343  erc20Contract.allowance */\n      0xffffffffffffffffffffffffffffffffffffffff\n      and\n      0xdd62ed3e\n        /* \"contracts/Gem.sol\":1344:1348  from */\n      dup6\n        /* \"contracts/Gem.sol\":1350:1360  msg.sender */\n      caller\n        /* \"contracts/Gem.sol\":1320:1361  erc20Contract.allowance(from, msg.sender) */\n      mload(0x40)\n      dup4\n      0xffffffff\n      and\n      0xe0\n      shl\n      dup2\n      mstore\n      0x04\n      add\n      tag_53\n      swap3\n      swap2\n      swap1\n      tag_54\n      jump\t// in\n    tag_53:\n      0x20\n      mload(0x40)\n      dup1\n      dup4\n      sub\n      dup2\n      dup7\n      gas\n      staticcall\n      iszero\n      dup1\n      iszero\n      tag_56\n      jumpi\n      returndatasize\n      0x00\n      dup1\n      returndatacopy\n      revert(0x00, returndatasize)\n    tag_56:\n      pop\n      pop\n      pop\n      pop\n      mload(0x40)\n      returndatasize\n      not(0x1f)\n      0x1f\n      dup3\n      add\n      and\n      dup3\n      add\n      dup1\n      0x40\n      mstore\n      pop\n      dup2\n      add\n      swap1\n      tag_57\n      swap2\n      swap1\n      tag_58\n      jump\t// in\n    tag_57:\n        /* \"contracts/Gem.sol\":1320:1367  erc20Contract.allowance(from, msg.sender) > amt */\n      gt\n        /* \"contracts/Gem.sol\":1312:1413  require(erc20Contract.allowance(from, msg.sender) > amt, \"Warning: You are not allowed to transfer!\") */\n      tag_59\n      jumpi\n      mload(0x40)\n      0x08c379a000000000000000000000000000000000000000000000000000000000\n      dup2\n      mstore\n      0x04\n      add\n      tag_60\n      swap1\n      tag_61\n      jump\t// in\n    tag_60:\n      mload(0x40)\n      dup1\n      swap2\n      sub\n      swap1\n      revert\n    tag_59:\n        /* \"contracts/Gem.sol\":1423:1436  erc20Contract */\n      0x00\n      dup1\n      sload\n      swap1\n      0x0100\n      exp\n      swap1\n      div\n      0xffffffffffffffffffffffffffffffffffffffff\n      and\n        /* \"contracts/Gem.sol\":1423:1449  erc20Contract.transferFrom */\n      0xffffffffffffffffffffffffffffffffffffffff\n      and\n      0x23b872dd\n        /* \"contracts/Gem.sol\":1450:1454  from */\n      dup5\n        /* \"contracts/Gem.sol\":1456:1458  to */\n      dup5\n        /* \"contracts/Gem.sol\":1460:1463  amt */\n      dup5\n        /* \"contracts/Gem.sol\":1423:1464  erc20Contract.transferFrom(from, to, amt) */\n      mload(0x40)\n      dup5\n      0xffffffff\n      and\n      0xe0\n      shl\n      dup2\n      mstore\n      0x04\n      add\n      tag_62\n      swap4\n      swap3\n      swap2\n      swap1\n      tag_63\n      jump\t// in\n    tag_62:\n      0x20\n      mload(0x40)\n      dup1\n      dup4\n      sub\n      dup2\n      0x00\n      dup8\n      gas\n      call\n      iszero\n      dup1\n      iszero\n      tag_65\n      jumpi\n      returndatasize\n      0x00\n      dup1\n      returndatacopy\n      revert(0x00, returndatasize)\n    tag_65:\n      pop\n      pop\n      pop\n      pop\n      mload(0x40)\n      returndatasize\n      not(0x1f)\n      0x1f\n      dup3\n      add\n      and\n      dup3\n      add\n      dup1\n      0x40\n      mstore\n      pop\n      dup2\n      add\n      swap1\n      tag_66\n      swap2\n      swap1\n      tag_51\n      jump\t// in\n    tag_66:\n      pop\n        /* \"contracts/Gem.sol\":1159:1471  function transferFrom(address from, address to, uint256 amt) public {... */\n      pop\n      pop\n      pop\n      jump\t// out\n        /* \"contracts/Gem.sol\":796:956  function checkBal(address myAdd) public view returns (uint256) {... */\n    tag_24:\n        /* \"contracts/Gem.sol\":850:857  uint256 */\n      0x00\n        /* \"contracts/Gem.sol\":919:932  erc20Contract */\n      dup1\n      0x00\n      swap1\n      sload\n      swap1\n      0x0100\n      exp\n      swap1\n      div\n      0xffffffffffffffffffffffffffffffffffffffff\n      and\n        /* \"contracts/Gem.sol\":919:942  erc20Contract.balanceOf */\n      0xffffffffffffffffffffffffffffffffffffffff\n      and\n      0x70a08231\n        /* \"contracts/Gem.sol\":943:948  myAdd */\n      dup4\n        /* \"contracts/Gem.sol\":919:949  erc20Contract.balanceOf(myAdd) */\n      mload(0x40)\n      dup3\n      0xffffffff\n      and\n      0xe0\n      shl\n      dup2\n      mstore\n      0x04\n      add\n      tag_68\n      swap2\n      swap1\n      tag_69\n      jump\t// in\n    tag_68:\n      0x20\n      mload(0x40)\n      dup1\n      dup4\n      sub\n      dup2\n      dup7\n      gas\n      staticcall\n      iszero\n      dup1\n      iszero\n      tag_71\n      jumpi\n      returndatasize\n      0x00\n      dup1\n      returndatacopy\n      revert(0x00, returndatasize)\n    tag_71:\n      pop\n      pop\n      pop\n      pop\n      mload(0x40)\n      returndatasize\n      not(0x1f)\n      0x1f\n      dup3\n      add\n      and\n      dup3\n      add\n      dup1\n      0x40\n      mstore\n      pop\n      dup2\n      add\n      swap1\n      tag_72\n      swap2\n      swap1\n      tag_58\n      jump\t// in\n    tag_72:\n        /* \"contracts/Gem.sol\":912:949  return erc20Contract.balanceOf(myAdd) */\n      swap1\n      pop\n        /* \"contracts/Gem.sol\":796:956  function checkBal(address myAdd) public view returns (uint256) {... */\n      swap2\n      swap1\n      pop\n      jump\t// out\n        /* \"contracts/Gem.sol\":333:630  function getCredit() public payable {... */\n    tag_28:\n        /* \"contracts/Gem.sol\":379:390  uint256 amt */\n      0x00\n        /* \"contracts/Gem.sol\":405:421  1000000000000000 */\n      0x038d7ea4c68000\n        /* \"contracts/Gem.sol\":393:402  msg.value */\n      callvalue\n        /* \"contracts/Gem.sol\":393:421  msg.value / 1000000000000000 */\n      tag_74\n      swap2\n      swap1\n      tag_75\n      jump\t// in\n    tag_74:\n        /* \"contracts/Gem.sol\":379:421  uint256 amt = msg.value / 1000000000000000 */\n      swap1\n      pop\n        /* \"contracts/Gem.sol\":481:492  supplyLimit */\n      sload(0x01)\n        /* \"contracts/Gem.sol\":475:478  amt */\n      dup2\n        /* \"contracts/Gem.sol\":445:458  erc20Contract */\n      0x00\n      dup1\n      sload\n      swap1\n      0x0100\n      exp\n      swap1\n      div\n      0xffffffffffffffffffffffffffffffffffffffff\n      and\n        /* \"contracts/Gem.sol\":445:470  erc20Contract.totalSupply */\n      0xffffffffffffffffffffffffffffffffffffffff\n      and\n      0x18160ddd\n        /* \"contracts/Gem.sol\":445:472  erc20Contract.totalSupply() */\n      mload(0x40)\n      dup2\n      0xffffffff\n      and\n      0xe0\n      shl\n      dup2\n      mstore\n      0x04\n      add\n      0x20\n      mload(0x40)\n      dup1\n      dup4\n      sub\n      dup2\n      dup7\n      gas\n      staticcall\n      iszero\n      dup1\n      iszero\n      tag_77\n      jumpi\n      returndatasize\n      0x00\n      dup1\n      returndatacopy\n      revert(0x00, returndatasize)\n    tag_77:\n      pop\n      pop\n      pop\n      pop\n      mload(0x40)\n      returndatasize\n      not(0x1f)\n      0x1f\n      dup3\n      add\n      and\n      dup3\n      add\n      dup1\n      0x40\n      mstore\n      pop\n      dup2\n      add\n      swap1\n      tag_78\n      swap2\n      swap1\n      tag_58\n      jump\t// in\n    tag_78:\n        /* \"contracts/Gem.sol\":445:478  erc20Contract.totalSupply() + amt */\n      tag_79\n      swap2\n      swap1\n      tag_80\n      jump\t// in\n    tag_79:\n        /* \"contracts/Gem.sol\":445:492  erc20Contract.totalSupply() + amt < supplyLimit */\n      lt\n        /* \"contracts/Gem.sol\":437:524  require(erc20Contract.totalSupply() + amt < supplyLimit, \"Warning: Insufficient Gems!\") */\n      tag_81\n      jumpi\n      mload(0x40)\n      0x08c379a000000000000000000000000000000000000000000000000000000000\n      dup2\n      mstore\n      0x04\n      add\n      tag_82\n      swap1\n      tag_83\n      jump\t// in\n    tag_82:\n      mload(0x40)\n      dup1\n      swap2\n      sub\n      swap1\n      revert\n    tag_81:\n        /* \"contracts/Gem.sol\":588:601  erc20Contract */\n      0x00\n      dup1\n      sload\n      swap1\n      0x0100\n      exp\n      swap1\n      div\n      0xffffffffffffffffffffffffffffffffffffffff\n      and\n        /* \"contracts/Gem.sol\":588:606  erc20Contract.mint */\n      0xffffffffffffffffffffffffffffffffffffffff\n      and\n      0x40c10f19\n        /* \"contracts/Gem.sol\":607:617  msg.sender */\n      caller\n        /* \"contracts/Gem.sol\":619:622  amt */\n      dup4\n        /* \"contracts/Gem.sol\":588:623  erc20Contract.mint(msg.sender, amt) */\n      mload(0x40)\n      dup4\n      0xffffffff\n      and\n      0xe0\n      shl\n      dup2\n      mstore\n      0x04\n      add\n      tag_84\n      swap3\n      swap2\n      swap1\n      tag_47\n      jump\t// in\n    tag_84:\n      0x00\n      mload(0x40)\n      dup1\n      dup4\n      sub\n      dup2\n      0x00\n      dup8\n      dup1\n      extcodesize\n      iszero\n      dup1\n      iszero\n      tag_85\n      jumpi\n      0x00\n      dup1\n      revert\n    tag_85:\n      pop\n      gas\n      call\n      iszero\n      dup1\n      iszero\n      tag_87\n      jumpi\n      returndatasize\n      0x00\n      dup1\n      returndatacopy\n      revert(0x00, returndatasize)\n    tag_87:\n      pop\n      pop\n      pop\n      pop\n        /* \"contracts/Gem.sol\":369:630  {... */\n      pop\n        /* \"contracts/Gem.sol\":333:630  function getCredit() public payable {... */\n      jump\t// out\n        /* \"contracts/Gem.sol\":636:790  function checkCredit() public view returns(uint256) {... */\n    tag_31:\n        /* \"contracts/Gem.sol\":679:686  uint256 */\n      0x00\n        /* \"contracts/Gem.sol\":748:761  erc20Contract */\n      dup1\n      0x00\n      swap1\n      sload\n      swap1\n      0x0100\n      exp\n      swap1\n      div\n      0xffffffffffffffffffffffffffffffffffffffff\n      and\n        /* \"contracts/Gem.sol\":748:771  erc20Contract.balanceOf */\n      0xffffffffffffffffffffffffffffffffffffffff\n      and\n      0x70a08231\n        /* \"contracts/Gem.sol\":772:782  msg.sender */\n      caller\n        /* \"contracts/Gem.sol\":748:783  erc20Contract.balanceOf(msg.sender) */\n      mload(0x40)\n      dup3\n      0xffffffff\n      and\n      0xe0\n      shl\n      dup2\n      mstore\n      0x04\n      add\n      tag_89\n      swap2\n      swap1\n      tag_69\n      jump\t// in\n    tag_89:\n      0x20\n      mload(0x40)\n      dup1\n      dup4\n      sub\n      dup2\n      dup7\n      gas\n      staticcall\n      iszero\n      dup1\n      iszero\n      tag_91\n      jumpi\n      returndatasize\n      0x00\n      dup1\n      returndatacopy\n      revert(0x00, returndatasize)\n    tag_91:\n      pop\n      pop\n      pop\n      pop\n      mload(0x40)\n      returndatasize\n      not(0x1f)\n      0x1f\n      dup3\n      add\n      and\n      dup3\n      add\n      dup1\n      0x40\n      mstore\n      pop\n      dup2\n      add\n      swap1\n      tag_92\n      swap2\n      swap1\n      tag_58\n      jump\t// in\n    tag_92:\n        /* \"contracts/Gem.sol\":741:783  return erc20Contract.balanceOf(msg.sender) */\n      swap1\n      pop\n        /* \"contracts/Gem.sol\":636:790  function checkCredit() public view returns(uint256) {... */\n      swap1\n      jump\t// out\n        /* \"contracts/Gem.sol\":1655:1897  function checkAllowance(address user, address spender) public view returns (uint256) {... */\n    tag_37:\n        /* \"contracts/Gem.sol\":1731:1738  uint256 */\n      0x00\n        /* \"contracts/Gem.sol\":1852:1865  erc20Contract */\n      dup1\n      0x00\n      swap1\n      sload\n      swap1\n      0x0100\n      exp\n      swap1\n      div\n      0xffffffffffffffffffffffffffffffffffffffff\n      and\n        /* \"contracts/Gem.sol\":1852:1875  erc20Contract.allowance */\n      0xffffffffffffffffffffffffffffffffffffffff\n      and\n      0xdd62ed3e\n        /* \"contracts/Gem.sol\":1876:1880  user */\n      dup5\n        /* \"contracts/Gem.sol\":1882:1889  spender */\n      dup5\n        /* \"contracts/Gem.sol\":1852:1890  erc20Contract.allowance(user, spender) */\n      mload(0x40)\n      dup4\n      0xffffffff\n      and\n      0xe0\n      shl\n      dup2\n      mstore\n      0x04\n      add\n      tag_94\n      swap3\n      swap2\n      swap1\n      tag_54\n      jump\t// in\n    tag_94:\n      0x20\n      mload(0x40)\n      dup1\n      dup4\n      sub\n      dup2\n      dup7\n      gas\n      staticcall\n      iszero\n      dup1\n      iszero\n      tag_96\n      jumpi\n      returndatasize\n      0x00\n      dup1\n      returndatacopy\n      revert(0x00, returndatasize)\n    tag_96:\n      pop\n      pop\n      pop\n      pop\n      mload(0x40)\n      returndatasize\n      not(0x1f)\n      0x1f\n      dup3\n      add\n      and\n      dup3\n      add\n      dup1\n      0x40\n      mstore\n      pop\n      dup2\n      add\n      swap1\n      tag_97\n      swap2\n      swap1\n      tag_58\n      jump\t// in\n    tag_97:\n        /* \"contracts/Gem.sol\":1845:1890  return erc20Contract.allowance(user, spender) */\n      swap1\n      pop\n        /* \"contracts/Gem.sol\":1655:1897  function checkAllowance(address user, address spender) public view returns (uint256) {... */\n      swap3\n      swap2\n      pop\n      pop\n      jump\t// out\n        /* \"contracts/Gem.sol\":962:1153  function transfer(address recipient, uint256 value) public returns (bool) {... */\n    tag_42:\n        /* \"contracts/Gem.sol\":1030:1034  bool */\n      0x00\n        /* \"contracts/Gem.sol\":1106:1119  erc20Contract */\n      dup1\n      0x00\n      swap1\n      sload\n      swap1\n      0x0100\n      exp\n      swap1\n      div\n      0xffffffffffffffffffffffffffffffffffffffff\n      and\n        /* \"contracts/Gem.sol\":1106:1128  erc20Contract.transfer */\n      0xffffffffffffffffffffffffffffffffffffffff\n      and\n      0xa9059cbb\n        /* \"contracts/Gem.sol\":1129:1138  recipient */\n      dup5\n        /* \"contracts/Gem.sol\":1140:1145  value */\n      dup5\n        /* \"contracts/Gem.sol\":1106:1146  erc20Contract.transfer(recipient, value) */\n      mload(0x40)\n      dup4\n      0xffffffff\n      and\n      0xe0\n      shl\n      dup2\n      mstore\n      0x04\n      add\n      tag_99\n      swap3\n      swap2\n      swap1\n      tag_47\n      jump\t// in\n    tag_99:\n      0x20\n      mload(0x40)\n      dup1\n      dup4\n      sub\n      dup2\n      0x00\n      dup8\n      gas\n      call\n      iszero\n      dup1\n      iszero\n      tag_101\n      jumpi\n      returndatasize\n      0x00\n      dup1\n      returndatacopy\n      revert(0x00, returndatasize)\n    tag_101:\n      pop\n      pop\n      pop\n      pop\n      mload(0x40)\n      returndatasize\n      not(0x1f)\n      0x1f\n      dup3\n      add\n      and\n      dup3\n      add\n      dup1\n      0x40\n      mstore\n      pop\n      dup2\n      add\n      swap1\n      tag_102\n      swap2\n      swap1\n      tag_51\n      jump\t// in\n    tag_102:\n        /* \"contracts/Gem.sol\":1099:1146  return erc20Contract.transfer(recipient, value) */\n      swap1\n      pop\n        /* \"contracts/Gem.sol\":962:1153  function transfer(address recipient, uint256 value) public returns (bool) {... */\n      swap3\n      swap2\n      pop\n      pop\n      jump\t// out\n        /* \"#utility.yul\":88:205   */\n    tag_104:\n        /* \"#utility.yul\":197:198   */\n      0x00\n        /* \"#utility.yul\":194:195   */\n      dup1\n        /* \"#utility.yul\":187:199   */\n      revert\n        /* \"#utility.yul\":334:460   */\n    tag_106:\n        /* \"#utility.yul\":371:378   */\n      0x00\n        /* \"#utility.yul\":411:453   */\n      0xffffffffffffffffffffffffffffffffffffffff\n        /* \"#utility.yul\":404:409   */\n      dup3\n        /* \"#utility.yul\":400:454   */\n      and\n        /* \"#utility.yul\":389:454   */\n      swap1\n      pop\n        /* \"#utility.yul\":334:460   */\n      swap2\n      swap1\n      pop\n      jump\t// out\n        /* \"#utility.yul\":466:562   */\n    tag_107:\n        /* \"#utility.yul\":503:510   */\n      0x00\n        /* \"#utility.yul\":532:556   */\n      tag_133\n        /* \"#utility.yul\":550:555   */\n      dup3\n        /* \"#utility.yul\":532:556   */\n      tag_106\n      jump\t// in\n    tag_133:\n        /* \"#utility.yul\":521:556   */\n      swap1\n      pop\n        /* \"#utility.yul\":466:562   */\n      swap2\n      swap1\n      pop\n      jump\t// out\n        /* \"#utility.yul\":568:690   */\n    tag_108:\n        /* \"#utility.yul\":641:665   */\n      tag_135\n        /* \"#utility.yul\":659:664   */\n      dup2\n        /* \"#utility.yul\":641:665   */\n      tag_107\n      jump\t// in\n    tag_135:\n        /* \"#utility.yul\":634:639   */\n      dup2\n        /* \"#utility.yul\":631:666   */\n      eq\n        /* \"#utility.yul\":621:684   */\n      tag_136\n      jumpi\n        /* \"#utility.yul\":680:681   */\n      0x00\n        /* \"#utility.yul\":677:678   */\n      dup1\n        /* \"#utility.yul\":670:682   */\n      revert\n        /* \"#utility.yul\":621:684   */\n    tag_136:\n        /* \"#utility.yul\":568:690   */\n      pop\n      jump\t// out\n        /* \"#utility.yul\":696:835   */\n    tag_109:\n        /* \"#utility.yul\":742:747   */\n      0x00\n        /* \"#utility.yul\":780:786   */\n      dup2\n        /* \"#utility.yul\":767:787   */\n      calldataload\n        /* \"#utility.yul\":758:787   */\n      swap1\n      pop\n        /* \"#utility.yul\":796:829   */\n      tag_138\n        /* \"#utility.yul\":823:828   */\n      dup2\n        /* \"#utility.yul\":796:829   */\n      tag_108\n      jump\t// in\n    tag_138:\n        /* \"#utility.yul\":696:835   */\n      swap3\n      swap2\n      pop\n      pop\n      jump\t// out\n        /* \"#utility.yul\":841:918   */\n    tag_110:\n        /* \"#utility.yul\":878:885   */\n      0x00\n        /* \"#utility.yul\":907:912   */\n      dup2\n        /* \"#utility.yul\":896:912   */\n      swap1\n      pop\n        /* \"#utility.yul\":841:918   */\n      swap2\n      swap1\n      pop\n      jump\t// out\n        /* \"#utility.yul\":924:1046   */\n    tag_111:\n        /* \"#utility.yul\":997:1021   */\n      tag_141\n        /* \"#utility.yul\":1015:1020   */\n      dup2\n        /* \"#utility.yul\":997:1021   */\n      tag_110\n      jump\t// in\n    tag_141:\n        /* \"#utility.yul\":990:995   */\n      dup2\n        /* \"#utility.yul\":987:1022   */\n      eq\n        /* \"#utility.yul\":977:1040   */\n      tag_142\n      jumpi\n        /* \"#utility.yul\":1036:1037   */\n      0x00\n        /* \"#utility.yul\":1033:1034   */\n      dup1\n        /* \"#utility.yul\":1026:1038   */\n      revert\n        /* \"#utility.yul\":977:1040   */\n    tag_142:\n        /* \"#utility.yul\":924:1046   */\n      pop\n      jump\t// out\n        /* \"#utility.yul\":1052:1191   */\n    tag_112:\n        /* \"#utility.yul\":1098:1103   */\n      0x00\n        /* \"#utility.yul\":1136:1142   */\n      dup2\n        /* \"#utility.yul\":1123:1143   */\n      calldataload\n        /* \"#utility.yul\":1114:1143   */\n      swap1\n      pop\n        /* \"#utility.yul\":1152:1185   */\n      tag_144\n        /* \"#utility.yul\":1179:1184   */\n      dup2\n        /* \"#utility.yul\":1152:1185   */\n      tag_111\n      jump\t// in\n    tag_144:\n        /* \"#utility.yul\":1052:1191   */\n      swap3\n      swap2\n      pop\n      pop\n      jump\t// out\n        /* \"#utility.yul\":1197:1671   */\n    tag_13:\n        /* \"#utility.yul\":1265:1271   */\n      0x00\n        /* \"#utility.yul\":1273:1279   */\n      dup1\n        /* \"#utility.yul\":1322:1324   */\n      0x40\n        /* \"#utility.yul\":1310:1319   */\n      dup4\n        /* \"#utility.yul\":1301:1308   */\n      dup6\n        /* \"#utility.yul\":1297:1320   */\n      sub\n        /* \"#utility.yul\":1293:1325   */\n      slt\n        /* \"#utility.yul\":1290:1409   */\n      iszero\n      tag_146\n      jumpi\n        /* \"#utility.yul\":1328:1407   */\n      tag_147\n      tag_104\n      jump\t// in\n    tag_147:\n        /* \"#utility.yul\":1290:1409   */\n    tag_146:\n        /* \"#utility.yul\":1448:1449   */\n      0x00\n        /* \"#utility.yul\":1473:1526   */\n      tag_148\n        /* \"#utility.yul\":1518:1525   */\n      dup6\n        /* \"#utility.yul\":1509:1515   */\n      dup3\n        /* \"#utility.yul\":1498:1507   */\n      dup7\n        /* \"#utility.yul\":1494:1516   */\n      add\n        /* \"#utility.yul\":1473:1526   */\n      tag_109\n      jump\t// in\n    tag_148:\n        /* \"#utility.yul\":1463:1526   */\n      swap3\n      pop\n        /* \"#utility.yul\":1419:1536   */\n      pop\n        /* \"#utility.yul\":1575:1577   */\n      0x20\n        /* \"#utility.yul\":1601:1654   */\n      tag_149\n        /* \"#utility.yul\":1646:1653   */\n      dup6\n        /* \"#utility.yul\":1637:1643   */\n      dup3\n        /* \"#utility.yul\":1626:1635   */\n      dup7\n        /* \"#utility.yul\":1622:1644   */\n      add\n        /* \"#utility.yul\":1601:1654   */\n      tag_112\n      jump\t// in\n    tag_149:\n        /* \"#utility.yul\":1591:1654   */\n      swap2\n      pop\n        /* \"#utility.yul\":1546:1664   */\n      pop\n        /* \"#utility.yul\":1197:1671   */\n      swap3\n      pop\n      swap3\n      swap1\n      pop\n      jump\t// out\n        /* \"#utility.yul\":1677:2296   */\n    tag_18:\n        /* \"#utility.yul\":1754:1760   */\n      0x00\n        /* \"#utility.yul\":1762:1768   */\n      dup1\n        /* \"#utility.yul\":1770:1776   */\n      0x00\n        /* \"#utility.yul\":1819:1821   */\n      0x60\n        /* \"#utility.yul\":1807:1816   */\n      dup5\n        /* \"#utility.yul\":1798:1805   */\n      dup7\n        /* \"#utility.yul\":1794:1817   */\n      sub\n        /* \"#utility.yul\":1790:1822   */\n      slt\n        /* \"#utility.yul\":1787:1906   */\n      iszero\n      tag_151\n      jumpi\n        /* \"#utility.yul\":1825:1904   */\n      tag_152\n      tag_104\n      jump\t// in\n    tag_152:\n        /* \"#utility.yul\":1787:1906   */\n    tag_151:\n        /* \"#utility.yul\":1945:1946   */\n      0x00\n        /* \"#utility.yul\":1970:2023   */\n      tag_153\n        /* \"#utility.yul\":2015:2022   */\n      dup7\n        /* \"#utility.yul\":2006:2012   */\n      dup3\n        /* \"#utility.yul\":1995:2004   */\n      dup8\n        /* \"#utility.yul\":1991:2013   */\n      add\n        /* \"#utility.yul\":1970:2023   */\n      tag_109\n      jump\t// in\n    tag_153:\n        /* \"#utility.yul\":1960:2023   */\n      swap4\n      pop\n        /* \"#utility.yul\":1916:2033   */\n      pop\n        /* \"#utility.yul\":2072:2074   */\n      0x20\n        /* \"#utility.yul\":2098:2151   */\n      tag_154\n        /* \"#utility.yul\":2143:2150   */\n      dup7\n        /* \"#utility.yul\":2134:2140   */\n      dup3\n        /* \"#utility.yul\":2123:2132   */\n      dup8\n        /* \"#utility.yul\":2119:2141   */\n      add\n        /* \"#utility.yul\":2098:2151   */\n      tag_109\n      jump\t// in\n    tag_154:\n        /* \"#utility.yul\":2088:2151   */\n      swap3\n      pop\n        /* \"#utility.yul\":2043:2161   */\n      pop\n        /* \"#utility.yul\":2200:2202   */\n      0x40\n        /* \"#utility.yul\":2226:2279   */\n      tag_155\n        /* \"#utility.yul\":2271:2278   */\n      dup7\n        /* \"#utility.yul\":2262:2268   */\n      dup3\n        /* \"#utility.yul\":2251:2260   */\n      dup8\n        /* \"#utility.yul\":2247:2269   */\n      add\n        /* \"#utility.yul\":2226:2279   */\n      tag_112\n      jump\t// in\n    tag_155:\n        /* \"#utility.yul\":2216:2279   */\n      swap2\n      pop\n        /* \"#utility.yul\":2171:2289   */\n      pop\n        /* \"#utility.yul\":1677:2296   */\n      swap3\n      pop\n      swap3\n      pop\n      swap3\n      jump\t// out\n        /* \"#utility.yul\":2302:2631   */\n    tag_23:\n        /* \"#utility.yul\":2361:2367   */\n      0x00\n        /* \"#utility.yul\":2410:2412   */\n      0x20\n        /* \"#utility.yul\":2398:2407   */\n      dup3\n        /* \"#utility.yul\":2389:2396   */\n      dup5\n        /* \"#utility.yul\":2385:2408   */\n      sub\n        /* \"#utility.yul\":2381:2413   */\n      slt\n        /* \"#utility.yul\":2378:2497   */\n      iszero\n      tag_157\n      jumpi\n        /* \"#utility.yul\":2416:2495   */\n      tag_158\n      tag_104\n      jump\t// in\n    tag_158:\n        /* \"#utility.yul\":2378:2497   */\n    tag_157:\n        /* \"#utility.yul\":2536:2537   */\n      0x00\n        /* \"#utility.yul\":2561:2614   */\n      tag_159\n        /* \"#utility.yul\":2606:2613   */\n      dup5\n        /* \"#utility.yul\":2597:2603   */\n      dup3\n        /* \"#utility.yul\":2586:2595   */\n      dup6\n        /* \"#utility.yul\":2582:2604   */\n      add\n        /* \"#utility.yul\":2561:2614   */\n      tag_109\n      jump\t// in\n    tag_159:\n        /* \"#utility.yul\":2551:2614   */\n      swap2\n      pop\n        /* \"#utility.yul\":2507:2624   */\n      pop\n        /* \"#utility.yul\":2302:2631   */\n      swap3\n      swap2\n      pop\n      pop\n      jump\t// out\n        /* \"#utility.yul\":2637:2755   */\n    tag_113:\n        /* \"#utility.yul\":2724:2748   */\n      tag_161\n        /* \"#utility.yul\":2742:2747   */\n      dup2\n        /* \"#utility.yul\":2724:2748   */\n      tag_110\n      jump\t// in\n    tag_161:\n        /* \"#utility.yul\":2719:2722   */\n      dup3\n        /* \"#utility.yul\":2712:2749   */\n      mstore\n        /* \"#utility.yul\":2637:2755   */\n      pop\n      pop\n      jump\t// out\n        /* \"#utility.yul\":2761:2983   */\n    tag_26:\n        /* \"#utility.yul\":2854:2858   */\n      0x00\n        /* \"#utility.yul\":2892:2894   */\n      0x20\n        /* \"#utility.yul\":2881:2890   */\n      dup3\n        /* \"#utility.yul\":2877:2895   */\n      add\n        /* \"#utility.yul\":2869:2895   */\n      swap1\n      pop\n        /* \"#utility.yul\":2905:2976   */\n      tag_163\n        /* \"#utility.yul\":2973:2974   */\n      0x00\n        /* \"#utility.yul\":2962:2971   */\n      dup4\n        /* \"#utility.yul\":2958:2975   */\n      add\n        /* \"#utility.yul\":2949:2955   */\n      dup5\n        /* \"#utility.yul\":2905:2976   */\n      tag_113\n      jump\t// in\n    tag_163:\n        /* \"#utility.yul\":2761:2983   */\n      swap3\n      swap2\n      pop\n      pop\n      jump\t// out\n        /* \"#utility.yul\":2989:3463   */\n    tag_36:\n        /* \"#utility.yul\":3057:3063   */\n      0x00\n        /* \"#utility.yul\":3065:3071   */\n      dup1\n        /* \"#utility.yul\":3114:3116   */\n      0x40\n        /* \"#utility.yul\":3102:3111   */\n      dup4\n        /* \"#utility.yul\":3093:3100   */\n      dup6\n        /* \"#utility.yul\":3089:3112   */\n      sub\n        /* \"#utility.yul\":3085:3117   */\n      slt\n        /* \"#utility.yul\":3082:3201   */\n      iszero\n      tag_165\n      jumpi\n        /* \"#utility.yul\":3120:3199   */\n      tag_166\n      tag_104\n      jump\t// in\n    tag_166:\n        /* \"#utility.yul\":3082:3201   */\n    tag_165:\n        /* \"#utility.yul\":3240:3241   */\n      0x00\n        /* \"#utility.yul\":3265:3318   */\n      tag_167\n        /* \"#utility.yul\":3310:3317   */\n      dup6\n        /* \"#utility.yul\":3301:3307   */\n      dup3\n        /* \"#utility.yul\":3290:3299   */\n      dup7\n        /* \"#utility.yul\":3286:3308   */\n      add\n        /* \"#utility.yul\":3265:3318   */\n      tag_109\n      jump\t// in\n    tag_167:\n        /* \"#utility.yul\":3255:3318   */\n      swap3\n      pop\n        /* \"#utility.yul\":3211:3328   */\n      pop\n        /* \"#utility.yul\":3367:3369   */\n      0x20\n        /* \"#utility.yul\":3393:3446   */\n      tag_168\n        /* \"#utility.yul\":3438:3445   */\n      dup6\n        /* \"#utility.yul\":3429:3435   */\n      dup3\n        /* \"#utility.yul\":3418:3427   */\n      dup7\n        /* \"#utility.yul\":3414:3436   */\n      add\n        /* \"#utility.yul\":3393:3446   */\n      tag_109\n      jump\t// in\n    tag_168:\n        /* \"#utility.yul\":3383:3446   */\n      swap2\n      pop\n        /* \"#utility.yul\":3338:3456   */\n      pop\n        /* \"#utility.yul\":2989:3463   */\n      swap3\n      pop\n      swap3\n      swap1\n      pop\n      jump\t// out\n        /* \"#utility.yul\":3469:3559   */\n    tag_114:\n        /* \"#utility.yul\":3503:3510   */\n      0x00\n        /* \"#utility.yul\":3546:3551   */\n      dup2\n        /* \"#utility.yul\":3539:3552   */\n      iszero\n        /* \"#utility.yul\":3532:3553   */\n      iszero\n        /* \"#utility.yul\":3521:3553   */\n      swap1\n      pop\n        /* \"#utility.yul\":3469:3559   */\n      swap2\n      swap1\n      pop\n      jump\t// out\n        /* \"#utility.yul\":3565:3674   */\n    tag_115:\n        /* \"#utility.yul\":3646:3667   */\n      tag_171\n        /* \"#utility.yul\":3661:3666   */\n      dup2\n        /* \"#utility.yul\":3646:3667   */\n      tag_114\n      jump\t// in\n    tag_171:\n        /* \"#utility.yul\":3641:3644   */\n      dup3\n        /* \"#utility.yul\":3634:3668   */\n      mstore\n        /* \"#utility.yul\":3565:3674   */\n      pop\n      pop\n      jump\t// out\n        /* \"#utility.yul\":3680:3890   */\n    tag_44:\n        /* \"#utility.yul\":3767:3771   */\n      0x00\n        /* \"#utility.yul\":3805:3807   */\n      0x20\n        /* \"#utility.yul\":3794:3803   */\n      dup3\n        /* \"#utility.yul\":3790:3808   */\n      add\n        /* \"#utility.yul\":3782:3808   */\n      swap1\n      pop\n        /* \"#utility.yul\":3818:3883   */\n      tag_173\n        /* \"#utility.yul\":3880:3881   */\n      0x00\n        /* \"#utility.yul\":3869:3878   */\n      dup4\n        /* \"#utility.yul\":3865:3882   */\n      add\n        /* \"#utility.yul\":3856:3862   */\n      dup5\n        /* \"#utility.yul\":3818:3883   */\n      tag_115\n      jump\t// in\n    tag_173:\n        /* \"#utility.yul\":3680:3890   */\n      swap3\n      swap2\n      pop\n      pop\n      jump\t// out\n        /* \"#utility.yul\":3896:4014   */\n    tag_116:\n        /* \"#utility.yul\":3983:4007   */\n      tag_175\n        /* \"#utility.yul\":4001:4006   */\n      dup2\n        /* \"#utility.yul\":3983:4007   */\n      tag_107\n      jump\t// in\n    tag_175:\n        /* \"#utility.yul\":3978:3981   */\n      dup3\n        /* \"#utility.yul\":3971:4008   */\n      mstore\n        /* \"#utility.yul\":3896:4014   */\n      pop\n      pop\n      jump\t// out\n        /* \"#utility.yul\":4020:4352   */\n    tag_47:\n        /* \"#utility.yul\":4141:4145   */\n      0x00\n        /* \"#utility.yul\":4179:4181   */\n      0x40\n        /* \"#utility.yul\":4168:4177   */\n      dup3\n        /* \"#utility.yul\":4164:4182   */\n      add\n        /* \"#utility.yul\":4156:4182   */\n      swap1\n      pop\n        /* \"#utility.yul\":4192:4263   */\n      tag_177\n        /* \"#utility.yul\":4260:4261   */\n      0x00\n        /* \"#utility.yul\":4249:4258   */\n      dup4\n        /* \"#utility.yul\":4245:4262   */\n      add\n        /* \"#utility.yul\":4236:4242   */\n      dup6\n        /* \"#utility.yul\":4192:4263   */\n      tag_116\n      jump\t// in\n    tag_177:\n        /* \"#utility.yul\":4273:4345   */\n      tag_178\n        /* \"#utility.yul\":4341:4343   */\n      0x20\n        /* \"#utility.yul\":4330:4339   */\n      dup4\n        /* \"#utility.yul\":4326:4344   */\n      add\n        /* \"#utility.yul\":4317:4323   */\n      dup5\n        /* \"#utility.yul\":4273:4345   */\n      tag_113\n      jump\t// in\n    tag_178:\n        /* \"#utility.yul\":4020:4352   */\n      swap4\n      swap3\n      pop\n      pop\n      pop\n      jump\t// out\n        /* \"#utility.yul\":4358:4474   */\n    tag_117:\n        /* \"#utility.yul\":4428:4449   */\n      tag_180\n        /* \"#utility.yul\":4443:4448   */\n      dup2\n        /* \"#utility.yul\":4428:4449   */\n      tag_114\n      jump\t// in\n    tag_180:\n        /* \"#utility.yul\":4421:4426   */\n      dup2\n        /* \"#utility.yul\":4418:4450   */\n      eq\n        /* \"#utility.yul\":4408:4468   */\n      tag_181\n      jumpi\n        /* \"#utility.yul\":4464:4465   */\n      0x00\n        /* \"#utility.yul\":4461:4462   */\n      dup1\n        /* \"#utility.yul\":4454:4466   */\n      revert\n        /* \"#utility.yul\":4408:4468   */\n    tag_181:\n        /* \"#utility.yul\":4358:4474   */\n      pop\n      jump\t// out\n        /* \"#utility.yul\":4480:4617   */\n    tag_118:\n        /* \"#utility.yul\":4534:4539   */\n      0x00\n        /* \"#utility.yul\":4565:4571   */\n      dup2\n        /* \"#utility.yul\":4559:4572   */\n      mload\n        /* \"#utility.yul\":4550:4572   */\n      swap1\n      pop\n        /* \"#utility.yul\":4581:4611   */\n      tag_183\n        /* \"#utility.yul\":4605:4610   */\n      dup2\n        /* \"#utility.yul\":4581:4611   */\n      tag_117\n      jump\t// in\n    tag_183:\n        /* \"#utility.yul\":4480:4617   */\n      swap3\n      swap2\n      pop\n      pop\n      jump\t// out\n        /* \"#utility.yul\":4623:4968   */\n    tag_51:\n        /* \"#utility.yul\":4690:4696   */\n      0x00\n        /* \"#utility.yul\":4739:4741   */\n      0x20\n        /* \"#utility.yul\":4727:4736   */\n      dup3\n        /* \"#utility.yul\":4718:4725   */\n      dup5\n        /* \"#utility.yul\":4714:4737   */\n      sub\n        /* \"#utility.yul\":4710:4742   */\n      slt\n        /* \"#utility.yul\":4707:4826   */\n      iszero\n      tag_185\n      jumpi\n        /* \"#utility.yul\":4745:4824   */\n      tag_186\n      tag_104\n      jump\t// in\n    tag_186:\n        /* \"#utility.yul\":4707:4826   */\n    tag_185:\n        /* \"#utility.yul\":4865:4866   */\n      0x00\n        /* \"#utility.yul\":4890:4951   */\n      tag_187\n        /* \"#utility.yul\":4943:4950   */\n      dup5\n        /* \"#utility.yul\":4934:4940   */\n      dup3\n        /* \"#utility.yul\":4923:4932   */\n      dup6\n        /* \"#utility.yul\":4919:4941   */\n      add\n        /* \"#utility.yul\":4890:4951   */\n      tag_118\n      jump\t// in\n    tag_187:\n        /* \"#utility.yul\":4880:4951   */\n      swap2\n      pop\n        /* \"#utility.yul\":4836:4961   */\n      pop\n        /* \"#utility.yul\":4623:4968   */\n      swap3\n      swap2\n      pop\n      pop\n      jump\t// out\n        /* \"#utility.yul\":4974:5306   */\n    tag_54:\n        /* \"#utility.yul\":5095:5099   */\n      0x00\n        /* \"#utility.yul\":5133:5135   */\n      0x40\n        /* \"#utility.yul\":5122:5131   */\n      dup3\n        /* \"#utility.yul\":5118:5136   */\n      add\n        /* \"#utility.yul\":5110:5136   */\n      swap1\n      pop\n        /* \"#utility.yul\":5146:5217   */\n      tag_189\n        /* \"#utility.yul\":5214:5215   */\n      0x00\n        /* \"#utility.yul\":5203:5212   */\n      dup4\n        /* \"#utility.yul\":5199:5216   */\n      add\n        /* \"#utility.yul\":5190:5196   */\n      dup6\n        /* \"#utility.yul\":5146:5217   */\n      tag_116\n      jump\t// in\n    tag_189:\n        /* \"#utility.yul\":5227:5299   */\n      tag_190\n        /* \"#utility.yul\":5295:5297   */\n      0x20\n        /* \"#utility.yul\":5284:5293   */\n      dup4\n        /* \"#utility.yul\":5280:5298   */\n      add\n        /* \"#utility.yul\":5271:5277   */\n      dup5\n        /* \"#utility.yul\":5227:5299   */\n      tag_116\n      jump\t// in\n    tag_190:\n        /* \"#utility.yul\":4974:5306   */\n      swap4\n      swap3\n      pop\n      pop\n      pop\n      jump\t// out\n        /* \"#utility.yul\":5312:5455   */\n    tag_119:\n        /* \"#utility.yul\":5369:5374   */\n      0x00\n        /* \"#utility.yul\":5400:5406   */\n      dup2\n        /* \"#utility.yul\":5394:5407   */\n      mload\n        /* \"#utility.yul\":5385:5407   */\n      swap1\n      pop\n        /* \"#utility.yul\":5416:5449   */\n      tag_192\n        /* \"#utility.yul\":5443:5448   */\n      dup2\n        /* \"#utility.yul\":5416:5449   */\n      tag_111\n      jump\t// in\n    tag_192:\n        /* \"#utility.yul\":5312:5455   */\n      swap3\n      swap2\n      pop\n      pop\n      jump\t// out\n        /* \"#utility.yul\":5461:5812   */\n    tag_58:\n        /* \"#utility.yul\":5531:5537   */\n      0x00\n        /* \"#utility.yul\":5580:5582   */\n      0x20\n        /* \"#utility.yul\":5568:5577   */\n      dup3\n        /* \"#utility.yul\":5559:5566   */\n      dup5\n        /* \"#utility.yul\":5555:5578   */\n      sub\n        /* \"#utility.yul\":5551:5583   */\n      slt\n        /* \"#utility.yul\":5548:5667   */\n      iszero\n      tag_194\n      jumpi\n        /* \"#utility.yul\":5586:5665   */\n      tag_195\n      tag_104\n      jump\t// in\n    tag_195:\n        /* \"#utility.yul\":5548:5667   */\n    tag_194:\n        /* \"#utility.yul\":5706:5707   */\n      0x00\n        /* \"#utility.yul\":5731:5795   */\n      tag_196\n        /* \"#utility.yul\":5787:5794   */\n      dup5\n        /* \"#utility.yul\":5778:5784   */\n      dup3\n        /* \"#utility.yul\":5767:5776   */\n      dup6\n        /* \"#utility.yul\":5763:5785   */\n      add\n        /* \"#utility.yul\":5731:5795   */\n      tag_119\n      jump\t// in\n    tag_196:\n        /* \"#utility.yul\":5721:5795   */\n      swap2\n      pop\n        /* \"#utility.yul\":5677:5805   */\n      pop\n        /* \"#utility.yul\":5461:5812   */\n      swap3\n      swap2\n      pop\n      pop\n      jump\t// out\n        /* \"#utility.yul\":5818:5987   */\n    tag_120:\n        /* \"#utility.yul\":5902:5913   */\n      0x00\n        /* \"#utility.yul\":5936:5942   */\n      dup3\n        /* \"#utility.yul\":5931:5934   */\n      dup3\n        /* \"#utility.yul\":5924:5943   */\n      mstore\n        /* \"#utility.yul\":5976:5980   */\n      0x20\n        /* \"#utility.yul\":5971:5974   */\n      dup3\n        /* \"#utility.yul\":5967:5981   */\n      add\n        /* \"#utility.yul\":5952:5981   */\n      swap1\n      pop\n        /* \"#utility.yul\":5818:5987   */\n      swap3\n      swap2\n      pop\n      pop\n      jump\t// out\n        /* \"#utility.yul\":5993:6221   */\n    tag_121:\n        /* \"#utility.yul\":6133:6167   */\n      0x5761726e696e673a20596f7520617265206e6f7420616c6c6f77656420746f20\n        /* \"#utility.yul\":6129:6130   */\n      0x00\n        /* \"#utility.yul\":6121:6127   */\n      dup3\n        /* \"#utility.yul\":6117:6131   */\n      add\n        /* \"#utility.yul\":6110:6168   */\n      mstore\n        /* \"#utility.yul\":6202:6213   */\n      0x7472616e73666572210000000000000000000000000000000000000000000000\n        /* \"#utility.yul\":6197:6199   */\n      0x20\n        /* \"#utility.yul\":6189:6195   */\n      dup3\n        /* \"#utility.yul\":6185:6200   */\n      add\n        /* \"#utility.yul\":6178:6214   */\n      mstore\n        /* \"#utility.yul\":5993:6221   */\n      pop\n      jump\t// out\n        /* \"#utility.yul\":6227:6593   */\n    tag_122:\n        /* \"#utility.yul\":6369:6372   */\n      0x00\n        /* \"#utility.yul\":6390:6457   */\n      tag_200\n        /* \"#utility.yul\":6454:6456   */\n      0x29\n        /* \"#utility.yul\":6449:6452   */\n      dup4\n        /* \"#utility.yul\":6390:6457   */\n      tag_120\n      jump\t// in\n    tag_200:\n        /* \"#utility.yul\":6383:6457   */\n      swap2\n      pop\n        /* \"#utility.yul\":6466:6559   */\n      tag_201\n        /* \"#utility.yul\":6555:6558   */\n      dup3\n        /* \"#utility.yul\":6466:6559   */\n      tag_121\n      jump\t// in\n    tag_201:\n        /* \"#utility.yul\":6584:6586   */\n      0x40\n        /* \"#utility.yul\":6579:6582   */\n      dup3\n        /* \"#utility.yul\":6575:6587   */\n      add\n        /* \"#utility.yul\":6568:6587   */\n      swap1\n      pop\n        /* \"#utility.yul\":6227:6593   */\n      swap2\n      swap1\n      pop\n      jump\t// out\n        /* \"#utility.yul\":6599:7018   */\n    tag_61:\n        /* \"#utility.yul\":6765:6769   */\n      0x00\n        /* \"#utility.yul\":6803:6805   */\n      0x20\n        /* \"#utility.yul\":6792:6801   */\n      dup3\n        /* \"#utility.yul\":6788:6806   */\n      add\n        /* \"#utility.yul\":6780:6806   */\n      swap1\n      pop\n        /* \"#utility.yul\":6852:6861   */\n      dup2\n        /* \"#utility.yul\":6846:6850   */\n      dup2\n        /* \"#utility.yul\":6842:6862   */\n      sub\n        /* \"#utility.yul\":6838:6839   */\n      0x00\n        /* \"#utility.yul\":6827:6836   */\n      dup4\n        /* \"#utility.yul\":6823:6840   */\n      add\n        /* \"#utility.yul\":6816:6863   */\n      mstore\n        /* \"#utility.yul\":6880:7011   */\n      tag_203\n        /* \"#utility.yul\":7006:7010   */\n      dup2\n        /* \"#utility.yul\":6880:7011   */\n      tag_122\n      jump\t// in\n    tag_203:\n        /* \"#utility.yul\":6872:7011   */\n      swap1\n      pop\n        /* \"#utility.yul\":6599:7018   */\n      swap2\n      swap1\n      pop\n      jump\t// out\n        /* \"#utility.yul\":7024:7466   */\n    tag_63:\n        /* \"#utility.yul\":7173:7177   */\n      0x00\n        /* \"#utility.yul\":7211:7213   */\n      0x60\n        /* \"#utility.yul\":7200:7209   */\n      dup3\n        /* \"#utility.yul\":7196:7214   */\n      add\n        /* \"#utility.yul\":7188:7214   */\n      swap1\n      pop\n        /* \"#utility.yul\":7224:7295   */\n      tag_205\n        /* \"#utility.yul\":7292:7293   */\n      0x00\n        /* \"#utility.yul\":7281:7290   */\n      dup4\n        /* \"#utility.yul\":7277:7294   */\n      add\n        /* \"#utility.yul\":7268:7274   */\n      dup7\n        /* \"#utility.yul\":7224:7295   */\n      tag_116\n      jump\t// in\n    tag_205:\n        /* \"#utility.yul\":7305:7377   */\n      tag_206\n        /* \"#utility.yul\":7373:7375   */\n      0x20\n        /* \"#utility.yul\":7362:7371   */\n      dup4\n        /* \"#utility.yul\":7358:7376   */\n      add\n        /* \"#utility.yul\":7349:7355   */\n      dup6\n        /* \"#utility.yul\":7305:7377   */\n      tag_116\n      jump\t// in\n    tag_206:\n        /* \"#utility.yul\":7387:7459   */\n      tag_207\n        /* \"#utility.yul\":7455:7457   */\n      0x40\n        /* \"#utility.yul\":7444:7453   */\n      dup4\n        /* \"#utility.yul\":7440:7458   */\n      add\n        /* \"#utility.yul\":7431:7437   */\n      dup5\n        /* \"#utility.yul\":7387:7459   */\n      tag_113\n      jump\t// in\n    tag_207:\n        /* \"#utility.yul\":7024:7466   */\n      swap5\n      swap4\n      pop\n      pop\n      pop\n      pop\n      jump\t// out\n        /* \"#utility.yul\":7472:7694   */\n    tag_69:\n        /* \"#utility.yul\":7565:7569   */\n      0x00\n        /* \"#utility.yul\":7603:7605   */\n      0x20\n        /* \"#utility.yul\":7592:7601   */\n      dup3\n        /* \"#utility.yul\":7588:7606   */\n      add\n        /* \"#utility.yul\":7580:7606   */\n      swap1\n      pop\n        /* \"#utility.yul\":7616:7687   */\n      tag_209\n        /* \"#utility.yul\":7684:7685   */\n      0x00\n        /* \"#utility.yul\":7673:7682   */\n      dup4\n        /* \"#utility.yul\":7669:7686   */\n      add\n        /* \"#utility.yul\":7660:7666   */\n      dup5\n        /* \"#utility.yul\":7616:7687   */\n      tag_116\n      jump\t// in\n    tag_209:\n        /* \"#utility.yul\":7472:7694   */\n      swap3\n      swap2\n      pop\n      pop\n      jump\t// out\n        /* \"#utility.yul\":7700:7880   */\n    tag_123:\n        /* \"#utility.yul\":7748:7825   */\n      0x4e487b7100000000000000000000000000000000000000000000000000000000\n        /* \"#utility.yul\":7745:7746   */\n      0x00\n        /* \"#utility.yul\":7738:7826   */\n      mstore\n        /* \"#utility.yul\":7845:7849   */\n      0x12\n        /* \"#utility.yul\":7842:7843   */\n      0x04\n        /* \"#utility.yul\":7835:7850   */\n      mstore\n        /* \"#utility.yul\":7869:7873   */\n      0x24\n        /* \"#utility.yul\":7866:7867   */\n      0x00\n        /* \"#utility.yul\":7859:7874   */\n      revert\n        /* \"#utility.yul\":7886:8066   */\n    tag_124:\n        /* \"#utility.yul\":7934:8011   */\n      0x4e487b7100000000000000000000000000000000000000000000000000000000\n        /* \"#utility.yul\":7931:7932   */\n      0x00\n        /* \"#utility.yul\":7924:8012   */\n      mstore\n        /* \"#utility.yul\":8031:8035   */\n      0x11\n        /* \"#utility.yul\":8028:8029   */\n      0x04\n        /* \"#utility.yul\":8021:8036   */\n      mstore\n        /* \"#utility.yul\":8055:8059   */\n      0x24\n        /* \"#utility.yul\":8052:8053   */\n      0x00\n        /* \"#utility.yul\":8045:8060   */\n      revert\n        /* \"#utility.yul\":8072:8257   */\n    tag_75:\n        /* \"#utility.yul\":8112:8113   */\n      0x00\n        /* \"#utility.yul\":8129:8149   */\n      tag_213\n        /* \"#utility.yul\":8147:8148   */\n      dup3\n        /* \"#utility.yul\":8129:8149   */\n      tag_110\n      jump\t// in\n    tag_213:\n        /* \"#utility.yul\":8124:8149   */\n      swap2\n      pop\n        /* \"#utility.yul\":8163:8183   */\n      tag_214\n        /* \"#utility.yul\":8181:8182   */\n      dup4\n        /* \"#utility.yul\":8163:8183   */\n      tag_110\n      jump\t// in\n    tag_214:\n        /* \"#utility.yul\":8158:8183   */\n      swap3\n      pop\n        /* \"#utility.yul\":8202:8203   */\n      dup3\n        /* \"#utility.yul\":8192:8227   */\n      tag_215\n      jumpi\n        /* \"#utility.yul\":8207:8225   */\n      tag_216\n      tag_123\n      jump\t// in\n    tag_216:\n        /* \"#utility.yul\":8192:8227   */\n    tag_215:\n        /* \"#utility.yul\":8249:8250   */\n      dup3\n        /* \"#utility.yul\":8246:8247   */\n      dup3\n        /* \"#utility.yul\":8242:8251   */\n      div\n        /* \"#utility.yul\":8237:8251   */\n      swap1\n      pop\n        /* \"#utility.yul\":8072:8257   */\n      swap3\n      swap2\n      pop\n      pop\n      jump\t// out\n        /* \"#utility.yul\":8263:8454   */\n    tag_80:\n        /* \"#utility.yul\":8303:8306   */\n      0x00\n        /* \"#utility.yul\":8322:8342   */\n      tag_218\n        /* \"#utility.yul\":8340:8341   */\n      dup3\n        /* \"#utility.yul\":8322:8342   */\n      tag_110\n      jump\t// in\n    tag_218:\n        /* \"#utility.yul\":8317:8342   */\n      swap2\n      pop\n        /* \"#utility.yul\":8356:8376   */\n      tag_219\n        /* \"#utility.yul\":8374:8375   */\n      dup4\n        /* \"#utility.yul\":8356:8376   */\n      tag_110\n      jump\t// in\n    tag_219:\n        /* \"#utility.yul\":8351:8376   */\n      swap3\n      pop\n        /* \"#utility.yul\":8399:8400   */\n      dup3\n        /* \"#utility.yul\":8396:8397   */\n      dup3\n        /* \"#utility.yul\":8392:8401   */\n      add\n        /* \"#utility.yul\":8385:8401   */\n      swap1\n      pop\n        /* \"#utility.yul\":8420:8423   */\n      dup1\n        /* \"#utility.yul\":8417:8418   */\n      dup3\n        /* \"#utility.yul\":8414:8424   */\n      gt\n        /* \"#utility.yul\":8411:8447   */\n      iszero\n      tag_220\n      jumpi\n        /* \"#utility.yul\":8427:8445   */\n      tag_221\n      tag_124\n      jump\t// in\n    tag_221:\n        /* \"#utility.yul\":8411:8447   */\n    tag_220:\n        /* \"#utility.yul\":8263:8454   */\n      swap3\n      swap2\n      pop\n      pop\n      jump\t// out\n        /* \"#utility.yul\":8460:8637   */\n    tag_125:\n        /* \"#utility.yul\":8600:8629   */\n      0x5761726e696e673a20496e73756666696369656e742047656d73210000000000\n        /* \"#utility.yul\":8596:8597   */\n      0x00\n        /* \"#utility.yul\":8588:8594   */\n      dup3\n        /* \"#utility.yul\":8584:8598   */\n      add\n        /* \"#utility.yul\":8577:8630   */\n      mstore\n        /* \"#utility.yul\":8460:8637   */\n      pop\n      jump\t// out\n        /* \"#utility.yul\":8643:9009   */\n    tag_126:\n        /* \"#utility.yul\":8785:8788   */\n      0x00\n        /* \"#utility.yul\":8806:8873   */\n      tag_224\n        /* \"#utility.yul\":8870:8872   */\n      0x1b\n        /* \"#utility.yul\":8865:8868   */\n      dup4\n        /* \"#utility.yul\":8806:8873   */\n      tag_120\n      jump\t// in\n    tag_224:\n        /* \"#utility.yul\":8799:8873   */\n      swap2\n      pop\n        /* \"#utility.yul\":8882:8975   */\n      tag_225\n        /* \"#utility.yul\":8971:8974   */\n      dup3\n        /* \"#utility.yul\":8882:8975   */\n      tag_125\n      jump\t// in\n    tag_225:\n        /* \"#utility.yul\":9000:9002   */\n      0x20\n        /* \"#utility.yul\":8995:8998   */\n      dup3\n        /* \"#utility.yul\":8991:9003   */\n      add\n        /* \"#utility.yul\":8984:9003   */\n      swap1\n      pop\n        /* \"#utility.yul\":8643:9009   */\n      swap2\n      swap1\n      pop\n      jump\t// out\n        /* \"#utility.yul\":9015:9434   */\n    tag_83:\n        /* \"#utility.yul\":9181:9185   */\n      0x00\n        /* \"#utility.yul\":9219:9221   */\n      0x20\n        /* \"#utility.yul\":9208:9217   */\n      dup3\n        /* \"#utility.yul\":9204:9222   */\n      add\n        /* \"#utility.yul\":9196:9222   */\n      swap1\n      pop\n        /* \"#utility.yul\":9268:9277   */\n      dup2\n        /* \"#utility.yul\":9262:9266   */\n      dup2\n        /* \"#utility.yul\":9258:9278   */\n      sub\n        /* \"#utility.yul\":9254:9255   */\n      0x00\n        /* \"#utility.yul\":9243:9252   */\n      dup4\n        /* \"#utility.yul\":9239:9256   */\n      add\n        /* \"#utility.yul\":9232:9279   */\n      mstore\n        /* \"#utility.yul\":9296:9427   */\n      tag_227\n        /* \"#utility.yul\":9422:9426   */\n      dup2\n        /* \"#utility.yul\":9296:9427   */\n      tag_126\n      jump\t// in\n    tag_227:\n        /* \"#utility.yul\":9288:9427   */\n      swap1\n      pop\n        /* \"#utility.yul\":9015:9434   */\n      swap2\n      swap1\n      pop\n      jump\t// out\n\n    auxdata: 0xa264697066735822122050b8f6eecfedade626e06eb67dfde40aa8471a17355df2340a9f754a1bbc62ef64736f6c63430008130033\n}\n\nsub_1: assembly {\n        /* \"contracts/ERC20.sol\":1528:12939  contract ERC20 is Context, IERC20, IERC20Metadata {... */\n      mstore(0x40, 0x80)\n        /* \"contracts/ERC20.sol\":1976:2089  constructor(string memory name_, string memory symbol_) {... */\n      callvalue\n      dup1\n      iszero\n      tag_1\n      jumpi\n      0x00\n      dup1\n      revert\n    tag_1:\n      pop\n      mload(0x40)\n      sub(codesize, bytecodeSize)\n      dup1\n      bytecodeSize\n      dup4\n      codecopy\n      dup2\n      dup2\n      add\n      0x40\n      mstore\n      dup2\n      add\n      swap1\n      tag_2\n      swap2\n      swap1\n      tag_3\n      jump\t// in\n    tag_2:\n        /* \"contracts/ERC20.sol\":2050:2055  name_ */\n      dup2\n        /* \"contracts/ERC20.sol\":2042:2047  _name */\n      0x03\n        /* \"contracts/ERC20.sol\":2042:2055  _name = name_ */\n      swap1\n      dup2\n      tag_6\n      swap2\n      swap1\n      tag_7\n      jump\t// in\n    tag_6:\n      pop\n        /* \"contracts/ERC20.sol\":2075:2082  symbol_ */\n      dup1\n        /* \"contracts/ERC20.sol\":2065:2072  _symbol */\n      0x04\n        /* \"contracts/ERC20.sol\":2065:2082  _symbol = symbol_ */\n      swap1\n      dup2\n      tag_8\n      swap2\n      swap1\n      tag_7\n      jump\t// in\n    tag_8:\n      pop\n        /* \"contracts/ERC20.sol\":1976:2089  constructor(string memory name_, string memory symbol_) {... */\n      pop\n      pop\n        /* \"contracts/ERC20.sol\":1528:12939  contract ERC20 is Context, IERC20, IERC20Metadata {... */\n      jump(tag_9)\n        /* \"#utility.yul\":7:82   */\n    tag_10:\n        /* \"#utility.yul\":40:46   */\n      0x00\n        /* \"#utility.yul\":73:75   */\n      0x40\n        /* \"#utility.yul\":67:76   */\n      mload\n        /* \"#utility.yul\":57:76   */\n      swap1\n      pop\n        /* \"#utility.yul\":7:82   */\n      swap1\n      jump\t// out\n        /* \"#utility.yul\":88:205   */\n    tag_11:\n        /* \"#utility.yul\":197:198   */\n      0x00\n        /* \"#utility.yul\":194:195   */\n      dup1\n        /* \"#utility.yul\":187:199   */\n      revert\n        /* \"#utility.yul\":211:328   */\n    tag_12:\n        /* \"#utility.yul\":320:321   */\n      0x00\n        /* \"#utility.yul\":317:318   */\n      dup1\n        /* \"#utility.yul\":310:322   */\n      revert\n        /* \"#utility.yul\":334:451   */\n    tag_13:\n        /* \"#utility.yul\":443:444   */\n      0x00\n        /* \"#utility.yul\":440:441   */\n      dup1\n        /* \"#utility.yul\":433:445   */\n      revert\n        /* \"#utility.yul\":457:574   */\n    tag_14:\n        /* \"#utility.yul\":566:567   */\n      0x00\n        /* \"#utility.yul\":563:564   */\n      dup1\n        /* \"#utility.yul\":556:568   */\n      revert\n        /* \"#utility.yul\":580:682   */\n    tag_15:\n        /* \"#utility.yul\":621:627   */\n      0x00\n        /* \"#utility.yul\":672:674   */\n      0x1f\n        /* \"#utility.yul\":668:675   */\n      not\n        /* \"#utility.yul\":663:665   */\n      0x1f\n        /* \"#utility.yul\":656:661   */\n      dup4\n        /* \"#utility.yul\":652:666   */\n      add\n        /* \"#utility.yul\":648:676   */\n      and\n        /* \"#utility.yul\":638:676   */\n      swap1\n      pop\n        /* \"#utility.yul\":580:682   */\n      swap2\n      swap1\n      pop\n      jump\t// out\n        /* \"#utility.yul\":688:868   */\n    tag_16:\n        /* \"#utility.yul\":736:813   */\n      0x4e487b7100000000000000000000000000000000000000000000000000000000\n        /* \"#utility.yul\":733:734   */\n      0x00\n        /* \"#utility.yul\":726:814   */\n      mstore\n        /* \"#utility.yul\":833:837   */\n      0x41\n        /* \"#utility.yul\":830:831   */\n      0x04\n        /* \"#utility.yul\":823:838   */\n      mstore\n        /* \"#utility.yul\":857:861   */\n      0x24\n        /* \"#utility.yul\":854:855   */\n      0x00\n        /* \"#utility.yul\":847:862   */\n      revert\n        /* \"#utility.yul\":874:1155   */\n    tag_17:\n        /* \"#utility.yul\":957:984   */\n      tag_51\n        /* \"#utility.yul\":979:983   */\n      dup3\n        /* \"#utility.yul\":957:984   */\n      tag_15\n      jump\t// in\n    tag_51:\n        /* \"#utility.yul\":949:955   */\n      dup2\n        /* \"#utility.yul\":945:985   */\n      add\n        /* \"#utility.yul\":1087:1093   */\n      dup2\n        /* \"#utility.yul\":1075:1085   */\n      dup2\n        /* \"#utility.yul\":1072:1094   */\n      lt\n        /* \"#utility.yul\":1051:1069   */\n      0xffffffffffffffff\n        /* \"#utility.yul\":1039:1049   */\n      dup3\n        /* \"#utility.yul\":1036:1070   */\n      gt\n        /* \"#utility.yul\":1033:1095   */\n      or\n        /* \"#utility.yul\":1030:1118   */\n      iszero\n      tag_52\n      jumpi\n        /* \"#utility.yul\":1098:1116   */\n      tag_53\n      tag_16\n      jump\t// in\n    tag_53:\n        /* \"#utility.yul\":1030:1118   */\n    tag_52:\n        /* \"#utility.yul\":1138:1148   */\n      dup1\n        /* \"#utility.yul\":1134:1136   */\n      0x40\n        /* \"#utility.yul\":1127:1149   */\n      mstore\n        /* \"#utility.yul\":917:1155   */\n      pop\n        /* \"#utility.yul\":874:1155   */\n      pop\n      pop\n      jump\t// out\n        /* \"#utility.yul\":1161:1290   */\n    tag_18:\n        /* \"#utility.yul\":1195:1201   */\n      0x00\n        /* \"#utility.yul\":1222:1242   */\n      tag_55\n      tag_10\n      jump\t// in\n    tag_55:\n        /* \"#utility.yul\":1212:1242   */\n      swap1\n      pop\n        /* \"#utility.yul\":1251:1284   */\n      tag_56\n        /* \"#utility.yul\":1279:1283   */\n      dup3\n        /* \"#utility.yul\":1271:1277   */\n      dup3\n        /* \"#utility.yul\":1251:1284   */\n      tag_17\n      jump\t// in\n    tag_56:\n        /* \"#utility.yul\":1161:1290   */\n      swap2\n      swap1\n      pop\n      jump\t// out\n        /* \"#utility.yul\":1296:1604   */\n    tag_19:\n        /* \"#utility.yul\":1358:1362   */\n      0x00\n        /* \"#utility.yul\":1448:1466   */\n      0xffffffffffffffff\n        /* \"#utility.yul\":1440:1446   */\n      dup3\n        /* \"#utility.yul\":1437:1467   */\n      gt\n        /* \"#utility.yul\":1434:1490   */\n      iszero\n      tag_58\n      jumpi\n        /* \"#utility.yul\":1470:1488   */\n      tag_59\n      tag_16\n      jump\t// in\n    tag_59:\n        /* \"#utility.yul\":1434:1490   */\n    tag_58:\n        /* \"#utility.yul\":1508:1537   */\n      tag_60\n        /* \"#utility.yul\":1530:1536   */\n      dup3\n        /* \"#utility.yul\":1508:1537   */\n      tag_15\n      jump\t// in\n    tag_60:\n        /* \"#utility.yul\":1500:1537   */\n      swap1\n      pop\n        /* \"#utility.yul\":1592:1596   */\n      0x20\n        /* \"#utility.yul\":1586:1590   */\n      dup2\n        /* \"#utility.yul\":1582:1597   */\n      add\n        /* \"#utility.yul\":1574:1597   */\n      swap1\n      pop\n        /* \"#utility.yul\":1296:1604   */\n      swap2\n      swap1\n      pop\n      jump\t// out\n        /* \"#utility.yul\":1610:1856   */\n    tag_20:\n        /* \"#utility.yul\":1691:1692   */\n      0x00\n        /* \"#utility.yul\":1701:1814   */\n    tag_62:\n        /* \"#utility.yul\":1715:1721   */\n      dup4\n        /* \"#utility.yul\":1712:1713   */\n      dup2\n        /* \"#utility.yul\":1709:1722   */\n      lt\n        /* \"#utility.yul\":1701:1814   */\n      iszero\n      tag_64\n      jumpi\n        /* \"#utility.yul\":1800:1801   */\n      dup1\n        /* \"#utility.yul\":1795:1798   */\n      dup3\n        /* \"#utility.yul\":1791:1802   */\n      add\n        /* \"#utility.yul\":1785:1803   */\n      mload\n        /* \"#utility.yul\":1781:1782   */\n      dup2\n        /* \"#utility.yul\":1776:1779   */\n      dup5\n        /* \"#utility.yul\":1772:1783   */\n      add\n        /* \"#utility.yul\":1765:1804   */\n      mstore\n        /* \"#utility.yul\":1737:1739   */\n      0x20\n        /* \"#utility.yul\":1734:1735   */\n      dup2\n        /* \"#utility.yul\":1730:1740   */\n      add\n        /* \"#utility.yul\":1725:1740   */\n      swap1\n      pop\n        /* \"#utility.yul\":1701:1814   */\n      jump(tag_62)\n    tag_64:\n        /* \"#utility.yul\":1848:1849   */\n      0x00\n        /* \"#utility.yul\":1839:1845   */\n      dup5\n        /* \"#utility.yul\":1834:1837   */\n      dup5\n        /* \"#utility.yul\":1830:1846   */\n      add\n        /* \"#utility.yul\":1823:1850   */\n      mstore\n        /* \"#utility.yul\":1672:1856   */\n      pop\n        /* \"#utility.yul\":1610:1856   */\n      pop\n      pop\n      pop\n      jump\t// out\n        /* \"#utility.yul\":1862:2296   */\n    tag_21:\n        /* \"#utility.yul\":1951:1956   */\n      0x00\n        /* \"#utility.yul\":1976:2042   */\n      tag_66\n        /* \"#utility.yul\":1992:2041   */\n      tag_67\n        /* \"#utility.yul\":2034:2040   */\n      dup5\n        /* \"#utility.yul\":1992:2041   */\n      tag_19\n      jump\t// in\n    tag_67:\n        /* \"#utility.yul\":1976:2042   */\n      tag_18\n      jump\t// in\n    tag_66:\n        /* \"#utility.yul\":1967:2042   */\n      swap1\n      pop\n        /* \"#utility.yul\":2065:2071   */\n      dup3\n        /* \"#utility.yul\":2058:2063   */\n      dup2\n        /* \"#utility.yul\":2051:2072   */\n      mstore\n        /* \"#utility.yul\":2103:2107   */\n      0x20\n        /* \"#utility.yul\":2096:2101   */\n      dup2\n        /* \"#utility.yul\":2092:2108   */\n      add\n        /* \"#utility.yul\":2141:2144   */\n      dup5\n        /* \"#utility.yul\":2132:2138   */\n      dup5\n        /* \"#utility.yul\":2127:2130   */\n      dup5\n        /* \"#utility.yul\":2123:2139   */\n      add\n        /* \"#utility.yul\":2120:2145   */\n      gt\n        /* \"#utility.yul\":2117:2229   */\n      iszero\n      tag_68\n      jumpi\n        /* \"#utility.yul\":2148:2227   */\n      tag_69\n      tag_14\n      jump\t// in\n    tag_69:\n        /* \"#utility.yul\":2117:2229   */\n    tag_68:\n        /* \"#utility.yul\":2238:2290   */\n      tag_70\n        /* \"#utility.yul\":2283:2289   */\n      dup5\n        /* \"#utility.yul\":2278:2281   */\n      dup3\n        /* \"#utility.yul\":2273:2276   */\n      dup6\n        /* \"#utility.yul\":2238:2290   */\n      tag_20\n      jump\t// in\n    tag_70:\n        /* \"#utility.yul\":1957:2296   */\n      pop\n        /* \"#utility.yul\":1862:2296   */\n      swap4\n      swap3\n      pop\n      pop\n      pop\n      jump\t// out\n        /* \"#utility.yul\":2316:2671   */\n    tag_22:\n        /* \"#utility.yul\":2383:2388   */\n      0x00\n        /* \"#utility.yul\":2432:2435   */\n      dup3\n        /* \"#utility.yul\":2425:2429   */\n      0x1f\n        /* \"#utility.yul\":2417:2423   */\n      dup4\n        /* \"#utility.yul\":2413:2430   */\n      add\n        /* \"#utility.yul\":2409:2436   */\n      slt\n        /* \"#utility.yul\":2399:2521   */\n      tag_72\n      jumpi\n        /* \"#utility.yul\":2440:2519   */\n      tag_73\n      tag_13\n      jump\t// in\n    tag_73:\n        /* \"#utility.yul\":2399:2521   */\n    tag_72:\n        /* \"#utility.yul\":2550:2556   */\n      dup2\n        /* \"#utility.yul\":2544:2557   */\n      mload\n        /* \"#utility.yul\":2575:2665   */\n      tag_74\n        /* \"#utility.yul\":2661:2664   */\n      dup5\n        /* \"#utility.yul\":2653:2659   */\n      dup3\n        /* \"#utility.yul\":2646:2650   */\n      0x20\n        /* \"#utility.yul\":2638:2644   */\n      dup7\n        /* \"#utility.yul\":2634:2651   */\n      add\n        /* \"#utility.yul\":2575:2665   */\n      tag_21\n      jump\t// in\n    tag_74:\n        /* \"#utility.yul\":2566:2665   */\n      swap2\n      pop\n        /* \"#utility.yul\":2389:2671   */\n      pop\n        /* \"#utility.yul\":2316:2671   */\n      swap3\n      swap2\n      pop\n      pop\n      jump\t// out\n        /* \"#utility.yul\":2677:3530   */\n    tag_3:\n        /* \"#utility.yul\":2776:2782   */\n      0x00\n        /* \"#utility.yul\":2784:2790   */\n      dup1\n        /* \"#utility.yul\":2833:2835   */\n      0x40\n        /* \"#utility.yul\":2821:2830   */\n      dup4\n        /* \"#utility.yul\":2812:2819   */\n      dup6\n        /* \"#utility.yul\":2808:2831   */\n      sub\n        /* \"#utility.yul\":2804:2836   */\n      slt\n        /* \"#utility.yul\":2801:2920   */\n      iszero\n      tag_76\n      jumpi\n        /* \"#utility.yul\":2839:2918   */\n      tag_77\n      tag_11\n      jump\t// in\n    tag_77:\n        /* \"#utility.yul\":2801:2920   */\n    tag_76:\n        /* \"#utility.yul\":2980:2981   */\n      0x00\n        /* \"#utility.yul\":2969:2978   */\n      dup4\n        /* \"#utility.yul\":2965:2982   */\n      add\n        /* \"#utility.yul\":2959:2983   */\n      mload\n        /* \"#utility.yul\":3010:3028   */\n      0xffffffffffffffff\n        /* \"#utility.yul\":3002:3008   */\n      dup2\n        /* \"#utility.yul\":2999:3029   */\n      gt\n        /* \"#utility.yul\":2996:3113   */\n      iszero\n      tag_78\n      jumpi\n        /* \"#utility.yul\":3032:3111   */\n      tag_79\n      tag_12\n      jump\t// in\n    tag_79:\n        /* \"#utility.yul\":2996:3113   */\n    tag_78:\n        /* \"#utility.yul\":3137:3211   */\n      tag_80\n        /* \"#utility.yul\":3203:3210   */\n      dup6\n        /* \"#utility.yul\":3194:3200   */\n      dup3\n        /* \"#utility.yul\":3183:3192   */\n      dup7\n        /* \"#utility.yul\":3179:3201   */\n      add\n        /* \"#utility.yul\":3137:3211   */\n      tag_22\n      jump\t// in\n    tag_80:\n        /* \"#utility.yul\":3127:3211   */\n      swap3\n      pop\n        /* \"#utility.yul\":2930:3221   */\n      pop\n        /* \"#utility.yul\":3281:3283   */\n      0x20\n        /* \"#utility.yul\":3270:3279   */\n      dup4\n        /* \"#utility.yul\":3266:3284   */\n      add\n        /* \"#utility.yul\":3260:3285   */\n      mload\n        /* \"#utility.yul\":3312:3330   */\n      0xffffffffffffffff\n        /* \"#utility.yul\":3304:3310   */\n      dup2\n        /* \"#utility.yul\":3301:3331   */\n      gt\n        /* \"#utility.yul\":3298:3415   */\n      iszero\n      tag_81\n      jumpi\n        /* \"#utility.yul\":3334:3413   */\n      tag_82\n      tag_12\n      jump\t// in\n    tag_82:\n        /* \"#utility.yul\":3298:3415   */\n    tag_81:\n        /* \"#utility.yul\":3439:3513   */\n      tag_83\n        /* \"#utility.yul\":3505:3512   */\n      dup6\n        /* \"#utility.yul\":3496:3502   */\n      dup3\n        /* \"#utility.yul\":3485:3494   */\n      dup7\n        /* \"#utility.yul\":3481:3503   */\n      add\n        /* \"#utility.yul\":3439:3513   */\n      tag_22\n      jump\t// in\n    tag_83:\n        /* \"#utility.yul\":3429:3513   */\n      swap2\n      pop\n        /* \"#utility.yul\":3231:3523   */\n      pop\n        /* \"#utility.yul\":2677:3530   */\n      swap3\n      pop\n      swap3\n      swap1\n      pop\n      jump\t// out\n        /* \"#utility.yul\":3536:3635   */\n    tag_23:\n        /* \"#utility.yul\":3588:3594   */\n      0x00\n        /* \"#utility.yul\":3622:3627   */\n      dup2\n        /* \"#utility.yul\":3616:3628   */\n      mload\n        /* \"#utility.yul\":3606:3628   */\n      swap1\n      pop\n        /* \"#utility.yul\":3536:3635   */\n      swap2\n      swap1\n      pop\n      jump\t// out\n        /* \"#utility.yul\":3641:3821   */\n    tag_24:\n        /* \"#utility.yul\":3689:3766   */\n      0x4e487b7100000000000000000000000000000000000000000000000000000000\n        /* \"#utility.yul\":3686:3687   */\n      0x00\n        /* \"#utility.yul\":3679:3767   */\n      mstore\n        /* \"#utility.yul\":3786:3790   */\n      0x22\n        /* \"#utility.yul\":3783:3784   */\n      0x04\n        /* \"#utility.yul\":3776:3791   */\n      mstore\n        /* \"#utility.yul\":3810:3814   */\n      0x24\n        /* \"#utility.yul\":3807:3808   */\n      0x00\n        /* \"#utility.yul\":3800:3815   */\n      revert\n        /* \"#utility.yul\":3827:4147   */\n    tag_25:\n        /* \"#utility.yul\":3871:3877   */\n      0x00\n        /* \"#utility.yul\":3908:3909   */\n      0x02\n        /* \"#utility.yul\":3902:3906   */\n      dup3\n        /* \"#utility.yul\":3898:3910   */\n      div\n        /* \"#utility.yul\":3888:3910   */\n      swap1\n      pop\n        /* \"#utility.yul\":3955:3956   */\n      0x01\n        /* \"#utility.yul\":3949:3953   */\n      dup3\n        /* \"#utility.yul\":3945:3957   */\n      and\n        /* \"#utility.yul\":3976:3994   */\n      dup1\n        /* \"#utility.yul\":3966:4047   */\n      tag_87\n      jumpi\n        /* \"#utility.yul\":4032:4036   */\n      0x7f\n        /* \"#utility.yul\":4024:4030   */\n      dup3\n        /* \"#utility.yul\":4020:4037   */\n      and\n        /* \"#utility.yul\":4010:4037   */\n      swap2\n      pop\n        /* \"#utility.yul\":3966:4047   */\n    tag_87:\n        /* \"#utility.yul\":4094:4096   */\n      0x20\n        /* \"#utility.yul\":4086:4092   */\n      dup3\n        /* \"#utility.yul\":4083:4097   */\n      lt\n        /* \"#utility.yul\":4063:4081   */\n      dup2\n        /* \"#utility.yul\":4060:4098   */\n      sub\n        /* \"#utility.yul\":4057:4141   */\n      tag_88\n      jumpi\n        /* \"#utility.yul\":4113:4131   */\n      tag_89\n      tag_24\n      jump\t// in\n    tag_89:\n        /* \"#utility.yul\":4057:4141   */\n    tag_88:\n        /* \"#utility.yul\":3878:4147   */\n      pop\n        /* \"#utility.yul\":3827:4147   */\n      swap2\n      swap1\n      pop\n      jump\t// out\n        /* \"#utility.yul\":4153:4294   */\n    tag_26:\n        /* \"#utility.yul\":4202:4206   */\n      0x00\n        /* \"#utility.yul\":4225:4228   */\n      dup2\n        /* \"#utility.yul\":4217:4228   */\n      swap1\n      pop\n        /* \"#utility.yul\":4248:4251   */\n      dup2\n        /* \"#utility.yul\":4245:4246   */\n      0x00\n        /* \"#utility.yul\":4238:4252   */\n      mstore\n        /* \"#utility.yul\":4282:4286   */\n      0x20\n        /* \"#utility.yul\":4279:4280   */\n      0x00\n        /* \"#utility.yul\":4269:4287   */\n      keccak256\n        /* \"#utility.yul\":4261:4287   */\n      swap1\n      pop\n        /* \"#utility.yul\":4153:4294   */\n      swap2\n      swap1\n      pop\n      jump\t// out\n        /* \"#utility.yul\":4300:4393   */\n    tag_27:\n        /* \"#utility.yul\":4337:4343   */\n      0x00\n        /* \"#utility.yul\":4384:4386   */\n      0x20\n        /* \"#utility.yul\":4379:4381   */\n      0x1f\n        /* \"#utility.yul\":4372:4377   */\n      dup4\n        /* \"#utility.yul\":4368:4382   */\n      add\n        /* \"#utility.yul\":4364:4387   */\n      div\n        /* \"#utility.yul\":4354:4387   */\n      swap1\n      pop\n        /* \"#utility.yul\":4300:4393   */\n      swap2\n      swap1\n      pop\n      jump\t// out\n        /* \"#utility.yul\":4399:4506   */\n    tag_28:\n        /* \"#utility.yul\":4443:4451   */\n      0x00\n        /* \"#utility.yul\":4493:4498   */\n      dup3\n        /* \"#utility.yul\":4487:4491   */\n      dup3\n        /* \"#utility.yul\":4483:4499   */\n      shl\n        /* \"#utility.yul\":4462:4499   */\n      swap1\n      pop\n        /* \"#utility.yul\":4399:4506   */\n      swap3\n      swap2\n      pop\n      pop\n      jump\t// out\n        /* \"#utility.yul\":4512:4905   */\n    tag_29:\n        /* \"#utility.yul\":4581:4587   */\n      0x00\n        /* \"#utility.yul\":4631:4632   */\n      0x08\n        /* \"#utility.yul\":4619:4629   */\n      dup4\n        /* \"#utility.yul\":4615:4633   */\n      mul\n        /* \"#utility.yul\":4654:4751   */\n      tag_94\n        /* \"#utility.yul\":4684:4750   */\n      0xffffffffffffffffffffffffffffffffffffffffffffffffffffffffffffffff\n        /* \"#utility.yul\":4673:4682   */\n      dup3\n        /* \"#utility.yul\":4654:4751   */\n      tag_28\n      jump\t// in\n    tag_94:\n        /* \"#utility.yul\":4772:4811   */\n      tag_95\n        /* \"#utility.yul\":4802:4810   */\n      dup7\n        /* \"#utility.yul\":4791:4800   */\n      dup4\n        /* \"#utility.yul\":4772:4811   */\n      tag_28\n      jump\t// in\n    tag_95:\n        /* \"#utility.yul\":4760:4811   */\n      swap6\n      pop\n        /* \"#utility.yul\":4844:4848   */\n      dup1\n        /* \"#utility.yul\":4840:4849   */\n      not\n        /* \"#utility.yul\":4833:4838   */\n      dup5\n        /* \"#utility.yul\":4829:4850   */\n      and\n        /* \"#utility.yul\":4820:4850   */\n      swap4\n      pop\n        /* \"#utility.yul\":4893:4897   */\n      dup1\n        /* \"#utility.yul\":4883:4891   */\n      dup7\n        /* \"#utility.yul\":4879:4898   */\n      and\n        /* \"#utility.yul\":4872:4877   */\n      dup5\n        /* \"#utility.yul\":4869:4899   */\n      or\n        /* \"#utility.yul\":4859:4899   */\n      swap3\n      pop\n        /* \"#utility.yul\":4588:4905   */\n      pop\n      pop\n        /* \"#utility.yul\":4512:4905   */\n      swap4\n      swap3\n      pop\n      pop\n      pop\n      jump\t// out\n        /* \"#utility.yul\":4911:4988   */\n    tag_30:\n        /* \"#utility.yul\":4948:4955   */\n      0x00\n        /* \"#utility.yul\":4977:4982   */\n      dup2\n        /* \"#utility.yul\":4966:4982   */\n      swap1\n      pop\n        /* \"#utility.yul\":4911:4988   */\n      swap2\n      swap1\n      pop\n      jump\t// out\n        /* \"#utility.yul\":4994:5054   */\n    tag_31:\n        /* \"#utility.yul\":5022:5025   */\n      0x00\n        /* \"#utility.yul\":5043:5048   */\n      dup2\n        /* \"#utility.yul\":5036:5048   */\n      swap1\n      pop\n        /* \"#utility.yul\":4994:5054   */\n      swap2\n      swap1\n      pop\n      jump\t// out\n        /* \"#utility.yul\":5060:5202   */\n    tag_32:\n        /* \"#utility.yul\":5110:5119   */\n      0x00\n        /* \"#utility.yul\":5143:5196   */\n      tag_99\n        /* \"#utility.yul\":5161:5195   */\n      tag_100\n        /* \"#utility.yul\":5170:5194   */\n      tag_101\n        /* \"#utility.yul\":5188:5193   */\n      dup5\n        /* \"#utility.yul\":5170:5194   */\n      tag_30\n      jump\t// in\n    tag_101:\n        /* \"#utility.yul\":5161:5195   */\n      tag_31\n      jump\t// in\n    tag_100:\n        /* \"#utility.yul\":5143:5196   */\n      tag_30\n      jump\t// in\n    tag_99:\n        /* \"#utility.yul\":5130:5196   */\n      swap1\n      pop\n        /* \"#utility.yul\":5060:5202   */\n      swap2\n      swap1\n      pop\n      jump\t// out\n        /* \"#utility.yul\":5208:5283   */\n    tag_33:\n        /* \"#utility.yul\":5251:5254   */\n      0x00\n        /* \"#utility.yul\":5272:5277   */\n      dup2\n        /* \"#utility.yul\":5265:5277   */\n      swap1\n      pop\n        /* \"#utility.yul\":5208:5283   */\n      swap2\n      swap1\n      pop\n      jump\t// out\n        /* \"#utility.yul\":5289:5558   */\n    tag_34:\n        /* \"#utility.yul\":5399:5438   */\n      tag_104\n        /* \"#utility.yul\":5430:5437   */\n      dup4\n        /* \"#utility.yul\":5399:5438   */\n      tag_32\n      jump\t// in\n    tag_104:\n        /* \"#utility.yul\":5460:5551   */\n      tag_105\n        /* \"#utility.yul\":5509:5550   */\n      tag_106\n        /* \"#utility.yul\":5533:5549   */\n      dup3\n        /* \"#utility.yul\":5509:5550   */\n      tag_33\n      jump\t// in\n    tag_106:\n        /* \"#utility.yul\":5501:5507   */\n      dup5\n        /* \"#utility.yul\":5494:5498   */\n      dup5\n        /* \"#utility.yul\":5488:5499   */\n      sload\n        /* \"#utility.yul\":5460:5551   */\n      tag_29\n      jump\t// in\n    tag_105:\n        /* \"#utility.yul\":5454:5458   */\n      dup3\n        /* \"#utility.yul\":5447:5552   */\n      sstore\n        /* \"#utility.yul\":5365:5558   */\n      pop\n        /* \"#utility.yul\":5289:5558   */\n      pop\n      pop\n      pop\n      jump\t// out\n        /* \"#utility.yul\":5564:5637   */\n    tag_35:\n        /* \"#utility.yul\":5609:5612   */\n      0x00\n        /* \"#utility.yul\":5564:5637   */\n      swap1\n      jump\t// out\n        /* \"#utility.yul\":5643:5832   */\n    tag_36:\n        /* \"#utility.yul\":5720:5752   */\n      tag_109\n      tag_35\n      jump\t// in\n    tag_109:\n        /* \"#utility.yul\":5761:5826   */\n      tag_110\n        /* \"#utility.yul\":5819:5825   */\n      dup2\n        /* \"#utility.yul\":5811:5817   */\n      dup5\n        /* \"#utility.yul\":5805:5809   */\n      dup5\n        /* \"#utility.yul\":5761:5826   */\n      tag_34\n      jump\t// in\n    tag_110:\n        /* \"#utility.yul\":5696:5832   */\n      pop\n        /* \"#utility.yul\":5643:5832   */\n      pop\n      pop\n      jump\t// out\n        /* \"#utility.yul\":5838:6024   */\n    tag_37:\n        /* \"#utility.yul\":5898:6018   */\n    tag_112:\n        /* \"#utility.yul\":5915:5918   */\n      dup2\n        /* \"#utility.yul\":5908:5913   */\n      dup2\n        /* \"#utility.yul\":5905:5919   */\n      lt\n        /* \"#utility.yul\":5898:6018   */\n      iszero\n      tag_114\n      jumpi\n        /* \"#utility.yul\":5969:6008   */\n      tag_115\n        /* \"#utility.yul\":6006:6007   */\n      0x00\n        /* \"#utility.yul\":5999:6004   */\n      dup3\n        /* \"#utility.yul\":5969:6008   */\n      tag_36\n      jump\t// in\n    tag_115:\n        /* \"#utility.yul\":5942:5943   */\n      0x01\n        /* \"#utility.yul\":5935:5940   */\n      dup2\n        /* \"#utility.yul\":5931:5944   */\n      add\n        /* \"#utility.yul\":5922:5944   */\n      swap1\n      pop\n        /* \"#utility.yul\":5898:6018   */\n      jump(tag_112)\n    tag_114:\n        /* \"#utility.yul\":5838:6024   */\n      pop\n      pop\n      jump\t// out\n        /* \"#utility.yul\":6030:6573   */\n    tag_38:\n        /* \"#utility.yul\":6131:6133   */\n      0x1f\n        /* \"#utility.yul\":6126:6129   */\n      dup3\n        /* \"#utility.yul\":6123:6134   */\n      gt\n        /* \"#utility.yul\":6120:6566   */\n      iszero\n      tag_117\n      jumpi\n        /* \"#utility.yul\":6165:6203   */\n      tag_118\n        /* \"#utility.yul\":6197:6202   */\n      dup2\n        /* \"#utility.yul\":6165:6203   */\n      tag_26\n      jump\t// in\n    tag_118:\n        /* \"#utility.yul\":6249:6278   */\n      tag_119\n        /* \"#utility.yul\":6267:6277   */\n      dup5\n        /* \"#utility.yul\":6249:6278   */\n      tag_27\n      jump\t// in\n    tag_119:\n        /* \"#utility.yul\":6239:6247   */\n      dup2\n        /* \"#utility.yul\":6235:6279   */\n      add\n        /* \"#utility.yul\":6432:6434   */\n      0x20\n        /* \"#utility.yul\":6420:6430   */\n      dup6\n        /* \"#utility.yul\":6417:6435   */\n      lt\n        /* \"#utility.yul\":6414:6463   */\n      iszero\n      tag_120\n      jumpi\n        /* \"#utility.yul\":6453:6461   */\n      dup2\n        /* \"#utility.yul\":6438:6461   */\n      swap1\n      pop\n        /* \"#utility.yul\":6414:6463   */\n    tag_120:\n        /* \"#utility.yul\":6476:6556   */\n      tag_121\n        /* \"#utility.yul\":6532:6554   */\n      tag_122\n        /* \"#utility.yul\":6550:6553   */\n      dup6\n        /* \"#utility.yul\":6532:6554   */\n      tag_27\n      jump\t// in\n    tag_122:\n        /* \"#utility.yul\":6522:6530   */\n      dup4\n        /* \"#utility.yul\":6518:6555   */\n      add\n        /* \"#utility.yul\":6505:6516   */\n      dup3\n        /* \"#utility.yul\":6476:6556   */\n      tag_37\n      jump\t// in\n    tag_121:\n        /* \"#utility.yul\":6135:6566   */\n      pop\n      pop\n        /* \"#utility.yul\":6120:6566   */\n    tag_117:\n        /* \"#utility.yul\":6030:6573   */\n      pop\n      pop\n      pop\n      jump\t// out\n        /* \"#utility.yul\":6579:6696   */\n    tag_39:\n        /* \"#utility.yul\":6633:6641   */\n      0x00\n        /* \"#utility.yul\":6683:6688   */\n      dup3\n        /* \"#utility.yul\":6677:6681   */\n      dup3\n        /* \"#utility.yul\":6673:6689   */\n      shr\n        /* \"#utility.yul\":6652:6689   */\n      swap1\n      pop\n        /* \"#utility.yul\":6579:6696   */\n      swap3\n      swap2\n      pop\n      pop\n      jump\t// out\n        /* \"#utility.yul\":6702:6871   */\n    tag_40:\n        /* \"#utility.yul\":6746:6752   */\n      0x00\n        /* \"#utility.yul\":6779:6830   */\n      tag_125\n        /* \"#utility.yul\":6827:6828   */\n      0x00\n        /* \"#utility.yul\":6823:6829   */\n      not\n        /* \"#utility.yul\":6815:6820   */\n      dup5\n        /* \"#utility.yul\":6812:6813   */\n      0x08\n        /* \"#utility.yul\":6808:6821   */\n      mul\n        /* \"#utility.yul\":6779:6830   */\n      tag_39\n      jump\t// in\n    tag_125:\n        /* \"#utility.yul\":6775:6831   */\n      not\n        /* \"#utility.yul\":6860:6864   */\n      dup1\n        /* \"#utility.yul\":6854:6858   */\n      dup4\n        /* \"#utility.yul\":6850:6865   */\n      and\n        /* \"#utility.yul\":6840:6865   */\n      swap2\n      pop\n        /* \"#utility.yul\":6753:6871   */\n      pop\n        /* \"#utility.yul\":6702:6871   */\n      swap3\n      swap2\n      pop\n      pop\n      jump\t// out\n        /* \"#utility.yul\":6876:7171   */\n    tag_41:\n        /* \"#utility.yul\":6952:6956   */\n      0x00\n        /* \"#utility.yul\":7098:7127   */\n      tag_127\n        /* \"#utility.yul\":7123:7126   */\n      dup4\n        /* \"#utility.yul\":7117:7121   */\n      dup4\n        /* \"#utility.yul\":7098:7127   */\n      tag_40\n      jump\t// in\n    tag_127:\n        /* \"#utility.yul\":7090:7127   */\n      swap2\n      pop\n        /* \"#utility.yul\":7160:7163   */\n      dup3\n        /* \"#utility.yul\":7157:7158   */\n      0x02\n        /* \"#utility.yul\":7153:7164   */\n      mul\n        /* \"#utility.yul\":7147:7151   */\n      dup3\n        /* \"#utility.yul\":7144:7165   */\n      or\n        /* \"#utility.yul\":7136:7165   */\n      swap1\n      pop\n        /* \"#utility.yul\":6876:7171   */\n      swap3\n      swap2\n      pop\n      pop\n      jump\t// out\n        /* \"#utility.yul\":7176:8571   */\n    tag_7:\n        /* \"#utility.yul\":7293:7330   */\n      tag_129\n        /* \"#utility.yul\":7326:7329   */\n      dup3\n        /* \"#utility.yul\":7293:7330   */\n      tag_23\n      jump\t// in\n    tag_129:\n        /* \"#utility.yul\":7395:7413   */\n      0xffffffffffffffff\n        /* \"#utility.yul\":7387:7393   */\n      dup2\n        /* \"#utility.yul\":7384:7414   */\n      gt\n        /* \"#utility.yul\":7381:7437   */\n      iszero\n      tag_130\n      jumpi\n        /* \"#utility.yul\":7417:7435   */\n      tag_131\n      tag_16\n      jump\t// in\n    tag_131:\n        /* \"#utility.yul\":7381:7437   */\n    tag_130:\n        /* \"#utility.yul\":7461:7499   */\n      tag_132\n        /* \"#utility.yul\":7493:7497   */\n      dup3\n        /* \"#utility.yul\":7487:7498   */\n      sload\n        /* \"#utility.yul\":7461:7499   */\n      tag_25\n      jump\t// in\n    tag_132:\n        /* \"#utility.yul\":7546:7613   */\n      tag_133\n        /* \"#utility.yul\":7606:7612   */\n      dup3\n        /* \"#utility.yul\":7598:7604   */\n      dup3\n        /* \"#utility.yul\":7592:7596   */\n      dup6\n        /* \"#utility.yul\":7546:7613   */\n      tag_38\n      jump\t// in\n    tag_133:\n        /* \"#utility.yul\":7640:7641   */\n      0x00\n        /* \"#utility.yul\":7664:7668   */\n      0x20\n        /* \"#utility.yul\":7651:7668   */\n      swap1\n      pop\n        /* \"#utility.yul\":7696:7698   */\n      0x1f\n        /* \"#utility.yul\":7688:7694   */\n      dup4\n        /* \"#utility.yul\":7685:7699   */\n      gt\n        /* \"#utility.yul\":7713:7714   */\n      0x01\n        /* \"#utility.yul\":7708:8326   */\n      dup2\n      eq\n      tag_135\n      jumpi\n        /* \"#utility.yul\":8370:8371   */\n      0x00\n        /* \"#utility.yul\":8387:8393   */\n      dup5\n        /* \"#utility.yul\":8384:8461   */\n      iszero\n      tag_136\n      jumpi\n        /* \"#utility.yul\":8436:8445   */\n      dup3\n        /* \"#utility.yul\":8431:8434   */\n      dup8\n        /* \"#utility.yul\":8427:8446   */\n      add\n        /* \"#utility.yul\":8421:8447   */\n      mload\n        /* \"#utility.yul\":8412:8447   */\n      swap1\n      pop\n        /* \"#utility.yul\":8384:8461   */\n    tag_136:\n        /* \"#utility.yul\":8487:8554   */\n      tag_137\n        /* \"#utility.yul\":8547:8553   */\n      dup6\n        /* \"#utility.yul\":8540:8545   */\n      dup3\n        /* \"#utility.yul\":8487:8554   */\n      tag_41\n      jump\t// in\n    tag_137:\n        /* \"#utility.yul\":8481:8485   */\n      dup7\n        /* \"#utility.yul\":8474:8555   */\n      sstore\n        /* \"#utility.yul\":8343:8565   */\n      pop\n        /* \"#utility.yul\":7678:8565   */\n      jump(tag_134)\n        /* \"#utility.yul\":7708:8326   */\n    tag_135:\n        /* \"#utility.yul\":7760:7764   */\n      0x1f\n        /* \"#utility.yul\":7756:7765   */\n      not\n        /* \"#utility.yul\":7748:7754   */\n      dup5\n        /* \"#utility.yul\":7744:7766   */\n      and\n        /* \"#utility.yul\":7794:7831   */\n      tag_138\n        /* \"#utility.yul\":7826:7830   */\n      dup7\n        /* \"#utility.yul\":7794:7831   */\n      tag_26\n      jump\t// in\n    tag_138:\n        /* \"#utility.yul\":7853:7854   */\n      0x00\n        /* \"#utility.yul\":7867:8075   */\n    tag_139:\n        /* \"#utility.yul\":7881:7888   */\n      dup3\n        /* \"#utility.yul\":7878:7879   */\n      dup2\n        /* \"#utility.yul\":7875:7889   */\n      lt\n        /* \"#utility.yul\":7867:8075   */\n      iszero\n      tag_141\n      jumpi\n        /* \"#utility.yul\":7960:7969   */\n      dup5\n        /* \"#utility.yul\":7955:7958   */\n      dup10\n        /* \"#utility.yul\":7951:7970   */\n      add\n        /* \"#utility.yul\":7945:7971   */\n      mload\n        /* \"#utility.yul\":7937:7943   */\n      dup3\n        /* \"#utility.yul\":7930:7972   */\n      sstore\n        /* \"#utility.yul\":8011:8012   */\n      0x01\n        /* \"#utility.yul\":8003:8009   */\n      dup3\n        /* \"#utility.yul\":7999:8013   */\n      add\n        /* \"#utility.yul\":7989:8013   */\n      swap2\n      pop\n        /* \"#utility.yul\":8058:8060   */\n      0x20\n        /* \"#utility.yul\":8047:8056   */\n      dup6\n        /* \"#utility.yul\":8043:8061   */\n      add\n        /* \"#utility.yul\":8030:8061   */\n      swap5\n      pop\n        /* \"#utility.yul\":7904:7908   */\n      0x20\n        /* \"#utility.yul\":7901:7902   */\n      dup2\n        /* \"#utility.yul\":7897:7909   */\n      add\n        /* \"#utility.yul\":7892:7909   */\n      swap1\n      pop\n        /* \"#utility.yul\":7867:8075   */\n      jump(tag_139)\n    tag_141:\n        /* \"#utility.yul\":8103:8109   */\n      dup7\n        /* \"#utility.yul\":8094:8101   */\n      dup4\n        /* \"#utility.yul\":8091:8110   */\n      lt\n        /* \"#utility.yul\":8088:8267   */\n      iszero\n      tag_142\n      jumpi\n        /* \"#utility.yul\":8161:8170   */\n      dup5\n        /* \"#utility.yul\":8156:8159   */\n      dup10\n        /* \"#utility.yul\":8152:8171   */\n      add\n        /* \"#utility.yul\":8146:8172   */\n      mload\n        /* \"#utility.yul\":8204:8252   */\n      tag_143\n        /* \"#utility.yul\":8246:8250   */\n      0x1f\n        /* \"#utility.yul\":8238:8244   */\n      dup10\n        /* \"#utility.yul\":8234:8251   */\n      and\n        /* \"#utility.yul\":8223:8232   */\n      dup3\n        /* \"#utility.yul\":8204:8252   */\n      tag_40\n      jump\t// in\n    tag_143:\n        /* \"#utility.yul\":8196:8202   */\n      dup4\n        /* \"#utility.yul\":8189:8253   */\n      sstore\n        /* \"#utility.yul\":8111:8267   */\n      pop\n        /* \"#utility.yul\":8088:8267   */\n    tag_142:\n        /* \"#utility.yul\":8313:8314   */\n      0x01\n        /* \"#utility.yul\":8309:8310   */\n      0x02\n        /* \"#utility.yul\":8301:8307   */\n      dup9\n        /* \"#utility.yul\":8297:8311   */\n      mul\n        /* \"#utility.yul\":8293:8315   */\n      add\n        /* \"#utility.yul\":8287:8291   */\n      dup9\n        /* \"#utility.yul\":8280:8316   */\n      sstore\n        /* \"#utility.yul\":7715:8326   */\n      pop\n      pop\n      pop\n        /* \"#utility.yul\":7678:8565   */\n    tag_134:\n      pop\n        /* \"#utility.yul\":7268:8571   */\n      pop\n      pop\n      pop\n        /* \"#utility.yul\":7176:8571   */\n      pop\n      pop\n      jump\t// out\n        /* \"contracts/ERC20.sol\":1528:12939  contract ERC20 is Context, IERC20, IERC20Metadata {... */\n    tag_9:\n      dataSize(sub_0)\n      dup1\n      dataOffset(sub_0)\n      0x00\n      codecopy\n      0x00\n      return\n    stop\n\n    sub_0: assembly {\n            /* \"contracts/ERC20.sol\":1528:12939  contract ERC20 is Context, IERC20, IERC20Metadata {... */\n          mstore(0x40, 0x80)\n          callvalue\n          dup1\n          iszero\n          tag_1\n          jumpi\n          0x00\n          dup1\n          revert\n        tag_1:\n          pop\n          jumpi(tag_2, lt(calldatasize, 0x04))\n          shr(0xe0, calldataload(0x00))\n          dup1\n          0x40c10f19\n          gt\n          tag_15\n          jumpi\n          dup1\n          0x40c10f19\n          eq\n          tag_9\n          jumpi\n          dup1\n          0x70a08231\n          eq\n          tag_10\n          jumpi\n          dup1\n          0x95d89b41\n          eq\n          tag_11\n          jumpi\n          dup1\n          0xa457c2d7\n          eq\n          tag_12\n          jumpi\n          dup1\n          0xa9059cbb\n          eq\n          tag_13\n          jumpi\n          dup1\n          0xdd62ed3e\n          eq\n          tag_14\n          jumpi\n          jump(tag_2)\n        tag_15:\n          dup1\n          0x06fdde03\n          eq\n          tag_3\n          jumpi\n          dup1\n          0x095ea7b3\n          eq\n          tag_4\n          jumpi\n          dup1\n          0x18160ddd\n          eq\n          tag_5\n          jumpi\n          dup1\n          0x23b872dd\n          eq\n          tag_6\n          jumpi\n          dup1\n          0x313ce567\n          eq\n          tag_7\n          jumpi\n          dup1\n          0x39509351\n          eq\n          tag_8\n          jumpi\n        tag_2:\n          0x00\n          dup1\n          revert\n            /* \"contracts/ERC20.sol\":2154:2252  function name() public view virtual override returns (string memory) {... */\n        tag_3:\n          tag_16\n          tag_17\n          jump\t// in\n        tag_16:\n          mload(0x40)\n          tag_18\n          swap2\n          swap1\n          tag_19\n          jump\t// in\n        tag_18:\n          mload(0x40)\n          dup1\n          swap2\n          sub\n          swap1\n          return\n            /* \"contracts/ERC20.sol\":4440:4637  function approve(address spender, uint256 amount) public virtual override returns (bool) {... */\n        tag_4:\n          tag_20\n          0x04\n          dup1\n          calldatasize\n          sub\n          dup2\n          add\n          swap1\n          tag_21\n          swap2\n          swap1\n          tag_22\n          jump\t// in\n        tag_21:\n          tag_23\n          jump\t// in\n        tag_20:\n          mload(0x40)\n          tag_24\n          swap2\n          swap1\n          tag_25\n          jump\t// in\n        tag_24:\n          mload(0x40)\n          dup1\n          swap2\n          sub\n          swap1\n          return\n            /* \"contracts/ERC20.sol\":3251:3357  function totalSupply() public view virtual override returns (uint256) {... */\n        tag_5:\n          tag_26\n          tag_27\n          jump\t// in\n        tag_26:\n          mload(0x40)\n          tag_28\n          swap2\n          swap1\n          tag_29\n          jump\t// in\n        tag_28:\n          mload(0x40)\n          dup1\n          swap2\n          sub\n          swap1\n          return\n            /* \"contracts/ERC20.sol\":5199:5455  function transferFrom(address from, address to, uint256 amount) public virtual override returns (bool) {... */\n        tag_6:\n          tag_30\n          0x04\n          dup1\n          calldatasize\n          sub\n          dup2\n          add\n          swap1\n          tag_31\n          swap2\n          swap1\n          tag_32\n          jump\t// in\n        tag_31:\n          tag_33\n          jump\t// in\n        tag_30:\n          mload(0x40)\n          tag_34\n          swap2\n          swap1\n          tag_25\n          jump\t// in\n        tag_34:\n          mload(0x40)\n          dup1\n          swap2\n          sub\n          swap1\n          return\n            /* \"contracts/ERC20.sol\":3100:3191  function decimals() public view virtual override returns (uint8) {... */\n        tag_7:\n          tag_35\n          tag_36\n          jump\t// in\n        tag_35:\n          mload(0x40)\n          tag_37\n          swap2\n          swap1\n          tag_38\n          jump\t// in\n        tag_37:\n          mload(0x40)\n          dup1\n          swap2\n          sub\n          swap1\n          return\n            /* \"contracts/ERC20.sol\":5850:6084  function increaseAllowance(address spender, uint256 addedValue) public virtual returns (bool) {... */\n        tag_8:\n          tag_39\n          0x04\n          dup1\n          calldatasize\n          sub\n          dup2\n          add\n          swap1\n          tag_40\n          swap2\n          swap1\n          tag_22\n          jump\t// in\n        tag_40:\n          tag_41\n          jump\t// in\n        tag_39:\n          mload(0x40)\n          tag_42\n          swap2\n          swap1\n          tag_25\n          jump\t// in\n        tag_42:\n          mload(0x40)\n          dup1\n          swap2\n          sub\n          swap1\n          return\n            /* \"contracts/ERC20.sol\":7004:7097  function mint(address account, uint256 amount) public {... */\n        tag_9:\n          tag_43\n          0x04\n          dup1\n          calldatasize\n          sub\n          dup2\n          add\n          swap1\n          tag_44\n          swap2\n          swap1\n          tag_22\n          jump\t// in\n        tag_44:\n          tag_45\n          jump\t// in\n        tag_43:\n          stop\n            /* \"contracts/ERC20.sol\":3415:3540  function balanceOf(address account) public view virtual override returns (uint256) {... */\n        tag_10:\n          tag_46\n          0x04\n          dup1\n          calldatasize\n          sub\n          dup2\n          add\n          swap1\n          tag_47\n          swap2\n          swap1\n          tag_48\n          jump\t// in\n        tag_47:\n          tag_49\n          jump\t// in\n        tag_46:\n          mload(0x40)\n          tag_50\n          swap2\n          swap1\n          tag_29\n          jump\t// in\n        tag_50:\n          mload(0x40)\n          dup1\n          swap2\n          sub\n          swap1\n          return\n            /* \"contracts/ERC20.sol\":2365:2467  function symbol() public view virtual override returns (string memory) {... */\n        tag_11:\n          tag_51\n          tag_52\n          jump\t// in\n        tag_51:\n          mload(0x40)\n          tag_53\n          swap2\n          swap1\n          tag_19\n          jump\t// in\n        tag_53:\n          mload(0x40)\n          dup1\n          swap2\n          sub\n          swap1\n          return\n            /* \"contracts/ERC20.sol\":6571:6998  function decreaseAllowance(address spender, uint256 subtractedValue) public virtual returns (bool) {... */\n        tag_12:\n          tag_54\n          0x04\n          dup1\n          calldatasize\n          sub\n          dup2\n          add\n          swap1\n          tag_55\n          swap2\n          swap1\n          tag_22\n          jump\t// in\n        tag_55:\n          tag_56\n          jump\t// in\n        tag_54:\n          mload(0x40)\n          tag_57\n          swap2\n          swap1\n          tag_25\n          jump\t// in\n        tag_57:\n          mload(0x40)\n          dup1\n          swap2\n          sub\n          swap1\n          return\n            /* \"contracts/ERC20.sol\":3736:3925  function transfer(address to, uint256 amount) public virtual override returns (bool) {... */\n        tag_13:\n          tag_58\n          0x04\n          dup1\n          calldatasize\n          sub\n          dup2\n          add\n          swap1\n          tag_59\n          swap2\n          swap1\n          tag_22\n          jump\t// in\n        tag_59:\n          tag_60\n          jump\t// in\n        tag_58:\n          mload(0x40)\n          tag_61\n          swap2\n          swap1\n          tag_25\n          jump\t// in\n        tag_61:\n          mload(0x40)\n          dup1\n          swap2\n          sub\n          swap1\n          return\n            /* \"contracts/ERC20.sol\":3983:4132  function allowance(address owner, address spender) public view virtual override returns (uint256) {... */\n        tag_14:\n          tag_62\n          0x04\n          dup1\n          calldatasize\n          sub\n          dup2\n          add\n          swap1\n          tag_63\n          swap2\n          swap1\n          tag_64\n          jump\t// in\n        tag_63:\n          tag_65\n          jump\t// in\n        tag_62:\n          mload(0x40)\n          tag_66\n          swap2\n          swap1\n          tag_29\n          jump\t// in\n        tag_66:\n          mload(0x40)\n          dup1\n          swap2\n          sub\n          swap1\n          return\n            /* \"contracts/ERC20.sol\":2154:2252  function name() public view virtual override returns (string memory) {... */\n        tag_17:\n            /* \"contracts/ERC20.sol\":2208:2221  string memory */\n          0x60\n            /* \"contracts/ERC20.sol\":2240:2245  _name */\n          0x03\n            /* \"contracts/ERC20.sol\":2233:2245  return _name */\n          dup1\n          sload\n          tag_68\n          swap1\n          tag_69\n          jump\t// in\n        tag_68:\n          dup1\n          0x1f\n          add\n          0x20\n          dup1\n          swap2\n          div\n          mul\n          0x20\n          add\n          mload(0x40)\n          swap1\n          dup2\n          add\n          0x40\n          mstore\n          dup1\n          swap3\n          swap2\n          swap1\n          dup2\n          dup2\n          mstore\n          0x20\n          add\n          dup3\n          dup1\n          sload\n          tag_70\n          swap1\n          tag_69\n          jump\t// in\n        tag_70:\n          dup1\n          iszero\n          tag_71\n          jumpi\n          dup1\n          0x1f\n          lt\n          tag_72\n          jumpi\n          0x0100\n          dup1\n          dup4\n          sload\n          div\n          mul\n          dup4\n          mstore\n          swap2\n          0x20\n          add\n          swap2\n          jump(tag_71)\n        tag_72:\n          dup3\n          add\n          swap2\n          swap1\n          0x00\n          mstore\n          keccak256(0x00, 0x20)\n          swap1\n        tag_73:\n          dup2\n          sload\n          dup2\n          mstore\n          swap1\n          0x01\n          add\n          swap1\n          0x20\n          add\n          dup1\n          dup4\n          gt\n          tag_73\n          jumpi\n          dup3\n          swap1\n          sub\n          0x1f\n          and\n          dup3\n          add\n          swap2\n        tag_71:\n          pop\n          pop\n          pop\n          pop\n          pop\n          swap1\n          pop\n            /* \"contracts/ERC20.sol\":2154:2252  function name() public view virtual override returns (string memory) {... */\n          swap1\n          jump\t// out\n            /* \"contracts/ERC20.sol\":4440:4637  function approve(address spender, uint256 amount) public virtual override returns (bool) {... */\n        tag_23:\n            /* \"contracts/ERC20.sol\":4523:4527  bool */\n          0x00\n            /* \"contracts/ERC20.sol\":4539:4552  address owner */\n          dup1\n            /* \"contracts/ERC20.sol\":4555:4567  _msgSender() */\n          tag_75\n            /* \"contracts/ERC20.sol\":4555:4565  _msgSender */\n          tag_76\n            /* \"contracts/ERC20.sol\":4555:4567  _msgSender() */\n          jump\t// in\n        tag_75:\n            /* \"contracts/ERC20.sol\":4539:4567  address owner = _msgSender() */\n          swap1\n          pop\n            /* \"contracts/ERC20.sol\":4577:4609  _approve(owner, spender, amount) */\n          tag_77\n            /* \"contracts/ERC20.sol\":4586:4591  owner */\n          dup2\n            /* \"contracts/ERC20.sol\":4593:4600  spender */\n          dup6\n            /* \"contracts/ERC20.sol\":4602:4608  amount */\n          dup6\n            /* \"contracts/ERC20.sol\":4577:4585  _approve */\n          tag_78\n            /* \"contracts/ERC20.sol\":4577:4609  _approve(owner, spender, amount) */\n          jump\t// in\n        tag_77:\n            /* \"contracts/ERC20.sol\":4626:4630  true */\n          0x01\n            /* \"contracts/ERC20.sol\":4619:4630  return true */\n          swap2\n          pop\n          pop\n            /* \"contracts/ERC20.sol\":4440:4637  function approve(address spender, uint256 amount) public virtual override returns (bool) {... */\n          swap3\n          swap2\n          pop\n          pop\n          jump\t// out\n            /* \"contracts/ERC20.sol\":3251:3357  function totalSupply() public view virtual override returns (uint256) {... */\n        tag_27:\n            /* \"contracts/ERC20.sol\":3312:3319  uint256 */\n          0x00\n            /* \"contracts/ERC20.sol\":3338:3350  _totalSupply */\n          sload(0x02)\n            /* \"contracts/ERC20.sol\":3331:3350  return _totalSupply */\n          swap1\n          pop\n            /* \"contracts/ERC20.sol\":3251:3357  function totalSupply() public view virtual override returns (uint256) {... */\n          swap1\n          jump\t// out\n            /* \"contracts/ERC20.sol\":5199:5455  function transferFrom(address from, address to, uint256 amount) public virtual override returns (bool) {... */\n        tag_33:\n            /* \"contracts/ERC20.sol\":5296:5300  bool */\n          0x00\n            /* \"contracts/ERC20.sol\":5312:5327  address spender */\n          dup1\n            /* \"contracts/ERC20.sol\":5330:5342  _msgSender() */\n          tag_81\n            /* \"contracts/ERC20.sol\":5330:5340  _msgSender */\n          tag_76\n            /* \"contracts/ERC20.sol\":5330:5342  _msgSender() */\n          jump\t// in\n        tag_81:\n            /* \"contracts/ERC20.sol\":5312:5342  address spender = _msgSender() */\n          swap1\n          pop\n            /* \"contracts/ERC20.sol\":5352:5390  _spendAllowance(from, spender, amount) */\n          tag_82\n            /* \"contracts/ERC20.sol\":5368:5372  from */\n          dup6\n            /* \"contracts/ERC20.sol\":5374:5381  spender */\n          dup3\n            /* \"contracts/ERC20.sol\":5383:5389  amount */\n          dup6\n            /* \"contracts/ERC20.sol\":5352:5367  _spendAllowance */\n          tag_83\n            /* \"contracts/ERC20.sol\":5352:5390  _spendAllowance(from, spender, amount) */\n          jump\t// in\n        tag_82:\n            /* \"contracts/ERC20.sol\":5400:5427  _transfer(from, to, amount) */\n          tag_84\n            /* \"contracts/ERC20.sol\":5410:5414  from */\n          dup6\n            /* \"contracts/ERC20.sol\":5416:5418  to */\n          dup6\n            /* \"contracts/ERC20.sol\":5420:5426  amount */\n          dup6\n            /* \"contracts/ERC20.sol\":5400:5409  _transfer */\n          tag_85\n            /* \"contracts/ERC20.sol\":5400:5427  _transfer(from, to, amount) */\n          jump\t// in\n        tag_84:\n            /* \"contracts/ERC20.sol\":5444:5448  true */\n          0x01\n            /* \"contracts/ERC20.sol\":5437:5448  return true */\n          swap2\n          pop\n          pop\n            /* \"contracts/ERC20.sol\":5199:5455  function transferFrom(address from, address to, uint256 amount) public virtual override returns (bool) {... */\n          swap4\n          swap3\n          pop\n          pop\n          pop\n          jump\t// out\n            /* \"contracts/ERC20.sol\":3100:3191  function decimals() public view virtual override returns (uint8) {... */\n        tag_36:\n            /* \"contracts/ERC20.sol\":3158:3163  uint8 */\n          0x00\n            /* \"contracts/ERC20.sol\":3182:3184  18 */\n          0x12\n            /* \"contracts/ERC20.sol\":3175:3184  return 18 */\n          swap1\n          pop\n            /* \"contracts/ERC20.sol\":3100:3191  function decimals() public view virtual override returns (uint8) {... */\n          swap1\n          jump\t// out\n            /* \"contracts/ERC20.sol\":5850:6084  function increaseAllowance(address spender, uint256 addedValue) public virtual returns (bool) {... */\n        tag_41:\n            /* \"contracts/ERC20.sol\":5938:5942  bool */\n          0x00\n            /* \"contracts/ERC20.sol\":5954:5967  address owner */\n          dup1\n            /* \"contracts/ERC20.sol\":5970:5982  _msgSender() */\n          tag_88\n            /* \"contracts/ERC20.sol\":5970:5980  _msgSender */\n          tag_76\n            /* \"contracts/ERC20.sol\":5970:5982  _msgSender() */\n          jump\t// in\n        tag_88:\n            /* \"contracts/ERC20.sol\":5954:5982  address owner = _msgSender() */\n          swap1\n          pop\n            /* \"contracts/ERC20.sol\":5992:6056  _approve(owner, spender, allowance(owner, spender) + addedValue) */\n          tag_89\n            /* \"contracts/ERC20.sol\":6001:6006  owner */\n          dup2\n            /* \"contracts/ERC20.sol\":6008:6015  spender */\n          dup6\n            /* \"contracts/ERC20.sol\":6045:6055  addedValue */\n          dup6\n            /* \"contracts/ERC20.sol\":6017:6042  allowance(owner, spender) */\n          tag_90\n            /* \"contracts/ERC20.sol\":6027:6032  owner */\n          dup6\n            /* \"contracts/ERC20.sol\":6034:6041  spender */\n          dup10\n            /* \"contracts/ERC20.sol\":6017:6026  allowance */\n          tag_65\n            /* \"contracts/ERC20.sol\":6017:6042  allowance(owner, spender) */\n          jump\t// in\n        tag_90:\n            /* \"contracts/ERC20.sol\":6017:6055  allowance(owner, spender) + addedValue */\n          tag_91\n          swap2\n          swap1\n          tag_92\n          jump\t// in\n        tag_91:\n            /* \"contracts/ERC20.sol\":5992:6000  _approve */\n          tag_78\n            /* \"contracts/ERC20.sol\":5992:6056  _approve(owner, spender, allowance(owner, spender) + addedValue) */\n          jump\t// in\n        tag_89:\n            /* \"contracts/ERC20.sol\":6073:6077  true */\n          0x01\n            /* \"contracts/ERC20.sol\":6066:6077  return true */\n          swap2\n          pop\n          pop\n            /* \"contracts/ERC20.sol\":5850:6084  function increaseAllowance(address spender, uint256 addedValue) public virtual returns (bool) {... */\n          swap3\n          swap2\n          pop\n          pop\n          jump\t// out\n            /* \"contracts/ERC20.sol\":7004:7097  function mint(address account, uint256 amount) public {... */\n        tag_45:\n            /* \"contracts/ERC20.sol\":7068:7090  _mint(account, amount) */\n          tag_94\n            /* \"contracts/ERC20.sol\":7074:7081  account */\n          dup3\n            /* \"contracts/ERC20.sol\":7083:7089  amount */\n          dup3\n            /* \"contracts/ERC20.sol\":7068:7073  _mint */\n          tag_95\n            /* \"contracts/ERC20.sol\":7068:7090  _mint(account, amount) */\n          jump\t// in\n        tag_94:\n            /* \"contracts/ERC20.sol\":7004:7097  function mint(address account, uint256 amount) public {... */\n          pop\n          pop\n          jump\t// out\n            /* \"contracts/ERC20.sol\":3415:3540  function balanceOf(address account) public view virtual override returns (uint256) {... */\n        tag_49:\n            /* \"contracts/ERC20.sol\":3489:3496  uint256 */\n          0x00\n            /* \"contracts/ERC20.sol\":3515:3524  _balances */\n          dup1\n            /* \"contracts/ERC20.sol\":3515:3533  _balances[account] */\n          0x00\n            /* \"contracts/ERC20.sol\":3525:3532  account */\n          dup4\n            /* \"contracts/ERC20.sol\":3515:3533  _balances[account] */\n          0xffffffffffffffffffffffffffffffffffffffff\n          and\n          0xffffffffffffffffffffffffffffffffffffffff\n          and\n          dup2\n          mstore\n          0x20\n          add\n          swap1\n          dup2\n          mstore\n          0x20\n          add\n          0x00\n          keccak256\n          sload\n            /* \"contracts/ERC20.sol\":3508:3533  return _balances[account] */\n          swap1\n          pop\n            /* \"contracts/ERC20.sol\":3415:3540  function balanceOf(address account) public view virtual override returns (uint256) {... */\n          swap2\n          swap1\n          pop\n          jump\t// out\n            /* \"contracts/ERC20.sol\":2365:2467  function symbol() public view virtual override returns (string memory) {... */\n        tag_52:\n            /* \"contracts/ERC20.sol\":2421:2434  string memory */\n          0x60\n            /* \"contracts/ERC20.sol\":2453:2460  _symbol */\n          0x04\n            /* \"contracts/ERC20.sol\":2446:2460  return _symbol */\n          dup1\n          sload\n          tag_98\n          swap1\n          tag_69\n          jump\t// in\n        tag_98:\n          dup1\n          0x1f\n          add\n          0x20\n          dup1\n          swap2\n          div\n          mul\n          0x20\n          add\n          mload(0x40)\n          swap1\n          dup2\n          add\n          0x40\n          mstore\n          dup1\n          swap3\n          swap2\n          swap1\n          dup2\n          dup2\n          mstore\n          0x20\n          add\n          dup3\n          dup1\n          sload\n          tag_99\n          swap1\n          tag_69\n          jump\t// in\n        tag_99:\n          dup1\n          iszero\n          tag_100\n          jumpi\n          dup1\n          0x1f\n          lt\n          tag_101\n          jumpi\n          0x0100\n          dup1\n          dup4\n          sload\n          div\n          mul\n          dup4\n          mstore\n          swap2\n          0x20\n          add\n          swap2\n          jump(tag_100)\n        tag_101:\n          dup3\n          add\n          swap2\n          swap1\n          0x00\n          mstore\n          keccak256(0x00, 0x20)\n          swap1\n        tag_102:\n          dup2\n          sload\n          dup2\n          mstore\n          swap1\n          0x01\n          add\n          swap1\n          0x20\n          add\n          dup1\n          dup4\n          gt\n          tag_102\n          jumpi\n          dup3\n          swap1\n          sub\n          0x1f\n          and\n          dup3\n          add\n          swap2\n        tag_100:\n          pop\n          pop\n          pop\n          pop\n          pop\n          swap1\n          pop\n            /* \"contracts/ERC20.sol\":2365:2467  function symbol() public view virtual override returns (string memory) {... */\n          swap1\n          jump\t// out\n            /* \"contracts/ERC20.sol\":6571:6998  function decreaseAllowance(address spender, uint256 subtractedValue) public virtual returns (bool) {... */\n        tag_56:\n            /* \"contracts/ERC20.sol\":6664:6668  bool */\n          0x00\n            /* \"contracts/ERC20.sol\":6680:6693  address owner */\n          dup1\n            /* \"contracts/ERC20.sol\":6696:6708  _msgSender() */\n          tag_104\n            /* \"contracts/ERC20.sol\":6696:6706  _msgSender */\n          tag_76\n            /* \"contracts/ERC20.sol\":6696:6708  _msgSender() */\n          jump\t// in\n        tag_104:\n            /* \"contracts/ERC20.sol\":6680:6708  address owner = _msgSender() */\n          swap1\n          pop\n            /* \"contracts/ERC20.sol\":6718:6742  uint256 currentAllowance */\n          0x00\n            /* \"contracts/ERC20.sol\":6745:6770  allowance(owner, spender) */\n          tag_105\n            /* \"contracts/ERC20.sol\":6755:6760  owner */\n          dup3\n            /* \"contracts/ERC20.sol\":6762:6769  spender */\n          dup7\n            /* \"contracts/ERC20.sol\":6745:6754  allowance */\n          tag_65\n            /* \"contracts/ERC20.sol\":6745:6770  allowance(owner, spender) */\n          jump\t// in\n        tag_105:\n            /* \"contracts/ERC20.sol\":6718:6770  uint256 currentAllowance = allowance(owner, spender) */\n          swap1\n          pop\n            /* \"contracts/ERC20.sol\":6808:6823  subtractedValue */\n          dup4\n            /* \"contracts/ERC20.sol\":6788:6804  currentAllowance */\n          dup2\n            /* \"contracts/ERC20.sol\":6788:6823  currentAllowance >= subtractedValue */\n          lt\n          iszero\n            /* \"contracts/ERC20.sol\":6780:6865  require(currentAllowance >= subtractedValue, \"ERC20: decreased allowance below zero\") */\n          tag_106\n          jumpi\n          mload(0x40)\n          0x08c379a000000000000000000000000000000000000000000000000000000000\n          dup2\n          mstore\n          0x04\n          add\n          tag_107\n          swap1\n          tag_108\n          jump\t// in\n        tag_107:\n          mload(0x40)\n          dup1\n          swap2\n          sub\n          swap1\n          revert\n        tag_106:\n            /* \"contracts/ERC20.sol\":6899:6959  _approve(owner, spender, currentAllowance - subtractedValue) */\n          tag_109\n            /* \"contracts/ERC20.sol\":6908:6913  owner */\n          dup3\n            /* \"contracts/ERC20.sol\":6915:6922  spender */\n          dup7\n            /* \"contracts/ERC20.sol\":6943:6958  subtractedValue */\n          dup7\n            /* \"contracts/ERC20.sol\":6924:6940  currentAllowance */\n          dup5\n            /* \"contracts/ERC20.sol\":6924:6958  currentAllowance - subtractedValue */\n          sub\n            /* \"contracts/ERC20.sol\":6899:6907  _approve */\n          tag_78\n            /* \"contracts/ERC20.sol\":6899:6959  _approve(owner, spender, currentAllowance - subtractedValue) */\n          jump\t// in\n        tag_109:\n            /* \"contracts/ERC20.sol\":6987:6991  true */\n          0x01\n            /* \"contracts/ERC20.sol\":6980:6991  return true */\n          swap3\n          pop\n          pop\n          pop\n            /* \"contracts/ERC20.sol\":6571:6998  function decreaseAllowance(address spender, uint256 subtractedValue) public virtual returns (bool) {... */\n          swap3\n          swap2\n          pop\n          pop\n          jump\t// out\n            /* \"contracts/ERC20.sol\":3736:3925  function transfer(address to, uint256 amount) public virtual override returns (bool) {... */\n        tag_60:\n            /* \"contracts/ERC20.sol\":3815:3819  bool */\n          0x00\n            /* \"contracts/ERC20.sol\":3831:3844  address owner */\n          dup1\n            /* \"contracts/ERC20.sol\":3847:3859  _msgSender() */\n          tag_111\n            /* \"contracts/ERC20.sol\":3847:3857  _msgSender */\n          tag_76\n            /* \"contracts/ERC20.sol\":3847:3859  _msgSender() */\n          jump\t// in\n        tag_111:\n            /* \"contracts/ERC20.sol\":3831:3859  address owner = _msgSender() */\n          swap1\n          pop\n            /* \"contracts/ERC20.sol\":3869:3897  _transfer(owner, to, amount) */\n          tag_112\n            /* \"contracts/ERC20.sol\":3879:3884  owner */\n          dup2\n            /* \"contracts/ERC20.sol\":3886:3888  to */\n          dup6\n            /* \"contracts/ERC20.sol\":3890:3896  amount */\n          dup6\n            /* \"contracts/ERC20.sol\":3869:3878  _transfer */\n          tag_85\n            /* \"contracts/ERC20.sol\":3869:3897  _transfer(owner, to, amount) */\n          jump\t// in\n        tag_112:\n            /* \"contracts/ERC20.sol\":3914:3918  true */\n          0x01\n            /* \"contracts/ERC20.sol\":3907:3918  return true */\n          swap2\n          pop\n          pop\n            /* \"contracts/ERC20.sol\":3736:3925  function transfer(address to, uint256 amount) public virtual override returns (bool) {... */\n          swap3\n          swap2\n          pop\n          pop\n          jump\t// out\n            /* \"contracts/ERC20.sol\":3983:4132  function allowance(address owner, address spender) public view virtual override returns (uint256) {... */\n        tag_65:\n            /* \"contracts/ERC20.sol\":4072:4079  uint256 */\n          0x00\n            /* \"contracts/ERC20.sol\":4098:4109  _allowances */\n          0x01\n            /* \"contracts/ERC20.sol\":4098:4116  _allowances[owner] */\n          0x00\n            /* \"contracts/ERC20.sol\":4110:4115  owner */\n          dup5\n            /* \"contracts/ERC20.sol\":4098:4116  _allowances[owner] */\n          0xffffffffffffffffffffffffffffffffffffffff\n          and\n          0xffffffffffffffffffffffffffffffffffffffff\n          and\n          dup2\n          mstore\n          0x20\n          add\n          swap1\n          dup2\n          mstore\n          0x20\n          add\n          0x00\n          keccak256\n            /* \"contracts/ERC20.sol\":4098:4125  _allowances[owner][spender] */\n          0x00\n            /* \"contracts/ERC20.sol\":4117:4124  spender */\n          dup4\n            /* \"contracts/ERC20.sol\":4098:4125  _allowances[owner][spender] */\n          0xffffffffffffffffffffffffffffffffffffffff\n          and\n          0xffffffffffffffffffffffffffffffffffffffff\n          and\n          dup2\n          mstore\n          0x20\n          add\n          swap1\n          dup2\n          mstore\n          0x20\n          add\n          0x00\n          keccak256\n          sload\n            /* \"contracts/ERC20.sol\":4091:4125  return _allowances[owner][spender] */\n          swap1\n          pop\n            /* \"contracts/ERC20.sol\":3983:4132  function allowance(address owner, address spender) public view virtual override returns (uint256) {... */\n          swap3\n          swap2\n          pop\n          pop\n          jump\t// out\n            /* \"contracts/utils/Context.sol\":640:736  function _msgSender() internal view virtual returns (address) {... */\n        tag_76:\n            /* \"contracts/utils/Context.sol\":693:700  address */\n          0x00\n            /* \"contracts/utils/Context.sol\":719:729  msg.sender */\n          caller\n            /* \"contracts/utils/Context.sol\":712:729  return msg.sender */\n          swap1\n          pop\n            /* \"contracts/utils/Context.sol\":640:736  function _msgSender() internal view virtual returns (address) {... */\n          swap1\n          jump\t// out\n            /* \"contracts/ERC20.sol\":10552:10892  function _approve(address owner, address spender, uint256 amount) internal virtual {... */\n        tag_78:\n            /* \"contracts/ERC20.sol\":10670:10671  0 */\n          0x00\n            /* \"contracts/ERC20.sol\":10653:10672  owner != address(0) */\n          0xffffffffffffffffffffffffffffffffffffffff\n          and\n            /* \"contracts/ERC20.sol\":10653:10658  owner */\n          dup4\n            /* \"contracts/ERC20.sol\":10653:10672  owner != address(0) */\n          0xffffffffffffffffffffffffffffffffffffffff\n          and\n          sub\n            /* \"contracts/ERC20.sol\":10645:10713  require(owner != address(0), \"ERC20: approve from the zero address\") */\n          tag_116\n          jumpi\n          mload(0x40)\n          0x08c379a000000000000000000000000000000000000000000000000000000000\n          dup2\n          mstore\n          0x04\n          add\n          tag_117\n          swap1\n          tag_118\n          jump\t// in\n        tag_117:\n          mload(0x40)\n          dup1\n          swap2\n          sub\n          swap1\n          revert\n        tag_116:\n            /* \"contracts/ERC20.sol\":10750:10751  0 */\n          0x00\n            /* \"contracts/ERC20.sol\":10731:10752  spender != address(0) */\n          0xffffffffffffffffffffffffffffffffffffffff\n          and\n            /* \"contracts/ERC20.sol\":10731:10738  spender */\n          dup3\n            /* \"contracts/ERC20.sol\":10731:10752  spender != address(0) */\n          0xffffffffffffffffffffffffffffffffffffffff\n          and\n          sub\n            /* \"contracts/ERC20.sol\":10723:10791  require(spender != address(0), \"ERC20: approve to the zero address\") */\n          tag_119\n          jumpi\n          mload(0x40)\n          0x08c379a000000000000000000000000000000000000000000000000000000000\n          dup2\n          mstore\n          0x04\n          add\n          tag_120\n          swap1\n          tag_121\n          jump\t// in\n        tag_120:\n          mload(0x40)\n          dup1\n          swap2\n          sub\n          swap1\n          revert\n        tag_119:\n            /* \"contracts/ERC20.sol\":10832:10838  amount */\n          dup1\n            /* \"contracts/ERC20.sol\":10802:10813  _allowances */\n          0x01\n            /* \"contracts/ERC20.sol\":10802:10820  _allowances[owner] */\n          0x00\n            /* \"contracts/ERC20.sol\":10814:10819  owner */\n          dup6\n            /* \"contracts/ERC20.sol\":10802:10820  _allowances[owner] */\n          0xffffffffffffffffffffffffffffffffffffffff\n          and\n          0xffffffffffffffffffffffffffffffffffffffff\n          and\n          dup2\n          mstore\n          0x20\n          add\n          swap1\n          dup2\n          mstore\n          0x20\n          add\n          0x00\n          keccak256\n            /* \"contracts/ERC20.sol\":10802:10829  _allowances[owner][spender] */\n          0x00\n            /* \"contracts/ERC20.sol\":10821:10828  spender */\n          dup5\n            /* \"contracts/ERC20.sol\":10802:10829  _allowances[owner][spender] */\n          0xffffffffffffffffffffffffffffffffffffffff\n          and\n          0xffffffffffffffffffffffffffffffffffffffff\n          and\n          dup2\n          mstore\n          0x20\n          add\n          swap1\n          dup2\n          mstore\n          0x20\n          add\n          0x00\n          keccak256\n            /* \"contracts/ERC20.sol\":10802:10838  _allowances[owner][spender] = amount */\n          dup2\n          swap1\n          sstore\n          pop\n            /* \"contracts/ERC20.sol\":10869:10876  spender */\n          dup2\n            /* \"contracts/ERC20.sol\":10853:10885  Approval(owner, spender, amount) */\n          0xffffffffffffffffffffffffffffffffffffffff\n          and\n            /* \"contracts/ERC20.sol\":10862:10867  owner */\n          dup4\n            /* \"contracts/ERC20.sol\":10853:10885  Approval(owner, spender, amount) */\n          0xffffffffffffffffffffffffffffffffffffffff\n          and\n          0x8c5be1e5ebec7d5bd14f71427d1e84f3dd0314c0f7b2291e5b200ac8c7c3b925\n            /* \"contracts/ERC20.sol\":10878:10884  amount */\n          dup4\n            /* \"contracts/ERC20.sol\":10853:10885  Approval(owner, spender, amount) */\n          mload(0x40)\n          tag_122\n          swap2\n          swap1\n          tag_29\n          jump\t// in\n        tag_122:\n          mload(0x40)\n          dup1\n          swap2\n          sub\n          swap1\n          log3\n            /* \"contracts/ERC20.sol\":10552:10892  function _approve(address owner, address spender, uint256 amount) internal virtual {... */\n          pop\n          pop\n          pop\n          jump\t// out\n            /* \"contracts/ERC20.sol\":11173:11584  function _spendAllowance(address owner, address spender, uint256 amount) internal virtual {... */\n        tag_83:\n            /* \"contracts/ERC20.sol\":11273:11297  uint256 currentAllowance */\n          0x00\n            /* \"contracts/ERC20.sol\":11300:11325  allowance(owner, spender) */\n          tag_124\n            /* \"contracts/ERC20.sol\":11310:11315  owner */\n          dup5\n            /* \"contracts/ERC20.sol\":11317:11324  spender */\n          dup5\n            /* \"contracts/ERC20.sol\":11300:11309  allowance */\n          tag_65\n            /* \"contracts/ERC20.sol\":11300:11325  allowance(owner, spender) */\n          jump\t// in\n        tag_124:\n            /* \"contracts/ERC20.sol\":11273:11325  uint256 currentAllowance = allowance(owner, spender) */\n          swap1\n          pop\n            /* \"contracts/ERC20.sol\":11359:11376  type(uint256).max */\n          0xffffffffffffffffffffffffffffffffffffffffffffffffffffffffffffffff\n            /* \"contracts/ERC20.sol\":11339:11355  currentAllowance */\n          dup2\n            /* \"contracts/ERC20.sol\":11339:11376  currentAllowance != type(uint256).max */\n          eq\n            /* \"contracts/ERC20.sol\":11335:11578  if (currentAllowance != type(uint256).max) {... */\n          tag_125\n          jumpi\n            /* \"contracts/ERC20.sol\":11420:11426  amount */\n          dup2\n            /* \"contracts/ERC20.sol\":11400:11416  currentAllowance */\n          dup2\n            /* \"contracts/ERC20.sol\":11400:11426  currentAllowance >= amount */\n          lt\n          iszero\n            /* \"contracts/ERC20.sol\":11392:11460  require(currentAllowance >= amount, \"ERC20: insufficient allowance\") */\n          tag_126\n          jumpi\n          mload(0x40)\n          0x08c379a000000000000000000000000000000000000000000000000000000000\n          dup2\n          mstore\n          0x04\n          add\n          tag_127\n          swap1\n          tag_128\n          jump\t// in\n        tag_127:\n          mload(0x40)\n          dup1\n          swap2\n          sub\n          swap1\n          revert\n        tag_126:\n            /* \"contracts/ERC20.sol\":11502:11553  _approve(owner, spender, currentAllowance - amount) */\n          tag_129\n            /* \"contracts/ERC20.sol\":11511:11516  owner */\n          dup5\n            /* \"contracts/ERC20.sol\":11518:11525  spender */\n          dup5\n            /* \"contracts/ERC20.sol\":11546:11552  amount */\n          dup5\n            /* \"contracts/ERC20.sol\":11527:11543  currentAllowance */\n          dup5\n            /* \"contracts/ERC20.sol\":11527:11552  currentAllowance - amount */\n          sub\n            /* \"contracts/ERC20.sol\":11502:11510  _approve */\n          tag_78\n            /* \"contracts/ERC20.sol\":11502:11553  _approve(owner, spender, currentAllowance - amount) */\n          jump\t// in\n        tag_129:\n            /* \"contracts/ERC20.sol\":11335:11578  if (currentAllowance != type(uint256).max) {... */\n        tag_125:\n            /* \"contracts/ERC20.sol\":11263:11584  {... */\n          pop\n            /* \"contracts/ERC20.sol\":11173:11584  function _spendAllowance(address owner, address spender, uint256 amount) internal virtual {... */\n          pop\n          pop\n          pop\n          jump\t// out\n            /* \"contracts/ERC20.sol\":7551:8339  function _transfer(address from, address to, uint256 amount) internal virtual {... */\n        tag_85:\n            /* \"contracts/ERC20.sol\":7663:7664  0 */\n          0x00\n            /* \"contracts/ERC20.sol\":7647:7665  from != address(0) */\n          0xffffffffffffffffffffffffffffffffffffffff\n          and\n            /* \"contracts/ERC20.sol\":7647:7651  from */\n          dup4\n            /* \"contracts/ERC20.sol\":7647:7665  from != address(0) */\n          0xffffffffffffffffffffffffffffffffffffffff\n          and\n          sub\n            /* \"contracts/ERC20.sol\":7639:7707  require(from != address(0), \"ERC20: transfer from the zero address\") */\n          tag_131\n          jumpi\n          mload(0x40)\n          0x08c379a000000000000000000000000000000000000000000000000000000000\n          dup2\n          mstore\n          0x04\n          add\n          tag_132\n          swap1\n          tag_133\n          jump\t// in\n        tag_132:\n          mload(0x40)\n          dup1\n          swap2\n          sub\n          swap1\n          revert\n        tag_131:\n            /* \"contracts/ERC20.sol\":7739:7740  0 */\n          0x00\n            /* \"contracts/ERC20.sol\":7725:7741  to != address(0) */\n          0xffffffffffffffffffffffffffffffffffffffff\n          and\n            /* \"contracts/ERC20.sol\":7725:7727  to */\n          dup3\n            /* \"contracts/ERC20.sol\":7725:7741  to != address(0) */\n          0xffffffffffffffffffffffffffffffffffffffff\n          and\n          sub\n            /* \"contracts/ERC20.sol\":7717:7781  require(to != address(0), \"ERC20: transfer to the zero address\") */\n          tag_134\n          jumpi\n          mload(0x40)\n          0x08c379a000000000000000000000000000000000000000000000000000000000\n          dup2\n          mstore\n          0x04\n          add\n          tag_135\n          swap1\n          tag_136\n          jump\t// in\n        tag_135:\n          mload(0x40)\n          dup1\n          swap2\n          sub\n          swap1\n          revert\n        tag_134:\n            /* \"contracts/ERC20.sol\":7792:7830  _beforeTokenTransfer(from, to, amount) */\n          tag_137\n            /* \"contracts/ERC20.sol\":7813:7817  from */\n          dup4\n            /* \"contracts/ERC20.sol\":7819:7821  to */\n          dup4\n            /* \"contracts/ERC20.sol\":7823:7829  amount */\n          dup4\n            /* \"contracts/ERC20.sol\":7792:7812  _beforeTokenTransfer */\n          tag_138\n            /* \"contracts/ERC20.sol\":7792:7830  _beforeTokenTransfer(from, to, amount) */\n          jump\t// in\n        tag_137:\n            /* \"contracts/ERC20.sol\":7841:7860  uint256 fromBalance */\n          0x00\n            /* \"contracts/ERC20.sol\":7863:7872  _balances */\n          dup1\n            /* \"contracts/ERC20.sol\":7863:7878  _balances[from] */\n          0x00\n            /* \"contracts/ERC20.sol\":7873:7877  from */\n          dup6\n            /* \"contracts/ERC20.sol\":7863:7878  _balances[from] */\n          0xffffffffffffffffffffffffffffffffffffffff\n          and\n          0xffffffffffffffffffffffffffffffffffffffff\n          and\n          dup2\n          mstore\n          0x20\n          add\n          swap1\n          dup2\n          mstore\n          0x20\n          add\n          0x00\n          keccak256\n          sload\n            /* \"contracts/ERC20.sol\":7841:7878  uint256 fromBalance = _balances[from] */\n          swap1\n          pop\n            /* \"contracts/ERC20.sol\":7911:7917  amount */\n          dup2\n            /* \"contracts/ERC20.sol\":7896:7907  fromBalance */\n          dup2\n            /* \"contracts/ERC20.sol\":7896:7917  fromBalance >= amount */\n          lt\n          iszero\n            /* \"contracts/ERC20.sol\":7888:7960  require(fromBalance >= amount, \"ERC20: transfer amount exceeds balance\") */\n          tag_139\n          jumpi\n          mload(0x40)\n          0x08c379a000000000000000000000000000000000000000000000000000000000\n          dup2\n          mstore\n          0x04\n          add\n          tag_140\n          swap1\n          tag_141\n          jump\t// in\n        tag_140:\n          mload(0x40)\n          dup1\n          swap2\n          sub\n          swap1\n          revert\n        tag_139:\n            /* \"contracts/ERC20.sol\":8026:8032  amount */\n          dup2\n            /* \"contracts/ERC20.sol\":8012:8023  fromBalance */\n          dup2\n            /* \"contracts/ERC20.sol\":8012:8032  fromBalance - amount */\n          sub\n            /* \"contracts/ERC20.sol\":7994:8003  _balances */\n          0x00\n            /* \"contracts/ERC20.sol\":7994:8009  _balances[from] */\n          dup1\n            /* \"contracts/ERC20.sol\":8004:8008  from */\n          dup7\n            /* \"contracts/ERC20.sol\":7994:8009  _balances[from] */\n          0xffffffffffffffffffffffffffffffffffffffff\n          and\n          0xffffffffffffffffffffffffffffffffffffffff\n          and\n          dup2\n          mstore\n          0x20\n          add\n          swap1\n          dup2\n          mstore\n          0x20\n          add\n          0x00\n          keccak256\n            /* \"contracts/ERC20.sol\":7994:8032  _balances[from] = fromBalance - amount */\n          dup2\n          swap1\n          sstore\n          pop\n            /* \"contracts/ERC20.sol\":8226:8232  amount */\n          dup2\n            /* \"contracts/ERC20.sol\":8209:8218  _balances */\n          0x00\n            /* \"contracts/ERC20.sol\":8209:8222  _balances[to] */\n          dup1\n            /* \"contracts/ERC20.sol\":8219:8221  to */\n          dup6\n            /* \"contracts/ERC20.sol\":8209:8222  _balances[to] */\n          0xffffffffffffffffffffffffffffffffffffffff\n          and\n          0xffffffffffffffffffffffffffffffffffffffff\n          and\n          dup2\n          mstore\n          0x20\n          add\n          swap1\n          dup2\n          mstore\n          0x20\n          add\n          0x00\n          keccak256\n          0x00\n            /* \"contracts/ERC20.sol\":8209:8232  _balances[to] += amount */\n          dup3\n          dup3\n          sload\n          add\n          swap3\n          pop\n          pop\n          dup2\n          swap1\n          sstore\n          pop\n            /* \"contracts/ERC20.sol\":8273:8275  to */\n          dup3\n            /* \"contracts/ERC20.sol\":8258:8284  Transfer(from, to, amount) */\n          0xffffffffffffffffffffffffffffffffffffffff\n          and\n            /* \"contracts/ERC20.sol\":8267:8271  from */\n          dup5\n            /* \"contracts/ERC20.sol\":8258:8284  Transfer(from, to, amount) */\n          0xffffffffffffffffffffffffffffffffffffffff\n          and\n          0xddf252ad1be2c89b69c2b068fc378daa952ba7f163c4a11628f55a4df523b3ef\n            /* \"contracts/ERC20.sol\":8277:8283  amount */\n          dup5\n            /* \"contracts/ERC20.sol\":8258:8284  Transfer(from, to, amount) */\n          mload(0x40)\n          tag_142\n          swap2\n          swap1\n          tag_29\n          jump\t// in\n        tag_142:\n          mload(0x40)\n          dup1\n          swap2\n          sub\n          swap1\n          log3\n            /* \"contracts/ERC20.sol\":8295:8332  _afterTokenTransfer(from, to, amount) */\n          tag_143\n            /* \"contracts/ERC20.sol\":8315:8319  from */\n          dup5\n            /* \"contracts/ERC20.sol\":8321:8323  to */\n          dup5\n            /* \"contracts/ERC20.sol\":8325:8331  amount */\n          dup5\n            /* \"contracts/ERC20.sol\":8295:8314  _afterTokenTransfer */\n          tag_144\n            /* \"contracts/ERC20.sol\":8295:8332  _afterTokenTransfer(from, to, amount) */\n          jump\t// in\n        tag_143:\n            /* \"contracts/ERC20.sol\":7629:8339  {... */\n          pop\n            /* \"contracts/ERC20.sol\":7551:8339  function _transfer(address from, address to, uint256 amount) internal virtual {... */\n          pop\n          pop\n          pop\n          jump\t// out\n            /* \"contracts/ERC20.sol\":8615:9150  function _mint(address account, uint256 amount) internal virtual {... */\n        tag_95:\n            /* \"contracts/ERC20.sol\":8717:8718  0 */\n          0x00\n            /* \"contracts/ERC20.sol\":8698:8719  account != address(0) */\n          0xffffffffffffffffffffffffffffffffffffffff\n          and\n            /* \"contracts/ERC20.sol\":8698:8705  account */\n          dup3\n            /* \"contracts/ERC20.sol\":8698:8719  account != address(0) */\n          0xffffffffffffffffffffffffffffffffffffffff\n          and\n          sub\n            /* \"contracts/ERC20.sol\":8690:8755  require(account != address(0), \"ERC20: mint to the zero address\") */\n          tag_146\n          jumpi\n          mload(0x40)\n          0x08c379a000000000000000000000000000000000000000000000000000000000\n          dup2\n          mstore\n          0x04\n          add\n          tag_147\n          swap1\n          tag_148\n          jump\t// in\n        tag_147:\n          mload(0x40)\n          dup1\n          swap2\n          sub\n          swap1\n          revert\n        tag_146:\n            /* \"contracts/ERC20.sol\":8766:8815  _beforeTokenTransfer(address(0), account, amount) */\n          tag_149\n            /* \"contracts/ERC20.sol\":8795:8796  0 */\n          0x00\n            /* \"contracts/ERC20.sol\":8799:8806  account */\n          dup4\n            /* \"contracts/ERC20.sol\":8808:8814  amount */\n          dup4\n            /* \"contracts/ERC20.sol\":8766:8786  _beforeTokenTransfer */\n          tag_138\n            /* \"contracts/ERC20.sol\":8766:8815  _beforeTokenTransfer(address(0), account, amount) */\n          jump\t// in\n        tag_149:\n            /* \"contracts/ERC20.sol\":8842:8848  amount */\n          dup1\n            /* \"contracts/ERC20.sol\":8826:8838  _totalSupply */\n          0x02\n          0x00\n            /* \"contracts/ERC20.sol\":8826:8848  _totalSupply += amount */\n          dup3\n          dup3\n          sload\n          tag_150\n          swap2\n          swap1\n          tag_92\n          jump\t// in\n        tag_150:\n          swap3\n          pop\n          pop\n          dup2\n          swap1\n          sstore\n          pop\n            /* \"contracts/ERC20.sol\":9016:9022  amount */\n          dup1\n            /* \"contracts/ERC20.sol\":8994:9003  _balances */\n          0x00\n            /* \"contracts/ERC20.sol\":8994:9012  _balances[account] */\n          dup1\n            /* \"contracts/ERC20.sol\":9004:9011  account */\n          dup5\n            /* \"contracts/ERC20.sol\":8994:9012  _balances[account] */\n          0xffffffffffffffffffffffffffffffffffffffff\n          and\n          0xffffffffffffffffffffffffffffffffffffffff\n          and\n          dup2\n          mstore\n          0x20\n          add\n          swap1\n          dup2\n          mstore\n          0x20\n          add\n          0x00\n          keccak256\n          0x00\n            /* \"contracts/ERC20.sol\":8994:9022  _balances[account] += amount */\n          dup3\n          dup3\n          sload\n          add\n          swap3\n          pop\n          pop\n          dup2\n          swap1\n          sstore\n          pop\n            /* \"contracts/ERC20.sol\":9068:9075  account */\n          dup2\n            /* \"contracts/ERC20.sol\":9047:9084  Transfer(address(0), account, amount) */\n          0xffffffffffffffffffffffffffffffffffffffff\n          and\n            /* \"contracts/ERC20.sol\":9064:9065  0 */\n          0x00\n            /* \"contracts/ERC20.sol\":9047:9084  Transfer(address(0), account, amount) */\n          0xffffffffffffffffffffffffffffffffffffffff\n          and\n          0xddf252ad1be2c89b69c2b068fc378daa952ba7f163c4a11628f55a4df523b3ef\n            /* \"contracts/ERC20.sol\":9077:9083  amount */\n          dup4\n            /* \"contracts/ERC20.sol\":9047:9084  Transfer(address(0), account, amount) */\n          mload(0x40)\n          tag_151\n          swap2\n          swap1\n          tag_29\n          jump\t// in\n        tag_151:\n          mload(0x40)\n          dup1\n          swap2\n          sub\n          swap1\n          log3\n            /* \"contracts/ERC20.sol\":9095:9143  _afterTokenTransfer(address(0), account, amount) */\n          tag_152\n            /* \"contracts/ERC20.sol\":9123:9124  0 */\n          0x00\n            /* \"contracts/ERC20.sol\":9127:9134  account */\n          dup4\n            /* \"contracts/ERC20.sol\":9136:9142  amount */\n          dup4\n            /* \"contracts/ERC20.sol\":9095:9114  _afterTokenTransfer */\n          tag_144\n            /* \"contracts/ERC20.sol\":9095:9143  _afterTokenTransfer(address(0), account, amount) */\n          jump\t// in\n        tag_152:\n            /* \"contracts/ERC20.sol\":8615:9150  function _mint(address account, uint256 amount) internal virtual {... */\n          pop\n          pop\n          jump\t// out\n            /* \"contracts/ERC20.sol\":12168:12259  function _beforeTokenTransfer(address from, address to, uint256 amount) internal virtual {} */\n        tag_138:\n          pop\n          pop\n          pop\n          jump\t// out\n            /* \"contracts/ERC20.sol\":12847:12937  function _afterTokenTransfer(address from, address to, uint256 amount) internal virtual {} */\n        tag_144:\n          pop\n          pop\n          pop\n          jump\t// out\n            /* \"#utility.yul\":7:106   */\n        tag_155:\n            /* \"#utility.yul\":59:65   */\n          0x00\n            /* \"#utility.yul\":93:98   */\n          dup2\n            /* \"#utility.yul\":87:99   */\n          mload\n            /* \"#utility.yul\":77:99   */\n          swap1\n          pop\n            /* \"#utility.yul\":7:106   */\n          swap2\n          swap1\n          pop\n          jump\t// out\n            /* \"#utility.yul\":112:281   */\n        tag_156:\n            /* \"#utility.yul\":196:207   */\n          0x00\n            /* \"#utility.yul\":230:236   */\n          dup3\n            /* \"#utility.yul\":225:228   */\n          dup3\n            /* \"#utility.yul\":218:237   */\n          mstore\n            /* \"#utility.yul\":270:274   */\n          0x20\n            /* \"#utility.yul\":265:268   */\n          dup3\n            /* \"#utility.yul\":261:275   */\n          add\n            /* \"#utility.yul\":246:275   */\n          swap1\n          pop\n            /* \"#utility.yul\":112:281   */\n          swap3\n          swap2\n          pop\n          pop\n          jump\t// out\n            /* \"#utility.yul\":287:533   */\n        tag_157:\n            /* \"#utility.yul\":368:369   */\n          0x00\n            /* \"#utility.yul\":378:491   */\n        tag_197:\n            /* \"#utility.yul\":392:398   */\n          dup4\n            /* \"#utility.yul\":389:390   */\n          dup2\n            /* \"#utility.yul\":386:399   */\n          lt\n            /* \"#utility.yul\":378:491   */\n          iszero\n          tag_199\n          jumpi\n            /* \"#utility.yul\":477:478   */\n          dup1\n            /* \"#utility.yul\":472:475   */\n          dup3\n            /* \"#utility.yul\":468:479   */\n          add\n            /* \"#utility.yul\":462:480   */\n          mload\n            /* \"#utility.yul\":458:459   */\n          dup2\n            /* \"#utility.yul\":453:456   */\n          dup5\n            /* \"#utility.yul\":449:460   */\n          add\n            /* \"#utility.yul\":442:481   */\n          mstore\n            /* \"#utility.yul\":414:416   */\n          0x20\n            /* \"#utility.yul\":411:412   */\n          dup2\n            /* \"#utility.yul\":407:417   */\n          add\n            /* \"#utility.yul\":402:417   */\n          swap1\n          pop\n            /* \"#utility.yul\":378:491   */\n          jump(tag_197)\n        tag_199:\n            /* \"#utility.yul\":525:526   */\n          0x00\n            /* \"#utility.yul\":516:522   */\n          dup5\n            /* \"#utility.yul\":511:514   */\n          dup5\n            /* \"#utility.yul\":507:523   */\n          add\n            /* \"#utility.yul\":500:527   */\n          mstore\n            /* \"#utility.yul\":349:533   */\n          pop\n            /* \"#utility.yul\":287:533   */\n          pop\n          pop\n          pop\n          jump\t// out\n            /* \"#utility.yul\":539:641   */\n        tag_158:\n            /* \"#utility.yul\":580:586   */\n          0x00\n            /* \"#utility.yul\":631:633   */\n          0x1f\n            /* \"#utility.yul\":627:634   */\n          not\n            /* \"#utility.yul\":622:624   */\n          0x1f\n            /* \"#utility.yul\":615:620   */\n          dup4\n            /* \"#utility.yul\":611:625   */\n          add\n            /* \"#utility.yul\":607:635   */\n          and\n            /* \"#utility.yul\":597:635   */\n          swap1\n          pop\n            /* \"#utility.yul\":539:641   */\n          swap2\n          swap1\n          pop\n          jump\t// out\n            /* \"#utility.yul\":647:1024   */\n        tag_159:\n            /* \"#utility.yul\":735:738   */\n          0x00\n            /* \"#utility.yul\":763:802   */\n          tag_202\n            /* \"#utility.yul\":796:801   */\n          dup3\n            /* \"#utility.yul\":763:802   */\n          tag_155\n          jump\t// in\n        tag_202:\n            /* \"#utility.yul\":818:889   */\n          tag_203\n            /* \"#utility.yul\":882:888   */\n          dup2\n            /* \"#utility.yul\":877:880   */\n          dup6\n            /* \"#utility.yul\":818:889   */\n          tag_156\n          jump\t// in\n        tag_203:\n            /* \"#utility.yul\":811:889   */\n          swap4\n          pop\n            /* \"#utility.yul\":898:963   */\n          tag_204\n            /* \"#utility.yul\":956:962   */\n          dup2\n            /* \"#utility.yul\":951:954   */\n          dup6\n            /* \"#utility.yul\":944:948   */\n          0x20\n            /* \"#utility.yul\":937:942   */\n          dup7\n            /* \"#utility.yul\":933:949   */\n          add\n            /* \"#utility.yul\":898:963   */\n          tag_157\n          jump\t// in\n        tag_204:\n            /* \"#utility.yul\":988:1017   */\n          tag_205\n            /* \"#utility.yul\":1010:1016   */\n          dup2\n            /* \"#utility.yul\":988:1017   */\n          tag_158\n          jump\t// in\n        tag_205:\n            /* \"#utility.yul\":983:986   */\n          dup5\n            /* \"#utility.yul\":979:1018   */\n          add\n            /* \"#utility.yul\":972:1018   */\n          swap2\n          pop\n            /* \"#utility.yul\":739:1024   */\n          pop\n            /* \"#utility.yul\":647:1024   */\n          swap3\n          swap2\n          pop\n          pop\n          jump\t// out\n            /* \"#utility.yul\":1030:1343   */\n        tag_19:\n            /* \"#utility.yul\":1143:1147   */\n          0x00\n            /* \"#utility.yul\":1181:1183   */\n          0x20\n            /* \"#utility.yul\":1170:1179   */\n          dup3\n            /* \"#utility.yul\":1166:1184   */\n          add\n            /* \"#utility.yul\":1158:1184   */\n          swap1\n          pop\n            /* \"#utility.yul\":1230:1239   */\n          dup2\n            /* \"#utility.yul\":1224:1228   */\n          dup2\n            /* \"#utility.yul\":1220:1240   */\n          sub\n            /* \"#utility.yul\":1216:1217   */\n          0x00\n            /* \"#utility.yul\":1205:1214   */\n          dup4\n            /* \"#utility.yul\":1201:1218   */\n          add\n            /* \"#utility.yul\":1194:1241   */\n          mstore\n            /* \"#utility.yul\":1258:1336   */\n          tag_207\n            /* \"#utility.yul\":1331:1335   */\n          dup2\n            /* \"#utility.yul\":1322:1328   */\n          dup5\n            /* \"#utility.yul\":1258:1336   */\n          tag_159\n          jump\t// in\n        tag_207:\n            /* \"#utility.yul\":1250:1336   */\n          swap1\n          pop\n            /* \"#utility.yul\":1030:1343   */\n          swap3\n          swap2\n          pop\n          pop\n          jump\t// out\n            /* \"#utility.yul\":1430:1547   */\n        tag_161:\n            /* \"#utility.yul\":1539:1540   */\n          0x00\n            /* \"#utility.yul\":1536:1537   */\n          dup1\n            /* \"#utility.yul\":1529:1541   */\n          revert\n            /* \"#utility.yul\":1676:1802   */\n        tag_163:\n            /* \"#utility.yul\":1713:1720   */\n          0x00\n            /* \"#utility.yul\":1753:1795   */\n          0xffffffffffffffffffffffffffffffffffffffff\n            /* \"#utility.yul\":1746:1751   */\n          dup3\n            /* \"#utility.yul\":1742:1796   */\n          and\n            /* \"#utility.yul\":1731:1796   */\n          swap1\n          pop\n            /* \"#utility.yul\":1676:1802   */\n          swap2\n          swap1\n          pop\n          jump\t// out\n            /* \"#utility.yul\":1808:1904   */\n        tag_164:\n            /* \"#utility.yul\":1845:1852   */\n          0x00\n            /* \"#utility.yul\":1874:1898   */\n          tag_213\n            /* \"#utility.yul\":1892:1897   */\n          dup3\n            /* \"#utility.yul\":1874:1898   */\n          tag_163\n          jump\t// in\n        tag_213:\n            /* \"#utility.yul\":1863:1898   */\n          swap1\n          pop\n            /* \"#utility.yul\":1808:1904   */\n          swap2\n          swap1\n          pop\n          jump\t// out\n            /* \"#utility.yul\":1910:2032   */\n        tag_165:\n            /* \"#utility.yul\":1983:2007   */\n          tag_215\n            /* \"#utility.yul\":2001:2006   */\n          dup2\n            /* \"#utility.yul\":1983:2007   */\n          tag_164\n          jump\t// in\n        tag_215:\n            /* \"#utility.yul\":1976:1981   */\n          dup2\n            /* \"#utility.yul\":1973:2008   */\n          eq\n            /* \"#utility.yul\":1963:2026   */\n          tag_216\n          jumpi\n            /* \"#utility.yul\":2022:2023   */\n          0x00\n            /* \"#utility.yul\":2019:2020   */\n          dup1\n            /* \"#utility.yul\":2012:2024   */\n          revert\n            /* \"#utility.yul\":1963:2026   */\n        tag_216:\n            /* \"#utility.yul\":1910:2032   */\n          pop\n          jump\t// out\n            /* \"#utility.yul\":2038:2177   */\n        tag_166:\n            /* \"#utility.yul\":2084:2089   */\n          0x00\n            /* \"#utility.yul\":2122:2128   */\n          dup2\n            /* \"#utility.yul\":2109:2129   */\n          calldataload\n            /* \"#utility.yul\":2100:2129   */\n          swap1\n          pop\n            /* \"#utility.yul\":2138:2171   */\n          tag_218\n            /* \"#utility.yul\":2165:2170   */\n          dup2\n            /* \"#utility.yul\":2138:2171   */\n          tag_165\n          jump\t// in\n        tag_218:\n            /* \"#utility.yul\":2038:2177   */\n          swap3\n          swap2\n          pop\n          pop\n          jump\t// out\n            /* \"#utility.yul\":2183:2260   */\n        tag_167:\n            /* \"#utility.yul\":2220:2227   */\n          0x00\n            /* \"#utility.yul\":2249:2254   */\n          dup2\n            /* \"#utility.yul\":2238:2254   */\n          swap1\n          pop\n            /* \"#utility.yul\":2183:2260   */\n          swap2\n          swap1\n          pop\n          jump\t// out\n            /* \"#utility.yul\":2266:2388   */\n        tag_168:\n            /* \"#utility.yul\":2339:2363   */\n          tag_221\n            /* \"#utility.yul\":2357:2362   */\n          dup2\n            /* \"#utility.yul\":2339:2363   */\n          tag_167\n          jump\t// in\n        tag_221:\n            /* \"#utility.yul\":2332:2337   */\n          dup2\n            /* \"#utility.yul\":2329:2364   */\n          eq\n            /* \"#utility.yul\":2319:2382   */\n          tag_222\n          jumpi\n            /* \"#utility.yul\":2378:2379   */\n          0x00\n            /* \"#utility.yul\":2375:2376   */\n          dup1\n            /* \"#utility.yul\":2368:2380   */\n          revert\n            /* \"#utility.yul\":2319:2382   */\n        tag_222:\n            /* \"#utility.yul\":2266:2388   */\n          pop\n          jump\t// out\n            /* \"#utility.yul\":2394:2533   */\n        tag_169:\n            /* \"#utility.yul\":2440:2445   */\n          0x00\n            /* \"#utility.yul\":2478:2484   */\n          dup2\n            /* \"#utility.yul\":2465:2485   */\n          calldataload\n            /* \"#utility.yul\":2456:2485   */\n          swap1\n          pop\n            /* \"#utility.yul\":2494:2527   */\n          tag_224\n            /* \"#utility.yul\":2521:2526   */\n          dup2\n            /* \"#utility.yul\":2494:2527   */\n          tag_168\n          jump\t// in\n        tag_224:\n            /* \"#utility.yul\":2394:2533   */\n          swap3\n          swap2\n          pop\n          pop\n          jump\t// out\n            /* \"#utility.yul\":2539:3013   */\n        tag_22:\n            /* \"#utility.yul\":2607:2613   */\n          0x00\n            /* \"#utility.yul\":2615:2621   */\n          dup1\n            /* \"#utility.yul\":2664:2666   */\n          0x40\n            /* \"#utility.yul\":2652:2661   */\n          dup4\n            /* \"#utility.yul\":2643:2650   */\n          dup6\n            /* \"#utility.yul\":2639:2662   */\n          sub\n            /* \"#utility.yul\":2635:2667   */\n          slt\n            /* \"#utility.yul\":2632:2751   */\n          iszero\n          tag_226\n          jumpi\n            /* \"#utility.yul\":2670:2749   */\n          tag_227\n          tag_161\n          jump\t// in\n        tag_227:\n            /* \"#utility.yul\":2632:2751   */\n        tag_226:\n            /* \"#utility.yul\":2790:2791   */\n          0x00\n            /* \"#utility.yul\":2815:2868   */\n          tag_228\n            /* \"#utility.yul\":2860:2867   */\n          dup6\n            /* \"#utility.yul\":2851:2857   */\n          dup3\n            /* \"#utility.yul\":2840:2849   */\n          dup7\n            /* \"#utility.yul\":2836:2858   */\n          add\n            /* \"#utility.yul\":2815:2868   */\n          tag_166\n          jump\t// in\n        tag_228:\n            /* \"#utility.yul\":2805:2868   */\n          swap3\n          pop\n            /* \"#utility.yul\":2761:2878   */\n          pop\n            /* \"#utility.yul\":2917:2919   */\n          0x20\n            /* \"#utility.yul\":2943:2996   */\n          tag_229\n            /* \"#utility.yul\":2988:2995   */\n          dup6\n            /* \"#utility.yul\":2979:2985   */\n          dup3\n            /* \"#utility.yul\":2968:2977   */\n          dup7\n            /* \"#utility.yul\":2964:2986   */\n          add\n            /* \"#utility.yul\":2943:2996   */\n          tag_169\n          jump\t// in\n        tag_229:\n            /* \"#utility.yul\":2933:2996   */\n          swap2\n          pop\n            /* \"#utility.yul\":2888:3006   */\n          pop\n            /* \"#utility.yul\":2539:3013   */\n          swap3\n          pop\n          swap3\n          swap1\n          pop\n          jump\t// out\n            /* \"#utility.yul\":3019:3109   */\n        tag_170:\n            /* \"#utility.yul\":3053:3060   */\n          0x00\n            /* \"#utility.yul\":3096:3101   */\n          dup2\n            /* \"#utility.yul\":3089:3102   */\n          iszero\n            /* \"#utility.yul\":3082:3103   */\n          iszero\n            /* \"#utility.yul\":3071:3103   */\n          swap1\n          pop\n            /* \"#utility.yul\":3019:3109   */\n          swap2\n          swap1\n          pop\n          jump\t// out\n            /* \"#utility.yul\":3115:3224   */\n        tag_171:\n            /* \"#utility.yul\":3196:3217   */\n          tag_232\n            /* \"#utility.yul\":3211:3216   */\n          dup2\n            /* \"#utility.yul\":3196:3217   */\n          tag_170\n          jump\t// in\n        tag_232:\n            /* \"#utility.yul\":3191:3194   */\n          dup3\n            /* \"#utility.yul\":3184:3218   */\n          mstore\n            /* \"#utility.yul\":3115:3224   */\n          pop\n          pop\n          jump\t// out\n            /* \"#utility.yul\":3230:3440   */\n        tag_25:\n            /* \"#utility.yul\":3317:3321   */\n          0x00\n            /* \"#utility.yul\":3355:3357   */\n          0x20\n            /* \"#utility.yul\":3344:3353   */\n          dup3\n            /* \"#utility.yul\":3340:3358   */\n          add\n            /* \"#utility.yul\":3332:3358   */\n          swap1\n          pop\n            /* \"#utility.yul\":3368:3433   */\n          tag_234\n            /* \"#utility.yul\":3430:3431   */\n          0x00\n            /* \"#utility.yul\":3419:3428   */\n          dup4\n            /* \"#utility.yul\":3415:3432   */\n          add\n            /* \"#utility.yul\":3406:3412   */\n          dup5\n            /* \"#utility.yul\":3368:3433   */\n          tag_171\n          jump\t// in\n        tag_234:\n            /* \"#utility.yul\":3230:3440   */\n          swap3\n          swap2\n          pop\n          pop\n          jump\t// out\n            /* \"#utility.yul\":3446:3564   */\n        tag_172:\n            /* \"#utility.yul\":3533:3557   */\n          tag_236\n            /* \"#utility.yul\":3551:3556   */\n          dup2\n            /* \"#utility.yul\":3533:3557   */\n          tag_167\n          jump\t// in\n        tag_236:\n            /* \"#utility.yul\":3528:3531   */\n          dup3\n            /* \"#utility.yul\":3521:3558   */\n          mstore\n            /* \"#utility.yul\":3446:3564   */\n          pop\n          pop\n          jump\t// out\n            /* \"#utility.yul\":3570:3792   */\n        tag_29:\n            /* \"#utility.yul\":3663:3667   */\n          0x00\n            /* \"#utility.yul\":3701:3703   */\n          0x20\n            /* \"#utility.yul\":3690:3699   */\n          dup3\n            /* \"#utility.yul\":3686:3704   */\n          add\n            /* \"#utility.yul\":3678:3704   */\n          swap1\n          pop\n            /* \"#utility.yul\":3714:3785   */\n          tag_238\n            /* \"#utility.yul\":3782:3783   */\n          0x00\n            /* \"#utility.yul\":3771:3780   */\n          dup4\n            /* \"#utility.yul\":3767:3784   */\n          add\n            /* \"#utility.yul\":3758:3764   */\n          dup5\n            /* \"#utility.yul\":3714:3785   */\n          tag_172\n          jump\t// in\n        tag_238:\n            /* \"#utility.yul\":3570:3792   */\n          swap3\n          swap2\n          pop\n          pop\n          jump\t// out\n            /* \"#utility.yul\":3798:4417   */\n        tag_32:\n            /* \"#utility.yul\":3875:3881   */\n          0x00\n            /* \"#utility.yul\":3883:3889   */\n          dup1\n            /* \"#utility.yul\":3891:3897   */\n          0x00\n            /* \"#utility.yul\":3940:3942   */\n          0x60\n            /* \"#utility.yul\":3928:3937   */\n          dup5\n            /* \"#utility.yul\":3919:3926   */\n          dup7\n            /* \"#utility.yul\":3915:3938   */\n          sub\n            /* \"#utility.yul\":3911:3943   */\n          slt\n            /* \"#utility.yul\":3908:4027   */\n          iszero\n          tag_240\n          jumpi\n            /* \"#utility.yul\":3946:4025   */\n          tag_241\n          tag_161\n          jump\t// in\n        tag_241:\n            /* \"#utility.yul\":3908:4027   */\n        tag_240:\n            /* \"#utility.yul\":4066:4067   */\n          0x00\n            /* \"#utility.yul\":4091:4144   */\n          tag_242\n            /* \"#utility.yul\":4136:4143   */\n          dup7\n            /* \"#utility.yul\":4127:4133   */\n          dup3\n            /* \"#utility.yul\":4116:4125   */\n          dup8\n            /* \"#utility.yul\":4112:4134   */\n          add\n            /* \"#utility.yul\":4091:4144   */\n          tag_166\n          jump\t// in\n        tag_242:\n            /* \"#utility.yul\":4081:4144   */\n          swap4\n          pop\n            /* \"#utility.yul\":4037:4154   */\n          pop\n            /* \"#utility.yul\":4193:4195   */\n          0x20\n            /* \"#utility.yul\":4219:4272   */\n          tag_243\n            /* \"#utility.yul\":4264:4271   */\n          dup7\n            /* \"#utility.yul\":4255:4261   */\n          dup3\n            /* \"#utility.yul\":4244:4253   */\n          dup8\n            /* \"#utility.yul\":4240:4262   */\n          add\n            /* \"#utility.yul\":4219:4272   */\n          tag_166\n          jump\t// in\n        tag_243:\n            /* \"#utility.yul\":4209:4272   */\n          swap3\n          pop\n            /* \"#utility.yul\":4164:4282   */\n          pop\n            /* \"#utility.yul\":4321:4323   */\n          0x40\n            /* \"#utility.yul\":4347:4400   */\n          tag_244\n            /* \"#utility.yul\":4392:4399   */\n          dup7\n            /* \"#utility.yul\":4383:4389   */\n          dup3\n            /* \"#utility.yul\":4372:4381   */\n          dup8\n            /* \"#utility.yul\":4368:4390   */\n          add\n            /* \"#utility.yul\":4347:4400   */\n          tag_169\n          jump\t// in\n        tag_244:\n            /* \"#utility.yul\":4337:4400   */\n          swap2\n          pop\n            /* \"#utility.yul\":4292:4410   */\n          pop\n            /* \"#utility.yul\":3798:4417   */\n          swap3\n          pop\n          swap3\n          pop\n          swap3\n          jump\t// out\n            /* \"#utility.yul\":4423:4509   */\n        tag_173:\n            /* \"#utility.yul\":4458:4465   */\n          0x00\n            /* \"#utility.yul\":4498:4502   */\n          0xff\n            /* \"#utility.yul\":4491:4496   */\n          dup3\n            /* \"#utility.yul\":4487:4503   */\n          and\n            /* \"#utility.yul\":4476:4503   */\n          swap1\n          pop\n            /* \"#utility.yul\":4423:4509   */\n          swap2\n          swap1\n          pop\n          jump\t// out\n            /* \"#utility.yul\":4515:4627   */\n        tag_174:\n            /* \"#utility.yul\":4598:4620   */\n          tag_247\n            /* \"#utility.yul\":4614:4619   */\n          dup2\n            /* \"#utility.yul\":4598:4620   */\n          tag_173\n          jump\t// in\n        tag_247:\n            /* \"#utility.yul\":4593:4596   */\n          dup3\n            /* \"#utility.yul\":4586:4621   */\n          mstore\n            /* \"#utility.yul\":4515:4627   */\n          pop\n          pop\n          jump\t// out\n            /* \"#utility.yul\":4633:4847   */\n        tag_38:\n            /* \"#utility.yul\":4722:4726   */\n          0x00\n            /* \"#utility.yul\":4760:4762   */\n          0x20\n            /* \"#utility.yul\":4749:4758   */\n          dup3\n            /* \"#utility.yul\":4745:4763   */\n          add\n            /* \"#utility.yul\":4737:4763   */\n          swap1\n          pop\n            /* \"#utility.yul\":4773:4840   */\n          tag_249\n            /* \"#utility.yul\":4837:4838   */\n          0x00\n            /* \"#utility.yul\":4826:4835   */\n          dup4\n            /* \"#utility.yul\":4822:4839   */\n          add\n            /* \"#utility.yul\":4813:4819   */\n          dup5\n            /* \"#utility.yul\":4773:4840   */\n          tag_174\n          jump\t// in\n        tag_249:\n            /* \"#utility.yul\":4633:4847   */\n          swap3\n          swap2\n          pop\n          pop\n          jump\t// out\n            /* \"#utility.yul\":4853:5182   */\n        tag_48:\n            /* \"#utility.yul\":4912:4918   */\n          0x00\n            /* \"#utility.yul\":4961:4963   */\n          0x20\n            /* \"#utility.yul\":4949:4958   */\n          dup3\n            /* \"#utility.yul\":4940:4947   */\n          dup5\n            /* \"#utility.yul\":4936:4959   */\n          sub\n            /* \"#utility.yul\":4932:4964   */\n          slt\n            /* \"#utility.yul\":4929:5048   */\n          iszero\n          tag_251\n          jumpi\n            /* \"#utility.yul\":4967:5046   */\n          tag_252\n          tag_161\n          jump\t// in\n        tag_252:\n            /* \"#utility.yul\":4929:5048   */\n        tag_251:\n            /* \"#utility.yul\":5087:5088   */\n          0x00\n            /* \"#utility.yul\":5112:5165   */\n          tag_253\n            /* \"#utility.yul\":5157:5164   */\n          dup5\n            /* \"#utility.yul\":5148:5154   */\n          dup3\n            /* \"#utility.yul\":5137:5146   */\n          dup6\n            /* \"#utility.yul\":5133:5155   */\n          add\n            /* \"#utility.yul\":5112:5165   */\n          tag_166\n          jump\t// in\n        tag_253:\n            /* \"#utility.yul\":5102:5165   */\n          swap2\n          pop\n            /* \"#utility.yul\":5058:5175   */\n          pop\n            /* \"#utility.yul\":4853:5182   */\n          swap3\n          swap2\n          pop\n          pop\n          jump\t// out\n            /* \"#utility.yul\":5188:5662   */\n        tag_64:\n            /* \"#utility.yul\":5256:5262   */\n          0x00\n            /* \"#utility.yul\":5264:5270   */\n          dup1\n            /* \"#utility.yul\":5313:5315   */\n          0x40\n            /* \"#utility.yul\":5301:5310   */\n          dup4\n            /* \"#utility.yul\":5292:5299   */\n          dup6\n            /* \"#utility.yul\":5288:5311   */\n          sub\n            /* \"#utility.yul\":5284:5316   */\n          slt\n            /* \"#utility.yul\":5281:5400   */\n          iszero\n          tag_255\n          jumpi\n            /* \"#utility.yul\":5319:5398   */\n          tag_256\n          tag_161\n          jump\t// in\n        tag_256:\n            /* \"#utility.yul\":5281:5400   */\n        tag_255:\n            /* \"#utility.yul\":5439:5440   */\n          0x00\n            /* \"#utility.yul\":5464:5517   */\n          tag_257\n            /* \"#utility.yul\":5509:5516   */\n          dup6\n            /* \"#utility.yul\":5500:5506   */\n          dup3\n            /* \"#utility.yul\":5489:5498   */\n          dup7\n            /* \"#utility.yul\":5485:5507   */\n          add\n            /* \"#utility.yul\":5464:5517   */\n          tag_166\n          jump\t// in\n        tag_257:\n            /* \"#utility.yul\":5454:5517   */\n          swap3\n          pop\n            /* \"#utility.yul\":5410:5527   */\n          pop\n            /* \"#utility.yul\":5566:5568   */\n          0x20\n            /* \"#utility.yul\":5592:5645   */\n          tag_258\n            /* \"#utility.yul\":5637:5644   */\n          dup6\n            /* \"#utility.yul\":5628:5634   */\n          dup3\n            /* \"#utility.yul\":5617:5626   */\n          dup7\n            /* \"#utility.yul\":5613:5635   */\n          add\n            /* \"#utility.yul\":5592:5645   */\n          tag_166\n          jump\t// in\n        tag_258:\n            /* \"#utility.yul\":5582:5645   */\n          swap2\n          pop\n            /* \"#utility.yul\":5537:5655   */\n          pop\n            /* \"#utility.yul\":5188:5662   */\n          swap3\n          pop\n          swap3\n          swap1\n          pop\n          jump\t// out\n            /* \"#utility.yul\":5668:5848   */\n        tag_175:\n            /* \"#utility.yul\":5716:5793   */\n          0x4e487b7100000000000000000000000000000000000000000000000000000000\n            /* \"#utility.yul\":5713:5714   */\n          0x00\n            /* \"#utility.yul\":5706:5794   */\n          mstore\n            /* \"#utility.yul\":5813:5817   */\n          0x22\n            /* \"#utility.yul\":5810:5811   */\n          0x04\n            /* \"#utility.yul\":5803:5818   */\n          mstore\n            /* \"#utility.yul\":5837:5841   */\n          0x24\n            /* \"#utility.yul\":5834:5835   */\n          0x00\n            /* \"#utility.yul\":5827:5842   */\n          revert\n            /* \"#utility.yul\":5854:6174   */\n        tag_69:\n            /* \"#utility.yul\":5898:5904   */\n          0x00\n            /* \"#utility.yul\":5935:5936   */\n          0x02\n            /* \"#utility.yul\":5929:5933   */\n          dup3\n            /* \"#utility.yul\":5925:5937   */\n          div\n            /* \"#utility.yul\":5915:5937   */\n          swap1\n          pop\n            /* \"#utility.yul\":5982:5983   */\n          0x01\n            /* \"#utility.yul\":5976:5980   */\n          dup3\n            /* \"#utility.yul\":5972:5984   */\n          and\n            /* \"#utility.yul\":6003:6021   */\n          dup1\n            /* \"#utility.yul\":5993:6074   */\n          tag_261\n          jumpi\n            /* \"#utility.yul\":6059:6063   */\n          0x7f\n            /* \"#utility.yul\":6051:6057   */\n          dup3\n            /* \"#utility.yul\":6047:6064   */\n          and\n            /* \"#utility.yul\":6037:6064   */\n          swap2\n          pop\n            /* \"#utility.yul\":5993:6074   */\n        tag_261:\n            /* \"#utility.yul\":6121:6123   */\n          0x20\n            /* \"#utility.yul\":6113:6119   */\n          dup3\n            /* \"#utility.yul\":6110:6124   */\n          lt\n            /* \"#utility.yul\":6090:6108   */\n          dup2\n            /* \"#utility.yul\":6087:6125   */\n          sub\n            /* \"#utility.yul\":6084:6168   */\n          tag_262\n          jumpi\n            /* \"#utility.yul\":6140:6158   */\n          tag_263\n          tag_175\n          jump\t// in\n        tag_263:\n            /* \"#utility.yul\":6084:6168   */\n        tag_262:\n            /* \"#utility.yul\":5905:6174   */\n          pop\n            /* \"#utility.yul\":5854:6174   */\n          swap2\n          swap1\n          pop\n          jump\t// out\n            /* \"#utility.yul\":6180:6360   */\n        tag_176:\n            /* \"#utility.yul\":6228:6305   */\n          0x4e487b7100000000000000000000000000000000000000000000000000000000\n            /* \"#utility.yul\":6225:6226   */\n          0x00\n            /* \"#utility.yul\":6218:6306   */\n          mstore\n            /* \"#utility.yul\":6325:6329   */\n          0x11\n            /* \"#utility.yul\":6322:6323   */\n          0x04\n            /* \"#utility.yul\":6315:6330   */\n          mstore\n            /* \"#utility.yul\":6349:6353   */\n          0x24\n            /* \"#utility.yul\":6346:6347   */\n          0x00\n            /* \"#utility.yul\":6339:6354   */\n          revert\n            /* \"#utility.yul\":6366:6557   */\n        tag_92:\n            /* \"#utility.yul\":6406:6409   */\n          0x00\n            /* \"#utility.yul\":6425:6445   */\n          tag_266\n            /* \"#utility.yul\":6443:6444   */\n          dup3\n            /* \"#utility.yul\":6425:6445   */\n          tag_167\n          jump\t// in\n        tag_266:\n            /* \"#utility.yul\":6420:6445   */\n          swap2\n          pop\n            /* \"#utility.yul\":6459:6479   */\n          tag_267\n            /* \"#utility.yul\":6477:6478   */\n          dup4\n            /* \"#utility.yul\":6459:6479   */\n          tag_167\n          jump\t// in\n        tag_267:\n            /* \"#utility.yul\":6454:6479   */\n          swap3\n          pop\n            /* \"#utility.yul\":6502:6503   */\n          dup3\n            /* \"#utility.yul\":6499:6500   */\n          dup3\n            /* \"#utility.yul\":6495:6504   */\n          add\n            /* \"#utility.yul\":6488:6504   */\n          swap1\n          pop\n            /* \"#utility.yul\":6523:6526   */\n          dup1\n            /* \"#utility.yul\":6520:6521   */\n          dup3\n            /* \"#utility.yul\":6517:6527   */\n          gt\n            /* \"#utility.yul\":6514:6550   */\n          iszero\n          tag_268\n          jumpi\n            /* \"#utility.yul\":6530:6548   */\n          tag_269\n          tag_176\n          jump\t// in\n        tag_269:\n            /* \"#utility.yul\":6514:6550   */\n        tag_268:\n            /* \"#utility.yul\":6366:6557   */\n          swap3\n          swap2\n          pop\n          pop\n          jump\t// out\n            /* \"#utility.yul\":6563:6787   */\n        tag_177:\n            /* \"#utility.yul\":6703:6737   */\n          0x45524332303a2064656372656173656420616c6c6f77616e63652062656c6f77\n            /* \"#utility.yul\":6699:6700   */\n          0x00\n            /* \"#utility.yul\":6691:6697   */\n          dup3\n            /* \"#utility.yul\":6687:6701   */\n          add\n            /* \"#utility.yul\":6680:6738   */\n          mstore\n            /* \"#utility.yul\":6772:6779   */\n          0x207a65726f000000000000000000000000000000000000000000000000000000\n            /* \"#utility.yul\":6767:6769   */\n          0x20\n            /* \"#utility.yul\":6759:6765   */\n          dup3\n            /* \"#utility.yul\":6755:6770   */\n          add\n            /* \"#utility.yul\":6748:6780   */\n          mstore\n            /* \"#utility.yul\":6563:6787   */\n          pop\n          jump\t// out\n            /* \"#utility.yul\":6793:7159   */\n        tag_178:\n            /* \"#utility.yul\":6935:6938   */\n          0x00\n            /* \"#utility.yul\":6956:7023   */\n          tag_272\n            /* \"#utility.yul\":7020:7022   */\n          0x25\n            /* \"#utility.yul\":7015:7018   */\n          dup4\n            /* \"#utility.yul\":6956:7023   */\n          tag_156\n          jump\t// in\n        tag_272:\n            /* \"#utility.yul\":6949:7023   */\n          swap2\n          pop\n            /* \"#utility.yul\":7032:7125   */\n          tag_273\n            /* \"#utility.yul\":7121:7124   */\n          dup3\n            /* \"#utility.yul\":7032:7125   */\n          tag_177\n          jump\t// in\n        tag_273:\n            /* \"#utility.yul\":7150:7152   */\n          0x40\n            /* \"#utility.yul\":7145:7148   */\n          dup3\n            /* \"#utility.yul\":7141:7153   */\n          add\n            /* \"#utility.yul\":7134:7153   */\n          swap1\n          pop\n            /* \"#utility.yul\":6793:7159   */\n          swap2\n          swap1\n          pop\n          jump\t// out\n            /* \"#utility.yul\":7165:7584   */\n        tag_108:\n            /* \"#utility.yul\":7331:7335   */\n          0x00\n            /* \"#utility.yul\":7369:7371   */\n          0x20\n            /* \"#utility.yul\":7358:7367   */\n          dup3\n            /* \"#utility.yul\":7354:7372   */\n          add\n            /* \"#utility.yul\":7346:7372   */\n          swap1\n          pop\n            /* \"#utility.yul\":7418:7427   */\n          dup2\n            /* \"#utility.yul\":7412:7416   */\n          dup2\n            /* \"#utility.yul\":7408:7428   */\n          sub\n            /* \"#utility.yul\":7404:7405   */\n          0x00\n            /* \"#utility.yul\":7393:7402   */\n          dup4\n            /* \"#utility.yul\":7389:7406   */\n          add\n            /* \"#utility.yul\":7382:7429   */\n          mstore\n            /* \"#utility.yul\":7446:7577   */\n          tag_275\n            /* \"#utility.yul\":7572:7576   */\n          dup2\n            /* \"#utility.yul\":7446:7577   */\n          tag_178\n          jump\t// in\n        tag_275:\n            /* \"#utility.yul\":7438:7577   */\n          swap1\n          pop\n            /* \"#utility.yul\":7165:7584   */\n          swap2\n          swap1\n          pop\n          jump\t// out\n            /* \"#utility.yul\":7590:7813   */\n        tag_179:\n            /* \"#utility.yul\":7730:7764   */\n          0x45524332303a20617070726f76652066726f6d20746865207a65726f20616464\n            /* \"#utility.yul\":7726:7727   */\n          0x00\n            /* \"#utility.yul\":7718:7724   */\n          dup3\n            /* \"#utility.yul\":7714:7728   */\n          add\n            /* \"#utility.yul\":7707:7765   */\n          mstore\n            /* \"#utility.yul\":7799:7805   */\n          0x7265737300000000000000000000000000000000000000000000000000000000\n            /* \"#utility.yul\":7794:7796   */\n          0x20\n            /* \"#utility.yul\":7786:7792   */\n          dup3\n            /* \"#utility.yul\":7782:7797   */\n          add\n            /* \"#utility.yul\":7775:7806   */\n          mstore\n            /* \"#utility.yul\":7590:7813   */\n          pop\n          jump\t// out\n            /* \"#utility.yul\":7819:8185   */\n        tag_180:\n            /* \"#utility.yul\":7961:7964   */\n          0x00\n            /* \"#utility.yul\":7982:8049   */\n          tag_278\n            /* \"#utility.yul\":8046:8048   */\n          0x24\n            /* \"#utility.yul\":8041:8044   */\n          dup4\n            /* \"#utility.yul\":7982:8049   */\n          tag_156\n          jump\t// in\n        tag_278:\n            /* \"#utility.yul\":7975:8049   */\n          swap2\n          pop\n            /* \"#utility.yul\":8058:8151   */\n          tag_279\n            /* \"#utility.yul\":8147:8150   */\n          dup3\n            /* \"#utility.yul\":8058:8151   */\n          tag_179\n          jump\t// in\n        tag_279:\n            /* \"#utility.yul\":8176:8178   */\n          0x40\n            /* \"#utility.yul\":8171:8174   */\n          dup3\n            /* \"#utility.yul\":8167:8179   */\n          add\n            /* \"#utility.yul\":8160:8179   */\n          swap1\n          pop\n            /* \"#utility.yul\":7819:8185   */\n          swap2\n          swap1\n          pop\n          jump\t// out\n            /* \"#utility.yul\":8191:8610   */\n        tag_118:\n            /* \"#utility.yul\":8357:8361   */\n          0x00\n            /* \"#utility.yul\":8395:8397   */\n          0x20\n            /* \"#utility.yul\":8384:8393   */\n          dup3\n            /* \"#utility.yul\":8380:8398   */\n          add\n            /* \"#utility.yul\":8372:8398   */\n          swap1\n          pop\n            /* \"#utility.yul\":8444:8453   */\n          dup2\n            /* \"#utility.yul\":8438:8442   */\n          dup2\n            /* \"#utility.yul\":8434:8454   */\n          sub\n            /* \"#utility.yul\":8430:8431   */\n          0x00\n            /* \"#utility.yul\":8419:8428   */\n          dup4\n            /* \"#utility.yul\":8415:8432   */\n          add\n            /* \"#utility.yul\":8408:8455   */\n          mstore\n            /* \"#utility.yul\":8472:8603   */\n          tag_281\n            /* \"#utility.yul\":8598:8602   */\n          dup2\n            /* \"#utility.yul\":8472:8603   */\n          tag_180\n          jump\t// in\n        tag_281:\n            /* \"#utility.yul\":8464:8603   */\n          swap1\n          pop\n            /* \"#utility.yul\":8191:8610   */\n          swap2\n          swap1\n          pop\n          jump\t// out\n            /* \"#utility.yul\":8616:8837   */\n        tag_181:\n            /* \"#utility.yul\":8756:8790   */\n          0x45524332303a20617070726f766520746f20746865207a65726f206164647265\n            /* \"#utility.yul\":8752:8753   */\n          0x00\n            /* \"#utility.yul\":8744:8750   */\n          dup3\n            /* \"#utility.yul\":8740:8754   */\n          add\n            /* \"#utility.yul\":8733:8791   */\n          mstore\n            /* \"#utility.yul\":8825:8829   */\n          0x7373000000000000000000000000000000000000000000000000000000000000\n            /* \"#utility.yul\":8820:8822   */\n          0x20\n            /* \"#utility.yul\":8812:8818   */\n          dup3\n            /* \"#utility.yul\":8808:8823   */\n          add\n            /* \"#utility.yul\":8801:8830   */\n          mstore\n            /* \"#utility.yul\":8616:8837   */\n          pop\n          jump\t// out\n            /* \"#utility.yul\":8843:9209   */\n        tag_182:\n            /* \"#utility.yul\":8985:8988   */\n          0x00\n            /* \"#utility.yul\":9006:9073   */\n          tag_284\n            /* \"#utility.yul\":9070:9072   */\n          0x22\n            /* \"#utility.yul\":9065:9068   */\n          dup4\n            /* \"#utility.yul\":9006:9073   */\n          tag_156\n          jump\t// in\n        tag_284:\n            /* \"#utility.yul\":8999:9073   */\n          swap2\n          pop\n            /* \"#utility.yul\":9082:9175   */\n          tag_285\n            /* \"#utility.yul\":9171:9174   */\n          dup3\n            /* \"#utility.yul\":9082:9175   */\n          tag_181\n          jump\t// in\n        tag_285:\n            /* \"#utility.yul\":9200:9202   */\n          0x40\n            /* \"#utility.yul\":9195:9198   */\n          dup3\n            /* \"#utility.yul\":9191:9203   */\n          add\n            /* \"#utility.yul\":9184:9203   */\n          swap1\n          pop\n            /* \"#utility.yul\":8843:9209   */\n          swap2\n          swap1\n          pop\n          jump\t// out\n            /* \"#utility.yul\":9215:9634   */\n        tag_121:\n            /* \"#utility.yul\":9381:9385   */\n          0x00\n            /* \"#utility.yul\":9419:9421   */\n          0x20\n            /* \"#utility.yul\":9408:9417   */\n          dup3\n            /* \"#utility.yul\":9404:9422   */\n          add\n            /* \"#utility.yul\":9396:9422   */\n          swap1\n          pop\n            /* \"#utility.yul\":9468:9477   */\n          dup2\n            /* \"#utility.yul\":9462:9466   */\n          dup2\n            /* \"#utility.yul\":9458:9478   */\n          sub\n            /* \"#utility.yul\":9454:9455   */\n          0x00\n            /* \"#utility.yul\":9443:9452   */\n          dup4\n            /* \"#utility.yul\":9439:9456   */\n          add\n            /* \"#utility.yul\":9432:9479   */\n          mstore\n            /* \"#utility.yul\":9496:9627   */\n          tag_287\n            /* \"#utility.yul\":9622:9626   */\n          dup2\n            /* \"#utility.yul\":9496:9627   */\n          tag_182\n          jump\t// in\n        tag_287:\n            /* \"#utility.yul\":9488:9627   */\n          swap1\n          pop\n            /* \"#utility.yul\":9215:9634   */\n          swap2\n          swap1\n          pop\n          jump\t// out\n            /* \"#utility.yul\":9640:9819   */\n        tag_183:\n            /* \"#utility.yul\":9780:9811   */\n          0x45524332303a20696e73756666696369656e7420616c6c6f77616e6365000000\n            /* \"#utility.yul\":9776:9777   */\n          0x00\n            /* \"#utility.yul\":9768:9774   */\n          dup3\n            /* \"#utility.yul\":9764:9778   */\n          add\n            /* \"#utility.yul\":9757:9812   */\n          mstore\n            /* \"#utility.yul\":9640:9819   */\n          pop\n          jump\t// out\n            /* \"#utility.yul\":9825:10191   */\n        tag_184:\n            /* \"#utility.yul\":9967:9970   */\n          0x00\n            /* \"#utility.yul\":9988:10055   */\n          tag_290\n            /* \"#utility.yul\":10052:10054   */\n          0x1d\n            /* \"#utility.yul\":10047:10050   */\n          dup4\n            /* \"#utility.yul\":9988:10055   */\n          tag_156\n          jump\t// in\n        tag_290:\n            /* \"#utility.yul\":9981:10055   */\n          swap2\n          pop\n            /* \"#utility.yul\":10064:10157   */\n          tag_291\n            /* \"#utility.yul\":10153:10156   */\n          dup3\n            /* \"#utility.yul\":10064:10157   */\n          tag_183\n          jump\t// in\n        tag_291:\n            /* \"#utility.yul\":10182:10184   */\n          0x20\n            /* \"#utility.yul\":10177:10180   */\n          dup3\n            /* \"#utility.yul\":10173:10185   */\n          add\n            /* \"#utility.yul\":10166:10185   */\n          swap1\n          pop\n            /* \"#utility.yul\":9825:10191   */\n          swap2\n          swap1\n          pop\n          jump\t// out\n            /* \"#utility.yul\":10197:10616   */\n        tag_128:\n            /* \"#utility.yul\":10363:10367   */\n          0x00\n            /* \"#utility.yul\":10401:10403   */\n          0x20\n            /* \"#utility.yul\":10390:10399   */\n          dup3\n            /* \"#utility.yul\":10386:10404   */\n          add\n            /* \"#utility.yul\":10378:10404   */\n          swap1\n          pop\n            /* \"#utility.yul\":10450:10459   */\n          dup2\n            /* \"#utility.yul\":10444:10448   */\n          dup2\n            /* \"#utility.yul\":10440:10460   */\n          sub\n            /* \"#utility.yul\":10436:10437   */\n          0x00\n            /* \"#utility.yul\":10425:10434   */\n          dup4\n            /* \"#utility.yul\":10421:10438   */\n          add\n            /* \"#utility.yul\":10414:10461   */\n          mstore\n            /* \"#utility.yul\":10478:10609   */\n          tag_293\n            /* \"#utility.yul\":10604:10608   */\n          dup2\n            /* \"#utility.yul\":10478:10609   */\n          tag_184\n          jump\t// in\n        tag_293:\n            /* \"#utility.yul\":10470:10609   */\n          swap1\n          pop\n            /* \"#utility.yul\":10197:10616   */\n          swap2\n          swap1\n          pop\n          jump\t// out\n            /* \"#utility.yul\":10622:10846   */\n        tag_185:\n            /* \"#utility.yul\":10762:10796   */\n          0x45524332303a207472616e736665722066726f6d20746865207a65726f206164\n            /* \"#utility.yul\":10758:10759   */\n          0x00\n            /* \"#utility.yul\":10750:10756   */\n          dup3\n            /* \"#utility.yul\":10746:10760   */\n          add\n            /* \"#utility.yul\":10739:10797   */\n          mstore\n            /* \"#utility.yul\":10831:10838   */\n          0x6472657373000000000000000000000000000000000000000000000000000000\n            /* \"#utility.yul\":10826:10828   */\n          0x20\n            /* \"#utility.yul\":10818:10824   */\n          dup3\n            /* \"#utility.yul\":10814:10829   */\n          add\n            /* \"#utility.yul\":10807:10839   */\n          mstore\n            /* \"#utility.yul\":10622:10846   */\n          pop\n          jump\t// out\n            /* \"#utility.yul\":10852:11218   */\n        tag_186:\n            /* \"#utility.yul\":10994:10997   */\n          0x00\n            /* \"#utility.yul\":11015:11082   */\n          tag_296\n            /* \"#utility.yul\":11079:11081   */\n          0x25\n            /* \"#utility.yul\":11074:11077   */\n          dup4\n            /* \"#utility.yul\":11015:11082   */\n          tag_156\n          jump\t// in\n        tag_296:\n            /* \"#utility.yul\":11008:11082   */\n          swap2\n          pop\n            /* \"#utility.yul\":11091:11184   */\n          tag_297\n            /* \"#utility.yul\":11180:11183   */\n          dup3\n            /* \"#utility.yul\":11091:11184   */\n          tag_185\n          jump\t// in\n        tag_297:\n            /* \"#utility.yul\":11209:11211   */\n          0x40\n            /* \"#utility.yul\":11204:11207   */\n          dup3\n            /* \"#utility.yul\":11200:11212   */\n          add\n            /* \"#utility.yul\":11193:11212   */\n          swap1\n          pop\n            /* \"#utility.yul\":10852:11218   */\n          swap2\n          swap1\n          pop\n          jump\t// out\n            /* \"#utility.yul\":11224:11643   */\n        tag_133:\n            /* \"#utility.yul\":11390:11394   */\n          0x00\n            /* \"#utility.yul\":11428:11430   */\n          0x20\n            /* \"#utility.yul\":11417:11426   */\n          dup3\n            /* \"#utility.yul\":11413:11431   */\n          add\n            /* \"#utility.yul\":11405:11431   */\n          swap1\n          pop\n            /* \"#utility.yul\":11477:11486   */\n          dup2\n            /* \"#utility.yul\":11471:11475   */\n          dup2\n            /* \"#utility.yul\":11467:11487   */\n          sub\n            /* \"#utility.yul\":11463:11464   */\n          0x00\n            /* \"#utility.yul\":11452:11461   */\n          dup4\n            /* \"#utility.yul\":11448:11465   */\n          add\n            /* \"#utility.yul\":11441:11488   */\n          mstore\n            /* \"#utility.yul\":11505:11636   */\n          tag_299\n            /* \"#utility.yul\":11631:11635   */\n          dup2\n            /* \"#utility.yul\":11505:11636   */\n          tag_186\n          jump\t// in\n        tag_299:\n            /* \"#utility.yul\":11497:11636   */\n          swap1\n          pop\n            /* \"#utility.yul\":11224:11643   */\n          swap2\n          swap1\n          pop\n          jump\t// out\n            /* \"#utility.yul\":11649:11871   */\n        tag_187:\n            /* \"#utility.yul\":11789:11823   */\n          0x45524332303a207472616e7366657220746f20746865207a65726f2061646472\n            /* \"#utility.yul\":11785:11786   */\n          0x00\n            /* \"#utility.yul\":11777:11783   */\n          dup3\n            /* \"#utility.yul\":11773:11787   */\n          add\n            /* \"#utility.yul\":11766:11824   */\n          mstore\n            /* \"#utility.yul\":11858:11863   */\n          0x6573730000000000000000000000000000000000000000000000000000000000\n            /* \"#utility.yul\":11853:11855   */\n          0x20\n            /* \"#utility.yul\":11845:11851   */\n          dup3\n            /* \"#utility.yul\":11841:11856   */\n          add\n            /* \"#utility.yul\":11834:11864   */\n          mstore\n            /* \"#utility.yul\":11649:11871   */\n          pop\n          jump\t// out\n            /* \"#utility.yul\":11877:12243   */\n        tag_188:\n            /* \"#utility.yul\":12019:12022   */\n          0x00\n            /* \"#utility.yul\":12040:12107   */\n          tag_302\n            /* \"#utility.yul\":12104:12106   */\n          0x23\n            /* \"#utility.yul\":12099:12102   */\n          dup4\n            /* \"#utility.yul\":12040:12107   */\n          tag_156\n          jump\t// in\n        tag_302:\n            /* \"#utility.yul\":12033:12107   */\n          swap2\n          pop\n            /* \"#utility.yul\":12116:12209   */\n          tag_303\n            /* \"#utility.yul\":12205:12208   */\n          dup3\n            /* \"#utility.yul\":12116:12209   */\n          tag_187\n          jump\t// in\n        tag_303:\n            /* \"#utility.yul\":12234:12236   */\n          0x40\n            /* \"#utility.yul\":12229:12232   */\n          dup3\n            /* \"#utility.yul\":12225:12237   */\n          add\n            /* \"#utility.yul\":12218:12237   */\n          swap1\n          pop\n            /* \"#utility.yul\":11877:12243   */\n          swap2\n          swap1\n          pop\n          jump\t// out\n            /* \"#utility.yul\":12249:12668   */\n        tag_136:\n            /* \"#utility.yul\":12415:12419   */\n          0x00\n            /* \"#utility.yul\":12453:12455   */\n          0x20\n            /* \"#utility.yul\":12442:12451   */\n          dup3\n            /* \"#utility.yul\":12438:12456   */\n          add\n            /* \"#utility.yul\":12430:12456   */\n          swap1\n          pop\n            /* \"#utility.yul\":12502:12511   */\n          dup2\n            /* \"#utility.yul\":12496:12500   */\n          dup2\n            /* \"#utility.yul\":12492:12512   */\n          sub\n            /* \"#utility.yul\":12488:12489   */\n          0x00\n            /* \"#utility.yul\":12477:12486   */\n          dup4\n            /* \"#utility.yul\":12473:12490   */\n          add\n            /* \"#utility.yul\":12466:12513   */\n          mstore\n            /* \"#utility.yul\":12530:12661   */\n          tag_305\n            /* \"#utility.yul\":12656:12660   */\n          dup2\n            /* \"#utility.yul\":12530:12661   */\n          tag_188\n          jump\t// in\n        tag_305:\n            /* \"#utility.yul\":12522:12661   */\n          swap1\n          pop\n            /* \"#utility.yul\":12249:12668   */\n          swap2\n          swap1\n          pop\n          jump\t// out\n            /* \"#utility.yul\":12674:12899   */\n        tag_189:\n            /* \"#utility.yul\":12814:12848   */\n          0x45524332303a207472616e7366657220616d6f756e7420657863656564732062\n            /* \"#utility.yul\":12810:12811   */\n          0x00\n            /* \"#utility.yul\":12802:12808   */\n          dup3\n            /* \"#utility.yul\":12798:12812   */\n          add\n            /* \"#utility.yul\":12791:12849   */\n          mstore\n            /* \"#utility.yul\":12883:12891   */\n          0x616c616e63650000000000000000000000000000000000000000000000000000\n            /* \"#utility.yul\":12878:12880   */\n          0x20\n            /* \"#utility.yul\":12870:12876   */\n          dup3\n            /* \"#utility.yul\":12866:12881   */\n          add\n            /* \"#utility.yul\":12859:12892   */\n          mstore\n            /* \"#utility.yul\":12674:12899   */\n          pop\n          jump\t// out\n            /* \"#utility.yul\":12905:13271   */\n        tag_190:\n            /* \"#utility.yul\":13047:13050   */\n          0x00\n            /* \"#utility.yul\":13068:13135   */\n          tag_308\n            /* \"#utility.yul\":13132:13134   */\n          0x26\n            /* \"#utility.yul\":13127:13130   */\n          dup4\n            /* \"#utility.yul\":13068:13135   */\n          tag_156\n          jump\t// in\n        tag_308:\n            /* \"#utility.yul\":13061:13135   */\n          swap2\n          pop\n            /* \"#utility.yul\":13144:13237   */\n          tag_309\n            /* \"#utility.yul\":13233:13236   */\n          dup3\n            /* \"#utility.yul\":13144:13237   */\n          tag_189\n          jump\t// in\n        tag_309:\n            /* \"#utility.yul\":13262:13264   */\n          0x40\n            /* \"#utility.yul\":13257:13260   */\n          dup3\n            /* \"#utility.yul\":13253:13265   */\n          add\n            /* \"#utility.yul\":13246:13265   */\n          swap1\n          pop\n            /* \"#utility.yul\":12905:13271   */\n          swap2\n          swap1\n          pop\n          jump\t// out\n            /* \"#utility.yul\":13277:13696   */\n        tag_141:\n            /* \"#utility.yul\":13443:13447   */\n          0x00\n            /* \"#utility.yul\":13481:13483   */\n          0x20\n            /* \"#utility.yul\":13470:13479   */\n          dup3\n            /* \"#utility.yul\":13466:13484   */\n          add\n            /* \"#utility.yul\":13458:13484   */\n          swap1\n          pop\n            /* \"#utility.yul\":13530:13539   */\n          dup2\n            /* \"#utility.yul\":13524:13528   */\n          dup2\n            /* \"#utility.yul\":13520:13540   */\n          sub\n            /* \"#utility.yul\":13516:13517   */\n          0x00\n            /* \"#utility.yul\":13505:13514   */\n          dup4\n            /* \"#utility.yul\":13501:13518   */\n          add\n            /* \"#utility.yul\":13494:13541   */\n          mstore\n            /* \"#utility.yul\":13558:13689   */\n          tag_311\n            /* \"#utility.yul\":13684:13688   */\n          dup2\n            /* \"#utility.yul\":13558:13689   */\n          tag_190\n          jump\t// in\n        tag_311:\n            /* \"#utility.yul\":13550:13689   */\n          swap1\n          pop\n            /* \"#utility.yul\":13277:13696   */\n          swap2\n          swap1\n          pop\n          jump\t// out\n            /* \"#utility.yul\":13702:13883   */\n        tag_191:\n            /* \"#utility.yul\":13842:13875   */\n          0x45524332303a206d696e7420746f20746865207a65726f206164647265737300\n            /* \"#utility.yul\":13838:13839   */\n          0x00\n            /* \"#utility.yul\":13830:13836   */\n          dup3\n            /* \"#utility.yul\":13826:13840   */\n          add\n            /* \"#utility.yul\":13819:13876   */\n          mstore\n            /* \"#utility.yul\":13702:13883   */\n          pop\n          jump\t// out\n            /* \"#utility.yul\":13889:14255   */\n        tag_192:\n            /* \"#utility.yul\":14031:14034   */\n          0x00\n            /* \"#utility.yul\":14052:14119   */\n          tag_314\n            /* \"#utility.yul\":14116:14118   */\n          0x1f\n            /* \"#utility.yul\":14111:14114   */\n          dup4\n            /* \"#utility.yul\":14052:14119   */\n          tag_156\n          jump\t// in\n        tag_314:\n            /* \"#utility.yul\":14045:14119   */\n          swap2\n          pop\n            /* \"#utility.yul\":14128:14221   */\n          tag_315\n            /* \"#utility.yul\":14217:14220   */\n          dup3\n            /* \"#utility.yul\":14128:14221   */\n          tag_191\n          jump\t// in\n        tag_315:\n            /* \"#utility.yul\":14246:14248   */\n          0x20\n            /* \"#utility.yul\":14241:14244   */\n          dup3\n            /* \"#utility.yul\":14237:14249   */\n          add\n            /* \"#utility.yul\":14230:14249   */\n          swap1\n          pop\n            /* \"#utility.yul\":13889:14255   */\n          swap2\n          swap1\n          pop\n          jump\t// out\n            /* \"#utility.yul\":14261:14680   */\n        tag_148:\n            /* \"#utility.yul\":14427:14431   */\n          0x00\n            /* \"#utility.yul\":14465:14467   */\n          0x20\n            /* \"#utility.yul\":14454:14463   */\n          dup3\n            /* \"#utility.yul\":14450:14468   */\n          add\n            /* \"#utility.yul\":14442:14468   */\n          swap1\n          pop\n            /* \"#utility.yul\":14514:14523   */\n          dup2\n            /* \"#utility.yul\":14508:14512   */\n          dup2\n            /* \"#utility.yul\":14504:14524   */\n          sub\n            /* \"#utility.yul\":14500:14501   */\n          0x00\n            /* \"#utility.yul\":14489:14498   */\n          dup4\n            /* \"#utility.yul\":14485:14502   */\n          add\n            /* \"#utility.yul\":14478:14525   */\n          mstore\n            /* \"#utility.yul\":14542:14673   */\n          tag_317\n            /* \"#utility.yul\":14668:14672   */\n          dup2\n            /* \"#utility.yul\":14542:14673   */\n          tag_192\n          jump\t// in\n        tag_317:\n            /* \"#utility.yul\":14534:14673   */\n          swap1\n          pop\n            /* \"#utility.yul\":14261:14680   */\n          swap2\n          swap1\n          pop\n          jump\t// out\n\n        auxdata: 0xa2646970667358221220fbdbd171153a1a0346c03e34114dffe8c284a41f10cf79451de00bd829759e8e64736f6c63430008130033\n    }\n}\n",
				"bytecode": {
					"linkReferences": {},
					"object": "60806040523480156200001157600080fd5b5060006040516200002290620000d5565b6200002d9062000194565b604051809103906000f0801580156200004a573d6000803e3d6000fd5b509050806000806101000a81548173ffffffffffffffffffffffffffffffffffffffff021916908373ffffffffffffffffffffffffffffffffffffffff16021790555033600360006101000a81548173ffffffffffffffffffffffffffffffffffffffff021916908373ffffffffffffffffffffffffffffffffffffffff16021790555050620001cb565b6119e38062000f1d83390190565b600082825260208201905092915050565b7f42656173742047656d0000000000000000000000000000000000000000000000600082015250565b60006200012c600983620000e3565b91506200013982620000f4565b602082019050919050565b7f42474d0000000000000000000000000000000000000000000000000000000000600082015250565b60006200017c600383620000e3565b9150620001898262000144565b602082019050919050565b60006040820190508181036000830152620001af816200011d565b90508181036020830152620001c4816200016d565b9050919050565b610d4280620001db6000396000f3fe6080604052600436106100705760003560e01c806359296e7b1161004e57806359296e7b146101045780636cba62901461010e5780638b099b2314610139578063a9059cbb1461017657610070565b80630bff0bcf1461007557806323b872dd1461009e578063584a0927146100c7575b600080fd5b34801561008157600080fd5b5061009c6004803603810190610097919061088c565b6101b3565b005b3480156100aa57600080fd5b506100c560048036038101906100c091906108cc565b610256565b005b3480156100d357600080fd5b506100ee60048036038101906100e9919061091f565b6103d9565b6040516100fb919061095b565b60405180910390f35b61010c61047d565b005b34801561011a57600080fd5b50610123610601565b604051610130919061095b565b60405180910390f35b34801561014557600080fd5b50610160600480360381019061015b9190610976565b6106a3565b60405161016d919061095b565b60405180910390f35b34801561018257600080fd5b5061019d6004803603810190610198919061088c565b61074a565b6040516101aa91906109d1565b60405180910390f35b60008054906101000a900473ffffffffffffffffffffffffffffffffffffffff1673ffffffffffffffffffffffffffffffffffffffff1663095ea7b383836040518363ffffffff1660e01b815260040161020e9291906109fb565b6020604051808303816000875af115801561022d573d6000803e3d6000fd5b505050506040513d601f19601f820116820180604052508101906102519190610a50565b505050565b8060008054906101000a900473ffffffffffffffffffffffffffffffffffffffff1673ffffffffffffffffffffffffffffffffffffffff1663dd62ed3e85336040518363ffffffff1660e01b81526004016102b2929190610a7d565b602060405180830381865afa1580156102cf573d6000803e3d6000fd5b505050506040513d601f19601f820116820180604052508101906102f39190610abb565b11610333576040517f08c379a000000000000000000000000000000000000000000000000000000000815260040161032a90610b6b565b60405180910390fd5b60008054906101000a900473ffffffffffffffffffffffffffffffffffffffff1673ffffffffffffffffffffffffffffffffffffffff166323b872dd8484846040518463ffffffff1660e01b815260040161039093929190610b8b565b6020604051808303816000875af11580156103af573d6000803e3d6000fd5b505050506040513d601f19601f820116820180604052508101906103d39190610a50565b50505050565b60008060009054906101000a900473ffffffffffffffffffffffffffffffffffffffff1673ffffffffffffffffffffffffffffffffffffffff166370a08231836040518263ffffffff1660e01b81526004016104359190610bc2565b602060405180830381865afa158015610452573d6000803e3d6000fd5b505050506040513d601f19601f820116820180604052508101906104769190610abb565b9050919050565b600066038d7ea4c68000346104929190610c3b565b90506001548160008054906101000a900473ffffffffffffffffffffffffffffffffffffffff1673ffffffffffffffffffffffffffffffffffffffff166318160ddd6040518163ffffffff1660e01b8152600401602060405180830381865afa158015610503573d6000803e3d6000fd5b505050506040513d601f19601f820116820180604052508101906105279190610abb565b6105319190610c6c565b10610571576040517f08c379a000000000000000000000000000000000000000000000000000000000815260040161056890610cec565b60405180910390fd5b60008054906101000a900473ffffffffffffffffffffffffffffffffffffffff1673ffffffffffffffffffffffffffffffffffffffff166340c10f1933836040518363ffffffff1660e01b81526004016105cc9291906109fb565b600060405180830381600087803b1580156105e657600080fd5b505af11580156105fa573d6000803e3d6000fd5b5050505050565b60008060009054906101000a900473ffffffffffffffffffffffffffffffffffffffff1673ffffffffffffffffffffffffffffffffffffffff166370a08231336040518263ffffffff1660e01b815260040161065d9190610bc2565b602060405180830381865afa15801561067a573d6000803e3d6000fd5b505050506040513d601f19601f8201168201806040525081019061069e9190610abb565b905090565b60008060009054906101000a900473ffffffffffffffffffffffffffffffffffffffff1673ffffffffffffffffffffffffffffffffffffffff1663dd62ed3e84846040518363ffffffff1660e01b8152600401610701929190610a7d565b602060405180830381865afa15801561071e573d6000803e3d6000fd5b505050506040513d601f19601f820116820180604052508101906107429190610abb565b905092915050565b60008060009054906101000a900473ffffffffffffffffffffffffffffffffffffffff1673ffffffffffffffffffffffffffffffffffffffff1663a9059cbb84846040518363ffffffff1660e01b81526004016107a89291906109fb565b6020604051808303816000875af11580156107c7573d6000803e3d6000fd5b505050506040513d601f19601f820116820180604052508101906107eb9190610a50565b905092915050565b600080fd5b600073ffffffffffffffffffffffffffffffffffffffff82169050919050565b6000610823826107f8565b9050919050565b61083381610818565b811461083e57600080fd5b50565b6000813590506108508161082a565b92915050565b6000819050919050565b61086981610856565b811461087457600080fd5b50565b60008135905061088681610860565b92915050565b600080604083850312156108a3576108a26107f3565b5b60006108b185828601610841565b92505060206108c285828601610877565b9150509250929050565b6000806000606084860312156108e5576108e46107f3565b5b60006108f386828701610841565b935050602061090486828701610841565b925050604061091586828701610877565b9150509250925092565b600060208284031215610935576109346107f3565b5b600061094384828501610841565b91505092915050565b61095581610856565b82525050565b6000602082019050610970600083018461094c565b92915050565b6000806040838503121561098d5761098c6107f3565b5b600061099b85828601610841565b92505060206109ac85828601610841565b9150509250929050565b60008115159050919050565b6109cb816109b6565b82525050565b60006020820190506109e660008301846109c2565b92915050565b6109f581610818565b82525050565b6000604082019050610a1060008301856109ec565b610a1d602083018461094c565b9392505050565b610a2d816109b6565b8114610a3857600080fd5b50565b600081519050610a4a81610a24565b92915050565b600060208284031215610a6657610a656107f3565b5b6000610a7484828501610a3b565b91505092915050565b6000604082019050610a9260008301856109ec565b610a9f60208301846109ec565b9392505050565b600081519050610ab581610860565b92915050565b600060208284031215610ad157610ad06107f3565b5b6000610adf84828501610aa6565b91505092915050565b600082825260208201905092915050565b7f5761726e696e673a20596f7520617265206e6f7420616c6c6f77656420746f2060008201527f7472616e73666572210000000000000000000000000000000000000000000000602082015250565b6000610b55602983610ae8565b9150610b6082610af9565b604082019050919050565b60006020820190508181036000830152610b8481610b48565b9050919050565b6000606082019050610ba060008301866109ec565b610bad60208301856109ec565b610bba604083018461094c565b949350505050565b6000602082019050610bd760008301846109ec565b92915050565b7f4e487b7100000000000000000000000000000000000000000000000000000000600052601260045260246000fd5b7f4e487b7100000000000000000000000000000000000000000000000000000000600052601160045260246000fd5b6000610c4682610856565b9150610c5183610856565b925082610c6157610c60610bdd565b5b828204905092915050565b6000610c7782610856565b9150610c8283610856565b9250828201905080821115610c9a57610c99610c0c565b5b92915050565b7f5761726e696e673a20496e73756666696369656e742047656d73210000000000600082015250565b6000610cd6601b83610ae8565b9150610ce182610ca0565b602082019050919050565b60006020820190508181036000830152610d0581610cc9565b905091905056fea264697066735822122050b8f6eecfedade626e06eb67dfde40aa8471a17355df2340a9f754a1bbc62ef64736f6c6343000813003360806040523480156200001157600080fd5b50604051620019e3380380620019e38339818101604052810190620000379190620001f6565b8160039081620000489190620004c6565b5080600490816200005a9190620004c6565b505050620005ad565b6000604051905090565b600080fd5b600080fd5b600080fd5b600080fd5b6000601f19601f8301169050919050565b7f4e487b7100000000000000000000000000000000000000000000000000000000600052604160045260246000fd5b620000cc8262000081565b810181811067ffffffffffffffff82111715620000ee57620000ed62000092565b5b80604052505050565b60006200010362000063565b9050620001118282620000c1565b919050565b600067ffffffffffffffff82111562000134576200013362000092565b5b6200013f8262000081565b9050602081019050919050565b60005b838110156200016c5780820151818401526020810190506200014f565b60008484015250505050565b60006200018f620001898462000116565b620000f7565b905082815260208101848484011115620001ae57620001ad6200007c565b5b620001bb8482856200014c565b509392505050565b600082601f830112620001db57620001da62000077565b5b8151620001ed84826020860162000178565b91505092915050565b6000806040838503121562000210576200020f6200006d565b5b600083015167ffffffffffffffff81111562000231576200023062000072565b5b6200023f85828601620001c3565b925050602083015167ffffffffffffffff81111562000263576200026262000072565b5b6200027185828601620001c3565b9150509250929050565b600081519050919050565b7f4e487b7100000000000000000000000000000000000000000000000000000000600052602260045260246000fd5b60006002820490506001821680620002ce57607f821691505b602082108103620002e457620002e362000286565b5b50919050565b60008190508160005260206000209050919050565b60006020601f8301049050919050565b600082821b905092915050565b6000600883026200034e7fffffffffffffffffffffffffffffffffffffffffffffffffffffffffffffffff826200030f565b6200035a86836200030f565b95508019841693508086168417925050509392505050565b6000819050919050565b6000819050919050565b6000620003a7620003a16200039b8462000372565b6200037c565b62000372565b9050919050565b6000819050919050565b620003c38362000386565b620003db620003d282620003ae565b8484546200031c565b825550505050565b600090565b620003f2620003e3565b620003ff818484620003b8565b505050565b5b8181101562000427576200041b600082620003e8565b60018101905062000405565b5050565b601f82111562000476576200044081620002ea565b6200044b84620002ff565b810160208510156200045b578190505b620004736200046a85620002ff565b83018262000404565b50505b505050565b600082821c905092915050565b60006200049b600019846008026200047b565b1980831691505092915050565b6000620004b6838362000488565b9150826002028217905092915050565b620004d1826200027b565b67ffffffffffffffff811115620004ed57620004ec62000092565b5b620004f98254620002b5565b620005068282856200042b565b600060209050601f8311600181146200053e576000841562000529578287015190505b620005358582620004a8565b865550620005a5565b601f1984166200054e86620002ea565b60005b82811015620005785784890151825560018201915060208501945060208101905062000551565b8683101562000598578489015162000594601f89168262000488565b8355505b6001600288020188555050505b505050505050565b61142680620005bd6000396000f3fe608060405234801561001057600080fd5b50600436106100b45760003560e01c806340c10f191161007157806340c10f19146101a357806370a08231146101bf57806395d89b41146101ef578063a457c2d71461020d578063a9059cbb1461023d578063dd62ed3e1461026d576100b4565b806306fdde03146100b9578063095ea7b3146100d757806318160ddd1461010757806323b872dd14610125578063313ce567146101555780633950935114610173575b600080fd5b6100c161029d565b6040516100ce9190610c97565b60405180910390f35b6100f160048036038101906100ec9190610d52565b61032f565b6040516100fe9190610dad565b60405180910390f35b61010f610352565b60405161011c9190610dd7565b60405180910390f35b61013f600480360381019061013a9190610df2565b61035c565b60405161014c9190610dad565b60405180910390f35b61015d61038b565b60405161016a9190610e61565b60405180910390f35b61018d60048036038101906101889190610d52565b610394565b60405161019a9190610dad565b60405180910390f35b6101bd60048036038101906101b89190610d52565b6103cb565b005b6101d960048036038101906101d49190610e7c565b6103d9565b6040516101e69190610dd7565b60405180910390f35b6101f7610421565b6040516102049190610c97565b60405180910390f35b61022760048036038101906102229190610d52565b6104b3565b6040516102349190610dad565b60405180910390f35b61025760048036038101906102529190610d52565b61052a565b6040516102649190610dad565b60405180910390f35b61028760048036038101906102829190610ea9565b61054d565b6040516102949190610dd7565b60405180910390f35b6060600380546102ac90610f18565b80601f01602080910402602001604051908101604052809291908181526020018280546102d890610f18565b80156103255780601f106102fa57610100808354040283529160200191610325565b820191906000526020600020905b81548152906001019060200180831161030857829003601f168201915b5050505050905090565b60008061033a6105d4565b90506103478185856105dc565b600191505092915050565b6000600254905090565b6000806103676105d4565b90506103748582856107a5565b61037f858585610831565b60019150509392505050565b60006012905090565b60008061039f6105d4565b90506103c08185856103b1858961054d565b6103bb9190610f78565b6105dc565b600191505092915050565b6103d58282610aa7565b5050565b60008060008373ffffffffffffffffffffffffffffffffffffffff1673ffffffffffffffffffffffffffffffffffffffff168152602001908152602001600020549050919050565b60606004805461043090610f18565b80601f016020809104026020016040519081016040528092919081815260200182805461045c90610f18565b80156104a95780601f1061047e576101008083540402835291602001916104a9565b820191906000526020600020905b81548152906001019060200180831161048c57829003601f168201915b5050505050905090565b6000806104be6105d4565b905060006104cc828661054d565b905083811015610511576040517f08c379a00000000000000000000000000000000000000000000000000000000081526004016105089061101e565b60405180910390fd5b61051e82868684036105dc565b60019250505092915050565b6000806105356105d4565b9050610542818585610831565b600191505092915050565b6000600160008473ffffffffffffffffffffffffffffffffffffffff1673ffffffffffffffffffffffffffffffffffffffff16815260200190815260200160002060008373ffffffffffffffffffffffffffffffffffffffff1673ffffffffffffffffffffffffffffffffffffffff16815260200190815260200160002054905092915050565b600033905090565b600073ffffffffffffffffffffffffffffffffffffffff168373ffffffffffffffffffffffffffffffffffffffff160361064b576040517f08c379a0000000000000000000000000000000000000000000000000000000008152600401610642906110b0565b60405180910390fd5b600073ffffffffffffffffffffffffffffffffffffffff168273ffffffffffffffffffffffffffffffffffffffff16036106ba576040517f08c379a00000000000000000000000000000000000000000000000000000000081526004016106b190611142565b60405180910390fd5b80600160008573ffffffffffffffffffffffffffffffffffffffff1673ffffffffffffffffffffffffffffffffffffffff16815260200190815260200160002060008473ffffffffffffffffffffffffffffffffffffffff1673ffffffffffffffffffffffffffffffffffffffff168152602001908152602001600020819055508173ffffffffffffffffffffffffffffffffffffffff168373ffffffffffffffffffffffffffffffffffffffff167f8c5be1e5ebec7d5bd14f71427d1e84f3dd0314c0f7b2291e5b200ac8c7c3b925836040516107989190610dd7565b60405180910390a3505050565b60006107b1848461054d565b90507fffffffffffffffffffffffffffffffffffffffffffffffffffffffffffffffff811461082b578181101561081d576040517f08c379a0000000000000000000000000000000000000000000000000000000008152600401610814906111ae565b60405180910390fd5b61082a84848484036105dc565b5b50505050565b600073ffffffffffffffffffffffffffffffffffffffff168373ffffffffffffffffffffffffffffffffffffffff16036108a0576040517f08c379a000000000000000000000000000000000000000000000000000000000815260040161089790611240565b60405180910390fd5b600073ffffffffffffffffffffffffffffffffffffffff168273ffffffffffffffffffffffffffffffffffffffff160361090f576040517f08c379a0000000000000000000000000000000000000000000000000000000008152600401610906906112d2565b60405180910390fd5b61091a838383610bfd565b60008060008573ffffffffffffffffffffffffffffffffffffffff1673ffffffffffffffffffffffffffffffffffffffff168152602001908152602001600020549050818110156109a0576040517f08c379a000000000000000000000000000000000000000000000000000000000815260040161099790611364565b60405180910390fd5b8181036000808673ffffffffffffffffffffffffffffffffffffffff1673ffffffffffffffffffffffffffffffffffffffff16815260200190815260200160002081905550816000808573ffffffffffffffffffffffffffffffffffffffff1673ffffffffffffffffffffffffffffffffffffffff168152602001908152602001600020600082825401925050819055508273ffffffffffffffffffffffffffffffffffffffff168473ffffffffffffffffffffffffffffffffffffffff167fddf252ad1be2c89b69c2b068fc378daa952ba7f163c4a11628f55a4df523b3ef84604051610a8e9190610dd7565b60405180910390a3610aa1848484610c02565b50505050565b600073ffffffffffffffffffffffffffffffffffffffff168273ffffffffffffffffffffffffffffffffffffffff1603610b16576040517f08c379a0000000000000000000000000000000000000000000000000000000008152600401610b0d906113d0565b60405180910390fd5b610b2260008383610bfd565b8060026000828254610b349190610f78565b92505081905550806000808473ffffffffffffffffffffffffffffffffffffffff1673ffffffffffffffffffffffffffffffffffffffff168152602001908152602001600020600082825401925050819055508173ffffffffffffffffffffffffffffffffffffffff16600073ffffffffffffffffffffffffffffffffffffffff167fddf252ad1be2c89b69c2b068fc378daa952ba7f163c4a11628f55a4df523b3ef83604051610be59190610dd7565b60405180910390a3610bf960008383610c02565b5050565b505050565b505050565b600081519050919050565b600082825260208201905092915050565b60005b83811015610c41578082015181840152602081019050610c26565b60008484015250505050565b6000601f19601f8301169050919050565b6000610c6982610c07565b610c738185610c12565b9350610c83818560208601610c23565b610c8c81610c4d565b840191505092915050565b60006020820190508181036000830152610cb18184610c5e565b905092915050565b600080fd5b600073ffffffffffffffffffffffffffffffffffffffff82169050919050565b6000610ce982610cbe565b9050919050565b610cf981610cde565b8114610d0457600080fd5b50565b600081359050610d1681610cf0565b92915050565b6000819050919050565b610d2f81610d1c565b8114610d3a57600080fd5b50565b600081359050610d4c81610d26565b92915050565b60008060408385031215610d6957610d68610cb9565b5b6000610d7785828601610d07565b9250506020610d8885828601610d3d565b9150509250929050565b60008115159050919050565b610da781610d92565b82525050565b6000602082019050610dc26000830184610d9e565b92915050565b610dd181610d1c565b82525050565b6000602082019050610dec6000830184610dc8565b92915050565b600080600060608486031215610e0b57610e0a610cb9565b5b6000610e1986828701610d07565b9350506020610e2a86828701610d07565b9250506040610e3b86828701610d3d565b9150509250925092565b600060ff82169050919050565b610e5b81610e45565b82525050565b6000602082019050610e766000830184610e52565b92915050565b600060208284031215610e9257610e91610cb9565b5b6000610ea084828501610d07565b91505092915050565b60008060408385031215610ec057610ebf610cb9565b5b6000610ece85828601610d07565b9250506020610edf85828601610d07565b9150509250929050565b7f4e487b7100000000000000000000000000000000000000000000000000000000600052602260045260246000fd5b60006002820490506001821680610f3057607f821691505b602082108103610f4357610f42610ee9565b5b50919050565b7f4e487b7100000000000000000000000000000000000000000000000000000000600052601160045260246000fd5b6000610f8382610d1c565b9150610f8e83610d1c565b9250828201905080821115610fa657610fa5610f49565b5b92915050565b7f45524332303a2064656372656173656420616c6c6f77616e63652062656c6f7760008201527f207a65726f000000000000000000000000000000000000000000000000000000602082015250565b6000611008602583610c12565b915061101382610fac565b604082019050919050565b6000602082019050818103600083015261103781610ffb565b9050919050565b7f45524332303a20617070726f76652066726f6d20746865207a65726f2061646460008201527f7265737300000000000000000000000000000000000000000000000000000000602082015250565b600061109a602483610c12565b91506110a58261103e565b604082019050919050565b600060208201905081810360008301526110c98161108d565b9050919050565b7f45524332303a20617070726f766520746f20746865207a65726f20616464726560008201527f7373000000000000000000000000000000000000000000000000000000000000602082015250565b600061112c602283610c12565b9150611137826110d0565b604082019050919050565b6000602082019050818103600083015261115b8161111f565b9050919050565b7f45524332303a20696e73756666696369656e7420616c6c6f77616e6365000000600082015250565b6000611198601d83610c12565b91506111a382611162565b602082019050919050565b600060208201905081810360008301526111c78161118b565b9050919050565b7f45524332303a207472616e736665722066726f6d20746865207a65726f20616460008201527f6472657373000000000000000000000000000000000000000000000000000000602082015250565b600061122a602583610c12565b9150611235826111ce565b604082019050919050565b600060208201905081810360008301526112598161121d565b9050919050565b7f45524332303a207472616e7366657220746f20746865207a65726f206164647260008201527f6573730000000000000000000000000000000000000000000000000000000000602082015250565b60006112bc602383610c12565b91506112c782611260565b604082019050919050565b600060208201905081810360008301526112eb816112af565b9050919050565b7f45524332303a207472616e7366657220616d6f756e742065786365656473206260008201527f616c616e63650000000000000000000000000000000000000000000000000000602082015250565b600061134e602683610c12565b9150611359826112f2565b604082019050919050565b6000602082019050818103600083015261137d81611341565b9050919050565b7f45524332303a206d696e7420746f20746865207a65726f206164647265737300600082015250565b60006113ba601f83610c12565b91506113c582611384565b602082019050919050565b600060208201905081810360008301526113e9816113ad565b905091905056fea2646970667358221220fbdbd171153a1a0346c03e34114dffe8c284a41f10cf79451de00bd829759e8e64736f6c63430008130033",
					"opcodes": "PUSH1 0x80 PUSH1 0x40 MSTORE CALLVALUE DUP1 ISZERO PUSH3 0x11 JUMPI PUSH1 0x0 DUP1 REVERT JUMPDEST POP PUSH1 0x0 PUSH1 0x40 MLOAD PUSH3 0x22 SWAP1 PUSH3 0xD5 JUMP JUMPDEST PUSH3 0x2D SWAP1 PUSH3 0x194 JUMP JUMPDEST PUSH1 0x40 MLOAD DUP1 SWAP2 SUB SWAP1 PUSH1 0x0 CREATE DUP1 ISZERO DUP1 ISZERO PUSH3 0x4A JUMPI RETURNDATASIZE PUSH1 0x0 DUP1 RETURNDATACOPY RETURNDATASIZE PUSH1 0x0 REVERT JUMPDEST POP SWAP1 POP DUP1 PUSH1 0x0 DUP1 PUSH2 0x100 EXP DUP2 SLOAD DUP2 PUSH20 0xFFFFFFFFFFFFFFFFFFFFFFFFFFFFFFFFFFFFFFFF MUL NOT AND SWAP1 DUP4 PUSH20 0xFFFFFFFFFFFFFFFFFFFFFFFFFFFFFFFFFFFFFFFF AND MUL OR SWAP1 SSTORE POP CALLER PUSH1 0x3 PUSH1 0x0 PUSH2 0x100 EXP DUP2 SLOAD DUP2 PUSH20 0xFFFFFFFFFFFFFFFFFFFFFFFFFFFFFFFFFFFFFFFF MUL NOT AND SWAP1 DUP4 PUSH20 0xFFFFFFFFFFFFFFFFFFFFFFFFFFFFFFFFFFFFFFFF AND MUL OR SWAP1 SSTORE POP POP PUSH3 0x1CB JUMP JUMPDEST PUSH2 0x19E3 DUP1 PUSH3 0xF1D DUP4 CODECOPY ADD SWAP1 JUMP JUMPDEST PUSH1 0x0 DUP3 DUP3 MSTORE PUSH1 0x20 DUP3 ADD SWAP1 POP SWAP3 SWAP2 POP POP JUMP JUMPDEST PUSH32 0x42656173742047656D0000000000000000000000000000000000000000000000 PUSH1 0x0 DUP3 ADD MSTORE POP JUMP JUMPDEST PUSH1 0x0 PUSH3 0x12C PUSH1 0x9 DUP4 PUSH3 0xE3 JUMP JUMPDEST SWAP2 POP PUSH3 0x139 DUP3 PUSH3 0xF4 JUMP JUMPDEST PUSH1 0x20 DUP3 ADD SWAP1 POP SWAP2 SWAP1 POP JUMP JUMPDEST PUSH32 0x42474D0000000000000000000000000000000000000000000000000000000000 PUSH1 0x0 DUP3 ADD MSTORE POP JUMP JUMPDEST PUSH1 0x0 PUSH3 0x17C PUSH1 0x3 DUP4 PUSH3 0xE3 JUMP JUMPDEST SWAP2 POP PUSH3 0x189 DUP3 PUSH3 0x144 JUMP JUMPDEST PUSH1 0x20 DUP3 ADD SWAP1 POP SWAP2 SWAP1 POP JUMP JUMPDEST PUSH1 0x0 PUSH1 0x40 DUP3 ADD SWAP1 POP DUP2 DUP2 SUB PUSH1 0x0 DUP4 ADD MSTORE PUSH3 0x1AF DUP2 PUSH3 0x11D JUMP JUMPDEST SWAP1 POP DUP2 DUP2 SUB PUSH1 0x20 DUP4 ADD MSTORE PUSH3 0x1C4 DUP2 PUSH3 0x16D JUMP JUMPDEST SWAP1 POP SWAP2 SWAP1 POP JUMP JUMPDEST PUSH2 0xD42 DUP1 PUSH3 0x1DB PUSH1 0x0 CODECOPY PUSH1 0x0 RETURN INVALID PUSH1 0x80 PUSH1 0x40 MSTORE PUSH1 0x4 CALLDATASIZE LT PUSH2 0x70 JUMPI PUSH1 0x0 CALLDATALOAD PUSH1 0xE0 SHR DUP1 PUSH4 0x59296E7B GT PUSH2 0x4E JUMPI DUP1 PUSH4 0x59296E7B EQ PUSH2 0x104 JUMPI DUP1 PUSH4 0x6CBA6290 EQ PUSH2 0x10E JUMPI DUP1 PUSH4 0x8B099B23 EQ PUSH2 0x139 JUMPI DUP1 PUSH4 0xA9059CBB EQ PUSH2 0x176 JUMPI PUSH2 0x70 JUMP JUMPDEST DUP1 PUSH4 0xBFF0BCF EQ PUSH2 0x75 JUMPI DUP1 PUSH4 0x23B872DD EQ PUSH2 0x9E JUMPI DUP1 PUSH4 0x584A0927 EQ PUSH2 0xC7 JUMPI JUMPDEST PUSH1 0x0 DUP1 REVERT JUMPDEST CALLVALUE DUP1 ISZERO PUSH2 0x81 JUMPI PUSH1 0x0 DUP1 REVERT JUMPDEST POP PUSH2 0x9C PUSH1 0x4 DUP1 CALLDATASIZE SUB DUP2 ADD SWAP1 PUSH2 0x97 SWAP2 SWAP1 PUSH2 0x88C JUMP JUMPDEST PUSH2 0x1B3 JUMP JUMPDEST STOP JUMPDEST CALLVALUE DUP1 ISZERO PUSH2 0xAA JUMPI PUSH1 0x0 DUP1 REVERT JUMPDEST POP PUSH2 0xC5 PUSH1 0x4 DUP1 CALLDATASIZE SUB DUP2 ADD SWAP1 PUSH2 0xC0 SWAP2 SWAP1 PUSH2 0x8CC JUMP JUMPDEST PUSH2 0x256 JUMP JUMPDEST STOP JUMPDEST CALLVALUE DUP1 ISZERO PUSH2 0xD3 JUMPI PUSH1 0x0 DUP1 REVERT JUMPDEST POP PUSH2 0xEE PUSH1 0x4 DUP1 CALLDATASIZE SUB DUP2 ADD SWAP1 PUSH2 0xE9 SWAP2 SWAP1 PUSH2 0x91F JUMP JUMPDEST PUSH2 0x3D9 JUMP JUMPDEST PUSH1 0x40 MLOAD PUSH2 0xFB SWAP2 SWAP1 PUSH2 0x95B JUMP JUMPDEST PUSH1 0x40 MLOAD DUP1 SWAP2 SUB SWAP1 RETURN JUMPDEST PUSH2 0x10C PUSH2 0x47D JUMP JUMPDEST STOP JUMPDEST CALLVALUE DUP1 ISZERO PUSH2 0x11A JUMPI PUSH1 0x0 DUP1 REVERT JUMPDEST POP PUSH2 0x123 PUSH2 0x601 JUMP JUMPDEST PUSH1 0x40 MLOAD PUSH2 0x130 SWAP2 SWAP1 PUSH2 0x95B JUMP JUMPDEST PUSH1 0x40 MLOAD DUP1 SWAP2 SUB SWAP1 RETURN JUMPDEST CALLVALUE DUP1 ISZERO PUSH2 0x145 JUMPI PUSH1 0x0 DUP1 REVERT JUMPDEST POP PUSH2 0x160 PUSH1 0x4 DUP1 CALLDATASIZE SUB DUP2 ADD SWAP1 PUSH2 0x15B SWAP2 SWAP1 PUSH2 0x976 JUMP JUMPDEST PUSH2 0x6A3 JUMP JUMPDEST PUSH1 0x40 MLOAD PUSH2 0x16D SWAP2 SWAP1 PUSH2 0x95B JUMP JUMPDEST PUSH1 0x40 MLOAD DUP1 SWAP2 SUB SWAP1 RETURN JUMPDEST CALLVALUE DUP1 ISZERO PUSH2 0x182 JUMPI PUSH1 0x0 DUP1 REVERT JUMPDEST POP PUSH2 0x19D PUSH1 0x4 DUP1 CALLDATASIZE SUB DUP2 ADD SWAP1 PUSH2 0x198 SWAP2 SWAP1 PUSH2 0x88C JUMP JUMPDEST PUSH2 0x74A JUMP JUMPDEST PUSH1 0x40 MLOAD PUSH2 0x1AA SWAP2 SWAP1 PUSH2 0x9D1 JUMP JUMPDEST PUSH1 0x40 MLOAD DUP1 SWAP2 SUB SWAP1 RETURN JUMPDEST PUSH1 0x0 DUP1 SLOAD SWAP1 PUSH2 0x100 EXP SWAP1 DIV PUSH20 0xFFFFFFFFFFFFFFFFFFFFFFFFFFFFFFFFFFFFFFFF AND PUSH20 0xFFFFFFFFFFFFFFFFFFFFFFFFFFFFFFFFFFFFFFFF AND PUSH4 0x95EA7B3 DUP4 DUP4 PUSH1 0x40 MLOAD DUP4 PUSH4 0xFFFFFFFF AND PUSH1 0xE0 SHL DUP2 MSTORE PUSH1 0x4 ADD PUSH2 0x20E SWAP3 SWAP2 SWAP1 PUSH2 0x9FB JUMP JUMPDEST PUSH1 0x20 PUSH1 0x40 MLOAD DUP1 DUP4 SUB DUP2 PUSH1 0x0 DUP8 GAS CALL ISZERO DUP1 ISZERO PUSH2 0x22D JUMPI RETURNDATASIZE PUSH1 0x0 DUP1 RETURNDATACOPY RETURNDATASIZE PUSH1 0x0 REVERT JUMPDEST POP POP POP POP PUSH1 0x40 MLOAD RETURNDATASIZE PUSH1 0x1F NOT PUSH1 0x1F DUP3 ADD AND DUP3 ADD DUP1 PUSH1 0x40 MSTORE POP DUP2 ADD SWAP1 PUSH2 0x251 SWAP2 SWAP1 PUSH2 0xA50 JUMP JUMPDEST POP POP POP JUMP JUMPDEST DUP1 PUSH1 0x0 DUP1 SLOAD SWAP1 PUSH2 0x100 EXP SWAP1 DIV PUSH20 0xFFFFFFFFFFFFFFFFFFFFFFFFFFFFFFFFFFFFFFFF AND PUSH20 0xFFFFFFFFFFFFFFFFFFFFFFFFFFFFFFFFFFFFFFFF AND PUSH4 0xDD62ED3E DUP6 CALLER PUSH1 0x40 MLOAD DUP4 PUSH4 0xFFFFFFFF AND PUSH1 0xE0 SHL DUP2 MSTORE PUSH1 0x4 ADD PUSH2 0x2B2 SWAP3 SWAP2 SWAP1 PUSH2 0xA7D JUMP JUMPDEST PUSH1 0x20 PUSH1 0x40 MLOAD DUP1 DUP4 SUB DUP2 DUP7 GAS STATICCALL ISZERO DUP1 ISZERO PUSH2 0x2CF JUMPI RETURNDATASIZE PUSH1 0x0 DUP1 RETURNDATACOPY RETURNDATASIZE PUSH1 0x0 REVERT JUMPDEST POP POP POP POP PUSH1 0x40 MLOAD RETURNDATASIZE PUSH1 0x1F NOT PUSH1 0x1F DUP3 ADD AND DUP3 ADD DUP1 PUSH1 0x40 MSTORE POP DUP2 ADD SWAP1 PUSH2 0x2F3 SWAP2 SWAP1 PUSH2 0xABB JUMP JUMPDEST GT PUSH2 0x333 JUMPI PUSH1 0x40 MLOAD PUSH32 0x8C379A000000000000000000000000000000000000000000000000000000000 DUP2 MSTORE PUSH1 0x4 ADD PUSH2 0x32A SWAP1 PUSH2 0xB6B JUMP JUMPDEST PUSH1 0x40 MLOAD DUP1 SWAP2 SUB SWAP1 REVERT JUMPDEST PUSH1 0x0 DUP1 SLOAD SWAP1 PUSH2 0x100 EXP SWAP1 DIV PUSH20 0xFFFFFFFFFFFFFFFFFFFFFFFFFFFFFFFFFFFFFFFF AND PUSH20 0xFFFFFFFFFFFFFFFFFFFFFFFFFFFFFFFFFFFFFFFF AND PUSH4 0x23B872DD DUP5 DUP5 DUP5 PUSH1 0x40 MLOAD DUP5 PUSH4 0xFFFFFFFF AND PUSH1 0xE0 SHL DUP2 MSTORE PUSH1 0x4 ADD PUSH2 0x390 SWAP4 SWAP3 SWAP2 SWAP1 PUSH2 0xB8B JUMP JUMPDEST PUSH1 0x20 PUSH1 0x40 MLOAD DUP1 DUP4 SUB DUP2 PUSH1 0x0 DUP8 GAS CALL ISZERO DUP1 ISZERO PUSH2 0x3AF JUMPI RETURNDATASIZE PUSH1 0x0 DUP1 RETURNDATACOPY RETURNDATASIZE PUSH1 0x0 REVERT JUMPDEST POP POP POP POP PUSH1 0x40 MLOAD RETURNDATASIZE PUSH1 0x1F NOT PUSH1 0x1F DUP3 ADD AND DUP3 ADD DUP1 PUSH1 0x40 MSTORE POP DUP2 ADD SWAP1 PUSH2 0x3D3 SWAP2 SWAP1 PUSH2 0xA50 JUMP JUMPDEST POP POP POP POP JUMP JUMPDEST PUSH1 0x0 DUP1 PUSH1 0x0 SWAP1 SLOAD SWAP1 PUSH2 0x100 EXP SWAP1 DIV PUSH20 0xFFFFFFFFFFFFFFFFFFFFFFFFFFFFFFFFFFFFFFFF AND PUSH20 0xFFFFFFFFFFFFFFFFFFFFFFFFFFFFFFFFFFFFFFFF AND PUSH4 0x70A08231 DUP4 PUSH1 0x40 MLOAD DUP3 PUSH4 0xFFFFFFFF AND PUSH1 0xE0 SHL DUP2 MSTORE PUSH1 0x4 ADD PUSH2 0x435 SWAP2 SWAP1 PUSH2 0xBC2 JUMP JUMPDEST PUSH1 0x20 PUSH1 0x40 MLOAD DUP1 DUP4 SUB DUP2 DUP7 GAS STATICCALL ISZERO DUP1 ISZERO PUSH2 0x452 JUMPI RETURNDATASIZE PUSH1 0x0 DUP1 RETURNDATACOPY RETURNDATASIZE PUSH1 0x0 REVERT JUMPDEST POP POP POP POP PUSH1 0x40 MLOAD RETURNDATASIZE PUSH1 0x1F NOT PUSH1 0x1F DUP3 ADD AND DUP3 ADD DUP1 PUSH1 0x40 MSTORE POP DUP2 ADD SWAP1 PUSH2 0x476 SWAP2 SWAP1 PUSH2 0xABB JUMP JUMPDEST SWAP1 POP SWAP2 SWAP1 POP JUMP JUMPDEST PUSH1 0x0 PUSH7 0x38D7EA4C68000 CALLVALUE PUSH2 0x492 SWAP2 SWAP1 PUSH2 0xC3B JUMP JUMPDEST SWAP1 POP PUSH1 0x1 SLOAD DUP2 PUSH1 0x0 DUP1 SLOAD SWAP1 PUSH2 0x100 EXP SWAP1 DIV PUSH20 0xFFFFFFFFFFFFFFFFFFFFFFFFFFFFFFFFFFFFFFFF AND PUSH20 0xFFFFFFFFFFFFFFFFFFFFFFFFFFFFFFFFFFFFFFFF AND PUSH4 0x18160DDD PUSH1 0x40 MLOAD DUP2 PUSH4 0xFFFFFFFF AND PUSH1 0xE0 SHL DUP2 MSTORE PUSH1 0x4 ADD PUSH1 0x20 PUSH1 0x40 MLOAD DUP1 DUP4 SUB DUP2 DUP7 GAS STATICCALL ISZERO DUP1 ISZERO PUSH2 0x503 JUMPI RETURNDATASIZE PUSH1 0x0 DUP1 RETURNDATACOPY RETURNDATASIZE PUSH1 0x0 REVERT JUMPDEST POP POP POP POP PUSH1 0x40 MLOAD RETURNDATASIZE PUSH1 0x1F NOT PUSH1 0x1F DUP3 ADD AND DUP3 ADD DUP1 PUSH1 0x40 MSTORE POP DUP2 ADD SWAP1 PUSH2 0x527 SWAP2 SWAP1 PUSH2 0xABB JUMP JUMPDEST PUSH2 0x531 SWAP2 SWAP1 PUSH2 0xC6C JUMP JUMPDEST LT PUSH2 0x571 JUMPI PUSH1 0x40 MLOAD PUSH32 0x8C379A000000000000000000000000000000000000000000000000000000000 DUP2 MSTORE PUSH1 0x4 ADD PUSH2 0x568 SWAP1 PUSH2 0xCEC JUMP JUMPDEST PUSH1 0x40 MLOAD DUP1 SWAP2 SUB SWAP1 REVERT JUMPDEST PUSH1 0x0 DUP1 SLOAD SWAP1 PUSH2 0x100 EXP SWAP1 DIV PUSH20 0xFFFFFFFFFFFFFFFFFFFFFFFFFFFFFFFFFFFFFFFF AND PUSH20 0xFFFFFFFFFFFFFFFFFFFFFFFFFFFFFFFFFFFFFFFF AND PUSH4 0x40C10F19 CALLER DUP4 PUSH1 0x40 MLOAD DUP4 PUSH4 0xFFFFFFFF AND PUSH1 0xE0 SHL DUP2 MSTORE PUSH1 0x4 ADD PUSH2 0x5CC SWAP3 SWAP2 SWAP1 PUSH2 0x9FB JUMP JUMPDEST PUSH1 0x0 PUSH1 0x40 MLOAD DUP1 DUP4 SUB DUP2 PUSH1 0x0 DUP8 DUP1 EXTCODESIZE ISZERO DUP1 ISZERO PUSH2 0x5E6 JUMPI PUSH1 0x0 DUP1 REVERT JUMPDEST POP GAS CALL ISZERO DUP1 ISZERO PUSH2 0x5FA JUMPI RETURNDATASIZE PUSH1 0x0 DUP1 RETURNDATACOPY RETURNDATASIZE PUSH1 0x0 REVERT JUMPDEST POP POP POP POP POP JUMP JUMPDEST PUSH1 0x0 DUP1 PUSH1 0x0 SWAP1 SLOAD SWAP1 PUSH2 0x100 EXP SWAP1 DIV PUSH20 0xFFFFFFFFFFFFFFFFFFFFFFFFFFFFFFFFFFFFFFFF AND PUSH20 0xFFFFFFFFFFFFFFFFFFFFFFFFFFFFFFFFFFFFFFFF AND PUSH4 0x70A08231 CALLER PUSH1 0x40 MLOAD DUP3 PUSH4 0xFFFFFFFF AND PUSH1 0xE0 SHL DUP2 MSTORE PUSH1 0x4 ADD PUSH2 0x65D SWAP2 SWAP1 PUSH2 0xBC2 JUMP JUMPDEST PUSH1 0x20 PUSH1 0x40 MLOAD DUP1 DUP4 SUB DUP2 DUP7 GAS STATICCALL ISZERO DUP1 ISZERO PUSH2 0x67A JUMPI RETURNDATASIZE PUSH1 0x0 DUP1 RETURNDATACOPY RETURNDATASIZE PUSH1 0x0 REVERT JUMPDEST POP POP POP POP PUSH1 0x40 MLOAD RETURNDATASIZE PUSH1 0x1F NOT PUSH1 0x1F DUP3 ADD AND DUP3 ADD DUP1 PUSH1 0x40 MSTORE POP DUP2 ADD SWAP1 PUSH2 0x69E SWAP2 SWAP1 PUSH2 0xABB JUMP JUMPDEST SWAP1 POP SWAP1 JUMP JUMPDEST PUSH1 0x0 DUP1 PUSH1 0x0 SWAP1 SLOAD SWAP1 PUSH2 0x100 EXP SWAP1 DIV PUSH20 0xFFFFFFFFFFFFFFFFFFFFFFFFFFFFFFFFFFFFFFFF AND PUSH20 0xFFFFFFFFFFFFFFFFFFFFFFFFFFFFFFFFFFFFFFFF AND PUSH4 0xDD62ED3E DUP5 DUP5 PUSH1 0x40 MLOAD DUP4 PUSH4 0xFFFFFFFF AND PUSH1 0xE0 SHL DUP2 MSTORE PUSH1 0x4 ADD PUSH2 0x701 SWAP3 SWAP2 SWAP1 PUSH2 0xA7D JUMP JUMPDEST PUSH1 0x20 PUSH1 0x40 MLOAD DUP1 DUP4 SUB DUP2 DUP7 GAS STATICCALL ISZERO DUP1 ISZERO PUSH2 0x71E JUMPI RETURNDATASIZE PUSH1 0x0 DUP1 RETURNDATACOPY RETURNDATASIZE PUSH1 0x0 REVERT JUMPDEST POP POP POP POP PUSH1 0x40 MLOAD RETURNDATASIZE PUSH1 0x1F NOT PUSH1 0x1F DUP3 ADD AND DUP3 ADD DUP1 PUSH1 0x40 MSTORE POP DUP2 ADD SWAP1 PUSH2 0x742 SWAP2 SWAP1 PUSH2 0xABB JUMP JUMPDEST SWAP1 POP SWAP3 SWAP2 POP POP JUMP JUMPDEST PUSH1 0x0 DUP1 PUSH1 0x0 SWAP1 SLOAD SWAP1 PUSH2 0x100 EXP SWAP1 DIV PUSH20 0xFFFFFFFFFFFFFFFFFFFFFFFFFFFFFFFFFFFFFFFF AND PUSH20 0xFFFFFFFFFFFFFFFFFFFFFFFFFFFFFFFFFFFFFFFF AND PUSH4 0xA9059CBB DUP5 DUP5 PUSH1 0x40 MLOAD DUP4 PUSH4 0xFFFFFFFF AND PUSH1 0xE0 SHL DUP2 MSTORE PUSH1 0x4 ADD PUSH2 0x7A8 SWAP3 SWAP2 SWAP1 PUSH2 0x9FB JUMP JUMPDEST PUSH1 0x20 PUSH1 0x40 MLOAD DUP1 DUP4 SUB DUP2 PUSH1 0x0 DUP8 GAS CALL ISZERO DUP1 ISZERO PUSH2 0x7C7 JUMPI RETURNDATASIZE PUSH1 0x0 DUP1 RETURNDATACOPY RETURNDATASIZE PUSH1 0x0 REVERT JUMPDEST POP POP POP POP PUSH1 0x40 MLOAD RETURNDATASIZE PUSH1 0x1F NOT PUSH1 0x1F DUP3 ADD AND DUP3 ADD DUP1 PUSH1 0x40 MSTORE POP DUP2 ADD SWAP1 PUSH2 0x7EB SWAP2 SWAP1 PUSH2 0xA50 JUMP JUMPDEST SWAP1 POP SWAP3 SWAP2 POP POP JUMP JUMPDEST PUSH1 0x0 DUP1 REVERT JUMPDEST PUSH1 0x0 PUSH20 0xFFFFFFFFFFFFFFFFFFFFFFFFFFFFFFFFFFFFFFFF DUP3 AND SWAP1 POP SWAP2 SWAP1 POP JUMP JUMPDEST PUSH1 0x0 PUSH2 0x823 DUP3 PUSH2 0x7F8 JUMP JUMPDEST SWAP1 POP SWAP2 SWAP1 POP JUMP JUMPDEST PUSH2 0x833 DUP2 PUSH2 0x818 JUMP JUMPDEST DUP2 EQ PUSH2 0x83E JUMPI PUSH1 0x0 DUP1 REVERT JUMPDEST POP JUMP JUMPDEST PUSH1 0x0 DUP2 CALLDATALOAD SWAP1 POP PUSH2 0x850 DUP2 PUSH2 0x82A JUMP JUMPDEST SWAP3 SWAP2 POP POP JUMP JUMPDEST PUSH1 0x0 DUP2 SWAP1 POP SWAP2 SWAP1 POP JUMP JUMPDEST PUSH2 0x869 DUP2 PUSH2 0x856 JUMP JUMPDEST DUP2 EQ PUSH2 0x874 JUMPI PUSH1 0x0 DUP1 REVERT JUMPDEST POP JUMP JUMPDEST PUSH1 0x0 DUP2 CALLDATALOAD SWAP1 POP PUSH2 0x886 DUP2 PUSH2 0x860 JUMP JUMPDEST SWAP3 SWAP2 POP POP JUMP JUMPDEST PUSH1 0x0 DUP1 PUSH1 0x40 DUP4 DUP6 SUB SLT ISZERO PUSH2 0x8A3 JUMPI PUSH2 0x8A2 PUSH2 0x7F3 JUMP JUMPDEST JUMPDEST PUSH1 0x0 PUSH2 0x8B1 DUP6 DUP3 DUP7 ADD PUSH2 0x841 JUMP JUMPDEST SWAP3 POP POP PUSH1 0x20 PUSH2 0x8C2 DUP6 DUP3 DUP7 ADD PUSH2 0x877 JUMP JUMPDEST SWAP2 POP POP SWAP3 POP SWAP3 SWAP1 POP JUMP JUMPDEST PUSH1 0x0 DUP1 PUSH1 0x0 PUSH1 0x60 DUP5 DUP7 SUB SLT ISZERO PUSH2 0x8E5 JUMPI PUSH2 0x8E4 PUSH2 0x7F3 JUMP JUMPDEST JUMPDEST PUSH1 0x0 PUSH2 0x8F3 DUP7 DUP3 DUP8 ADD PUSH2 0x841 JUMP JUMPDEST SWAP4 POP POP PUSH1 0x20 PUSH2 0x904 DUP7 DUP3 DUP8 ADD PUSH2 0x841 JUMP JUMPDEST SWAP3 POP POP PUSH1 0x40 PUSH2 0x915 DUP7 DUP3 DUP8 ADD PUSH2 0x877 JUMP JUMPDEST SWAP2 POP POP SWAP3 POP SWAP3 POP SWAP3 JUMP JUMPDEST PUSH1 0x0 PUSH1 0x20 DUP3 DUP5 SUB SLT ISZERO PUSH2 0x935 JUMPI PUSH2 0x934 PUSH2 0x7F3 JUMP JUMPDEST JUMPDEST PUSH1 0x0 PUSH2 0x943 DUP5 DUP3 DUP6 ADD PUSH2 0x841 JUMP JUMPDEST SWAP2 POP POP SWAP3 SWAP2 POP POP JUMP JUMPDEST PUSH2 0x955 DUP2 PUSH2 0x856 JUMP JUMPDEST DUP3 MSTORE POP POP JUMP JUMPDEST PUSH1 0x0 PUSH1 0x20 DUP3 ADD SWAP1 POP PUSH2 0x970 PUSH1 0x0 DUP4 ADD DUP5 PUSH2 0x94C JUMP JUMPDEST SWAP3 SWAP2 POP POP JUMP JUMPDEST PUSH1 0x0 DUP1 PUSH1 0x40 DUP4 DUP6 SUB SLT ISZERO PUSH2 0x98D JUMPI PUSH2 0x98C PUSH2 0x7F3 JUMP JUMPDEST JUMPDEST PUSH1 0x0 PUSH2 0x99B DUP6 DUP3 DUP7 ADD PUSH2 0x841 JUMP JUMPDEST SWAP3 POP POP PUSH1 0x20 PUSH2 0x9AC DUP6 DUP3 DUP7 ADD PUSH2 0x841 JUMP JUMPDEST SWAP2 POP POP SWAP3 POP SWAP3 SWAP1 POP JUMP JUMPDEST PUSH1 0x0 DUP2 ISZERO ISZERO SWAP1 POP SWAP2 SWAP1 POP JUMP JUMPDEST PUSH2 0x9CB DUP2 PUSH2 0x9B6 JUMP JUMPDEST DUP3 MSTORE POP POP JUMP JUMPDEST PUSH1 0x0 PUSH1 0x20 DUP3 ADD SWAP1 POP PUSH2 0x9E6 PUSH1 0x0 DUP4 ADD DUP5 PUSH2 0x9C2 JUMP JUMPDEST SWAP3 SWAP2 POP POP JUMP JUMPDEST PUSH2 0x9F5 DUP2 PUSH2 0x818 JUMP JUMPDEST DUP3 MSTORE POP POP JUMP JUMPDEST PUSH1 0x0 PUSH1 0x40 DUP3 ADD SWAP1 POP PUSH2 0xA10 PUSH1 0x0 DUP4 ADD DUP6 PUSH2 0x9EC JUMP JUMPDEST PUSH2 0xA1D PUSH1 0x20 DUP4 ADD DUP5 PUSH2 0x94C JUMP JUMPDEST SWAP4 SWAP3 POP POP POP JUMP JUMPDEST PUSH2 0xA2D DUP2 PUSH2 0x9B6 JUMP JUMPDEST DUP2 EQ PUSH2 0xA38 JUMPI PUSH1 0x0 DUP1 REVERT JUMPDEST POP JUMP JUMPDEST PUSH1 0x0 DUP2 MLOAD SWAP1 POP PUSH2 0xA4A DUP2 PUSH2 0xA24 JUMP JUMPDEST SWAP3 SWAP2 POP POP JUMP JUMPDEST PUSH1 0x0 PUSH1 0x20 DUP3 DUP5 SUB SLT ISZERO PUSH2 0xA66 JUMPI PUSH2 0xA65 PUSH2 0x7F3 JUMP JUMPDEST JUMPDEST PUSH1 0x0 PUSH2 0xA74 DUP5 DUP3 DUP6 ADD PUSH2 0xA3B JUMP JUMPDEST SWAP2 POP POP SWAP3 SWAP2 POP POP JUMP JUMPDEST PUSH1 0x0 PUSH1 0x40 DUP3 ADD SWAP1 POP PUSH2 0xA92 PUSH1 0x0 DUP4 ADD DUP6 PUSH2 0x9EC JUMP JUMPDEST PUSH2 0xA9F PUSH1 0x20 DUP4 ADD DUP5 PUSH2 0x9EC JUMP JUMPDEST SWAP4 SWAP3 POP POP POP JUMP JUMPDEST PUSH1 0x0 DUP2 MLOAD SWAP1 POP PUSH2 0xAB5 DUP2 PUSH2 0x860 JUMP JUMPDEST SWAP3 SWAP2 POP POP JUMP JUMPDEST PUSH1 0x0 PUSH1 0x20 DUP3 DUP5 SUB SLT ISZERO PUSH2 0xAD1 JUMPI PUSH2 0xAD0 PUSH2 0x7F3 JUMP JUMPDEST JUMPDEST PUSH1 0x0 PUSH2 0xADF DUP5 DUP3 DUP6 ADD PUSH2 0xAA6 JUMP JUMPDEST SWAP2 POP POP SWAP3 SWAP2 POP POP JUMP JUMPDEST PUSH1 0x0 DUP3 DUP3 MSTORE PUSH1 0x20 DUP3 ADD SWAP1 POP SWAP3 SWAP2 POP POP JUMP JUMPDEST PUSH32 0x5761726E696E673A20596F7520617265206E6F7420616C6C6F77656420746F20 PUSH1 0x0 DUP3 ADD MSTORE PUSH32 0x7472616E73666572210000000000000000000000000000000000000000000000 PUSH1 0x20 DUP3 ADD MSTORE POP JUMP JUMPDEST PUSH1 0x0 PUSH2 0xB55 PUSH1 0x29 DUP4 PUSH2 0xAE8 JUMP JUMPDEST SWAP2 POP PUSH2 0xB60 DUP3 PUSH2 0xAF9 JUMP JUMPDEST PUSH1 0x40 DUP3 ADD SWAP1 POP SWAP2 SWAP1 POP JUMP JUMPDEST PUSH1 0x0 PUSH1 0x20 DUP3 ADD SWAP1 POP DUP2 DUP2 SUB PUSH1 0x0 DUP4 ADD MSTORE PUSH2 0xB84 DUP2 PUSH2 0xB48 JUMP JUMPDEST SWAP1 POP SWAP2 SWAP1 POP JUMP JUMPDEST PUSH1 0x0 PUSH1 0x60 DUP3 ADD SWAP1 POP PUSH2 0xBA0 PUSH1 0x0 DUP4 ADD DUP7 PUSH2 0x9EC JUMP JUMPDEST PUSH2 0xBAD PUSH1 0x20 DUP4 ADD DUP6 PUSH2 0x9EC JUMP JUMPDEST PUSH2 0xBBA PUSH1 0x40 DUP4 ADD DUP5 PUSH2 0x94C JUMP JUMPDEST SWAP5 SWAP4 POP POP POP POP JUMP JUMPDEST PUSH1 0x0 PUSH1 0x20 DUP3 ADD SWAP1 POP PUSH2 0xBD7 PUSH1 0x0 DUP4 ADD DUP5 PUSH2 0x9EC JUMP JUMPDEST SWAP3 SWAP2 POP POP JUMP JUMPDEST PUSH32 0x4E487B7100000000000000000000000000000000000000000000000000000000 PUSH1 0x0 MSTORE PUSH1 0x12 PUSH1 0x4 MSTORE PUSH1 0x24 PUSH1 0x0 REVERT JUMPDEST PUSH32 0x4E487B7100000000000000000000000000000000000000000000000000000000 PUSH1 0x0 MSTORE PUSH1 0x11 PUSH1 0x4 MSTORE PUSH1 0x24 PUSH1 0x0 REVERT JUMPDEST PUSH1 0x0 PUSH2 0xC46 DUP3 PUSH2 0x856 JUMP JUMPDEST SWAP2 POP PUSH2 0xC51 DUP4 PUSH2 0x856 JUMP JUMPDEST SWAP3 POP DUP3 PUSH2 0xC61 JUMPI PUSH2 0xC60 PUSH2 0xBDD JUMP JUMPDEST JUMPDEST DUP3 DUP3 DIV SWAP1 POP SWAP3 SWAP2 POP POP JUMP JUMPDEST PUSH1 0x0 PUSH2 0xC77 DUP3 PUSH2 0x856 JUMP JUMPDEST SWAP2 POP PUSH2 0xC82 DUP4 PUSH2 0x856 JUMP JUMPDEST SWAP3 POP DUP3 DUP3 ADD SWAP1 POP DUP1 DUP3 GT ISZERO PUSH2 0xC9A JUMPI PUSH2 0xC99 PUSH2 0xC0C JUMP JUMPDEST JUMPDEST SWAP3 SWAP2 POP POP JUMP JUMPDEST PUSH32 0x5761726E696E673A20496E73756666696369656E742047656D73210000000000 PUSH1 0x0 DUP3 ADD MSTORE POP JUMP JUMPDEST PUSH1 0x0 PUSH2 0xCD6 PUSH1 0x1B DUP4 PUSH2 0xAE8 JUMP JUMPDEST SWAP2 POP PUSH2 0xCE1 DUP3 PUSH2 0xCA0 JUMP JUMPDEST PUSH1 0x20 DUP3 ADD SWAP1 POP SWAP2 SWAP1 POP JUMP JUMPDEST PUSH1 0x0 PUSH1 0x20 DUP3 ADD SWAP1 POP DUP2 DUP2 SUB PUSH1 0x0 DUP4 ADD MSTORE PUSH2 0xD05 DUP2 PUSH2 0xCC9 JUMP JUMPDEST SWAP1 POP SWAP2 SWAP1 POP JUMP INVALID LOG2 PUSH5 0x6970667358 0x22 SLT KECCAK256 POP 0xB8 0xF6 0xEE 0xCF 0xED 0xAD 0xE6 0x26 0xE0 PUSH15 0xB67DFDE40AA8471A17355DF2340A9F PUSH22 0x4A1BBC62EF64736F6C63430008130033608060405234 DUP1 ISZERO PUSH3 0x11 JUMPI PUSH1 0x0 DUP1 REVERT JUMPDEST POP PUSH1 0x40 MLOAD PUSH3 0x19E3 CODESIZE SUB DUP1 PUSH3 0x19E3 DUP4 CODECOPY DUP2 DUP2 ADD PUSH1 0x40 MSTORE DUP2 ADD SWAP1 PUSH3 0x37 SWAP2 SWAP1 PUSH3 0x1F6 JUMP JUMPDEST DUP2 PUSH1 0x3 SWAP1 DUP2 PUSH3 0x48 SWAP2 SWAP1 PUSH3 0x4C6 JUMP JUMPDEST POP DUP1 PUSH1 0x4 SWAP1 DUP2 PUSH3 0x5A SWAP2 SWAP1 PUSH3 0x4C6 JUMP JUMPDEST POP POP POP PUSH3 0x5AD JUMP JUMPDEST PUSH1 0x0 PUSH1 0x40 MLOAD SWAP1 POP SWAP1 JUMP JUMPDEST PUSH1 0x0 DUP1 REVERT JUMPDEST PUSH1 0x0 DUP1 REVERT JUMPDEST PUSH1 0x0 DUP1 REVERT JUMPDEST PUSH1 0x0 DUP1 REVERT JUMPDEST PUSH1 0x0 PUSH1 0x1F NOT PUSH1 0x1F DUP4 ADD AND SWAP1 POP SWAP2 SWAP1 POP JUMP JUMPDEST PUSH32 0x4E487B7100000000000000000000000000000000000000000000000000000000 PUSH1 0x0 MSTORE PUSH1 0x41 PUSH1 0x4 MSTORE PUSH1 0x24 PUSH1 0x0 REVERT JUMPDEST PUSH3 0xCC DUP3 PUSH3 0x81 JUMP JUMPDEST DUP2 ADD DUP2 DUP2 LT PUSH8 0xFFFFFFFFFFFFFFFF DUP3 GT OR ISZERO PUSH3 0xEE JUMPI PUSH3 0xED PUSH3 0x92 JUMP JUMPDEST JUMPDEST DUP1 PUSH1 0x40 MSTORE POP POP POP JUMP JUMPDEST PUSH1 0x0 PUSH3 0x103 PUSH3 0x63 JUMP JUMPDEST SWAP1 POP PUSH3 0x111 DUP3 DUP3 PUSH3 0xC1 JUMP JUMPDEST SWAP2 SWAP1 POP JUMP JUMPDEST PUSH1 0x0 PUSH8 0xFFFFFFFFFFFFFFFF DUP3 GT ISZERO PUSH3 0x134 JUMPI PUSH3 0x133 PUSH3 0x92 JUMP JUMPDEST JUMPDEST PUSH3 0x13F DUP3 PUSH3 0x81 JUMP JUMPDEST SWAP1 POP PUSH1 0x20 DUP2 ADD SWAP1 POP SWAP2 SWAP1 POP JUMP JUMPDEST PUSH1 0x0 JUMPDEST DUP4 DUP2 LT ISZERO PUSH3 0x16C JUMPI DUP1 DUP3 ADD MLOAD DUP2 DUP5 ADD MSTORE PUSH1 0x20 DUP2 ADD SWAP1 POP PUSH3 0x14F JUMP JUMPDEST PUSH1 0x0 DUP5 DUP5 ADD MSTORE POP POP POP POP JUMP JUMPDEST PUSH1 0x0 PUSH3 0x18F PUSH3 0x189 DUP5 PUSH3 0x116 JUMP JUMPDEST PUSH3 0xF7 JUMP JUMPDEST SWAP1 POP DUP3 DUP2 MSTORE PUSH1 0x20 DUP2 ADD DUP5 DUP5 DUP5 ADD GT ISZERO PUSH3 0x1AE JUMPI PUSH3 0x1AD PUSH3 0x7C JUMP JUMPDEST JUMPDEST PUSH3 0x1BB DUP5 DUP3 DUP6 PUSH3 0x14C JUMP JUMPDEST POP SWAP4 SWAP3 POP POP POP JUMP JUMPDEST PUSH1 0x0 DUP3 PUSH1 0x1F DUP4 ADD SLT PUSH3 0x1DB JUMPI PUSH3 0x1DA PUSH3 0x77 JUMP JUMPDEST JUMPDEST DUP2 MLOAD PUSH3 0x1ED DUP5 DUP3 PUSH1 0x20 DUP7 ADD PUSH3 0x178 JUMP JUMPDEST SWAP2 POP POP SWAP3 SWAP2 POP POP JUMP JUMPDEST PUSH1 0x0 DUP1 PUSH1 0x40 DUP4 DUP6 SUB SLT ISZERO PUSH3 0x210 JUMPI PUSH3 0x20F PUSH3 0x6D JUMP JUMPDEST JUMPDEST PUSH1 0x0 DUP4 ADD MLOAD PUSH8 0xFFFFFFFFFFFFFFFF DUP2 GT ISZERO PUSH3 0x231 JUMPI PUSH3 0x230 PUSH3 0x72 JUMP JUMPDEST JUMPDEST PUSH3 0x23F DUP6 DUP3 DUP7 ADD PUSH3 0x1C3 JUMP JUMPDEST SWAP3 POP POP PUSH1 0x20 DUP4 ADD MLOAD PUSH8 0xFFFFFFFFFFFFFFFF DUP2 GT ISZERO PUSH3 0x263 JUMPI PUSH3 0x262 PUSH3 0x72 JUMP JUMPDEST JUMPDEST PUSH3 0x271 DUP6 DUP3 DUP7 ADD PUSH3 0x1C3 JUMP JUMPDEST SWAP2 POP POP SWAP3 POP SWAP3 SWAP1 POP JUMP JUMPDEST PUSH1 0x0 DUP2 MLOAD SWAP1 POP SWAP2 SWAP1 POP JUMP JUMPDEST PUSH32 0x4E487B7100000000000000000000000000000000000000000000000000000000 PUSH1 0x0 MSTORE PUSH1 0x22 PUSH1 0x4 MSTORE PUSH1 0x24 PUSH1 0x0 REVERT JUMPDEST PUSH1 0x0 PUSH1 0x2 DUP3 DIV SWAP1 POP PUSH1 0x1 DUP3 AND DUP1 PUSH3 0x2CE JUMPI PUSH1 0x7F DUP3 AND SWAP2 POP JUMPDEST PUSH1 0x20 DUP3 LT DUP2 SUB PUSH3 0x2E4 JUMPI PUSH3 0x2E3 PUSH3 0x286 JUMP JUMPDEST JUMPDEST POP SWAP2 SWAP1 POP JUMP JUMPDEST PUSH1 0x0 DUP2 SWAP1 POP DUP2 PUSH1 0x0 MSTORE PUSH1 0x20 PUSH1 0x0 KECCAK256 SWAP1 POP SWAP2 SWAP1 POP JUMP JUMPDEST PUSH1 0x0 PUSH1 0x20 PUSH1 0x1F DUP4 ADD DIV SWAP1 POP SWAP2 SWAP1 POP JUMP JUMPDEST PUSH1 0x0 DUP3 DUP3 SHL SWAP1 POP SWAP3 SWAP2 POP POP JUMP JUMPDEST PUSH1 0x0 PUSH1 0x8 DUP4 MUL PUSH3 0x34E PUSH32 0xFFFFFFFFFFFFFFFFFFFFFFFFFFFFFFFFFFFFFFFFFFFFFFFFFFFFFFFFFFFFFFFF DUP3 PUSH3 0x30F JUMP JUMPDEST PUSH3 0x35A DUP7 DUP4 PUSH3 0x30F JUMP JUMPDEST SWAP6 POP DUP1 NOT DUP5 AND SWAP4 POP DUP1 DUP7 AND DUP5 OR SWAP3 POP POP POP SWAP4 SWAP3 POP POP POP JUMP JUMPDEST PUSH1 0x0 DUP2 SWAP1 POP SWAP2 SWAP1 POP JUMP JUMPDEST PUSH1 0x0 DUP2 SWAP1 POP SWAP2 SWAP1 POP JUMP JUMPDEST PUSH1 0x0 PUSH3 0x3A7 PUSH3 0x3A1 PUSH3 0x39B DUP5 PUSH3 0x372 JUMP JUMPDEST PUSH3 0x37C JUMP JUMPDEST PUSH3 0x372 JUMP JUMPDEST SWAP1 POP SWAP2 SWAP1 POP JUMP JUMPDEST PUSH1 0x0 DUP2 SWAP1 POP SWAP2 SWAP1 POP JUMP JUMPDEST PUSH3 0x3C3 DUP4 PUSH3 0x386 JUMP JUMPDEST PUSH3 0x3DB PUSH3 0x3D2 DUP3 PUSH3 0x3AE JUMP JUMPDEST DUP5 DUP5 SLOAD PUSH3 0x31C JUMP JUMPDEST DUP3 SSTORE POP POP POP POP JUMP JUMPDEST PUSH1 0x0 SWAP1 JUMP JUMPDEST PUSH3 0x3F2 PUSH3 0x3E3 JUMP JUMPDEST PUSH3 0x3FF DUP2 DUP5 DUP5 PUSH3 0x3B8 JUMP JUMPDEST POP POP POP JUMP JUMPDEST JUMPDEST DUP2 DUP2 LT ISZERO PUSH3 0x427 JUMPI PUSH3 0x41B PUSH1 0x0 DUP3 PUSH3 0x3E8 JUMP JUMPDEST PUSH1 0x1 DUP2 ADD SWAP1 POP PUSH3 0x405 JUMP JUMPDEST POP POP JUMP JUMPDEST PUSH1 0x1F DUP3 GT ISZERO PUSH3 0x476 JUMPI PUSH3 0x440 DUP2 PUSH3 0x2EA JUMP JUMPDEST PUSH3 0x44B DUP5 PUSH3 0x2FF JUMP JUMPDEST DUP2 ADD PUSH1 0x20 DUP6 LT ISZERO PUSH3 0x45B JUMPI DUP2 SWAP1 POP JUMPDEST PUSH3 0x473 PUSH3 0x46A DUP6 PUSH3 0x2FF JUMP JUMPDEST DUP4 ADD DUP3 PUSH3 0x404 JUMP JUMPDEST POP POP JUMPDEST POP POP POP JUMP JUMPDEST PUSH1 0x0 DUP3 DUP3 SHR SWAP1 POP SWAP3 SWAP2 POP POP JUMP JUMPDEST PUSH1 0x0 PUSH3 0x49B PUSH1 0x0 NOT DUP5 PUSH1 0x8 MUL PUSH3 0x47B JUMP JUMPDEST NOT DUP1 DUP4 AND SWAP2 POP POP SWAP3 SWAP2 POP POP JUMP JUMPDEST PUSH1 0x0 PUSH3 0x4B6 DUP4 DUP4 PUSH3 0x488 JUMP JUMPDEST SWAP2 POP DUP3 PUSH1 0x2 MUL DUP3 OR SWAP1 POP SWAP3 SWAP2 POP POP JUMP JUMPDEST PUSH3 0x4D1 DUP3 PUSH3 0x27B JUMP JUMPDEST PUSH8 0xFFFFFFFFFFFFFFFF DUP2 GT ISZERO PUSH3 0x4ED JUMPI PUSH3 0x4EC PUSH3 0x92 JUMP JUMPDEST JUMPDEST PUSH3 0x4F9 DUP3 SLOAD PUSH3 0x2B5 JUMP JUMPDEST PUSH3 0x506 DUP3 DUP3 DUP6 PUSH3 0x42B JUMP JUMPDEST PUSH1 0x0 PUSH1 0x20 SWAP1 POP PUSH1 0x1F DUP4 GT PUSH1 0x1 DUP2 EQ PUSH3 0x53E JUMPI PUSH1 0x0 DUP5 ISZERO PUSH3 0x529 JUMPI DUP3 DUP8 ADD MLOAD SWAP1 POP JUMPDEST PUSH3 0x535 DUP6 DUP3 PUSH3 0x4A8 JUMP JUMPDEST DUP7 SSTORE POP PUSH3 0x5A5 JUMP JUMPDEST PUSH1 0x1F NOT DUP5 AND PUSH3 0x54E DUP7 PUSH3 0x2EA JUMP JUMPDEST PUSH1 0x0 JUMPDEST DUP3 DUP2 LT ISZERO PUSH3 0x578 JUMPI DUP5 DUP10 ADD MLOAD DUP3 SSTORE PUSH1 0x1 DUP3 ADD SWAP2 POP PUSH1 0x20 DUP6 ADD SWAP5 POP PUSH1 0x20 DUP2 ADD SWAP1 POP PUSH3 0x551 JUMP JUMPDEST DUP7 DUP4 LT ISZERO PUSH3 0x598 JUMPI DUP5 DUP10 ADD MLOAD PUSH3 0x594 PUSH1 0x1F DUP10 AND DUP3 PUSH3 0x488 JUMP JUMPDEST DUP4 SSTORE POP JUMPDEST PUSH1 0x1 PUSH1 0x2 DUP9 MUL ADD DUP9 SSTORE POP POP POP JUMPDEST POP POP POP POP POP POP JUMP JUMPDEST PUSH2 0x1426 DUP1 PUSH3 0x5BD PUSH1 0x0 CODECOPY PUSH1 0x0 RETURN INVALID PUSH1 0x80 PUSH1 0x40 MSTORE CALLVALUE DUP1 ISZERO PUSH2 0x10 JUMPI PUSH1 0x0 DUP1 REVERT JUMPDEST POP PUSH1 0x4 CALLDATASIZE LT PUSH2 0xB4 JUMPI PUSH1 0x0 CALLDATALOAD PUSH1 0xE0 SHR DUP1 PUSH4 0x40C10F19 GT PUSH2 0x71 JUMPI DUP1 PUSH4 0x40C10F19 EQ PUSH2 0x1A3 JUMPI DUP1 PUSH4 0x70A08231 EQ PUSH2 0x1BF JUMPI DUP1 PUSH4 0x95D89B41 EQ PUSH2 0x1EF JUMPI DUP1 PUSH4 0xA457C2D7 EQ PUSH2 0x20D JUMPI DUP1 PUSH4 0xA9059CBB EQ PUSH2 0x23D JUMPI DUP1 PUSH4 0xDD62ED3E EQ PUSH2 0x26D JUMPI PUSH2 0xB4 JUMP JUMPDEST DUP1 PUSH4 0x6FDDE03 EQ PUSH2 0xB9 JUMPI DUP1 PUSH4 0x95EA7B3 EQ PUSH2 0xD7 JUMPI DUP1 PUSH4 0x18160DDD EQ PUSH2 0x107 JUMPI DUP1 PUSH4 0x23B872DD EQ PUSH2 0x125 JUMPI DUP1 PUSH4 0x313CE567 EQ PUSH2 0x155 JUMPI DUP1 PUSH4 0x39509351 EQ PUSH2 0x173 JUMPI JUMPDEST PUSH1 0x0 DUP1 REVERT JUMPDEST PUSH2 0xC1 PUSH2 0x29D JUMP JUMPDEST PUSH1 0x40 MLOAD PUSH2 0xCE SWAP2 SWAP1 PUSH2 0xC97 JUMP JUMPDEST PUSH1 0x40 MLOAD DUP1 SWAP2 SUB SWAP1 RETURN JUMPDEST PUSH2 0xF1 PUSH1 0x4 DUP1 CALLDATASIZE SUB DUP2 ADD SWAP1 PUSH2 0xEC SWAP2 SWAP1 PUSH2 0xD52 JUMP JUMPDEST PUSH2 0x32F JUMP JUMPDEST PUSH1 0x40 MLOAD PUSH2 0xFE SWAP2 SWAP1 PUSH2 0xDAD JUMP JUMPDEST PUSH1 0x40 MLOAD DUP1 SWAP2 SUB SWAP1 RETURN JUMPDEST PUSH2 0x10F PUSH2 0x352 JUMP JUMPDEST PUSH1 0x40 MLOAD PUSH2 0x11C SWAP2 SWAP1 PUSH2 0xDD7 JUMP JUMPDEST PUSH1 0x40 MLOAD DUP1 SWAP2 SUB SWAP1 RETURN JUMPDEST PUSH2 0x13F PUSH1 0x4 DUP1 CALLDATASIZE SUB DUP2 ADD SWAP1 PUSH2 0x13A SWAP2 SWAP1 PUSH2 0xDF2 JUMP JUMPDEST PUSH2 0x35C JUMP JUMPDEST PUSH1 0x40 MLOAD PUSH2 0x14C SWAP2 SWAP1 PUSH2 0xDAD JUMP JUMPDEST PUSH1 0x40 MLOAD DUP1 SWAP2 SUB SWAP1 RETURN JUMPDEST PUSH2 0x15D PUSH2 0x38B JUMP JUMPDEST PUSH1 0x40 MLOAD PUSH2 0x16A SWAP2 SWAP1 PUSH2 0xE61 JUMP JUMPDEST PUSH1 0x40 MLOAD DUP1 SWAP2 SUB SWAP1 RETURN JUMPDEST PUSH2 0x18D PUSH1 0x4 DUP1 CALLDATASIZE SUB DUP2 ADD SWAP1 PUSH2 0x188 SWAP2 SWAP1 PUSH2 0xD52 JUMP JUMPDEST PUSH2 0x394 JUMP JUMPDEST PUSH1 0x40 MLOAD PUSH2 0x19A SWAP2 SWAP1 PUSH2 0xDAD JUMP JUMPDEST PUSH1 0x40 MLOAD DUP1 SWAP2 SUB SWAP1 RETURN JUMPDEST PUSH2 0x1BD PUSH1 0x4 DUP1 CALLDATASIZE SUB DUP2 ADD SWAP1 PUSH2 0x1B8 SWAP2 SWAP1 PUSH2 0xD52 JUMP JUMPDEST PUSH2 0x3CB JUMP JUMPDEST STOP JUMPDEST PUSH2 0x1D9 PUSH1 0x4 DUP1 CALLDATASIZE SUB DUP2 ADD SWAP1 PUSH2 0x1D4 SWAP2 SWAP1 PUSH2 0xE7C JUMP JUMPDEST PUSH2 0x3D9 JUMP JUMPDEST PUSH1 0x40 MLOAD PUSH2 0x1E6 SWAP2 SWAP1 PUSH2 0xDD7 JUMP JUMPDEST PUSH1 0x40 MLOAD DUP1 SWAP2 SUB SWAP1 RETURN JUMPDEST PUSH2 0x1F7 PUSH2 0x421 JUMP JUMPDEST PUSH1 0x40 MLOAD PUSH2 0x204 SWAP2 SWAP1 PUSH2 0xC97 JUMP JUMPDEST PUSH1 0x40 MLOAD DUP1 SWAP2 SUB SWAP1 RETURN JUMPDEST PUSH2 0x227 PUSH1 0x4 DUP1 CALLDATASIZE SUB DUP2 ADD SWAP1 PUSH2 0x222 SWAP2 SWAP1 PUSH2 0xD52 JUMP JUMPDEST PUSH2 0x4B3 JUMP JUMPDEST PUSH1 0x40 MLOAD PUSH2 0x234 SWAP2 SWAP1 PUSH2 0xDAD JUMP JUMPDEST PUSH1 0x40 MLOAD DUP1 SWAP2 SUB SWAP1 RETURN JUMPDEST PUSH2 0x257 PUSH1 0x4 DUP1 CALLDATASIZE SUB DUP2 ADD SWAP1 PUSH2 0x252 SWAP2 SWAP1 PUSH2 0xD52 JUMP JUMPDEST PUSH2 0x52A JUMP JUMPDEST PUSH1 0x40 MLOAD PUSH2 0x264 SWAP2 SWAP1 PUSH2 0xDAD JUMP JUMPDEST PUSH1 0x40 MLOAD DUP1 SWAP2 SUB SWAP1 RETURN JUMPDEST PUSH2 0x287 PUSH1 0x4 DUP1 CALLDATASIZE SUB DUP2 ADD SWAP1 PUSH2 0x282 SWAP2 SWAP1 PUSH2 0xEA9 JUMP JUMPDEST PUSH2 0x54D JUMP JUMPDEST PUSH1 0x40 MLOAD PUSH2 0x294 SWAP2 SWAP1 PUSH2 0xDD7 JUMP JUMPDEST PUSH1 0x40 MLOAD DUP1 SWAP2 SUB SWAP1 RETURN JUMPDEST PUSH1 0x60 PUSH1 0x3 DUP1 SLOAD PUSH2 0x2AC SWAP1 PUSH2 0xF18 JUMP JUMPDEST DUP1 PUSH1 0x1F ADD PUSH1 0x20 DUP1 SWAP2 DIV MUL PUSH1 0x20 ADD PUSH1 0x40 MLOAD SWAP1 DUP2 ADD PUSH1 0x40 MSTORE DUP1 SWAP3 SWAP2 SWAP1 DUP2 DUP2 MSTORE PUSH1 0x20 ADD DUP3 DUP1 SLOAD PUSH2 0x2D8 SWAP1 PUSH2 0xF18 JUMP JUMPDEST DUP1 ISZERO PUSH2 0x325 JUMPI DUP1 PUSH1 0x1F LT PUSH2 0x2FA JUMPI PUSH2 0x100 DUP1 DUP4 SLOAD DIV MUL DUP4 MSTORE SWAP2 PUSH1 0x20 ADD SWAP2 PUSH2 0x325 JUMP JUMPDEST DUP3 ADD SWAP2 SWAP1 PUSH1 0x0 MSTORE PUSH1 0x20 PUSH1 0x0 KECCAK256 SWAP1 JUMPDEST DUP2 SLOAD DUP2 MSTORE SWAP1 PUSH1 0x1 ADD SWAP1 PUSH1 0x20 ADD DUP1 DUP4 GT PUSH2 0x308 JUMPI DUP3 SWAP1 SUB PUSH1 0x1F AND DUP3 ADD SWAP2 JUMPDEST POP POP POP POP POP SWAP1 POP SWAP1 JUMP JUMPDEST PUSH1 0x0 DUP1 PUSH2 0x33A PUSH2 0x5D4 JUMP JUMPDEST SWAP1 POP PUSH2 0x347 DUP2 DUP6 DUP6 PUSH2 0x5DC JUMP JUMPDEST PUSH1 0x1 SWAP2 POP POP SWAP3 SWAP2 POP POP JUMP JUMPDEST PUSH1 0x0 PUSH1 0x2 SLOAD SWAP1 POP SWAP1 JUMP JUMPDEST PUSH1 0x0 DUP1 PUSH2 0x367 PUSH2 0x5D4 JUMP JUMPDEST SWAP1 POP PUSH2 0x374 DUP6 DUP3 DUP6 PUSH2 0x7A5 JUMP JUMPDEST PUSH2 0x37F DUP6 DUP6 DUP6 PUSH2 0x831 JUMP JUMPDEST PUSH1 0x1 SWAP2 POP POP SWAP4 SWAP3 POP POP POP JUMP JUMPDEST PUSH1 0x0 PUSH1 0x12 SWAP1 POP SWAP1 JUMP JUMPDEST PUSH1 0x0 DUP1 PUSH2 0x39F PUSH2 0x5D4 JUMP JUMPDEST SWAP1 POP PUSH2 0x3C0 DUP2 DUP6 DUP6 PUSH2 0x3B1 DUP6 DUP10 PUSH2 0x54D JUMP JUMPDEST PUSH2 0x3BB SWAP2 SWAP1 PUSH2 0xF78 JUMP JUMPDEST PUSH2 0x5DC JUMP JUMPDEST PUSH1 0x1 SWAP2 POP POP SWAP3 SWAP2 POP POP JUMP JUMPDEST PUSH2 0x3D5 DUP3 DUP3 PUSH2 0xAA7 JUMP JUMPDEST POP POP JUMP JUMPDEST PUSH1 0x0 DUP1 PUSH1 0x0 DUP4 PUSH20 0xFFFFFFFFFFFFFFFFFFFFFFFFFFFFFFFFFFFFFFFF AND PUSH20 0xFFFFFFFFFFFFFFFFFFFFFFFFFFFFFFFFFFFFFFFF AND DUP2 MSTORE PUSH1 0x20 ADD SWAP1 DUP2 MSTORE PUSH1 0x20 ADD PUSH1 0x0 KECCAK256 SLOAD SWAP1 POP SWAP2 SWAP1 POP JUMP JUMPDEST PUSH1 0x60 PUSH1 0x4 DUP1 SLOAD PUSH2 0x430 SWAP1 PUSH2 0xF18 JUMP JUMPDEST DUP1 PUSH1 0x1F ADD PUSH1 0x20 DUP1 SWAP2 DIV MUL PUSH1 0x20 ADD PUSH1 0x40 MLOAD SWAP1 DUP2 ADD PUSH1 0x40 MSTORE DUP1 SWAP3 SWAP2 SWAP1 DUP2 DUP2 MSTORE PUSH1 0x20 ADD DUP3 DUP1 SLOAD PUSH2 0x45C SWAP1 PUSH2 0xF18 JUMP JUMPDEST DUP1 ISZERO PUSH2 0x4A9 JUMPI DUP1 PUSH1 0x1F LT PUSH2 0x47E JUMPI PUSH2 0x100 DUP1 DUP4 SLOAD DIV MUL DUP4 MSTORE SWAP2 PUSH1 0x20 ADD SWAP2 PUSH2 0x4A9 JUMP JUMPDEST DUP3 ADD SWAP2 SWAP1 PUSH1 0x0 MSTORE PUSH1 0x20 PUSH1 0x0 KECCAK256 SWAP1 JUMPDEST DUP2 SLOAD DUP2 MSTORE SWAP1 PUSH1 0x1 ADD SWAP1 PUSH1 0x20 ADD DUP1 DUP4 GT PUSH2 0x48C JUMPI DUP3 SWAP1 SUB PUSH1 0x1F AND DUP3 ADD SWAP2 JUMPDEST POP POP POP POP POP SWAP1 POP SWAP1 JUMP JUMPDEST PUSH1 0x0 DUP1 PUSH2 0x4BE PUSH2 0x5D4 JUMP JUMPDEST SWAP1 POP PUSH1 0x0 PUSH2 0x4CC DUP3 DUP7 PUSH2 0x54D JUMP JUMPDEST SWAP1 POP DUP4 DUP2 LT ISZERO PUSH2 0x511 JUMPI PUSH1 0x40 MLOAD PUSH32 0x8C379A000000000000000000000000000000000000000000000000000000000 DUP2 MSTORE PUSH1 0x4 ADD PUSH2 0x508 SWAP1 PUSH2 0x101E JUMP JUMPDEST PUSH1 0x40 MLOAD DUP1 SWAP2 SUB SWAP1 REVERT JUMPDEST PUSH2 0x51E DUP3 DUP7 DUP7 DUP5 SUB PUSH2 0x5DC JUMP JUMPDEST PUSH1 0x1 SWAP3 POP POP POP SWAP3 SWAP2 POP POP JUMP JUMPDEST PUSH1 0x0 DUP1 PUSH2 0x535 PUSH2 0x5D4 JUMP JUMPDEST SWAP1 POP PUSH2 0x542 DUP2 DUP6 DUP6 PUSH2 0x831 JUMP JUMPDEST PUSH1 0x1 SWAP2 POP POP SWAP3 SWAP2 POP POP JUMP JUMPDEST PUSH1 0x0 PUSH1 0x1 PUSH1 0x0 DUP5 PUSH20 0xFFFFFFFFFFFFFFFFFFFFFFFFFFFFFFFFFFFFFFFF AND PUSH20 0xFFFFFFFFFFFFFFFFFFFFFFFFFFFFFFFFFFFFFFFF AND DUP2 MSTORE PUSH1 0x20 ADD SWAP1 DUP2 MSTORE PUSH1 0x20 ADD PUSH1 0x0 KECCAK256 PUSH1 0x0 DUP4 PUSH20 0xFFFFFFFFFFFFFFFFFFFFFFFFFFFFFFFFFFFFFFFF AND PUSH20 0xFFFFFFFFFFFFFFFFFFFFFFFFFFFFFFFFFFFFFFFF AND DUP2 MSTORE PUSH1 0x20 ADD SWAP1 DUP2 MSTORE PUSH1 0x20 ADD PUSH1 0x0 KECCAK256 SLOAD SWAP1 POP SWAP3 SWAP2 POP POP JUMP JUMPDEST PUSH1 0x0 CALLER SWAP1 POP SWAP1 JUMP JUMPDEST PUSH1 0x0 PUSH20 0xFFFFFFFFFFFFFFFFFFFFFFFFFFFFFFFFFFFFFFFF AND DUP4 PUSH20 0xFFFFFFFFFFFFFFFFFFFFFFFFFFFFFFFFFFFFFFFF AND SUB PUSH2 0x64B JUMPI PUSH1 0x40 MLOAD PUSH32 0x8C379A000000000000000000000000000000000000000000000000000000000 DUP2 MSTORE PUSH1 0x4 ADD PUSH2 0x642 SWAP1 PUSH2 0x10B0 JUMP JUMPDEST PUSH1 0x40 MLOAD DUP1 SWAP2 SUB SWAP1 REVERT JUMPDEST PUSH1 0x0 PUSH20 0xFFFFFFFFFFFFFFFFFFFFFFFFFFFFFFFFFFFFFFFF AND DUP3 PUSH20 0xFFFFFFFFFFFFFFFFFFFFFFFFFFFFFFFFFFFFFFFF AND SUB PUSH2 0x6BA JUMPI PUSH1 0x40 MLOAD PUSH32 0x8C379A000000000000000000000000000000000000000000000000000000000 DUP2 MSTORE PUSH1 0x4 ADD PUSH2 0x6B1 SWAP1 PUSH2 0x1142 JUMP JUMPDEST PUSH1 0x40 MLOAD DUP1 SWAP2 SUB SWAP1 REVERT JUMPDEST DUP1 PUSH1 0x1 PUSH1 0x0 DUP6 PUSH20 0xFFFFFFFFFFFFFFFFFFFFFFFFFFFFFFFFFFFFFFFF AND PUSH20 0xFFFFFFFFFFFFFFFFFFFFFFFFFFFFFFFFFFFFFFFF AND DUP2 MSTORE PUSH1 0x20 ADD SWAP1 DUP2 MSTORE PUSH1 0x20 ADD PUSH1 0x0 KECCAK256 PUSH1 0x0 DUP5 PUSH20 0xFFFFFFFFFFFFFFFFFFFFFFFFFFFFFFFFFFFFFFFF AND PUSH20 0xFFFFFFFFFFFFFFFFFFFFFFFFFFFFFFFFFFFFFFFF AND DUP2 MSTORE PUSH1 0x20 ADD SWAP1 DUP2 MSTORE PUSH1 0x20 ADD PUSH1 0x0 KECCAK256 DUP2 SWAP1 SSTORE POP DUP2 PUSH20 0xFFFFFFFFFFFFFFFFFFFFFFFFFFFFFFFFFFFFFFFF AND DUP4 PUSH20 0xFFFFFFFFFFFFFFFFFFFFFFFFFFFFFFFFFFFFFFFF AND PUSH32 0x8C5BE1E5EBEC7D5BD14F71427D1E84F3DD0314C0F7B2291E5B200AC8C7C3B925 DUP4 PUSH1 0x40 MLOAD PUSH2 0x798 SWAP2 SWAP1 PUSH2 0xDD7 JUMP JUMPDEST PUSH1 0x40 MLOAD DUP1 SWAP2 SUB SWAP1 LOG3 POP POP POP JUMP JUMPDEST PUSH1 0x0 PUSH2 0x7B1 DUP5 DUP5 PUSH2 0x54D JUMP JUMPDEST SWAP1 POP PUSH32 0xFFFFFFFFFFFFFFFFFFFFFFFFFFFFFFFFFFFFFFFFFFFFFFFFFFFFFFFFFFFFFFFF DUP2 EQ PUSH2 0x82B JUMPI DUP2 DUP2 LT ISZERO PUSH2 0x81D JUMPI PUSH1 0x40 MLOAD PUSH32 0x8C379A000000000000000000000000000000000000000000000000000000000 DUP2 MSTORE PUSH1 0x4 ADD PUSH2 0x814 SWAP1 PUSH2 0x11AE JUMP JUMPDEST PUSH1 0x40 MLOAD DUP1 SWAP2 SUB SWAP1 REVERT JUMPDEST PUSH2 0x82A DUP5 DUP5 DUP5 DUP5 SUB PUSH2 0x5DC JUMP JUMPDEST JUMPDEST POP POP POP POP JUMP JUMPDEST PUSH1 0x0 PUSH20 0xFFFFFFFFFFFFFFFFFFFFFFFFFFFFFFFFFFFFFFFF AND DUP4 PUSH20 0xFFFFFFFFFFFFFFFFFFFFFFFFFFFFFFFFFFFFFFFF AND SUB PUSH2 0x8A0 JUMPI PUSH1 0x40 MLOAD PUSH32 0x8C379A000000000000000000000000000000000000000000000000000000000 DUP2 MSTORE PUSH1 0x4 ADD PUSH2 0x897 SWAP1 PUSH2 0x1240 JUMP JUMPDEST PUSH1 0x40 MLOAD DUP1 SWAP2 SUB SWAP1 REVERT JUMPDEST PUSH1 0x0 PUSH20 0xFFFFFFFFFFFFFFFFFFFFFFFFFFFFFFFFFFFFFFFF AND DUP3 PUSH20 0xFFFFFFFFFFFFFFFFFFFFFFFFFFFFFFFFFFFFFFFF AND SUB PUSH2 0x90F JUMPI PUSH1 0x40 MLOAD PUSH32 0x8C379A000000000000000000000000000000000000000000000000000000000 DUP2 MSTORE PUSH1 0x4 ADD PUSH2 0x906 SWAP1 PUSH2 0x12D2 JUMP JUMPDEST PUSH1 0x40 MLOAD DUP1 SWAP2 SUB SWAP1 REVERT JUMPDEST PUSH2 0x91A DUP4 DUP4 DUP4 PUSH2 0xBFD JUMP JUMPDEST PUSH1 0x0 DUP1 PUSH1 0x0 DUP6 PUSH20 0xFFFFFFFFFFFFFFFFFFFFFFFFFFFFFFFFFFFFFFFF AND PUSH20 0xFFFFFFFFFFFFFFFFFFFFFFFFFFFFFFFFFFFFFFFF AND DUP2 MSTORE PUSH1 0x20 ADD SWAP1 DUP2 MSTORE PUSH1 0x20 ADD PUSH1 0x0 KECCAK256 SLOAD SWAP1 POP DUP2 DUP2 LT ISZERO PUSH2 0x9A0 JUMPI PUSH1 0x40 MLOAD PUSH32 0x8C379A000000000000000000000000000000000000000000000000000000000 DUP2 MSTORE PUSH1 0x4 ADD PUSH2 0x997 SWAP1 PUSH2 0x1364 JUMP JUMPDEST PUSH1 0x40 MLOAD DUP1 SWAP2 SUB SWAP1 REVERT JUMPDEST DUP2 DUP2 SUB PUSH1 0x0 DUP1 DUP7 PUSH20 0xFFFFFFFFFFFFFFFFFFFFFFFFFFFFFFFFFFFFFFFF AND PUSH20 0xFFFFFFFFFFFFFFFFFFFFFFFFFFFFFFFFFFFFFFFF AND DUP2 MSTORE PUSH1 0x20 ADD SWAP1 DUP2 MSTORE PUSH1 0x20 ADD PUSH1 0x0 KECCAK256 DUP2 SWAP1 SSTORE POP DUP2 PUSH1 0x0 DUP1 DUP6 PUSH20 0xFFFFFFFFFFFFFFFFFFFFFFFFFFFFFFFFFFFFFFFF AND PUSH20 0xFFFFFFFFFFFFFFFFFFFFFFFFFFFFFFFFFFFFFFFF AND DUP2 MSTORE PUSH1 0x20 ADD SWAP1 DUP2 MSTORE PUSH1 0x20 ADD PUSH1 0x0 KECCAK256 PUSH1 0x0 DUP3 DUP3 SLOAD ADD SWAP3 POP POP DUP2 SWAP1 SSTORE POP DUP3 PUSH20 0xFFFFFFFFFFFFFFFFFFFFFFFFFFFFFFFFFFFFFFFF AND DUP5 PUSH20 0xFFFFFFFFFFFFFFFFFFFFFFFFFFFFFFFFFFFFFFFF AND PUSH32 0xDDF252AD1BE2C89B69C2B068FC378DAA952BA7F163C4A11628F55A4DF523B3EF DUP5 PUSH1 0x40 MLOAD PUSH2 0xA8E SWAP2 SWAP1 PUSH2 0xDD7 JUMP JUMPDEST PUSH1 0x40 MLOAD DUP1 SWAP2 SUB SWAP1 LOG3 PUSH2 0xAA1 DUP5 DUP5 DUP5 PUSH2 0xC02 JUMP JUMPDEST POP POP POP POP JUMP JUMPDEST PUSH1 0x0 PUSH20 0xFFFFFFFFFFFFFFFFFFFFFFFFFFFFFFFFFFFFFFFF AND DUP3 PUSH20 0xFFFFFFFFFFFFFFFFFFFFFFFFFFFFFFFFFFFFFFFF AND SUB PUSH2 0xB16 JUMPI PUSH1 0x40 MLOAD PUSH32 0x8C379A000000000000000000000000000000000000000000000000000000000 DUP2 MSTORE PUSH1 0x4 ADD PUSH2 0xB0D SWAP1 PUSH2 0x13D0 JUMP JUMPDEST PUSH1 0x40 MLOAD DUP1 SWAP2 SUB SWAP1 REVERT JUMPDEST PUSH2 0xB22 PUSH1 0x0 DUP4 DUP4 PUSH2 0xBFD JUMP JUMPDEST DUP1 PUSH1 0x2 PUSH1 0x0 DUP3 DUP3 SLOAD PUSH2 0xB34 SWAP2 SWAP1 PUSH2 0xF78 JUMP JUMPDEST SWAP3 POP POP DUP2 SWAP1 SSTORE POP DUP1 PUSH1 0x0 DUP1 DUP5 PUSH20 0xFFFFFFFFFFFFFFFFFFFFFFFFFFFFFFFFFFFFFFFF AND PUSH20 0xFFFFFFFFFFFFFFFFFFFFFFFFFFFFFFFFFFFFFFFF AND DUP2 MSTORE PUSH1 0x20 ADD SWAP1 DUP2 MSTORE PUSH1 0x20 ADD PUSH1 0x0 KECCAK256 PUSH1 0x0 DUP3 DUP3 SLOAD ADD SWAP3 POP POP DUP2 SWAP1 SSTORE POP DUP2 PUSH20 0xFFFFFFFFFFFFFFFFFFFFFFFFFFFFFFFFFFFFFFFF AND PUSH1 0x0 PUSH20 0xFFFFFFFFFFFFFFFFFFFFFFFFFFFFFFFFFFFFFFFF AND PUSH32 0xDDF252AD1BE2C89B69C2B068FC378DAA952BA7F163C4A11628F55A4DF523B3EF DUP4 PUSH1 0x40 MLOAD PUSH2 0xBE5 SWAP2 SWAP1 PUSH2 0xDD7 JUMP JUMPDEST PUSH1 0x40 MLOAD DUP1 SWAP2 SUB SWAP1 LOG3 PUSH2 0xBF9 PUSH1 0x0 DUP4 DUP4 PUSH2 0xC02 JUMP JUMPDEST POP POP JUMP JUMPDEST POP POP POP JUMP JUMPDEST POP POP POP JUMP JUMPDEST PUSH1 0x0 DUP2 MLOAD SWAP1 POP SWAP2 SWAP1 POP JUMP JUMPDEST PUSH1 0x0 DUP3 DUP3 MSTORE PUSH1 0x20 DUP3 ADD SWAP1 POP SWAP3 SWAP2 POP POP JUMP JUMPDEST PUSH1 0x0 JUMPDEST DUP4 DUP2 LT ISZERO PUSH2 0xC41 JUMPI DUP1 DUP3 ADD MLOAD DUP2 DUP5 ADD MSTORE PUSH1 0x20 DUP2 ADD SWAP1 POP PUSH2 0xC26 JUMP JUMPDEST PUSH1 0x0 DUP5 DUP5 ADD MSTORE POP POP POP POP JUMP JUMPDEST PUSH1 0x0 PUSH1 0x1F NOT PUSH1 0x1F DUP4 ADD AND SWAP1 POP SWAP2 SWAP1 POP JUMP JUMPDEST PUSH1 0x0 PUSH2 0xC69 DUP3 PUSH2 0xC07 JUMP JUMPDEST PUSH2 0xC73 DUP2 DUP6 PUSH2 0xC12 JUMP JUMPDEST SWAP4 POP PUSH2 0xC83 DUP2 DUP6 PUSH1 0x20 DUP7 ADD PUSH2 0xC23 JUMP JUMPDEST PUSH2 0xC8C DUP2 PUSH2 0xC4D JUMP JUMPDEST DUP5 ADD SWAP2 POP POP SWAP3 SWAP2 POP POP JUMP JUMPDEST PUSH1 0x0 PUSH1 0x20 DUP3 ADD SWAP1 POP DUP2 DUP2 SUB PUSH1 0x0 DUP4 ADD MSTORE PUSH2 0xCB1 DUP2 DUP5 PUSH2 0xC5E JUMP JUMPDEST SWAP1 POP SWAP3 SWAP2 POP POP JUMP JUMPDEST PUSH1 0x0 DUP1 REVERT JUMPDEST PUSH1 0x0 PUSH20 0xFFFFFFFFFFFFFFFFFFFFFFFFFFFFFFFFFFFFFFFF DUP3 AND SWAP1 POP SWAP2 SWAP1 POP JUMP JUMPDEST PUSH1 0x0 PUSH2 0xCE9 DUP3 PUSH2 0xCBE JUMP JUMPDEST SWAP1 POP SWAP2 SWAP1 POP JUMP JUMPDEST PUSH2 0xCF9 DUP2 PUSH2 0xCDE JUMP JUMPDEST DUP2 EQ PUSH2 0xD04 JUMPI PUSH1 0x0 DUP1 REVERT JUMPDEST POP JUMP JUMPDEST PUSH1 0x0 DUP2 CALLDATALOAD SWAP1 POP PUSH2 0xD16 DUP2 PUSH2 0xCF0 JUMP JUMPDEST SWAP3 SWAP2 POP POP JUMP JUMPDEST PUSH1 0x0 DUP2 SWAP1 POP SWAP2 SWAP1 POP JUMP JUMPDEST PUSH2 0xD2F DUP2 PUSH2 0xD1C JUMP JUMPDEST DUP2 EQ PUSH2 0xD3A JUMPI PUSH1 0x0 DUP1 REVERT JUMPDEST POP JUMP JUMPDEST PUSH1 0x0 DUP2 CALLDATALOAD SWAP1 POP PUSH2 0xD4C DUP2 PUSH2 0xD26 JUMP JUMPDEST SWAP3 SWAP2 POP POP JUMP JUMPDEST PUSH1 0x0 DUP1 PUSH1 0x40 DUP4 DUP6 SUB SLT ISZERO PUSH2 0xD69 JUMPI PUSH2 0xD68 PUSH2 0xCB9 JUMP JUMPDEST JUMPDEST PUSH1 0x0 PUSH2 0xD77 DUP6 DUP3 DUP7 ADD PUSH2 0xD07 JUMP JUMPDEST SWAP3 POP POP PUSH1 0x20 PUSH2 0xD88 DUP6 DUP3 DUP7 ADD PUSH2 0xD3D JUMP JUMPDEST SWAP2 POP POP SWAP3 POP SWAP3 SWAP1 POP JUMP JUMPDEST PUSH1 0x0 DUP2 ISZERO ISZERO SWAP1 POP SWAP2 SWAP1 POP JUMP JUMPDEST PUSH2 0xDA7 DUP2 PUSH2 0xD92 JUMP JUMPDEST DUP3 MSTORE POP POP JUMP JUMPDEST PUSH1 0x0 PUSH1 0x20 DUP3 ADD SWAP1 POP PUSH2 0xDC2 PUSH1 0x0 DUP4 ADD DUP5 PUSH2 0xD9E JUMP JUMPDEST SWAP3 SWAP2 POP POP JUMP JUMPDEST PUSH2 0xDD1 DUP2 PUSH2 0xD1C JUMP JUMPDEST DUP3 MSTORE POP POP JUMP JUMPDEST PUSH1 0x0 PUSH1 0x20 DUP3 ADD SWAP1 POP PUSH2 0xDEC PUSH1 0x0 DUP4 ADD DUP5 PUSH2 0xDC8 JUMP JUMPDEST SWAP3 SWAP2 POP POP JUMP JUMPDEST PUSH1 0x0 DUP1 PUSH1 0x0 PUSH1 0x60 DUP5 DUP7 SUB SLT ISZERO PUSH2 0xE0B JUMPI PUSH2 0xE0A PUSH2 0xCB9 JUMP JUMPDEST JUMPDEST PUSH1 0x0 PUSH2 0xE19 DUP7 DUP3 DUP8 ADD PUSH2 0xD07 JUMP JUMPDEST SWAP4 POP POP PUSH1 0x20 PUSH2 0xE2A DUP7 DUP3 DUP8 ADD PUSH2 0xD07 JUMP JUMPDEST SWAP3 POP POP PUSH1 0x40 PUSH2 0xE3B DUP7 DUP3 DUP8 ADD PUSH2 0xD3D JUMP JUMPDEST SWAP2 POP POP SWAP3 POP SWAP3 POP SWAP3 JUMP JUMPDEST PUSH1 0x0 PUSH1 0xFF DUP3 AND SWAP1 POP SWAP2 SWAP1 POP JUMP JUMPDEST PUSH2 0xE5B DUP2 PUSH2 0xE45 JUMP JUMPDEST DUP3 MSTORE POP POP JUMP JUMPDEST PUSH1 0x0 PUSH1 0x20 DUP3 ADD SWAP1 POP PUSH2 0xE76 PUSH1 0x0 DUP4 ADD DUP5 PUSH2 0xE52 JUMP JUMPDEST SWAP3 SWAP2 POP POP JUMP JUMPDEST PUSH1 0x0 PUSH1 0x20 DUP3 DUP5 SUB SLT ISZERO PUSH2 0xE92 JUMPI PUSH2 0xE91 PUSH2 0xCB9 JUMP JUMPDEST JUMPDEST PUSH1 0x0 PUSH2 0xEA0 DUP5 DUP3 DUP6 ADD PUSH2 0xD07 JUMP JUMPDEST SWAP2 POP POP SWAP3 SWAP2 POP POP JUMP JUMPDEST PUSH1 0x0 DUP1 PUSH1 0x40 DUP4 DUP6 SUB SLT ISZERO PUSH2 0xEC0 JUMPI PUSH2 0xEBF PUSH2 0xCB9 JUMP JUMPDEST JUMPDEST PUSH1 0x0 PUSH2 0xECE DUP6 DUP3 DUP7 ADD PUSH2 0xD07 JUMP JUMPDEST SWAP3 POP POP PUSH1 0x20 PUSH2 0xEDF DUP6 DUP3 DUP7 ADD PUSH2 0xD07 JUMP JUMPDEST SWAP2 POP POP SWAP3 POP SWAP3 SWAP1 POP JUMP JUMPDEST PUSH32 0x4E487B7100000000000000000000000000000000000000000000000000000000 PUSH1 0x0 MSTORE PUSH1 0x22 PUSH1 0x4 MSTORE PUSH1 0x24 PUSH1 0x0 REVERT JUMPDEST PUSH1 0x0 PUSH1 0x2 DUP3 DIV SWAP1 POP PUSH1 0x1 DUP3 AND DUP1 PUSH2 0xF30 JUMPI PUSH1 0x7F DUP3 AND SWAP2 POP JUMPDEST PUSH1 0x20 DUP3 LT DUP2 SUB PUSH2 0xF43 JUMPI PUSH2 0xF42 PUSH2 0xEE9 JUMP JUMPDEST JUMPDEST POP SWAP2 SWAP1 POP JUMP JUMPDEST PUSH32 0x4E487B7100000000000000000000000000000000000000000000000000000000 PUSH1 0x0 MSTORE PUSH1 0x11 PUSH1 0x4 MSTORE PUSH1 0x24 PUSH1 0x0 REVERT JUMPDEST PUSH1 0x0 PUSH2 0xF83 DUP3 PUSH2 0xD1C JUMP JUMPDEST SWAP2 POP PUSH2 0xF8E DUP4 PUSH2 0xD1C JUMP JUMPDEST SWAP3 POP DUP3 DUP3 ADD SWAP1 POP DUP1 DUP3 GT ISZERO PUSH2 0xFA6 JUMPI PUSH2 0xFA5 PUSH2 0xF49 JUMP JUMPDEST JUMPDEST SWAP3 SWAP2 POP POP JUMP JUMPDEST PUSH32 0x45524332303A2064656372656173656420616C6C6F77616E63652062656C6F77 PUSH1 0x0 DUP3 ADD MSTORE PUSH32 0x207A65726F000000000000000000000000000000000000000000000000000000 PUSH1 0x20 DUP3 ADD MSTORE POP JUMP JUMPDEST PUSH1 0x0 PUSH2 0x1008 PUSH1 0x25 DUP4 PUSH2 0xC12 JUMP JUMPDEST SWAP2 POP PUSH2 0x1013 DUP3 PUSH2 0xFAC JUMP JUMPDEST PUSH1 0x40 DUP3 ADD SWAP1 POP SWAP2 SWAP1 POP JUMP JUMPDEST PUSH1 0x0 PUSH1 0x20 DUP3 ADD SWAP1 POP DUP2 DUP2 SUB PUSH1 0x0 DUP4 ADD MSTORE PUSH2 0x1037 DUP2 PUSH2 0xFFB JUMP JUMPDEST SWAP1 POP SWAP2 SWAP1 POP JUMP JUMPDEST PUSH32 0x45524332303A20617070726F76652066726F6D20746865207A65726F20616464 PUSH1 0x0 DUP3 ADD MSTORE PUSH32 0x7265737300000000000000000000000000000000000000000000000000000000 PUSH1 0x20 DUP3 ADD MSTORE POP JUMP JUMPDEST PUSH1 0x0 PUSH2 0x109A PUSH1 0x24 DUP4 PUSH2 0xC12 JUMP JUMPDEST SWAP2 POP PUSH2 0x10A5 DUP3 PUSH2 0x103E JUMP JUMPDEST PUSH1 0x40 DUP3 ADD SWAP1 POP SWAP2 SWAP1 POP JUMP JUMPDEST PUSH1 0x0 PUSH1 0x20 DUP3 ADD SWAP1 POP DUP2 DUP2 SUB PUSH1 0x0 DUP4 ADD MSTORE PUSH2 0x10C9 DUP2 PUSH2 0x108D JUMP JUMPDEST SWAP1 POP SWAP2 SWAP1 POP JUMP JUMPDEST PUSH32 0x45524332303A20617070726F766520746F20746865207A65726F206164647265 PUSH1 0x0 DUP3 ADD MSTORE PUSH32 0x7373000000000000000000000000000000000000000000000000000000000000 PUSH1 0x20 DUP3 ADD MSTORE POP JUMP JUMPDEST PUSH1 0x0 PUSH2 0x112C PUSH1 0x22 DUP4 PUSH2 0xC12 JUMP JUMPDEST SWAP2 POP PUSH2 0x1137 DUP3 PUSH2 0x10D0 JUMP JUMPDEST PUSH1 0x40 DUP3 ADD SWAP1 POP SWAP2 SWAP1 POP JUMP JUMPDEST PUSH1 0x0 PUSH1 0x20 DUP3 ADD SWAP1 POP DUP2 DUP2 SUB PUSH1 0x0 DUP4 ADD MSTORE PUSH2 0x115B DUP2 PUSH2 0x111F JUMP JUMPDEST SWAP1 POP SWAP2 SWAP1 POP JUMP JUMPDEST PUSH32 0x45524332303A20696E73756666696369656E7420616C6C6F77616E6365000000 PUSH1 0x0 DUP3 ADD MSTORE POP JUMP JUMPDEST PUSH1 0x0 PUSH2 0x1198 PUSH1 0x1D DUP4 PUSH2 0xC12 JUMP JUMPDEST SWAP2 POP PUSH2 0x11A3 DUP3 PUSH2 0x1162 JUMP JUMPDEST PUSH1 0x20 DUP3 ADD SWAP1 POP SWAP2 SWAP1 POP JUMP JUMPDEST PUSH1 0x0 PUSH1 0x20 DUP3 ADD SWAP1 POP DUP2 DUP2 SUB PUSH1 0x0 DUP4 ADD MSTORE PUSH2 0x11C7 DUP2 PUSH2 0x118B JUMP JUMPDEST SWAP1 POP SWAP2 SWAP1 POP JUMP JUMPDEST PUSH32 0x45524332303A207472616E736665722066726F6D20746865207A65726F206164 PUSH1 0x0 DUP3 ADD MSTORE PUSH32 0x6472657373000000000000000000000000000000000000000000000000000000 PUSH1 0x20 DUP3 ADD MSTORE POP JUMP JUMPDEST PUSH1 0x0 PUSH2 0x122A PUSH1 0x25 DUP4 PUSH2 0xC12 JUMP JUMPDEST SWAP2 POP PUSH2 0x1235 DUP3 PUSH2 0x11CE JUMP JUMPDEST PUSH1 0x40 DUP3 ADD SWAP1 POP SWAP2 SWAP1 POP JUMP JUMPDEST PUSH1 0x0 PUSH1 0x20 DUP3 ADD SWAP1 POP DUP2 DUP2 SUB PUSH1 0x0 DUP4 ADD MSTORE PUSH2 0x1259 DUP2 PUSH2 0x121D JUMP JUMPDEST SWAP1 POP SWAP2 SWAP1 POP JUMP JUMPDEST PUSH32 0x45524332303A207472616E7366657220746F20746865207A65726F2061646472 PUSH1 0x0 DUP3 ADD MSTORE PUSH32 0x6573730000000000000000000000000000000000000000000000000000000000 PUSH1 0x20 DUP3 ADD MSTORE POP JUMP JUMPDEST PUSH1 0x0 PUSH2 0x12BC PUSH1 0x23 DUP4 PUSH2 0xC12 JUMP JUMPDEST SWAP2 POP PUSH2 0x12C7 DUP3 PUSH2 0x1260 JUMP JUMPDEST PUSH1 0x40 DUP3 ADD SWAP1 POP SWAP2 SWAP1 POP JUMP JUMPDEST PUSH1 0x0 PUSH1 0x20 DUP3 ADD SWAP1 POP DUP2 DUP2 SUB PUSH1 0x0 DUP4 ADD MSTORE PUSH2 0x12EB DUP2 PUSH2 0x12AF JUMP JUMPDEST SWAP1 POP SWAP2 SWAP1 POP JUMP JUMPDEST PUSH32 0x45524332303A207472616E7366657220616D6F756E7420657863656564732062 PUSH1 0x0 DUP3 ADD MSTORE PUSH32 0x616C616E63650000000000000000000000000000000000000000000000000000 PUSH1 0x20 DUP3 ADD MSTORE POP JUMP JUMPDEST PUSH1 0x0 PUSH2 0x134E PUSH1 0x26 DUP4 PUSH2 0xC12 JUMP JUMPDEST SWAP2 POP PUSH2 0x1359 DUP3 PUSH2 0x12F2 JUMP JUMPDEST PUSH1 0x40 DUP3 ADD SWAP1 POP SWAP2 SWAP1 POP JUMP JUMPDEST PUSH1 0x0 PUSH1 0x20 DUP3 ADD SWAP1 POP DUP2 DUP2 SUB PUSH1 0x0 DUP4 ADD MSTORE PUSH2 0x137D DUP2 PUSH2 0x1341 JUMP JUMPDEST SWAP1 POP SWAP2 SWAP1 POP JUMP JUMPDEST PUSH32 0x45524332303A206D696E7420746F20746865207A65726F206164647265737300 PUSH1 0x0 DUP3 ADD MSTORE POP JUMP JUMPDEST PUSH1 0x0 PUSH2 0x13BA PUSH1 0x1F DUP4 PUSH2 0xC12 JUMP JUMPDEST SWAP2 POP PUSH2 0x13C5 DUP3 PUSH2 0x1384 JUMP JUMPDEST PUSH1 0x20 DUP3 ADD SWAP1 POP SWAP2 SWAP1 POP JUMP JUMPDEST PUSH1 0x0 PUSH1 0x20 DUP3 ADD SWAP1 POP DUP2 DUP2 SUB PUSH1 0x0 DUP4 ADD MSTORE PUSH2 0x13E9 DUP2 PUSH2 0x13AD JUMP JUMPDEST SWAP1 POP SWAP2 SWAP1 POP JUMP INVALID LOG2 PUSH5 0x6970667358 0x22 SLT KECCAK256 0xFB 0xDB 0xD1 PUSH18 0x153A1A0346C03E34114DFFE8C284A41F10CF PUSH26 0x451DE00BD829759E8E64736F6C63430008130033000000000000 "
				},
				"gasEstimates": {
					"creation": {
						"codeDepositCost": "678800",
						"executionCost": "infinite",
						"totalCost": "infinite"
					},
					"external": {
						"checkAllowance(address,address)": "infinite",
						"checkBal(address)": "infinite",
						"checkCredit()": "infinite",
						"getCredit()": "infinite",
						"giveApproval(address,uint256)": "infinite",
						"transfer(address,uint256)": "infinite",
						"transferFrom(address,address,uint256)": "infinite"
					}
				},
				"methodIdentifiers": {
					"checkAllowance(address,address)": "8b099b23",
					"checkBal(address)": "584a0927",
					"checkCredit()": "6cba6290",
					"getCredit()": "59296e7b",
					"giveApproval(address,uint256)": "0bff0bcf",
					"transfer(address,uint256)": "a9059cbb",
					"transferFrom(address,address,uint256)": "23b872dd"
				}
			},
			"storageLayout": {
				"storage": [
					{
						"astId": 605,
						"contract": "contracts/Gem.sol:Gem",
						"label": "erc20Contract",
						"offset": 0,
						"slot": "0",
						"type": "t_contract(ERC20)599"
					},
					{
						"astId": 607,
						"contract": "contracts/Gem.sol:Gem",
						"label": "supplyLimit",
						"offset": 0,
						"slot": "1",
						"type": "t_uint256"
					},
					{
						"astId": 609,
						"contract": "contracts/Gem.sol:Gem",
						"label": "currentSupply",
						"offset": 0,
						"slot": "2",
						"type": "t_uint256"
					},
					{
						"astId": 611,
						"contract": "contracts/Gem.sol:Gem",
						"label": "owner",
						"offset": 0,
						"slot": "3",
						"type": "t_address"
					}
				],
				"types": {
					"t_address": {
						"encoding": "inplace",
						"label": "address",
						"numberOfBytes": "20"
					},
					"t_contract(ERC20)599": {
						"encoding": "inplace",
						"label": "contract ERC20",
						"numberOfBytes": "20"
					},
					"t_uint256": {
						"encoding": "inplace",
						"label": "uint256",
						"numberOfBytes": "32"
					}
				}
			},
			"userdoc": {
				"kind": "user",
				"methods": {},
				"version": 1
			}
		}
	}
}