{
	"contracts/StakingRewards.sol": {
		"StakingRewards": {
			"abi": [
				{
					"inputs": [
						{
							"internalType": "address",
							"name": "_stakingToken",
							"type": "address"
						},
						{
							"internalType": "address",
							"name": "_rewardsToken",
							"type": "address"
						},
						{
							"internalType": "uint256",
							"name": "_rewardPool",
							"type": "uint256"
						}
					],
					"stateMutability": "nonpayable",
					"type": "constructor"
				},
				{
					"anonymous": false,
					"inputs": [
						{
							"indexed": true,
							"internalType": "address",
							"name": "user",
							"type": "address"
						},
						{
							"indexed": false,
							"internalType": "uint256",
							"name": "reward",
							"type": "uint256"
						}
					],
					"name": "RewardPaid",
					"type": "event"
				},
				{
					"anonymous": false,
					"inputs": [
						{
							"indexed": false,
							"internalType": "uint256",
							"name": "rewardToDistribute",
							"type": "uint256"
						}
					],
					"name": "RewardToDistribute",
					"type": "event"
				},
				{
					"anonymous": false,
					"inputs": [
						{
							"indexed": false,
							"internalType": "uint256",
							"name": "currentTime",
							"type": "uint256"
						},
						{
							"indexed": false,
							"internalType": "uint256",
							"name": "timeElapsed",
							"type": "uint256"
						},
						{
							"indexed": false,
							"internalType": "uint256",
							"name": "rewardAmount",
							"type": "uint256"
						},
						{
							"indexed": false,
							"internalType": "uint256",
							"name": "rewardToDistribute",
							"type": "uint256"
						}
					],
					"name": "RewardUpdated",
					"type": "event"
				},
				{
					"anonymous": false,
					"inputs": [
						{
							"indexed": true,
							"internalType": "address",
							"name": "user",
							"type": "address"
						},
						{
							"indexed": false,
							"internalType": "uint256",
							"name": "amount",
							"type": "uint256"
						},
						{
							"indexed": false,
							"internalType": "uint256",
							"name": "currentTime",
							"type": "uint256"
						},
						{
							"indexed": false,
							"internalType": "uint256",
							"name": "lastUpdateTime",
							"type": "uint256"
						},
						{
							"indexed": false,
							"internalType": "uint256",
							"name": "timeElapsed",
							"type": "uint256"
						},
						{
							"indexed": false,
							"internalType": "uint256",
							"name": "rewardRate",
							"type": "uint256"
						},
						{
							"indexed": false,
							"internalType": "uint256",
							"name": "rewardAmount",
							"type": "uint256"
						}
					],
					"name": "Staked",
					"type": "event"
				},
				{
					"anonymous": false,
					"inputs": [
						{
							"indexed": true,
							"internalType": "address",
							"name": "user",
							"type": "address"
						},
						{
							"indexed": false,
							"internalType": "uint256",
							"name": "amount",
							"type": "uint256"
						}
					],
					"name": "Withdrawn",
					"type": "event"
				},
				{
					"inputs": [
						{
							"internalType": "address",
							"name": "account",
							"type": "address"
						}
					],
					"name": "_updateRewards",
					"outputs": [],
					"stateMutability": "nonpayable",
					"type": "function"
				},
				{
					"inputs": [],
					"name": "claimReward",
					"outputs": [],
					"stateMutability": "nonpayable",
					"type": "function"
				},
				{
					"inputs": [],
					"name": "contractOwner",
					"outputs": [
						{
							"internalType": "address",
							"name": "",
							"type": "address"
						}
					],
					"stateMutability": "view",
					"type": "function"
				},
				{
					"inputs": [],
					"name": "dailyRewardCounter",
					"outputs": [
						{
							"internalType": "uint256",
							"name": "",
							"type": "uint256"
						}
					],
					"stateMutability": "view",
					"type": "function"
				},
				{
					"inputs": [
						{
							"internalType": "address",
							"name": "account",
							"type": "address"
						}
					],
					"name": "earned",
					"outputs": [
						{
							"internalType": "uint256",
							"name": "",
							"type": "uint256"
						}
					],
					"stateMutability": "view",
					"type": "function"
				},
				{
					"inputs": [],
					"name": "gem",
					"outputs": [
						{
							"internalType": "contract Gem",
							"name": "",
							"type": "address"
						}
					],
					"stateMutability": "view",
					"type": "function"
				},
				{
					"inputs": [
						{
							"internalType": "address",
							"name": "account",
							"type": "address"
						}
					],
					"name": "getPendingReward",
					"outputs": [
						{
							"internalType": "uint256",
							"name": "",
							"type": "uint256"
						}
					],
					"stateMutability": "view",
					"type": "function"
				},
				{
					"inputs": [],
					"name": "lastUpdateTime",
					"outputs": [
						{
							"internalType": "uint256",
							"name": "",
							"type": "uint256"
						}
					],
					"stateMutability": "view",
					"type": "function"
				},
				{
					"inputs": [],
					"name": "lpToken",
					"outputs": [
						{
							"internalType": "contract ERC20",
							"name": "",
							"type": "address"
						}
					],
					"stateMutability": "view",
					"type": "function"
				},
				{
					"inputs": [],
					"name": "maxDailyReward",
					"outputs": [
						{
							"internalType": "uint256",
							"name": "",
							"type": "uint256"
						}
					],
					"stateMutability": "view",
					"type": "function"
				},
				{
					"inputs": [],
					"name": "rewardPerToken",
					"outputs": [
						{
							"internalType": "uint256",
							"name": "",
							"type": "uint256"
						}
					],
					"stateMutability": "view",
					"type": "function"
				},
				{
					"inputs": [],
					"name": "rewardPerTokenStored",
					"outputs": [
						{
							"internalType": "uint256",
							"name": "",
							"type": "uint256"
						}
					],
					"stateMutability": "view",
					"type": "function"
				},
				{
					"inputs": [],
					"name": "rewardRate",
					"outputs": [
						{
							"internalType": "uint256",
							"name": "",
							"type": "uint256"
						}
					],
					"stateMutability": "view",
					"type": "function"
				},
				{
					"inputs": [],
					"name": "setStakingPoolLive",
					"outputs": [],
					"stateMutability": "nonpayable",
					"type": "function"
				},
				{
					"inputs": [
						{
							"internalType": "uint256",
							"name": "amount",
							"type": "uint256"
						}
					],
					"name": "stake",
					"outputs": [],
					"stateMutability": "nonpayable",
					"type": "function"
				},
				{
					"inputs": [
						{
							"internalType": "address",
							"name": "",
							"type": "address"
						}
					],
					"name": "stakers",
					"outputs": [
						{
							"internalType": "uint256",
							"name": "amount",
							"type": "uint256"
						},
						{
							"internalType": "uint256",
							"name": "rewardPerTokenPaid",
							"type": "uint256"
						},
						{
							"internalType": "uint256",
							"name": "rewards",
							"type": "uint256"
						},
						{
							"internalType": "uint256",
							"name": "lastUpdateTimeForAccount",
							"type": "uint256"
						}
					],
					"stateMutability": "view",
					"type": "function"
				},
				{
					"inputs": [],
					"name": "stakingPoolLive",
					"outputs": [
						{
							"internalType": "bool",
							"name": "",
							"type": "bool"
						}
					],
					"stateMutability": "view",
					"type": "function"
				},
				{
					"inputs": [],
					"name": "totalRewardPool",
					"outputs": [
						{
							"internalType": "uint256",
							"name": "",
							"type": "uint256"
						}
					],
					"stateMutability": "view",
					"type": "function"
				},
				{
					"inputs": [],
					"name": "totalStaked",
					"outputs": [
						{
							"internalType": "uint256",
							"name": "",
							"type": "uint256"
						}
					],
					"stateMutability": "view",
					"type": "function"
				},
				{
					"inputs": [
						{
							"internalType": "uint256",
							"name": "amount",
							"type": "uint256"
						}
					],
					"name": "withdraw",
					"outputs": [],
					"stateMutability": "nonpayable",
					"type": "function"
				}
			],
			"devdoc": {
				"kind": "dev",
				"methods": {},
				"version": 1
			},
			"evm": {
				"assembly": "    /* \"contracts/StakingRewards.sol\":68:7152  contract StakingRewards {... */\n  mstore(0x40, 0x80)\n    /* \"contracts/StakingRewards.sol\":1129:1741  constructor(address _stakingToken, address _rewardsToken, uint256 _rewardPool) {... */\n  callvalue\n  dup1\n  iszero\n  tag_1\n  jumpi\n  0x00\n  dup1\n  revert\ntag_1:\n  pop\n  mload(0x40)\n  sub(codesize, bytecodeSize)\n  dup1\n  bytecodeSize\n  dup4\n  codecopy\n  dup2\n  dup2\n  add\n  0x40\n  mstore\n  dup2\n  add\n  swap1\n  tag_2\n  swap2\n  swap1\n  tag_3\n  jump\t// in\ntag_2:\n    /* \"contracts/StakingRewards.sol\":1234:1247  _stakingToken */\n  dup3\n    /* \"contracts/StakingRewards.sol\":1218:1225  lpToken */\n  0x00\n  dup1\n    /* \"contracts/StakingRewards.sol\":1218:1248  lpToken = ERC20(_stakingToken) */\n  0x0100\n  exp\n  dup2\n  sload\n  dup2\n  0xffffffffffffffffffffffffffffffffffffffff\n  mul\n  not\n  and\n  swap1\n  dup4\n  0xffffffffffffffffffffffffffffffffffffffff\n  and\n  mul\n  or\n  swap1\n  sstore\n  pop\n    /* \"contracts/StakingRewards.sol\":1268:1281  _rewardsToken */\n  dup2\n    /* \"contracts/StakingRewards.sol\":1258:1261  gem */\n  0x01\n  0x00\n    /* \"contracts/StakingRewards.sol\":1258:1282  gem = Gem(_rewardsToken) */\n  0x0100\n  exp\n  dup2\n  sload\n  dup2\n  0xffffffffffffffffffffffffffffffffffffffff\n  mul\n  not\n  and\n  swap1\n  dup4\n  0xffffffffffffffffffffffffffffffffffffffff\n  and\n  mul\n  or\n  swap1\n  sstore\n  pop\n    /* \"contracts/StakingRewards.sol\":1310:1321  _rewardPool */\n  dup1\n    /* \"contracts/StakingRewards.sol\":1292:1307  totalRewardPool */\n  0x08\n    /* \"contracts/StakingRewards.sol\":1292:1321  totalRewardPool = _rewardPool */\n  dup2\n  swap1\n  sstore\n  pop\n    /* \"contracts/StakingRewards.sol\":1375:1378  365 */\n  0x016d\n    /* \"contracts/StakingRewards.sol\":1367:1371  1e18 */\n  0x0de0b6b3a7640000\n    /* \"contracts/StakingRewards.sol\":1349:1364  totalRewardPool */\n  sload(0x08)\n    /* \"contracts/StakingRewards.sol\":1349:1371  totalRewardPool * 1e18 */\n  tag_6\n  swap2\n  swap1\n  tag_7\n  jump\t// in\ntag_6:\n    /* \"contracts/StakingRewards.sol\":1348:1378  (totalRewardPool * 1e18) / 365 */\n  tag_8\n  swap2\n  swap1\n  tag_9\n  jump\t// in\ntag_8:\n    /* \"contracts/StakingRewards.sol\":1331:1345  maxDailyReward */\n  0x04\n    /* \"contracts/StakingRewards.sol\":1331:1378  maxDailyReward = (totalRewardPool * 1e18) / 365 */\n  dup2\n  swap1\n  sstore\n  pop\n    /* \"contracts/StakingRewards.sol\":1418:1423  86400 */\n  0x015180\n    /* \"contracts/StakingRewards.sol\":1401:1415  maxDailyReward */\n  sload(0x04)\n    /* \"contracts/StakingRewards.sol\":1401:1423  maxDailyReward / 86400 */\n  tag_10\n  swap2\n  swap1\n  tag_9\n  jump\t// in\ntag_10:\n    /* \"contracts/StakingRewards.sol\":1388:1398  rewardRate */\n  0x05\n    /* \"contracts/StakingRewards.sol\":1388:1423  rewardRate = maxDailyReward / 86400 */\n  dup2\n  swap1\n  sstore\n  pop\n    /* \"contracts/StakingRewards.sol\":1507:1522  block.timestamp */\n  timestamp\n    /* \"contracts/StakingRewards.sol\":1490:1504  lastUpdateTime */\n  0x02\n    /* \"contracts/StakingRewards.sol\":1490:1522  lastUpdateTime = block.timestamp */\n  dup2\n  swap1\n  sstore\n  pop\n    /* \"contracts/StakingRewards.sol\":1550:1555  false */\n  0x00\n    /* \"contracts/StakingRewards.sol\":1532:1547  stakingPoolLive */\n  0x09\n  0x14\n    /* \"contracts/StakingRewards.sol\":1532:1555  stakingPoolLive = false */\n  0x0100\n  exp\n  dup2\n  sload\n  dup2\n  0xff\n  mul\n  not\n  and\n  swap1\n  dup4\n  iszero\n  iszero\n  mul\n  or\n  swap1\n  sstore\n  pop\n    /* \"contracts/StakingRewards.sol\":1724:1734  msg.sender */\n  caller\n    /* \"contracts/StakingRewards.sol\":1708:1721  contractOwner */\n  0x09\n  0x00\n    /* \"contracts/StakingRewards.sol\":1708:1734  contractOwner = msg.sender */\n  0x0100\n  exp\n  dup2\n  sload\n  dup2\n  0xffffffffffffffffffffffffffffffffffffffff\n  mul\n  not\n  and\n  swap1\n  dup4\n  0xffffffffffffffffffffffffffffffffffffffff\n  and\n  mul\n  or\n  swap1\n  sstore\n  pop\n    /* \"contracts/StakingRewards.sol\":1129:1741  constructor(address _stakingToken, address _rewardsToken, uint256 _rewardPool) {... */\n  pop\n  pop\n  pop\n    /* \"contracts/StakingRewards.sol\":68:7152  contract StakingRewards {... */\n  jump(tag_11)\n    /* \"#utility.yul\":88:205   */\ntag_13:\n    /* \"#utility.yul\":197:198   */\n  0x00\n    /* \"#utility.yul\":194:195   */\n  dup1\n    /* \"#utility.yul\":187:199   */\n  revert\n    /* \"#utility.yul\":334:460   */\ntag_15:\n    /* \"#utility.yul\":371:378   */\n  0x00\n    /* \"#utility.yul\":411:453   */\n  0xffffffffffffffffffffffffffffffffffffffff\n    /* \"#utility.yul\":404:409   */\n  dup3\n    /* \"#utility.yul\":400:454   */\n  and\n    /* \"#utility.yul\":389:454   */\n  swap1\n  pop\n    /* \"#utility.yul\":334:460   */\n  swap2\n  swap1\n  pop\n  jump\t// out\n    /* \"#utility.yul\":466:562   */\ntag_16:\n    /* \"#utility.yul\":503:510   */\n  0x00\n    /* \"#utility.yul\":532:556   */\n  tag_30\n    /* \"#utility.yul\":550:555   */\n  dup3\n    /* \"#utility.yul\":532:556   */\n  tag_15\n  jump\t// in\ntag_30:\n    /* \"#utility.yul\":521:556   */\n  swap1\n  pop\n    /* \"#utility.yul\":466:562   */\n  swap2\n  swap1\n  pop\n  jump\t// out\n    /* \"#utility.yul\":568:690   */\ntag_17:\n    /* \"#utility.yul\":641:665   */\n  tag_32\n    /* \"#utility.yul\":659:664   */\n  dup2\n    /* \"#utility.yul\":641:665   */\n  tag_16\n  jump\t// in\ntag_32:\n    /* \"#utility.yul\":634:639   */\n  dup2\n    /* \"#utility.yul\":631:666   */\n  eq\n    /* \"#utility.yul\":621:684   */\n  tag_33\n  jumpi\n    /* \"#utility.yul\":680:681   */\n  0x00\n    /* \"#utility.yul\":677:678   */\n  dup1\n    /* \"#utility.yul\":670:682   */\n  revert\n    /* \"#utility.yul\":621:684   */\ntag_33:\n    /* \"#utility.yul\":568:690   */\n  pop\n  jump\t// out\n    /* \"#utility.yul\":696:839   */\ntag_18:\n    /* \"#utility.yul\":753:758   */\n  0x00\n    /* \"#utility.yul\":784:790   */\n  dup2\n    /* \"#utility.yul\":778:791   */\n  mload\n    /* \"#utility.yul\":769:791   */\n  swap1\n  pop\n    /* \"#utility.yul\":800:833   */\n  tag_35\n    /* \"#utility.yul\":827:832   */\n  dup2\n    /* \"#utility.yul\":800:833   */\n  tag_17\n  jump\t// in\ntag_35:\n    /* \"#utility.yul\":696:839   */\n  swap3\n  swap2\n  pop\n  pop\n  jump\t// out\n    /* \"#utility.yul\":845:922   */\ntag_19:\n    /* \"#utility.yul\":882:889   */\n  0x00\n    /* \"#utility.yul\":911:916   */\n  dup2\n    /* \"#utility.yul\":900:916   */\n  swap1\n  pop\n    /* \"#utility.yul\":845:922   */\n  swap2\n  swap1\n  pop\n  jump\t// out\n    /* \"#utility.yul\":928:1050   */\ntag_20:\n    /* \"#utility.yul\":1001:1025   */\n  tag_38\n    /* \"#utility.yul\":1019:1024   */\n  dup2\n    /* \"#utility.yul\":1001:1025   */\n  tag_19\n  jump\t// in\ntag_38:\n    /* \"#utility.yul\":994:999   */\n  dup2\n    /* \"#utility.yul\":991:1026   */\n  eq\n    /* \"#utility.yul\":981:1044   */\n  tag_39\n  jumpi\n    /* \"#utility.yul\":1040:1041   */\n  0x00\n    /* \"#utility.yul\":1037:1038   */\n  dup1\n    /* \"#utility.yul\":1030:1042   */\n  revert\n    /* \"#utility.yul\":981:1044   */\ntag_39:\n    /* \"#utility.yul\":928:1050   */\n  pop\n  jump\t// out\n    /* \"#utility.yul\":1056:1199   */\ntag_21:\n    /* \"#utility.yul\":1113:1118   */\n  0x00\n    /* \"#utility.yul\":1144:1150   */\n  dup2\n    /* \"#utility.yul\":1138:1151   */\n  mload\n    /* \"#utility.yul\":1129:1151   */\n  swap1\n  pop\n    /* \"#utility.yul\":1160:1193   */\n  tag_41\n    /* \"#utility.yul\":1187:1192   */\n  dup2\n    /* \"#utility.yul\":1160:1193   */\n  tag_20\n  jump\t// in\ntag_41:\n    /* \"#utility.yul\":1056:1199   */\n  swap3\n  swap2\n  pop\n  pop\n  jump\t// out\n    /* \"#utility.yul\":1205:1868   */\ntag_3:\n    /* \"#utility.yul\":1293:1299   */\n  0x00\n    /* \"#utility.yul\":1301:1307   */\n  dup1\n    /* \"#utility.yul\":1309:1315   */\n  0x00\n    /* \"#utility.yul\":1358:1360   */\n  0x60\n    /* \"#utility.yul\":1346:1355   */\n  dup5\n    /* \"#utility.yul\":1337:1344   */\n  dup7\n    /* \"#utility.yul\":1333:1356   */\n  sub\n    /* \"#utility.yul\":1329:1361   */\n  slt\n    /* \"#utility.yul\":1326:1445   */\n  iszero\n  tag_43\n  jumpi\n    /* \"#utility.yul\":1364:1443   */\n  tag_44\n  tag_13\n  jump\t// in\ntag_44:\n    /* \"#utility.yul\":1326:1445   */\ntag_43:\n    /* \"#utility.yul\":1484:1485   */\n  0x00\n    /* \"#utility.yul\":1509:1573   */\n  tag_45\n    /* \"#utility.yul\":1565:1572   */\n  dup7\n    /* \"#utility.yul\":1556:1562   */\n  dup3\n    /* \"#utility.yul\":1545:1554   */\n  dup8\n    /* \"#utility.yul\":1541:1563   */\n  add\n    /* \"#utility.yul\":1509:1573   */\n  tag_18\n  jump\t// in\ntag_45:\n    /* \"#utility.yul\":1499:1573   */\n  swap4\n  pop\n    /* \"#utility.yul\":1455:1583   */\n  pop\n    /* \"#utility.yul\":1622:1624   */\n  0x20\n    /* \"#utility.yul\":1648:1712   */\n  tag_46\n    /* \"#utility.yul\":1704:1711   */\n  dup7\n    /* \"#utility.yul\":1695:1701   */\n  dup3\n    /* \"#utility.yul\":1684:1693   */\n  dup8\n    /* \"#utility.yul\":1680:1702   */\n  add\n    /* \"#utility.yul\":1648:1712   */\n  tag_18\n  jump\t// in\ntag_46:\n    /* \"#utility.yul\":1638:1712   */\n  swap3\n  pop\n    /* \"#utility.yul\":1593:1722   */\n  pop\n    /* \"#utility.yul\":1761:1763   */\n  0x40\n    /* \"#utility.yul\":1787:1851   */\n  tag_47\n    /* \"#utility.yul\":1843:1850   */\n  dup7\n    /* \"#utility.yul\":1834:1840   */\n  dup3\n    /* \"#utility.yul\":1823:1832   */\n  dup8\n    /* \"#utility.yul\":1819:1841   */\n  add\n    /* \"#utility.yul\":1787:1851   */\n  tag_21\n  jump\t// in\ntag_47:\n    /* \"#utility.yul\":1777:1851   */\n  swap2\n  pop\n    /* \"#utility.yul\":1732:1861   */\n  pop\n    /* \"#utility.yul\":1205:1868   */\n  swap3\n  pop\n  swap3\n  pop\n  swap3\n  jump\t// out\n    /* \"#utility.yul\":1874:2054   */\ntag_22:\n    /* \"#utility.yul\":1922:1999   */\n  0x4e487b7100000000000000000000000000000000000000000000000000000000\n    /* \"#utility.yul\":1919:1920   */\n  0x00\n    /* \"#utility.yul\":1912:2000   */\n  mstore\n    /* \"#utility.yul\":2019:2023   */\n  0x11\n    /* \"#utility.yul\":2016:2017   */\n  0x04\n    /* \"#utility.yul\":2009:2024   */\n  mstore\n    /* \"#utility.yul\":2043:2047   */\n  0x24\n    /* \"#utility.yul\":2040:2041   */\n  0x00\n    /* \"#utility.yul\":2033:2048   */\n  revert\n    /* \"#utility.yul\":2060:2470   */\ntag_7:\n    /* \"#utility.yul\":2100:2107   */\n  0x00\n    /* \"#utility.yul\":2123:2143   */\n  tag_50\n    /* \"#utility.yul\":2141:2142   */\n  dup3\n    /* \"#utility.yul\":2123:2143   */\n  tag_19\n  jump\t// in\ntag_50:\n    /* \"#utility.yul\":2118:2143   */\n  swap2\n  pop\n    /* \"#utility.yul\":2157:2177   */\n  tag_51\n    /* \"#utility.yul\":2175:2176   */\n  dup4\n    /* \"#utility.yul\":2157:2177   */\n  tag_19\n  jump\t// in\ntag_51:\n    /* \"#utility.yul\":2152:2177   */\n  swap3\n  pop\n    /* \"#utility.yul\":2212:2213   */\n  dup3\n    /* \"#utility.yul\":2209:2210   */\n  dup3\n    /* \"#utility.yul\":2205:2214   */\n  mul\n    /* \"#utility.yul\":2234:2264   */\n  tag_52\n    /* \"#utility.yul\":2252:2263   */\n  dup2\n    /* \"#utility.yul\":2234:2264   */\n  tag_19\n  jump\t// in\ntag_52:\n    /* \"#utility.yul\":2223:2264   */\n  swap2\n  pop\n    /* \"#utility.yul\":2413:2414   */\n  dup3\n    /* \"#utility.yul\":2404:2411   */\n  dup3\n    /* \"#utility.yul\":2400:2415   */\n  div\n    /* \"#utility.yul\":2397:2398   */\n  dup5\n    /* \"#utility.yul\":2394:2416   */\n  eq\n    /* \"#utility.yul\":2374:2375   */\n  dup4\n    /* \"#utility.yul\":2367:2376   */\n  iszero\n    /* \"#utility.yul\":2347:2430   */\n  or\n    /* \"#utility.yul\":2324:2463   */\n  tag_53\n  jumpi\n    /* \"#utility.yul\":2443:2461   */\n  tag_54\n  tag_22\n  jump\t// in\ntag_54:\n    /* \"#utility.yul\":2324:2463   */\ntag_53:\n    /* \"#utility.yul\":2108:2470   */\n  pop\n    /* \"#utility.yul\":2060:2470   */\n  swap3\n  swap2\n  pop\n  pop\n  jump\t// out\n    /* \"#utility.yul\":2476:2656   */\ntag_23:\n    /* \"#utility.yul\":2524:2601   */\n  0x4e487b7100000000000000000000000000000000000000000000000000000000\n    /* \"#utility.yul\":2521:2522   */\n  0x00\n    /* \"#utility.yul\":2514:2602   */\n  mstore\n    /* \"#utility.yul\":2621:2625   */\n  0x12\n    /* \"#utility.yul\":2618:2619   */\n  0x04\n    /* \"#utility.yul\":2611:2626   */\n  mstore\n    /* \"#utility.yul\":2645:2649   */\n  0x24\n    /* \"#utility.yul\":2642:2643   */\n  0x00\n    /* \"#utility.yul\":2635:2650   */\n  revert\n    /* \"#utility.yul\":2662:2847   */\ntag_9:\n    /* \"#utility.yul\":2702:2703   */\n  0x00\n    /* \"#utility.yul\":2719:2739   */\n  tag_57\n    /* \"#utility.yul\":2737:2738   */\n  dup3\n    /* \"#utility.yul\":2719:2739   */\n  tag_19\n  jump\t// in\ntag_57:\n    /* \"#utility.yul\":2714:2739   */\n  swap2\n  pop\n    /* \"#utility.yul\":2753:2773   */\n  tag_58\n    /* \"#utility.yul\":2771:2772   */\n  dup4\n    /* \"#utility.yul\":2753:2773   */\n  tag_19\n  jump\t// in\ntag_58:\n    /* \"#utility.yul\":2748:2773   */\n  swap3\n  pop\n    /* \"#utility.yul\":2792:2793   */\n  dup3\n    /* \"#utility.yul\":2782:2817   */\n  tag_59\n  jumpi\n    /* \"#utility.yul\":2797:2815   */\n  tag_60\n  tag_23\n  jump\t// in\ntag_60:\n    /* \"#utility.yul\":2782:2817   */\ntag_59:\n    /* \"#utility.yul\":2839:2840   */\n  dup3\n    /* \"#utility.yul\":2836:2837   */\n  dup3\n    /* \"#utility.yul\":2832:2841   */\n  div\n    /* \"#utility.yul\":2827:2841   */\n  swap1\n  pop\n    /* \"#utility.yul\":2662:2847   */\n  swap3\n  swap2\n  pop\n  pop\n  jump\t// out\n    /* \"contracts/StakingRewards.sol\":68:7152  contract StakingRewards {... */\ntag_11:\n  dataSize(sub_0)\n  dup1\n  dataOffset(sub_0)\n  0x00\n  codecopy\n  0x00\n  return\nstop\n\nsub_0: assembly {\n        /* \"contracts/StakingRewards.sol\":68:7152  contract StakingRewards {... */\n      mstore(0x40, 0x80)\n      callvalue\n      dup1\n      iszero\n      tag_1\n      jumpi\n      0x00\n      dup1\n      revert\n    tag_1:\n      pop\n      jumpi(tag_2, lt(calldatasize, 0x04))\n      shr(0xe0, calldataload(0x00))\n      dup1\n      0x7bd2bea7\n      gt\n      tag_23\n      jumpi\n      dup1\n      0xb88a802f\n      gt\n      tag_24\n      jumpi\n      dup1\n      0xb88a802f\n      eq\n      tag_18\n      jumpi\n      dup1\n      0xc8f33c91\n      eq\n      tag_19\n      jumpi\n      dup1\n      0xcd3daf9d\n      eq\n      tag_20\n      jumpi\n      dup1\n      0xce606ee0\n      eq\n      tag_21\n      jumpi\n      dup1\n      0xdf136d65\n      eq\n      tag_22\n      jumpi\n      jump(tag_2)\n    tag_24:\n      dup1\n      0x7bd2bea7\n      eq\n      tag_13\n      jumpi\n      dup1\n      0x817b1cd2\n      eq\n      tag_14\n      jumpi\n      dup1\n      0x9168ae72\n      eq\n      tag_15\n      jumpi\n      dup1\n      0x924f85bc\n      eq\n      tag_16\n      jumpi\n      dup1\n      0xa694fc3a\n      eq\n      tag_17\n      jumpi\n      jump(tag_2)\n    tag_23:\n      dup1\n      0x2e1a7d4d\n      gt\n      tag_25\n      jumpi\n      dup1\n      0x2e1a7d4d\n      eq\n      tag_8\n      jumpi\n      dup1\n      0x4df9d6ba\n      eq\n      tag_9\n      jumpi\n      dup1\n      0x5fb87206\n      eq\n      tag_10\n      jumpi\n      dup1\n      0x5fcbd285\n      eq\n      tag_11\n      jumpi\n      dup1\n      0x7b0a47ee\n      eq\n      tag_12\n      jumpi\n      jump(tag_2)\n    tag_25:\n      dup1\n      0x8cc262\n      eq\n      tag_3\n      jumpi\n      dup1\n      0x09c85e24\n      eq\n      tag_4\n      jumpi\n      dup1\n      0x214e0d9d\n      eq\n      tag_5\n      jumpi\n      dup1\n      0x26be0c86\n      eq\n      tag_6\n      jumpi\n      dup1\n      0x2bc51f6d\n      eq\n      tag_7\n      jumpi\n    tag_2:\n      0x00\n      dup1\n      revert\n        /* \"contracts/StakingRewards.sol\":4440:4800  function earned(address account) public view returns (uint256) {... */\n    tag_3:\n      tag_26\n      0x04\n      dup1\n      calldatasize\n      sub\n      dup2\n      add\n      swap1\n      tag_27\n      swap2\n      swap1\n      tag_28\n      jump\t// in\n    tag_27:\n      tag_29\n      jump\t// in\n    tag_26:\n      mload(0x40)\n      tag_30\n      swap2\n      swap1\n      tag_31\n      jump\t// in\n    tag_30:\n      mload(0x40)\n      dup1\n      swap2\n      sub\n      swap1\n      return\n        /* \"contracts/StakingRewards.sol\":358:388  uint256 public totalRewardPool */\n    tag_4:\n      tag_32\n      tag_33\n      jump\t// in\n    tag_32:\n      mload(0x40)\n      tag_34\n      swap2\n      swap1\n      tag_31\n      jump\t// in\n    tag_34:\n      mload(0x40)\n      dup1\n      swap2\n      sub\n      swap1\n      return\n        /* \"contracts/StakingRewards.sol\":319:352  uint256 public dailyRewardCounter */\n    tag_5:\n      tag_35\n      tag_36\n      jump\t// in\n    tag_35:\n      mload(0x40)\n      tag_37\n      swap2\n      swap1\n      tag_31\n      jump\t// in\n    tag_37:\n      mload(0x40)\n      dup1\n      swap2\n      sub\n      swap1\n      return\n        /* \"contracts/StakingRewards.sol\":1747:2100  function setStakingPoolLive() public onlyOwner {... */\n    tag_6:\n      tag_38\n      tag_39\n      jump\t// in\n    tag_38:\n      stop\n        /* \"contracts/StakingRewards.sol\":3249:4167  function _updateRewards(address account) public {... */\n    tag_7:\n      tag_40\n      0x04\n      dup1\n      calldatasize\n      sub\n      dup2\n      add\n      swap1\n      tag_41\n      swap2\n      swap1\n      tag_28\n      jump\t// in\n    tag_41:\n      tag_42\n      jump\t// in\n    tag_40:\n      stop\n        /* \"contracts/StakingRewards.sol\":5532:5998  function withdraw(uint256 amount) external {... */\n    tag_8:\n      tag_43\n      0x04\n      dup1\n      calldatasize\n      sub\n      dup2\n      add\n      swap1\n      tag_44\n      swap2\n      swap1\n      tag_45\n      jump\t// in\n    tag_44:\n      tag_46\n      jump\t// in\n    tag_43:\n      stop\n        /* \"contracts/StakingRewards.sol\":6481:6852  function getPendingReward(address account) public view returns (uint256) {... */\n    tag_9:\n      tag_47\n      0x04\n      dup1\n      calldatasize\n      sub\n      dup2\n      add\n      swap1\n      tag_48\n      swap2\n      swap1\n      tag_28\n      jump\t// in\n    tag_48:\n      tag_49\n      jump\t// in\n    tag_47:\n      mload(0x40)\n      tag_50\n      swap2\n      swap1\n      tag_31\n      jump\t// in\n    tag_50:\n      mload(0x40)\n      dup1\n      swap2\n      sub\n      swap1\n      return\n        /* \"contracts/StakingRewards.sol\":221:250  uint256 public maxDailyReward */\n    tag_10:\n      tag_51\n      tag_52\n      jump\t// in\n    tag_51:\n      mload(0x40)\n      tag_53\n      swap2\n      swap1\n      tag_31\n      jump\t// in\n    tag_53:\n      mload(0x40)\n      dup1\n      swap2\n      sub\n      swap1\n      return\n        /* \"contracts/StakingRewards.sol\":98:118  ERC20 public lpToken */\n    tag_11:\n      tag_54\n      tag_55\n      jump\t// in\n    tag_54:\n      mload(0x40)\n      tag_56\n      swap2\n      swap1\n      tag_57\n      jump\t// in\n    tag_56:\n      mload(0x40)\n      dup1\n      swap2\n      sub\n      swap1\n      return\n        /* \"contracts/StakingRewards.sol\":256:281  uint256 public rewardRate */\n    tag_12:\n      tag_58\n      tag_59\n      jump\t// in\n    tag_58:\n      mload(0x40)\n      tag_60\n      swap2\n      swap1\n      tag_31\n      jump\t// in\n    tag_60:\n      mload(0x40)\n      dup1\n      swap2\n      sub\n      swap1\n      return\n        /* \"contracts/StakingRewards.sol\":124:138  Gem public gem */\n    tag_13:\n      tag_61\n      tag_62\n      jump\t// in\n    tag_61:\n      mload(0x40)\n      tag_63\n      swap2\n      swap1\n      tag_64\n      jump\t// in\n    tag_63:\n      mload(0x40)\n      dup1\n      swap2\n      sub\n      swap1\n      return\n        /* \"contracts/StakingRewards.sol\":287:313  uint256 public totalStaked */\n    tag_14:\n      tag_65\n      tag_66\n      jump\t// in\n    tag_65:\n      mload(0x40)\n      tag_67\n      swap2\n      swap1\n      tag_31\n      jump\t// in\n    tag_67:\n      mload(0x40)\n      dup1\n      swap2\n      sub\n      swap1\n      return\n        /* \"contracts/StakingRewards.sol\":619:663  mapping(address => StakeInfo) public stakers */\n    tag_15:\n      tag_68\n      0x04\n      dup1\n      calldatasize\n      sub\n      dup2\n      add\n      swap1\n      tag_69\n      swap2\n      swap1\n      tag_28\n      jump\t// in\n    tag_69:\n      tag_70\n      jump\t// in\n    tag_68:\n      mload(0x40)\n      tag_71\n      swap5\n      swap4\n      swap3\n      swap2\n      swap1\n      tag_72\n      jump\t// in\n    tag_71:\n      mload(0x40)\n      dup1\n      swap2\n      sub\n      swap1\n      return\n        /* \"contracts/StakingRewards.sol\":428:455  bool public stakingPoolLive */\n    tag_16:\n      tag_73\n      tag_74\n      jump\t// in\n    tag_73:\n      mload(0x40)\n      tag_75\n      swap2\n      swap1\n      tag_76\n      jump\t// in\n    tag_75:\n      mload(0x40)\n      dup1\n      swap2\n      sub\n      swap1\n      return\n        /* \"contracts/StakingRewards.sol\":5197:5525  function stake(uint256 amount) external {... */\n    tag_17:\n      tag_77\n      0x04\n      dup1\n      calldatasize\n      sub\n      dup2\n      add\n      swap1\n      tag_78\n      swap2\n      swap1\n      tag_45\n      jump\t// in\n    tag_78:\n      tag_79\n      jump\t// in\n    tag_77:\n      stop\n        /* \"contracts/StakingRewards.sol\":6004:6314  function claimReward() external {... */\n    tag_18:\n      tag_80\n      tag_81\n      jump\t// in\n    tag_80:\n      stop\n        /* \"contracts/StakingRewards.sol\":145:174  uint256 public lastUpdateTime */\n    tag_19:\n      tag_82\n      tag_83\n      jump\t// in\n    tag_82:\n      mload(0x40)\n      tag_84\n      swap2\n      swap1\n      tag_31\n      jump\t// in\n    tag_84:\n      mload(0x40)\n      dup1\n      swap2\n      sub\n      swap1\n      return\n        /* \"contracts/StakingRewards.sol\":4175:4434  function rewardPerToken() public view returns (uint256) {... */\n    tag_20:\n      tag_85\n      tag_86\n      jump\t// in\n    tag_85:\n      mload(0x40)\n      tag_87\n      swap2\n      swap1\n      tag_31\n      jump\t// in\n    tag_87:\n      mload(0x40)\n      dup1\n      swap2\n      sub\n      swap1\n      return\n        /* \"contracts/StakingRewards.sol\":394:422  address public contractOwner */\n    tag_21:\n      tag_88\n      tag_89\n      jump\t// in\n    tag_88:\n      mload(0x40)\n      tag_90\n      swap2\n      swap1\n      tag_91\n      jump\t// in\n    tag_90:\n      mload(0x40)\n      dup1\n      swap2\n      sub\n      swap1\n      return\n        /* \"contracts/StakingRewards.sol\":180:215  uint256 public rewardPerTokenStored */\n    tag_22:\n      tag_92\n      tag_93\n      jump\t// in\n    tag_92:\n      mload(0x40)\n      tag_94\n      swap2\n      swap1\n      tag_31\n      jump\t// in\n    tag_94:\n      mload(0x40)\n      dup1\n      swap2\n      sub\n      swap1\n      return\n        /* \"contracts/StakingRewards.sol\":4440:4800  function earned(address account) public view returns (uint256) {... */\n    tag_29:\n        /* \"contracts/StakingRewards.sol\":4494:4501  uint256 */\n      0x00\n        /* \"contracts/StakingRewards.sol\":4513:4542  uint256 lastUpdateTimeAccount */\n      dup1\n        /* \"contracts/StakingRewards.sol\":4545:4552  stakers */\n      0x0a\n        /* \"contracts/StakingRewards.sol\":4545:4561  stakers[account] */\n      0x00\n        /* \"contracts/StakingRewards.sol\":4553:4560  account */\n      dup5\n        /* \"contracts/StakingRewards.sol\":4545:4561  stakers[account] */\n      0xffffffffffffffffffffffffffffffffffffffff\n      and\n      0xffffffffffffffffffffffffffffffffffffffff\n      and\n      dup2\n      mstore\n      0x20\n      add\n      swap1\n      dup2\n      mstore\n      0x20\n      add\n      0x00\n      keccak256\n        /* \"contracts/StakingRewards.sol\":4545:4586  stakers[account].lastUpdateTimeForAccount */\n      0x03\n      add\n      sload\n        /* \"contracts/StakingRewards.sol\":4513:4586  uint256 lastUpdateTimeAccount = stakers[account].lastUpdateTimeForAccount */\n      swap1\n      pop\n        /* \"contracts/StakingRewards.sol\":4596:4625  uint256 rewardPerTokenAccount */\n      0x00\n        /* \"contracts/StakingRewards.sol\":4653:4654  0 */\n      dup1\n        /* \"contracts/StakingRewards.sol\":4628:4649  lastUpdateTimeAccount */\n      dup3\n        /* \"contracts/StakingRewards.sol\":4628:4654  lastUpdateTimeAccount != 0 */\n      sub\n        /* \"contracts/StakingRewards.sol\":4628:4701  lastUpdateTimeAccount != 0 ? rewardPerToken() - lastUpdateTimeAccount : 0 */\n      tag_96\n      jumpi\n        /* \"contracts/StakingRewards.sol\":4700:4701  0 */\n      0x00\n        /* \"contracts/StakingRewards.sol\":4628:4701  lastUpdateTimeAccount != 0 ? rewardPerToken() - lastUpdateTimeAccount : 0 */\n      jump(tag_97)\n    tag_96:\n        /* \"contracts/StakingRewards.sol\":4676:4697  lastUpdateTimeAccount */\n      dup2\n        /* \"contracts/StakingRewards.sol\":4657:4673  rewardPerToken() */\n      tag_98\n        /* \"contracts/StakingRewards.sol\":4657:4671  rewardPerToken */\n      tag_86\n        /* \"contracts/StakingRewards.sol\":4657:4673  rewardPerToken() */\n      jump\t// in\n    tag_98:\n        /* \"contracts/StakingRewards.sol\":4657:4697  rewardPerToken() - lastUpdateTimeAccount */\n      tag_99\n      swap2\n      swap1\n      tag_100\n      jump\t// in\n    tag_99:\n        /* \"contracts/StakingRewards.sol\":4628:4701  lastUpdateTimeAccount != 0 ? rewardPerToken() - lastUpdateTimeAccount : 0 */\n    tag_97:\n        /* \"contracts/StakingRewards.sol\":4596:4701  uint256 rewardPerTokenAccount = lastUpdateTimeAccount != 0 ? rewardPerToken() - lastUpdateTimeAccount : 0 */\n      swap1\n      pop\n        /* \"contracts/StakingRewards.sol\":4770:4777  stakers */\n      0x0a\n        /* \"contracts/StakingRewards.sol\":4770:4786  stakers[account] */\n      0x00\n        /* \"contracts/StakingRewards.sol\":4778:4785  account */\n      dup6\n        /* \"contracts/StakingRewards.sol\":4770:4786  stakers[account] */\n      0xffffffffffffffffffffffffffffffffffffffff\n      and\n      0xffffffffffffffffffffffffffffffffffffffff\n      and\n      dup2\n      mstore\n      0x20\n      add\n      swap1\n      dup2\n      mstore\n      0x20\n      add\n      0x00\n      keccak256\n        /* \"contracts/StakingRewards.sol\":4770:4794  stakers[account].rewards */\n      0x02\n      add\n      sload\n        /* \"contracts/StakingRewards.sol\":4745:4766  rewardPerTokenAccount */\n      dup2\n        /* \"contracts/StakingRewards.sol\":4719:4726  stakers */\n      0x0a\n        /* \"contracts/StakingRewards.sol\":4719:4735  stakers[account] */\n      0x00\n        /* \"contracts/StakingRewards.sol\":4727:4734  account */\n      dup8\n        /* \"contracts/StakingRewards.sol\":4719:4735  stakers[account] */\n      0xffffffffffffffffffffffffffffffffffffffff\n      and\n      0xffffffffffffffffffffffffffffffffffffffff\n      and\n      dup2\n      mstore\n      0x20\n      add\n      swap1\n      dup2\n      mstore\n      0x20\n      add\n      0x00\n      keccak256\n        /* \"contracts/StakingRewards.sol\":4719:4742  stakers[account].amount */\n      0x00\n      add\n      sload\n        /* \"contracts/StakingRewards.sol\":4719:4766  stakers[account].amount * rewardPerTokenAccount */\n      tag_101\n      swap2\n      swap1\n      tag_102\n      jump\t// in\n    tag_101:\n        /* \"contracts/StakingRewards.sol\":4718:4794  (stakers[account].amount * rewardPerTokenAccount) + stakers[account].rewards */\n      tag_103\n      swap2\n      swap1\n      tag_104\n      jump\t// in\n    tag_103:\n        /* \"contracts/StakingRewards.sol\":4711:4794  return (stakers[account].amount * rewardPerTokenAccount) + stakers[account].rewards */\n      swap3\n      pop\n      pop\n      pop\n        /* \"contracts/StakingRewards.sol\":4440:4800  function earned(address account) public view returns (uint256) {... */\n      swap2\n      swap1\n      pop\n      jump\t// out\n        /* \"contracts/StakingRewards.sol\":358:388  uint256 public totalRewardPool */\n    tag_33:\n      sload(0x08)\n      dup2\n      jump\t// out\n        /* \"contracts/StakingRewards.sol\":319:352  uint256 public dailyRewardCounter */\n    tag_36:\n      sload(0x07)\n      dup2\n      jump\t// out\n        /* \"contracts/StakingRewards.sol\":1747:2100  function setStakingPoolLive() public onlyOwner {... */\n    tag_39:\n        /* \"contracts/StakingRewards.sol\":6913:6926  contractOwner */\n      0x09\n      0x00\n      swap1\n      sload\n      swap1\n      0x0100\n      exp\n      swap1\n      div\n      0xffffffffffffffffffffffffffffffffffffffff\n      and\n        /* \"contracts/StakingRewards.sol\":6899:6926  msg.sender == contractOwner */\n      0xffffffffffffffffffffffffffffffffffffffff\n      and\n        /* \"contracts/StakingRewards.sol\":6899:6909  msg.sender */\n      caller\n        /* \"contracts/StakingRewards.sol\":6899:6926  msg.sender == contractOwner */\n      0xffffffffffffffffffffffffffffffffffffffff\n      and\n      eq\n        /* \"contracts/StakingRewards.sol\":6891:6963  require(msg.sender == contractOwner, 'Ownable: caller is not the owner') */\n      tag_106\n      jumpi\n      mload(0x40)\n      0x08c379a000000000000000000000000000000000000000000000000000000000\n      dup2\n      mstore\n      0x04\n      add\n      tag_107\n      swap1\n      tag_108\n      jump\t// in\n    tag_107:\n      mload(0x40)\n      dup1\n      swap2\n      sub\n      swap1\n      revert\n    tag_106:\n        /* \"contracts/StakingRewards.sol\":1843:1858  totalRewardPool */\n      sload(0x08)\n        /* \"contracts/StakingRewards.sol\":1812:1815  gem */\n      0x01\n      0x00\n      swap1\n      sload\n      swap1\n      0x0100\n      exp\n      swap1\n      div\n      0xffffffffffffffffffffffffffffffffffffffff\n      and\n        /* \"contracts/StakingRewards.sol\":1812:1827  gem.checkGemsOf */\n      0xffffffffffffffffffffffffffffffffffffffff\n      and\n      0x46ed2bcb\n        /* \"contracts/StakingRewards.sol\":1828:1838  msg.sender */\n      caller\n        /* \"contracts/StakingRewards.sol\":1812:1839  gem.checkGemsOf(msg.sender) */\n      mload(0x40)\n      dup3\n      0xffffffff\n      and\n      0xe0\n      shl\n      dup2\n      mstore\n      0x04\n      add\n      tag_110\n      swap2\n      swap1\n      tag_91\n      jump\t// in\n    tag_110:\n      0x20\n      mload(0x40)\n      dup1\n      dup4\n      sub\n      dup2\n      dup7\n      gas\n      staticcall\n      iszero\n      dup1\n      iszero\n      tag_112\n      jumpi\n      returndatasize\n      0x00\n      dup1\n      returndatacopy\n      revert(0x00, returndatasize)\n    tag_112:\n      pop\n      pop\n      pop\n      pop\n      mload(0x40)\n      returndatasize\n      not(0x1f)\n      0x1f\n      dup3\n      add\n      and\n      dup3\n      add\n      dup1\n      0x40\n      mstore\n      pop\n      dup2\n      add\n      swap1\n      tag_113\n      swap2\n      swap1\n      tag_114\n      jump\t// in\n    tag_113:\n        /* \"contracts/StakingRewards.sol\":1812:1858  gem.checkGemsOf(msg.sender) >= totalRewardPool */\n      lt\n      iszero\n        /* \"contracts/StakingRewards.sol\":1804:1912  require(gem.checkGemsOf(msg.sender) >= totalRewardPool, \"You do not have sufficient Gem for the rewardPool\") */\n      tag_115\n      jumpi\n      mload(0x40)\n      0x08c379a000000000000000000000000000000000000000000000000000000000\n      dup2\n      mstore\n      0x04\n      add\n      tag_116\n      swap1\n      tag_117\n      jump\t// in\n    tag_116:\n      mload(0x40)\n      dup1\n      swap2\n      sub\n      swap1\n      revert\n    tag_115:\n        /* \"contracts/StakingRewards.sol\":1949:1954  false */\n      0x00\n        /* \"contracts/StakingRewards.sol\":1930:1954  stakingPoolLive == false */\n      iszero\n      iszero\n        /* \"contracts/StakingRewards.sol\":1930:1945  stakingPoolLive */\n      0x09\n      0x14\n      swap1\n      sload\n      swap1\n      0x0100\n      exp\n      swap1\n      div\n      0xff\n      and\n        /* \"contracts/StakingRewards.sol\":1930:1954  stakingPoolLive == false */\n      iszero\n      iszero\n      eq\n        /* \"contracts/StakingRewards.sol\":1922:1987  require(stakingPoolLive == false, \"Staking pool is already live\") */\n      tag_118\n      jumpi\n      mload(0x40)\n      0x08c379a000000000000000000000000000000000000000000000000000000000\n      dup2\n      mstore\n      0x04\n      add\n      tag_119\n      swap1\n      tag_120\n      jump\t// in\n    tag_119:\n      mload(0x40)\n      dup1\n      swap2\n      sub\n      swap1\n      revert\n    tag_118:\n        /* \"contracts/StakingRewards.sol\":1997:2000  gem */\n      0x01\n      0x00\n      swap1\n      sload\n      swap1\n      0x0100\n      exp\n      swap1\n      div\n      0xffffffffffffffffffffffffffffffffffffffff\n      and\n        /* \"contracts/StakingRewards.sol\":1997:2017  gem.transferGemsFrom */\n      0xffffffffffffffffffffffffffffffffffffffff\n      and\n      0x2a73ac1f\n        /* \"contracts/StakingRewards.sol\":2018:2028  msg.sender */\n      caller\n        /* \"contracts/StakingRewards.sol\":2038:2042  this */\n      address\n        /* \"contracts/StakingRewards.sol\":2045:2060  totalRewardPool */\n      sload(0x08)\n        /* \"contracts/StakingRewards.sol\":1997:2061  gem.transferGemsFrom(msg.sender, address(this), totalRewardPool) */\n      mload(0x40)\n      dup5\n      0xffffffff\n      and\n      0xe0\n      shl\n      dup2\n      mstore\n      0x04\n      add\n      tag_121\n      swap4\n      swap3\n      swap2\n      swap1\n      tag_122\n      jump\t// in\n    tag_121:\n      0x00\n      mload(0x40)\n      dup1\n      dup4\n      sub\n      dup2\n      0x00\n      dup8\n      dup1\n      extcodesize\n      iszero\n      dup1\n      iszero\n      tag_123\n      jumpi\n      0x00\n      dup1\n      revert\n    tag_123:\n      pop\n      gas\n      call\n      iszero\n      dup1\n      iszero\n      tag_125\n      jumpi\n      returndatasize\n      0x00\n      dup1\n      returndatacopy\n      revert(0x00, returndatasize)\n    tag_125:\n      pop\n      pop\n      pop\n      pop\n        /* \"contracts/StakingRewards.sol\":2089:2093  true */\n      0x01\n        /* \"contracts/StakingRewards.sol\":2071:2086  stakingPoolLive */\n      0x09\n      0x14\n        /* \"contracts/StakingRewards.sol\":2071:2093  stakingPoolLive = true */\n      0x0100\n      exp\n      dup2\n      sload\n      dup2\n      0xff\n      mul\n      not\n      and\n      swap1\n      dup4\n      iszero\n      iszero\n      mul\n      or\n      swap1\n      sstore\n      pop\n        /* \"contracts/StakingRewards.sol\":1747:2100  function setStakingPoolLive() public onlyOwner {... */\n      jump\t// out\n        /* \"contracts/StakingRewards.sol\":3249:4167  function _updateRewards(address account) public {... */\n    tag_42:\n        /* \"contracts/StakingRewards.sol\":3307:3341  _resetDailyRewardCounterIfNeeded() */\n      tag_127\n        /* \"contracts/StakingRewards.sol\":3307:3339  _resetDailyRewardCounterIfNeeded */\n      tag_128\n        /* \"contracts/StakingRewards.sol\":3307:3341  _resetDailyRewardCounterIfNeeded() */\n      jump\t// in\n    tag_127:\n        /* \"contracts/StakingRewards.sol\":3351:3370  uint256 currentTime */\n      0x00\n        /* \"contracts/StakingRewards.sol\":3373:3388  block.timestamp */\n      timestamp\n        /* \"contracts/StakingRewards.sol\":3351:3388  uint256 currentTime = block.timestamp */\n      swap1\n      pop\n        /* \"contracts/StakingRewards.sol\":3399:3418  uint256 timeElapsed */\n      0x00\n        /* \"contracts/StakingRewards.sol\":3435:3449  lastUpdateTime */\n      sload(0x02)\n        /* \"contracts/StakingRewards.sol\":3421:3432  currentTime */\n      dup3\n        /* \"contracts/StakingRewards.sol\":3421:3449  currentTime - lastUpdateTime */\n      tag_129\n      swap2\n      swap1\n      tag_100\n      jump\t// in\n    tag_129:\n        /* \"contracts/StakingRewards.sol\":3399:3449  uint256 timeElapsed = currentTime - lastUpdateTime */\n      swap1\n      pop\n        /* \"contracts/StakingRewards.sol\":3477:3478  0 */\n      0x00\n        /* \"contracts/StakingRewards.sol\":3463:3474  totalStaked */\n      sload(0x06)\n        /* \"contracts/StakingRewards.sol\":3463:3478  totalStaked > 0 */\n      gt\n        /* \"contracts/StakingRewards.sol\":3459:3866  if (totalStaked > 0) {... */\n      iszero\n      tag_130\n      jumpi\n        /* \"contracts/StakingRewards.sol\":3494:3514  uint256 rewardAmount */\n      0x00\n        /* \"contracts/StakingRewards.sol\":3545:3549  1e18 */\n      0x0de0b6b3a7640000\n        /* \"contracts/StakingRewards.sol\":3532:3542  rewardRate */\n      sload(0x05)\n        /* \"contracts/StakingRewards.sol\":3518:3529  timeElapsed */\n      dup4\n        /* \"contracts/StakingRewards.sol\":3518:3542  timeElapsed * rewardRate */\n      tag_131\n      swap2\n      swap1\n      tag_102\n      jump\t// in\n    tag_131:\n        /* \"contracts/StakingRewards.sol\":3517:3549  (timeElapsed * rewardRate)/ 1e18 */\n      tag_132\n      swap2\n      swap1\n      tag_133\n      jump\t// in\n    tag_132:\n        /* \"contracts/StakingRewards.sol\":3494:3549  uint256 rewardAmount = (timeElapsed * rewardRate)/ 1e18 */\n      swap1\n      pop\n        /* \"contracts/StakingRewards.sol\":3563:3589  uint256 rewardToDistribute */\n      0x00\n        /* \"contracts/StakingRewards.sol\":3630:3644  maxDailyReward */\n      sload(0x04)\n        /* \"contracts/StakingRewards.sol\":3614:3626  rewardAmount */\n      dup3\n        /* \"contracts/StakingRewards.sol\":3593:3611  dailyRewardCounter */\n      sload(0x07)\n        /* \"contracts/StakingRewards.sol\":3593:3626  dailyRewardCounter + rewardAmount */\n      tag_134\n      swap2\n      swap1\n      tag_104\n      jump\t// in\n    tag_134:\n        /* \"contracts/StakingRewards.sol\":3593:3644  dailyRewardCounter + rewardAmount <= maxDailyReward */\n      gt\n      iszero\n        /* \"contracts/StakingRewards.sol\":3592:3698  (dailyRewardCounter + rewardAmount <= maxDailyReward) ? rewardAmount : maxDailyReward - dailyRewardCounter */\n      tag_135\n      jumpi\n        /* \"contracts/StakingRewards.sol\":3680:3698  dailyRewardCounter */\n      sload(0x07)\n        /* \"contracts/StakingRewards.sol\":3663:3677  maxDailyReward */\n      sload(0x04)\n        /* \"contracts/StakingRewards.sol\":3663:3698  maxDailyReward - dailyRewardCounter */\n      tag_136\n      swap2\n      swap1\n      tag_100\n      jump\t// in\n    tag_136:\n        /* \"contracts/StakingRewards.sol\":3592:3698  (dailyRewardCounter + rewardAmount <= maxDailyReward) ? rewardAmount : maxDailyReward - dailyRewardCounter */\n      jump(tag_137)\n    tag_135:\n        /* \"contracts/StakingRewards.sol\":3648:3660  rewardAmount */\n      dup2\n        /* \"contracts/StakingRewards.sol\":3592:3698  (dailyRewardCounter + rewardAmount <= maxDailyReward) ? rewardAmount : maxDailyReward - dailyRewardCounter */\n    tag_137:\n        /* \"contracts/StakingRewards.sol\":3563:3698  uint256 rewardToDistribute = (dailyRewardCounter + rewardAmount <= maxDailyReward) ? rewardAmount : maxDailyReward - dailyRewardCounter */\n      swap1\n      pop\n        /* \"contracts/StakingRewards.sol\":3789:3800  totalStaked */\n      sload(0x06)\n        /* \"contracts/StakingRewards.sol\":3782:3786  1e18 */\n      0x0de0b6b3a7640000\n        /* \"contracts/StakingRewards.sol\":3761:3779  rewardToDistribute */\n      dup3\n        /* \"contracts/StakingRewards.sol\":3761:3786  rewardToDistribute * 1e18 */\n      tag_138\n      swap2\n      swap1\n      tag_102\n      jump\t// in\n    tag_138:\n        /* \"contracts/StakingRewards.sol\":3761:3800  rewardToDistribute * 1e18 / totalStaked */\n      tag_139\n      swap2\n      swap1\n      tag_133\n      jump\t// in\n    tag_139:\n        /* \"contracts/StakingRewards.sol\":3737:3757  rewardPerTokenStored */\n      sload(0x03)\n        /* \"contracts/StakingRewards.sol\":3737:3801  rewardPerTokenStored + (rewardToDistribute * 1e18 / totalStaked) */\n      tag_140\n      swap2\n      swap1\n      tag_104\n      jump\t// in\n    tag_140:\n        /* \"contracts/StakingRewards.sol\":3714:3734  rewardPerTokenStored */\n      0x03\n        /* \"contracts/StakingRewards.sol\":3714:3801  rewardPerTokenStored = rewardPerTokenStored + (rewardToDistribute * 1e18 / totalStaked) */\n      dup2\n      swap1\n      sstore\n      pop\n        /* \"contracts/StakingRewards.sol\":3837:3855  rewardToDistribute */\n      dup1\n        /* \"contracts/StakingRewards.sol\":3815:3833  dailyRewardCounter */\n      0x07\n      0x00\n        /* \"contracts/StakingRewards.sol\":3815:3855  dailyRewardCounter += rewardToDistribute */\n      dup3\n      dup3\n      sload\n      tag_141\n      swap2\n      swap1\n      tag_104\n      jump\t// in\n    tag_141:\n      swap3\n      pop\n      pop\n      dup2\n      swap1\n      sstore\n      pop\n        /* \"contracts/StakingRewards.sol\":3480:3866  {... */\n      pop\n      pop\n        /* \"contracts/StakingRewards.sol\":3459:3866  if (totalStaked > 0) {... */\n    tag_130:\n        /* \"contracts/StakingRewards.sol\":3893:3904  currentTime */\n      dup2\n        /* \"contracts/StakingRewards.sol\":3876:3890  lastUpdateTime */\n      0x02\n        /* \"contracts/StakingRewards.sol\":3876:3904  lastUpdateTime = currentTime */\n      dup2\n      swap1\n      sstore\n      pop\n        /* \"contracts/StakingRewards.sol\":3946:3947  0 */\n      0x00\n        /* \"contracts/StakingRewards.sol\":3927:3948  account != address(0) */\n      0xffffffffffffffffffffffffffffffffffffffff\n      and\n        /* \"contracts/StakingRewards.sol\":3927:3934  account */\n      dup4\n        /* \"contracts/StakingRewards.sol\":3927:3948  account != address(0) */\n      0xffffffffffffffffffffffffffffffffffffffff\n      and\n      eq\n        /* \"contracts/StakingRewards.sol\":3923:4161  if (account != address(0)) {... */\n      tag_142\n      jumpi\n        /* \"contracts/StakingRewards.sol\":4008:4022  lastUpdateTime */\n      sload(0x02)\n        /* \"contracts/StakingRewards.sol\":3964:3971  stakers */\n      0x0a\n        /* \"contracts/StakingRewards.sol\":3964:3980  stakers[account] */\n      0x00\n        /* \"contracts/StakingRewards.sol\":3972:3979  account */\n      dup6\n        /* \"contracts/StakingRewards.sol\":3964:3980  stakers[account] */\n      0xffffffffffffffffffffffffffffffffffffffff\n      and\n      0xffffffffffffffffffffffffffffffffffffffff\n      and\n      dup2\n      mstore\n      0x20\n      add\n      swap1\n      dup2\n      mstore\n      0x20\n      add\n      0x00\n      keccak256\n        /* \"contracts/StakingRewards.sol\":3964:4005  stakers[account].lastUpdateTimeForAccount */\n      0x03\n      add\n        /* \"contracts/StakingRewards.sol\":3964:4022  stakers[account].lastUpdateTimeForAccount = lastUpdateTime */\n      dup2\n      swap1\n      sstore\n      pop\n        /* \"contracts/StakingRewards.sol\":4063:4078  earned(account) */\n      tag_143\n        /* \"contracts/StakingRewards.sol\":4070:4077  account */\n      dup4\n        /* \"contracts/StakingRewards.sol\":4063:4069  earned */\n      tag_29\n        /* \"contracts/StakingRewards.sol\":4063:4078  earned(account) */\n      jump\t// in\n    tag_143:\n        /* \"contracts/StakingRewards.sol\":4036:4043  stakers */\n      0x0a\n        /* \"contracts/StakingRewards.sol\":4036:4052  stakers[account] */\n      0x00\n        /* \"contracts/StakingRewards.sol\":4044:4051  account */\n      dup6\n        /* \"contracts/StakingRewards.sol\":4036:4052  stakers[account] */\n      0xffffffffffffffffffffffffffffffffffffffff\n      and\n      0xffffffffffffffffffffffffffffffffffffffff\n      and\n      dup2\n      mstore\n      0x20\n      add\n      swap1\n      dup2\n      mstore\n      0x20\n      add\n      0x00\n      keccak256\n        /* \"contracts/StakingRewards.sol\":4036:4060  stakers[account].rewards */\n      0x02\n      add\n        /* \"contracts/StakingRewards.sol\":4036:4078  stakers[account].rewards = earned(account) */\n      dup2\n      swap1\n      sstore\n      pop\n        /* \"contracts/StakingRewards.sol\":4130:4150  rewardPerTokenStored */\n      sload(0x03)\n        /* \"contracts/StakingRewards.sol\":4092:4099  stakers */\n      0x0a\n        /* \"contracts/StakingRewards.sol\":4092:4108  stakers[account] */\n      0x00\n        /* \"contracts/StakingRewards.sol\":4100:4107  account */\n      dup6\n        /* \"contracts/StakingRewards.sol\":4092:4108  stakers[account] */\n      0xffffffffffffffffffffffffffffffffffffffff\n      and\n      0xffffffffffffffffffffffffffffffffffffffff\n      and\n      dup2\n      mstore\n      0x20\n      add\n      swap1\n      dup2\n      mstore\n      0x20\n      add\n      0x00\n      keccak256\n        /* \"contracts/StakingRewards.sol\":4092:4127  stakers[account].rewardPerTokenPaid */\n      0x01\n      add\n        /* \"contracts/StakingRewards.sol\":4092:4150  stakers[account].rewardPerTokenPaid = rewardPerTokenStored */\n      dup2\n      swap1\n      sstore\n      pop\n        /* \"contracts/StakingRewards.sol\":3923:4161  if (account != address(0)) {... */\n    tag_142:\n        /* \"contracts/StakingRewards.sol\":3297:4167  {... */\n      pop\n      pop\n        /* \"contracts/StakingRewards.sol\":3249:4167  function _updateRewards(address account) public {... */\n      pop\n      jump\t// out\n        /* \"contracts/StakingRewards.sol\":5532:5998  function withdraw(uint256 amount) external {... */\n    tag_46:\n        /* \"contracts/StakingRewards.sol\":5623:5629  amount */\n      dup1\n        /* \"contracts/StakingRewards.sol\":5593:5600  stakers */\n      0x0a\n        /* \"contracts/StakingRewards.sol\":5593:5612  stakers[msg.sender] */\n      0x00\n        /* \"contracts/StakingRewards.sol\":5601:5611  msg.sender */\n      caller\n        /* \"contracts/StakingRewards.sol\":5593:5612  stakers[msg.sender] */\n      0xffffffffffffffffffffffffffffffffffffffff\n      and\n      0xffffffffffffffffffffffffffffffffffffffff\n      and\n      dup2\n      mstore\n      0x20\n      add\n      swap1\n      dup2\n      mstore\n      0x20\n      add\n      0x00\n      keccak256\n        /* \"contracts/StakingRewards.sol\":5593:5619  stakers[msg.sender].amount */\n      0x00\n      add\n      sload\n        /* \"contracts/StakingRewards.sol\":5593:5629  stakers[msg.sender].amount >= amount */\n      lt\n      iszero\n        /* \"contracts/StakingRewards.sol\":5585:5661  require(stakers[msg.sender].amount >= amount, \"Insufficient staked balance\") */\n      tag_145\n      jumpi\n      mload(0x40)\n      0x08c379a000000000000000000000000000000000000000000000000000000000\n      dup2\n      mstore\n      0x04\n      add\n      tag_146\n      swap1\n      tag_147\n      jump\t// in\n    tag_146:\n      mload(0x40)\n      dup1\n      swap2\n      sub\n      swap1\n      revert\n    tag_145:\n        /* \"contracts/StakingRewards.sol\":5727:5753  _updateRewards(msg.sender) */\n      tag_148\n        /* \"contracts/StakingRewards.sol\":5742:5752  msg.sender */\n      caller\n        /* \"contracts/StakingRewards.sol\":5727:5741  _updateRewards */\n      tag_42\n        /* \"contracts/StakingRewards.sol\":5727:5753  _updateRewards(msg.sender) */\n      jump\t// in\n    tag_148:\n        /* \"contracts/StakingRewards.sol\":5821:5827  amount */\n      dup1\n        /* \"contracts/StakingRewards.sol\":5792:5799  stakers */\n      0x0a\n        /* \"contracts/StakingRewards.sol\":5792:5811  stakers[msg.sender] */\n      0x00\n        /* \"contracts/StakingRewards.sol\":5800:5810  msg.sender */\n      caller\n        /* \"contracts/StakingRewards.sol\":5792:5811  stakers[msg.sender] */\n      0xffffffffffffffffffffffffffffffffffffffff\n      and\n      0xffffffffffffffffffffffffffffffffffffffff\n      and\n      dup2\n      mstore\n      0x20\n      add\n      swap1\n      dup2\n      mstore\n      0x20\n      add\n      0x00\n      keccak256\n        /* \"contracts/StakingRewards.sol\":5792:5818  stakers[msg.sender].amount */\n      0x00\n      add\n      sload\n        /* \"contracts/StakingRewards.sol\":5792:5827  stakers[msg.sender].amount - amount */\n      tag_149\n      swap2\n      swap1\n      tag_100\n      jump\t// in\n    tag_149:\n        /* \"contracts/StakingRewards.sol\":5763:5770  stakers */\n      0x0a\n        /* \"contracts/StakingRewards.sol\":5763:5782  stakers[msg.sender] */\n      0x00\n        /* \"contracts/StakingRewards.sol\":5771:5781  msg.sender */\n      caller\n        /* \"contracts/StakingRewards.sol\":5763:5782  stakers[msg.sender] */\n      0xffffffffffffffffffffffffffffffffffffffff\n      and\n      0xffffffffffffffffffffffffffffffffffffffff\n      and\n      dup2\n      mstore\n      0x20\n      add\n      swap1\n      dup2\n      mstore\n      0x20\n      add\n      0x00\n      keccak256\n        /* \"contracts/StakingRewards.sol\":5763:5789  stakers[msg.sender].amount */\n      0x00\n      add\n        /* \"contracts/StakingRewards.sol\":5763:5827  stakers[msg.sender].amount = stakers[msg.sender].amount - amount */\n      dup2\n      swap1\n      sstore\n      pop\n        /* \"contracts/StakingRewards.sol\":5865:5871  amount */\n      dup1\n        /* \"contracts/StakingRewards.sol\":5851:5862  totalStaked */\n      sload(0x06)\n        /* \"contracts/StakingRewards.sol\":5851:5871  totalStaked - amount */\n      tag_150\n      swap2\n      swap1\n      tag_100\n      jump\t// in\n    tag_150:\n        /* \"contracts/StakingRewards.sol\":5837:5848  totalStaked */\n      0x06\n        /* \"contracts/StakingRewards.sol\":5837:5871  totalStaked = totalStaked - amount */\n      dup2\n      swap1\n      sstore\n      pop\n        /* \"contracts/StakingRewards.sol\":5881:5888  lpToken */\n      0x00\n      dup1\n      sload\n      swap1\n      0x0100\n      exp\n      swap1\n      div\n      0xffffffffffffffffffffffffffffffffffffffff\n      and\n        /* \"contracts/StakingRewards.sol\":5881:5897  lpToken.transfer */\n      0xffffffffffffffffffffffffffffffffffffffff\n      and\n      0xa9059cbb\n        /* \"contracts/StakingRewards.sol\":5898:5908  msg.sender */\n      caller\n        /* \"contracts/StakingRewards.sol\":5910:5916  amount */\n      dup4\n        /* \"contracts/StakingRewards.sol\":5881:5917  lpToken.transfer(msg.sender, amount) */\n      mload(0x40)\n      dup4\n      0xffffffff\n      and\n      0xe0\n      shl\n      dup2\n      mstore\n      0x04\n      add\n      tag_151\n      swap3\n      swap2\n      swap1\n      tag_152\n      jump\t// in\n    tag_151:\n      0x20\n      mload(0x40)\n      dup1\n      dup4\n      sub\n      dup2\n      0x00\n      dup8\n      gas\n      call\n      iszero\n      dup1\n      iszero\n      tag_154\n      jumpi\n      returndatasize\n      0x00\n      dup1\n      returndatacopy\n      revert(0x00, returndatasize)\n    tag_154:\n      pop\n      pop\n      pop\n      pop\n      mload(0x40)\n      returndatasize\n      not(0x1f)\n      0x1f\n      dup3\n      add\n      and\n      dup3\n      add\n      dup1\n      0x40\n      mstore\n      pop\n      dup2\n      add\n      swap1\n      tag_155\n      swap2\n      swap1\n      tag_156\n      jump\t// in\n    tag_155:\n      pop\n        /* \"contracts/StakingRewards.sol\":5972:5982  msg.sender */\n      caller\n        /* \"contracts/StakingRewards.sol\":5962:5991  Withdrawn(msg.sender, amount) */\n      0xffffffffffffffffffffffffffffffffffffffff\n      and\n      0x7084f5476618d8e60b11ef0d7d3f06914655adb8793e28ff7f018d4c76d505d5\n        /* \"contracts/StakingRewards.sol\":5984:5990  amount */\n      dup3\n        /* \"contracts/StakingRewards.sol\":5962:5991  Withdrawn(msg.sender, amount) */\n      mload(0x40)\n      tag_157\n      swap2\n      swap1\n      tag_31\n      jump\t// in\n    tag_157:\n      mload(0x40)\n      dup1\n      swap2\n      sub\n      swap1\n      log2\n        /* \"contracts/StakingRewards.sol\":5532:5998  function withdraw(uint256 amount) external {... */\n      pop\n      jump\t// out\n        /* \"contracts/StakingRewards.sol\":6481:6852  function getPendingReward(address account) public view returns (uint256) {... */\n    tag_49:\n        /* \"contracts/StakingRewards.sol\":6545:6552  uint256 */\n      0x00\n        /* \"contracts/StakingRewards.sol\":6564:6593  uint256 lastUpdateTimeAccount */\n      dup1\n        /* \"contracts/StakingRewards.sol\":6596:6603  stakers */\n      0x0a\n        /* \"contracts/StakingRewards.sol\":6596:6612  stakers[account] */\n      0x00\n        /* \"contracts/StakingRewards.sol\":6604:6611  account */\n      dup5\n        /* \"contracts/StakingRewards.sol\":6596:6612  stakers[account] */\n      0xffffffffffffffffffffffffffffffffffffffff\n      and\n      0xffffffffffffffffffffffffffffffffffffffff\n      and\n      dup2\n      mstore\n      0x20\n      add\n      swap1\n      dup2\n      mstore\n      0x20\n      add\n      0x00\n      keccak256\n        /* \"contracts/StakingRewards.sol\":6596:6637  stakers[account].lastUpdateTimeForAccount */\n      0x03\n      add\n      sload\n        /* \"contracts/StakingRewards.sol\":6564:6637  uint256 lastUpdateTimeAccount = stakers[account].lastUpdateTimeForAccount */\n      swap1\n      pop\n        /* \"contracts/StakingRewards.sol\":6647:6676  uint256 rewardPerTokenAccount */\n      0x00\n        /* \"contracts/StakingRewards.sol\":6704:6705  0 */\n      dup1\n        /* \"contracts/StakingRewards.sol\":6679:6700  lastUpdateTimeAccount */\n      dup3\n        /* \"contracts/StakingRewards.sol\":6679:6705  lastUpdateTimeAccount != 0 */\n      sub\n        /* \"contracts/StakingRewards.sol\":6679:6752  lastUpdateTimeAccount != 0 ? rewardPerToken() - lastUpdateTimeAccount : 0 */\n      tag_159\n      jumpi\n        /* \"contracts/StakingRewards.sol\":6751:6752  0 */\n      0x00\n        /* \"contracts/StakingRewards.sol\":6679:6752  lastUpdateTimeAccount != 0 ? rewardPerToken() - lastUpdateTimeAccount : 0 */\n      jump(tag_160)\n    tag_159:\n        /* \"contracts/StakingRewards.sol\":6727:6748  lastUpdateTimeAccount */\n      dup2\n        /* \"contracts/StakingRewards.sol\":6708:6724  rewardPerToken() */\n      tag_161\n        /* \"contracts/StakingRewards.sol\":6708:6722  rewardPerToken */\n      tag_86\n        /* \"contracts/StakingRewards.sol\":6708:6724  rewardPerToken() */\n      jump\t// in\n    tag_161:\n        /* \"contracts/StakingRewards.sol\":6708:6748  rewardPerToken() - lastUpdateTimeAccount */\n      tag_162\n      swap2\n      swap1\n      tag_100\n      jump\t// in\n    tag_162:\n        /* \"contracts/StakingRewards.sol\":6679:6752  lastUpdateTimeAccount != 0 ? rewardPerToken() - lastUpdateTimeAccount : 0 */\n    tag_160:\n        /* \"contracts/StakingRewards.sol\":6647:6752  uint256 rewardPerTokenAccount = lastUpdateTimeAccount != 0 ? rewardPerToken() - lastUpdateTimeAccount : 0 */\n      swap1\n      pop\n        /* \"contracts/StakingRewards.sol\":6821:6828  stakers */\n      0x0a\n        /* \"contracts/StakingRewards.sol\":6821:6837  stakers[account] */\n      0x00\n        /* \"contracts/StakingRewards.sol\":6829:6836  account */\n      dup6\n        /* \"contracts/StakingRewards.sol\":6821:6837  stakers[account] */\n      0xffffffffffffffffffffffffffffffffffffffff\n      and\n      0xffffffffffffffffffffffffffffffffffffffff\n      and\n      dup2\n      mstore\n      0x20\n      add\n      swap1\n      dup2\n      mstore\n      0x20\n      add\n      0x00\n      keccak256\n        /* \"contracts/StakingRewards.sol\":6821:6845  stakers[account].rewards */\n      0x02\n      add\n      sload\n        /* \"contracts/StakingRewards.sol\":6796:6817  rewardPerTokenAccount */\n      dup2\n        /* \"contracts/StakingRewards.sol\":6770:6777  stakers */\n      0x0a\n        /* \"contracts/StakingRewards.sol\":6770:6786  stakers[account] */\n      0x00\n        /* \"contracts/StakingRewards.sol\":6778:6785  account */\n      dup8\n        /* \"contracts/StakingRewards.sol\":6770:6786  stakers[account] */\n      0xffffffffffffffffffffffffffffffffffffffff\n      and\n      0xffffffffffffffffffffffffffffffffffffffff\n      and\n      dup2\n      mstore\n      0x20\n      add\n      swap1\n      dup2\n      mstore\n      0x20\n      add\n      0x00\n      keccak256\n        /* \"contracts/StakingRewards.sol\":6770:6793  stakers[account].amount */\n      0x00\n      add\n      sload\n        /* \"contracts/StakingRewards.sol\":6770:6817  stakers[account].amount * rewardPerTokenAccount */\n      tag_163\n      swap2\n      swap1\n      tag_102\n      jump\t// in\n    tag_163:\n        /* \"contracts/StakingRewards.sol\":6769:6845  (stakers[account].amount * rewardPerTokenAccount) + stakers[account].rewards */\n      tag_164\n      swap2\n      swap1\n      tag_104\n      jump\t// in\n    tag_164:\n        /* \"contracts/StakingRewards.sol\":6762:6845  return (stakers[account].amount * rewardPerTokenAccount) + stakers[account].rewards */\n      swap3\n      pop\n      pop\n      pop\n        /* \"contracts/StakingRewards.sol\":6481:6852  function getPendingReward(address account) public view returns (uint256) {... */\n      swap2\n      swap1\n      pop\n      jump\t// out\n        /* \"contracts/StakingRewards.sol\":221:250  uint256 public maxDailyReward */\n    tag_52:\n      sload(0x04)\n      dup2\n      jump\t// out\n        /* \"contracts/StakingRewards.sol\":98:118  ERC20 public lpToken */\n    tag_55:\n      0x00\n      dup1\n      sload\n      swap1\n      0x0100\n      exp\n      swap1\n      div\n      0xffffffffffffffffffffffffffffffffffffffff\n      and\n      dup2\n      jump\t// out\n        /* \"contracts/StakingRewards.sol\":256:281  uint256 public rewardRate */\n    tag_59:\n      sload(0x05)\n      dup2\n      jump\t// out\n        /* \"contracts/StakingRewards.sol\":124:138  Gem public gem */\n    tag_62:\n      0x01\n      0x00\n      swap1\n      sload\n      swap1\n      0x0100\n      exp\n      swap1\n      div\n      0xffffffffffffffffffffffffffffffffffffffff\n      and\n      dup2\n      jump\t// out\n        /* \"contracts/StakingRewards.sol\":287:313  uint256 public totalStaked */\n    tag_66:\n      sload(0x06)\n      dup2\n      jump\t// out\n        /* \"contracts/StakingRewards.sol\":619:663  mapping(address => StakeInfo) public stakers */\n    tag_70:\n      mstore(0x20, 0x0a)\n      dup1\n      0x00\n      mstore\n      keccak256(0x00, 0x40)\n      0x00\n      swap2\n      pop\n      swap1\n      pop\n      dup1\n      0x00\n      add\n      sload\n      swap1\n      dup1\n      0x01\n      add\n      sload\n      swap1\n      dup1\n      0x02\n      add\n      sload\n      swap1\n      dup1\n      0x03\n      add\n      sload\n      swap1\n      pop\n      dup5\n      jump\t// out\n        /* \"contracts/StakingRewards.sol\":428:455  bool public stakingPoolLive */\n    tag_74:\n      0x09\n      0x14\n      swap1\n      sload\n      swap1\n      0x0100\n      exp\n      swap1\n      div\n      0xff\n      and\n      dup2\n      jump\t// out\n        /* \"contracts/StakingRewards.sol\":5197:5525  function stake(uint256 amount) external {... */\n    tag_79:\n        /* \"contracts/StakingRewards.sol\":5264:5265  0 */\n      0x00\n        /* \"contracts/StakingRewards.sol\":5255:5261  amount */\n      dup2\n        /* \"contracts/StakingRewards.sol\":5255:5265  amount > 0 */\n      gt\n        /* \"contracts/StakingRewards.sol\":5247:5291  require(amount > 0, \"Cannot stake 0 tokens\") */\n      tag_166\n      jumpi\n      mload(0x40)\n      0x08c379a000000000000000000000000000000000000000000000000000000000\n      dup2\n      mstore\n      0x04\n      add\n      tag_167\n      swap1\n      tag_168\n      jump\t// in\n    tag_167:\n      mload(0x40)\n      dup1\n      swap2\n      sub\n      swap1\n      revert\n    tag_166:\n        /* \"contracts/StakingRewards.sol\":5301:5327  _updateRewards(msg.sender) */\n      tag_169\n        /* \"contracts/StakingRewards.sol\":5316:5326  msg.sender */\n      caller\n        /* \"contracts/StakingRewards.sol\":5301:5315  _updateRewards */\n      tag_42\n        /* \"contracts/StakingRewards.sol\":5301:5327  _updateRewards(msg.sender) */\n      jump\t// in\n    tag_169:\n        /* \"contracts/StakingRewards.sol\":5337:5344  lpToken */\n      0x00\n      dup1\n      sload\n      swap1\n      0x0100\n      exp\n      swap1\n      div\n      0xffffffffffffffffffffffffffffffffffffffff\n      and\n        /* \"contracts/StakingRewards.sol\":5337:5357  lpToken.transferFrom */\n      0xffffffffffffffffffffffffffffffffffffffff\n      and\n      0x23b872dd\n        /* \"contracts/StakingRewards.sol\":5358:5368  msg.sender */\n      caller\n        /* \"contracts/StakingRewards.sol\":5378:5382  this */\n      address\n        /* \"contracts/StakingRewards.sol\":5385:5391  amount */\n      dup5\n        /* \"contracts/StakingRewards.sol\":5337:5392  lpToken.transferFrom(msg.sender, address(this), amount) */\n      mload(0x40)\n      dup5\n      0xffffffff\n      and\n      0xe0\n      shl\n      dup2\n      mstore\n      0x04\n      add\n      tag_170\n      swap4\n      swap3\n      swap2\n      swap1\n      tag_122\n      jump\t// in\n    tag_170:\n      0x20\n      mload(0x40)\n      dup1\n      dup4\n      sub\n      dup2\n      0x00\n      dup8\n      gas\n      call\n      iszero\n      dup1\n      iszero\n      tag_172\n      jumpi\n      returndatasize\n      0x00\n      dup1\n      returndatacopy\n      revert(0x00, returndatasize)\n    tag_172:\n      pop\n      pop\n      pop\n      pop\n      mload(0x40)\n      returndatasize\n      not(0x1f)\n      0x1f\n      dup3\n      add\n      and\n      dup3\n      add\n      dup1\n      0x40\n      mstore\n      pop\n      dup2\n      add\n      swap1\n      tag_173\n      swap2\n      swap1\n      tag_156\n      jump\t// in\n    tag_173:\n      pop\n        /* \"contracts/StakingRewards.sol\":5430:5436  amount */\n      dup1\n        /* \"contracts/StakingRewards.sol\":5416:5427  totalStaked */\n      sload(0x06)\n        /* \"contracts/StakingRewards.sol\":5416:5436  totalStaked + amount */\n      tag_174\n      swap2\n      swap1\n      tag_104\n      jump\t// in\n    tag_174:\n        /* \"contracts/StakingRewards.sol\":5402:5413  totalStaked */\n      0x06\n        /* \"contracts/StakingRewards.sol\":5402:5436  totalStaked = totalStaked + amount */\n      dup2\n      swap1\n      sstore\n      pop\n        /* \"contracts/StakingRewards.sol\":5504:5510  amount */\n      dup1\n        /* \"contracts/StakingRewards.sol\":5475:5482  stakers */\n      0x0a\n        /* \"contracts/StakingRewards.sol\":5475:5494  stakers[msg.sender] */\n      0x00\n        /* \"contracts/StakingRewards.sol\":5483:5493  msg.sender */\n      caller\n        /* \"contracts/StakingRewards.sol\":5475:5494  stakers[msg.sender] */\n      0xffffffffffffffffffffffffffffffffffffffff\n      and\n      0xffffffffffffffffffffffffffffffffffffffff\n      and\n      dup2\n      mstore\n      0x20\n      add\n      swap1\n      dup2\n      mstore\n      0x20\n      add\n      0x00\n      keccak256\n        /* \"contracts/StakingRewards.sol\":5475:5501  stakers[msg.sender].amount */\n      0x00\n      add\n      sload\n        /* \"contracts/StakingRewards.sol\":5475:5510  stakers[msg.sender].amount + amount */\n      tag_175\n      swap2\n      swap1\n      tag_104\n      jump\t// in\n    tag_175:\n        /* \"contracts/StakingRewards.sol\":5446:5453  stakers */\n      0x0a\n        /* \"contracts/StakingRewards.sol\":5446:5465  stakers[msg.sender] */\n      0x00\n        /* \"contracts/StakingRewards.sol\":5454:5464  msg.sender */\n      caller\n        /* \"contracts/StakingRewards.sol\":5446:5465  stakers[msg.sender] */\n      0xffffffffffffffffffffffffffffffffffffffff\n      and\n      0xffffffffffffffffffffffffffffffffffffffff\n      and\n      dup2\n      mstore\n      0x20\n      add\n      swap1\n      dup2\n      mstore\n      0x20\n      add\n      0x00\n      keccak256\n        /* \"contracts/StakingRewards.sol\":5446:5472  stakers[msg.sender].amount */\n      0x00\n      add\n        /* \"contracts/StakingRewards.sol\":5446:5510  stakers[msg.sender].amount = stakers[msg.sender].amount + amount */\n      dup2\n      swap1\n      sstore\n      pop\n        /* \"contracts/StakingRewards.sol\":5197:5525  function stake(uint256 amount) external {... */\n      pop\n      jump\t// out\n        /* \"contracts/StakingRewards.sol\":6004:6314  function claimReward() external {... */\n    tag_81:\n        /* \"contracts/StakingRewards.sol\":6046:6072  _updateRewards(msg.sender) */\n      tag_177\n        /* \"contracts/StakingRewards.sol\":6061:6071  msg.sender */\n      caller\n        /* \"contracts/StakingRewards.sol\":6046:6060  _updateRewards */\n      tag_42\n        /* \"contracts/StakingRewards.sol\":6046:6072  _updateRewards(msg.sender) */\n      jump\t// in\n    tag_177:\n        /* \"contracts/StakingRewards.sol\":6082:6096  uint256 reward */\n      0x00\n        /* \"contracts/StakingRewards.sol\":6099:6106  stakers */\n      0x0a\n        /* \"contracts/StakingRewards.sol\":6099:6118  stakers[msg.sender] */\n      0x00\n        /* \"contracts/StakingRewards.sol\":6107:6117  msg.sender */\n      caller\n        /* \"contracts/StakingRewards.sol\":6099:6118  stakers[msg.sender] */\n      0xffffffffffffffffffffffffffffffffffffffff\n      and\n      0xffffffffffffffffffffffffffffffffffffffff\n      and\n      dup2\n      mstore\n      0x20\n      add\n      swap1\n      dup2\n      mstore\n      0x20\n      add\n      0x00\n      keccak256\n        /* \"contracts/StakingRewards.sol\":6099:6126  stakers[msg.sender].rewards */\n      0x02\n      add\n      sload\n        /* \"contracts/StakingRewards.sol\":6082:6126  uint256 reward = stakers[msg.sender].rewards */\n      swap1\n      pop\n        /* \"contracts/StakingRewards.sol\":6150:6151  0 */\n      0x00\n        /* \"contracts/StakingRewards.sol\":6141:6147  reward */\n      dup2\n        /* \"contracts/StakingRewards.sol\":6141:6151  reward > 0 */\n      gt\n        /* \"contracts/StakingRewards.sol\":6137:6308  if (reward > 0) {... */\n      iszero\n      tag_178\n      jumpi\n        /* \"contracts/StakingRewards.sol\":6197:6198  0 */\n      0x00\n        /* \"contracts/StakingRewards.sol\":6167:6174  stakers */\n      0x0a\n        /* \"contracts/StakingRewards.sol\":6167:6186  stakers[msg.sender] */\n      0x00\n        /* \"contracts/StakingRewards.sol\":6175:6185  msg.sender */\n      caller\n        /* \"contracts/StakingRewards.sol\":6167:6186  stakers[msg.sender] */\n      0xffffffffffffffffffffffffffffffffffffffff\n      and\n      0xffffffffffffffffffffffffffffffffffffffff\n      and\n      dup2\n      mstore\n      0x20\n      add\n      swap1\n      dup2\n      mstore\n      0x20\n      add\n      0x00\n      keccak256\n        /* \"contracts/StakingRewards.sol\":6167:6194  stakers[msg.sender].rewards */\n      0x02\n      add\n        /* \"contracts/StakingRewards.sol\":6167:6198  stakers[msg.sender].rewards = 0 */\n      dup2\n      swap1\n      sstore\n      pop\n        /* \"contracts/StakingRewards.sol\":6212:6215  gem */\n      0x01\n      0x00\n      swap1\n      sload\n      swap1\n      0x0100\n      exp\n      swap1\n      div\n      0xffffffffffffffffffffffffffffffffffffffff\n      and\n        /* \"contracts/StakingRewards.sol\":6212:6228  gem.transferGems */\n      0xffffffffffffffffffffffffffffffffffffffff\n      and\n      0xf09910e4\n        /* \"contracts/StakingRewards.sol\":6229:6239  msg.sender */\n      caller\n        /* \"contracts/StakingRewards.sol\":6241:6247  reward */\n      dup4\n        /* \"contracts/StakingRewards.sol\":6212:6248  gem.transferGems(msg.sender, reward) */\n      mload(0x40)\n      dup4\n      0xffffffff\n      and\n      0xe0\n      shl\n      dup2\n      mstore\n      0x04\n      add\n      tag_179\n      swap3\n      swap2\n      swap1\n      tag_152\n      jump\t// in\n    tag_179:\n      0x20\n      mload(0x40)\n      dup1\n      dup4\n      sub\n      dup2\n      0x00\n      dup8\n      gas\n      call\n      iszero\n      dup1\n      iszero\n      tag_181\n      jumpi\n      returndatasize\n      0x00\n      dup1\n      returndatacopy\n      revert(0x00, returndatasize)\n    tag_181:\n      pop\n      pop\n      pop\n      pop\n      mload(0x40)\n      returndatasize\n      not(0x1f)\n      0x1f\n      dup3\n      add\n      and\n      dup3\n      add\n      dup1\n      0x40\n      mstore\n      pop\n      dup2\n      add\n      swap1\n      tag_182\n      swap2\n      swap1\n      tag_156\n      jump\t// in\n    tag_182:\n      pop\n        /* \"contracts/StakingRewards.sol\":6278:6288  msg.sender */\n      caller\n        /* \"contracts/StakingRewards.sol\":6267:6297  RewardPaid(msg.sender, reward) */\n      0xffffffffffffffffffffffffffffffffffffffff\n      and\n      0xe2403640ba68fed3a2f88b7557551d1993f84b99bb10ff833f0cf8db0c5e0486\n        /* \"contracts/StakingRewards.sol\":6290:6296  reward */\n      dup3\n        /* \"contracts/StakingRewards.sol\":6267:6297  RewardPaid(msg.sender, reward) */\n      mload(0x40)\n      tag_183\n      swap2\n      swap1\n      tag_31\n      jump\t// in\n    tag_183:\n      mload(0x40)\n      dup1\n      swap2\n      sub\n      swap1\n      log2\n        /* \"contracts/StakingRewards.sol\":6137:6308  if (reward > 0) {... */\n    tag_178:\n        /* \"contracts/StakingRewards.sol\":6036:6314  {... */\n      pop\n        /* \"contracts/StakingRewards.sol\":6004:6314  function claimReward() external {... */\n      jump\t// out\n        /* \"contracts/StakingRewards.sol\":145:174  uint256 public lastUpdateTime */\n    tag_83:\n      sload(0x02)\n      dup2\n      jump\t// out\n        /* \"contracts/StakingRewards.sol\":4175:4434  function rewardPerToken() public view returns (uint256) {... */\n    tag_86:\n        /* \"contracts/StakingRewards.sol\":4222:4229  uint256 */\n      0x00\n        /* \"contracts/StakingRewards.sol\":4260:4261  0 */\n      dup1\n        /* \"contracts/StakingRewards.sol\":4245:4256  totalStaked */\n      sload(0x06)\n        /* \"contracts/StakingRewards.sol\":4245:4261  totalStaked == 0 */\n      sub\n        /* \"contracts/StakingRewards.sol\":4241:4315  if (totalStaked == 0) {... */\n      tag_185\n      jumpi\n        /* \"contracts/StakingRewards.sol\":4284:4304  rewardPerTokenStored */\n      sload(0x03)\n        /* \"contracts/StakingRewards.sol\":4277:4304  return rewardPerTokenStored */\n      swap1\n      pop\n      jump(tag_184)\n        /* \"contracts/StakingRewards.sol\":4241:4315  if (totalStaked == 0) {... */\n    tag_185:\n        /* \"contracts/StakingRewards.sol\":4415:4426  totalStaked */\n      sload(0x06)\n        /* \"contracts/StakingRewards.sol\":4407:4411  1e18 */\n      0x0de0b6b3a7640000\n        /* \"contracts/StakingRewards.sol\":4394:4404  rewardRate */\n      sload(0x05)\n        /* \"contracts/StakingRewards.sol\":4376:4390  lastUpdateTime */\n      sload(0x02)\n        /* \"contracts/StakingRewards.sol\":4358:4373  block.timestamp */\n      timestamp\n        /* \"contracts/StakingRewards.sol\":4358:4390  block.timestamp - lastUpdateTime */\n      tag_186\n      swap2\n      swap1\n      tag_100\n      jump\t// in\n    tag_186:\n        /* \"contracts/StakingRewards.sol\":4357:4404  (block.timestamp - lastUpdateTime) * rewardRate */\n      tag_187\n      swap2\n      swap1\n      tag_102\n      jump\t// in\n    tag_187:\n        /* \"contracts/StakingRewards.sol\":4356:4411  ((block.timestamp - lastUpdateTime) * rewardRate)/ 1e18 */\n      tag_188\n      swap2\n      swap1\n      tag_133\n      jump\t// in\n    tag_188:\n        /* \"contracts/StakingRewards.sol\":4355:4426  (((block.timestamp - lastUpdateTime) * rewardRate)/ 1e18) / totalStaked */\n      tag_189\n      swap2\n      swap1\n      tag_133\n      jump\t// in\n    tag_189:\n        /* \"contracts/StakingRewards.sol\":4331:4351  rewardPerTokenStored */\n      sload(0x03)\n        /* \"contracts/StakingRewards.sol\":4331:4427  rewardPerTokenStored + ((((block.timestamp - lastUpdateTime) * rewardRate)/ 1e18) / totalStaked) */\n      tag_190\n      swap2\n      swap1\n      tag_104\n      jump\t// in\n    tag_190:\n        /* \"contracts/StakingRewards.sol\":4324:4427  return rewardPerTokenStored + ((((block.timestamp - lastUpdateTime) * rewardRate)/ 1e18) / totalStaked) */\n      swap1\n      pop\n        /* \"contracts/StakingRewards.sol\":4175:4434  function rewardPerToken() public view returns (uint256) {... */\n    tag_184:\n      swap1\n      jump\t// out\n        /* \"contracts/StakingRewards.sol\":394:422  address public contractOwner */\n    tag_89:\n      0x09\n      0x00\n      swap1\n      sload\n      swap1\n      0x0100\n      exp\n      swap1\n      div\n      0xffffffffffffffffffffffffffffffffffffffff\n      and\n      dup2\n      jump\t// out\n        /* \"contracts/StakingRewards.sol\":180:215  uint256 public rewardPerTokenStored */\n    tag_93:\n      sload(0x03)\n      dup2\n      jump\t// out\n        /* \"contracts/StakingRewards.sol\":2106:2268  function _resetDailyRewardCounterIfNeeded() private {... */\n    tag_128:\n        /* \"contracts/StakingRewards.sol\":2208:2213  86400 */\n      0x015180\n        /* \"contracts/StakingRewards.sol\":2190:2204  lastUpdateTime */\n      sload(0x02)\n        /* \"contracts/StakingRewards.sol\":2172:2187  block.timestamp */\n      timestamp\n        /* \"contracts/StakingRewards.sol\":2172:2204  block.timestamp - lastUpdateTime */\n      tag_192\n      swap2\n      swap1\n      tag_100\n      jump\t// in\n    tag_192:\n        /* \"contracts/StakingRewards.sol\":2172:2213  block.timestamp - lastUpdateTime >= 86400 */\n      lt\n        /* \"contracts/StakingRewards.sol\":2168:2262  if (block.timestamp - lastUpdateTime >= 86400) {... */\n      tag_193\n      jumpi\n        /* \"contracts/StakingRewards.sol\":2250:2251  0 */\n      0x00\n        /* \"contracts/StakingRewards.sol\":2229:2247  dailyRewardCounter */\n      0x07\n        /* \"contracts/StakingRewards.sol\":2229:2251  dailyRewardCounter = 0 */\n      dup2\n      swap1\n      sstore\n      pop\n        /* \"contracts/StakingRewards.sol\":2168:2262  if (block.timestamp - lastUpdateTime >= 86400) {... */\n    tag_193:\n        /* \"contracts/StakingRewards.sol\":2106:2268  function _resetDailyRewardCounterIfNeeded() private {... */\n      jump\t// out\n        /* \"#utility.yul\":88:205   */\n    tag_195:\n        /* \"#utility.yul\":197:198   */\n      0x00\n        /* \"#utility.yul\":194:195   */\n      dup1\n        /* \"#utility.yul\":187:199   */\n      revert\n        /* \"#utility.yul\":334:460   */\n    tag_197:\n        /* \"#utility.yul\":371:378   */\n      0x00\n        /* \"#utility.yul\":411:453   */\n      0xffffffffffffffffffffffffffffffffffffffff\n        /* \"#utility.yul\":404:409   */\n      dup3\n        /* \"#utility.yul\":400:454   */\n      and\n        /* \"#utility.yul\":389:454   */\n      swap1\n      pop\n        /* \"#utility.yul\":334:460   */\n      swap2\n      swap1\n      pop\n      jump\t// out\n        /* \"#utility.yul\":466:562   */\n    tag_198:\n        /* \"#utility.yul\":503:510   */\n      0x00\n        /* \"#utility.yul\":532:556   */\n      tag_237\n        /* \"#utility.yul\":550:555   */\n      dup3\n        /* \"#utility.yul\":532:556   */\n      tag_197\n      jump\t// in\n    tag_237:\n        /* \"#utility.yul\":521:556   */\n      swap1\n      pop\n        /* \"#utility.yul\":466:562   */\n      swap2\n      swap1\n      pop\n      jump\t// out\n        /* \"#utility.yul\":568:690   */\n    tag_199:\n        /* \"#utility.yul\":641:665   */\n      tag_239\n        /* \"#utility.yul\":659:664   */\n      dup2\n        /* \"#utility.yul\":641:665   */\n      tag_198\n      jump\t// in\n    tag_239:\n        /* \"#utility.yul\":634:639   */\n      dup2\n        /* \"#utility.yul\":631:666   */\n      eq\n        /* \"#utility.yul\":621:684   */\n      tag_240\n      jumpi\n        /* \"#utility.yul\":680:681   */\n      0x00\n        /* \"#utility.yul\":677:678   */\n      dup1\n        /* \"#utility.yul\":670:682   */\n      revert\n        /* \"#utility.yul\":621:684   */\n    tag_240:\n        /* \"#utility.yul\":568:690   */\n      pop\n      jump\t// out\n        /* \"#utility.yul\":696:835   */\n    tag_200:\n        /* \"#utility.yul\":742:747   */\n      0x00\n        /* \"#utility.yul\":780:786   */\n      dup2\n        /* \"#utility.yul\":767:787   */\n      calldataload\n        /* \"#utility.yul\":758:787   */\n      swap1\n      pop\n        /* \"#utility.yul\":796:829   */\n      tag_242\n        /* \"#utility.yul\":823:828   */\n      dup2\n        /* \"#utility.yul\":796:829   */\n      tag_199\n      jump\t// in\n    tag_242:\n        /* \"#utility.yul\":696:835   */\n      swap3\n      swap2\n      pop\n      pop\n      jump\t// out\n        /* \"#utility.yul\":841:1170   */\n    tag_28:\n        /* \"#utility.yul\":900:906   */\n      0x00\n        /* \"#utility.yul\":949:951   */\n      0x20\n        /* \"#utility.yul\":937:946   */\n      dup3\n        /* \"#utility.yul\":928:935   */\n      dup5\n        /* \"#utility.yul\":924:947   */\n      sub\n        /* \"#utility.yul\":920:952   */\n      slt\n        /* \"#utility.yul\":917:1036   */\n      iszero\n      tag_244\n      jumpi\n        /* \"#utility.yul\":955:1034   */\n      tag_245\n      tag_195\n      jump\t// in\n    tag_245:\n        /* \"#utility.yul\":917:1036   */\n    tag_244:\n        /* \"#utility.yul\":1075:1076   */\n      0x00\n        /* \"#utility.yul\":1100:1153   */\n      tag_246\n        /* \"#utility.yul\":1145:1152   */\n      dup5\n        /* \"#utility.yul\":1136:1142   */\n      dup3\n        /* \"#utility.yul\":1125:1134   */\n      dup6\n        /* \"#utility.yul\":1121:1143   */\n      add\n        /* \"#utility.yul\":1100:1153   */\n      tag_200\n      jump\t// in\n    tag_246:\n        /* \"#utility.yul\":1090:1153   */\n      swap2\n      pop\n        /* \"#utility.yul\":1046:1163   */\n      pop\n        /* \"#utility.yul\":841:1170   */\n      swap3\n      swap2\n      pop\n      pop\n      jump\t// out\n        /* \"#utility.yul\":1176:1253   */\n    tag_201:\n        /* \"#utility.yul\":1213:1220   */\n      0x00\n        /* \"#utility.yul\":1242:1247   */\n      dup2\n        /* \"#utility.yul\":1231:1247   */\n      swap1\n      pop\n        /* \"#utility.yul\":1176:1253   */\n      swap2\n      swap1\n      pop\n      jump\t// out\n        /* \"#utility.yul\":1259:1377   */\n    tag_202:\n        /* \"#utility.yul\":1346:1370   */\n      tag_249\n        /* \"#utility.yul\":1364:1369   */\n      dup2\n        /* \"#utility.yul\":1346:1370   */\n      tag_201\n      jump\t// in\n    tag_249:\n        /* \"#utility.yul\":1341:1344   */\n      dup3\n        /* \"#utility.yul\":1334:1371   */\n      mstore\n        /* \"#utility.yul\":1259:1377   */\n      pop\n      pop\n      jump\t// out\n        /* \"#utility.yul\":1383:1605   */\n    tag_31:\n        /* \"#utility.yul\":1476:1480   */\n      0x00\n        /* \"#utility.yul\":1514:1516   */\n      0x20\n        /* \"#utility.yul\":1503:1512   */\n      dup3\n        /* \"#utility.yul\":1499:1517   */\n      add\n        /* \"#utility.yul\":1491:1517   */\n      swap1\n      pop\n        /* \"#utility.yul\":1527:1598   */\n      tag_251\n        /* \"#utility.yul\":1595:1596   */\n      0x00\n        /* \"#utility.yul\":1584:1593   */\n      dup4\n        /* \"#utility.yul\":1580:1597   */\n      add\n        /* \"#utility.yul\":1571:1577   */\n      dup5\n        /* \"#utility.yul\":1527:1598   */\n      tag_202\n      jump\t// in\n    tag_251:\n        /* \"#utility.yul\":1383:1605   */\n      swap3\n      swap2\n      pop\n      pop\n      jump\t// out\n        /* \"#utility.yul\":1611:1733   */\n    tag_203:\n        /* \"#utility.yul\":1684:1708   */\n      tag_253\n        /* \"#utility.yul\":1702:1707   */\n      dup2\n        /* \"#utility.yul\":1684:1708   */\n      tag_201\n      jump\t// in\n    tag_253:\n        /* \"#utility.yul\":1677:1682   */\n      dup2\n        /* \"#utility.yul\":1674:1709   */\n      eq\n        /* \"#utility.yul\":1664:1727   */\n      tag_254\n      jumpi\n        /* \"#utility.yul\":1723:1724   */\n      0x00\n        /* \"#utility.yul\":1720:1721   */\n      dup1\n        /* \"#utility.yul\":1713:1725   */\n      revert\n        /* \"#utility.yul\":1664:1727   */\n    tag_254:\n        /* \"#utility.yul\":1611:1733   */\n      pop\n      jump\t// out\n        /* \"#utility.yul\":1739:1878   */\n    tag_204:\n        /* \"#utility.yul\":1785:1790   */\n      0x00\n        /* \"#utility.yul\":1823:1829   */\n      dup2\n        /* \"#utility.yul\":1810:1830   */\n      calldataload\n        /* \"#utility.yul\":1801:1830   */\n      swap1\n      pop\n        /* \"#utility.yul\":1839:1872   */\n      tag_256\n        /* \"#utility.yul\":1866:1871   */\n      dup2\n        /* \"#utility.yul\":1839:1872   */\n      tag_203\n      jump\t// in\n    tag_256:\n        /* \"#utility.yul\":1739:1878   */\n      swap3\n      swap2\n      pop\n      pop\n      jump\t// out\n        /* \"#utility.yul\":1884:2213   */\n    tag_45:\n        /* \"#utility.yul\":1943:1949   */\n      0x00\n        /* \"#utility.yul\":1992:1994   */\n      0x20\n        /* \"#utility.yul\":1980:1989   */\n      dup3\n        /* \"#utility.yul\":1971:1978   */\n      dup5\n        /* \"#utility.yul\":1967:1990   */\n      sub\n        /* \"#utility.yul\":1963:1995   */\n      slt\n        /* \"#utility.yul\":1960:2079   */\n      iszero\n      tag_258\n      jumpi\n        /* \"#utility.yul\":1998:2077   */\n      tag_259\n      tag_195\n      jump\t// in\n    tag_259:\n        /* \"#utility.yul\":1960:2079   */\n    tag_258:\n        /* \"#utility.yul\":2118:2119   */\n      0x00\n        /* \"#utility.yul\":2143:2196   */\n      tag_260\n        /* \"#utility.yul\":2188:2195   */\n      dup5\n        /* \"#utility.yul\":2179:2185   */\n      dup3\n        /* \"#utility.yul\":2168:2177   */\n      dup6\n        /* \"#utility.yul\":2164:2186   */\n      add\n        /* \"#utility.yul\":2143:2196   */\n      tag_204\n      jump\t// in\n    tag_260:\n        /* \"#utility.yul\":2133:2196   */\n      swap2\n      pop\n        /* \"#utility.yul\":2089:2206   */\n      pop\n        /* \"#utility.yul\":1884:2213   */\n      swap3\n      swap2\n      pop\n      pop\n      jump\t// out\n        /* \"#utility.yul\":2219:2279   */\n    tag_205:\n        /* \"#utility.yul\":2247:2250   */\n      0x00\n        /* \"#utility.yul\":2268:2273   */\n      dup2\n        /* \"#utility.yul\":2261:2273   */\n      swap1\n      pop\n        /* \"#utility.yul\":2219:2279   */\n      swap2\n      swap1\n      pop\n      jump\t// out\n        /* \"#utility.yul\":2285:2427   */\n    tag_206:\n        /* \"#utility.yul\":2335:2344   */\n      0x00\n        /* \"#utility.yul\":2368:2421   */\n      tag_263\n        /* \"#utility.yul\":2386:2420   */\n      tag_264\n        /* \"#utility.yul\":2395:2419   */\n      tag_265\n        /* \"#utility.yul\":2413:2418   */\n      dup5\n        /* \"#utility.yul\":2395:2419   */\n      tag_197\n      jump\t// in\n    tag_265:\n        /* \"#utility.yul\":2386:2420   */\n      tag_205\n      jump\t// in\n    tag_264:\n        /* \"#utility.yul\":2368:2421   */\n      tag_197\n      jump\t// in\n    tag_263:\n        /* \"#utility.yul\":2355:2421   */\n      swap1\n      pop\n        /* \"#utility.yul\":2285:2427   */\n      swap2\n      swap1\n      pop\n      jump\t// out\n        /* \"#utility.yul\":2433:2559   */\n    tag_207:\n        /* \"#utility.yul\":2483:2492   */\n      0x00\n        /* \"#utility.yul\":2516:2553   */\n      tag_267\n        /* \"#utility.yul\":2547:2552   */\n      dup3\n        /* \"#utility.yul\":2516:2553   */\n      tag_206\n      jump\t// in\n    tag_267:\n        /* \"#utility.yul\":2503:2553   */\n      swap1\n      pop\n        /* \"#utility.yul\":2433:2559   */\n      swap2\n      swap1\n      pop\n      jump\t// out\n        /* \"#utility.yul\":2565:2704   */\n    tag_208:\n        /* \"#utility.yul\":2628:2637   */\n      0x00\n        /* \"#utility.yul\":2661:2698   */\n      tag_269\n        /* \"#utility.yul\":2692:2697   */\n      dup3\n        /* \"#utility.yul\":2661:2698   */\n      tag_207\n      jump\t// in\n    tag_269:\n        /* \"#utility.yul\":2648:2698   */\n      swap1\n      pop\n        /* \"#utility.yul\":2565:2704   */\n      swap2\n      swap1\n      pop\n      jump\t// out\n        /* \"#utility.yul\":2710:2867   */\n    tag_209:\n        /* \"#utility.yul\":2810:2860   */\n      tag_271\n        /* \"#utility.yul\":2854:2859   */\n      dup2\n        /* \"#utility.yul\":2810:2860   */\n      tag_208\n      jump\t// in\n    tag_271:\n        /* \"#utility.yul\":2805:2808   */\n      dup3\n        /* \"#utility.yul\":2798:2861   */\n      mstore\n        /* \"#utility.yul\":2710:2867   */\n      pop\n      pop\n      jump\t// out\n        /* \"#utility.yul\":2873:3121   */\n    tag_57:\n        /* \"#utility.yul\":2979:2983   */\n      0x00\n        /* \"#utility.yul\":3017:3019   */\n      0x20\n        /* \"#utility.yul\":3006:3015   */\n      dup3\n        /* \"#utility.yul\":3002:3020   */\n      add\n        /* \"#utility.yul\":2994:3020   */\n      swap1\n      pop\n        /* \"#utility.yul\":3030:3114   */\n      tag_273\n        /* \"#utility.yul\":3111:3112   */\n      0x00\n        /* \"#utility.yul\":3100:3109   */\n      dup4\n        /* \"#utility.yul\":3096:3113   */\n      add\n        /* \"#utility.yul\":3087:3093   */\n      dup5\n        /* \"#utility.yul\":3030:3114   */\n      tag_209\n      jump\t// in\n    tag_273:\n        /* \"#utility.yul\":2873:3121   */\n      swap3\n      swap2\n      pop\n      pop\n      jump\t// out\n        /* \"#utility.yul\":3127:3264   */\n    tag_210:\n        /* \"#utility.yul\":3188:3197   */\n      0x00\n        /* \"#utility.yul\":3221:3258   */\n      tag_275\n        /* \"#utility.yul\":3252:3257   */\n      dup3\n        /* \"#utility.yul\":3221:3258   */\n      tag_207\n      jump\t// in\n    tag_275:\n        /* \"#utility.yul\":3208:3258   */\n      swap1\n      pop\n        /* \"#utility.yul\":3127:3264   */\n      swap2\n      swap1\n      pop\n      jump\t// out\n        /* \"#utility.yul\":3270:3423   */\n    tag_211:\n        /* \"#utility.yul\":3368:3416   */\n      tag_277\n        /* \"#utility.yul\":3410:3415   */\n      dup2\n        /* \"#utility.yul\":3368:3416   */\n      tag_210\n      jump\t// in\n    tag_277:\n        /* \"#utility.yul\":3363:3366   */\n      dup3\n        /* \"#utility.yul\":3356:3417   */\n      mstore\n        /* \"#utility.yul\":3270:3423   */\n      pop\n      pop\n      jump\t// out\n        /* \"#utility.yul\":3429:3673   */\n    tag_64:\n        /* \"#utility.yul\":3533:3537   */\n      0x00\n        /* \"#utility.yul\":3571:3573   */\n      0x20\n        /* \"#utility.yul\":3560:3569   */\n      dup3\n        /* \"#utility.yul\":3556:3574   */\n      add\n        /* \"#utility.yul\":3548:3574   */\n      swap1\n      pop\n        /* \"#utility.yul\":3584:3666   */\n      tag_279\n        /* \"#utility.yul\":3663:3664   */\n      0x00\n        /* \"#utility.yul\":3652:3661   */\n      dup4\n        /* \"#utility.yul\":3648:3665   */\n      add\n        /* \"#utility.yul\":3639:3645   */\n      dup5\n        /* \"#utility.yul\":3584:3666   */\n      tag_211\n      jump\t// in\n    tag_279:\n        /* \"#utility.yul\":3429:3673   */\n      swap3\n      swap2\n      pop\n      pop\n      jump\t// out\n        /* \"#utility.yul\":3679:4232   */\n    tag_72:\n        /* \"#utility.yul\":3856:3860   */\n      0x00\n        /* \"#utility.yul\":3894:3897   */\n      0x80\n        /* \"#utility.yul\":3883:3892   */\n      dup3\n        /* \"#utility.yul\":3879:3898   */\n      add\n        /* \"#utility.yul\":3871:3898   */\n      swap1\n      pop\n        /* \"#utility.yul\":3908:3979   */\n      tag_281\n        /* \"#utility.yul\":3976:3977   */\n      0x00\n        /* \"#utility.yul\":3965:3974   */\n      dup4\n        /* \"#utility.yul\":3961:3978   */\n      add\n        /* \"#utility.yul\":3952:3958   */\n      dup8\n        /* \"#utility.yul\":3908:3979   */\n      tag_202\n      jump\t// in\n    tag_281:\n        /* \"#utility.yul\":3989:4061   */\n      tag_282\n        /* \"#utility.yul\":4057:4059   */\n      0x20\n        /* \"#utility.yul\":4046:4055   */\n      dup4\n        /* \"#utility.yul\":4042:4060   */\n      add\n        /* \"#utility.yul\":4033:4039   */\n      dup7\n        /* \"#utility.yul\":3989:4061   */\n      tag_202\n      jump\t// in\n    tag_282:\n        /* \"#utility.yul\":4071:4143   */\n      tag_283\n        /* \"#utility.yul\":4139:4141   */\n      0x40\n        /* \"#utility.yul\":4128:4137   */\n      dup4\n        /* \"#utility.yul\":4124:4142   */\n      add\n        /* \"#utility.yul\":4115:4121   */\n      dup6\n        /* \"#utility.yul\":4071:4143   */\n      tag_202\n      jump\t// in\n    tag_283:\n        /* \"#utility.yul\":4153:4225   */\n      tag_284\n        /* \"#utility.yul\":4221:4223   */\n      0x60\n        /* \"#utility.yul\":4210:4219   */\n      dup4\n        /* \"#utility.yul\":4206:4224   */\n      add\n        /* \"#utility.yul\":4197:4203   */\n      dup5\n        /* \"#utility.yul\":4153:4225   */\n      tag_202\n      jump\t// in\n    tag_284:\n        /* \"#utility.yul\":3679:4232   */\n      swap6\n      swap5\n      pop\n      pop\n      pop\n      pop\n      pop\n      jump\t// out\n        /* \"#utility.yul\":4238:4328   */\n    tag_212:\n        /* \"#utility.yul\":4272:4279   */\n      0x00\n        /* \"#utility.yul\":4315:4320   */\n      dup2\n        /* \"#utility.yul\":4308:4321   */\n      iszero\n        /* \"#utility.yul\":4301:4322   */\n      iszero\n        /* \"#utility.yul\":4290:4322   */\n      swap1\n      pop\n        /* \"#utility.yul\":4238:4328   */\n      swap2\n      swap1\n      pop\n      jump\t// out\n        /* \"#utility.yul\":4334:4443   */\n    tag_213:\n        /* \"#utility.yul\":4415:4436   */\n      tag_287\n        /* \"#utility.yul\":4430:4435   */\n      dup2\n        /* \"#utility.yul\":4415:4436   */\n      tag_212\n      jump\t// in\n    tag_287:\n        /* \"#utility.yul\":4410:4413   */\n      dup3\n        /* \"#utility.yul\":4403:4437   */\n      mstore\n        /* \"#utility.yul\":4334:4443   */\n      pop\n      pop\n      jump\t// out\n        /* \"#utility.yul\":4449:4659   */\n    tag_76:\n        /* \"#utility.yul\":4536:4540   */\n      0x00\n        /* \"#utility.yul\":4574:4576   */\n      0x20\n        /* \"#utility.yul\":4563:4572   */\n      dup3\n        /* \"#utility.yul\":4559:4577   */\n      add\n        /* \"#utility.yul\":4551:4577   */\n      swap1\n      pop\n        /* \"#utility.yul\":4587:4652   */\n      tag_289\n        /* \"#utility.yul\":4649:4650   */\n      0x00\n        /* \"#utility.yul\":4638:4647   */\n      dup4\n        /* \"#utility.yul\":4634:4651   */\n      add\n        /* \"#utility.yul\":4625:4631   */\n      dup5\n        /* \"#utility.yul\":4587:4652   */\n      tag_213\n      jump\t// in\n    tag_289:\n        /* \"#utility.yul\":4449:4659   */\n      swap3\n      swap2\n      pop\n      pop\n      jump\t// out\n        /* \"#utility.yul\":4665:4783   */\n    tag_214:\n        /* \"#utility.yul\":4752:4776   */\n      tag_291\n        /* \"#utility.yul\":4770:4775   */\n      dup2\n        /* \"#utility.yul\":4752:4776   */\n      tag_198\n      jump\t// in\n    tag_291:\n        /* \"#utility.yul\":4747:4750   */\n      dup3\n        /* \"#utility.yul\":4740:4777   */\n      mstore\n        /* \"#utility.yul\":4665:4783   */\n      pop\n      pop\n      jump\t// out\n        /* \"#utility.yul\":4789:5011   */\n    tag_91:\n        /* \"#utility.yul\":4882:4886   */\n      0x00\n        /* \"#utility.yul\":4920:4922   */\n      0x20\n        /* \"#utility.yul\":4909:4918   */\n      dup3\n        /* \"#utility.yul\":4905:4923   */\n      add\n        /* \"#utility.yul\":4897:4923   */\n      swap1\n      pop\n        /* \"#utility.yul\":4933:5004   */\n      tag_293\n        /* \"#utility.yul\":5001:5002   */\n      0x00\n        /* \"#utility.yul\":4990:4999   */\n      dup4\n        /* \"#utility.yul\":4986:5003   */\n      add\n        /* \"#utility.yul\":4977:4983   */\n      dup5\n        /* \"#utility.yul\":4933:5004   */\n      tag_214\n      jump\t// in\n    tag_293:\n        /* \"#utility.yul\":4789:5011   */\n      swap3\n      swap2\n      pop\n      pop\n      jump\t// out\n        /* \"#utility.yul\":5017:5197   */\n    tag_215:\n        /* \"#utility.yul\":5065:5142   */\n      0x4e487b7100000000000000000000000000000000000000000000000000000000\n        /* \"#utility.yul\":5062:5063   */\n      0x00\n        /* \"#utility.yul\":5055:5143   */\n      mstore\n        /* \"#utility.yul\":5162:5166   */\n      0x11\n        /* \"#utility.yul\":5159:5160   */\n      0x04\n        /* \"#utility.yul\":5152:5167   */\n      mstore\n        /* \"#utility.yul\":5186:5190   */\n      0x24\n        /* \"#utility.yul\":5183:5184   */\n      0x00\n        /* \"#utility.yul\":5176:5191   */\n      revert\n        /* \"#utility.yul\":5203:5397   */\n    tag_100:\n        /* \"#utility.yul\":5243:5247   */\n      0x00\n        /* \"#utility.yul\":5263:5283   */\n      tag_296\n        /* \"#utility.yul\":5281:5282   */\n      dup3\n        /* \"#utility.yul\":5263:5283   */\n      tag_201\n      jump\t// in\n    tag_296:\n        /* \"#utility.yul\":5258:5283   */\n      swap2\n      pop\n        /* \"#utility.yul\":5297:5317   */\n      tag_297\n        /* \"#utility.yul\":5315:5316   */\n      dup4\n        /* \"#utility.yul\":5297:5317   */\n      tag_201\n      jump\t// in\n    tag_297:\n        /* \"#utility.yul\":5292:5317   */\n      swap3\n      pop\n        /* \"#utility.yul\":5341:5342   */\n      dup3\n        /* \"#utility.yul\":5338:5339   */\n      dup3\n        /* \"#utility.yul\":5334:5343   */\n      sub\n        /* \"#utility.yul\":5326:5343   */\n      swap1\n      pop\n        /* \"#utility.yul\":5365:5366   */\n      dup2\n        /* \"#utility.yul\":5359:5363   */\n      dup2\n        /* \"#utility.yul\":5356:5367   */\n      gt\n        /* \"#utility.yul\":5353:5390   */\n      iszero\n      tag_298\n      jumpi\n        /* \"#utility.yul\":5370:5388   */\n      tag_299\n      tag_215\n      jump\t// in\n    tag_299:\n        /* \"#utility.yul\":5353:5390   */\n    tag_298:\n        /* \"#utility.yul\":5203:5397   */\n      swap3\n      swap2\n      pop\n      pop\n      jump\t// out\n        /* \"#utility.yul\":5403:5813   */\n    tag_102:\n        /* \"#utility.yul\":5443:5450   */\n      0x00\n        /* \"#utility.yul\":5466:5486   */\n      tag_301\n        /* \"#utility.yul\":5484:5485   */\n      dup3\n        /* \"#utility.yul\":5466:5486   */\n      tag_201\n      jump\t// in\n    tag_301:\n        /* \"#utility.yul\":5461:5486   */\n      swap2\n      pop\n        /* \"#utility.yul\":5500:5520   */\n      tag_302\n        /* \"#utility.yul\":5518:5519   */\n      dup4\n        /* \"#utility.yul\":5500:5520   */\n      tag_201\n      jump\t// in\n    tag_302:\n        /* \"#utility.yul\":5495:5520   */\n      swap3\n      pop\n        /* \"#utility.yul\":5555:5556   */\n      dup3\n        /* \"#utility.yul\":5552:5553   */\n      dup3\n        /* \"#utility.yul\":5548:5557   */\n      mul\n        /* \"#utility.yul\":5577:5607   */\n      tag_303\n        /* \"#utility.yul\":5595:5606   */\n      dup2\n        /* \"#utility.yul\":5577:5607   */\n      tag_201\n      jump\t// in\n    tag_303:\n        /* \"#utility.yul\":5566:5607   */\n      swap2\n      pop\n        /* \"#utility.yul\":5756:5757   */\n      dup3\n        /* \"#utility.yul\":5747:5754   */\n      dup3\n        /* \"#utility.yul\":5743:5758   */\n      div\n        /* \"#utility.yul\":5740:5741   */\n      dup5\n        /* \"#utility.yul\":5737:5759   */\n      eq\n        /* \"#utility.yul\":5717:5718   */\n      dup4\n        /* \"#utility.yul\":5710:5719   */\n      iszero\n        /* \"#utility.yul\":5690:5773   */\n      or\n        /* \"#utility.yul\":5667:5806   */\n      tag_304\n      jumpi\n        /* \"#utility.yul\":5786:5804   */\n      tag_305\n      tag_215\n      jump\t// in\n    tag_305:\n        /* \"#utility.yul\":5667:5806   */\n    tag_304:\n        /* \"#utility.yul\":5451:5813   */\n      pop\n        /* \"#utility.yul\":5403:5813   */\n      swap3\n      swap2\n      pop\n      pop\n      jump\t// out\n        /* \"#utility.yul\":5819:6010   */\n    tag_104:\n        /* \"#utility.yul\":5859:5862   */\n      0x00\n        /* \"#utility.yul\":5878:5898   */\n      tag_307\n        /* \"#utility.yul\":5896:5897   */\n      dup3\n        /* \"#utility.yul\":5878:5898   */\n      tag_201\n      jump\t// in\n    tag_307:\n        /* \"#utility.yul\":5873:5898   */\n      swap2\n      pop\n        /* \"#utility.yul\":5912:5932   */\n      tag_308\n        /* \"#utility.yul\":5930:5931   */\n      dup4\n        /* \"#utility.yul\":5912:5932   */\n      tag_201\n      jump\t// in\n    tag_308:\n        /* \"#utility.yul\":5907:5932   */\n      swap3\n      pop\n        /* \"#utility.yul\":5955:5956   */\n      dup3\n        /* \"#utility.yul\":5952:5953   */\n      dup3\n        /* \"#utility.yul\":5948:5957   */\n      add\n        /* \"#utility.yul\":5941:5957   */\n      swap1\n      pop\n        /* \"#utility.yul\":5976:5979   */\n      dup1\n        /* \"#utility.yul\":5973:5974   */\n      dup3\n        /* \"#utility.yul\":5970:5980   */\n      gt\n        /* \"#utility.yul\":5967:6003   */\n      iszero\n      tag_309\n      jumpi\n        /* \"#utility.yul\":5983:6001   */\n      tag_310\n      tag_215\n      jump\t// in\n    tag_310:\n        /* \"#utility.yul\":5967:6003   */\n    tag_309:\n        /* \"#utility.yul\":5819:6010   */\n      swap3\n      swap2\n      pop\n      pop\n      jump\t// out\n        /* \"#utility.yul\":6016:6185   */\n    tag_216:\n        /* \"#utility.yul\":6100:6111   */\n      0x00\n        /* \"#utility.yul\":6134:6140   */\n      dup3\n        /* \"#utility.yul\":6129:6132   */\n      dup3\n        /* \"#utility.yul\":6122:6141   */\n      mstore\n        /* \"#utility.yul\":6174:6178   */\n      0x20\n        /* \"#utility.yul\":6169:6172   */\n      dup3\n        /* \"#utility.yul\":6165:6179   */\n      add\n        /* \"#utility.yul\":6150:6179   */\n      swap1\n      pop\n        /* \"#utility.yul\":6016:6185   */\n      swap3\n      swap2\n      pop\n      pop\n      jump\t// out\n        /* \"#utility.yul\":6191:6373   */\n    tag_217:\n        /* \"#utility.yul\":6331:6365   */\n      0x4f776e61626c653a2063616c6c6572206973206e6f7420746865206f776e6572\n        /* \"#utility.yul\":6327:6328   */\n      0x00\n        /* \"#utility.yul\":6319:6325   */\n      dup3\n        /* \"#utility.yul\":6315:6329   */\n      add\n        /* \"#utility.yul\":6308:6366   */\n      mstore\n        /* \"#utility.yul\":6191:6373   */\n      pop\n      jump\t// out\n        /* \"#utility.yul\":6379:6745   */\n    tag_218:\n        /* \"#utility.yul\":6521:6524   */\n      0x00\n        /* \"#utility.yul\":6542:6609   */\n      tag_314\n        /* \"#utility.yul\":6606:6608   */\n      0x20\n        /* \"#utility.yul\":6601:6604   */\n      dup4\n        /* \"#utility.yul\":6542:6609   */\n      tag_216\n      jump\t// in\n    tag_314:\n        /* \"#utility.yul\":6535:6609   */\n      swap2\n      pop\n        /* \"#utility.yul\":6618:6711   */\n      tag_315\n        /* \"#utility.yul\":6707:6710   */\n      dup3\n        /* \"#utility.yul\":6618:6711   */\n      tag_217\n      jump\t// in\n    tag_315:\n        /* \"#utility.yul\":6736:6738   */\n      0x20\n        /* \"#utility.yul\":6731:6734   */\n      dup3\n        /* \"#utility.yul\":6727:6739   */\n      add\n        /* \"#utility.yul\":6720:6739   */\n      swap1\n      pop\n        /* \"#utility.yul\":6379:6745   */\n      swap2\n      swap1\n      pop\n      jump\t// out\n        /* \"#utility.yul\":6751:7170   */\n    tag_108:\n        /* \"#utility.yul\":6917:6921   */\n      0x00\n        /* \"#utility.yul\":6955:6957   */\n      0x20\n        /* \"#utility.yul\":6944:6953   */\n      dup3\n        /* \"#utility.yul\":6940:6958   */\n      add\n        /* \"#utility.yul\":6932:6958   */\n      swap1\n      pop\n        /* \"#utility.yul\":7004:7013   */\n      dup2\n        /* \"#utility.yul\":6998:7002   */\n      dup2\n        /* \"#utility.yul\":6994:7014   */\n      sub\n        /* \"#utility.yul\":6990:6991   */\n      0x00\n        /* \"#utility.yul\":6979:6988   */\n      dup4\n        /* \"#utility.yul\":6975:6992   */\n      add\n        /* \"#utility.yul\":6968:7015   */\n      mstore\n        /* \"#utility.yul\":7032:7163   */\n      tag_317\n        /* \"#utility.yul\":7158:7162   */\n      dup2\n        /* \"#utility.yul\":7032:7163   */\n      tag_218\n      jump\t// in\n    tag_317:\n        /* \"#utility.yul\":7024:7163   */\n      swap1\n      pop\n        /* \"#utility.yul\":6751:7170   */\n      swap2\n      swap1\n      pop\n      jump\t// out\n        /* \"#utility.yul\":7176:7319   */\n    tag_219:\n        /* \"#utility.yul\":7233:7238   */\n      0x00\n        /* \"#utility.yul\":7264:7270   */\n      dup2\n        /* \"#utility.yul\":7258:7271   */\n      mload\n        /* \"#utility.yul\":7249:7271   */\n      swap1\n      pop\n        /* \"#utility.yul\":7280:7313   */\n      tag_319\n        /* \"#utility.yul\":7307:7312   */\n      dup2\n        /* \"#utility.yul\":7280:7313   */\n      tag_203\n      jump\t// in\n    tag_319:\n        /* \"#utility.yul\":7176:7319   */\n      swap3\n      swap2\n      pop\n      pop\n      jump\t// out\n        /* \"#utility.yul\":7325:7676   */\n    tag_114:\n        /* \"#utility.yul\":7395:7401   */\n      0x00\n        /* \"#utility.yul\":7444:7446   */\n      0x20\n        /* \"#utility.yul\":7432:7441   */\n      dup3\n        /* \"#utility.yul\":7423:7430   */\n      dup5\n        /* \"#utility.yul\":7419:7442   */\n      sub\n        /* \"#utility.yul\":7415:7447   */\n      slt\n        /* \"#utility.yul\":7412:7531   */\n      iszero\n      tag_321\n      jumpi\n        /* \"#utility.yul\":7450:7529   */\n      tag_322\n      tag_195\n      jump\t// in\n    tag_322:\n        /* \"#utility.yul\":7412:7531   */\n    tag_321:\n        /* \"#utility.yul\":7570:7571   */\n      0x00\n        /* \"#utility.yul\":7595:7659   */\n      tag_323\n        /* \"#utility.yul\":7651:7658   */\n      dup5\n        /* \"#utility.yul\":7642:7648   */\n      dup3\n        /* \"#utility.yul\":7631:7640   */\n      dup6\n        /* \"#utility.yul\":7627:7649   */\n      add\n        /* \"#utility.yul\":7595:7659   */\n      tag_219\n      jump\t// in\n    tag_323:\n        /* \"#utility.yul\":7585:7659   */\n      swap2\n      pop\n        /* \"#utility.yul\":7541:7669   */\n      pop\n        /* \"#utility.yul\":7325:7676   */\n      swap3\n      swap2\n      pop\n      pop\n      jump\t// out\n        /* \"#utility.yul\":7682:7918   */\n    tag_220:\n        /* \"#utility.yul\":7822:7856   */\n      0x596f7520646f206e6f7420686176652073756666696369656e742047656d2066\n        /* \"#utility.yul\":7818:7819   */\n      0x00\n        /* \"#utility.yul\":7810:7816   */\n      dup3\n        /* \"#utility.yul\":7806:7820   */\n      add\n        /* \"#utility.yul\":7799:7857   */\n      mstore\n        /* \"#utility.yul\":7891:7910   */\n      0x6f722074686520726577617264506f6f6c000000000000000000000000000000\n        /* \"#utility.yul\":7886:7888   */\n      0x20\n        /* \"#utility.yul\":7878:7884   */\n      dup3\n        /* \"#utility.yul\":7874:7889   */\n      add\n        /* \"#utility.yul\":7867:7911   */\n      mstore\n        /* \"#utility.yul\":7682:7918   */\n      pop\n      jump\t// out\n        /* \"#utility.yul\":7924:8290   */\n    tag_221:\n        /* \"#utility.yul\":8066:8069   */\n      0x00\n        /* \"#utility.yul\":8087:8154   */\n      tag_326\n        /* \"#utility.yul\":8151:8153   */\n      0x31\n        /* \"#utility.yul\":8146:8149   */\n      dup4\n        /* \"#utility.yul\":8087:8154   */\n      tag_216\n      jump\t// in\n    tag_326:\n        /* \"#utility.yul\":8080:8154   */\n      swap2\n      pop\n        /* \"#utility.yul\":8163:8256   */\n      tag_327\n        /* \"#utility.yul\":8252:8255   */\n      dup3\n        /* \"#utility.yul\":8163:8256   */\n      tag_220\n      jump\t// in\n    tag_327:\n        /* \"#utility.yul\":8281:8283   */\n      0x40\n        /* \"#utility.yul\":8276:8279   */\n      dup3\n        /* \"#utility.yul\":8272:8284   */\n      add\n        /* \"#utility.yul\":8265:8284   */\n      swap1\n      pop\n        /* \"#utility.yul\":7924:8290   */\n      swap2\n      swap1\n      pop\n      jump\t// out\n        /* \"#utility.yul\":8296:8715   */\n    tag_117:\n        /* \"#utility.yul\":8462:8466   */\n      0x00\n        /* \"#utility.yul\":8500:8502   */\n      0x20\n        /* \"#utility.yul\":8489:8498   */\n      dup3\n        /* \"#utility.yul\":8485:8503   */\n      add\n        /* \"#utility.yul\":8477:8503   */\n      swap1\n      pop\n        /* \"#utility.yul\":8549:8558   */\n      dup2\n        /* \"#utility.yul\":8543:8547   */\n      dup2\n        /* \"#utility.yul\":8539:8559   */\n      sub\n        /* \"#utility.yul\":8535:8536   */\n      0x00\n        /* \"#utility.yul\":8524:8533   */\n      dup4\n        /* \"#utility.yul\":8520:8537   */\n      add\n        /* \"#utility.yul\":8513:8560   */\n      mstore\n        /* \"#utility.yul\":8577:8708   */\n      tag_329\n        /* \"#utility.yul\":8703:8707   */\n      dup2\n        /* \"#utility.yul\":8577:8708   */\n      tag_221\n      jump\t// in\n    tag_329:\n        /* \"#utility.yul\":8569:8708   */\n      swap1\n      pop\n        /* \"#utility.yul\":8296:8715   */\n      swap2\n      swap1\n      pop\n      jump\t// out\n        /* \"#utility.yul\":8721:8899   */\n    tag_222:\n        /* \"#utility.yul\":8861:8891   */\n      0x5374616b696e6720706f6f6c20697320616c7265616479206c69766500000000\n        /* \"#utility.yul\":8857:8858   */\n      0x00\n        /* \"#utility.yul\":8849:8855   */\n      dup3\n        /* \"#utility.yul\":8845:8859   */\n      add\n        /* \"#utility.yul\":8838:8892   */\n      mstore\n        /* \"#utility.yul\":8721:8899   */\n      pop\n      jump\t// out\n        /* \"#utility.yul\":8905:9271   */\n    tag_223:\n        /* \"#utility.yul\":9047:9050   */\n      0x00\n        /* \"#utility.yul\":9068:9135   */\n      tag_332\n        /* \"#utility.yul\":9132:9134   */\n      0x1c\n        /* \"#utility.yul\":9127:9130   */\n      dup4\n        /* \"#utility.yul\":9068:9135   */\n      tag_216\n      jump\t// in\n    tag_332:\n        /* \"#utility.yul\":9061:9135   */\n      swap2\n      pop\n        /* \"#utility.yul\":9144:9237   */\n      tag_333\n        /* \"#utility.yul\":9233:9236   */\n      dup3\n        /* \"#utility.yul\":9144:9237   */\n      tag_222\n      jump\t// in\n    tag_333:\n        /* \"#utility.yul\":9262:9264   */\n      0x20\n        /* \"#utility.yul\":9257:9260   */\n      dup3\n        /* \"#utility.yul\":9253:9265   */\n      add\n        /* \"#utility.yul\":9246:9265   */\n      swap1\n      pop\n        /* \"#utility.yul\":8905:9271   */\n      swap2\n      swap1\n      pop\n      jump\t// out\n        /* \"#utility.yul\":9277:9696   */\n    tag_120:\n        /* \"#utility.yul\":9443:9447   */\n      0x00\n        /* \"#utility.yul\":9481:9483   */\n      0x20\n        /* \"#utility.yul\":9470:9479   */\n      dup3\n        /* \"#utility.yul\":9466:9484   */\n      add\n        /* \"#utility.yul\":9458:9484   */\n      swap1\n      pop\n        /* \"#utility.yul\":9530:9539   */\n      dup2\n        /* \"#utility.yul\":9524:9528   */\n      dup2\n        /* \"#utility.yul\":9520:9540   */\n      sub\n        /* \"#utility.yul\":9516:9517   */\n      0x00\n        /* \"#utility.yul\":9505:9514   */\n      dup4\n        /* \"#utility.yul\":9501:9518   */\n      add\n        /* \"#utility.yul\":9494:9541   */\n      mstore\n        /* \"#utility.yul\":9558:9689   */\n      tag_335\n        /* \"#utility.yul\":9684:9688   */\n      dup2\n        /* \"#utility.yul\":9558:9689   */\n      tag_223\n      jump\t// in\n    tag_335:\n        /* \"#utility.yul\":9550:9689   */\n      swap1\n      pop\n        /* \"#utility.yul\":9277:9696   */\n      swap2\n      swap1\n      pop\n      jump\t// out\n        /* \"#utility.yul\":9702:10144   */\n    tag_122:\n        /* \"#utility.yul\":9851:9855   */\n      0x00\n        /* \"#utility.yul\":9889:9891   */\n      0x60\n        /* \"#utility.yul\":9878:9887   */\n      dup3\n        /* \"#utility.yul\":9874:9892   */\n      add\n        /* \"#utility.yul\":9866:9892   */\n      swap1\n      pop\n        /* \"#utility.yul\":9902:9973   */\n      tag_337\n        /* \"#utility.yul\":9970:9971   */\n      0x00\n        /* \"#utility.yul\":9959:9968   */\n      dup4\n        /* \"#utility.yul\":9955:9972   */\n      add\n        /* \"#utility.yul\":9946:9952   */\n      dup7\n        /* \"#utility.yul\":9902:9973   */\n      tag_214\n      jump\t// in\n    tag_337:\n        /* \"#utility.yul\":9983:10055   */\n      tag_338\n        /* \"#utility.yul\":10051:10053   */\n      0x20\n        /* \"#utility.yul\":10040:10049   */\n      dup4\n        /* \"#utility.yul\":10036:10054   */\n      add\n        /* \"#utility.yul\":10027:10033   */\n      dup6\n        /* \"#utility.yul\":9983:10055   */\n      tag_214\n      jump\t// in\n    tag_338:\n        /* \"#utility.yul\":10065:10137   */\n      tag_339\n        /* \"#utility.yul\":10133:10135   */\n      0x40\n        /* \"#utility.yul\":10122:10131   */\n      dup4\n        /* \"#utility.yul\":10118:10136   */\n      add\n        /* \"#utility.yul\":10109:10115   */\n      dup5\n        /* \"#utility.yul\":10065:10137   */\n      tag_202\n      jump\t// in\n    tag_339:\n        /* \"#utility.yul\":9702:10144   */\n      swap5\n      swap4\n      pop\n      pop\n      pop\n      pop\n      jump\t// out\n        /* \"#utility.yul\":10150:10330   */\n    tag_224:\n        /* \"#utility.yul\":10198:10275   */\n      0x4e487b7100000000000000000000000000000000000000000000000000000000\n        /* \"#utility.yul\":10195:10196   */\n      0x00\n        /* \"#utility.yul\":10188:10276   */\n      mstore\n        /* \"#utility.yul\":10295:10299   */\n      0x12\n        /* \"#utility.yul\":10292:10293   */\n      0x04\n        /* \"#utility.yul\":10285:10300   */\n      mstore\n        /* \"#utility.yul\":10319:10323   */\n      0x24\n        /* \"#utility.yul\":10316:10317   */\n      0x00\n        /* \"#utility.yul\":10309:10324   */\n      revert\n        /* \"#utility.yul\":10336:10521   */\n    tag_133:\n        /* \"#utility.yul\":10376:10377   */\n      0x00\n        /* \"#utility.yul\":10393:10413   */\n      tag_342\n        /* \"#utility.yul\":10411:10412   */\n      dup3\n        /* \"#utility.yul\":10393:10413   */\n      tag_201\n      jump\t// in\n    tag_342:\n        /* \"#utility.yul\":10388:10413   */\n      swap2\n      pop\n        /* \"#utility.yul\":10427:10447   */\n      tag_343\n        /* \"#utility.yul\":10445:10446   */\n      dup4\n        /* \"#utility.yul\":10427:10447   */\n      tag_201\n      jump\t// in\n    tag_343:\n        /* \"#utility.yul\":10422:10447   */\n      swap3\n      pop\n        /* \"#utility.yul\":10466:10467   */\n      dup3\n        /* \"#utility.yul\":10456:10491   */\n      tag_344\n      jumpi\n        /* \"#utility.yul\":10471:10489   */\n      tag_345\n      tag_224\n      jump\t// in\n    tag_345:\n        /* \"#utility.yul\":10456:10491   */\n    tag_344:\n        /* \"#utility.yul\":10513:10514   */\n      dup3\n        /* \"#utility.yul\":10510:10511   */\n      dup3\n        /* \"#utility.yul\":10506:10515   */\n      div\n        /* \"#utility.yul\":10501:10515   */\n      swap1\n      pop\n        /* \"#utility.yul\":10336:10521   */\n      swap3\n      swap2\n      pop\n      pop\n      jump\t// out\n        /* \"#utility.yul\":10527:10704   */\n    tag_225:\n        /* \"#utility.yul\":10667:10696   */\n      0x496e73756666696369656e74207374616b65642062616c616e63650000000000\n        /* \"#utility.yul\":10663:10664   */\n      0x00\n        /* \"#utility.yul\":10655:10661   */\n      dup3\n        /* \"#utility.yul\":10651:10665   */\n      add\n        /* \"#utility.yul\":10644:10697   */\n      mstore\n        /* \"#utility.yul\":10527:10704   */\n      pop\n      jump\t// out\n        /* \"#utility.yul\":10710:11076   */\n    tag_226:\n        /* \"#utility.yul\":10852:10855   */\n      0x00\n        /* \"#utility.yul\":10873:10940   */\n      tag_348\n        /* \"#utility.yul\":10937:10939   */\n      0x1b\n        /* \"#utility.yul\":10932:10935   */\n      dup4\n        /* \"#utility.yul\":10873:10940   */\n      tag_216\n      jump\t// in\n    tag_348:\n        /* \"#utility.yul\":10866:10940   */\n      swap2\n      pop\n        /* \"#utility.yul\":10949:11042   */\n      tag_349\n        /* \"#utility.yul\":11038:11041   */\n      dup3\n        /* \"#utility.yul\":10949:11042   */\n      tag_225\n      jump\t// in\n    tag_349:\n        /* \"#utility.yul\":11067:11069   */\n      0x20\n        /* \"#utility.yul\":11062:11065   */\n      dup3\n        /* \"#utility.yul\":11058:11070   */\n      add\n        /* \"#utility.yul\":11051:11070   */\n      swap1\n      pop\n        /* \"#utility.yul\":10710:11076   */\n      swap2\n      swap1\n      pop\n      jump\t// out\n        /* \"#utility.yul\":11082:11501   */\n    tag_147:\n        /* \"#utility.yul\":11248:11252   */\n      0x00\n        /* \"#utility.yul\":11286:11288   */\n      0x20\n        /* \"#utility.yul\":11275:11284   */\n      dup3\n        /* \"#utility.yul\":11271:11289   */\n      add\n        /* \"#utility.yul\":11263:11289   */\n      swap1\n      pop\n        /* \"#utility.yul\":11335:11344   */\n      dup2\n        /* \"#utility.yul\":11329:11333   */\n      dup2\n        /* \"#utility.yul\":11325:11345   */\n      sub\n        /* \"#utility.yul\":11321:11322   */\n      0x00\n        /* \"#utility.yul\":11310:11319   */\n      dup4\n        /* \"#utility.yul\":11306:11323   */\n      add\n        /* \"#utility.yul\":11299:11346   */\n      mstore\n        /* \"#utility.yul\":11363:11494   */\n      tag_351\n        /* \"#utility.yul\":11489:11493   */\n      dup2\n        /* \"#utility.yul\":11363:11494   */\n      tag_226\n      jump\t// in\n    tag_351:\n        /* \"#utility.yul\":11355:11494   */\n      swap1\n      pop\n        /* \"#utility.yul\":11082:11501   */\n      swap2\n      swap1\n      pop\n      jump\t// out\n        /* \"#utility.yul\":11507:11839   */\n    tag_152:\n        /* \"#utility.yul\":11628:11632   */\n      0x00\n        /* \"#utility.yul\":11666:11668   */\n      0x40\n        /* \"#utility.yul\":11655:11664   */\n      dup3\n        /* \"#utility.yul\":11651:11669   */\n      add\n        /* \"#utility.yul\":11643:11669   */\n      swap1\n      pop\n        /* \"#utility.yul\":11679:11750   */\n      tag_353\n        /* \"#utility.yul\":11747:11748   */\n      0x00\n        /* \"#utility.yul\":11736:11745   */\n      dup4\n        /* \"#utility.yul\":11732:11749   */\n      add\n        /* \"#utility.yul\":11723:11729   */\n      dup6\n        /* \"#utility.yul\":11679:11750   */\n      tag_214\n      jump\t// in\n    tag_353:\n        /* \"#utility.yul\":11760:11832   */\n      tag_354\n        /* \"#utility.yul\":11828:11830   */\n      0x20\n        /* \"#utility.yul\":11817:11826   */\n      dup4\n        /* \"#utility.yul\":11813:11831   */\n      add\n        /* \"#utility.yul\":11804:11810   */\n      dup5\n        /* \"#utility.yul\":11760:11832   */\n      tag_202\n      jump\t// in\n    tag_354:\n        /* \"#utility.yul\":11507:11839   */\n      swap4\n      swap3\n      pop\n      pop\n      pop\n      jump\t// out\n        /* \"#utility.yul\":11845:11961   */\n    tag_227:\n        /* \"#utility.yul\":11915:11936   */\n      tag_356\n        /* \"#utility.yul\":11930:11935   */\n      dup2\n        /* \"#utility.yul\":11915:11936   */\n      tag_212\n      jump\t// in\n    tag_356:\n        /* \"#utility.yul\":11908:11913   */\n      dup2\n        /* \"#utility.yul\":11905:11937   */\n      eq\n        /* \"#utility.yul\":11895:11955   */\n      tag_357\n      jumpi\n        /* \"#utility.yul\":11951:11952   */\n      0x00\n        /* \"#utility.yul\":11948:11949   */\n      dup1\n        /* \"#utility.yul\":11941:11953   */\n      revert\n        /* \"#utility.yul\":11895:11955   */\n    tag_357:\n        /* \"#utility.yul\":11845:11961   */\n      pop\n      jump\t// out\n        /* \"#utility.yul\":11967:12104   */\n    tag_228:\n        /* \"#utility.yul\":12021:12026   */\n      0x00\n        /* \"#utility.yul\":12052:12058   */\n      dup2\n        /* \"#utility.yul\":12046:12059   */\n      mload\n        /* \"#utility.yul\":12037:12059   */\n      swap1\n      pop\n        /* \"#utility.yul\":12068:12098   */\n      tag_359\n        /* \"#utility.yul\":12092:12097   */\n      dup2\n        /* \"#utility.yul\":12068:12098   */\n      tag_227\n      jump\t// in\n    tag_359:\n        /* \"#utility.yul\":11967:12104   */\n      swap3\n      swap2\n      pop\n      pop\n      jump\t// out\n        /* \"#utility.yul\":12110:12455   */\n    tag_156:\n        /* \"#utility.yul\":12177:12183   */\n      0x00\n        /* \"#utility.yul\":12226:12228   */\n      0x20\n        /* \"#utility.yul\":12214:12223   */\n      dup3\n        /* \"#utility.yul\":12205:12212   */\n      dup5\n        /* \"#utility.yul\":12201:12224   */\n      sub\n        /* \"#utility.yul\":12197:12229   */\n      slt\n        /* \"#utility.yul\":12194:12313   */\n      iszero\n      tag_361\n      jumpi\n        /* \"#utility.yul\":12232:12311   */\n      tag_362\n      tag_195\n      jump\t// in\n    tag_362:\n        /* \"#utility.yul\":12194:12313   */\n    tag_361:\n        /* \"#utility.yul\":12352:12353   */\n      0x00\n        /* \"#utility.yul\":12377:12438   */\n      tag_363\n        /* \"#utility.yul\":12430:12437   */\n      dup5\n        /* \"#utility.yul\":12421:12427   */\n      dup3\n        /* \"#utility.yul\":12410:12419   */\n      dup6\n        /* \"#utility.yul\":12406:12428   */\n      add\n        /* \"#utility.yul\":12377:12438   */\n      tag_228\n      jump\t// in\n    tag_363:\n        /* \"#utility.yul\":12367:12438   */\n      swap2\n      pop\n        /* \"#utility.yul\":12323:12448   */\n      pop\n        /* \"#utility.yul\":12110:12455   */\n      swap3\n      swap2\n      pop\n      pop\n      jump\t// out\n        /* \"#utility.yul\":12461:12632   */\n    tag_229:\n        /* \"#utility.yul\":12601:12624   */\n      0x43616e6e6f74207374616b65203020746f6b656e730000000000000000000000\n        /* \"#utility.yul\":12597:12598   */\n      0x00\n        /* \"#utility.yul\":12589:12595   */\n      dup3\n        /* \"#utility.yul\":12585:12599   */\n      add\n        /* \"#utility.yul\":12578:12625   */\n      mstore\n        /* \"#utility.yul\":12461:12632   */\n      pop\n      jump\t// out\n        /* \"#utility.yul\":12638:13004   */\n    tag_230:\n        /* \"#utility.yul\":12780:12783   */\n      0x00\n        /* \"#utility.yul\":12801:12868   */\n      tag_366\n        /* \"#utility.yul\":12865:12867   */\n      0x15\n        /* \"#utility.yul\":12860:12863   */\n      dup4\n        /* \"#utility.yul\":12801:12868   */\n      tag_216\n      jump\t// in\n    tag_366:\n        /* \"#utility.yul\":12794:12868   */\n      swap2\n      pop\n        /* \"#utility.yul\":12877:12970   */\n      tag_367\n        /* \"#utility.yul\":12966:12969   */\n      dup3\n        /* \"#utility.yul\":12877:12970   */\n      tag_229\n      jump\t// in\n    tag_367:\n        /* \"#utility.yul\":12995:12997   */\n      0x20\n        /* \"#utility.yul\":12990:12993   */\n      dup3\n        /* \"#utility.yul\":12986:12998   */\n      add\n        /* \"#utility.yul\":12979:12998   */\n      swap1\n      pop\n        /* \"#utility.yul\":12638:13004   */\n      swap2\n      swap1\n      pop\n      jump\t// out\n        /* \"#utility.yul\":13010:13429   */\n    tag_168:\n        /* \"#utility.yul\":13176:13180   */\n      0x00\n        /* \"#utility.yul\":13214:13216   */\n      0x20\n        /* \"#utility.yul\":13203:13212   */\n      dup3\n        /* \"#utility.yul\":13199:13217   */\n      add\n        /* \"#utility.yul\":13191:13217   */\n      swap1\n      pop\n        /* \"#utility.yul\":13263:13272   */\n      dup2\n        /* \"#utility.yul\":13257:13261   */\n      dup2\n        /* \"#utility.yul\":13253:13273   */\n      sub\n        /* \"#utility.yul\":13249:13250   */\n      0x00\n        /* \"#utility.yul\":13238:13247   */\n      dup4\n        /* \"#utility.yul\":13234:13251   */\n      add\n        /* \"#utility.yul\":13227:13274   */\n      mstore\n        /* \"#utility.yul\":13291:13422   */\n      tag_369\n        /* \"#utility.yul\":13417:13421   */\n      dup2\n        /* \"#utility.yul\":13291:13422   */\n      tag_230\n      jump\t// in\n    tag_369:\n        /* \"#utility.yul\":13283:13422   */\n      swap1\n      pop\n        /* \"#utility.yul\":13010:13429   */\n      swap2\n      swap1\n      pop\n      jump\t// out\n\n    auxdata: 0xa2646970667358221220b5ee9e1ae0e292f0b8f43bac39f6fa192058741d096e8cc7efc60ed2bd92a03164736f6c63430008130033\n}\n",
				"bytecode": {
					"linkReferences": {},
					"object": "60806040523480156200001157600080fd5b5060405162001b6c38038062001b6c833981810160405281019062000037919062000216565b826000806101000a81548173ffffffffffffffffffffffffffffffffffffffff021916908373ffffffffffffffffffffffffffffffffffffffff16021790555081600160006101000a81548173ffffffffffffffffffffffffffffffffffffffff021916908373ffffffffffffffffffffffffffffffffffffffff1602179055508060088190555061016d670de0b6b3a7640000600854620000da9190620002a1565b620000e691906200031b565b60048190555062015180600454620000ff91906200031b565b600581905550426002819055506000600960146101000a81548160ff02191690831515021790555033600960006101000a81548173ffffffffffffffffffffffffffffffffffffffff021916908373ffffffffffffffffffffffffffffffffffffffff16021790555050505062000353565b600080fd5b600073ffffffffffffffffffffffffffffffffffffffff82169050919050565b6000620001a38262000176565b9050919050565b620001b58162000196565b8114620001c157600080fd5b50565b600081519050620001d581620001aa565b92915050565b6000819050919050565b620001f081620001db565b8114620001fc57600080fd5b50565b6000815190506200021081620001e5565b92915050565b60008060006060848603121562000232576200023162000171565b5b60006200024286828701620001c4565b93505060206200025586828701620001c4565b92505060406200026886828701620001ff565b9150509250925092565b7f4e487b7100000000000000000000000000000000000000000000000000000000600052601160045260246000fd5b6000620002ae82620001db565b9150620002bb83620001db565b9250828202620002cb81620001db565b91508282048414831517620002e557620002e462000272565b5b5092915050565b7f4e487b7100000000000000000000000000000000000000000000000000000000600052601260045260246000fd5b60006200032882620001db565b91506200033583620001db565b925082620003485762000347620002ec565b5b828204905092915050565b61180980620003636000396000f3fe608060405234801561001057600080fd5b506004361061012b5760003560e01c80637bd2bea7116100ad578063b88a802f11610071578063b88a802f14610311578063c8f33c911461031b578063cd3daf9d14610339578063ce606ee014610357578063df136d65146103755761012b565b80637bd2bea714610268578063817b1cd2146102865780639168ae72146102a4578063924f85bc146102d7578063a694fc3a146102f55761012b565b80632e1a7d4d116100f45780632e1a7d4d146101c25780634df9d6ba146101de5780635fb872061461020e5780635fcbd2851461022c5780637b0a47ee1461024a5761012b565b80628cc2621461013057806309c85e2414610160578063214e0d9d1461017e57806326be0c861461019c5780632bc51f6d146101a6575b600080fd5b61014a60048036038101906101459190611137565b610393565b604051610157919061117d565b60405180910390f35b6101686104a5565b604051610175919061117d565b60405180910390f35b6101866104ab565b604051610193919061117d565b60405180910390f35b6101a46104b1565b005b6101c060048036038101906101bb9190611137565b610727565b005b6101dc60048036038101906101d791906111c4565b61091a565b005b6101f860048036038101906101f39190611137565b610b40565b604051610205919061117d565b60405180910390f35b610216610c52565b604051610223919061117d565b60405180910390f35b610234610c58565b6040516102419190611250565b60405180910390f35b610252610c7c565b60405161025f919061117d565b60405180910390f35b610270610c82565b60405161027d919061128c565b60405180910390f35b61028e610ca8565b60405161029b919061117d565b60405180910390f35b6102be60048036038101906102b99190611137565b610cae565b6040516102ce94939291906112a7565b60405180910390f35b6102df610cde565b6040516102ec9190611307565b60405180910390f35b61030f600480360381019061030a91906111c4565b610cf1565b005b610319610e89565b005b61032361101d565b604051610330919061117d565b60405180910390f35b610341611023565b60405161034e919061117d565b60405180910390f35b61035f611086565b60405161036c9190611331565b60405180910390f35b61037d6110ac565b60405161038a919061117d565b60405180910390f35b600080600a60008473ffffffffffffffffffffffffffffffffffffffff1673ffffffffffffffffffffffffffffffffffffffff16815260200190815260200160002060030154905060008082036103eb5760006103ff565b816103f4611023565b6103fe919061137b565b5b9050600a60008573ffffffffffffffffffffffffffffffffffffffff1673ffffffffffffffffffffffffffffffffffffffff1681526020019081526020016000206002015481600a60008773ffffffffffffffffffffffffffffffffffffffff1673ffffffffffffffffffffffffffffffffffffffff1681526020019081526020016000206000015461049291906113af565b61049c91906113f1565b92505050919050565b60085481565b60075481565b600960009054906101000a900473ffffffffffffffffffffffffffffffffffffffff1673ffffffffffffffffffffffffffffffffffffffff163373ffffffffffffffffffffffffffffffffffffffff1614610541576040517f08c379a000000000000000000000000000000000000000000000000000000000815260040161053890611482565b60405180910390fd5b600854600160009054906101000a900473ffffffffffffffffffffffffffffffffffffffff1673ffffffffffffffffffffffffffffffffffffffff166346ed2bcb336040518263ffffffff1660e01b815260040161059f9190611331565b602060405180830381865afa1580156105bc573d6000803e3d6000fd5b505050506040513d601f19601f820116820180604052508101906105e091906114b7565b1015610621576040517f08c379a000000000000000000000000000000000000000000000000000000000815260040161061890611556565b60405180910390fd5b60001515600960149054906101000a900460ff16151514610677576040517f08c379a000000000000000000000000000000000000000000000000000000000815260040161066e906115c2565b60405180910390fd5b600160009054906101000a900473ffffffffffffffffffffffffffffffffffffffff1673ffffffffffffffffffffffffffffffffffffffff16632a73ac1f33306008546040518463ffffffff1660e01b81526004016106d8939291906115e2565b600060405180830381600087803b1580156106f257600080fd5b505af1158015610706573d6000803e3d6000fd5b505050506001600960146101000a81548160ff021916908315150217905550565b61072f6110b2565b6000429050600060025482610744919061137b565b9050600060065411156107f8576000670de0b6b3a76400006005548361076a91906113af565b6107749190611648565b905060006004548260075461078991906113f1565b11156107a45760075460045461079f919061137b565b6107a6565b815b9050600654670de0b6b3a7640000826107bf91906113af565b6107c99190611648565b6003546107d691906113f1565b60038190555080600760008282546107ee91906113f1565b9250508190555050505b81600281905550600073ffffffffffffffffffffffffffffffffffffffff168373ffffffffffffffffffffffffffffffffffffffff161461091557600254600a60008573ffffffffffffffffffffffffffffffffffffffff1673ffffffffffffffffffffffffffffffffffffffff1681526020019081526020016000206003018190555061088583610393565b600a60008573ffffffffffffffffffffffffffffffffffffffff1673ffffffffffffffffffffffffffffffffffffffff16815260200190815260200160002060020181905550600354600a60008573ffffffffffffffffffffffffffffffffffffffff1673ffffffffffffffffffffffffffffffffffffffff168152602001908152602001600020600101819055505b505050565b80600a60003373ffffffffffffffffffffffffffffffffffffffff1673ffffffffffffffffffffffffffffffffffffffff16815260200190815260200160002060000154101561099f576040517f08c379a0000000000000000000000000000000000000000000000000000000008152600401610996906116c5565b60405180910390fd5b6109a833610727565b80600a60003373ffffffffffffffffffffffffffffffffffffffff1673ffffffffffffffffffffffffffffffffffffffff168152602001908152602001600020600001546109f6919061137b565b600a60003373ffffffffffffffffffffffffffffffffffffffff1673ffffffffffffffffffffffffffffffffffffffff1681526020019081526020016000206000018190555080600654610a4a919061137b565b60068190555060008054906101000a900473ffffffffffffffffffffffffffffffffffffffff1673ffffffffffffffffffffffffffffffffffffffff1663a9059cbb33836040518363ffffffff1660e01b8152600401610aab9291906116e5565b6020604051808303816000875af1158015610aca573d6000803e3d6000fd5b505050506040513d601f19601f82011682018060405250810190610aee919061173a565b503373ffffffffffffffffffffffffffffffffffffffff167f7084f5476618d8e60b11ef0d7d3f06914655adb8793e28ff7f018d4c76d505d582604051610b35919061117d565b60405180910390a250565b600080600a60008473ffffffffffffffffffffffffffffffffffffffff1673ffffffffffffffffffffffffffffffffffffffff1681526020019081526020016000206003015490506000808203610b98576000610bac565b81610ba1611023565b610bab919061137b565b5b9050600a60008573ffffffffffffffffffffffffffffffffffffffff1673ffffffffffffffffffffffffffffffffffffffff1681526020019081526020016000206002015481600a60008773ffffffffffffffffffffffffffffffffffffffff1673ffffffffffffffffffffffffffffffffffffffff16815260200190815260200160002060000154610c3f91906113af565b610c4991906113f1565b92505050919050565b60045481565b60008054906101000a900473ffffffffffffffffffffffffffffffffffffffff1681565b60055481565b600160009054906101000a900473ffffffffffffffffffffffffffffffffffffffff1681565b60065481565b600a6020528060005260406000206000915090508060000154908060010154908060020154908060030154905084565b600960149054906101000a900460ff1681565b60008111610d34576040517f08c379a0000000000000000000000000000000000000000000000000000000008152600401610d2b906117b3565b60405180910390fd5b610d3d33610727565b60008054906101000a900473ffffffffffffffffffffffffffffffffffffffff1673ffffffffffffffffffffffffffffffffffffffff166323b872dd3330846040518463ffffffff1660e01b8152600401610d9a939291906115e2565b6020604051808303816000875af1158015610db9573d6000803e3d6000fd5b505050506040513d601f19601f82011682018060405250810190610ddd919061173a565b5080600654610dec91906113f1565b60068190555080600a60003373ffffffffffffffffffffffffffffffffffffffff1673ffffffffffffffffffffffffffffffffffffffff16815260200190815260200160002060000154610e4091906113f1565b600a60003373ffffffffffffffffffffffffffffffffffffffff1673ffffffffffffffffffffffffffffffffffffffff1681526020019081526020016000206000018190555050565b610e9233610727565b6000600a60003373ffffffffffffffffffffffffffffffffffffffff1673ffffffffffffffffffffffffffffffffffffffff168152602001908152602001600020600201549050600081111561101a576000600a60003373ffffffffffffffffffffffffffffffffffffffff1673ffffffffffffffffffffffffffffffffffffffff16815260200190815260200160002060020181905550600160009054906101000a900473ffffffffffffffffffffffffffffffffffffffff1673ffffffffffffffffffffffffffffffffffffffff1663f09910e433836040518363ffffffff1660e01b8152600401610f879291906116e5565b6020604051808303816000875af1158015610fa6573d6000803e3d6000fd5b505050506040513d601f19601f82011682018060405250810190610fca919061173a565b503373ffffffffffffffffffffffffffffffffffffffff167fe2403640ba68fed3a2f88b7557551d1993f84b99bb10ff833f0cf8db0c5e048682604051611011919061117d565b60405180910390a25b50565b60025481565b60008060065403611038576003549050611083565b600654670de0b6b3a764000060055460025442611055919061137b565b61105f91906113af565b6110699190611648565b6110739190611648565b60035461108091906113f1565b90505b90565b600960009054906101000a900473ffffffffffffffffffffffffffffffffffffffff1681565b60035481565b62015180600254426110c4919061137b565b106110d25760006007819055505b565b600080fd5b600073ffffffffffffffffffffffffffffffffffffffff82169050919050565b6000611104826110d9565b9050919050565b611114816110f9565b811461111f57600080fd5b50565b6000813590506111318161110b565b92915050565b60006020828403121561114d5761114c6110d4565b5b600061115b84828501611122565b91505092915050565b6000819050919050565b61117781611164565b82525050565b6000602082019050611192600083018461116e565b92915050565b6111a181611164565b81146111ac57600080fd5b50565b6000813590506111be81611198565b92915050565b6000602082840312156111da576111d96110d4565b5b60006111e8848285016111af565b91505092915050565b6000819050919050565b600061121661121161120c846110d9565b6111f1565b6110d9565b9050919050565b6000611228826111fb565b9050919050565b600061123a8261121d565b9050919050565b61124a8161122f565b82525050565b60006020820190506112656000830184611241565b92915050565b60006112768261121d565b9050919050565b6112868161126b565b82525050565b60006020820190506112a1600083018461127d565b92915050565b60006080820190506112bc600083018761116e565b6112c9602083018661116e565b6112d6604083018561116e565b6112e3606083018461116e565b95945050505050565b60008115159050919050565b611301816112ec565b82525050565b600060208201905061131c60008301846112f8565b92915050565b61132b816110f9565b82525050565b60006020820190506113466000830184611322565b92915050565b7f4e487b7100000000000000000000000000000000000000000000000000000000600052601160045260246000fd5b600061138682611164565b915061139183611164565b92508282039050818111156113a9576113a861134c565b5b92915050565b60006113ba82611164565b91506113c583611164565b92508282026113d381611164565b915082820484148315176113ea576113e961134c565b5b5092915050565b60006113fc82611164565b915061140783611164565b925082820190508082111561141f5761141e61134c565b5b92915050565b600082825260208201905092915050565b7f4f776e61626c653a2063616c6c6572206973206e6f7420746865206f776e6572600082015250565b600061146c602083611425565b915061147782611436565b602082019050919050565b6000602082019050818103600083015261149b8161145f565b9050919050565b6000815190506114b181611198565b92915050565b6000602082840312156114cd576114cc6110d4565b5b60006114db848285016114a2565b91505092915050565b7f596f7520646f206e6f7420686176652073756666696369656e742047656d206660008201527f6f722074686520726577617264506f6f6c000000000000000000000000000000602082015250565b6000611540603183611425565b915061154b826114e4565b604082019050919050565b6000602082019050818103600083015261156f81611533565b9050919050565b7f5374616b696e6720706f6f6c20697320616c7265616479206c69766500000000600082015250565b60006115ac601c83611425565b91506115b782611576565b602082019050919050565b600060208201905081810360008301526115db8161159f565b9050919050565b60006060820190506115f76000830186611322565b6116046020830185611322565b611611604083018461116e565b949350505050565b7f4e487b7100000000000000000000000000000000000000000000000000000000600052601260045260246000fd5b600061165382611164565b915061165e83611164565b92508261166e5761166d611619565b5b828204905092915050565b7f496e73756666696369656e74207374616b65642062616c616e63650000000000600082015250565b60006116af601b83611425565b91506116ba82611679565b602082019050919050565b600060208201905081810360008301526116de816116a2565b9050919050565b60006040820190506116fa6000830185611322565b611707602083018461116e565b9392505050565b611717816112ec565b811461172257600080fd5b50565b6000815190506117348161170e565b92915050565b6000602082840312156117505761174f6110d4565b5b600061175e84828501611725565b91505092915050565b7f43616e6e6f74207374616b65203020746f6b656e730000000000000000000000600082015250565b600061179d601583611425565b91506117a882611767565b602082019050919050565b600060208201905081810360008301526117cc81611790565b905091905056fea2646970667358221220b5ee9e1ae0e292f0b8f43bac39f6fa192058741d096e8cc7efc60ed2bd92a03164736f6c63430008130033",
					"opcodes": "PUSH1 0x80 PUSH1 0x40 MSTORE CALLVALUE DUP1 ISZERO PUSH3 0x11 JUMPI PUSH1 0x0 DUP1 REVERT JUMPDEST POP PUSH1 0x40 MLOAD PUSH3 0x1B6C CODESIZE SUB DUP1 PUSH3 0x1B6C DUP4 CODECOPY DUP2 DUP2 ADD PUSH1 0x40 MSTORE DUP2 ADD SWAP1 PUSH3 0x37 SWAP2 SWAP1 PUSH3 0x216 JUMP JUMPDEST DUP3 PUSH1 0x0 DUP1 PUSH2 0x100 EXP DUP2 SLOAD DUP2 PUSH20 0xFFFFFFFFFFFFFFFFFFFFFFFFFFFFFFFFFFFFFFFF MUL NOT AND SWAP1 DUP4 PUSH20 0xFFFFFFFFFFFFFFFFFFFFFFFFFFFFFFFFFFFFFFFF AND MUL OR SWAP1 SSTORE POP DUP2 PUSH1 0x1 PUSH1 0x0 PUSH2 0x100 EXP DUP2 SLOAD DUP2 PUSH20 0xFFFFFFFFFFFFFFFFFFFFFFFFFFFFFFFFFFFFFFFF MUL NOT AND SWAP1 DUP4 PUSH20 0xFFFFFFFFFFFFFFFFFFFFFFFFFFFFFFFFFFFFFFFF AND MUL OR SWAP1 SSTORE POP DUP1 PUSH1 0x8 DUP2 SWAP1 SSTORE POP PUSH2 0x16D PUSH8 0xDE0B6B3A7640000 PUSH1 0x8 SLOAD PUSH3 0xDA SWAP2 SWAP1 PUSH3 0x2A1 JUMP JUMPDEST PUSH3 0xE6 SWAP2 SWAP1 PUSH3 0x31B JUMP JUMPDEST PUSH1 0x4 DUP2 SWAP1 SSTORE POP PUSH3 0x15180 PUSH1 0x4 SLOAD PUSH3 0xFF SWAP2 SWAP1 PUSH3 0x31B JUMP JUMPDEST PUSH1 0x5 DUP2 SWAP1 SSTORE POP TIMESTAMP PUSH1 0x2 DUP2 SWAP1 SSTORE POP PUSH1 0x0 PUSH1 0x9 PUSH1 0x14 PUSH2 0x100 EXP DUP2 SLOAD DUP2 PUSH1 0xFF MUL NOT AND SWAP1 DUP4 ISZERO ISZERO MUL OR SWAP1 SSTORE POP CALLER PUSH1 0x9 PUSH1 0x0 PUSH2 0x100 EXP DUP2 SLOAD DUP2 PUSH20 0xFFFFFFFFFFFFFFFFFFFFFFFFFFFFFFFFFFFFFFFF MUL NOT AND SWAP1 DUP4 PUSH20 0xFFFFFFFFFFFFFFFFFFFFFFFFFFFFFFFFFFFFFFFF AND MUL OR SWAP1 SSTORE POP POP POP POP PUSH3 0x353 JUMP JUMPDEST PUSH1 0x0 DUP1 REVERT JUMPDEST PUSH1 0x0 PUSH20 0xFFFFFFFFFFFFFFFFFFFFFFFFFFFFFFFFFFFFFFFF DUP3 AND SWAP1 POP SWAP2 SWAP1 POP JUMP JUMPDEST PUSH1 0x0 PUSH3 0x1A3 DUP3 PUSH3 0x176 JUMP JUMPDEST SWAP1 POP SWAP2 SWAP1 POP JUMP JUMPDEST PUSH3 0x1B5 DUP2 PUSH3 0x196 JUMP JUMPDEST DUP2 EQ PUSH3 0x1C1 JUMPI PUSH1 0x0 DUP1 REVERT JUMPDEST POP JUMP JUMPDEST PUSH1 0x0 DUP2 MLOAD SWAP1 POP PUSH3 0x1D5 DUP2 PUSH3 0x1AA JUMP JUMPDEST SWAP3 SWAP2 POP POP JUMP JUMPDEST PUSH1 0x0 DUP2 SWAP1 POP SWAP2 SWAP1 POP JUMP JUMPDEST PUSH3 0x1F0 DUP2 PUSH3 0x1DB JUMP JUMPDEST DUP2 EQ PUSH3 0x1FC JUMPI PUSH1 0x0 DUP1 REVERT JUMPDEST POP JUMP JUMPDEST PUSH1 0x0 DUP2 MLOAD SWAP1 POP PUSH3 0x210 DUP2 PUSH3 0x1E5 JUMP JUMPDEST SWAP3 SWAP2 POP POP JUMP JUMPDEST PUSH1 0x0 DUP1 PUSH1 0x0 PUSH1 0x60 DUP5 DUP7 SUB SLT ISZERO PUSH3 0x232 JUMPI PUSH3 0x231 PUSH3 0x171 JUMP JUMPDEST JUMPDEST PUSH1 0x0 PUSH3 0x242 DUP7 DUP3 DUP8 ADD PUSH3 0x1C4 JUMP JUMPDEST SWAP4 POP POP PUSH1 0x20 PUSH3 0x255 DUP7 DUP3 DUP8 ADD PUSH3 0x1C4 JUMP JUMPDEST SWAP3 POP POP PUSH1 0x40 PUSH3 0x268 DUP7 DUP3 DUP8 ADD PUSH3 0x1FF JUMP JUMPDEST SWAP2 POP POP SWAP3 POP SWAP3 POP SWAP3 JUMP JUMPDEST PUSH32 0x4E487B7100000000000000000000000000000000000000000000000000000000 PUSH1 0x0 MSTORE PUSH1 0x11 PUSH1 0x4 MSTORE PUSH1 0x24 PUSH1 0x0 REVERT JUMPDEST PUSH1 0x0 PUSH3 0x2AE DUP3 PUSH3 0x1DB JUMP JUMPDEST SWAP2 POP PUSH3 0x2BB DUP4 PUSH3 0x1DB JUMP JUMPDEST SWAP3 POP DUP3 DUP3 MUL PUSH3 0x2CB DUP2 PUSH3 0x1DB JUMP JUMPDEST SWAP2 POP DUP3 DUP3 DIV DUP5 EQ DUP4 ISZERO OR PUSH3 0x2E5 JUMPI PUSH3 0x2E4 PUSH3 0x272 JUMP JUMPDEST JUMPDEST POP SWAP3 SWAP2 POP POP JUMP JUMPDEST PUSH32 0x4E487B7100000000000000000000000000000000000000000000000000000000 PUSH1 0x0 MSTORE PUSH1 0x12 PUSH1 0x4 MSTORE PUSH1 0x24 PUSH1 0x0 REVERT JUMPDEST PUSH1 0x0 PUSH3 0x328 DUP3 PUSH3 0x1DB JUMP JUMPDEST SWAP2 POP PUSH3 0x335 DUP4 PUSH3 0x1DB JUMP JUMPDEST SWAP3 POP DUP3 PUSH3 0x348 JUMPI PUSH3 0x347 PUSH3 0x2EC JUMP JUMPDEST JUMPDEST DUP3 DUP3 DIV SWAP1 POP SWAP3 SWAP2 POP POP JUMP JUMPDEST PUSH2 0x1809 DUP1 PUSH3 0x363 PUSH1 0x0 CODECOPY PUSH1 0x0 RETURN INVALID PUSH1 0x80 PUSH1 0x40 MSTORE CALLVALUE DUP1 ISZERO PUSH2 0x10 JUMPI PUSH1 0x0 DUP1 REVERT JUMPDEST POP PUSH1 0x4 CALLDATASIZE LT PUSH2 0x12B JUMPI PUSH1 0x0 CALLDATALOAD PUSH1 0xE0 SHR DUP1 PUSH4 0x7BD2BEA7 GT PUSH2 0xAD JUMPI DUP1 PUSH4 0xB88A802F GT PUSH2 0x71 JUMPI DUP1 PUSH4 0xB88A802F EQ PUSH2 0x311 JUMPI DUP1 PUSH4 0xC8F33C91 EQ PUSH2 0x31B JUMPI DUP1 PUSH4 0xCD3DAF9D EQ PUSH2 0x339 JUMPI DUP1 PUSH4 0xCE606EE0 EQ PUSH2 0x357 JUMPI DUP1 PUSH4 0xDF136D65 EQ PUSH2 0x375 JUMPI PUSH2 0x12B JUMP JUMPDEST DUP1 PUSH4 0x7BD2BEA7 EQ PUSH2 0x268 JUMPI DUP1 PUSH4 0x817B1CD2 EQ PUSH2 0x286 JUMPI DUP1 PUSH4 0x9168AE72 EQ PUSH2 0x2A4 JUMPI DUP1 PUSH4 0x924F85BC EQ PUSH2 0x2D7 JUMPI DUP1 PUSH4 0xA694FC3A EQ PUSH2 0x2F5 JUMPI PUSH2 0x12B JUMP JUMPDEST DUP1 PUSH4 0x2E1A7D4D GT PUSH2 0xF4 JUMPI DUP1 PUSH4 0x2E1A7D4D EQ PUSH2 0x1C2 JUMPI DUP1 PUSH4 0x4DF9D6BA EQ PUSH2 0x1DE JUMPI DUP1 PUSH4 0x5FB87206 EQ PUSH2 0x20E JUMPI DUP1 PUSH4 0x5FCBD285 EQ PUSH2 0x22C JUMPI DUP1 PUSH4 0x7B0A47EE EQ PUSH2 0x24A JUMPI PUSH2 0x12B JUMP JUMPDEST DUP1 PUSH3 0x8CC262 EQ PUSH2 0x130 JUMPI DUP1 PUSH4 0x9C85E24 EQ PUSH2 0x160 JUMPI DUP1 PUSH4 0x214E0D9D EQ PUSH2 0x17E JUMPI DUP1 PUSH4 0x26BE0C86 EQ PUSH2 0x19C JUMPI DUP1 PUSH4 0x2BC51F6D EQ PUSH2 0x1A6 JUMPI JUMPDEST PUSH1 0x0 DUP1 REVERT JUMPDEST PUSH2 0x14A PUSH1 0x4 DUP1 CALLDATASIZE SUB DUP2 ADD SWAP1 PUSH2 0x145 SWAP2 SWAP1 PUSH2 0x1137 JUMP JUMPDEST PUSH2 0x393 JUMP JUMPDEST PUSH1 0x40 MLOAD PUSH2 0x157 SWAP2 SWAP1 PUSH2 0x117D JUMP JUMPDEST PUSH1 0x40 MLOAD DUP1 SWAP2 SUB SWAP1 RETURN JUMPDEST PUSH2 0x168 PUSH2 0x4A5 JUMP JUMPDEST PUSH1 0x40 MLOAD PUSH2 0x175 SWAP2 SWAP1 PUSH2 0x117D JUMP JUMPDEST PUSH1 0x40 MLOAD DUP1 SWAP2 SUB SWAP1 RETURN JUMPDEST PUSH2 0x186 PUSH2 0x4AB JUMP JUMPDEST PUSH1 0x40 MLOAD PUSH2 0x193 SWAP2 SWAP1 PUSH2 0x117D JUMP JUMPDEST PUSH1 0x40 MLOAD DUP1 SWAP2 SUB SWAP1 RETURN JUMPDEST PUSH2 0x1A4 PUSH2 0x4B1 JUMP JUMPDEST STOP JUMPDEST PUSH2 0x1C0 PUSH1 0x4 DUP1 CALLDATASIZE SUB DUP2 ADD SWAP1 PUSH2 0x1BB SWAP2 SWAP1 PUSH2 0x1137 JUMP JUMPDEST PUSH2 0x727 JUMP JUMPDEST STOP JUMPDEST PUSH2 0x1DC PUSH1 0x4 DUP1 CALLDATASIZE SUB DUP2 ADD SWAP1 PUSH2 0x1D7 SWAP2 SWAP1 PUSH2 0x11C4 JUMP JUMPDEST PUSH2 0x91A JUMP JUMPDEST STOP JUMPDEST PUSH2 0x1F8 PUSH1 0x4 DUP1 CALLDATASIZE SUB DUP2 ADD SWAP1 PUSH2 0x1F3 SWAP2 SWAP1 PUSH2 0x1137 JUMP JUMPDEST PUSH2 0xB40 JUMP JUMPDEST PUSH1 0x40 MLOAD PUSH2 0x205 SWAP2 SWAP1 PUSH2 0x117D JUMP JUMPDEST PUSH1 0x40 MLOAD DUP1 SWAP2 SUB SWAP1 RETURN JUMPDEST PUSH2 0x216 PUSH2 0xC52 JUMP JUMPDEST PUSH1 0x40 MLOAD PUSH2 0x223 SWAP2 SWAP1 PUSH2 0x117D JUMP JUMPDEST PUSH1 0x40 MLOAD DUP1 SWAP2 SUB SWAP1 RETURN JUMPDEST PUSH2 0x234 PUSH2 0xC58 JUMP JUMPDEST PUSH1 0x40 MLOAD PUSH2 0x241 SWAP2 SWAP1 PUSH2 0x1250 JUMP JUMPDEST PUSH1 0x40 MLOAD DUP1 SWAP2 SUB SWAP1 RETURN JUMPDEST PUSH2 0x252 PUSH2 0xC7C JUMP JUMPDEST PUSH1 0x40 MLOAD PUSH2 0x25F SWAP2 SWAP1 PUSH2 0x117D JUMP JUMPDEST PUSH1 0x40 MLOAD DUP1 SWAP2 SUB SWAP1 RETURN JUMPDEST PUSH2 0x270 PUSH2 0xC82 JUMP JUMPDEST PUSH1 0x40 MLOAD PUSH2 0x27D SWAP2 SWAP1 PUSH2 0x128C JUMP JUMPDEST PUSH1 0x40 MLOAD DUP1 SWAP2 SUB SWAP1 RETURN JUMPDEST PUSH2 0x28E PUSH2 0xCA8 JUMP JUMPDEST PUSH1 0x40 MLOAD PUSH2 0x29B SWAP2 SWAP1 PUSH2 0x117D JUMP JUMPDEST PUSH1 0x40 MLOAD DUP1 SWAP2 SUB SWAP1 RETURN JUMPDEST PUSH2 0x2BE PUSH1 0x4 DUP1 CALLDATASIZE SUB DUP2 ADD SWAP1 PUSH2 0x2B9 SWAP2 SWAP1 PUSH2 0x1137 JUMP JUMPDEST PUSH2 0xCAE JUMP JUMPDEST PUSH1 0x40 MLOAD PUSH2 0x2CE SWAP5 SWAP4 SWAP3 SWAP2 SWAP1 PUSH2 0x12A7 JUMP JUMPDEST PUSH1 0x40 MLOAD DUP1 SWAP2 SUB SWAP1 RETURN JUMPDEST PUSH2 0x2DF PUSH2 0xCDE JUMP JUMPDEST PUSH1 0x40 MLOAD PUSH2 0x2EC SWAP2 SWAP1 PUSH2 0x1307 JUMP JUMPDEST PUSH1 0x40 MLOAD DUP1 SWAP2 SUB SWAP1 RETURN JUMPDEST PUSH2 0x30F PUSH1 0x4 DUP1 CALLDATASIZE SUB DUP2 ADD SWAP1 PUSH2 0x30A SWAP2 SWAP1 PUSH2 0x11C4 JUMP JUMPDEST PUSH2 0xCF1 JUMP JUMPDEST STOP JUMPDEST PUSH2 0x319 PUSH2 0xE89 JUMP JUMPDEST STOP JUMPDEST PUSH2 0x323 PUSH2 0x101D JUMP JUMPDEST PUSH1 0x40 MLOAD PUSH2 0x330 SWAP2 SWAP1 PUSH2 0x117D JUMP JUMPDEST PUSH1 0x40 MLOAD DUP1 SWAP2 SUB SWAP1 RETURN JUMPDEST PUSH2 0x341 PUSH2 0x1023 JUMP JUMPDEST PUSH1 0x40 MLOAD PUSH2 0x34E SWAP2 SWAP1 PUSH2 0x117D JUMP JUMPDEST PUSH1 0x40 MLOAD DUP1 SWAP2 SUB SWAP1 RETURN JUMPDEST PUSH2 0x35F PUSH2 0x1086 JUMP JUMPDEST PUSH1 0x40 MLOAD PUSH2 0x36C SWAP2 SWAP1 PUSH2 0x1331 JUMP JUMPDEST PUSH1 0x40 MLOAD DUP1 SWAP2 SUB SWAP1 RETURN JUMPDEST PUSH2 0x37D PUSH2 0x10AC JUMP JUMPDEST PUSH1 0x40 MLOAD PUSH2 0x38A SWAP2 SWAP1 PUSH2 0x117D JUMP JUMPDEST PUSH1 0x40 MLOAD DUP1 SWAP2 SUB SWAP1 RETURN JUMPDEST PUSH1 0x0 DUP1 PUSH1 0xA PUSH1 0x0 DUP5 PUSH20 0xFFFFFFFFFFFFFFFFFFFFFFFFFFFFFFFFFFFFFFFF AND PUSH20 0xFFFFFFFFFFFFFFFFFFFFFFFFFFFFFFFFFFFFFFFF AND DUP2 MSTORE PUSH1 0x20 ADD SWAP1 DUP2 MSTORE PUSH1 0x20 ADD PUSH1 0x0 KECCAK256 PUSH1 0x3 ADD SLOAD SWAP1 POP PUSH1 0x0 DUP1 DUP3 SUB PUSH2 0x3EB JUMPI PUSH1 0x0 PUSH2 0x3FF JUMP JUMPDEST DUP2 PUSH2 0x3F4 PUSH2 0x1023 JUMP JUMPDEST PUSH2 0x3FE SWAP2 SWAP1 PUSH2 0x137B JUMP JUMPDEST JUMPDEST SWAP1 POP PUSH1 0xA PUSH1 0x0 DUP6 PUSH20 0xFFFFFFFFFFFFFFFFFFFFFFFFFFFFFFFFFFFFFFFF AND PUSH20 0xFFFFFFFFFFFFFFFFFFFFFFFFFFFFFFFFFFFFFFFF AND DUP2 MSTORE PUSH1 0x20 ADD SWAP1 DUP2 MSTORE PUSH1 0x20 ADD PUSH1 0x0 KECCAK256 PUSH1 0x2 ADD SLOAD DUP2 PUSH1 0xA PUSH1 0x0 DUP8 PUSH20 0xFFFFFFFFFFFFFFFFFFFFFFFFFFFFFFFFFFFFFFFF AND PUSH20 0xFFFFFFFFFFFFFFFFFFFFFFFFFFFFFFFFFFFFFFFF AND DUP2 MSTORE PUSH1 0x20 ADD SWAP1 DUP2 MSTORE PUSH1 0x20 ADD PUSH1 0x0 KECCAK256 PUSH1 0x0 ADD SLOAD PUSH2 0x492 SWAP2 SWAP1 PUSH2 0x13AF JUMP JUMPDEST PUSH2 0x49C SWAP2 SWAP1 PUSH2 0x13F1 JUMP JUMPDEST SWAP3 POP POP POP SWAP2 SWAP1 POP JUMP JUMPDEST PUSH1 0x8 SLOAD DUP2 JUMP JUMPDEST PUSH1 0x7 SLOAD DUP2 JUMP JUMPDEST PUSH1 0x9 PUSH1 0x0 SWAP1 SLOAD SWAP1 PUSH2 0x100 EXP SWAP1 DIV PUSH20 0xFFFFFFFFFFFFFFFFFFFFFFFFFFFFFFFFFFFFFFFF AND PUSH20 0xFFFFFFFFFFFFFFFFFFFFFFFFFFFFFFFFFFFFFFFF AND CALLER PUSH20 0xFFFFFFFFFFFFFFFFFFFFFFFFFFFFFFFFFFFFFFFF AND EQ PUSH2 0x541 JUMPI PUSH1 0x40 MLOAD PUSH32 0x8C379A000000000000000000000000000000000000000000000000000000000 DUP2 MSTORE PUSH1 0x4 ADD PUSH2 0x538 SWAP1 PUSH2 0x1482 JUMP JUMPDEST PUSH1 0x40 MLOAD DUP1 SWAP2 SUB SWAP1 REVERT JUMPDEST PUSH1 0x8 SLOAD PUSH1 0x1 PUSH1 0x0 SWAP1 SLOAD SWAP1 PUSH2 0x100 EXP SWAP1 DIV PUSH20 0xFFFFFFFFFFFFFFFFFFFFFFFFFFFFFFFFFFFFFFFF AND PUSH20 0xFFFFFFFFFFFFFFFFFFFFFFFFFFFFFFFFFFFFFFFF AND PUSH4 0x46ED2BCB CALLER PUSH1 0x40 MLOAD DUP3 PUSH4 0xFFFFFFFF AND PUSH1 0xE0 SHL DUP2 MSTORE PUSH1 0x4 ADD PUSH2 0x59F SWAP2 SWAP1 PUSH2 0x1331 JUMP JUMPDEST PUSH1 0x20 PUSH1 0x40 MLOAD DUP1 DUP4 SUB DUP2 DUP7 GAS STATICCALL ISZERO DUP1 ISZERO PUSH2 0x5BC JUMPI RETURNDATASIZE PUSH1 0x0 DUP1 RETURNDATACOPY RETURNDATASIZE PUSH1 0x0 REVERT JUMPDEST POP POP POP POP PUSH1 0x40 MLOAD RETURNDATASIZE PUSH1 0x1F NOT PUSH1 0x1F DUP3 ADD AND DUP3 ADD DUP1 PUSH1 0x40 MSTORE POP DUP2 ADD SWAP1 PUSH2 0x5E0 SWAP2 SWAP1 PUSH2 0x14B7 JUMP JUMPDEST LT ISZERO PUSH2 0x621 JUMPI PUSH1 0x40 MLOAD PUSH32 0x8C379A000000000000000000000000000000000000000000000000000000000 DUP2 MSTORE PUSH1 0x4 ADD PUSH2 0x618 SWAP1 PUSH2 0x1556 JUMP JUMPDEST PUSH1 0x40 MLOAD DUP1 SWAP2 SUB SWAP1 REVERT JUMPDEST PUSH1 0x0 ISZERO ISZERO PUSH1 0x9 PUSH1 0x14 SWAP1 SLOAD SWAP1 PUSH2 0x100 EXP SWAP1 DIV PUSH1 0xFF AND ISZERO ISZERO EQ PUSH2 0x677 JUMPI PUSH1 0x40 MLOAD PUSH32 0x8C379A000000000000000000000000000000000000000000000000000000000 DUP2 MSTORE PUSH1 0x4 ADD PUSH2 0x66E SWAP1 PUSH2 0x15C2 JUMP JUMPDEST PUSH1 0x40 MLOAD DUP1 SWAP2 SUB SWAP1 REVERT JUMPDEST PUSH1 0x1 PUSH1 0x0 SWAP1 SLOAD SWAP1 PUSH2 0x100 EXP SWAP1 DIV PUSH20 0xFFFFFFFFFFFFFFFFFFFFFFFFFFFFFFFFFFFFFFFF AND PUSH20 0xFFFFFFFFFFFFFFFFFFFFFFFFFFFFFFFFFFFFFFFF AND PUSH4 0x2A73AC1F CALLER ADDRESS PUSH1 0x8 SLOAD PUSH1 0x40 MLOAD DUP5 PUSH4 0xFFFFFFFF AND PUSH1 0xE0 SHL DUP2 MSTORE PUSH1 0x4 ADD PUSH2 0x6D8 SWAP4 SWAP3 SWAP2 SWAP1 PUSH2 0x15E2 JUMP JUMPDEST PUSH1 0x0 PUSH1 0x40 MLOAD DUP1 DUP4 SUB DUP2 PUSH1 0x0 DUP8 DUP1 EXTCODESIZE ISZERO DUP1 ISZERO PUSH2 0x6F2 JUMPI PUSH1 0x0 DUP1 REVERT JUMPDEST POP GAS CALL ISZERO DUP1 ISZERO PUSH2 0x706 JUMPI RETURNDATASIZE PUSH1 0x0 DUP1 RETURNDATACOPY RETURNDATASIZE PUSH1 0x0 REVERT JUMPDEST POP POP POP POP PUSH1 0x1 PUSH1 0x9 PUSH1 0x14 PUSH2 0x100 EXP DUP2 SLOAD DUP2 PUSH1 0xFF MUL NOT AND SWAP1 DUP4 ISZERO ISZERO MUL OR SWAP1 SSTORE POP JUMP JUMPDEST PUSH2 0x72F PUSH2 0x10B2 JUMP JUMPDEST PUSH1 0x0 TIMESTAMP SWAP1 POP PUSH1 0x0 PUSH1 0x2 SLOAD DUP3 PUSH2 0x744 SWAP2 SWAP1 PUSH2 0x137B JUMP JUMPDEST SWAP1 POP PUSH1 0x0 PUSH1 0x6 SLOAD GT ISZERO PUSH2 0x7F8 JUMPI PUSH1 0x0 PUSH8 0xDE0B6B3A7640000 PUSH1 0x5 SLOAD DUP4 PUSH2 0x76A SWAP2 SWAP1 PUSH2 0x13AF JUMP JUMPDEST PUSH2 0x774 SWAP2 SWAP1 PUSH2 0x1648 JUMP JUMPDEST SWAP1 POP PUSH1 0x0 PUSH1 0x4 SLOAD DUP3 PUSH1 0x7 SLOAD PUSH2 0x789 SWAP2 SWAP1 PUSH2 0x13F1 JUMP JUMPDEST GT ISZERO PUSH2 0x7A4 JUMPI PUSH1 0x7 SLOAD PUSH1 0x4 SLOAD PUSH2 0x79F SWAP2 SWAP1 PUSH2 0x137B JUMP JUMPDEST PUSH2 0x7A6 JUMP JUMPDEST DUP2 JUMPDEST SWAP1 POP PUSH1 0x6 SLOAD PUSH8 0xDE0B6B3A7640000 DUP3 PUSH2 0x7BF SWAP2 SWAP1 PUSH2 0x13AF JUMP JUMPDEST PUSH2 0x7C9 SWAP2 SWAP1 PUSH2 0x1648 JUMP JUMPDEST PUSH1 0x3 SLOAD PUSH2 0x7D6 SWAP2 SWAP1 PUSH2 0x13F1 JUMP JUMPDEST PUSH1 0x3 DUP2 SWAP1 SSTORE POP DUP1 PUSH1 0x7 PUSH1 0x0 DUP3 DUP3 SLOAD PUSH2 0x7EE SWAP2 SWAP1 PUSH2 0x13F1 JUMP JUMPDEST SWAP3 POP POP DUP2 SWAP1 SSTORE POP POP POP JUMPDEST DUP2 PUSH1 0x2 DUP2 SWAP1 SSTORE POP PUSH1 0x0 PUSH20 0xFFFFFFFFFFFFFFFFFFFFFFFFFFFFFFFFFFFFFFFF AND DUP4 PUSH20 0xFFFFFFFFFFFFFFFFFFFFFFFFFFFFFFFFFFFFFFFF AND EQ PUSH2 0x915 JUMPI PUSH1 0x2 SLOAD PUSH1 0xA PUSH1 0x0 DUP6 PUSH20 0xFFFFFFFFFFFFFFFFFFFFFFFFFFFFFFFFFFFFFFFF AND PUSH20 0xFFFFFFFFFFFFFFFFFFFFFFFFFFFFFFFFFFFFFFFF AND DUP2 MSTORE PUSH1 0x20 ADD SWAP1 DUP2 MSTORE PUSH1 0x20 ADD PUSH1 0x0 KECCAK256 PUSH1 0x3 ADD DUP2 SWAP1 SSTORE POP PUSH2 0x885 DUP4 PUSH2 0x393 JUMP JUMPDEST PUSH1 0xA PUSH1 0x0 DUP6 PUSH20 0xFFFFFFFFFFFFFFFFFFFFFFFFFFFFFFFFFFFFFFFF AND PUSH20 0xFFFFFFFFFFFFFFFFFFFFFFFFFFFFFFFFFFFFFFFF AND DUP2 MSTORE PUSH1 0x20 ADD SWAP1 DUP2 MSTORE PUSH1 0x20 ADD PUSH1 0x0 KECCAK256 PUSH1 0x2 ADD DUP2 SWAP1 SSTORE POP PUSH1 0x3 SLOAD PUSH1 0xA PUSH1 0x0 DUP6 PUSH20 0xFFFFFFFFFFFFFFFFFFFFFFFFFFFFFFFFFFFFFFFF AND PUSH20 0xFFFFFFFFFFFFFFFFFFFFFFFFFFFFFFFFFFFFFFFF AND DUP2 MSTORE PUSH1 0x20 ADD SWAP1 DUP2 MSTORE PUSH1 0x20 ADD PUSH1 0x0 KECCAK256 PUSH1 0x1 ADD DUP2 SWAP1 SSTORE POP JUMPDEST POP POP POP JUMP JUMPDEST DUP1 PUSH1 0xA PUSH1 0x0 CALLER PUSH20 0xFFFFFFFFFFFFFFFFFFFFFFFFFFFFFFFFFFFFFFFF AND PUSH20 0xFFFFFFFFFFFFFFFFFFFFFFFFFFFFFFFFFFFFFFFF AND DUP2 MSTORE PUSH1 0x20 ADD SWAP1 DUP2 MSTORE PUSH1 0x20 ADD PUSH1 0x0 KECCAK256 PUSH1 0x0 ADD SLOAD LT ISZERO PUSH2 0x99F JUMPI PUSH1 0x40 MLOAD PUSH32 0x8C379A000000000000000000000000000000000000000000000000000000000 DUP2 MSTORE PUSH1 0x4 ADD PUSH2 0x996 SWAP1 PUSH2 0x16C5 JUMP JUMPDEST PUSH1 0x40 MLOAD DUP1 SWAP2 SUB SWAP1 REVERT JUMPDEST PUSH2 0x9A8 CALLER PUSH2 0x727 JUMP JUMPDEST DUP1 PUSH1 0xA PUSH1 0x0 CALLER PUSH20 0xFFFFFFFFFFFFFFFFFFFFFFFFFFFFFFFFFFFFFFFF AND PUSH20 0xFFFFFFFFFFFFFFFFFFFFFFFFFFFFFFFFFFFFFFFF AND DUP2 MSTORE PUSH1 0x20 ADD SWAP1 DUP2 MSTORE PUSH1 0x20 ADD PUSH1 0x0 KECCAK256 PUSH1 0x0 ADD SLOAD PUSH2 0x9F6 SWAP2 SWAP1 PUSH2 0x137B JUMP JUMPDEST PUSH1 0xA PUSH1 0x0 CALLER PUSH20 0xFFFFFFFFFFFFFFFFFFFFFFFFFFFFFFFFFFFFFFFF AND PUSH20 0xFFFFFFFFFFFFFFFFFFFFFFFFFFFFFFFFFFFFFFFF AND DUP2 MSTORE PUSH1 0x20 ADD SWAP1 DUP2 MSTORE PUSH1 0x20 ADD PUSH1 0x0 KECCAK256 PUSH1 0x0 ADD DUP2 SWAP1 SSTORE POP DUP1 PUSH1 0x6 SLOAD PUSH2 0xA4A SWAP2 SWAP1 PUSH2 0x137B JUMP JUMPDEST PUSH1 0x6 DUP2 SWAP1 SSTORE POP PUSH1 0x0 DUP1 SLOAD SWAP1 PUSH2 0x100 EXP SWAP1 DIV PUSH20 0xFFFFFFFFFFFFFFFFFFFFFFFFFFFFFFFFFFFFFFFF AND PUSH20 0xFFFFFFFFFFFFFFFFFFFFFFFFFFFFFFFFFFFFFFFF AND PUSH4 0xA9059CBB CALLER DUP4 PUSH1 0x40 MLOAD DUP4 PUSH4 0xFFFFFFFF AND PUSH1 0xE0 SHL DUP2 MSTORE PUSH1 0x4 ADD PUSH2 0xAAB SWAP3 SWAP2 SWAP1 PUSH2 0x16E5 JUMP JUMPDEST PUSH1 0x20 PUSH1 0x40 MLOAD DUP1 DUP4 SUB DUP2 PUSH1 0x0 DUP8 GAS CALL ISZERO DUP1 ISZERO PUSH2 0xACA JUMPI RETURNDATASIZE PUSH1 0x0 DUP1 RETURNDATACOPY RETURNDATASIZE PUSH1 0x0 REVERT JUMPDEST POP POP POP POP PUSH1 0x40 MLOAD RETURNDATASIZE PUSH1 0x1F NOT PUSH1 0x1F DUP3 ADD AND DUP3 ADD DUP1 PUSH1 0x40 MSTORE POP DUP2 ADD SWAP1 PUSH2 0xAEE SWAP2 SWAP1 PUSH2 0x173A JUMP JUMPDEST POP CALLER PUSH20 0xFFFFFFFFFFFFFFFFFFFFFFFFFFFFFFFFFFFFFFFF AND PUSH32 0x7084F5476618D8E60B11EF0D7D3F06914655ADB8793E28FF7F018D4C76D505D5 DUP3 PUSH1 0x40 MLOAD PUSH2 0xB35 SWAP2 SWAP1 PUSH2 0x117D JUMP JUMPDEST PUSH1 0x40 MLOAD DUP1 SWAP2 SUB SWAP1 LOG2 POP JUMP JUMPDEST PUSH1 0x0 DUP1 PUSH1 0xA PUSH1 0x0 DUP5 PUSH20 0xFFFFFFFFFFFFFFFFFFFFFFFFFFFFFFFFFFFFFFFF AND PUSH20 0xFFFFFFFFFFFFFFFFFFFFFFFFFFFFFFFFFFFFFFFF AND DUP2 MSTORE PUSH1 0x20 ADD SWAP1 DUP2 MSTORE PUSH1 0x20 ADD PUSH1 0x0 KECCAK256 PUSH1 0x3 ADD SLOAD SWAP1 POP PUSH1 0x0 DUP1 DUP3 SUB PUSH2 0xB98 JUMPI PUSH1 0x0 PUSH2 0xBAC JUMP JUMPDEST DUP2 PUSH2 0xBA1 PUSH2 0x1023 JUMP JUMPDEST PUSH2 0xBAB SWAP2 SWAP1 PUSH2 0x137B JUMP JUMPDEST JUMPDEST SWAP1 POP PUSH1 0xA PUSH1 0x0 DUP6 PUSH20 0xFFFFFFFFFFFFFFFFFFFFFFFFFFFFFFFFFFFFFFFF AND PUSH20 0xFFFFFFFFFFFFFFFFFFFFFFFFFFFFFFFFFFFFFFFF AND DUP2 MSTORE PUSH1 0x20 ADD SWAP1 DUP2 MSTORE PUSH1 0x20 ADD PUSH1 0x0 KECCAK256 PUSH1 0x2 ADD SLOAD DUP2 PUSH1 0xA PUSH1 0x0 DUP8 PUSH20 0xFFFFFFFFFFFFFFFFFFFFFFFFFFFFFFFFFFFFFFFF AND PUSH20 0xFFFFFFFFFFFFFFFFFFFFFFFFFFFFFFFFFFFFFFFF AND DUP2 MSTORE PUSH1 0x20 ADD SWAP1 DUP2 MSTORE PUSH1 0x20 ADD PUSH1 0x0 KECCAK256 PUSH1 0x0 ADD SLOAD PUSH2 0xC3F SWAP2 SWAP1 PUSH2 0x13AF JUMP JUMPDEST PUSH2 0xC49 SWAP2 SWAP1 PUSH2 0x13F1 JUMP JUMPDEST SWAP3 POP POP POP SWAP2 SWAP1 POP JUMP JUMPDEST PUSH1 0x4 SLOAD DUP2 JUMP JUMPDEST PUSH1 0x0 DUP1 SLOAD SWAP1 PUSH2 0x100 EXP SWAP1 DIV PUSH20 0xFFFFFFFFFFFFFFFFFFFFFFFFFFFFFFFFFFFFFFFF AND DUP2 JUMP JUMPDEST PUSH1 0x5 SLOAD DUP2 JUMP JUMPDEST PUSH1 0x1 PUSH1 0x0 SWAP1 SLOAD SWAP1 PUSH2 0x100 EXP SWAP1 DIV PUSH20 0xFFFFFFFFFFFFFFFFFFFFFFFFFFFFFFFFFFFFFFFF AND DUP2 JUMP JUMPDEST PUSH1 0x6 SLOAD DUP2 JUMP JUMPDEST PUSH1 0xA PUSH1 0x20 MSTORE DUP1 PUSH1 0x0 MSTORE PUSH1 0x40 PUSH1 0x0 KECCAK256 PUSH1 0x0 SWAP2 POP SWAP1 POP DUP1 PUSH1 0x0 ADD SLOAD SWAP1 DUP1 PUSH1 0x1 ADD SLOAD SWAP1 DUP1 PUSH1 0x2 ADD SLOAD SWAP1 DUP1 PUSH1 0x3 ADD SLOAD SWAP1 POP DUP5 JUMP JUMPDEST PUSH1 0x9 PUSH1 0x14 SWAP1 SLOAD SWAP1 PUSH2 0x100 EXP SWAP1 DIV PUSH1 0xFF AND DUP2 JUMP JUMPDEST PUSH1 0x0 DUP2 GT PUSH2 0xD34 JUMPI PUSH1 0x40 MLOAD PUSH32 0x8C379A000000000000000000000000000000000000000000000000000000000 DUP2 MSTORE PUSH1 0x4 ADD PUSH2 0xD2B SWAP1 PUSH2 0x17B3 JUMP JUMPDEST PUSH1 0x40 MLOAD DUP1 SWAP2 SUB SWAP1 REVERT JUMPDEST PUSH2 0xD3D CALLER PUSH2 0x727 JUMP JUMPDEST PUSH1 0x0 DUP1 SLOAD SWAP1 PUSH2 0x100 EXP SWAP1 DIV PUSH20 0xFFFFFFFFFFFFFFFFFFFFFFFFFFFFFFFFFFFFFFFF AND PUSH20 0xFFFFFFFFFFFFFFFFFFFFFFFFFFFFFFFFFFFFFFFF AND PUSH4 0x23B872DD CALLER ADDRESS DUP5 PUSH1 0x40 MLOAD DUP5 PUSH4 0xFFFFFFFF AND PUSH1 0xE0 SHL DUP2 MSTORE PUSH1 0x4 ADD PUSH2 0xD9A SWAP4 SWAP3 SWAP2 SWAP1 PUSH2 0x15E2 JUMP JUMPDEST PUSH1 0x20 PUSH1 0x40 MLOAD DUP1 DUP4 SUB DUP2 PUSH1 0x0 DUP8 GAS CALL ISZERO DUP1 ISZERO PUSH2 0xDB9 JUMPI RETURNDATASIZE PUSH1 0x0 DUP1 RETURNDATACOPY RETURNDATASIZE PUSH1 0x0 REVERT JUMPDEST POP POP POP POP PUSH1 0x40 MLOAD RETURNDATASIZE PUSH1 0x1F NOT PUSH1 0x1F DUP3 ADD AND DUP3 ADD DUP1 PUSH1 0x40 MSTORE POP DUP2 ADD SWAP1 PUSH2 0xDDD SWAP2 SWAP1 PUSH2 0x173A JUMP JUMPDEST POP DUP1 PUSH1 0x6 SLOAD PUSH2 0xDEC SWAP2 SWAP1 PUSH2 0x13F1 JUMP JUMPDEST PUSH1 0x6 DUP2 SWAP1 SSTORE POP DUP1 PUSH1 0xA PUSH1 0x0 CALLER PUSH20 0xFFFFFFFFFFFFFFFFFFFFFFFFFFFFFFFFFFFFFFFF AND PUSH20 0xFFFFFFFFFFFFFFFFFFFFFFFFFFFFFFFFFFFFFFFF AND DUP2 MSTORE PUSH1 0x20 ADD SWAP1 DUP2 MSTORE PUSH1 0x20 ADD PUSH1 0x0 KECCAK256 PUSH1 0x0 ADD SLOAD PUSH2 0xE40 SWAP2 SWAP1 PUSH2 0x13F1 JUMP JUMPDEST PUSH1 0xA PUSH1 0x0 CALLER PUSH20 0xFFFFFFFFFFFFFFFFFFFFFFFFFFFFFFFFFFFFFFFF AND PUSH20 0xFFFFFFFFFFFFFFFFFFFFFFFFFFFFFFFFFFFFFFFF AND DUP2 MSTORE PUSH1 0x20 ADD SWAP1 DUP2 MSTORE PUSH1 0x20 ADD PUSH1 0x0 KECCAK256 PUSH1 0x0 ADD DUP2 SWAP1 SSTORE POP POP JUMP JUMPDEST PUSH2 0xE92 CALLER PUSH2 0x727 JUMP JUMPDEST PUSH1 0x0 PUSH1 0xA PUSH1 0x0 CALLER PUSH20 0xFFFFFFFFFFFFFFFFFFFFFFFFFFFFFFFFFFFFFFFF AND PUSH20 0xFFFFFFFFFFFFFFFFFFFFFFFFFFFFFFFFFFFFFFFF AND DUP2 MSTORE PUSH1 0x20 ADD SWAP1 DUP2 MSTORE PUSH1 0x20 ADD PUSH1 0x0 KECCAK256 PUSH1 0x2 ADD SLOAD SWAP1 POP PUSH1 0x0 DUP2 GT ISZERO PUSH2 0x101A JUMPI PUSH1 0x0 PUSH1 0xA PUSH1 0x0 CALLER PUSH20 0xFFFFFFFFFFFFFFFFFFFFFFFFFFFFFFFFFFFFFFFF AND PUSH20 0xFFFFFFFFFFFFFFFFFFFFFFFFFFFFFFFFFFFFFFFF AND DUP2 MSTORE PUSH1 0x20 ADD SWAP1 DUP2 MSTORE PUSH1 0x20 ADD PUSH1 0x0 KECCAK256 PUSH1 0x2 ADD DUP2 SWAP1 SSTORE POP PUSH1 0x1 PUSH1 0x0 SWAP1 SLOAD SWAP1 PUSH2 0x100 EXP SWAP1 DIV PUSH20 0xFFFFFFFFFFFFFFFFFFFFFFFFFFFFFFFFFFFFFFFF AND PUSH20 0xFFFFFFFFFFFFFFFFFFFFFFFFFFFFFFFFFFFFFFFF AND PUSH4 0xF09910E4 CALLER DUP4 PUSH1 0x40 MLOAD DUP4 PUSH4 0xFFFFFFFF AND PUSH1 0xE0 SHL DUP2 MSTORE PUSH1 0x4 ADD PUSH2 0xF87 SWAP3 SWAP2 SWAP1 PUSH2 0x16E5 JUMP JUMPDEST PUSH1 0x20 PUSH1 0x40 MLOAD DUP1 DUP4 SUB DUP2 PUSH1 0x0 DUP8 GAS CALL ISZERO DUP1 ISZERO PUSH2 0xFA6 JUMPI RETURNDATASIZE PUSH1 0x0 DUP1 RETURNDATACOPY RETURNDATASIZE PUSH1 0x0 REVERT JUMPDEST POP POP POP POP PUSH1 0x40 MLOAD RETURNDATASIZE PUSH1 0x1F NOT PUSH1 0x1F DUP3 ADD AND DUP3 ADD DUP1 PUSH1 0x40 MSTORE POP DUP2 ADD SWAP1 PUSH2 0xFCA SWAP2 SWAP1 PUSH2 0x173A JUMP JUMPDEST POP CALLER PUSH20 0xFFFFFFFFFFFFFFFFFFFFFFFFFFFFFFFFFFFFFFFF AND PUSH32 0xE2403640BA68FED3A2F88B7557551D1993F84B99BB10FF833F0CF8DB0C5E0486 DUP3 PUSH1 0x40 MLOAD PUSH2 0x1011 SWAP2 SWAP1 PUSH2 0x117D JUMP JUMPDEST PUSH1 0x40 MLOAD DUP1 SWAP2 SUB SWAP1 LOG2 JUMPDEST POP JUMP JUMPDEST PUSH1 0x2 SLOAD DUP2 JUMP JUMPDEST PUSH1 0x0 DUP1 PUSH1 0x6 SLOAD SUB PUSH2 0x1038 JUMPI PUSH1 0x3 SLOAD SWAP1 POP PUSH2 0x1083 JUMP JUMPDEST PUSH1 0x6 SLOAD PUSH8 0xDE0B6B3A7640000 PUSH1 0x5 SLOAD PUSH1 0x2 SLOAD TIMESTAMP PUSH2 0x1055 SWAP2 SWAP1 PUSH2 0x137B JUMP JUMPDEST PUSH2 0x105F SWAP2 SWAP1 PUSH2 0x13AF JUMP JUMPDEST PUSH2 0x1069 SWAP2 SWAP1 PUSH2 0x1648 JUMP JUMPDEST PUSH2 0x1073 SWAP2 SWAP1 PUSH2 0x1648 JUMP JUMPDEST PUSH1 0x3 SLOAD PUSH2 0x1080 SWAP2 SWAP1 PUSH2 0x13F1 JUMP JUMPDEST SWAP1 POP JUMPDEST SWAP1 JUMP JUMPDEST PUSH1 0x9 PUSH1 0x0 SWAP1 SLOAD SWAP1 PUSH2 0x100 EXP SWAP1 DIV PUSH20 0xFFFFFFFFFFFFFFFFFFFFFFFFFFFFFFFFFFFFFFFF AND DUP2 JUMP JUMPDEST PUSH1 0x3 SLOAD DUP2 JUMP JUMPDEST PUSH3 0x15180 PUSH1 0x2 SLOAD TIMESTAMP PUSH2 0x10C4 SWAP2 SWAP1 PUSH2 0x137B JUMP JUMPDEST LT PUSH2 0x10D2 JUMPI PUSH1 0x0 PUSH1 0x7 DUP2 SWAP1 SSTORE POP JUMPDEST JUMP JUMPDEST PUSH1 0x0 DUP1 REVERT JUMPDEST PUSH1 0x0 PUSH20 0xFFFFFFFFFFFFFFFFFFFFFFFFFFFFFFFFFFFFFFFF DUP3 AND SWAP1 POP SWAP2 SWAP1 POP JUMP JUMPDEST PUSH1 0x0 PUSH2 0x1104 DUP3 PUSH2 0x10D9 JUMP JUMPDEST SWAP1 POP SWAP2 SWAP1 POP JUMP JUMPDEST PUSH2 0x1114 DUP2 PUSH2 0x10F9 JUMP JUMPDEST DUP2 EQ PUSH2 0x111F JUMPI PUSH1 0x0 DUP1 REVERT JUMPDEST POP JUMP JUMPDEST PUSH1 0x0 DUP2 CALLDATALOAD SWAP1 POP PUSH2 0x1131 DUP2 PUSH2 0x110B JUMP JUMPDEST SWAP3 SWAP2 POP POP JUMP JUMPDEST PUSH1 0x0 PUSH1 0x20 DUP3 DUP5 SUB SLT ISZERO PUSH2 0x114D JUMPI PUSH2 0x114C PUSH2 0x10D4 JUMP JUMPDEST JUMPDEST PUSH1 0x0 PUSH2 0x115B DUP5 DUP3 DUP6 ADD PUSH2 0x1122 JUMP JUMPDEST SWAP2 POP POP SWAP3 SWAP2 POP POP JUMP JUMPDEST PUSH1 0x0 DUP2 SWAP1 POP SWAP2 SWAP1 POP JUMP JUMPDEST PUSH2 0x1177 DUP2 PUSH2 0x1164 JUMP JUMPDEST DUP3 MSTORE POP POP JUMP JUMPDEST PUSH1 0x0 PUSH1 0x20 DUP3 ADD SWAP1 POP PUSH2 0x1192 PUSH1 0x0 DUP4 ADD DUP5 PUSH2 0x116E JUMP JUMPDEST SWAP3 SWAP2 POP POP JUMP JUMPDEST PUSH2 0x11A1 DUP2 PUSH2 0x1164 JUMP JUMPDEST DUP2 EQ PUSH2 0x11AC JUMPI PUSH1 0x0 DUP1 REVERT JUMPDEST POP JUMP JUMPDEST PUSH1 0x0 DUP2 CALLDATALOAD SWAP1 POP PUSH2 0x11BE DUP2 PUSH2 0x1198 JUMP JUMPDEST SWAP3 SWAP2 POP POP JUMP JUMPDEST PUSH1 0x0 PUSH1 0x20 DUP3 DUP5 SUB SLT ISZERO PUSH2 0x11DA JUMPI PUSH2 0x11D9 PUSH2 0x10D4 JUMP JUMPDEST JUMPDEST PUSH1 0x0 PUSH2 0x11E8 DUP5 DUP3 DUP6 ADD PUSH2 0x11AF JUMP JUMPDEST SWAP2 POP POP SWAP3 SWAP2 POP POP JUMP JUMPDEST PUSH1 0x0 DUP2 SWAP1 POP SWAP2 SWAP1 POP JUMP JUMPDEST PUSH1 0x0 PUSH2 0x1216 PUSH2 0x1211 PUSH2 0x120C DUP5 PUSH2 0x10D9 JUMP JUMPDEST PUSH2 0x11F1 JUMP JUMPDEST PUSH2 0x10D9 JUMP JUMPDEST SWAP1 POP SWAP2 SWAP1 POP JUMP JUMPDEST PUSH1 0x0 PUSH2 0x1228 DUP3 PUSH2 0x11FB JUMP JUMPDEST SWAP1 POP SWAP2 SWAP1 POP JUMP JUMPDEST PUSH1 0x0 PUSH2 0x123A DUP3 PUSH2 0x121D JUMP JUMPDEST SWAP1 POP SWAP2 SWAP1 POP JUMP JUMPDEST PUSH2 0x124A DUP2 PUSH2 0x122F JUMP JUMPDEST DUP3 MSTORE POP POP JUMP JUMPDEST PUSH1 0x0 PUSH1 0x20 DUP3 ADD SWAP1 POP PUSH2 0x1265 PUSH1 0x0 DUP4 ADD DUP5 PUSH2 0x1241 JUMP JUMPDEST SWAP3 SWAP2 POP POP JUMP JUMPDEST PUSH1 0x0 PUSH2 0x1276 DUP3 PUSH2 0x121D JUMP JUMPDEST SWAP1 POP SWAP2 SWAP1 POP JUMP JUMPDEST PUSH2 0x1286 DUP2 PUSH2 0x126B JUMP JUMPDEST DUP3 MSTORE POP POP JUMP JUMPDEST PUSH1 0x0 PUSH1 0x20 DUP3 ADD SWAP1 POP PUSH2 0x12A1 PUSH1 0x0 DUP4 ADD DUP5 PUSH2 0x127D JUMP JUMPDEST SWAP3 SWAP2 POP POP JUMP JUMPDEST PUSH1 0x0 PUSH1 0x80 DUP3 ADD SWAP1 POP PUSH2 0x12BC PUSH1 0x0 DUP4 ADD DUP8 PUSH2 0x116E JUMP JUMPDEST PUSH2 0x12C9 PUSH1 0x20 DUP4 ADD DUP7 PUSH2 0x116E JUMP JUMPDEST PUSH2 0x12D6 PUSH1 0x40 DUP4 ADD DUP6 PUSH2 0x116E JUMP JUMPDEST PUSH2 0x12E3 PUSH1 0x60 DUP4 ADD DUP5 PUSH2 0x116E JUMP JUMPDEST SWAP6 SWAP5 POP POP POP POP POP JUMP JUMPDEST PUSH1 0x0 DUP2 ISZERO ISZERO SWAP1 POP SWAP2 SWAP1 POP JUMP JUMPDEST PUSH2 0x1301 DUP2 PUSH2 0x12EC JUMP JUMPDEST DUP3 MSTORE POP POP JUMP JUMPDEST PUSH1 0x0 PUSH1 0x20 DUP3 ADD SWAP1 POP PUSH2 0x131C PUSH1 0x0 DUP4 ADD DUP5 PUSH2 0x12F8 JUMP JUMPDEST SWAP3 SWAP2 POP POP JUMP JUMPDEST PUSH2 0x132B DUP2 PUSH2 0x10F9 JUMP JUMPDEST DUP3 MSTORE POP POP JUMP JUMPDEST PUSH1 0x0 PUSH1 0x20 DUP3 ADD SWAP1 POP PUSH2 0x1346 PUSH1 0x0 DUP4 ADD DUP5 PUSH2 0x1322 JUMP JUMPDEST SWAP3 SWAP2 POP POP JUMP JUMPDEST PUSH32 0x4E487B7100000000000000000000000000000000000000000000000000000000 PUSH1 0x0 MSTORE PUSH1 0x11 PUSH1 0x4 MSTORE PUSH1 0x24 PUSH1 0x0 REVERT JUMPDEST PUSH1 0x0 PUSH2 0x1386 DUP3 PUSH2 0x1164 JUMP JUMPDEST SWAP2 POP PUSH2 0x1391 DUP4 PUSH2 0x1164 JUMP JUMPDEST SWAP3 POP DUP3 DUP3 SUB SWAP1 POP DUP2 DUP2 GT ISZERO PUSH2 0x13A9 JUMPI PUSH2 0x13A8 PUSH2 0x134C JUMP JUMPDEST JUMPDEST SWAP3 SWAP2 POP POP JUMP JUMPDEST PUSH1 0x0 PUSH2 0x13BA DUP3 PUSH2 0x1164 JUMP JUMPDEST SWAP2 POP PUSH2 0x13C5 DUP4 PUSH2 0x1164 JUMP JUMPDEST SWAP3 POP DUP3 DUP3 MUL PUSH2 0x13D3 DUP2 PUSH2 0x1164 JUMP JUMPDEST SWAP2 POP DUP3 DUP3 DIV DUP5 EQ DUP4 ISZERO OR PUSH2 0x13EA JUMPI PUSH2 0x13E9 PUSH2 0x134C JUMP JUMPDEST JUMPDEST POP SWAP3 SWAP2 POP POP JUMP JUMPDEST PUSH1 0x0 PUSH2 0x13FC DUP3 PUSH2 0x1164 JUMP JUMPDEST SWAP2 POP PUSH2 0x1407 DUP4 PUSH2 0x1164 JUMP JUMPDEST SWAP3 POP DUP3 DUP3 ADD SWAP1 POP DUP1 DUP3 GT ISZERO PUSH2 0x141F JUMPI PUSH2 0x141E PUSH2 0x134C JUMP JUMPDEST JUMPDEST SWAP3 SWAP2 POP POP JUMP JUMPDEST PUSH1 0x0 DUP3 DUP3 MSTORE PUSH1 0x20 DUP3 ADD SWAP1 POP SWAP3 SWAP2 POP POP JUMP JUMPDEST PUSH32 0x4F776E61626C653A2063616C6C6572206973206E6F7420746865206F776E6572 PUSH1 0x0 DUP3 ADD MSTORE POP JUMP JUMPDEST PUSH1 0x0 PUSH2 0x146C PUSH1 0x20 DUP4 PUSH2 0x1425 JUMP JUMPDEST SWAP2 POP PUSH2 0x1477 DUP3 PUSH2 0x1436 JUMP JUMPDEST PUSH1 0x20 DUP3 ADD SWAP1 POP SWAP2 SWAP1 POP JUMP JUMPDEST PUSH1 0x0 PUSH1 0x20 DUP3 ADD SWAP1 POP DUP2 DUP2 SUB PUSH1 0x0 DUP4 ADD MSTORE PUSH2 0x149B DUP2 PUSH2 0x145F JUMP JUMPDEST SWAP1 POP SWAP2 SWAP1 POP JUMP JUMPDEST PUSH1 0x0 DUP2 MLOAD SWAP1 POP PUSH2 0x14B1 DUP2 PUSH2 0x1198 JUMP JUMPDEST SWAP3 SWAP2 POP POP JUMP JUMPDEST PUSH1 0x0 PUSH1 0x20 DUP3 DUP5 SUB SLT ISZERO PUSH2 0x14CD JUMPI PUSH2 0x14CC PUSH2 0x10D4 JUMP JUMPDEST JUMPDEST PUSH1 0x0 PUSH2 0x14DB DUP5 DUP3 DUP6 ADD PUSH2 0x14A2 JUMP JUMPDEST SWAP2 POP POP SWAP3 SWAP2 POP POP JUMP JUMPDEST PUSH32 0x596F7520646F206E6F7420686176652073756666696369656E742047656D2066 PUSH1 0x0 DUP3 ADD MSTORE PUSH32 0x6F722074686520726577617264506F6F6C000000000000000000000000000000 PUSH1 0x20 DUP3 ADD MSTORE POP JUMP JUMPDEST PUSH1 0x0 PUSH2 0x1540 PUSH1 0x31 DUP4 PUSH2 0x1425 JUMP JUMPDEST SWAP2 POP PUSH2 0x154B DUP3 PUSH2 0x14E4 JUMP JUMPDEST PUSH1 0x40 DUP3 ADD SWAP1 POP SWAP2 SWAP1 POP JUMP JUMPDEST PUSH1 0x0 PUSH1 0x20 DUP3 ADD SWAP1 POP DUP2 DUP2 SUB PUSH1 0x0 DUP4 ADD MSTORE PUSH2 0x156F DUP2 PUSH2 0x1533 JUMP JUMPDEST SWAP1 POP SWAP2 SWAP1 POP JUMP JUMPDEST PUSH32 0x5374616B696E6720706F6F6C20697320616C7265616479206C69766500000000 PUSH1 0x0 DUP3 ADD MSTORE POP JUMP JUMPDEST PUSH1 0x0 PUSH2 0x15AC PUSH1 0x1C DUP4 PUSH2 0x1425 JUMP JUMPDEST SWAP2 POP PUSH2 0x15B7 DUP3 PUSH2 0x1576 JUMP JUMPDEST PUSH1 0x20 DUP3 ADD SWAP1 POP SWAP2 SWAP1 POP JUMP JUMPDEST PUSH1 0x0 PUSH1 0x20 DUP3 ADD SWAP1 POP DUP2 DUP2 SUB PUSH1 0x0 DUP4 ADD MSTORE PUSH2 0x15DB DUP2 PUSH2 0x159F JUMP JUMPDEST SWAP1 POP SWAP2 SWAP1 POP JUMP JUMPDEST PUSH1 0x0 PUSH1 0x60 DUP3 ADD SWAP1 POP PUSH2 0x15F7 PUSH1 0x0 DUP4 ADD DUP7 PUSH2 0x1322 JUMP JUMPDEST PUSH2 0x1604 PUSH1 0x20 DUP4 ADD DUP6 PUSH2 0x1322 JUMP JUMPDEST PUSH2 0x1611 PUSH1 0x40 DUP4 ADD DUP5 PUSH2 0x116E JUMP JUMPDEST SWAP5 SWAP4 POP POP POP POP JUMP JUMPDEST PUSH32 0x4E487B7100000000000000000000000000000000000000000000000000000000 PUSH1 0x0 MSTORE PUSH1 0x12 PUSH1 0x4 MSTORE PUSH1 0x24 PUSH1 0x0 REVERT JUMPDEST PUSH1 0x0 PUSH2 0x1653 DUP3 PUSH2 0x1164 JUMP JUMPDEST SWAP2 POP PUSH2 0x165E DUP4 PUSH2 0x1164 JUMP JUMPDEST SWAP3 POP DUP3 PUSH2 0x166E JUMPI PUSH2 0x166D PUSH2 0x1619 JUMP JUMPDEST JUMPDEST DUP3 DUP3 DIV SWAP1 POP SWAP3 SWAP2 POP POP JUMP JUMPDEST PUSH32 0x496E73756666696369656E74207374616B65642062616C616E63650000000000 PUSH1 0x0 DUP3 ADD MSTORE POP JUMP JUMPDEST PUSH1 0x0 PUSH2 0x16AF PUSH1 0x1B DUP4 PUSH2 0x1425 JUMP JUMPDEST SWAP2 POP PUSH2 0x16BA DUP3 PUSH2 0x1679 JUMP JUMPDEST PUSH1 0x20 DUP3 ADD SWAP1 POP SWAP2 SWAP1 POP JUMP JUMPDEST PUSH1 0x0 PUSH1 0x20 DUP3 ADD SWAP1 POP DUP2 DUP2 SUB PUSH1 0x0 DUP4 ADD MSTORE PUSH2 0x16DE DUP2 PUSH2 0x16A2 JUMP JUMPDEST SWAP1 POP SWAP2 SWAP1 POP JUMP JUMPDEST PUSH1 0x0 PUSH1 0x40 DUP3 ADD SWAP1 POP PUSH2 0x16FA PUSH1 0x0 DUP4 ADD DUP6 PUSH2 0x1322 JUMP JUMPDEST PUSH2 0x1707 PUSH1 0x20 DUP4 ADD DUP5 PUSH2 0x116E JUMP JUMPDEST SWAP4 SWAP3 POP POP POP JUMP JUMPDEST PUSH2 0x1717 DUP2 PUSH2 0x12EC JUMP JUMPDEST DUP2 EQ PUSH2 0x1722 JUMPI PUSH1 0x0 DUP1 REVERT JUMPDEST POP JUMP JUMPDEST PUSH1 0x0 DUP2 MLOAD SWAP1 POP PUSH2 0x1734 DUP2 PUSH2 0x170E JUMP JUMPDEST SWAP3 SWAP2 POP POP JUMP JUMPDEST PUSH1 0x0 PUSH1 0x20 DUP3 DUP5 SUB SLT ISZERO PUSH2 0x1750 JUMPI PUSH2 0x174F PUSH2 0x10D4 JUMP JUMPDEST JUMPDEST PUSH1 0x0 PUSH2 0x175E DUP5 DUP3 DUP6 ADD PUSH2 0x1725 JUMP JUMPDEST SWAP2 POP POP SWAP3 SWAP2 POP POP JUMP JUMPDEST PUSH32 0x43616E6E6F74207374616B65203020746F6B656E730000000000000000000000 PUSH1 0x0 DUP3 ADD MSTORE POP JUMP JUMPDEST PUSH1 0x0 PUSH2 0x179D PUSH1 0x15 DUP4 PUSH2 0x1425 JUMP JUMPDEST SWAP2 POP PUSH2 0x17A8 DUP3 PUSH2 0x1767 JUMP JUMPDEST PUSH1 0x20 DUP3 ADD SWAP1 POP SWAP2 SWAP1 POP JUMP JUMPDEST PUSH1 0x0 PUSH1 0x20 DUP3 ADD SWAP1 POP DUP2 DUP2 SUB PUSH1 0x0 DUP4 ADD MSTORE PUSH2 0x17CC DUP2 PUSH2 0x1790 JUMP JUMPDEST SWAP1 POP SWAP2 SWAP1 POP JUMP INVALID LOG2 PUSH5 0x6970667358 0x22 SLT KECCAK256 0xB5 0xEE SWAP15 BYTE 0xE0 0xE2 SWAP3 CREATE 0xB8 DELEGATECALL EXTCODESIZE 0xAC CODECOPY 0xF6 STATICCALL NOT KECCAK256 PC PUSH21 0x1D096E8CC7EFC60ED2BD92A03164736F6C63430008 SGT STOP CALLER "
				},
				"gasEstimates": {
					"creation": {
						"codeDepositCost": "1230600",
						"executionCost": "infinite",
						"totalCost": "infinite"
					},
					"external": {
						"_updateRewards(address)": "infinite",
						"claimReward()": "infinite",
						"contractOwner()": "2602",
						"dailyRewardCounter()": "2497",
						"earned(address)": "infinite",
						"gem()": "infinite",
						"getPendingReward(address)": "infinite",
						"lastUpdateTime()": "2473",
						"lpToken()": "infinite",
						"maxDailyReward()": "2496",
						"rewardPerToken()": "infinite",
						"rewardPerTokenStored()": "2539",
						"rewardRate()": "2540",
						"setStakingPoolLive()": "infinite",
						"stake(uint256)": "infinite",
						"stakers(address)": "infinite",
						"stakingPoolLive()": "2610",
						"totalRewardPool()": "2475",
						"totalStaked()": "2474",
						"withdraw(uint256)": "infinite"
					},
					"internal": {
						"_resetDailyRewardCounterIfNeeded()": "infinite"
					}
				},
				"methodIdentifiers": {
					"_updateRewards(address)": "2bc51f6d",
					"claimReward()": "b88a802f",
					"contractOwner()": "ce606ee0",
					"dailyRewardCounter()": "214e0d9d",
					"earned(address)": "008cc262",
					"gem()": "7bd2bea7",
					"getPendingReward(address)": "4df9d6ba",
					"lastUpdateTime()": "c8f33c91",
					"lpToken()": "5fcbd285",
					"maxDailyReward()": "5fb87206",
					"rewardPerToken()": "cd3daf9d",
					"rewardPerTokenStored()": "df136d65",
					"rewardRate()": "7b0a47ee",
					"setStakingPoolLive()": "26be0c86",
					"stake(uint256)": "a694fc3a",
					"stakers(address)": "9168ae72",
					"stakingPoolLive()": "924f85bc",
					"totalRewardPool()": "09c85e24",
					"totalStaked()": "817b1cd2",
					"withdraw(uint256)": "2e1a7d4d"
				}
			},
			"storageLayout": {
				"storage": [
					{
						"astId": 858,
						"contract": "contracts/StakingRewards.sol:StakingRewards",
						"label": "lpToken",
						"offset": 0,
						"slot": "0",
						"type": "t_contract(ERC20)599"
					},
					{
						"astId": 861,
						"contract": "contracts/StakingRewards.sol:StakingRewards",
						"label": "gem",
						"offset": 0,
						"slot": "1",
						"type": "t_contract(Gem)773"
					},
					{
						"astId": 863,
						"contract": "contracts/StakingRewards.sol:StakingRewards",
						"label": "lastUpdateTime",
						"offset": 0,
						"slot": "2",
						"type": "t_uint256"
					},
					{
						"astId": 865,
						"contract": "contracts/StakingRewards.sol:StakingRewards",
						"label": "rewardPerTokenStored",
						"offset": 0,
						"slot": "3",
						"type": "t_uint256"
					},
					{
						"astId": 867,
						"contract": "contracts/StakingRewards.sol:StakingRewards",
						"label": "maxDailyReward",
						"offset": 0,
						"slot": "4",
						"type": "t_uint256"
					},
					{
						"astId": 869,
						"contract": "contracts/StakingRewards.sol:StakingRewards",
						"label": "rewardRate",
						"offset": 0,
						"slot": "5",
						"type": "t_uint256"
					},
					{
						"astId": 871,
						"contract": "contracts/StakingRewards.sol:StakingRewards",
						"label": "totalStaked",
						"offset": 0,
						"slot": "6",
						"type": "t_uint256"
					},
					{
						"astId": 873,
						"contract": "contracts/StakingRewards.sol:StakingRewards",
						"label": "dailyRewardCounter",
						"offset": 0,
						"slot": "7",
						"type": "t_uint256"
					},
					{
						"astId": 875,
						"contract": "contracts/StakingRewards.sol:StakingRewards",
						"label": "totalRewardPool",
						"offset": 0,
						"slot": "8",
						"type": "t_uint256"
					},
					{
						"astId": 877,
						"contract": "contracts/StakingRewards.sol:StakingRewards",
						"label": "contractOwner",
						"offset": 0,
						"slot": "9",
						"type": "t_address"
					},
					{
						"astId": 879,
						"contract": "contracts/StakingRewards.sol:StakingRewards",
						"label": "stakingPoolLive",
						"offset": 20,
						"slot": "9",
						"type": "t_bool"
					},
					{
						"astId": 893,
						"contract": "contracts/StakingRewards.sol:StakingRewards",
						"label": "stakers",
						"offset": 0,
						"slot": "10",
						"type": "t_mapping(t_address,t_struct(StakeInfo)888_storage)"
					}
				],
				"types": {
					"t_address": {
						"encoding": "inplace",
						"label": "address",
						"numberOfBytes": "20"
					},
					"t_bool": {
						"encoding": "inplace",
						"label": "bool",
						"numberOfBytes": "1"
					},
					"t_contract(ERC20)599": {
						"encoding": "inplace",
						"label": "contract ERC20",
						"numberOfBytes": "20"
					},
					"t_contract(Gem)773": {
						"encoding": "inplace",
						"label": "contract Gem",
						"numberOfBytes": "20"
					},
					"t_mapping(t_address,t_struct(StakeInfo)888_storage)": {
						"encoding": "mapping",
						"key": "t_address",
						"label": "mapping(address => struct StakingRewards.StakeInfo)",
						"numberOfBytes": "32",
						"value": "t_struct(StakeInfo)888_storage"
					},
					"t_struct(StakeInfo)888_storage": {
						"encoding": "inplace",
						"label": "struct StakingRewards.StakeInfo",
						"members": [
							{
								"astId": 881,
								"contract": "contracts/StakingRewards.sol:StakingRewards",
								"label": "amount",
								"offset": 0,
								"slot": "0",
								"type": "t_uint256"
							},
							{
								"astId": 883,
								"contract": "contracts/StakingRewards.sol:StakingRewards",
								"label": "rewardPerTokenPaid",
								"offset": 0,
								"slot": "1",
								"type": "t_uint256"
							},
							{
								"astId": 885,
								"contract": "contracts/StakingRewards.sol:StakingRewards",
								"label": "rewards",
								"offset": 0,
								"slot": "2",
								"type": "t_uint256"
							},
							{
								"astId": 887,
								"contract": "contracts/StakingRewards.sol:StakingRewards",
								"label": "lastUpdateTimeForAccount",
								"offset": 0,
								"slot": "3",
								"type": "t_uint256"
							}
						],
						"numberOfBytes": "128"
					},
					"t_uint256": {
						"encoding": "inplace",
						"label": "uint256",
						"numberOfBytes": "32"
					}
				}
			},
			"userdoc": {
				"kind": "user",
				"methods": {},
				"version": 1
			}
		}
	}
}