{
	"contracts/Gem.sol": {
		"Gem": {
			"abi": [
				{
					"inputs": [],
					"stateMutability": "nonpayable",
					"type": "constructor"
				},
				{
					"anonymous": false,
					"inputs": [
						{
							"indexed": true,
							"internalType": "address",
							"name": "owner",
							"type": "address"
						},
						{
							"indexed": true,
							"internalType": "address",
							"name": "spender",
							"type": "address"
						},
						{
							"indexed": false,
							"internalType": "uint256",
							"name": "value",
							"type": "uint256"
						}
					],
					"name": "Approval",
					"type": "event"
				},
				{
					"anonymous": false,
					"inputs": [
						{
							"indexed": true,
							"internalType": "address",
							"name": "from",
							"type": "address"
						},
						{
							"indexed": true,
							"internalType": "address",
							"name": "to",
							"type": "address"
						},
						{
							"indexed": false,
							"internalType": "uint256",
							"name": "value",
							"type": "uint256"
						}
					],
					"name": "Transfer",
					"type": "event"
				},
				{
					"inputs": [
						{
							"internalType": "address",
							"name": "account",
							"type": "address"
						},
						{
							"internalType": "uint256",
							"name": "amount",
							"type": "uint256"
						}
					],
					"name": "_mint",
					"outputs": [],
					"stateMutability": "nonpayable",
					"type": "function"
				},
				{
					"inputs": [
						{
							"internalType": "address",
							"name": "owner",
							"type": "address"
						},
						{
							"internalType": "address",
							"name": "spender",
							"type": "address"
						}
					],
					"name": "allowance",
					"outputs": [
						{
							"internalType": "uint256",
							"name": "",
							"type": "uint256"
						}
					],
					"stateMutability": "view",
					"type": "function"
				},
				{
					"inputs": [
						{
							"internalType": "address",
							"name": "spender",
							"type": "address"
						},
						{
							"internalType": "uint256",
							"name": "amount",
							"type": "uint256"
						}
					],
					"name": "approve",
					"outputs": [
						{
							"internalType": "bool",
							"name": "",
							"type": "bool"
						}
					],
					"stateMutability": "nonpayable",
					"type": "function"
				},
				{
					"inputs": [
						{
							"internalType": "address",
							"name": "account",
							"type": "address"
						}
					],
					"name": "balanceOf",
					"outputs": [
						{
							"internalType": "uint256",
							"name": "",
							"type": "uint256"
						}
					],
					"stateMutability": "view",
					"type": "function"
				},
				{
					"inputs": [],
					"name": "decimals",
					"outputs": [
						{
							"internalType": "uint8",
							"name": "",
							"type": "uint8"
						}
					],
					"stateMutability": "view",
					"type": "function"
				},
				{
					"inputs": [
						{
							"internalType": "address",
							"name": "spender",
							"type": "address"
						},
						{
							"internalType": "uint256",
							"name": "subtractedValue",
							"type": "uint256"
						}
					],
					"name": "decreaseAllowance",
					"outputs": [
						{
							"internalType": "bool",
							"name": "",
							"type": "bool"
						}
					],
					"stateMutability": "nonpayable",
					"type": "function"
				},
				{
					"inputs": [],
					"name": "getCredit",
					"outputs": [],
					"stateMutability": "payable",
					"type": "function"
				},
				{
					"inputs": [
						{
							"internalType": "address",
							"name": "spender",
							"type": "address"
						},
						{
							"internalType": "uint256",
							"name": "addedValue",
							"type": "uint256"
						}
					],
					"name": "increaseAllowance",
					"outputs": [
						{
							"internalType": "bool",
							"name": "",
							"type": "bool"
						}
					],
					"stateMutability": "nonpayable",
					"type": "function"
				},
				{
					"inputs": [
						{
							"internalType": "address",
							"name": "account",
							"type": "address"
						},
						{
							"internalType": "uint256",
							"name": "amount",
							"type": "uint256"
						}
					],
					"name": "mint",
					"outputs": [],
					"stateMutability": "nonpayable",
					"type": "function"
				},
				{
					"inputs": [],
					"name": "name",
					"outputs": [
						{
							"internalType": "string",
							"name": "",
							"type": "string"
						}
					],
					"stateMutability": "view",
					"type": "function"
				},
				{
					"inputs": [],
					"name": "symbol",
					"outputs": [
						{
							"internalType": "string",
							"name": "",
							"type": "string"
						}
					],
					"stateMutability": "view",
					"type": "function"
				},
				{
					"inputs": [],
					"name": "totalSupply",
					"outputs": [
						{
							"internalType": "uint256",
							"name": "",
							"type": "uint256"
						}
					],
					"stateMutability": "view",
					"type": "function"
				},
				{
					"inputs": [
						{
							"internalType": "address",
							"name": "to",
							"type": "address"
						},
						{
							"internalType": "uint256",
							"name": "amount",
							"type": "uint256"
						}
					],
					"name": "transfer",
					"outputs": [
						{
							"internalType": "bool",
							"name": "",
							"type": "bool"
						}
					],
					"stateMutability": "nonpayable",
					"type": "function"
				},
				{
					"inputs": [
						{
							"internalType": "address",
							"name": "from",
							"type": "address"
						},
						{
							"internalType": "address",
							"name": "to",
							"type": "address"
						},
						{
							"internalType": "uint256",
							"name": "amount",
							"type": "uint256"
						}
					],
					"name": "transferFrom",
					"outputs": [
						{
							"internalType": "bool",
							"name": "",
							"type": "bool"
						}
					],
					"stateMutability": "nonpayable",
					"type": "function"
				}
			],
			"devdoc": {
				"events": {
					"Approval(address,address,uint256)": {
						"details": "Emitted when the allowance of a `spender` for an `owner` is set by a call to {approve}. `value` is the new allowance."
					},
					"Transfer(address,address,uint256)": {
						"details": "Emitted when `value` tokens are moved from one account (`from`) to another (`to`). Note that `value` may be zero."
					}
				},
				"kind": "dev",
				"methods": {
					"_mint(address,uint256)": {
						"details": "Creates `amount` tokens and assigns them to `account`, increasing the total supply. Emits a {Transfer} event with `from` set to the zero address. Requirements: - `account` cannot be the zero address."
					},
					"allowance(address,address)": {
						"details": "See {IERC20-allowance}."
					},
					"approve(address,uint256)": {
						"details": "See {IERC20-approve}. NOTE: If `amount` is the maximum `uint256`, the allowance is not updated on `transferFrom`. This is semantically equivalent to an infinite approval. Requirements: - `spender` cannot be the zero address."
					},
					"balanceOf(address)": {
						"details": "See {IERC20-balanceOf}."
					},
					"decimals()": {
						"details": "Returns the number of decimals used to get its user representation. For example, if `decimals` equals `2`, a balance of `505` tokens should be displayed to a user as `5.05` (`505 / 10 ** 2`). Tokens usually opt for a value of 18, imitating the relationship between Ether and Wei. This is the default value returned by this function, unless it's overridden. NOTE: This information is only used for _display_ purposes: it in no way affects any of the arithmetic of the contract, including {IERC20-balanceOf} and {IERC20-transfer}."
					},
					"decreaseAllowance(address,uint256)": {
						"details": "Atomically decreases the allowance granted to `spender` by the caller. This is an alternative to {approve} that can be used as a mitigation for problems described in {IERC20-approve}. Emits an {Approval} event indicating the updated allowance. Requirements: - `spender` cannot be the zero address. - `spender` must have allowance for the caller of at least `subtractedValue`."
					},
					"increaseAllowance(address,uint256)": {
						"details": "Atomically increases the allowance granted to `spender` by the caller. This is an alternative to {approve} that can be used as a mitigation for problems described in {IERC20-approve}. Emits an {Approval} event indicating the updated allowance. Requirements: - `spender` cannot be the zero address."
					},
					"name()": {
						"details": "Returns the name of the token."
					},
					"symbol()": {
						"details": "Returns the symbol of the token, usually a shorter version of the name."
					},
					"totalSupply()": {
						"details": "See {IERC20-totalSupply}."
					},
					"transfer(address,uint256)": {
						"details": "See {IERC20-transfer}. Requirements: - `to` cannot be the zero address. - the caller must have a balance of at least `amount`."
					},
					"transferFrom(address,address,uint256)": {
						"details": "See {IERC20-transferFrom}. Emits an {Approval} event indicating the updated allowance. This is not required by the EIP. See the note at the beginning of {ERC20}. NOTE: Does not update the allowance if the current allowance is the maximum `uint256`. Requirements: - `from` and `to` cannot be the zero address. - `from` must have a balance of at least `amount`. - the caller must have allowance for ``from``'s tokens of at least `amount`."
					}
				},
				"version": 1
			},
			"evm": {
				"assembly": "    /* \"contracts/Gem.sol\":82:2016  contract Gem is ERC20(\"BEAST GEM\", \"BGM\") {... */\n  mstore(0x40, 0x80)\n    /* \"contracts/Gem.sol\":234:396  constructor() {... */\n  callvalue\n  dup1\n  iszero\n  tag_1\n  jumpi\n  0x00\n  dup1\n  revert\ntag_1:\n  pop\n    /* \"contracts/ERC20.sol\":1976:2089  constructor(string memory name_, string memory symbol_) {... */\n  mload(0x40)\n  dup1\n  0x40\n  add\n  0x40\n  mstore\n  dup1\n  0x09\n  dup2\n  mstore\n  0x20\n  add\n  0x42454153542047454d0000000000000000000000000000000000000000000000\n  dup2\n  mstore\n  pop\n  mload(0x40)\n  dup1\n  0x40\n  add\n  0x40\n  mstore\n  dup1\n  0x03\n  dup2\n  mstore\n  0x20\n  add\n  0x42474d0000000000000000000000000000000000000000000000000000000000\n  dup2\n  mstore\n  pop\n    /* \"contracts/ERC20.sol\":2050:2055  name_ */\n  dup2\n    /* \"contracts/ERC20.sol\":2042:2047  _name */\n  0x03\n    /* \"contracts/ERC20.sol\":2042:2055  _name = name_ */\n  swap1\n  dup2\n  tag_5\n  swap2\n  swap1\n  tag_6\n  jump\t// in\ntag_5:\n  pop\n    /* \"contracts/ERC20.sol\":2075:2082  symbol_ */\n  dup1\n    /* \"contracts/ERC20.sol\":2065:2072  _symbol */\n  0x04\n    /* \"contracts/ERC20.sol\":2065:2082  _symbol = symbol_ */\n  swap1\n  dup2\n  tag_7\n  swap2\n  swap1\n  tag_6\n  jump\t// in\ntag_7:\n  pop\n    /* \"contracts/ERC20.sol\":1976:2089  constructor(string memory name_, string memory symbol_) {... */\n  pop\n  pop\n    /* \"contracts/Gem.sol\":348:358  msg.sender */\n  caller\n    /* \"contracts/Gem.sol\":340:345  owner */\n  0x07\n  0x00\n    /* \"contracts/Gem.sol\":340:358  owner = msg.sender */\n  0x0100\n  exp\n  dup2\n  sload\n  dup2\n  0xffffffffffffffffffffffffffffffffffffffff\n  mul\n  not\n  and\n  swap1\n  dup4\n  0xffffffffffffffffffffffffffffffffffffffff\n  and\n  mul\n  or\n  swap1\n  sstore\n  pop\n    /* \"contracts/Gem.sol\":382:389  1000000 */\n  0x0f4240\n    /* \"contracts/Gem.sol\":368:379  supplyLimit */\n  0x05\n    /* \"contracts/Gem.sol\":368:389  supplyLimit = 1000000 */\n  dup2\n  swap1\n  sstore\n  pop\n    /* \"contracts/Gem.sol\":82:2016  contract Gem is ERC20(\"BEAST GEM\", \"BGM\") {... */\n  jump(tag_9)\n    /* \"#utility.yul\":7:106   */\ntag_10:\n    /* \"#utility.yul\":59:65   */\n  0x00\n    /* \"#utility.yul\":93:98   */\n  dup2\n    /* \"#utility.yul\":87:99   */\n  mload\n    /* \"#utility.yul\":77:99   */\n  swap1\n  pop\n    /* \"#utility.yul\":7:106   */\n  swap2\n  swap1\n  pop\n  jump\t// out\n    /* \"#utility.yul\":112:292   */\ntag_11:\n    /* \"#utility.yul\":160:237   */\n  0x4e487b7100000000000000000000000000000000000000000000000000000000\n    /* \"#utility.yul\":157:158   */\n  0x00\n    /* \"#utility.yul\":150:238   */\n  mstore\n    /* \"#utility.yul\":257:261   */\n  0x41\n    /* \"#utility.yul\":254:255   */\n  0x04\n    /* \"#utility.yul\":247:262   */\n  mstore\n    /* \"#utility.yul\":281:285   */\n  0x24\n    /* \"#utility.yul\":278:279   */\n  0x00\n    /* \"#utility.yul\":271:286   */\n  revert\n    /* \"#utility.yul\":298:478   */\ntag_12:\n    /* \"#utility.yul\":346:423   */\n  0x4e487b7100000000000000000000000000000000000000000000000000000000\n    /* \"#utility.yul\":343:344   */\n  0x00\n    /* \"#utility.yul\":336:424   */\n  mstore\n    /* \"#utility.yul\":443:447   */\n  0x22\n    /* \"#utility.yul\":440:441   */\n  0x04\n    /* \"#utility.yul\":433:448   */\n  mstore\n    /* \"#utility.yul\":467:471   */\n  0x24\n    /* \"#utility.yul\":464:465   */\n  0x00\n    /* \"#utility.yul\":457:472   */\n  revert\n    /* \"#utility.yul\":484:804   */\ntag_13:\n    /* \"#utility.yul\":528:534   */\n  0x00\n    /* \"#utility.yul\":565:566   */\n  0x02\n    /* \"#utility.yul\":559:563   */\n  dup3\n    /* \"#utility.yul\":555:567   */\n  div\n    /* \"#utility.yul\":545:567   */\n  swap1\n  pop\n    /* \"#utility.yul\":612:613   */\n  0x01\n    /* \"#utility.yul\":606:610   */\n  dup3\n    /* \"#utility.yul\":602:614   */\n  and\n    /* \"#utility.yul\":633:651   */\n  dup1\n    /* \"#utility.yul\":623:704   */\n  tag_35\n  jumpi\n    /* \"#utility.yul\":689:693   */\n  0x7f\n    /* \"#utility.yul\":681:687   */\n  dup3\n    /* \"#utility.yul\":677:694   */\n  and\n    /* \"#utility.yul\":667:694   */\n  swap2\n  pop\n    /* \"#utility.yul\":623:704   */\ntag_35:\n    /* \"#utility.yul\":751:753   */\n  0x20\n    /* \"#utility.yul\":743:749   */\n  dup3\n    /* \"#utility.yul\":740:754   */\n  lt\n    /* \"#utility.yul\":720:738   */\n  dup2\n    /* \"#utility.yul\":717:755   */\n  sub\n    /* \"#utility.yul\":714:798   */\n  tag_36\n  jumpi\n    /* \"#utility.yul\":770:788   */\n  tag_37\n  tag_12\n  jump\t// in\ntag_37:\n    /* \"#utility.yul\":714:798   */\ntag_36:\n    /* \"#utility.yul\":535:804   */\n  pop\n    /* \"#utility.yul\":484:804   */\n  swap2\n  swap1\n  pop\n  jump\t// out\n    /* \"#utility.yul\":810:951   */\ntag_14:\n    /* \"#utility.yul\":859:863   */\n  0x00\n    /* \"#utility.yul\":882:885   */\n  dup2\n    /* \"#utility.yul\":874:885   */\n  swap1\n  pop\n    /* \"#utility.yul\":905:908   */\n  dup2\n    /* \"#utility.yul\":902:903   */\n  0x00\n    /* \"#utility.yul\":895:909   */\n  mstore\n    /* \"#utility.yul\":939:943   */\n  0x20\n    /* \"#utility.yul\":936:937   */\n  0x00\n    /* \"#utility.yul\":926:944   */\n  keccak256\n    /* \"#utility.yul\":918:944   */\n  swap1\n  pop\n    /* \"#utility.yul\":810:951   */\n  swap2\n  swap1\n  pop\n  jump\t// out\n    /* \"#utility.yul\":957:1050   */\ntag_15:\n    /* \"#utility.yul\":994:1000   */\n  0x00\n    /* \"#utility.yul\":1041:1043   */\n  0x20\n    /* \"#utility.yul\":1036:1038   */\n  0x1f\n    /* \"#utility.yul\":1029:1034   */\n  dup4\n    /* \"#utility.yul\":1025:1039   */\n  add\n    /* \"#utility.yul\":1021:1044   */\n  div\n    /* \"#utility.yul\":1011:1044   */\n  swap1\n  pop\n    /* \"#utility.yul\":957:1050   */\n  swap2\n  swap1\n  pop\n  jump\t// out\n    /* \"#utility.yul\":1056:1163   */\ntag_16:\n    /* \"#utility.yul\":1100:1108   */\n  0x00\n    /* \"#utility.yul\":1150:1155   */\n  dup3\n    /* \"#utility.yul\":1144:1148   */\n  dup3\n    /* \"#utility.yul\":1140:1156   */\n  shl\n    /* \"#utility.yul\":1119:1156   */\n  swap1\n  pop\n    /* \"#utility.yul\":1056:1163   */\n  swap3\n  swap2\n  pop\n  pop\n  jump\t// out\n    /* \"#utility.yul\":1169:1562   */\ntag_17:\n    /* \"#utility.yul\":1238:1244   */\n  0x00\n    /* \"#utility.yul\":1288:1289   */\n  0x08\n    /* \"#utility.yul\":1276:1286   */\n  dup4\n    /* \"#utility.yul\":1272:1290   */\n  mul\n    /* \"#utility.yul\":1311:1408   */\n  tag_42\n    /* \"#utility.yul\":1341:1407   */\n  0xffffffffffffffffffffffffffffffffffffffffffffffffffffffffffffffff\n    /* \"#utility.yul\":1330:1339   */\n  dup3\n    /* \"#utility.yul\":1311:1408   */\n  tag_16\n  jump\t// in\ntag_42:\n    /* \"#utility.yul\":1429:1468   */\n  tag_43\n    /* \"#utility.yul\":1459:1467   */\n  dup7\n    /* \"#utility.yul\":1448:1457   */\n  dup4\n    /* \"#utility.yul\":1429:1468   */\n  tag_16\n  jump\t// in\ntag_43:\n    /* \"#utility.yul\":1417:1468   */\n  swap6\n  pop\n    /* \"#utility.yul\":1501:1505   */\n  dup1\n    /* \"#utility.yul\":1497:1506   */\n  not\n    /* \"#utility.yul\":1490:1495   */\n  dup5\n    /* \"#utility.yul\":1486:1507   */\n  and\n    /* \"#utility.yul\":1477:1507   */\n  swap4\n  pop\n    /* \"#utility.yul\":1550:1554   */\n  dup1\n    /* \"#utility.yul\":1540:1548   */\n  dup7\n    /* \"#utility.yul\":1536:1555   */\n  and\n    /* \"#utility.yul\":1529:1534   */\n  dup5\n    /* \"#utility.yul\":1526:1556   */\n  or\n    /* \"#utility.yul\":1516:1556   */\n  swap3\n  pop\n    /* \"#utility.yul\":1245:1562   */\n  pop\n  pop\n    /* \"#utility.yul\":1169:1562   */\n  swap4\n  swap3\n  pop\n  pop\n  pop\n  jump\t// out\n    /* \"#utility.yul\":1568:1645   */\ntag_18:\n    /* \"#utility.yul\":1605:1612   */\n  0x00\n    /* \"#utility.yul\":1634:1639   */\n  dup2\n    /* \"#utility.yul\":1623:1639   */\n  swap1\n  pop\n    /* \"#utility.yul\":1568:1645   */\n  swap2\n  swap1\n  pop\n  jump\t// out\n    /* \"#utility.yul\":1651:1711   */\ntag_19:\n    /* \"#utility.yul\":1679:1682   */\n  0x00\n    /* \"#utility.yul\":1700:1705   */\n  dup2\n    /* \"#utility.yul\":1693:1705   */\n  swap1\n  pop\n    /* \"#utility.yul\":1651:1711   */\n  swap2\n  swap1\n  pop\n  jump\t// out\n    /* \"#utility.yul\":1717:1859   */\ntag_20:\n    /* \"#utility.yul\":1767:1776   */\n  0x00\n    /* \"#utility.yul\":1800:1853   */\n  tag_47\n    /* \"#utility.yul\":1818:1852   */\n  tag_48\n    /* \"#utility.yul\":1827:1851   */\n  tag_49\n    /* \"#utility.yul\":1845:1850   */\n  dup5\n    /* \"#utility.yul\":1827:1851   */\n  tag_18\n  jump\t// in\ntag_49:\n    /* \"#utility.yul\":1818:1852   */\n  tag_19\n  jump\t// in\ntag_48:\n    /* \"#utility.yul\":1800:1853   */\n  tag_18\n  jump\t// in\ntag_47:\n    /* \"#utility.yul\":1787:1853   */\n  swap1\n  pop\n    /* \"#utility.yul\":1717:1859   */\n  swap2\n  swap1\n  pop\n  jump\t// out\n    /* \"#utility.yul\":1865:1940   */\ntag_21:\n    /* \"#utility.yul\":1908:1911   */\n  0x00\n    /* \"#utility.yul\":1929:1934   */\n  dup2\n    /* \"#utility.yul\":1922:1934   */\n  swap1\n  pop\n    /* \"#utility.yul\":1865:1940   */\n  swap2\n  swap1\n  pop\n  jump\t// out\n    /* \"#utility.yul\":1946:2215   */\ntag_22:\n    /* \"#utility.yul\":2056:2095   */\n  tag_52\n    /* \"#utility.yul\":2087:2094   */\n  dup4\n    /* \"#utility.yul\":2056:2095   */\n  tag_20\n  jump\t// in\ntag_52:\n    /* \"#utility.yul\":2117:2208   */\n  tag_53\n    /* \"#utility.yul\":2166:2207   */\n  tag_54\n    /* \"#utility.yul\":2190:2206   */\n  dup3\n    /* \"#utility.yul\":2166:2207   */\n  tag_21\n  jump\t// in\ntag_54:\n    /* \"#utility.yul\":2158:2164   */\n  dup5\n    /* \"#utility.yul\":2151:2155   */\n  dup5\n    /* \"#utility.yul\":2145:2156   */\n  sload\n    /* \"#utility.yul\":2117:2208   */\n  tag_17\n  jump\t// in\ntag_53:\n    /* \"#utility.yul\":2111:2115   */\n  dup3\n    /* \"#utility.yul\":2104:2209   */\n  sstore\n    /* \"#utility.yul\":2022:2215   */\n  pop\n    /* \"#utility.yul\":1946:2215   */\n  pop\n  pop\n  pop\n  jump\t// out\n    /* \"#utility.yul\":2221:2294   */\ntag_23:\n    /* \"#utility.yul\":2266:2269   */\n  0x00\n    /* \"#utility.yul\":2221:2294   */\n  swap1\n  jump\t// out\n    /* \"#utility.yul\":2300:2489   */\ntag_24:\n    /* \"#utility.yul\":2377:2409   */\n  tag_57\n  tag_23\n  jump\t// in\ntag_57:\n    /* \"#utility.yul\":2418:2483   */\n  tag_58\n    /* \"#utility.yul\":2476:2482   */\n  dup2\n    /* \"#utility.yul\":2468:2474   */\n  dup5\n    /* \"#utility.yul\":2462:2466   */\n  dup5\n    /* \"#utility.yul\":2418:2483   */\n  tag_22\n  jump\t// in\ntag_58:\n    /* \"#utility.yul\":2353:2489   */\n  pop\n    /* \"#utility.yul\":2300:2489   */\n  pop\n  pop\n  jump\t// out\n    /* \"#utility.yul\":2495:2681   */\ntag_25:\n    /* \"#utility.yul\":2555:2675   */\ntag_60:\n    /* \"#utility.yul\":2572:2575   */\n  dup2\n    /* \"#utility.yul\":2565:2570   */\n  dup2\n    /* \"#utility.yul\":2562:2576   */\n  lt\n    /* \"#utility.yul\":2555:2675   */\n  iszero\n  tag_62\n  jumpi\n    /* \"#utility.yul\":2626:2665   */\n  tag_63\n    /* \"#utility.yul\":2663:2664   */\n  0x00\n    /* \"#utility.yul\":2656:2661   */\n  dup3\n    /* \"#utility.yul\":2626:2665   */\n  tag_24\n  jump\t// in\ntag_63:\n    /* \"#utility.yul\":2599:2600   */\n  0x01\n    /* \"#utility.yul\":2592:2597   */\n  dup2\n    /* \"#utility.yul\":2588:2601   */\n  add\n    /* \"#utility.yul\":2579:2601   */\n  swap1\n  pop\n    /* \"#utility.yul\":2555:2675   */\n  jump(tag_60)\ntag_62:\n    /* \"#utility.yul\":2495:2681   */\n  pop\n  pop\n  jump\t// out\n    /* \"#utility.yul\":2687:3230   */\ntag_26:\n    /* \"#utility.yul\":2788:2790   */\n  0x1f\n    /* \"#utility.yul\":2783:2786   */\n  dup3\n    /* \"#utility.yul\":2780:2791   */\n  gt\n    /* \"#utility.yul\":2777:3223   */\n  iszero\n  tag_65\n  jumpi\n    /* \"#utility.yul\":2822:2860   */\n  tag_66\n    /* \"#utility.yul\":2854:2859   */\n  dup2\n    /* \"#utility.yul\":2822:2860   */\n  tag_14\n  jump\t// in\ntag_66:\n    /* \"#utility.yul\":2906:2935   */\n  tag_67\n    /* \"#utility.yul\":2924:2934   */\n  dup5\n    /* \"#utility.yul\":2906:2935   */\n  tag_15\n  jump\t// in\ntag_67:\n    /* \"#utility.yul\":2896:2904   */\n  dup2\n    /* \"#utility.yul\":2892:2936   */\n  add\n    /* \"#utility.yul\":3089:3091   */\n  0x20\n    /* \"#utility.yul\":3077:3087   */\n  dup6\n    /* \"#utility.yul\":3074:3092   */\n  lt\n    /* \"#utility.yul\":3071:3120   */\n  iszero\n  tag_68\n  jumpi\n    /* \"#utility.yul\":3110:3118   */\n  dup2\n    /* \"#utility.yul\":3095:3118   */\n  swap1\n  pop\n    /* \"#utility.yul\":3071:3120   */\ntag_68:\n    /* \"#utility.yul\":3133:3213   */\n  tag_69\n    /* \"#utility.yul\":3189:3211   */\n  tag_70\n    /* \"#utility.yul\":3207:3210   */\n  dup6\n    /* \"#utility.yul\":3189:3211   */\n  tag_15\n  jump\t// in\ntag_70:\n    /* \"#utility.yul\":3179:3187   */\n  dup4\n    /* \"#utility.yul\":3175:3212   */\n  add\n    /* \"#utility.yul\":3162:3173   */\n  dup3\n    /* \"#utility.yul\":3133:3213   */\n  tag_25\n  jump\t// in\ntag_69:\n    /* \"#utility.yul\":2792:3223   */\n  pop\n  pop\n    /* \"#utility.yul\":2777:3223   */\ntag_65:\n    /* \"#utility.yul\":2687:3230   */\n  pop\n  pop\n  pop\n  jump\t// out\n    /* \"#utility.yul\":3236:3353   */\ntag_27:\n    /* \"#utility.yul\":3290:3298   */\n  0x00\n    /* \"#utility.yul\":3340:3345   */\n  dup3\n    /* \"#utility.yul\":3334:3338   */\n  dup3\n    /* \"#utility.yul\":3330:3346   */\n  shr\n    /* \"#utility.yul\":3309:3346   */\n  swap1\n  pop\n    /* \"#utility.yul\":3236:3353   */\n  swap3\n  swap2\n  pop\n  pop\n  jump\t// out\n    /* \"#utility.yul\":3359:3528   */\ntag_28:\n    /* \"#utility.yul\":3403:3409   */\n  0x00\n    /* \"#utility.yul\":3436:3487   */\n  tag_73\n    /* \"#utility.yul\":3484:3485   */\n  0x00\n    /* \"#utility.yul\":3480:3486   */\n  not\n    /* \"#utility.yul\":3472:3477   */\n  dup5\n    /* \"#utility.yul\":3469:3470   */\n  0x08\n    /* \"#utility.yul\":3465:3478   */\n  mul\n    /* \"#utility.yul\":3436:3487   */\n  tag_27\n  jump\t// in\ntag_73:\n    /* \"#utility.yul\":3432:3488   */\n  not\n    /* \"#utility.yul\":3517:3521   */\n  dup1\n    /* \"#utility.yul\":3511:3515   */\n  dup4\n    /* \"#utility.yul\":3507:3522   */\n  and\n    /* \"#utility.yul\":3497:3522   */\n  swap2\n  pop\n    /* \"#utility.yul\":3410:3528   */\n  pop\n    /* \"#utility.yul\":3359:3528   */\n  swap3\n  swap2\n  pop\n  pop\n  jump\t// out\n    /* \"#utility.yul\":3533:3828   */\ntag_29:\n    /* \"#utility.yul\":3609:3613   */\n  0x00\n    /* \"#utility.yul\":3755:3784   */\n  tag_75\n    /* \"#utility.yul\":3780:3783   */\n  dup4\n    /* \"#utility.yul\":3774:3778   */\n  dup4\n    /* \"#utility.yul\":3755:3784   */\n  tag_28\n  jump\t// in\ntag_75:\n    /* \"#utility.yul\":3747:3784   */\n  swap2\n  pop\n    /* \"#utility.yul\":3817:3820   */\n  dup3\n    /* \"#utility.yul\":3814:3815   */\n  0x02\n    /* \"#utility.yul\":3810:3821   */\n  mul\n    /* \"#utility.yul\":3804:3808   */\n  dup3\n    /* \"#utility.yul\":3801:3822   */\n  or\n    /* \"#utility.yul\":3793:3822   */\n  swap1\n  pop\n    /* \"#utility.yul\":3533:3828   */\n  swap3\n  swap2\n  pop\n  pop\n  jump\t// out\n    /* \"#utility.yul\":3833:5228   */\ntag_6:\n    /* \"#utility.yul\":3950:3987   */\n  tag_77\n    /* \"#utility.yul\":3983:3986   */\n  dup3\n    /* \"#utility.yul\":3950:3987   */\n  tag_10\n  jump\t// in\ntag_77:\n    /* \"#utility.yul\":4052:4070   */\n  0xffffffffffffffff\n    /* \"#utility.yul\":4044:4050   */\n  dup2\n    /* \"#utility.yul\":4041:4071   */\n  gt\n    /* \"#utility.yul\":4038:4094   */\n  iszero\n  tag_78\n  jumpi\n    /* \"#utility.yul\":4074:4092   */\n  tag_79\n  tag_11\n  jump\t// in\ntag_79:\n    /* \"#utility.yul\":4038:4094   */\ntag_78:\n    /* \"#utility.yul\":4118:4156   */\n  tag_80\n    /* \"#utility.yul\":4150:4154   */\n  dup3\n    /* \"#utility.yul\":4144:4155   */\n  sload\n    /* \"#utility.yul\":4118:4156   */\n  tag_13\n  jump\t// in\ntag_80:\n    /* \"#utility.yul\":4203:4270   */\n  tag_81\n    /* \"#utility.yul\":4263:4269   */\n  dup3\n    /* \"#utility.yul\":4255:4261   */\n  dup3\n    /* \"#utility.yul\":4249:4253   */\n  dup6\n    /* \"#utility.yul\":4203:4270   */\n  tag_26\n  jump\t// in\ntag_81:\n    /* \"#utility.yul\":4297:4298   */\n  0x00\n    /* \"#utility.yul\":4321:4325   */\n  0x20\n    /* \"#utility.yul\":4308:4325   */\n  swap1\n  pop\n    /* \"#utility.yul\":4353:4355   */\n  0x1f\n    /* \"#utility.yul\":4345:4351   */\n  dup4\n    /* \"#utility.yul\":4342:4356   */\n  gt\n    /* \"#utility.yul\":4370:4371   */\n  0x01\n    /* \"#utility.yul\":4365:4983   */\n  dup2\n  eq\n  tag_83\n  jumpi\n    /* \"#utility.yul\":5027:5028   */\n  0x00\n    /* \"#utility.yul\":5044:5050   */\n  dup5\n    /* \"#utility.yul\":5041:5118   */\n  iszero\n  tag_84\n  jumpi\n    /* \"#utility.yul\":5093:5102   */\n  dup3\n    /* \"#utility.yul\":5088:5091   */\n  dup8\n    /* \"#utility.yul\":5084:5103   */\n  add\n    /* \"#utility.yul\":5078:5104   */\n  mload\n    /* \"#utility.yul\":5069:5104   */\n  swap1\n  pop\n    /* \"#utility.yul\":5041:5118   */\ntag_84:\n    /* \"#utility.yul\":5144:5211   */\n  tag_85\n    /* \"#utility.yul\":5204:5210   */\n  dup6\n    /* \"#utility.yul\":5197:5202   */\n  dup3\n    /* \"#utility.yul\":5144:5211   */\n  tag_29\n  jump\t// in\ntag_85:\n    /* \"#utility.yul\":5138:5142   */\n  dup7\n    /* \"#utility.yul\":5131:5212   */\n  sstore\n    /* \"#utility.yul\":5000:5222   */\n  pop\n    /* \"#utility.yul\":4335:5222   */\n  jump(tag_82)\n    /* \"#utility.yul\":4365:4983   */\ntag_83:\n    /* \"#utility.yul\":4417:4421   */\n  0x1f\n    /* \"#utility.yul\":4413:4422   */\n  not\n    /* \"#utility.yul\":4405:4411   */\n  dup5\n    /* \"#utility.yul\":4401:4423   */\n  and\n    /* \"#utility.yul\":4451:4488   */\n  tag_86\n    /* \"#utility.yul\":4483:4487   */\n  dup7\n    /* \"#utility.yul\":4451:4488   */\n  tag_14\n  jump\t// in\ntag_86:\n    /* \"#utility.yul\":4510:4511   */\n  0x00\n    /* \"#utility.yul\":4524:4732   */\ntag_87:\n    /* \"#utility.yul\":4538:4545   */\n  dup3\n    /* \"#utility.yul\":4535:4536   */\n  dup2\n    /* \"#utility.yul\":4532:4546   */\n  lt\n    /* \"#utility.yul\":4524:4732   */\n  iszero\n  tag_89\n  jumpi\n    /* \"#utility.yul\":4617:4626   */\n  dup5\n    /* \"#utility.yul\":4612:4615   */\n  dup10\n    /* \"#utility.yul\":4608:4627   */\n  add\n    /* \"#utility.yul\":4602:4628   */\n  mload\n    /* \"#utility.yul\":4594:4600   */\n  dup3\n    /* \"#utility.yul\":4587:4629   */\n  sstore\n    /* \"#utility.yul\":4668:4669   */\n  0x01\n    /* \"#utility.yul\":4660:4666   */\n  dup3\n    /* \"#utility.yul\":4656:4670   */\n  add\n    /* \"#utility.yul\":4646:4670   */\n  swap2\n  pop\n    /* \"#utility.yul\":4715:4717   */\n  0x20\n    /* \"#utility.yul\":4704:4713   */\n  dup6\n    /* \"#utility.yul\":4700:4718   */\n  add\n    /* \"#utility.yul\":4687:4718   */\n  swap5\n  pop\n    /* \"#utility.yul\":4561:4565   */\n  0x20\n    /* \"#utility.yul\":4558:4559   */\n  dup2\n    /* \"#utility.yul\":4554:4566   */\n  add\n    /* \"#utility.yul\":4549:4566   */\n  swap1\n  pop\n    /* \"#utility.yul\":4524:4732   */\n  jump(tag_87)\ntag_89:\n    /* \"#utility.yul\":4760:4766   */\n  dup7\n    /* \"#utility.yul\":4751:4758   */\n  dup4\n    /* \"#utility.yul\":4748:4767   */\n  lt\n    /* \"#utility.yul\":4745:4924   */\n  iszero\n  tag_90\n  jumpi\n    /* \"#utility.yul\":4818:4827   */\n  dup5\n    /* \"#utility.yul\":4813:4816   */\n  dup10\n    /* \"#utility.yul\":4809:4828   */\n  add\n    /* \"#utility.yul\":4803:4829   */\n  mload\n    /* \"#utility.yul\":4861:4909   */\n  tag_91\n    /* \"#utility.yul\":4903:4907   */\n  0x1f\n    /* \"#utility.yul\":4895:4901   */\n  dup10\n    /* \"#utility.yul\":4891:4908   */\n  and\n    /* \"#utility.yul\":4880:4889   */\n  dup3\n    /* \"#utility.yul\":4861:4909   */\n  tag_28\n  jump\t// in\ntag_91:\n    /* \"#utility.yul\":4853:4859   */\n  dup4\n    /* \"#utility.yul\":4846:4910   */\n  sstore\n    /* \"#utility.yul\":4768:4924   */\n  pop\n    /* \"#utility.yul\":4745:4924   */\ntag_90:\n    /* \"#utility.yul\":4970:4971   */\n  0x01\n    /* \"#utility.yul\":4966:4967   */\n  0x02\n    /* \"#utility.yul\":4958:4964   */\n  dup9\n    /* \"#utility.yul\":4954:4968   */\n  mul\n    /* \"#utility.yul\":4950:4972   */\n  add\n    /* \"#utility.yul\":4944:4948   */\n  dup9\n    /* \"#utility.yul\":4937:4973   */\n  sstore\n    /* \"#utility.yul\":4372:4983   */\n  pop\n  pop\n  pop\n    /* \"#utility.yul\":4335:5222   */\ntag_82:\n  pop\n    /* \"#utility.yul\":3925:5228   */\n  pop\n  pop\n  pop\n    /* \"#utility.yul\":3833:5228   */\n  pop\n  pop\n  jump\t// out\n    /* \"contracts/Gem.sol\":82:2016  contract Gem is ERC20(\"BEAST GEM\", \"BGM\") {... */\ntag_9:\n  dataSize(sub_0)\n  dup1\n  dataOffset(sub_0)\n  0x00\n  codecopy\n  0x00\n  return\nstop\n\nsub_0: assembly {\n        /* \"contracts/Gem.sol\":82:2016  contract Gem is ERC20(\"BEAST GEM\", \"BGM\") {... */\n      mstore(0x40, 0x80)\n      jumpi(tag_1, lt(calldatasize, 0x04))\n      shr(0xe0, calldataload(0x00))\n      dup1\n      0x4e6ec247\n      gt\n      tag_16\n      jumpi\n      dup1\n      0x95d89b41\n      gt\n      tag_17\n      jumpi\n      dup1\n      0x95d89b41\n      eq\n      tag_12\n      jumpi\n      dup1\n      0xa457c2d7\n      eq\n      tag_13\n      jumpi\n      dup1\n      0xa9059cbb\n      eq\n      tag_14\n      jumpi\n      dup1\n      0xdd62ed3e\n      eq\n      tag_15\n      jumpi\n      jump(tag_1)\n    tag_17:\n      dup1\n      0x4e6ec247\n      eq\n      tag_9\n      jumpi\n      dup1\n      0x59296e7b\n      eq\n      tag_10\n      jumpi\n      dup1\n      0x70a08231\n      eq\n      tag_11\n      jumpi\n      jump(tag_1)\n    tag_16:\n      dup1\n      0x23b872dd\n      gt\n      tag_18\n      jumpi\n      dup1\n      0x23b872dd\n      eq\n      tag_5\n      jumpi\n      dup1\n      0x313ce567\n      eq\n      tag_6\n      jumpi\n      dup1\n      0x39509351\n      eq\n      tag_7\n      jumpi\n      dup1\n      0x40c10f19\n      eq\n      tag_8\n      jumpi\n      jump(tag_1)\n    tag_18:\n      dup1\n      0x06fdde03\n      eq\n      tag_2\n      jumpi\n      dup1\n      0x095ea7b3\n      eq\n      tag_3\n      jumpi\n      dup1\n      0x18160ddd\n      eq\n      tag_4\n      jumpi\n    tag_1:\n      0x00\n      dup1\n      revert\n        /* \"contracts/ERC20.sol\":2154:2252  function name() public view virtual override returns (string memory) {... */\n    tag_2:\n      callvalue\n      dup1\n      iszero\n      tag_19\n      jumpi\n      0x00\n      dup1\n      revert\n    tag_19:\n      pop\n      tag_20\n      tag_21\n      jump\t// in\n    tag_20:\n      mload(0x40)\n      tag_22\n      swap2\n      swap1\n      tag_23\n      jump\t// in\n    tag_22:\n      mload(0x40)\n      dup1\n      swap2\n      sub\n      swap1\n      return\n        /* \"contracts/ERC20.sol\":4440:4637  function approve(address spender, uint256 amount) public virtual override returns (bool) {... */\n    tag_3:\n      callvalue\n      dup1\n      iszero\n      tag_24\n      jumpi\n      0x00\n      dup1\n      revert\n    tag_24:\n      pop\n      tag_25\n      0x04\n      dup1\n      calldatasize\n      sub\n      dup2\n      add\n      swap1\n      tag_26\n      swap2\n      swap1\n      tag_27\n      jump\t// in\n    tag_26:\n      tag_28\n      jump\t// in\n    tag_25:\n      mload(0x40)\n      tag_29\n      swap2\n      swap1\n      tag_30\n      jump\t// in\n    tag_29:\n      mload(0x40)\n      dup1\n      swap2\n      sub\n      swap1\n      return\n        /* \"contracts/ERC20.sol\":3251:3357  function totalSupply() public view virtual override returns (uint256) {... */\n    tag_4:\n      callvalue\n      dup1\n      iszero\n      tag_31\n      jumpi\n      0x00\n      dup1\n      revert\n    tag_31:\n      pop\n      tag_32\n      tag_33\n      jump\t// in\n    tag_32:\n      mload(0x40)\n      tag_34\n      swap2\n      swap1\n      tag_35\n      jump\t// in\n    tag_34:\n      mload(0x40)\n      dup1\n      swap2\n      sub\n      swap1\n      return\n        /* \"contracts/ERC20.sol\":5199:5455  function transferFrom(address from, address to, uint256 amount) public virtual override returns (bool) {... */\n    tag_5:\n      callvalue\n      dup1\n      iszero\n      tag_36\n      jumpi\n      0x00\n      dup1\n      revert\n    tag_36:\n      pop\n      tag_37\n      0x04\n      dup1\n      calldatasize\n      sub\n      dup2\n      add\n      swap1\n      tag_38\n      swap2\n      swap1\n      tag_39\n      jump\t// in\n    tag_38:\n      tag_40\n      jump\t// in\n    tag_37:\n      mload(0x40)\n      tag_41\n      swap2\n      swap1\n      tag_30\n      jump\t// in\n    tag_41:\n      mload(0x40)\n      dup1\n      swap2\n      sub\n      swap1\n      return\n        /* \"contracts/ERC20.sol\":3100:3191  function decimals() public view virtual override returns (uint8) {... */\n    tag_6:\n      callvalue\n      dup1\n      iszero\n      tag_42\n      jumpi\n      0x00\n      dup1\n      revert\n    tag_42:\n      pop\n      tag_43\n      tag_44\n      jump\t// in\n    tag_43:\n      mload(0x40)\n      tag_45\n      swap2\n      swap1\n      tag_46\n      jump\t// in\n    tag_45:\n      mload(0x40)\n      dup1\n      swap2\n      sub\n      swap1\n      return\n        /* \"contracts/ERC20.sol\":5850:6084  function increaseAllowance(address spender, uint256 addedValue) public virtual returns (bool) {... */\n    tag_7:\n      callvalue\n      dup1\n      iszero\n      tag_47\n      jumpi\n      0x00\n      dup1\n      revert\n    tag_47:\n      pop\n      tag_48\n      0x04\n      dup1\n      calldatasize\n      sub\n      dup2\n      add\n      swap1\n      tag_49\n      swap2\n      swap1\n      tag_27\n      jump\t// in\n    tag_49:\n      tag_50\n      jump\t// in\n    tag_48:\n      mload(0x40)\n      tag_51\n      swap2\n      swap1\n      tag_30\n      jump\t// in\n    tag_51:\n      mload(0x40)\n      dup1\n      swap2\n      sub\n      swap1\n      return\n        /* \"contracts/ERC20.sol\":7004:7097  function mint(address account, uint256 amount) public {... */\n    tag_8:\n      callvalue\n      dup1\n      iszero\n      tag_52\n      jumpi\n      0x00\n      dup1\n      revert\n    tag_52:\n      pop\n      tag_53\n      0x04\n      dup1\n      calldatasize\n      sub\n      dup2\n      add\n      swap1\n      tag_54\n      swap2\n      swap1\n      tag_27\n      jump\t// in\n    tag_54:\n      tag_55\n      jump\t// in\n    tag_53:\n      stop\n        /* \"contracts/ERC20.sol\":8615:9148  function _mint(address account, uint256 amount) public virtual {... */\n    tag_9:\n      callvalue\n      dup1\n      iszero\n      tag_56\n      jumpi\n      0x00\n      dup1\n      revert\n    tag_56:\n      pop\n      tag_57\n      0x04\n      dup1\n      calldatasize\n      sub\n      dup2\n      add\n      swap1\n      tag_58\n      swap2\n      swap1\n      tag_27\n      jump\t// in\n    tag_58:\n      tag_59\n      jump\t// in\n    tag_57:\n      stop\n        /* \"contracts/Gem.sol\":402:671  function getCredit() public payable {... */\n    tag_10:\n      tag_60\n      tag_61\n      jump\t// in\n    tag_60:\n      stop\n        /* \"contracts/ERC20.sol\":3415:3540  function balanceOf(address account) public view virtual override returns (uint256) {... */\n    tag_11:\n      callvalue\n      dup1\n      iszero\n      tag_62\n      jumpi\n      0x00\n      dup1\n      revert\n    tag_62:\n      pop\n      tag_63\n      0x04\n      dup1\n      calldatasize\n      sub\n      dup2\n      add\n      swap1\n      tag_64\n      swap2\n      swap1\n      tag_65\n      jump\t// in\n    tag_64:\n      tag_66\n      jump\t// in\n    tag_63:\n      mload(0x40)\n      tag_67\n      swap2\n      swap1\n      tag_35\n      jump\t// in\n    tag_67:\n      mload(0x40)\n      dup1\n      swap2\n      sub\n      swap1\n      return\n        /* \"contracts/ERC20.sol\":2365:2467  function symbol() public view virtual override returns (string memory) {... */\n    tag_12:\n      callvalue\n      dup1\n      iszero\n      tag_68\n      jumpi\n      0x00\n      dup1\n      revert\n    tag_68:\n      pop\n      tag_69\n      tag_70\n      jump\t// in\n    tag_69:\n      mload(0x40)\n      tag_71\n      swap2\n      swap1\n      tag_23\n      jump\t// in\n    tag_71:\n      mload(0x40)\n      dup1\n      swap2\n      sub\n      swap1\n      return\n        /* \"contracts/ERC20.sol\":6571:6998  function decreaseAllowance(address spender, uint256 subtractedValue) public virtual returns (bool) {... */\n    tag_13:\n      callvalue\n      dup1\n      iszero\n      tag_72\n      jumpi\n      0x00\n      dup1\n      revert\n    tag_72:\n      pop\n      tag_73\n      0x04\n      dup1\n      calldatasize\n      sub\n      dup2\n      add\n      swap1\n      tag_74\n      swap2\n      swap1\n      tag_27\n      jump\t// in\n    tag_74:\n      tag_75\n      jump\t// in\n    tag_73:\n      mload(0x40)\n      tag_76\n      swap2\n      swap1\n      tag_30\n      jump\t// in\n    tag_76:\n      mload(0x40)\n      dup1\n      swap2\n      sub\n      swap1\n      return\n        /* \"contracts/ERC20.sol\":3736:3925  function transfer(address to, uint256 amount) public virtual override returns (bool) {... */\n    tag_14:\n      callvalue\n      dup1\n      iszero\n      tag_77\n      jumpi\n      0x00\n      dup1\n      revert\n    tag_77:\n      pop\n      tag_78\n      0x04\n      dup1\n      calldatasize\n      sub\n      dup2\n      add\n      swap1\n      tag_79\n      swap2\n      swap1\n      tag_27\n      jump\t// in\n    tag_79:\n      tag_80\n      jump\t// in\n    tag_78:\n      mload(0x40)\n      tag_81\n      swap2\n      swap1\n      tag_30\n      jump\t// in\n    tag_81:\n      mload(0x40)\n      dup1\n      swap2\n      sub\n      swap1\n      return\n        /* \"contracts/ERC20.sol\":3983:4132  function allowance(address owner, address spender) public view virtual override returns (uint256) {... */\n    tag_15:\n      callvalue\n      dup1\n      iszero\n      tag_82\n      jumpi\n      0x00\n      dup1\n      revert\n    tag_82:\n      pop\n      tag_83\n      0x04\n      dup1\n      calldatasize\n      sub\n      dup2\n      add\n      swap1\n      tag_84\n      swap2\n      swap1\n      tag_85\n      jump\t// in\n    tag_84:\n      tag_86\n      jump\t// in\n    tag_83:\n      mload(0x40)\n      tag_87\n      swap2\n      swap1\n      tag_35\n      jump\t// in\n    tag_87:\n      mload(0x40)\n      dup1\n      swap2\n      sub\n      swap1\n      return\n        /* \"contracts/ERC20.sol\":2154:2252  function name() public view virtual override returns (string memory) {... */\n    tag_21:\n        /* \"contracts/ERC20.sol\":2208:2221  string memory */\n      0x60\n        /* \"contracts/ERC20.sol\":2240:2245  _name */\n      0x03\n        /* \"contracts/ERC20.sol\":2233:2245  return _name */\n      dup1\n      sload\n      tag_89\n      swap1\n      tag_90\n      jump\t// in\n    tag_89:\n      dup1\n      0x1f\n      add\n      0x20\n      dup1\n      swap2\n      div\n      mul\n      0x20\n      add\n      mload(0x40)\n      swap1\n      dup2\n      add\n      0x40\n      mstore\n      dup1\n      swap3\n      swap2\n      swap1\n      dup2\n      dup2\n      mstore\n      0x20\n      add\n      dup3\n      dup1\n      sload\n      tag_91\n      swap1\n      tag_90\n      jump\t// in\n    tag_91:\n      dup1\n      iszero\n      tag_92\n      jumpi\n      dup1\n      0x1f\n      lt\n      tag_93\n      jumpi\n      0x0100\n      dup1\n      dup4\n      sload\n      div\n      mul\n      dup4\n      mstore\n      swap2\n      0x20\n      add\n      swap2\n      jump(tag_92)\n    tag_93:\n      dup3\n      add\n      swap2\n      swap1\n      0x00\n      mstore\n      keccak256(0x00, 0x20)\n      swap1\n    tag_94:\n      dup2\n      sload\n      dup2\n      mstore\n      swap1\n      0x01\n      add\n      swap1\n      0x20\n      add\n      dup1\n      dup4\n      gt\n      tag_94\n      jumpi\n      dup3\n      swap1\n      sub\n      0x1f\n      and\n      dup3\n      add\n      swap2\n    tag_92:\n      pop\n      pop\n      pop\n      pop\n      pop\n      swap1\n      pop\n        /* \"contracts/ERC20.sol\":2154:2252  function name() public view virtual override returns (string memory) {... */\n      swap1\n      jump\t// out\n        /* \"contracts/ERC20.sol\":4440:4637  function approve(address spender, uint256 amount) public virtual override returns (bool) {... */\n    tag_28:\n        /* \"contracts/ERC20.sol\":4523:4527  bool */\n      0x00\n        /* \"contracts/ERC20.sol\":4539:4552  address owner */\n      dup1\n        /* \"contracts/ERC20.sol\":4555:4567  _msgSender() */\n      tag_96\n        /* \"contracts/ERC20.sol\":4555:4565  _msgSender */\n      tag_97\n        /* \"contracts/ERC20.sol\":4555:4567  _msgSender() */\n      jump\t// in\n    tag_96:\n        /* \"contracts/ERC20.sol\":4539:4567  address owner = _msgSender() */\n      swap1\n      pop\n        /* \"contracts/ERC20.sol\":4577:4609  _approve(owner, spender, amount) */\n      tag_98\n        /* \"contracts/ERC20.sol\":4586:4591  owner */\n      dup2\n        /* \"contracts/ERC20.sol\":4593:4600  spender */\n      dup6\n        /* \"contracts/ERC20.sol\":4602:4608  amount */\n      dup6\n        /* \"contracts/ERC20.sol\":4577:4585  _approve */\n      tag_99\n        /* \"contracts/ERC20.sol\":4577:4609  _approve(owner, spender, amount) */\n      jump\t// in\n    tag_98:\n        /* \"contracts/ERC20.sol\":4626:4630  true */\n      0x01\n        /* \"contracts/ERC20.sol\":4619:4630  return true */\n      swap2\n      pop\n      pop\n        /* \"contracts/ERC20.sol\":4440:4637  function approve(address spender, uint256 amount) public virtual override returns (bool) {... */\n      swap3\n      swap2\n      pop\n      pop\n      jump\t// out\n        /* \"contracts/ERC20.sol\":3251:3357  function totalSupply() public view virtual override returns (uint256) {... */\n    tag_33:\n        /* \"contracts/ERC20.sol\":3312:3319  uint256 */\n      0x00\n        /* \"contracts/ERC20.sol\":3338:3350  _totalSupply */\n      sload(0x02)\n        /* \"contracts/ERC20.sol\":3331:3350  return _totalSupply */\n      swap1\n      pop\n        /* \"contracts/ERC20.sol\":3251:3357  function totalSupply() public view virtual override returns (uint256) {... */\n      swap1\n      jump\t// out\n        /* \"contracts/ERC20.sol\":5199:5455  function transferFrom(address from, address to, uint256 amount) public virtual override returns (bool) {... */\n    tag_40:\n        /* \"contracts/ERC20.sol\":5296:5300  bool */\n      0x00\n        /* \"contracts/ERC20.sol\":5312:5327  address spender */\n      dup1\n        /* \"contracts/ERC20.sol\":5330:5342  _msgSender() */\n      tag_102\n        /* \"contracts/ERC20.sol\":5330:5340  _msgSender */\n      tag_97\n        /* \"contracts/ERC20.sol\":5330:5342  _msgSender() */\n      jump\t// in\n    tag_102:\n        /* \"contracts/ERC20.sol\":5312:5342  address spender = _msgSender() */\n      swap1\n      pop\n        /* \"contracts/ERC20.sol\":5352:5390  _spendAllowance(from, spender, amount) */\n      tag_103\n        /* \"contracts/ERC20.sol\":5368:5372  from */\n      dup6\n        /* \"contracts/ERC20.sol\":5374:5381  spender */\n      dup3\n        /* \"contracts/ERC20.sol\":5383:5389  amount */\n      dup6\n        /* \"contracts/ERC20.sol\":5352:5367  _spendAllowance */\n      tag_104\n        /* \"contracts/ERC20.sol\":5352:5390  _spendAllowance(from, spender, amount) */\n      jump\t// in\n    tag_103:\n        /* \"contracts/ERC20.sol\":5400:5427  _transfer(from, to, amount) */\n      tag_105\n        /* \"contracts/ERC20.sol\":5410:5414  from */\n      dup6\n        /* \"contracts/ERC20.sol\":5416:5418  to */\n      dup6\n        /* \"contracts/ERC20.sol\":5420:5426  amount */\n      dup6\n        /* \"contracts/ERC20.sol\":5400:5409  _transfer */\n      tag_106\n        /* \"contracts/ERC20.sol\":5400:5427  _transfer(from, to, amount) */\n      jump\t// in\n    tag_105:\n        /* \"contracts/ERC20.sol\":5444:5448  true */\n      0x01\n        /* \"contracts/ERC20.sol\":5437:5448  return true */\n      swap2\n      pop\n      pop\n        /* \"contracts/ERC20.sol\":5199:5455  function transferFrom(address from, address to, uint256 amount) public virtual override returns (bool) {... */\n      swap4\n      swap3\n      pop\n      pop\n      pop\n      jump\t// out\n        /* \"contracts/ERC20.sol\":3100:3191  function decimals() public view virtual override returns (uint8) {... */\n    tag_44:\n        /* \"contracts/ERC20.sol\":3158:3163  uint8 */\n      0x00\n        /* \"contracts/ERC20.sol\":3182:3184  18 */\n      0x12\n        /* \"contracts/ERC20.sol\":3175:3184  return 18 */\n      swap1\n      pop\n        /* \"contracts/ERC20.sol\":3100:3191  function decimals() public view virtual override returns (uint8) {... */\n      swap1\n      jump\t// out\n        /* \"contracts/ERC20.sol\":5850:6084  function increaseAllowance(address spender, uint256 addedValue) public virtual returns (bool) {... */\n    tag_50:\n        /* \"contracts/ERC20.sol\":5938:5942  bool */\n      0x00\n        /* \"contracts/ERC20.sol\":5954:5967  address owner */\n      dup1\n        /* \"contracts/ERC20.sol\":5970:5982  _msgSender() */\n      tag_109\n        /* \"contracts/ERC20.sol\":5970:5980  _msgSender */\n      tag_97\n        /* \"contracts/ERC20.sol\":5970:5982  _msgSender() */\n      jump\t// in\n    tag_109:\n        /* \"contracts/ERC20.sol\":5954:5982  address owner = _msgSender() */\n      swap1\n      pop\n        /* \"contracts/ERC20.sol\":5992:6056  _approve(owner, spender, allowance(owner, spender) + addedValue) */\n      tag_110\n        /* \"contracts/ERC20.sol\":6001:6006  owner */\n      dup2\n        /* \"contracts/ERC20.sol\":6008:6015  spender */\n      dup6\n        /* \"contracts/ERC20.sol\":6045:6055  addedValue */\n      dup6\n        /* \"contracts/ERC20.sol\":6017:6042  allowance(owner, spender) */\n      tag_111\n        /* \"contracts/ERC20.sol\":6027:6032  owner */\n      dup6\n        /* \"contracts/ERC20.sol\":6034:6041  spender */\n      dup10\n        /* \"contracts/ERC20.sol\":6017:6026  allowance */\n      tag_86\n        /* \"contracts/ERC20.sol\":6017:6042  allowance(owner, spender) */\n      jump\t// in\n    tag_111:\n        /* \"contracts/ERC20.sol\":6017:6055  allowance(owner, spender) + addedValue */\n      tag_112\n      swap2\n      swap1\n      tag_113\n      jump\t// in\n    tag_112:\n        /* \"contracts/ERC20.sol\":5992:6000  _approve */\n      tag_99\n        /* \"contracts/ERC20.sol\":5992:6056  _approve(owner, spender, allowance(owner, spender) + addedValue) */\n      jump\t// in\n    tag_110:\n        /* \"contracts/ERC20.sol\":6073:6077  true */\n      0x01\n        /* \"contracts/ERC20.sol\":6066:6077  return true */\n      swap2\n      pop\n      pop\n        /* \"contracts/ERC20.sol\":5850:6084  function increaseAllowance(address spender, uint256 addedValue) public virtual returns (bool) {... */\n      swap3\n      swap2\n      pop\n      pop\n      jump\t// out\n        /* \"contracts/ERC20.sol\":7004:7097  function mint(address account, uint256 amount) public {... */\n    tag_55:\n        /* \"contracts/ERC20.sol\":7068:7090  _mint(account, amount) */\n      tag_115\n        /* \"contracts/ERC20.sol\":7074:7081  account */\n      dup3\n        /* \"contracts/ERC20.sol\":7083:7089  amount */\n      dup3\n        /* \"contracts/ERC20.sol\":7068:7073  _mint */\n      tag_59\n        /* \"contracts/ERC20.sol\":7068:7090  _mint(account, amount) */\n      jump\t// in\n    tag_115:\n        /* \"contracts/ERC20.sol\":7004:7097  function mint(address account, uint256 amount) public {... */\n      pop\n      pop\n      jump\t// out\n        /* \"contracts/ERC20.sol\":8615:9148  function _mint(address account, uint256 amount) public virtual {... */\n    tag_59:\n        /* \"contracts/ERC20.sol\":8715:8716  0 */\n      0x00\n        /* \"contracts/ERC20.sol\":8696:8717  account != address(0) */\n      0xffffffffffffffffffffffffffffffffffffffff\n      and\n        /* \"contracts/ERC20.sol\":8696:8703  account */\n      dup3\n        /* \"contracts/ERC20.sol\":8696:8717  account != address(0) */\n      0xffffffffffffffffffffffffffffffffffffffff\n      and\n      sub\n        /* \"contracts/ERC20.sol\":8688:8753  require(account != address(0), \"ERC20: mint to the zero address\") */\n      tag_117\n      jumpi\n      mload(0x40)\n      0x08c379a000000000000000000000000000000000000000000000000000000000\n      dup2\n      mstore\n      0x04\n      add\n      tag_118\n      swap1\n      tag_119\n      jump\t// in\n    tag_118:\n      mload(0x40)\n      dup1\n      swap2\n      sub\n      swap1\n      revert\n    tag_117:\n        /* \"contracts/ERC20.sol\":8764:8813  _beforeTokenTransfer(address(0), account, amount) */\n      tag_120\n        /* \"contracts/ERC20.sol\":8793:8794  0 */\n      0x00\n        /* \"contracts/ERC20.sol\":8797:8804  account */\n      dup4\n        /* \"contracts/ERC20.sol\":8806:8812  amount */\n      dup4\n        /* \"contracts/ERC20.sol\":8764:8784  _beforeTokenTransfer */\n      tag_121\n        /* \"contracts/ERC20.sol\":8764:8813  _beforeTokenTransfer(address(0), account, amount) */\n      jump\t// in\n    tag_120:\n        /* \"contracts/ERC20.sol\":8840:8846  amount */\n      dup1\n        /* \"contracts/ERC20.sol\":8824:8836  _totalSupply */\n      0x02\n      0x00\n        /* \"contracts/ERC20.sol\":8824:8846  _totalSupply += amount */\n      dup3\n      dup3\n      sload\n      tag_122\n      swap2\n      swap1\n      tag_113\n      jump\t// in\n    tag_122:\n      swap3\n      pop\n      pop\n      dup2\n      swap1\n      sstore\n      pop\n        /* \"contracts/ERC20.sol\":9014:9020  amount */\n      dup1\n        /* \"contracts/ERC20.sol\":8992:9001  _balances */\n      0x00\n        /* \"contracts/ERC20.sol\":8992:9010  _balances[account] */\n      dup1\n        /* \"contracts/ERC20.sol\":9002:9009  account */\n      dup5\n        /* \"contracts/ERC20.sol\":8992:9010  _balances[account] */\n      0xffffffffffffffffffffffffffffffffffffffff\n      and\n      0xffffffffffffffffffffffffffffffffffffffff\n      and\n      dup2\n      mstore\n      0x20\n      add\n      swap1\n      dup2\n      mstore\n      0x20\n      add\n      0x00\n      keccak256\n      0x00\n        /* \"contracts/ERC20.sol\":8992:9020  _balances[account] += amount */\n      dup3\n      dup3\n      sload\n      add\n      swap3\n      pop\n      pop\n      dup2\n      swap1\n      sstore\n      pop\n        /* \"contracts/ERC20.sol\":9066:9073  account */\n      dup2\n        /* \"contracts/ERC20.sol\":9045:9082  Transfer(address(0), account, amount) */\n      0xffffffffffffffffffffffffffffffffffffffff\n      and\n        /* \"contracts/ERC20.sol\":9062:9063  0 */\n      0x00\n        /* \"contracts/ERC20.sol\":9045:9082  Transfer(address(0), account, amount) */\n      0xffffffffffffffffffffffffffffffffffffffff\n      and\n      0xddf252ad1be2c89b69c2b068fc378daa952ba7f163c4a11628f55a4df523b3ef\n        /* \"contracts/ERC20.sol\":9075:9081  amount */\n      dup4\n        /* \"contracts/ERC20.sol\":9045:9082  Transfer(address(0), account, amount) */\n      mload(0x40)\n      tag_123\n      swap2\n      swap1\n      tag_35\n      jump\t// in\n    tag_123:\n      mload(0x40)\n      dup1\n      swap2\n      sub\n      swap1\n      log3\n        /* \"contracts/ERC20.sol\":9093:9141  _afterTokenTransfer(address(0), account, amount) */\n      tag_124\n        /* \"contracts/ERC20.sol\":9121:9122  0 */\n      0x00\n        /* \"contracts/ERC20.sol\":9125:9132  account */\n      dup4\n        /* \"contracts/ERC20.sol\":9134:9140  amount */\n      dup4\n        /* \"contracts/ERC20.sol\":9093:9112  _afterTokenTransfer */\n      tag_125\n        /* \"contracts/ERC20.sol\":9093:9141  _afterTokenTransfer(address(0), account, amount) */\n      jump\t// in\n    tag_124:\n        /* \"contracts/ERC20.sol\":8615:9148  function _mint(address account, uint256 amount) public virtual {... */\n      pop\n      pop\n      jump\t// out\n        /* \"contracts/Gem.sol\":402:671  function getCredit() public payable {... */\n    tag_61:\n        /* \"contracts/Gem.sol\":448:459  uint256 amt */\n      0x00\n        /* \"contracts/Gem.sol\":474:490  1000000000000000 */\n      0x038d7ea4c68000\n        /* \"contracts/Gem.sol\":462:471  msg.value */\n      callvalue\n        /* \"contracts/Gem.sol\":462:490  msg.value / 1000000000000000 */\n      tag_127\n      swap2\n      swap1\n      tag_128\n      jump\t// in\n    tag_127:\n        /* \"contracts/Gem.sol\":448:490  uint256 amt = msg.value / 1000000000000000 */\n      swap1\n      pop\n        /* \"contracts/Gem.sol\":536:547  supplyLimit */\n      sload(0x05)\n        /* \"contracts/Gem.sol\":530:533  amt */\n      dup2\n        /* \"contracts/Gem.sol\":514:527  totalSupply() */\n      tag_129\n        /* \"contracts/Gem.sol\":514:525  totalSupply */\n      tag_33\n        /* \"contracts/Gem.sol\":514:527  totalSupply() */\n      jump\t// in\n    tag_129:\n        /* \"contracts/Gem.sol\":514:533  totalSupply() + amt */\n      tag_130\n      swap2\n      swap1\n      tag_113\n      jump\t// in\n    tag_130:\n        /* \"contracts/Gem.sol\":514:547  totalSupply() + amt < supplyLimit */\n      lt\n        /* \"contracts/Gem.sol\":506:579  require(totalSupply() + amt < supplyLimit, \"Warning: Insufficient Gems!\") */\n      tag_131\n      jumpi\n      mload(0x40)\n      0x08c379a000000000000000000000000000000000000000000000000000000000\n      dup2\n      mstore\n      0x04\n      add\n      tag_132\n      swap1\n      tag_133\n      jump\t// in\n    tag_132:\n      mload(0x40)\n      dup1\n      swap2\n      sub\n      swap1\n      revert\n    tag_131:\n        /* \"contracts/Gem.sol\":643:664  mint(msg.sender, amt) */\n      tag_134\n        /* \"contracts/Gem.sol\":648:658  msg.sender */\n      caller\n        /* \"contracts/Gem.sol\":660:663  amt */\n      dup3\n        /* \"contracts/Gem.sol\":643:647  mint */\n      tag_55\n        /* \"contracts/Gem.sol\":643:664  mint(msg.sender, amt) */\n      jump\t// in\n    tag_134:\n        /* \"contracts/Gem.sol\":438:671  {... */\n      pop\n        /* \"contracts/Gem.sol\":402:671  function getCredit() public payable {... */\n      jump\t// out\n        /* \"contracts/ERC20.sol\":3415:3540  function balanceOf(address account) public view virtual override returns (uint256) {... */\n    tag_66:\n        /* \"contracts/ERC20.sol\":3489:3496  uint256 */\n      0x00\n        /* \"contracts/ERC20.sol\":3515:3524  _balances */\n      dup1\n        /* \"contracts/ERC20.sol\":3515:3533  _balances[account] */\n      0x00\n        /* \"contracts/ERC20.sol\":3525:3532  account */\n      dup4\n        /* \"contracts/ERC20.sol\":3515:3533  _balances[account] */\n      0xffffffffffffffffffffffffffffffffffffffff\n      and\n      0xffffffffffffffffffffffffffffffffffffffff\n      and\n      dup2\n      mstore\n      0x20\n      add\n      swap1\n      dup2\n      mstore\n      0x20\n      add\n      0x00\n      keccak256\n      sload\n        /* \"contracts/ERC20.sol\":3508:3533  return _balances[account] */\n      swap1\n      pop\n        /* \"contracts/ERC20.sol\":3415:3540  function balanceOf(address account) public view virtual override returns (uint256) {... */\n      swap2\n      swap1\n      pop\n      jump\t// out\n        /* \"contracts/ERC20.sol\":2365:2467  function symbol() public view virtual override returns (string memory) {... */\n    tag_70:\n        /* \"contracts/ERC20.sol\":2421:2434  string memory */\n      0x60\n        /* \"contracts/ERC20.sol\":2453:2460  _symbol */\n      0x04\n        /* \"contracts/ERC20.sol\":2446:2460  return _symbol */\n      dup1\n      sload\n      tag_137\n      swap1\n      tag_90\n      jump\t// in\n    tag_137:\n      dup1\n      0x1f\n      add\n      0x20\n      dup1\n      swap2\n      div\n      mul\n      0x20\n      add\n      mload(0x40)\n      swap1\n      dup2\n      add\n      0x40\n      mstore\n      dup1\n      swap3\n      swap2\n      swap1\n      dup2\n      dup2\n      mstore\n      0x20\n      add\n      dup3\n      dup1\n      sload\n      tag_138\n      swap1\n      tag_90\n      jump\t// in\n    tag_138:\n      dup1\n      iszero\n      tag_139\n      jumpi\n      dup1\n      0x1f\n      lt\n      tag_140\n      jumpi\n      0x0100\n      dup1\n      dup4\n      sload\n      div\n      mul\n      dup4\n      mstore\n      swap2\n      0x20\n      add\n      swap2\n      jump(tag_139)\n    tag_140:\n      dup3\n      add\n      swap2\n      swap1\n      0x00\n      mstore\n      keccak256(0x00, 0x20)\n      swap1\n    tag_141:\n      dup2\n      sload\n      dup2\n      mstore\n      swap1\n      0x01\n      add\n      swap1\n      0x20\n      add\n      dup1\n      dup4\n      gt\n      tag_141\n      jumpi\n      dup3\n      swap1\n      sub\n      0x1f\n      and\n      dup3\n      add\n      swap2\n    tag_139:\n      pop\n      pop\n      pop\n      pop\n      pop\n      swap1\n      pop\n        /* \"contracts/ERC20.sol\":2365:2467  function symbol() public view virtual override returns (string memory) {... */\n      swap1\n      jump\t// out\n        /* \"contracts/ERC20.sol\":6571:6998  function decreaseAllowance(address spender, uint256 subtractedValue) public virtual returns (bool) {... */\n    tag_75:\n        /* \"contracts/ERC20.sol\":6664:6668  bool */\n      0x00\n        /* \"contracts/ERC20.sol\":6680:6693  address owner */\n      dup1\n        /* \"contracts/ERC20.sol\":6696:6708  _msgSender() */\n      tag_143\n        /* \"contracts/ERC20.sol\":6696:6706  _msgSender */\n      tag_97\n        /* \"contracts/ERC20.sol\":6696:6708  _msgSender() */\n      jump\t// in\n    tag_143:\n        /* \"contracts/ERC20.sol\":6680:6708  address owner = _msgSender() */\n      swap1\n      pop\n        /* \"contracts/ERC20.sol\":6718:6742  uint256 currentAllowance */\n      0x00\n        /* \"contracts/ERC20.sol\":6745:6770  allowance(owner, spender) */\n      tag_144\n        /* \"contracts/ERC20.sol\":6755:6760  owner */\n      dup3\n        /* \"contracts/ERC20.sol\":6762:6769  spender */\n      dup7\n        /* \"contracts/ERC20.sol\":6745:6754  allowance */\n      tag_86\n        /* \"contracts/ERC20.sol\":6745:6770  allowance(owner, spender) */\n      jump\t// in\n    tag_144:\n        /* \"contracts/ERC20.sol\":6718:6770  uint256 currentAllowance = allowance(owner, spender) */\n      swap1\n      pop\n        /* \"contracts/ERC20.sol\":6808:6823  subtractedValue */\n      dup4\n        /* \"contracts/ERC20.sol\":6788:6804  currentAllowance */\n      dup2\n        /* \"contracts/ERC20.sol\":6788:6823  currentAllowance >= subtractedValue */\n      lt\n      iszero\n        /* \"contracts/ERC20.sol\":6780:6865  require(currentAllowance >= subtractedValue, \"ERC20: decreased allowance below zero\") */\n      tag_145\n      jumpi\n      mload(0x40)\n      0x08c379a000000000000000000000000000000000000000000000000000000000\n      dup2\n      mstore\n      0x04\n      add\n      tag_146\n      swap1\n      tag_147\n      jump\t// in\n    tag_146:\n      mload(0x40)\n      dup1\n      swap2\n      sub\n      swap1\n      revert\n    tag_145:\n        /* \"contracts/ERC20.sol\":6899:6959  _approve(owner, spender, currentAllowance - subtractedValue) */\n      tag_148\n        /* \"contracts/ERC20.sol\":6908:6913  owner */\n      dup3\n        /* \"contracts/ERC20.sol\":6915:6922  spender */\n      dup7\n        /* \"contracts/ERC20.sol\":6943:6958  subtractedValue */\n      dup7\n        /* \"contracts/ERC20.sol\":6924:6940  currentAllowance */\n      dup5\n        /* \"contracts/ERC20.sol\":6924:6958  currentAllowance - subtractedValue */\n      sub\n        /* \"contracts/ERC20.sol\":6899:6907  _approve */\n      tag_99\n        /* \"contracts/ERC20.sol\":6899:6959  _approve(owner, spender, currentAllowance - subtractedValue) */\n      jump\t// in\n    tag_148:\n        /* \"contracts/ERC20.sol\":6987:6991  true */\n      0x01\n        /* \"contracts/ERC20.sol\":6980:6991  return true */\n      swap3\n      pop\n      pop\n      pop\n        /* \"contracts/ERC20.sol\":6571:6998  function decreaseAllowance(address spender, uint256 subtractedValue) public virtual returns (bool) {... */\n      swap3\n      swap2\n      pop\n      pop\n      jump\t// out\n        /* \"contracts/ERC20.sol\":3736:3925  function transfer(address to, uint256 amount) public virtual override returns (bool) {... */\n    tag_80:\n        /* \"contracts/ERC20.sol\":3815:3819  bool */\n      0x00\n        /* \"contracts/ERC20.sol\":3831:3844  address owner */\n      dup1\n        /* \"contracts/ERC20.sol\":3847:3859  _msgSender() */\n      tag_150\n        /* \"contracts/ERC20.sol\":3847:3857  _msgSender */\n      tag_97\n        /* \"contracts/ERC20.sol\":3847:3859  _msgSender() */\n      jump\t// in\n    tag_150:\n        /* \"contracts/ERC20.sol\":3831:3859  address owner = _msgSender() */\n      swap1\n      pop\n        /* \"contracts/ERC20.sol\":3869:3897  _transfer(owner, to, amount) */\n      tag_151\n        /* \"contracts/ERC20.sol\":3879:3884  owner */\n      dup2\n        /* \"contracts/ERC20.sol\":3886:3888  to */\n      dup6\n        /* \"contracts/ERC20.sol\":3890:3896  amount */\n      dup6\n        /* \"contracts/ERC20.sol\":3869:3878  _transfer */\n      tag_106\n        /* \"contracts/ERC20.sol\":3869:3897  _transfer(owner, to, amount) */\n      jump\t// in\n    tag_151:\n        /* \"contracts/ERC20.sol\":3914:3918  true */\n      0x01\n        /* \"contracts/ERC20.sol\":3907:3918  return true */\n      swap2\n      pop\n      pop\n        /* \"contracts/ERC20.sol\":3736:3925  function transfer(address to, uint256 amount) public virtual override returns (bool) {... */\n      swap3\n      swap2\n      pop\n      pop\n      jump\t// out\n        /* \"contracts/ERC20.sol\":3983:4132  function allowance(address owner, address spender) public view virtual override returns (uint256) {... */\n    tag_86:\n        /* \"contracts/ERC20.sol\":4072:4079  uint256 */\n      0x00\n        /* \"contracts/ERC20.sol\":4098:4109  _allowances */\n      0x01\n        /* \"contracts/ERC20.sol\":4098:4116  _allowances[owner] */\n      0x00\n        /* \"contracts/ERC20.sol\":4110:4115  owner */\n      dup5\n        /* \"contracts/ERC20.sol\":4098:4116  _allowances[owner] */\n      0xffffffffffffffffffffffffffffffffffffffff\n      and\n      0xffffffffffffffffffffffffffffffffffffffff\n      and\n      dup2\n      mstore\n      0x20\n      add\n      swap1\n      dup2\n      mstore\n      0x20\n      add\n      0x00\n      keccak256\n        /* \"contracts/ERC20.sol\":4098:4125  _allowances[owner][spender] */\n      0x00\n        /* \"contracts/ERC20.sol\":4117:4124  spender */\n      dup4\n        /* \"contracts/ERC20.sol\":4098:4125  _allowances[owner][spender] */\n      0xffffffffffffffffffffffffffffffffffffffff\n      and\n      0xffffffffffffffffffffffffffffffffffffffff\n      and\n      dup2\n      mstore\n      0x20\n      add\n      swap1\n      dup2\n      mstore\n      0x20\n      add\n      0x00\n      keccak256\n      sload\n        /* \"contracts/ERC20.sol\":4091:4125  return _allowances[owner][spender] */\n      swap1\n      pop\n        /* \"contracts/ERC20.sol\":3983:4132  function allowance(address owner, address spender) public view virtual override returns (uint256) {... */\n      swap3\n      swap2\n      pop\n      pop\n      jump\t// out\n        /* \"contracts/utils/Context.sol\":640:736  function _msgSender() internal view virtual returns (address) {... */\n    tag_97:\n        /* \"contracts/utils/Context.sol\":693:700  address */\n      0x00\n        /* \"contracts/utils/Context.sol\":719:729  msg.sender */\n      caller\n        /* \"contracts/utils/Context.sol\":712:729  return msg.sender */\n      swap1\n      pop\n        /* \"contracts/utils/Context.sol\":640:736  function _msgSender() internal view virtual returns (address) {... */\n      swap1\n      jump\t// out\n        /* \"contracts/ERC20.sol\":10550:10890  function _approve(address owner, address spender, uint256 amount) internal virtual {... */\n    tag_99:\n        /* \"contracts/ERC20.sol\":10668:10669  0 */\n      0x00\n        /* \"contracts/ERC20.sol\":10651:10670  owner != address(0) */\n      0xffffffffffffffffffffffffffffffffffffffff\n      and\n        /* \"contracts/ERC20.sol\":10651:10656  owner */\n      dup4\n        /* \"contracts/ERC20.sol\":10651:10670  owner != address(0) */\n      0xffffffffffffffffffffffffffffffffffffffff\n      and\n      sub\n        /* \"contracts/ERC20.sol\":10643:10711  require(owner != address(0), \"ERC20: approve from the zero address\") */\n      tag_155\n      jumpi\n      mload(0x40)\n      0x08c379a000000000000000000000000000000000000000000000000000000000\n      dup2\n      mstore\n      0x04\n      add\n      tag_156\n      swap1\n      tag_157\n      jump\t// in\n    tag_156:\n      mload(0x40)\n      dup1\n      swap2\n      sub\n      swap1\n      revert\n    tag_155:\n        /* \"contracts/ERC20.sol\":10748:10749  0 */\n      0x00\n        /* \"contracts/ERC20.sol\":10729:10750  spender != address(0) */\n      0xffffffffffffffffffffffffffffffffffffffff\n      and\n        /* \"contracts/ERC20.sol\":10729:10736  spender */\n      dup3\n        /* \"contracts/ERC20.sol\":10729:10750  spender != address(0) */\n      0xffffffffffffffffffffffffffffffffffffffff\n      and\n      sub\n        /* \"contracts/ERC20.sol\":10721:10789  require(spender != address(0), \"ERC20: approve to the zero address\") */\n      tag_158\n      jumpi\n      mload(0x40)\n      0x08c379a000000000000000000000000000000000000000000000000000000000\n      dup2\n      mstore\n      0x04\n      add\n      tag_159\n      swap1\n      tag_160\n      jump\t// in\n    tag_159:\n      mload(0x40)\n      dup1\n      swap2\n      sub\n      swap1\n      revert\n    tag_158:\n        /* \"contracts/ERC20.sol\":10830:10836  amount */\n      dup1\n        /* \"contracts/ERC20.sol\":10800:10811  _allowances */\n      0x01\n        /* \"contracts/ERC20.sol\":10800:10818  _allowances[owner] */\n      0x00\n        /* \"contracts/ERC20.sol\":10812:10817  owner */\n      dup6\n        /* \"contracts/ERC20.sol\":10800:10818  _allowances[owner] */\n      0xffffffffffffffffffffffffffffffffffffffff\n      and\n      0xffffffffffffffffffffffffffffffffffffffff\n      and\n      dup2\n      mstore\n      0x20\n      add\n      swap1\n      dup2\n      mstore\n      0x20\n      add\n      0x00\n      keccak256\n        /* \"contracts/ERC20.sol\":10800:10827  _allowances[owner][spender] */\n      0x00\n        /* \"contracts/ERC20.sol\":10819:10826  spender */\n      dup5\n        /* \"contracts/ERC20.sol\":10800:10827  _allowances[owner][spender] */\n      0xffffffffffffffffffffffffffffffffffffffff\n      and\n      0xffffffffffffffffffffffffffffffffffffffff\n      and\n      dup2\n      mstore\n      0x20\n      add\n      swap1\n      dup2\n      mstore\n      0x20\n      add\n      0x00\n      keccak256\n        /* \"contracts/ERC20.sol\":10800:10836  _allowances[owner][spender] = amount */\n      dup2\n      swap1\n      sstore\n      pop\n        /* \"contracts/ERC20.sol\":10867:10874  spender */\n      dup2\n        /* \"contracts/ERC20.sol\":10851:10883  Approval(owner, spender, amount) */\n      0xffffffffffffffffffffffffffffffffffffffff\n      and\n        /* \"contracts/ERC20.sol\":10860:10865  owner */\n      dup4\n        /* \"contracts/ERC20.sol\":10851:10883  Approval(owner, spender, amount) */\n      0xffffffffffffffffffffffffffffffffffffffff\n      and\n      0x8c5be1e5ebec7d5bd14f71427d1e84f3dd0314c0f7b2291e5b200ac8c7c3b925\n        /* \"contracts/ERC20.sol\":10876:10882  amount */\n      dup4\n        /* \"contracts/ERC20.sol\":10851:10883  Approval(owner, spender, amount) */\n      mload(0x40)\n      tag_161\n      swap2\n      swap1\n      tag_35\n      jump\t// in\n    tag_161:\n      mload(0x40)\n      dup1\n      swap2\n      sub\n      swap1\n      log3\n        /* \"contracts/ERC20.sol\":10550:10890  function _approve(address owner, address spender, uint256 amount) internal virtual {... */\n      pop\n      pop\n      pop\n      jump\t// out\n        /* \"contracts/ERC20.sol\":11171:11582  function _spendAllowance(address owner, address spender, uint256 amount) internal virtual {... */\n    tag_104:\n        /* \"contracts/ERC20.sol\":11271:11295  uint256 currentAllowance */\n      0x00\n        /* \"contracts/ERC20.sol\":11298:11323  allowance(owner, spender) */\n      tag_163\n        /* \"contracts/ERC20.sol\":11308:11313  owner */\n      dup5\n        /* \"contracts/ERC20.sol\":11315:11322  spender */\n      dup5\n        /* \"contracts/ERC20.sol\":11298:11307  allowance */\n      tag_86\n        /* \"contracts/ERC20.sol\":11298:11323  allowance(owner, spender) */\n      jump\t// in\n    tag_163:\n        /* \"contracts/ERC20.sol\":11271:11323  uint256 currentAllowance = allowance(owner, spender) */\n      swap1\n      pop\n        /* \"contracts/ERC20.sol\":11357:11374  type(uint256).max */\n      0xffffffffffffffffffffffffffffffffffffffffffffffffffffffffffffffff\n        /* \"contracts/ERC20.sol\":11337:11353  currentAllowance */\n      dup2\n        /* \"contracts/ERC20.sol\":11337:11374  currentAllowance != type(uint256).max */\n      eq\n        /* \"contracts/ERC20.sol\":11333:11576  if (currentAllowance != type(uint256).max) {... */\n      tag_164\n      jumpi\n        /* \"contracts/ERC20.sol\":11418:11424  amount */\n      dup2\n        /* \"contracts/ERC20.sol\":11398:11414  currentAllowance */\n      dup2\n        /* \"contracts/ERC20.sol\":11398:11424  currentAllowance >= amount */\n      lt\n      iszero\n        /* \"contracts/ERC20.sol\":11390:11458  require(currentAllowance >= amount, \"ERC20: insufficient allowance\") */\n      tag_165\n      jumpi\n      mload(0x40)\n      0x08c379a000000000000000000000000000000000000000000000000000000000\n      dup2\n      mstore\n      0x04\n      add\n      tag_166\n      swap1\n      tag_167\n      jump\t// in\n    tag_166:\n      mload(0x40)\n      dup1\n      swap2\n      sub\n      swap1\n      revert\n    tag_165:\n        /* \"contracts/ERC20.sol\":11500:11551  _approve(owner, spender, currentAllowance - amount) */\n      tag_168\n        /* \"contracts/ERC20.sol\":11509:11514  owner */\n      dup5\n        /* \"contracts/ERC20.sol\":11516:11523  spender */\n      dup5\n        /* \"contracts/ERC20.sol\":11544:11550  amount */\n      dup5\n        /* \"contracts/ERC20.sol\":11525:11541  currentAllowance */\n      dup5\n        /* \"contracts/ERC20.sol\":11525:11550  currentAllowance - amount */\n      sub\n        /* \"contracts/ERC20.sol\":11500:11508  _approve */\n      tag_99\n        /* \"contracts/ERC20.sol\":11500:11551  _approve(owner, spender, currentAllowance - amount) */\n      jump\t// in\n    tag_168:\n        /* \"contracts/ERC20.sol\":11333:11576  if (currentAllowance != type(uint256).max) {... */\n    tag_164:\n        /* \"contracts/ERC20.sol\":11261:11582  {... */\n      pop\n        /* \"contracts/ERC20.sol\":11171:11582  function _spendAllowance(address owner, address spender, uint256 amount) internal virtual {... */\n      pop\n      pop\n      pop\n      jump\t// out\n        /* \"contracts/ERC20.sol\":7551:8339  function _transfer(address from, address to, uint256 amount) internal virtual {... */\n    tag_106:\n        /* \"contracts/ERC20.sol\":7663:7664  0 */\n      0x00\n        /* \"contracts/ERC20.sol\":7647:7665  from != address(0) */\n      0xffffffffffffffffffffffffffffffffffffffff\n      and\n        /* \"contracts/ERC20.sol\":7647:7651  from */\n      dup4\n        /* \"contracts/ERC20.sol\":7647:7665  from != address(0) */\n      0xffffffffffffffffffffffffffffffffffffffff\n      and\n      sub\n        /* \"contracts/ERC20.sol\":7639:7707  require(from != address(0), \"ERC20: transfer from the zero address\") */\n      tag_170\n      jumpi\n      mload(0x40)\n      0x08c379a000000000000000000000000000000000000000000000000000000000\n      dup2\n      mstore\n      0x04\n      add\n      tag_171\n      swap1\n      tag_172\n      jump\t// in\n    tag_171:\n      mload(0x40)\n      dup1\n      swap2\n      sub\n      swap1\n      revert\n    tag_170:\n        /* \"contracts/ERC20.sol\":7739:7740  0 */\n      0x00\n        /* \"contracts/ERC20.sol\":7725:7741  to != address(0) */\n      0xffffffffffffffffffffffffffffffffffffffff\n      and\n        /* \"contracts/ERC20.sol\":7725:7727  to */\n      dup3\n        /* \"contracts/ERC20.sol\":7725:7741  to != address(0) */\n      0xffffffffffffffffffffffffffffffffffffffff\n      and\n      sub\n        /* \"contracts/ERC20.sol\":7717:7781  require(to != address(0), \"ERC20: transfer to the zero address\") */\n      tag_173\n      jumpi\n      mload(0x40)\n      0x08c379a000000000000000000000000000000000000000000000000000000000\n      dup2\n      mstore\n      0x04\n      add\n      tag_174\n      swap1\n      tag_175\n      jump\t// in\n    tag_174:\n      mload(0x40)\n      dup1\n      swap2\n      sub\n      swap1\n      revert\n    tag_173:\n        /* \"contracts/ERC20.sol\":7792:7830  _beforeTokenTransfer(from, to, amount) */\n      tag_176\n        /* \"contracts/ERC20.sol\":7813:7817  from */\n      dup4\n        /* \"contracts/ERC20.sol\":7819:7821  to */\n      dup4\n        /* \"contracts/ERC20.sol\":7823:7829  amount */\n      dup4\n        /* \"contracts/ERC20.sol\":7792:7812  _beforeTokenTransfer */\n      tag_121\n        /* \"contracts/ERC20.sol\":7792:7830  _beforeTokenTransfer(from, to, amount) */\n      jump\t// in\n    tag_176:\n        /* \"contracts/ERC20.sol\":7841:7860  uint256 fromBalance */\n      0x00\n        /* \"contracts/ERC20.sol\":7863:7872  _balances */\n      dup1\n        /* \"contracts/ERC20.sol\":7863:7878  _balances[from] */\n      0x00\n        /* \"contracts/ERC20.sol\":7873:7877  from */\n      dup6\n        /* \"contracts/ERC20.sol\":7863:7878  _balances[from] */\n      0xffffffffffffffffffffffffffffffffffffffff\n      and\n      0xffffffffffffffffffffffffffffffffffffffff\n      and\n      dup2\n      mstore\n      0x20\n      add\n      swap1\n      dup2\n      mstore\n      0x20\n      add\n      0x00\n      keccak256\n      sload\n        /* \"contracts/ERC20.sol\":7841:7878  uint256 fromBalance = _balances[from] */\n      swap1\n      pop\n        /* \"contracts/ERC20.sol\":7911:7917  amount */\n      dup2\n        /* \"contracts/ERC20.sol\":7896:7907  fromBalance */\n      dup2\n        /* \"contracts/ERC20.sol\":7896:7917  fromBalance >= amount */\n      lt\n      iszero\n        /* \"contracts/ERC20.sol\":7888:7960  require(fromBalance >= amount, \"ERC20: transfer amount exceeds balance\") */\n      tag_177\n      jumpi\n      mload(0x40)\n      0x08c379a000000000000000000000000000000000000000000000000000000000\n      dup2\n      mstore\n      0x04\n      add\n      tag_178\n      swap1\n      tag_179\n      jump\t// in\n    tag_178:\n      mload(0x40)\n      dup1\n      swap2\n      sub\n      swap1\n      revert\n    tag_177:\n        /* \"contracts/ERC20.sol\":8026:8032  amount */\n      dup2\n        /* \"contracts/ERC20.sol\":8012:8023  fromBalance */\n      dup2\n        /* \"contracts/ERC20.sol\":8012:8032  fromBalance - amount */\n      sub\n        /* \"contracts/ERC20.sol\":7994:8003  _balances */\n      0x00\n        /* \"contracts/ERC20.sol\":7994:8009  _balances[from] */\n      dup1\n        /* \"contracts/ERC20.sol\":8004:8008  from */\n      dup7\n        /* \"contracts/ERC20.sol\":7994:8009  _balances[from] */\n      0xffffffffffffffffffffffffffffffffffffffff\n      and\n      0xffffffffffffffffffffffffffffffffffffffff\n      and\n      dup2\n      mstore\n      0x20\n      add\n      swap1\n      dup2\n      mstore\n      0x20\n      add\n      0x00\n      keccak256\n        /* \"contracts/ERC20.sol\":7994:8032  _balances[from] = fromBalance - amount */\n      dup2\n      swap1\n      sstore\n      pop\n        /* \"contracts/ERC20.sol\":8226:8232  amount */\n      dup2\n        /* \"contracts/ERC20.sol\":8209:8218  _balances */\n      0x00\n        /* \"contracts/ERC20.sol\":8209:8222  _balances[to] */\n      dup1\n        /* \"contracts/ERC20.sol\":8219:8221  to */\n      dup6\n        /* \"contracts/ERC20.sol\":8209:8222  _balances[to] */\n      0xffffffffffffffffffffffffffffffffffffffff\n      and\n      0xffffffffffffffffffffffffffffffffffffffff\n      and\n      dup2\n      mstore\n      0x20\n      add\n      swap1\n      dup2\n      mstore\n      0x20\n      add\n      0x00\n      keccak256\n      0x00\n        /* \"contracts/ERC20.sol\":8209:8232  _balances[to] += amount */\n      dup3\n      dup3\n      sload\n      add\n      swap3\n      pop\n      pop\n      dup2\n      swap1\n      sstore\n      pop\n        /* \"contracts/ERC20.sol\":8273:8275  to */\n      dup3\n        /* \"contracts/ERC20.sol\":8258:8284  Transfer(from, to, amount) */\n      0xffffffffffffffffffffffffffffffffffffffff\n      and\n        /* \"contracts/ERC20.sol\":8267:8271  from */\n      dup5\n        /* \"contracts/ERC20.sol\":8258:8284  Transfer(from, to, amount) */\n      0xffffffffffffffffffffffffffffffffffffffff\n      and\n      0xddf252ad1be2c89b69c2b068fc378daa952ba7f163c4a11628f55a4df523b3ef\n        /* \"contracts/ERC20.sol\":8277:8283  amount */\n      dup5\n        /* \"contracts/ERC20.sol\":8258:8284  Transfer(from, to, amount) */\n      mload(0x40)\n      tag_180\n      swap2\n      swap1\n      tag_35\n      jump\t// in\n    tag_180:\n      mload(0x40)\n      dup1\n      swap2\n      sub\n      swap1\n      log3\n        /* \"contracts/ERC20.sol\":8295:8332  _afterTokenTransfer(from, to, amount) */\n      tag_181\n        /* \"contracts/ERC20.sol\":8315:8319  from */\n      dup5\n        /* \"contracts/ERC20.sol\":8321:8323  to */\n      dup5\n        /* \"contracts/ERC20.sol\":8325:8331  amount */\n      dup5\n        /* \"contracts/ERC20.sol\":8295:8314  _afterTokenTransfer */\n      tag_125\n        /* \"contracts/ERC20.sol\":8295:8332  _afterTokenTransfer(from, to, amount) */\n      jump\t// in\n    tag_181:\n        /* \"contracts/ERC20.sol\":7629:8339  {... */\n      pop\n        /* \"contracts/ERC20.sol\":7551:8339  function _transfer(address from, address to, uint256 amount) internal virtual {... */\n      pop\n      pop\n      pop\n      jump\t// out\n        /* \"contracts/ERC20.sol\":12166:12257  function _beforeTokenTransfer(address from, address to, uint256 amount) internal virtual {} */\n    tag_121:\n      pop\n      pop\n      pop\n      jump\t// out\n        /* \"contracts/ERC20.sol\":12845:12935  function _afterTokenTransfer(address from, address to, uint256 amount) internal virtual {} */\n    tag_125:\n      pop\n      pop\n      pop\n      jump\t// out\n        /* \"#utility.yul\":7:106   */\n    tag_184:\n        /* \"#utility.yul\":59:65   */\n      0x00\n        /* \"#utility.yul\":93:98   */\n      dup2\n        /* \"#utility.yul\":87:99   */\n      mload\n        /* \"#utility.yul\":77:99   */\n      swap1\n      pop\n        /* \"#utility.yul\":7:106   */\n      swap2\n      swap1\n      pop\n      jump\t// out\n        /* \"#utility.yul\":112:281   */\n    tag_185:\n        /* \"#utility.yul\":196:207   */\n      0x00\n        /* \"#utility.yul\":230:236   */\n      dup3\n        /* \"#utility.yul\":225:228   */\n      dup3\n        /* \"#utility.yul\":218:237   */\n      mstore\n        /* \"#utility.yul\":270:274   */\n      0x20\n        /* \"#utility.yul\":265:268   */\n      dup3\n        /* \"#utility.yul\":261:275   */\n      add\n        /* \"#utility.yul\":246:275   */\n      swap1\n      pop\n        /* \"#utility.yul\":112:281   */\n      swap3\n      swap2\n      pop\n      pop\n      jump\t// out\n        /* \"#utility.yul\":287:533   */\n    tag_186:\n        /* \"#utility.yul\":368:369   */\n      0x00\n        /* \"#utility.yul\":378:491   */\n    tag_229:\n        /* \"#utility.yul\":392:398   */\n      dup4\n        /* \"#utility.yul\":389:390   */\n      dup2\n        /* \"#utility.yul\":386:399   */\n      lt\n        /* \"#utility.yul\":378:491   */\n      iszero\n      tag_231\n      jumpi\n        /* \"#utility.yul\":477:478   */\n      dup1\n        /* \"#utility.yul\":472:475   */\n      dup3\n        /* \"#utility.yul\":468:479   */\n      add\n        /* \"#utility.yul\":462:480   */\n      mload\n        /* \"#utility.yul\":458:459   */\n      dup2\n        /* \"#utility.yul\":453:456   */\n      dup5\n        /* \"#utility.yul\":449:460   */\n      add\n        /* \"#utility.yul\":442:481   */\n      mstore\n        /* \"#utility.yul\":414:416   */\n      0x20\n        /* \"#utility.yul\":411:412   */\n      dup2\n        /* \"#utility.yul\":407:417   */\n      add\n        /* \"#utility.yul\":402:417   */\n      swap1\n      pop\n        /* \"#utility.yul\":378:491   */\n      jump(tag_229)\n    tag_231:\n        /* \"#utility.yul\":525:526   */\n      0x00\n        /* \"#utility.yul\":516:522   */\n      dup5\n        /* \"#utility.yul\":511:514   */\n      dup5\n        /* \"#utility.yul\":507:523   */\n      add\n        /* \"#utility.yul\":500:527   */\n      mstore\n        /* \"#utility.yul\":349:533   */\n      pop\n        /* \"#utility.yul\":287:533   */\n      pop\n      pop\n      pop\n      jump\t// out\n        /* \"#utility.yul\":539:641   */\n    tag_187:\n        /* \"#utility.yul\":580:586   */\n      0x00\n        /* \"#utility.yul\":631:633   */\n      0x1f\n        /* \"#utility.yul\":627:634   */\n      not\n        /* \"#utility.yul\":622:624   */\n      0x1f\n        /* \"#utility.yul\":615:620   */\n      dup4\n        /* \"#utility.yul\":611:625   */\n      add\n        /* \"#utility.yul\":607:635   */\n      and\n        /* \"#utility.yul\":597:635   */\n      swap1\n      pop\n        /* \"#utility.yul\":539:641   */\n      swap2\n      swap1\n      pop\n      jump\t// out\n        /* \"#utility.yul\":647:1024   */\n    tag_188:\n        /* \"#utility.yul\":735:738   */\n      0x00\n        /* \"#utility.yul\":763:802   */\n      tag_234\n        /* \"#utility.yul\":796:801   */\n      dup3\n        /* \"#utility.yul\":763:802   */\n      tag_184\n      jump\t// in\n    tag_234:\n        /* \"#utility.yul\":818:889   */\n      tag_235\n        /* \"#utility.yul\":882:888   */\n      dup2\n        /* \"#utility.yul\":877:880   */\n      dup6\n        /* \"#utility.yul\":818:889   */\n      tag_185\n      jump\t// in\n    tag_235:\n        /* \"#utility.yul\":811:889   */\n      swap4\n      pop\n        /* \"#utility.yul\":898:963   */\n      tag_236\n        /* \"#utility.yul\":956:962   */\n      dup2\n        /* \"#utility.yul\":951:954   */\n      dup6\n        /* \"#utility.yul\":944:948   */\n      0x20\n        /* \"#utility.yul\":937:942   */\n      dup7\n        /* \"#utility.yul\":933:949   */\n      add\n        /* \"#utility.yul\":898:963   */\n      tag_186\n      jump\t// in\n    tag_236:\n        /* \"#utility.yul\":988:1017   */\n      tag_237\n        /* \"#utility.yul\":1010:1016   */\n      dup2\n        /* \"#utility.yul\":988:1017   */\n      tag_187\n      jump\t// in\n    tag_237:\n        /* \"#utility.yul\":983:986   */\n      dup5\n        /* \"#utility.yul\":979:1018   */\n      add\n        /* \"#utility.yul\":972:1018   */\n      swap2\n      pop\n        /* \"#utility.yul\":739:1024   */\n      pop\n        /* \"#utility.yul\":647:1024   */\n      swap3\n      swap2\n      pop\n      pop\n      jump\t// out\n        /* \"#utility.yul\":1030:1343   */\n    tag_23:\n        /* \"#utility.yul\":1143:1147   */\n      0x00\n        /* \"#utility.yul\":1181:1183   */\n      0x20\n        /* \"#utility.yul\":1170:1179   */\n      dup3\n        /* \"#utility.yul\":1166:1184   */\n      add\n        /* \"#utility.yul\":1158:1184   */\n      swap1\n      pop\n        /* \"#utility.yul\":1230:1239   */\n      dup2\n        /* \"#utility.yul\":1224:1228   */\n      dup2\n        /* \"#utility.yul\":1220:1240   */\n      sub\n        /* \"#utility.yul\":1216:1217   */\n      0x00\n        /* \"#utility.yul\":1205:1214   */\n      dup4\n        /* \"#utility.yul\":1201:1218   */\n      add\n        /* \"#utility.yul\":1194:1241   */\n      mstore\n        /* \"#utility.yul\":1258:1336   */\n      tag_239\n        /* \"#utility.yul\":1331:1335   */\n      dup2\n        /* \"#utility.yul\":1322:1328   */\n      dup5\n        /* \"#utility.yul\":1258:1336   */\n      tag_188\n      jump\t// in\n    tag_239:\n        /* \"#utility.yul\":1250:1336   */\n      swap1\n      pop\n        /* \"#utility.yul\":1030:1343   */\n      swap3\n      swap2\n      pop\n      pop\n      jump\t// out\n        /* \"#utility.yul\":1430:1547   */\n    tag_190:\n        /* \"#utility.yul\":1539:1540   */\n      0x00\n        /* \"#utility.yul\":1536:1537   */\n      dup1\n        /* \"#utility.yul\":1529:1541   */\n      revert\n        /* \"#utility.yul\":1676:1802   */\n    tag_192:\n        /* \"#utility.yul\":1713:1720   */\n      0x00\n        /* \"#utility.yul\":1753:1795   */\n      0xffffffffffffffffffffffffffffffffffffffff\n        /* \"#utility.yul\":1746:1751   */\n      dup3\n        /* \"#utility.yul\":1742:1796   */\n      and\n        /* \"#utility.yul\":1731:1796   */\n      swap1\n      pop\n        /* \"#utility.yul\":1676:1802   */\n      swap2\n      swap1\n      pop\n      jump\t// out\n        /* \"#utility.yul\":1808:1904   */\n    tag_193:\n        /* \"#utility.yul\":1845:1852   */\n      0x00\n        /* \"#utility.yul\":1874:1898   */\n      tag_245\n        /* \"#utility.yul\":1892:1897   */\n      dup3\n        /* \"#utility.yul\":1874:1898   */\n      tag_192\n      jump\t// in\n    tag_245:\n        /* \"#utility.yul\":1863:1898   */\n      swap1\n      pop\n        /* \"#utility.yul\":1808:1904   */\n      swap2\n      swap1\n      pop\n      jump\t// out\n        /* \"#utility.yul\":1910:2032   */\n    tag_194:\n        /* \"#utility.yul\":1983:2007   */\n      tag_247\n        /* \"#utility.yul\":2001:2006   */\n      dup2\n        /* \"#utility.yul\":1983:2007   */\n      tag_193\n      jump\t// in\n    tag_247:\n        /* \"#utility.yul\":1976:1981   */\n      dup2\n        /* \"#utility.yul\":1973:2008   */\n      eq\n        /* \"#utility.yul\":1963:2026   */\n      tag_248\n      jumpi\n        /* \"#utility.yul\":2022:2023   */\n      0x00\n        /* \"#utility.yul\":2019:2020   */\n      dup1\n        /* \"#utility.yul\":2012:2024   */\n      revert\n        /* \"#utility.yul\":1963:2026   */\n    tag_248:\n        /* \"#utility.yul\":1910:2032   */\n      pop\n      jump\t// out\n        /* \"#utility.yul\":2038:2177   */\n    tag_195:\n        /* \"#utility.yul\":2084:2089   */\n      0x00\n        /* \"#utility.yul\":2122:2128   */\n      dup2\n        /* \"#utility.yul\":2109:2129   */\n      calldataload\n        /* \"#utility.yul\":2100:2129   */\n      swap1\n      pop\n        /* \"#utility.yul\":2138:2171   */\n      tag_250\n        /* \"#utility.yul\":2165:2170   */\n      dup2\n        /* \"#utility.yul\":2138:2171   */\n      tag_194\n      jump\t// in\n    tag_250:\n        /* \"#utility.yul\":2038:2177   */\n      swap3\n      swap2\n      pop\n      pop\n      jump\t// out\n        /* \"#utility.yul\":2183:2260   */\n    tag_196:\n        /* \"#utility.yul\":2220:2227   */\n      0x00\n        /* \"#utility.yul\":2249:2254   */\n      dup2\n        /* \"#utility.yul\":2238:2254   */\n      swap1\n      pop\n        /* \"#utility.yul\":2183:2260   */\n      swap2\n      swap1\n      pop\n      jump\t// out\n        /* \"#utility.yul\":2266:2388   */\n    tag_197:\n        /* \"#utility.yul\":2339:2363   */\n      tag_253\n        /* \"#utility.yul\":2357:2362   */\n      dup2\n        /* \"#utility.yul\":2339:2363   */\n      tag_196\n      jump\t// in\n    tag_253:\n        /* \"#utility.yul\":2332:2337   */\n      dup2\n        /* \"#utility.yul\":2329:2364   */\n      eq\n        /* \"#utility.yul\":2319:2382   */\n      tag_254\n      jumpi\n        /* \"#utility.yul\":2378:2379   */\n      0x00\n        /* \"#utility.yul\":2375:2376   */\n      dup1\n        /* \"#utility.yul\":2368:2380   */\n      revert\n        /* \"#utility.yul\":2319:2382   */\n    tag_254:\n        /* \"#utility.yul\":2266:2388   */\n      pop\n      jump\t// out\n        /* \"#utility.yul\":2394:2533   */\n    tag_198:\n        /* \"#utility.yul\":2440:2445   */\n      0x00\n        /* \"#utility.yul\":2478:2484   */\n      dup2\n        /* \"#utility.yul\":2465:2485   */\n      calldataload\n        /* \"#utility.yul\":2456:2485   */\n      swap1\n      pop\n        /* \"#utility.yul\":2494:2527   */\n      tag_256\n        /* \"#utility.yul\":2521:2526   */\n      dup2\n        /* \"#utility.yul\":2494:2527   */\n      tag_197\n      jump\t// in\n    tag_256:\n        /* \"#utility.yul\":2394:2533   */\n      swap3\n      swap2\n      pop\n      pop\n      jump\t// out\n        /* \"#utility.yul\":2539:3013   */\n    tag_27:\n        /* \"#utility.yul\":2607:2613   */\n      0x00\n        /* \"#utility.yul\":2615:2621   */\n      dup1\n        /* \"#utility.yul\":2664:2666   */\n      0x40\n        /* \"#utility.yul\":2652:2661   */\n      dup4\n        /* \"#utility.yul\":2643:2650   */\n      dup6\n        /* \"#utility.yul\":2639:2662   */\n      sub\n        /* \"#utility.yul\":2635:2667   */\n      slt\n        /* \"#utility.yul\":2632:2751   */\n      iszero\n      tag_258\n      jumpi\n        /* \"#utility.yul\":2670:2749   */\n      tag_259\n      tag_190\n      jump\t// in\n    tag_259:\n        /* \"#utility.yul\":2632:2751   */\n    tag_258:\n        /* \"#utility.yul\":2790:2791   */\n      0x00\n        /* \"#utility.yul\":2815:2868   */\n      tag_260\n        /* \"#utility.yul\":2860:2867   */\n      dup6\n        /* \"#utility.yul\":2851:2857   */\n      dup3\n        /* \"#utility.yul\":2840:2849   */\n      dup7\n        /* \"#utility.yul\":2836:2858   */\n      add\n        /* \"#utility.yul\":2815:2868   */\n      tag_195\n      jump\t// in\n    tag_260:\n        /* \"#utility.yul\":2805:2868   */\n      swap3\n      pop\n        /* \"#utility.yul\":2761:2878   */\n      pop\n        /* \"#utility.yul\":2917:2919   */\n      0x20\n        /* \"#utility.yul\":2943:2996   */\n      tag_261\n        /* \"#utility.yul\":2988:2995   */\n      dup6\n        /* \"#utility.yul\":2979:2985   */\n      dup3\n        /* \"#utility.yul\":2968:2977   */\n      dup7\n        /* \"#utility.yul\":2964:2986   */\n      add\n        /* \"#utility.yul\":2943:2996   */\n      tag_198\n      jump\t// in\n    tag_261:\n        /* \"#utility.yul\":2933:2996   */\n      swap2\n      pop\n        /* \"#utility.yul\":2888:3006   */\n      pop\n        /* \"#utility.yul\":2539:3013   */\n      swap3\n      pop\n      swap3\n      swap1\n      pop\n      jump\t// out\n        /* \"#utility.yul\":3019:3109   */\n    tag_199:\n        /* \"#utility.yul\":3053:3060   */\n      0x00\n        /* \"#utility.yul\":3096:3101   */\n      dup2\n        /* \"#utility.yul\":3089:3102   */\n      iszero\n        /* \"#utility.yul\":3082:3103   */\n      iszero\n        /* \"#utility.yul\":3071:3103   */\n      swap1\n      pop\n        /* \"#utility.yul\":3019:3109   */\n      swap2\n      swap1\n      pop\n      jump\t// out\n        /* \"#utility.yul\":3115:3224   */\n    tag_200:\n        /* \"#utility.yul\":3196:3217   */\n      tag_264\n        /* \"#utility.yul\":3211:3216   */\n      dup2\n        /* \"#utility.yul\":3196:3217   */\n      tag_199\n      jump\t// in\n    tag_264:\n        /* \"#utility.yul\":3191:3194   */\n      dup3\n        /* \"#utility.yul\":3184:3218   */\n      mstore\n        /* \"#utility.yul\":3115:3224   */\n      pop\n      pop\n      jump\t// out\n        /* \"#utility.yul\":3230:3440   */\n    tag_30:\n        /* \"#utility.yul\":3317:3321   */\n      0x00\n        /* \"#utility.yul\":3355:3357   */\n      0x20\n        /* \"#utility.yul\":3344:3353   */\n      dup3\n        /* \"#utility.yul\":3340:3358   */\n      add\n        /* \"#utility.yul\":3332:3358   */\n      swap1\n      pop\n        /* \"#utility.yul\":3368:3433   */\n      tag_266\n        /* \"#utility.yul\":3430:3431   */\n      0x00\n        /* \"#utility.yul\":3419:3428   */\n      dup4\n        /* \"#utility.yul\":3415:3432   */\n      add\n        /* \"#utility.yul\":3406:3412   */\n      dup5\n        /* \"#utility.yul\":3368:3433   */\n      tag_200\n      jump\t// in\n    tag_266:\n        /* \"#utility.yul\":3230:3440   */\n      swap3\n      swap2\n      pop\n      pop\n      jump\t// out\n        /* \"#utility.yul\":3446:3564   */\n    tag_201:\n        /* \"#utility.yul\":3533:3557   */\n      tag_268\n        /* \"#utility.yul\":3551:3556   */\n      dup2\n        /* \"#utility.yul\":3533:3557   */\n      tag_196\n      jump\t// in\n    tag_268:\n        /* \"#utility.yul\":3528:3531   */\n      dup3\n        /* \"#utility.yul\":3521:3558   */\n      mstore\n        /* \"#utility.yul\":3446:3564   */\n      pop\n      pop\n      jump\t// out\n        /* \"#utility.yul\":3570:3792   */\n    tag_35:\n        /* \"#utility.yul\":3663:3667   */\n      0x00\n        /* \"#utility.yul\":3701:3703   */\n      0x20\n        /* \"#utility.yul\":3690:3699   */\n      dup3\n        /* \"#utility.yul\":3686:3704   */\n      add\n        /* \"#utility.yul\":3678:3704   */\n      swap1\n      pop\n        /* \"#utility.yul\":3714:3785   */\n      tag_270\n        /* \"#utility.yul\":3782:3783   */\n      0x00\n        /* \"#utility.yul\":3771:3780   */\n      dup4\n        /* \"#utility.yul\":3767:3784   */\n      add\n        /* \"#utility.yul\":3758:3764   */\n      dup5\n        /* \"#utility.yul\":3714:3785   */\n      tag_201\n      jump\t// in\n    tag_270:\n        /* \"#utility.yul\":3570:3792   */\n      swap3\n      swap2\n      pop\n      pop\n      jump\t// out\n        /* \"#utility.yul\":3798:4417   */\n    tag_39:\n        /* \"#utility.yul\":3875:3881   */\n      0x00\n        /* \"#utility.yul\":3883:3889   */\n      dup1\n        /* \"#utility.yul\":3891:3897   */\n      0x00\n        /* \"#utility.yul\":3940:3942   */\n      0x60\n        /* \"#utility.yul\":3928:3937   */\n      dup5\n        /* \"#utility.yul\":3919:3926   */\n      dup7\n        /* \"#utility.yul\":3915:3938   */\n      sub\n        /* \"#utility.yul\":3911:3943   */\n      slt\n        /* \"#utility.yul\":3908:4027   */\n      iszero\n      tag_272\n      jumpi\n        /* \"#utility.yul\":3946:4025   */\n      tag_273\n      tag_190\n      jump\t// in\n    tag_273:\n        /* \"#utility.yul\":3908:4027   */\n    tag_272:\n        /* \"#utility.yul\":4066:4067   */\n      0x00\n        /* \"#utility.yul\":4091:4144   */\n      tag_274\n        /* \"#utility.yul\":4136:4143   */\n      dup7\n        /* \"#utility.yul\":4127:4133   */\n      dup3\n        /* \"#utility.yul\":4116:4125   */\n      dup8\n        /* \"#utility.yul\":4112:4134   */\n      add\n        /* \"#utility.yul\":4091:4144   */\n      tag_195\n      jump\t// in\n    tag_274:\n        /* \"#utility.yul\":4081:4144   */\n      swap4\n      pop\n        /* \"#utility.yul\":4037:4154   */\n      pop\n        /* \"#utility.yul\":4193:4195   */\n      0x20\n        /* \"#utility.yul\":4219:4272   */\n      tag_275\n        /* \"#utility.yul\":4264:4271   */\n      dup7\n        /* \"#utility.yul\":4255:4261   */\n      dup3\n        /* \"#utility.yul\":4244:4253   */\n      dup8\n        /* \"#utility.yul\":4240:4262   */\n      add\n        /* \"#utility.yul\":4219:4272   */\n      tag_195\n      jump\t// in\n    tag_275:\n        /* \"#utility.yul\":4209:4272   */\n      swap3\n      pop\n        /* \"#utility.yul\":4164:4282   */\n      pop\n        /* \"#utility.yul\":4321:4323   */\n      0x40\n        /* \"#utility.yul\":4347:4400   */\n      tag_276\n        /* \"#utility.yul\":4392:4399   */\n      dup7\n        /* \"#utility.yul\":4383:4389   */\n      dup3\n        /* \"#utility.yul\":4372:4381   */\n      dup8\n        /* \"#utility.yul\":4368:4390   */\n      add\n        /* \"#utility.yul\":4347:4400   */\n      tag_198\n      jump\t// in\n    tag_276:\n        /* \"#utility.yul\":4337:4400   */\n      swap2\n      pop\n        /* \"#utility.yul\":4292:4410   */\n      pop\n        /* \"#utility.yul\":3798:4417   */\n      swap3\n      pop\n      swap3\n      pop\n      swap3\n      jump\t// out\n        /* \"#utility.yul\":4423:4509   */\n    tag_202:\n        /* \"#utility.yul\":4458:4465   */\n      0x00\n        /* \"#utility.yul\":4498:4502   */\n      0xff\n        /* \"#utility.yul\":4491:4496   */\n      dup3\n        /* \"#utility.yul\":4487:4503   */\n      and\n        /* \"#utility.yul\":4476:4503   */\n      swap1\n      pop\n        /* \"#utility.yul\":4423:4509   */\n      swap2\n      swap1\n      pop\n      jump\t// out\n        /* \"#utility.yul\":4515:4627   */\n    tag_203:\n        /* \"#utility.yul\":4598:4620   */\n      tag_279\n        /* \"#utility.yul\":4614:4619   */\n      dup2\n        /* \"#utility.yul\":4598:4620   */\n      tag_202\n      jump\t// in\n    tag_279:\n        /* \"#utility.yul\":4593:4596   */\n      dup3\n        /* \"#utility.yul\":4586:4621   */\n      mstore\n        /* \"#utility.yul\":4515:4627   */\n      pop\n      pop\n      jump\t// out\n        /* \"#utility.yul\":4633:4847   */\n    tag_46:\n        /* \"#utility.yul\":4722:4726   */\n      0x00\n        /* \"#utility.yul\":4760:4762   */\n      0x20\n        /* \"#utility.yul\":4749:4758   */\n      dup3\n        /* \"#utility.yul\":4745:4763   */\n      add\n        /* \"#utility.yul\":4737:4763   */\n      swap1\n      pop\n        /* \"#utility.yul\":4773:4840   */\n      tag_281\n        /* \"#utility.yul\":4837:4838   */\n      0x00\n        /* \"#utility.yul\":4826:4835   */\n      dup4\n        /* \"#utility.yul\":4822:4839   */\n      add\n        /* \"#utility.yul\":4813:4819   */\n      dup5\n        /* \"#utility.yul\":4773:4840   */\n      tag_203\n      jump\t// in\n    tag_281:\n        /* \"#utility.yul\":4633:4847   */\n      swap3\n      swap2\n      pop\n      pop\n      jump\t// out\n        /* \"#utility.yul\":4853:5182   */\n    tag_65:\n        /* \"#utility.yul\":4912:4918   */\n      0x00\n        /* \"#utility.yul\":4961:4963   */\n      0x20\n        /* \"#utility.yul\":4949:4958   */\n      dup3\n        /* \"#utility.yul\":4940:4947   */\n      dup5\n        /* \"#utility.yul\":4936:4959   */\n      sub\n        /* \"#utility.yul\":4932:4964   */\n      slt\n        /* \"#utility.yul\":4929:5048   */\n      iszero\n      tag_283\n      jumpi\n        /* \"#utility.yul\":4967:5046   */\n      tag_284\n      tag_190\n      jump\t// in\n    tag_284:\n        /* \"#utility.yul\":4929:5048   */\n    tag_283:\n        /* \"#utility.yul\":5087:5088   */\n      0x00\n        /* \"#utility.yul\":5112:5165   */\n      tag_285\n        /* \"#utility.yul\":5157:5164   */\n      dup5\n        /* \"#utility.yul\":5148:5154   */\n      dup3\n        /* \"#utility.yul\":5137:5146   */\n      dup6\n        /* \"#utility.yul\":5133:5155   */\n      add\n        /* \"#utility.yul\":5112:5165   */\n      tag_195\n      jump\t// in\n    tag_285:\n        /* \"#utility.yul\":5102:5165   */\n      swap2\n      pop\n        /* \"#utility.yul\":5058:5175   */\n      pop\n        /* \"#utility.yul\":4853:5182   */\n      swap3\n      swap2\n      pop\n      pop\n      jump\t// out\n        /* \"#utility.yul\":5188:5662   */\n    tag_85:\n        /* \"#utility.yul\":5256:5262   */\n      0x00\n        /* \"#utility.yul\":5264:5270   */\n      dup1\n        /* \"#utility.yul\":5313:5315   */\n      0x40\n        /* \"#utility.yul\":5301:5310   */\n      dup4\n        /* \"#utility.yul\":5292:5299   */\n      dup6\n        /* \"#utility.yul\":5288:5311   */\n      sub\n        /* \"#utility.yul\":5284:5316   */\n      slt\n        /* \"#utility.yul\":5281:5400   */\n      iszero\n      tag_287\n      jumpi\n        /* \"#utility.yul\":5319:5398   */\n      tag_288\n      tag_190\n      jump\t// in\n    tag_288:\n        /* \"#utility.yul\":5281:5400   */\n    tag_287:\n        /* \"#utility.yul\":5439:5440   */\n      0x00\n        /* \"#utility.yul\":5464:5517   */\n      tag_289\n        /* \"#utility.yul\":5509:5516   */\n      dup6\n        /* \"#utility.yul\":5500:5506   */\n      dup3\n        /* \"#utility.yul\":5489:5498   */\n      dup7\n        /* \"#utility.yul\":5485:5507   */\n      add\n        /* \"#utility.yul\":5464:5517   */\n      tag_195\n      jump\t// in\n    tag_289:\n        /* \"#utility.yul\":5454:5517   */\n      swap3\n      pop\n        /* \"#utility.yul\":5410:5527   */\n      pop\n        /* \"#utility.yul\":5566:5568   */\n      0x20\n        /* \"#utility.yul\":5592:5645   */\n      tag_290\n        /* \"#utility.yul\":5637:5644   */\n      dup6\n        /* \"#utility.yul\":5628:5634   */\n      dup3\n        /* \"#utility.yul\":5617:5626   */\n      dup7\n        /* \"#utility.yul\":5613:5635   */\n      add\n        /* \"#utility.yul\":5592:5645   */\n      tag_195\n      jump\t// in\n    tag_290:\n        /* \"#utility.yul\":5582:5645   */\n      swap2\n      pop\n        /* \"#utility.yul\":5537:5655   */\n      pop\n        /* \"#utility.yul\":5188:5662   */\n      swap3\n      pop\n      swap3\n      swap1\n      pop\n      jump\t// out\n        /* \"#utility.yul\":5668:5848   */\n    tag_204:\n        /* \"#utility.yul\":5716:5793   */\n      0x4e487b7100000000000000000000000000000000000000000000000000000000\n        /* \"#utility.yul\":5713:5714   */\n      0x00\n        /* \"#utility.yul\":5706:5794   */\n      mstore\n        /* \"#utility.yul\":5813:5817   */\n      0x22\n        /* \"#utility.yul\":5810:5811   */\n      0x04\n        /* \"#utility.yul\":5803:5818   */\n      mstore\n        /* \"#utility.yul\":5837:5841   */\n      0x24\n        /* \"#utility.yul\":5834:5835   */\n      0x00\n        /* \"#utility.yul\":5827:5842   */\n      revert\n        /* \"#utility.yul\":5854:6174   */\n    tag_90:\n        /* \"#utility.yul\":5898:5904   */\n      0x00\n        /* \"#utility.yul\":5935:5936   */\n      0x02\n        /* \"#utility.yul\":5929:5933   */\n      dup3\n        /* \"#utility.yul\":5925:5937   */\n      div\n        /* \"#utility.yul\":5915:5937   */\n      swap1\n      pop\n        /* \"#utility.yul\":5982:5983   */\n      0x01\n        /* \"#utility.yul\":5976:5980   */\n      dup3\n        /* \"#utility.yul\":5972:5984   */\n      and\n        /* \"#utility.yul\":6003:6021   */\n      dup1\n        /* \"#utility.yul\":5993:6074   */\n      tag_293\n      jumpi\n        /* \"#utility.yul\":6059:6063   */\n      0x7f\n        /* \"#utility.yul\":6051:6057   */\n      dup3\n        /* \"#utility.yul\":6047:6064   */\n      and\n        /* \"#utility.yul\":6037:6064   */\n      swap2\n      pop\n        /* \"#utility.yul\":5993:6074   */\n    tag_293:\n        /* \"#utility.yul\":6121:6123   */\n      0x20\n        /* \"#utility.yul\":6113:6119   */\n      dup3\n        /* \"#utility.yul\":6110:6124   */\n      lt\n        /* \"#utility.yul\":6090:6108   */\n      dup2\n        /* \"#utility.yul\":6087:6125   */\n      sub\n        /* \"#utility.yul\":6084:6168   */\n      tag_294\n      jumpi\n        /* \"#utility.yul\":6140:6158   */\n      tag_295\n      tag_204\n      jump\t// in\n    tag_295:\n        /* \"#utility.yul\":6084:6168   */\n    tag_294:\n        /* \"#utility.yul\":5905:6174   */\n      pop\n        /* \"#utility.yul\":5854:6174   */\n      swap2\n      swap1\n      pop\n      jump\t// out\n        /* \"#utility.yul\":6180:6360   */\n    tag_205:\n        /* \"#utility.yul\":6228:6305   */\n      0x4e487b7100000000000000000000000000000000000000000000000000000000\n        /* \"#utility.yul\":6225:6226   */\n      0x00\n        /* \"#utility.yul\":6218:6306   */\n      mstore\n        /* \"#utility.yul\":6325:6329   */\n      0x11\n        /* \"#utility.yul\":6322:6323   */\n      0x04\n        /* \"#utility.yul\":6315:6330   */\n      mstore\n        /* \"#utility.yul\":6349:6353   */\n      0x24\n        /* \"#utility.yul\":6346:6347   */\n      0x00\n        /* \"#utility.yul\":6339:6354   */\n      revert\n        /* \"#utility.yul\":6366:6557   */\n    tag_113:\n        /* \"#utility.yul\":6406:6409   */\n      0x00\n        /* \"#utility.yul\":6425:6445   */\n      tag_298\n        /* \"#utility.yul\":6443:6444   */\n      dup3\n        /* \"#utility.yul\":6425:6445   */\n      tag_196\n      jump\t// in\n    tag_298:\n        /* \"#utility.yul\":6420:6445   */\n      swap2\n      pop\n        /* \"#utility.yul\":6459:6479   */\n      tag_299\n        /* \"#utility.yul\":6477:6478   */\n      dup4\n        /* \"#utility.yul\":6459:6479   */\n      tag_196\n      jump\t// in\n    tag_299:\n        /* \"#utility.yul\":6454:6479   */\n      swap3\n      pop\n        /* \"#utility.yul\":6502:6503   */\n      dup3\n        /* \"#utility.yul\":6499:6500   */\n      dup3\n        /* \"#utility.yul\":6495:6504   */\n      add\n        /* \"#utility.yul\":6488:6504   */\n      swap1\n      pop\n        /* \"#utility.yul\":6523:6526   */\n      dup1\n        /* \"#utility.yul\":6520:6521   */\n      dup3\n        /* \"#utility.yul\":6517:6527   */\n      gt\n        /* \"#utility.yul\":6514:6550   */\n      iszero\n      tag_300\n      jumpi\n        /* \"#utility.yul\":6530:6548   */\n      tag_301\n      tag_205\n      jump\t// in\n    tag_301:\n        /* \"#utility.yul\":6514:6550   */\n    tag_300:\n        /* \"#utility.yul\":6366:6557   */\n      swap3\n      swap2\n      pop\n      pop\n      jump\t// out\n        /* \"#utility.yul\":6563:6744   */\n    tag_206:\n        /* \"#utility.yul\":6703:6736   */\n      0x45524332303a206d696e7420746f20746865207a65726f206164647265737300\n        /* \"#utility.yul\":6699:6700   */\n      0x00\n        /* \"#utility.yul\":6691:6697   */\n      dup3\n        /* \"#utility.yul\":6687:6701   */\n      add\n        /* \"#utility.yul\":6680:6737   */\n      mstore\n        /* \"#utility.yul\":6563:6744   */\n      pop\n      jump\t// out\n        /* \"#utility.yul\":6750:7116   */\n    tag_207:\n        /* \"#utility.yul\":6892:6895   */\n      0x00\n        /* \"#utility.yul\":6913:6980   */\n      tag_304\n        /* \"#utility.yul\":6977:6979   */\n      0x1f\n        /* \"#utility.yul\":6972:6975   */\n      dup4\n        /* \"#utility.yul\":6913:6980   */\n      tag_185\n      jump\t// in\n    tag_304:\n        /* \"#utility.yul\":6906:6980   */\n      swap2\n      pop\n        /* \"#utility.yul\":6989:7082   */\n      tag_305\n        /* \"#utility.yul\":7078:7081   */\n      dup3\n        /* \"#utility.yul\":6989:7082   */\n      tag_206\n      jump\t// in\n    tag_305:\n        /* \"#utility.yul\":7107:7109   */\n      0x20\n        /* \"#utility.yul\":7102:7105   */\n      dup3\n        /* \"#utility.yul\":7098:7110   */\n      add\n        /* \"#utility.yul\":7091:7110   */\n      swap1\n      pop\n        /* \"#utility.yul\":6750:7116   */\n      swap2\n      swap1\n      pop\n      jump\t// out\n        /* \"#utility.yul\":7122:7541   */\n    tag_119:\n        /* \"#utility.yul\":7288:7292   */\n      0x00\n        /* \"#utility.yul\":7326:7328   */\n      0x20\n        /* \"#utility.yul\":7315:7324   */\n      dup3\n        /* \"#utility.yul\":7311:7329   */\n      add\n        /* \"#utility.yul\":7303:7329   */\n      swap1\n      pop\n        /* \"#utility.yul\":7375:7384   */\n      dup2\n        /* \"#utility.yul\":7369:7373   */\n      dup2\n        /* \"#utility.yul\":7365:7385   */\n      sub\n        /* \"#utility.yul\":7361:7362   */\n      0x00\n        /* \"#utility.yul\":7350:7359   */\n      dup4\n        /* \"#utility.yul\":7346:7363   */\n      add\n        /* \"#utility.yul\":7339:7386   */\n      mstore\n        /* \"#utility.yul\":7403:7534   */\n      tag_307\n        /* \"#utility.yul\":7529:7533   */\n      dup2\n        /* \"#utility.yul\":7403:7534   */\n      tag_207\n      jump\t// in\n    tag_307:\n        /* \"#utility.yul\":7395:7534   */\n      swap1\n      pop\n        /* \"#utility.yul\":7122:7541   */\n      swap2\n      swap1\n      pop\n      jump\t// out\n        /* \"#utility.yul\":7547:7727   */\n    tag_208:\n        /* \"#utility.yul\":7595:7672   */\n      0x4e487b7100000000000000000000000000000000000000000000000000000000\n        /* \"#utility.yul\":7592:7593   */\n      0x00\n        /* \"#utility.yul\":7585:7673   */\n      mstore\n        /* \"#utility.yul\":7692:7696   */\n      0x12\n        /* \"#utility.yul\":7689:7690   */\n      0x04\n        /* \"#utility.yul\":7682:7697   */\n      mstore\n        /* \"#utility.yul\":7716:7720   */\n      0x24\n        /* \"#utility.yul\":7713:7714   */\n      0x00\n        /* \"#utility.yul\":7706:7721   */\n      revert\n        /* \"#utility.yul\":7733:7918   */\n    tag_128:\n        /* \"#utility.yul\":7773:7774   */\n      0x00\n        /* \"#utility.yul\":7790:7810   */\n      tag_310\n        /* \"#utility.yul\":7808:7809   */\n      dup3\n        /* \"#utility.yul\":7790:7810   */\n      tag_196\n      jump\t// in\n    tag_310:\n        /* \"#utility.yul\":7785:7810   */\n      swap2\n      pop\n        /* \"#utility.yul\":7824:7844   */\n      tag_311\n        /* \"#utility.yul\":7842:7843   */\n      dup4\n        /* \"#utility.yul\":7824:7844   */\n      tag_196\n      jump\t// in\n    tag_311:\n        /* \"#utility.yul\":7819:7844   */\n      swap3\n      pop\n        /* \"#utility.yul\":7863:7864   */\n      dup3\n        /* \"#utility.yul\":7853:7888   */\n      tag_312\n      jumpi\n        /* \"#utility.yul\":7868:7886   */\n      tag_313\n      tag_208\n      jump\t// in\n    tag_313:\n        /* \"#utility.yul\":7853:7888   */\n    tag_312:\n        /* \"#utility.yul\":7910:7911   */\n      dup3\n        /* \"#utility.yul\":7907:7908   */\n      dup3\n        /* \"#utility.yul\":7903:7912   */\n      div\n        /* \"#utility.yul\":7898:7912   */\n      swap1\n      pop\n        /* \"#utility.yul\":7733:7918   */\n      swap3\n      swap2\n      pop\n      pop\n      jump\t// out\n        /* \"#utility.yul\":7924:8101   */\n    tag_209:\n        /* \"#utility.yul\":8064:8093   */\n      0x5761726e696e673a20496e73756666696369656e742047656d73210000000000\n        /* \"#utility.yul\":8060:8061   */\n      0x00\n        /* \"#utility.yul\":8052:8058   */\n      dup3\n        /* \"#utility.yul\":8048:8062   */\n      add\n        /* \"#utility.yul\":8041:8094   */\n      mstore\n        /* \"#utility.yul\":7924:8101   */\n      pop\n      jump\t// out\n        /* \"#utility.yul\":8107:8473   */\n    tag_210:\n        /* \"#utility.yul\":8249:8252   */\n      0x00\n        /* \"#utility.yul\":8270:8337   */\n      tag_316\n        /* \"#utility.yul\":8334:8336   */\n      0x1b\n        /* \"#utility.yul\":8329:8332   */\n      dup4\n        /* \"#utility.yul\":8270:8337   */\n      tag_185\n      jump\t// in\n    tag_316:\n        /* \"#utility.yul\":8263:8337   */\n      swap2\n      pop\n        /* \"#utility.yul\":8346:8439   */\n      tag_317\n        /* \"#utility.yul\":8435:8438   */\n      dup3\n        /* \"#utility.yul\":8346:8439   */\n      tag_209\n      jump\t// in\n    tag_317:\n        /* \"#utility.yul\":8464:8466   */\n      0x20\n        /* \"#utility.yul\":8459:8462   */\n      dup3\n        /* \"#utility.yul\":8455:8467   */\n      add\n        /* \"#utility.yul\":8448:8467   */\n      swap1\n      pop\n        /* \"#utility.yul\":8107:8473   */\n      swap2\n      swap1\n      pop\n      jump\t// out\n        /* \"#utility.yul\":8479:8898   */\n    tag_133:\n        /* \"#utility.yul\":8645:8649   */\n      0x00\n        /* \"#utility.yul\":8683:8685   */\n      0x20\n        /* \"#utility.yul\":8672:8681   */\n      dup3\n        /* \"#utility.yul\":8668:8686   */\n      add\n        /* \"#utility.yul\":8660:8686   */\n      swap1\n      pop\n        /* \"#utility.yul\":8732:8741   */\n      dup2\n        /* \"#utility.yul\":8726:8730   */\n      dup2\n        /* \"#utility.yul\":8722:8742   */\n      sub\n        /* \"#utility.yul\":8718:8719   */\n      0x00\n        /* \"#utility.yul\":8707:8716   */\n      dup4\n        /* \"#utility.yul\":8703:8720   */\n      add\n        /* \"#utility.yul\":8696:8743   */\n      mstore\n        /* \"#utility.yul\":8760:8891   */\n      tag_319\n        /* \"#utility.yul\":8886:8890   */\n      dup2\n        /* \"#utility.yul\":8760:8891   */\n      tag_210\n      jump\t// in\n    tag_319:\n        /* \"#utility.yul\":8752:8891   */\n      swap1\n      pop\n        /* \"#utility.yul\":8479:8898   */\n      swap2\n      swap1\n      pop\n      jump\t// out\n        /* \"#utility.yul\":8904:9128   */\n    tag_211:\n        /* \"#utility.yul\":9044:9078   */\n      0x45524332303a2064656372656173656420616c6c6f77616e63652062656c6f77\n        /* \"#utility.yul\":9040:9041   */\n      0x00\n        /* \"#utility.yul\":9032:9038   */\n      dup3\n        /* \"#utility.yul\":9028:9042   */\n      add\n        /* \"#utility.yul\":9021:9079   */\n      mstore\n        /* \"#utility.yul\":9113:9120   */\n      0x207a65726f000000000000000000000000000000000000000000000000000000\n        /* \"#utility.yul\":9108:9110   */\n      0x20\n        /* \"#utility.yul\":9100:9106   */\n      dup3\n        /* \"#utility.yul\":9096:9111   */\n      add\n        /* \"#utility.yul\":9089:9121   */\n      mstore\n        /* \"#utility.yul\":8904:9128   */\n      pop\n      jump\t// out\n        /* \"#utility.yul\":9134:9500   */\n    tag_212:\n        /* \"#utility.yul\":9276:9279   */\n      0x00\n        /* \"#utility.yul\":9297:9364   */\n      tag_322\n        /* \"#utility.yul\":9361:9363   */\n      0x25\n        /* \"#utility.yul\":9356:9359   */\n      dup4\n        /* \"#utility.yul\":9297:9364   */\n      tag_185\n      jump\t// in\n    tag_322:\n        /* \"#utility.yul\":9290:9364   */\n      swap2\n      pop\n        /* \"#utility.yul\":9373:9466   */\n      tag_323\n        /* \"#utility.yul\":9462:9465   */\n      dup3\n        /* \"#utility.yul\":9373:9466   */\n      tag_211\n      jump\t// in\n    tag_323:\n        /* \"#utility.yul\":9491:9493   */\n      0x40\n        /* \"#utility.yul\":9486:9489   */\n      dup3\n        /* \"#utility.yul\":9482:9494   */\n      add\n        /* \"#utility.yul\":9475:9494   */\n      swap1\n      pop\n        /* \"#utility.yul\":9134:9500   */\n      swap2\n      swap1\n      pop\n      jump\t// out\n        /* \"#utility.yul\":9506:9925   */\n    tag_147:\n        /* \"#utility.yul\":9672:9676   */\n      0x00\n        /* \"#utility.yul\":9710:9712   */\n      0x20\n        /* \"#utility.yul\":9699:9708   */\n      dup3\n        /* \"#utility.yul\":9695:9713   */\n      add\n        /* \"#utility.yul\":9687:9713   */\n      swap1\n      pop\n        /* \"#utility.yul\":9759:9768   */\n      dup2\n        /* \"#utility.yul\":9753:9757   */\n      dup2\n        /* \"#utility.yul\":9749:9769   */\n      sub\n        /* \"#utility.yul\":9745:9746   */\n      0x00\n        /* \"#utility.yul\":9734:9743   */\n      dup4\n        /* \"#utility.yul\":9730:9747   */\n      add\n        /* \"#utility.yul\":9723:9770   */\n      mstore\n        /* \"#utility.yul\":9787:9918   */\n      tag_325\n        /* \"#utility.yul\":9913:9917   */\n      dup2\n        /* \"#utility.yul\":9787:9918   */\n      tag_212\n      jump\t// in\n    tag_325:\n        /* \"#utility.yul\":9779:9918   */\n      swap1\n      pop\n        /* \"#utility.yul\":9506:9925   */\n      swap2\n      swap1\n      pop\n      jump\t// out\n        /* \"#utility.yul\":9931:10154   */\n    tag_213:\n        /* \"#utility.yul\":10071:10105   */\n      0x45524332303a20617070726f76652066726f6d20746865207a65726f20616464\n        /* \"#utility.yul\":10067:10068   */\n      0x00\n        /* \"#utility.yul\":10059:10065   */\n      dup3\n        /* \"#utility.yul\":10055:10069   */\n      add\n        /* \"#utility.yul\":10048:10106   */\n      mstore\n        /* \"#utility.yul\":10140:10146   */\n      0x7265737300000000000000000000000000000000000000000000000000000000\n        /* \"#utility.yul\":10135:10137   */\n      0x20\n        /* \"#utility.yul\":10127:10133   */\n      dup3\n        /* \"#utility.yul\":10123:10138   */\n      add\n        /* \"#utility.yul\":10116:10147   */\n      mstore\n        /* \"#utility.yul\":9931:10154   */\n      pop\n      jump\t// out\n        /* \"#utility.yul\":10160:10526   */\n    tag_214:\n        /* \"#utility.yul\":10302:10305   */\n      0x00\n        /* \"#utility.yul\":10323:10390   */\n      tag_328\n        /* \"#utility.yul\":10387:10389   */\n      0x24\n        /* \"#utility.yul\":10382:10385   */\n      dup4\n        /* \"#utility.yul\":10323:10390   */\n      tag_185\n      jump\t// in\n    tag_328:\n        /* \"#utility.yul\":10316:10390   */\n      swap2\n      pop\n        /* \"#utility.yul\":10399:10492   */\n      tag_329\n        /* \"#utility.yul\":10488:10491   */\n      dup3\n        /* \"#utility.yul\":10399:10492   */\n      tag_213\n      jump\t// in\n    tag_329:\n        /* \"#utility.yul\":10517:10519   */\n      0x40\n        /* \"#utility.yul\":10512:10515   */\n      dup3\n        /* \"#utility.yul\":10508:10520   */\n      add\n        /* \"#utility.yul\":10501:10520   */\n      swap1\n      pop\n        /* \"#utility.yul\":10160:10526   */\n      swap2\n      swap1\n      pop\n      jump\t// out\n        /* \"#utility.yul\":10532:10951   */\n    tag_157:\n        /* \"#utility.yul\":10698:10702   */\n      0x00\n        /* \"#utility.yul\":10736:10738   */\n      0x20\n        /* \"#utility.yul\":10725:10734   */\n      dup3\n        /* \"#utility.yul\":10721:10739   */\n      add\n        /* \"#utility.yul\":10713:10739   */\n      swap1\n      pop\n        /* \"#utility.yul\":10785:10794   */\n      dup2\n        /* \"#utility.yul\":10779:10783   */\n      dup2\n        /* \"#utility.yul\":10775:10795   */\n      sub\n        /* \"#utility.yul\":10771:10772   */\n      0x00\n        /* \"#utility.yul\":10760:10769   */\n      dup4\n        /* \"#utility.yul\":10756:10773   */\n      add\n        /* \"#utility.yul\":10749:10796   */\n      mstore\n        /* \"#utility.yul\":10813:10944   */\n      tag_331\n        /* \"#utility.yul\":10939:10943   */\n      dup2\n        /* \"#utility.yul\":10813:10944   */\n      tag_214\n      jump\t// in\n    tag_331:\n        /* \"#utility.yul\":10805:10944   */\n      swap1\n      pop\n        /* \"#utility.yul\":10532:10951   */\n      swap2\n      swap1\n      pop\n      jump\t// out\n        /* \"#utility.yul\":10957:11178   */\n    tag_215:\n        /* \"#utility.yul\":11097:11131   */\n      0x45524332303a20617070726f766520746f20746865207a65726f206164647265\n        /* \"#utility.yul\":11093:11094   */\n      0x00\n        /* \"#utility.yul\":11085:11091   */\n      dup3\n        /* \"#utility.yul\":11081:11095   */\n      add\n        /* \"#utility.yul\":11074:11132   */\n      mstore\n        /* \"#utility.yul\":11166:11170   */\n      0x7373000000000000000000000000000000000000000000000000000000000000\n        /* \"#utility.yul\":11161:11163   */\n      0x20\n        /* \"#utility.yul\":11153:11159   */\n      dup3\n        /* \"#utility.yul\":11149:11164   */\n      add\n        /* \"#utility.yul\":11142:11171   */\n      mstore\n        /* \"#utility.yul\":10957:11178   */\n      pop\n      jump\t// out\n        /* \"#utility.yul\":11184:11550   */\n    tag_216:\n        /* \"#utility.yul\":11326:11329   */\n      0x00\n        /* \"#utility.yul\":11347:11414   */\n      tag_334\n        /* \"#utility.yul\":11411:11413   */\n      0x22\n        /* \"#utility.yul\":11406:11409   */\n      dup4\n        /* \"#utility.yul\":11347:11414   */\n      tag_185\n      jump\t// in\n    tag_334:\n        /* \"#utility.yul\":11340:11414   */\n      swap2\n      pop\n        /* \"#utility.yul\":11423:11516   */\n      tag_335\n        /* \"#utility.yul\":11512:11515   */\n      dup3\n        /* \"#utility.yul\":11423:11516   */\n      tag_215\n      jump\t// in\n    tag_335:\n        /* \"#utility.yul\":11541:11543   */\n      0x40\n        /* \"#utility.yul\":11536:11539   */\n      dup3\n        /* \"#utility.yul\":11532:11544   */\n      add\n        /* \"#utility.yul\":11525:11544   */\n      swap1\n      pop\n        /* \"#utility.yul\":11184:11550   */\n      swap2\n      swap1\n      pop\n      jump\t// out\n        /* \"#utility.yul\":11556:11975   */\n    tag_160:\n        /* \"#utility.yul\":11722:11726   */\n      0x00\n        /* \"#utility.yul\":11760:11762   */\n      0x20\n        /* \"#utility.yul\":11749:11758   */\n      dup3\n        /* \"#utility.yul\":11745:11763   */\n      add\n        /* \"#utility.yul\":11737:11763   */\n      swap1\n      pop\n        /* \"#utility.yul\":11809:11818   */\n      dup2\n        /* \"#utility.yul\":11803:11807   */\n      dup2\n        /* \"#utility.yul\":11799:11819   */\n      sub\n        /* \"#utility.yul\":11795:11796   */\n      0x00\n        /* \"#utility.yul\":11784:11793   */\n      dup4\n        /* \"#utility.yul\":11780:11797   */\n      add\n        /* \"#utility.yul\":11773:11820   */\n      mstore\n        /* \"#utility.yul\":11837:11968   */\n      tag_337\n        /* \"#utility.yul\":11963:11967   */\n      dup2\n        /* \"#utility.yul\":11837:11968   */\n      tag_216\n      jump\t// in\n    tag_337:\n        /* \"#utility.yul\":11829:11968   */\n      swap1\n      pop\n        /* \"#utility.yul\":11556:11975   */\n      swap2\n      swap1\n      pop\n      jump\t// out\n        /* \"#utility.yul\":11981:12160   */\n    tag_217:\n        /* \"#utility.yul\":12121:12152   */\n      0x45524332303a20696e73756666696369656e7420616c6c6f77616e6365000000\n        /* \"#utility.yul\":12117:12118   */\n      0x00\n        /* \"#utility.yul\":12109:12115   */\n      dup3\n        /* \"#utility.yul\":12105:12119   */\n      add\n        /* \"#utility.yul\":12098:12153   */\n      mstore\n        /* \"#utility.yul\":11981:12160   */\n      pop\n      jump\t// out\n        /* \"#utility.yul\":12166:12532   */\n    tag_218:\n        /* \"#utility.yul\":12308:12311   */\n      0x00\n        /* \"#utility.yul\":12329:12396   */\n      tag_340\n        /* \"#utility.yul\":12393:12395   */\n      0x1d\n        /* \"#utility.yul\":12388:12391   */\n      dup4\n        /* \"#utility.yul\":12329:12396   */\n      tag_185\n      jump\t// in\n    tag_340:\n        /* \"#utility.yul\":12322:12396   */\n      swap2\n      pop\n        /* \"#utility.yul\":12405:12498   */\n      tag_341\n        /* \"#utility.yul\":12494:12497   */\n      dup3\n        /* \"#utility.yul\":12405:12498   */\n      tag_217\n      jump\t// in\n    tag_341:\n        /* \"#utility.yul\":12523:12525   */\n      0x20\n        /* \"#utility.yul\":12518:12521   */\n      dup3\n        /* \"#utility.yul\":12514:12526   */\n      add\n        /* \"#utility.yul\":12507:12526   */\n      swap1\n      pop\n        /* \"#utility.yul\":12166:12532   */\n      swap2\n      swap1\n      pop\n      jump\t// out\n        /* \"#utility.yul\":12538:12957   */\n    tag_167:\n        /* \"#utility.yul\":12704:12708   */\n      0x00\n        /* \"#utility.yul\":12742:12744   */\n      0x20\n        /* \"#utility.yul\":12731:12740   */\n      dup3\n        /* \"#utility.yul\":12727:12745   */\n      add\n        /* \"#utility.yul\":12719:12745   */\n      swap1\n      pop\n        /* \"#utility.yul\":12791:12800   */\n      dup2\n        /* \"#utility.yul\":12785:12789   */\n      dup2\n        /* \"#utility.yul\":12781:12801   */\n      sub\n        /* \"#utility.yul\":12777:12778   */\n      0x00\n        /* \"#utility.yul\":12766:12775   */\n      dup4\n        /* \"#utility.yul\":12762:12779   */\n      add\n        /* \"#utility.yul\":12755:12802   */\n      mstore\n        /* \"#utility.yul\":12819:12950   */\n      tag_343\n        /* \"#utility.yul\":12945:12949   */\n      dup2\n        /* \"#utility.yul\":12819:12950   */\n      tag_218\n      jump\t// in\n    tag_343:\n        /* \"#utility.yul\":12811:12950   */\n      swap1\n      pop\n        /* \"#utility.yul\":12538:12957   */\n      swap2\n      swap1\n      pop\n      jump\t// out\n        /* \"#utility.yul\":12963:13187   */\n    tag_219:\n        /* \"#utility.yul\":13103:13137   */\n      0x45524332303a207472616e736665722066726f6d20746865207a65726f206164\n        /* \"#utility.yul\":13099:13100   */\n      0x00\n        /* \"#utility.yul\":13091:13097   */\n      dup3\n        /* \"#utility.yul\":13087:13101   */\n      add\n        /* \"#utility.yul\":13080:13138   */\n      mstore\n        /* \"#utility.yul\":13172:13179   */\n      0x6472657373000000000000000000000000000000000000000000000000000000\n        /* \"#utility.yul\":13167:13169   */\n      0x20\n        /* \"#utility.yul\":13159:13165   */\n      dup3\n        /* \"#utility.yul\":13155:13170   */\n      add\n        /* \"#utility.yul\":13148:13180   */\n      mstore\n        /* \"#utility.yul\":12963:13187   */\n      pop\n      jump\t// out\n        /* \"#utility.yul\":13193:13559   */\n    tag_220:\n        /* \"#utility.yul\":13335:13338   */\n      0x00\n        /* \"#utility.yul\":13356:13423   */\n      tag_346\n        /* \"#utility.yul\":13420:13422   */\n      0x25\n        /* \"#utility.yul\":13415:13418   */\n      dup4\n        /* \"#utility.yul\":13356:13423   */\n      tag_185\n      jump\t// in\n    tag_346:\n        /* \"#utility.yul\":13349:13423   */\n      swap2\n      pop\n        /* \"#utility.yul\":13432:13525   */\n      tag_347\n        /* \"#utility.yul\":13521:13524   */\n      dup3\n        /* \"#utility.yul\":13432:13525   */\n      tag_219\n      jump\t// in\n    tag_347:\n        /* \"#utility.yul\":13550:13552   */\n      0x40\n        /* \"#utility.yul\":13545:13548   */\n      dup3\n        /* \"#utility.yul\":13541:13553   */\n      add\n        /* \"#utility.yul\":13534:13553   */\n      swap1\n      pop\n        /* \"#utility.yul\":13193:13559   */\n      swap2\n      swap1\n      pop\n      jump\t// out\n        /* \"#utility.yul\":13565:13984   */\n    tag_172:\n        /* \"#utility.yul\":13731:13735   */\n      0x00\n        /* \"#utility.yul\":13769:13771   */\n      0x20\n        /* \"#utility.yul\":13758:13767   */\n      dup3\n        /* \"#utility.yul\":13754:13772   */\n      add\n        /* \"#utility.yul\":13746:13772   */\n      swap1\n      pop\n        /* \"#utility.yul\":13818:13827   */\n      dup2\n        /* \"#utility.yul\":13812:13816   */\n      dup2\n        /* \"#utility.yul\":13808:13828   */\n      sub\n        /* \"#utility.yul\":13804:13805   */\n      0x00\n        /* \"#utility.yul\":13793:13802   */\n      dup4\n        /* \"#utility.yul\":13789:13806   */\n      add\n        /* \"#utility.yul\":13782:13829   */\n      mstore\n        /* \"#utility.yul\":13846:13977   */\n      tag_349\n        /* \"#utility.yul\":13972:13976   */\n      dup2\n        /* \"#utility.yul\":13846:13977   */\n      tag_220\n      jump\t// in\n    tag_349:\n        /* \"#utility.yul\":13838:13977   */\n      swap1\n      pop\n        /* \"#utility.yul\":13565:13984   */\n      swap2\n      swap1\n      pop\n      jump\t// out\n        /* \"#utility.yul\":13990:14212   */\n    tag_221:\n        /* \"#utility.yul\":14130:14164   */\n      0x45524332303a207472616e7366657220746f20746865207a65726f2061646472\n        /* \"#utility.yul\":14126:14127   */\n      0x00\n        /* \"#utility.yul\":14118:14124   */\n      dup3\n        /* \"#utility.yul\":14114:14128   */\n      add\n        /* \"#utility.yul\":14107:14165   */\n      mstore\n        /* \"#utility.yul\":14199:14204   */\n      0x6573730000000000000000000000000000000000000000000000000000000000\n        /* \"#utility.yul\":14194:14196   */\n      0x20\n        /* \"#utility.yul\":14186:14192   */\n      dup3\n        /* \"#utility.yul\":14182:14197   */\n      add\n        /* \"#utility.yul\":14175:14205   */\n      mstore\n        /* \"#utility.yul\":13990:14212   */\n      pop\n      jump\t// out\n        /* \"#utility.yul\":14218:14584   */\n    tag_222:\n        /* \"#utility.yul\":14360:14363   */\n      0x00\n        /* \"#utility.yul\":14381:14448   */\n      tag_352\n        /* \"#utility.yul\":14445:14447   */\n      0x23\n        /* \"#utility.yul\":14440:14443   */\n      dup4\n        /* \"#utility.yul\":14381:14448   */\n      tag_185\n      jump\t// in\n    tag_352:\n        /* \"#utility.yul\":14374:14448   */\n      swap2\n      pop\n        /* \"#utility.yul\":14457:14550   */\n      tag_353\n        /* \"#utility.yul\":14546:14549   */\n      dup3\n        /* \"#utility.yul\":14457:14550   */\n      tag_221\n      jump\t// in\n    tag_353:\n        /* \"#utility.yul\":14575:14577   */\n      0x40\n        /* \"#utility.yul\":14570:14573   */\n      dup3\n        /* \"#utility.yul\":14566:14578   */\n      add\n        /* \"#utility.yul\":14559:14578   */\n      swap1\n      pop\n        /* \"#utility.yul\":14218:14584   */\n      swap2\n      swap1\n      pop\n      jump\t// out\n        /* \"#utility.yul\":14590:15009   */\n    tag_175:\n        /* \"#utility.yul\":14756:14760   */\n      0x00\n        /* \"#utility.yul\":14794:14796   */\n      0x20\n        /* \"#utility.yul\":14783:14792   */\n      dup3\n        /* \"#utility.yul\":14779:14797   */\n      add\n        /* \"#utility.yul\":14771:14797   */\n      swap1\n      pop\n        /* \"#utility.yul\":14843:14852   */\n      dup2\n        /* \"#utility.yul\":14837:14841   */\n      dup2\n        /* \"#utility.yul\":14833:14853   */\n      sub\n        /* \"#utility.yul\":14829:14830   */\n      0x00\n        /* \"#utility.yul\":14818:14827   */\n      dup4\n        /* \"#utility.yul\":14814:14831   */\n      add\n        /* \"#utility.yul\":14807:14854   */\n      mstore\n        /* \"#utility.yul\":14871:15002   */\n      tag_355\n        /* \"#utility.yul\":14997:15001   */\n      dup2\n        /* \"#utility.yul\":14871:15002   */\n      tag_222\n      jump\t// in\n    tag_355:\n        /* \"#utility.yul\":14863:15002   */\n      swap1\n      pop\n        /* \"#utility.yul\":14590:15009   */\n      swap2\n      swap1\n      pop\n      jump\t// out\n        /* \"#utility.yul\":15015:15240   */\n    tag_223:\n        /* \"#utility.yul\":15155:15189   */\n      0x45524332303a207472616e7366657220616d6f756e7420657863656564732062\n        /* \"#utility.yul\":15151:15152   */\n      0x00\n        /* \"#utility.yul\":15143:15149   */\n      dup3\n        /* \"#utility.yul\":15139:15153   */\n      add\n        /* \"#utility.yul\":15132:15190   */\n      mstore\n        /* \"#utility.yul\":15224:15232   */\n      0x616c616e63650000000000000000000000000000000000000000000000000000\n        /* \"#utility.yul\":15219:15221   */\n      0x20\n        /* \"#utility.yul\":15211:15217   */\n      dup3\n        /* \"#utility.yul\":15207:15222   */\n      add\n        /* \"#utility.yul\":15200:15233   */\n      mstore\n        /* \"#utility.yul\":15015:15240   */\n      pop\n      jump\t// out\n        /* \"#utility.yul\":15246:15612   */\n    tag_224:\n        /* \"#utility.yul\":15388:15391   */\n      0x00\n        /* \"#utility.yul\":15409:15476   */\n      tag_358\n        /* \"#utility.yul\":15473:15475   */\n      0x26\n        /* \"#utility.yul\":15468:15471   */\n      dup4\n        /* \"#utility.yul\":15409:15476   */\n      tag_185\n      jump\t// in\n    tag_358:\n        /* \"#utility.yul\":15402:15476   */\n      swap2\n      pop\n        /* \"#utility.yul\":15485:15578   */\n      tag_359\n        /* \"#utility.yul\":15574:15577   */\n      dup3\n        /* \"#utility.yul\":15485:15578   */\n      tag_223\n      jump\t// in\n    tag_359:\n        /* \"#utility.yul\":15603:15605   */\n      0x40\n        /* \"#utility.yul\":15598:15601   */\n      dup3\n        /* \"#utility.yul\":15594:15606   */\n      add\n        /* \"#utility.yul\":15587:15606   */\n      swap1\n      pop\n        /* \"#utility.yul\":15246:15612   */\n      swap2\n      swap1\n      pop\n      jump\t// out\n        /* \"#utility.yul\":15618:16037   */\n    tag_179:\n        /* \"#utility.yul\":15784:15788   */\n      0x00\n        /* \"#utility.yul\":15822:15824   */\n      0x20\n        /* \"#utility.yul\":15811:15820   */\n      dup3\n        /* \"#utility.yul\":15807:15825   */\n      add\n        /* \"#utility.yul\":15799:15825   */\n      swap1\n      pop\n        /* \"#utility.yul\":15871:15880   */\n      dup2\n        /* \"#utility.yul\":15865:15869   */\n      dup2\n        /* \"#utility.yul\":15861:15881   */\n      sub\n        /* \"#utility.yul\":15857:15858   */\n      0x00\n        /* \"#utility.yul\":15846:15855   */\n      dup4\n        /* \"#utility.yul\":15842:15859   */\n      add\n        /* \"#utility.yul\":15835:15882   */\n      mstore\n        /* \"#utility.yul\":15899:16030   */\n      tag_361\n        /* \"#utility.yul\":16025:16029   */\n      dup2\n        /* \"#utility.yul\":15899:16030   */\n      tag_224\n      jump\t// in\n    tag_361:\n        /* \"#utility.yul\":15891:16030   */\n      swap1\n      pop\n        /* \"#utility.yul\":15618:16037   */\n      swap2\n      swap1\n      pop\n      jump\t// out\n\n    auxdata: 0xa2646970667358221220e4fb41c7c8efea8b2a154b27e49160a6c15081d7d8a7e4b0374f500b9dab9b4a64736f6c63430008130033\n}\n",
				"bytecode": {
					"linkReferences": {},
					"object": "60806040523480156200001157600080fd5b506040518060400160405280600981526020017f42454153542047454d00000000000000000000000000000000000000000000008152506040518060400160405280600381526020017f42474d000000000000000000000000000000000000000000000000000000000081525081600390816200008f91906200036f565b508060049081620000a191906200036f565b50505033600760006101000a81548173ffffffffffffffffffffffffffffffffffffffff021916908373ffffffffffffffffffffffffffffffffffffffff160217905550620f424060058190555062000456565b600081519050919050565b7f4e487b7100000000000000000000000000000000000000000000000000000000600052604160045260246000fd5b7f4e487b7100000000000000000000000000000000000000000000000000000000600052602260045260246000fd5b600060028204905060018216806200017757607f821691505b6020821081036200018d576200018c6200012f565b5b50919050565b60008190508160005260206000209050919050565b60006020601f8301049050919050565b600082821b905092915050565b600060088302620001f77fffffffffffffffffffffffffffffffffffffffffffffffffffffffffffffffff82620001b8565b620002038683620001b8565b95508019841693508086168417925050509392505050565b6000819050919050565b6000819050919050565b6000620002506200024a62000244846200021b565b62000225565b6200021b565b9050919050565b6000819050919050565b6200026c836200022f565b620002846200027b8262000257565b848454620001c5565b825550505050565b600090565b6200029b6200028c565b620002a881848462000261565b505050565b5b81811015620002d057620002c460008262000291565b600181019050620002ae565b5050565b601f8211156200031f57620002e98162000193565b620002f484620001a8565b8101602085101562000304578190505b6200031c6200031385620001a8565b830182620002ad565b50505b505050565b600082821c905092915050565b6000620003446000198460080262000324565b1980831691505092915050565b60006200035f838362000331565b9150826002028217905092915050565b6200037a82620000f5565b67ffffffffffffffff81111562000396576200039562000100565b5b620003a282546200015e565b620003af828285620002d4565b600060209050601f831160018114620003e75760008415620003d2578287015190505b620003de858262000351565b8655506200044e565b601f198416620003f78662000193565b60005b828110156200042157848901518255600182019150602085019450602081019050620003fa565b868310156200044157848901516200043d601f89168262000331565b8355505b6001600288020188555050505b505050505050565b61166480620004666000396000f3fe6080604052600436106100dd5760003560e01c80634e6ec2471161007f57806395d89b411161005957806395d89b41146102b3578063a457c2d7146102de578063a9059cbb1461031b578063dd62ed3e14610358576100dd565b80634e6ec2471461024357806359296e7b1461026c57806370a0823114610276576100dd565b806323b872dd116100bb57806323b872dd14610175578063313ce567146101b257806339509351146101dd57806340c10f191461021a576100dd565b806306fdde03146100e2578063095ea7b31461010d57806318160ddd1461014a575b600080fd5b3480156100ee57600080fd5b506100f7610395565b6040516101049190610e09565b60405180910390f35b34801561011957600080fd5b50610134600480360381019061012f9190610ec4565b610427565b6040516101419190610f1f565b60405180910390f35b34801561015657600080fd5b5061015f61044a565b60405161016c9190610f49565b60405180910390f35b34801561018157600080fd5b5061019c60048036038101906101979190610f64565b610454565b6040516101a99190610f1f565b60405180910390f35b3480156101be57600080fd5b506101c7610483565b6040516101d49190610fd3565b60405180910390f35b3480156101e957600080fd5b5061020460048036038101906101ff9190610ec4565b61048c565b6040516102119190610f1f565b60405180910390f35b34801561022657600080fd5b50610241600480360381019061023c9190610ec4565b6104c3565b005b34801561024f57600080fd5b5061026a60048036038101906102659190610ec4565b6104d1565b005b610274610627565b005b34801561028257600080fd5b5061029d60048036038101906102989190610fee565b6106a1565b6040516102aa9190610f49565b60405180910390f35b3480156102bf57600080fd5b506102c86106e9565b6040516102d59190610e09565b60405180910390f35b3480156102ea57600080fd5b5061030560048036038101906103009190610ec4565b61077b565b6040516103129190610f1f565b60405180910390f35b34801561032757600080fd5b50610342600480360381019061033d9190610ec4565b6107f2565b60405161034f9190610f1f565b60405180910390f35b34801561036457600080fd5b5061037f600480360381019061037a919061101b565b610815565b60405161038c9190610f49565b60405180910390f35b6060600380546103a49061108a565b80601f01602080910402602001604051908101604052809291908181526020018280546103d09061108a565b801561041d5780601f106103f25761010080835404028352916020019161041d565b820191906000526020600020905b81548152906001019060200180831161040057829003601f168201915b5050505050905090565b60008061043261089c565b905061043f8185856108a4565b600191505092915050565b6000600254905090565b60008061045f61089c565b905061046c858285610a6d565b610477858585610af9565b60019150509392505050565b60006012905090565b60008061049761089c565b90506104b88185856104a98589610815565b6104b391906110ea565b6108a4565b600191505092915050565b6104cd82826104d1565b5050565b600073ffffffffffffffffffffffffffffffffffffffff168273ffffffffffffffffffffffffffffffffffffffff1603610540576040517f08c379a00000000000000000000000000000000000000000000000000000000081526004016105379061116a565b60405180910390fd5b61054c60008383610d6f565b806002600082825461055e91906110ea565b92505081905550806000808473ffffffffffffffffffffffffffffffffffffffff1673ffffffffffffffffffffffffffffffffffffffff168152602001908152602001600020600082825401925050819055508173ffffffffffffffffffffffffffffffffffffffff16600073ffffffffffffffffffffffffffffffffffffffff167fddf252ad1be2c89b69c2b068fc378daa952ba7f163c4a11628f55a4df523b3ef8360405161060f9190610f49565b60405180910390a361062360008383610d74565b5050565b600066038d7ea4c680003461063c91906111b9565b90506005548161064a61044a565b61065491906110ea565b10610694576040517f08c379a000000000000000000000000000000000000000000000000000000000815260040161068b90611236565b60405180910390fd5b61069e33826104c3565b50565b60008060008373ffffffffffffffffffffffffffffffffffffffff1673ffffffffffffffffffffffffffffffffffffffff168152602001908152602001600020549050919050565b6060600480546106f89061108a565b80601f01602080910402602001604051908101604052809291908181526020018280546107249061108a565b80156107715780601f1061074657610100808354040283529160200191610771565b820191906000526020600020905b81548152906001019060200180831161075457829003601f168201915b5050505050905090565b60008061078661089c565b905060006107948286610815565b9050838110156107d9576040517f08c379a00000000000000000000000000000000000000000000000000000000081526004016107d0906112c8565b60405180910390fd5b6107e682868684036108a4565b60019250505092915050565b6000806107fd61089c565b905061080a818585610af9565b600191505092915050565b6000600160008473ffffffffffffffffffffffffffffffffffffffff1673ffffffffffffffffffffffffffffffffffffffff16815260200190815260200160002060008373ffffffffffffffffffffffffffffffffffffffff1673ffffffffffffffffffffffffffffffffffffffff16815260200190815260200160002054905092915050565b600033905090565b600073ffffffffffffffffffffffffffffffffffffffff168373ffffffffffffffffffffffffffffffffffffffff1603610913576040517f08c379a000000000000000000000000000000000000000000000000000000000815260040161090a9061135a565b60405180910390fd5b600073ffffffffffffffffffffffffffffffffffffffff168273ffffffffffffffffffffffffffffffffffffffff1603610982576040517f08c379a0000000000000000000000000000000000000000000000000000000008152600401610979906113ec565b60405180910390fd5b80600160008573ffffffffffffffffffffffffffffffffffffffff1673ffffffffffffffffffffffffffffffffffffffff16815260200190815260200160002060008473ffffffffffffffffffffffffffffffffffffffff1673ffffffffffffffffffffffffffffffffffffffff168152602001908152602001600020819055508173ffffffffffffffffffffffffffffffffffffffff168373ffffffffffffffffffffffffffffffffffffffff167f8c5be1e5ebec7d5bd14f71427d1e84f3dd0314c0f7b2291e5b200ac8c7c3b92583604051610a609190610f49565b60405180910390a3505050565b6000610a798484610815565b90507fffffffffffffffffffffffffffffffffffffffffffffffffffffffffffffffff8114610af35781811015610ae5576040517f08c379a0000000000000000000000000000000000000000000000000000000008152600401610adc90611458565b60405180910390fd5b610af284848484036108a4565b5b50505050565b600073ffffffffffffffffffffffffffffffffffffffff168373ffffffffffffffffffffffffffffffffffffffff1603610b68576040517f08c379a0000000000000000000000000000000000000000000000000000000008152600401610b5f906114ea565b60405180910390fd5b600073ffffffffffffffffffffffffffffffffffffffff168273ffffffffffffffffffffffffffffffffffffffff1603610bd7576040517f08c379a0000000000000000000000000000000000000000000000000000000008152600401610bce9061157c565b60405180910390fd5b610be2838383610d6f565b60008060008573ffffffffffffffffffffffffffffffffffffffff1673ffffffffffffffffffffffffffffffffffffffff16815260200190815260200160002054905081811015610c68576040517f08c379a0000000000000000000000000000000000000000000000000000000008152600401610c5f9061160e565b60405180910390fd5b8181036000808673ffffffffffffffffffffffffffffffffffffffff1673ffffffffffffffffffffffffffffffffffffffff16815260200190815260200160002081905550816000808573ffffffffffffffffffffffffffffffffffffffff1673ffffffffffffffffffffffffffffffffffffffff168152602001908152602001600020600082825401925050819055508273ffffffffffffffffffffffffffffffffffffffff168473ffffffffffffffffffffffffffffffffffffffff167fddf252ad1be2c89b69c2b068fc378daa952ba7f163c4a11628f55a4df523b3ef84604051610d569190610f49565b60405180910390a3610d69848484610d74565b50505050565b505050565b505050565b600081519050919050565b600082825260208201905092915050565b60005b83811015610db3578082015181840152602081019050610d98565b60008484015250505050565b6000601f19601f8301169050919050565b6000610ddb82610d79565b610de58185610d84565b9350610df5818560208601610d95565b610dfe81610dbf565b840191505092915050565b60006020820190508181036000830152610e238184610dd0565b905092915050565b600080fd5b600073ffffffffffffffffffffffffffffffffffffffff82169050919050565b6000610e5b82610e30565b9050919050565b610e6b81610e50565b8114610e7657600080fd5b50565b600081359050610e8881610e62565b92915050565b6000819050919050565b610ea181610e8e565b8114610eac57600080fd5b50565b600081359050610ebe81610e98565b92915050565b60008060408385031215610edb57610eda610e2b565b5b6000610ee985828601610e79565b9250506020610efa85828601610eaf565b9150509250929050565b60008115159050919050565b610f1981610f04565b82525050565b6000602082019050610f346000830184610f10565b92915050565b610f4381610e8e565b82525050565b6000602082019050610f5e6000830184610f3a565b92915050565b600080600060608486031215610f7d57610f7c610e2b565b5b6000610f8b86828701610e79565b9350506020610f9c86828701610e79565b9250506040610fad86828701610eaf565b9150509250925092565b600060ff82169050919050565b610fcd81610fb7565b82525050565b6000602082019050610fe86000830184610fc4565b92915050565b60006020828403121561100457611003610e2b565b5b600061101284828501610e79565b91505092915050565b6000806040838503121561103257611031610e2b565b5b600061104085828601610e79565b925050602061105185828601610e79565b9150509250929050565b7f4e487b7100000000000000000000000000000000000000000000000000000000600052602260045260246000fd5b600060028204905060018216806110a257607f821691505b6020821081036110b5576110b461105b565b5b50919050565b7f4e487b7100000000000000000000000000000000000000000000000000000000600052601160045260246000fd5b60006110f582610e8e565b915061110083610e8e565b9250828201905080821115611118576111176110bb565b5b92915050565b7f45524332303a206d696e7420746f20746865207a65726f206164647265737300600082015250565b6000611154601f83610d84565b915061115f8261111e565b602082019050919050565b6000602082019050818103600083015261118381611147565b9050919050565b7f4e487b7100000000000000000000000000000000000000000000000000000000600052601260045260246000fd5b60006111c482610e8e565b91506111cf83610e8e565b9250826111df576111de61118a565b5b828204905092915050565b7f5761726e696e673a20496e73756666696369656e742047656d73210000000000600082015250565b6000611220601b83610d84565b915061122b826111ea565b602082019050919050565b6000602082019050818103600083015261124f81611213565b9050919050565b7f45524332303a2064656372656173656420616c6c6f77616e63652062656c6f7760008201527f207a65726f000000000000000000000000000000000000000000000000000000602082015250565b60006112b2602583610d84565b91506112bd82611256565b604082019050919050565b600060208201905081810360008301526112e1816112a5565b9050919050565b7f45524332303a20617070726f76652066726f6d20746865207a65726f2061646460008201527f7265737300000000000000000000000000000000000000000000000000000000602082015250565b6000611344602483610d84565b915061134f826112e8565b604082019050919050565b6000602082019050818103600083015261137381611337565b9050919050565b7f45524332303a20617070726f766520746f20746865207a65726f20616464726560008201527f7373000000000000000000000000000000000000000000000000000000000000602082015250565b60006113d6602283610d84565b91506113e18261137a565b604082019050919050565b60006020820190508181036000830152611405816113c9565b9050919050565b7f45524332303a20696e73756666696369656e7420616c6c6f77616e6365000000600082015250565b6000611442601d83610d84565b915061144d8261140c565b602082019050919050565b6000602082019050818103600083015261147181611435565b9050919050565b7f45524332303a207472616e736665722066726f6d20746865207a65726f20616460008201527f6472657373000000000000000000000000000000000000000000000000000000602082015250565b60006114d4602583610d84565b91506114df82611478565b604082019050919050565b60006020820190508181036000830152611503816114c7565b9050919050565b7f45524332303a207472616e7366657220746f20746865207a65726f206164647260008201527f6573730000000000000000000000000000000000000000000000000000000000602082015250565b6000611566602383610d84565b91506115718261150a565b604082019050919050565b6000602082019050818103600083015261159581611559565b9050919050565b7f45524332303a207472616e7366657220616d6f756e742065786365656473206260008201527f616c616e63650000000000000000000000000000000000000000000000000000602082015250565b60006115f8602683610d84565b91506116038261159c565b604082019050919050565b60006020820190508181036000830152611627816115eb565b905091905056fea2646970667358221220e4fb41c7c8efea8b2a154b27e49160a6c15081d7d8a7e4b0374f500b9dab9b4a64736f6c63430008130033",
					"opcodes": "PUSH1 0x80 PUSH1 0x40 MSTORE CALLVALUE DUP1 ISZERO PUSH3 0x11 JUMPI PUSH1 0x0 DUP1 REVERT JUMPDEST POP PUSH1 0x40 MLOAD DUP1 PUSH1 0x40 ADD PUSH1 0x40 MSTORE DUP1 PUSH1 0x9 DUP2 MSTORE PUSH1 0x20 ADD PUSH32 0x42454153542047454D0000000000000000000000000000000000000000000000 DUP2 MSTORE POP PUSH1 0x40 MLOAD DUP1 PUSH1 0x40 ADD PUSH1 0x40 MSTORE DUP1 PUSH1 0x3 DUP2 MSTORE PUSH1 0x20 ADD PUSH32 0x42474D0000000000000000000000000000000000000000000000000000000000 DUP2 MSTORE POP DUP2 PUSH1 0x3 SWAP1 DUP2 PUSH3 0x8F SWAP2 SWAP1 PUSH3 0x36F JUMP JUMPDEST POP DUP1 PUSH1 0x4 SWAP1 DUP2 PUSH3 0xA1 SWAP2 SWAP1 PUSH3 0x36F JUMP JUMPDEST POP POP POP CALLER PUSH1 0x7 PUSH1 0x0 PUSH2 0x100 EXP DUP2 SLOAD DUP2 PUSH20 0xFFFFFFFFFFFFFFFFFFFFFFFFFFFFFFFFFFFFFFFF MUL NOT AND SWAP1 DUP4 PUSH20 0xFFFFFFFFFFFFFFFFFFFFFFFFFFFFFFFFFFFFFFFF AND MUL OR SWAP1 SSTORE POP PUSH3 0xF4240 PUSH1 0x5 DUP2 SWAP1 SSTORE POP PUSH3 0x456 JUMP JUMPDEST PUSH1 0x0 DUP2 MLOAD SWAP1 POP SWAP2 SWAP1 POP JUMP JUMPDEST PUSH32 0x4E487B7100000000000000000000000000000000000000000000000000000000 PUSH1 0x0 MSTORE PUSH1 0x41 PUSH1 0x4 MSTORE PUSH1 0x24 PUSH1 0x0 REVERT JUMPDEST PUSH32 0x4E487B7100000000000000000000000000000000000000000000000000000000 PUSH1 0x0 MSTORE PUSH1 0x22 PUSH1 0x4 MSTORE PUSH1 0x24 PUSH1 0x0 REVERT JUMPDEST PUSH1 0x0 PUSH1 0x2 DUP3 DIV SWAP1 POP PUSH1 0x1 DUP3 AND DUP1 PUSH3 0x177 JUMPI PUSH1 0x7F DUP3 AND SWAP2 POP JUMPDEST PUSH1 0x20 DUP3 LT DUP2 SUB PUSH3 0x18D JUMPI PUSH3 0x18C PUSH3 0x12F JUMP JUMPDEST JUMPDEST POP SWAP2 SWAP1 POP JUMP JUMPDEST PUSH1 0x0 DUP2 SWAP1 POP DUP2 PUSH1 0x0 MSTORE PUSH1 0x20 PUSH1 0x0 KECCAK256 SWAP1 POP SWAP2 SWAP1 POP JUMP JUMPDEST PUSH1 0x0 PUSH1 0x20 PUSH1 0x1F DUP4 ADD DIV SWAP1 POP SWAP2 SWAP1 POP JUMP JUMPDEST PUSH1 0x0 DUP3 DUP3 SHL SWAP1 POP SWAP3 SWAP2 POP POP JUMP JUMPDEST PUSH1 0x0 PUSH1 0x8 DUP4 MUL PUSH3 0x1F7 PUSH32 0xFFFFFFFFFFFFFFFFFFFFFFFFFFFFFFFFFFFFFFFFFFFFFFFFFFFFFFFFFFFFFFFF DUP3 PUSH3 0x1B8 JUMP JUMPDEST PUSH3 0x203 DUP7 DUP4 PUSH3 0x1B8 JUMP JUMPDEST SWAP6 POP DUP1 NOT DUP5 AND SWAP4 POP DUP1 DUP7 AND DUP5 OR SWAP3 POP POP POP SWAP4 SWAP3 POP POP POP JUMP JUMPDEST PUSH1 0x0 DUP2 SWAP1 POP SWAP2 SWAP1 POP JUMP JUMPDEST PUSH1 0x0 DUP2 SWAP1 POP SWAP2 SWAP1 POP JUMP JUMPDEST PUSH1 0x0 PUSH3 0x250 PUSH3 0x24A PUSH3 0x244 DUP5 PUSH3 0x21B JUMP JUMPDEST PUSH3 0x225 JUMP JUMPDEST PUSH3 0x21B JUMP JUMPDEST SWAP1 POP SWAP2 SWAP1 POP JUMP JUMPDEST PUSH1 0x0 DUP2 SWAP1 POP SWAP2 SWAP1 POP JUMP JUMPDEST PUSH3 0x26C DUP4 PUSH3 0x22F JUMP JUMPDEST PUSH3 0x284 PUSH3 0x27B DUP3 PUSH3 0x257 JUMP JUMPDEST DUP5 DUP5 SLOAD PUSH3 0x1C5 JUMP JUMPDEST DUP3 SSTORE POP POP POP POP JUMP JUMPDEST PUSH1 0x0 SWAP1 JUMP JUMPDEST PUSH3 0x29B PUSH3 0x28C JUMP JUMPDEST PUSH3 0x2A8 DUP2 DUP5 DUP5 PUSH3 0x261 JUMP JUMPDEST POP POP POP JUMP JUMPDEST JUMPDEST DUP2 DUP2 LT ISZERO PUSH3 0x2D0 JUMPI PUSH3 0x2C4 PUSH1 0x0 DUP3 PUSH3 0x291 JUMP JUMPDEST PUSH1 0x1 DUP2 ADD SWAP1 POP PUSH3 0x2AE JUMP JUMPDEST POP POP JUMP JUMPDEST PUSH1 0x1F DUP3 GT ISZERO PUSH3 0x31F JUMPI PUSH3 0x2E9 DUP2 PUSH3 0x193 JUMP JUMPDEST PUSH3 0x2F4 DUP5 PUSH3 0x1A8 JUMP JUMPDEST DUP2 ADD PUSH1 0x20 DUP6 LT ISZERO PUSH3 0x304 JUMPI DUP2 SWAP1 POP JUMPDEST PUSH3 0x31C PUSH3 0x313 DUP6 PUSH3 0x1A8 JUMP JUMPDEST DUP4 ADD DUP3 PUSH3 0x2AD JUMP JUMPDEST POP POP JUMPDEST POP POP POP JUMP JUMPDEST PUSH1 0x0 DUP3 DUP3 SHR SWAP1 POP SWAP3 SWAP2 POP POP JUMP JUMPDEST PUSH1 0x0 PUSH3 0x344 PUSH1 0x0 NOT DUP5 PUSH1 0x8 MUL PUSH3 0x324 JUMP JUMPDEST NOT DUP1 DUP4 AND SWAP2 POP POP SWAP3 SWAP2 POP POP JUMP JUMPDEST PUSH1 0x0 PUSH3 0x35F DUP4 DUP4 PUSH3 0x331 JUMP JUMPDEST SWAP2 POP DUP3 PUSH1 0x2 MUL DUP3 OR SWAP1 POP SWAP3 SWAP2 POP POP JUMP JUMPDEST PUSH3 0x37A DUP3 PUSH3 0xF5 JUMP JUMPDEST PUSH8 0xFFFFFFFFFFFFFFFF DUP2 GT ISZERO PUSH3 0x396 JUMPI PUSH3 0x395 PUSH3 0x100 JUMP JUMPDEST JUMPDEST PUSH3 0x3A2 DUP3 SLOAD PUSH3 0x15E JUMP JUMPDEST PUSH3 0x3AF DUP3 DUP3 DUP6 PUSH3 0x2D4 JUMP JUMPDEST PUSH1 0x0 PUSH1 0x20 SWAP1 POP PUSH1 0x1F DUP4 GT PUSH1 0x1 DUP2 EQ PUSH3 0x3E7 JUMPI PUSH1 0x0 DUP5 ISZERO PUSH3 0x3D2 JUMPI DUP3 DUP8 ADD MLOAD SWAP1 POP JUMPDEST PUSH3 0x3DE DUP6 DUP3 PUSH3 0x351 JUMP JUMPDEST DUP7 SSTORE POP PUSH3 0x44E JUMP JUMPDEST PUSH1 0x1F NOT DUP5 AND PUSH3 0x3F7 DUP7 PUSH3 0x193 JUMP JUMPDEST PUSH1 0x0 JUMPDEST DUP3 DUP2 LT ISZERO PUSH3 0x421 JUMPI DUP5 DUP10 ADD MLOAD DUP3 SSTORE PUSH1 0x1 DUP3 ADD SWAP2 POP PUSH1 0x20 DUP6 ADD SWAP5 POP PUSH1 0x20 DUP2 ADD SWAP1 POP PUSH3 0x3FA JUMP JUMPDEST DUP7 DUP4 LT ISZERO PUSH3 0x441 JUMPI DUP5 DUP10 ADD MLOAD PUSH3 0x43D PUSH1 0x1F DUP10 AND DUP3 PUSH3 0x331 JUMP JUMPDEST DUP4 SSTORE POP JUMPDEST PUSH1 0x1 PUSH1 0x2 DUP9 MUL ADD DUP9 SSTORE POP POP POP JUMPDEST POP POP POP POP POP POP JUMP JUMPDEST PUSH2 0x1664 DUP1 PUSH3 0x466 PUSH1 0x0 CODECOPY PUSH1 0x0 RETURN INVALID PUSH1 0x80 PUSH1 0x40 MSTORE PUSH1 0x4 CALLDATASIZE LT PUSH2 0xDD JUMPI PUSH1 0x0 CALLDATALOAD PUSH1 0xE0 SHR DUP1 PUSH4 0x4E6EC247 GT PUSH2 0x7F JUMPI DUP1 PUSH4 0x95D89B41 GT PUSH2 0x59 JUMPI DUP1 PUSH4 0x95D89B41 EQ PUSH2 0x2B3 JUMPI DUP1 PUSH4 0xA457C2D7 EQ PUSH2 0x2DE JUMPI DUP1 PUSH4 0xA9059CBB EQ PUSH2 0x31B JUMPI DUP1 PUSH4 0xDD62ED3E EQ PUSH2 0x358 JUMPI PUSH2 0xDD JUMP JUMPDEST DUP1 PUSH4 0x4E6EC247 EQ PUSH2 0x243 JUMPI DUP1 PUSH4 0x59296E7B EQ PUSH2 0x26C JUMPI DUP1 PUSH4 0x70A08231 EQ PUSH2 0x276 JUMPI PUSH2 0xDD JUMP JUMPDEST DUP1 PUSH4 0x23B872DD GT PUSH2 0xBB JUMPI DUP1 PUSH4 0x23B872DD EQ PUSH2 0x175 JUMPI DUP1 PUSH4 0x313CE567 EQ PUSH2 0x1B2 JUMPI DUP1 PUSH4 0x39509351 EQ PUSH2 0x1DD JUMPI DUP1 PUSH4 0x40C10F19 EQ PUSH2 0x21A JUMPI PUSH2 0xDD JUMP JUMPDEST DUP1 PUSH4 0x6FDDE03 EQ PUSH2 0xE2 JUMPI DUP1 PUSH4 0x95EA7B3 EQ PUSH2 0x10D JUMPI DUP1 PUSH4 0x18160DDD EQ PUSH2 0x14A JUMPI JUMPDEST PUSH1 0x0 DUP1 REVERT JUMPDEST CALLVALUE DUP1 ISZERO PUSH2 0xEE JUMPI PUSH1 0x0 DUP1 REVERT JUMPDEST POP PUSH2 0xF7 PUSH2 0x395 JUMP JUMPDEST PUSH1 0x40 MLOAD PUSH2 0x104 SWAP2 SWAP1 PUSH2 0xE09 JUMP JUMPDEST PUSH1 0x40 MLOAD DUP1 SWAP2 SUB SWAP1 RETURN JUMPDEST CALLVALUE DUP1 ISZERO PUSH2 0x119 JUMPI PUSH1 0x0 DUP1 REVERT JUMPDEST POP PUSH2 0x134 PUSH1 0x4 DUP1 CALLDATASIZE SUB DUP2 ADD SWAP1 PUSH2 0x12F SWAP2 SWAP1 PUSH2 0xEC4 JUMP JUMPDEST PUSH2 0x427 JUMP JUMPDEST PUSH1 0x40 MLOAD PUSH2 0x141 SWAP2 SWAP1 PUSH2 0xF1F JUMP JUMPDEST PUSH1 0x40 MLOAD DUP1 SWAP2 SUB SWAP1 RETURN JUMPDEST CALLVALUE DUP1 ISZERO PUSH2 0x156 JUMPI PUSH1 0x0 DUP1 REVERT JUMPDEST POP PUSH2 0x15F PUSH2 0x44A JUMP JUMPDEST PUSH1 0x40 MLOAD PUSH2 0x16C SWAP2 SWAP1 PUSH2 0xF49 JUMP JUMPDEST PUSH1 0x40 MLOAD DUP1 SWAP2 SUB SWAP1 RETURN JUMPDEST CALLVALUE DUP1 ISZERO PUSH2 0x181 JUMPI PUSH1 0x0 DUP1 REVERT JUMPDEST POP PUSH2 0x19C PUSH1 0x4 DUP1 CALLDATASIZE SUB DUP2 ADD SWAP1 PUSH2 0x197 SWAP2 SWAP1 PUSH2 0xF64 JUMP JUMPDEST PUSH2 0x454 JUMP JUMPDEST PUSH1 0x40 MLOAD PUSH2 0x1A9 SWAP2 SWAP1 PUSH2 0xF1F JUMP JUMPDEST PUSH1 0x40 MLOAD DUP1 SWAP2 SUB SWAP1 RETURN JUMPDEST CALLVALUE DUP1 ISZERO PUSH2 0x1BE JUMPI PUSH1 0x0 DUP1 REVERT JUMPDEST POP PUSH2 0x1C7 PUSH2 0x483 JUMP JUMPDEST PUSH1 0x40 MLOAD PUSH2 0x1D4 SWAP2 SWAP1 PUSH2 0xFD3 JUMP JUMPDEST PUSH1 0x40 MLOAD DUP1 SWAP2 SUB SWAP1 RETURN JUMPDEST CALLVALUE DUP1 ISZERO PUSH2 0x1E9 JUMPI PUSH1 0x0 DUP1 REVERT JUMPDEST POP PUSH2 0x204 PUSH1 0x4 DUP1 CALLDATASIZE SUB DUP2 ADD SWAP1 PUSH2 0x1FF SWAP2 SWAP1 PUSH2 0xEC4 JUMP JUMPDEST PUSH2 0x48C JUMP JUMPDEST PUSH1 0x40 MLOAD PUSH2 0x211 SWAP2 SWAP1 PUSH2 0xF1F JUMP JUMPDEST PUSH1 0x40 MLOAD DUP1 SWAP2 SUB SWAP1 RETURN JUMPDEST CALLVALUE DUP1 ISZERO PUSH2 0x226 JUMPI PUSH1 0x0 DUP1 REVERT JUMPDEST POP PUSH2 0x241 PUSH1 0x4 DUP1 CALLDATASIZE SUB DUP2 ADD SWAP1 PUSH2 0x23C SWAP2 SWAP1 PUSH2 0xEC4 JUMP JUMPDEST PUSH2 0x4C3 JUMP JUMPDEST STOP JUMPDEST CALLVALUE DUP1 ISZERO PUSH2 0x24F JUMPI PUSH1 0x0 DUP1 REVERT JUMPDEST POP PUSH2 0x26A PUSH1 0x4 DUP1 CALLDATASIZE SUB DUP2 ADD SWAP1 PUSH2 0x265 SWAP2 SWAP1 PUSH2 0xEC4 JUMP JUMPDEST PUSH2 0x4D1 JUMP JUMPDEST STOP JUMPDEST PUSH2 0x274 PUSH2 0x627 JUMP JUMPDEST STOP JUMPDEST CALLVALUE DUP1 ISZERO PUSH2 0x282 JUMPI PUSH1 0x0 DUP1 REVERT JUMPDEST POP PUSH2 0x29D PUSH1 0x4 DUP1 CALLDATASIZE SUB DUP2 ADD SWAP1 PUSH2 0x298 SWAP2 SWAP1 PUSH2 0xFEE JUMP JUMPDEST PUSH2 0x6A1 JUMP JUMPDEST PUSH1 0x40 MLOAD PUSH2 0x2AA SWAP2 SWAP1 PUSH2 0xF49 JUMP JUMPDEST PUSH1 0x40 MLOAD DUP1 SWAP2 SUB SWAP1 RETURN JUMPDEST CALLVALUE DUP1 ISZERO PUSH2 0x2BF JUMPI PUSH1 0x0 DUP1 REVERT JUMPDEST POP PUSH2 0x2C8 PUSH2 0x6E9 JUMP JUMPDEST PUSH1 0x40 MLOAD PUSH2 0x2D5 SWAP2 SWAP1 PUSH2 0xE09 JUMP JUMPDEST PUSH1 0x40 MLOAD DUP1 SWAP2 SUB SWAP1 RETURN JUMPDEST CALLVALUE DUP1 ISZERO PUSH2 0x2EA JUMPI PUSH1 0x0 DUP1 REVERT JUMPDEST POP PUSH2 0x305 PUSH1 0x4 DUP1 CALLDATASIZE SUB DUP2 ADD SWAP1 PUSH2 0x300 SWAP2 SWAP1 PUSH2 0xEC4 JUMP JUMPDEST PUSH2 0x77B JUMP JUMPDEST PUSH1 0x40 MLOAD PUSH2 0x312 SWAP2 SWAP1 PUSH2 0xF1F JUMP JUMPDEST PUSH1 0x40 MLOAD DUP1 SWAP2 SUB SWAP1 RETURN JUMPDEST CALLVALUE DUP1 ISZERO PUSH2 0x327 JUMPI PUSH1 0x0 DUP1 REVERT JUMPDEST POP PUSH2 0x342 PUSH1 0x4 DUP1 CALLDATASIZE SUB DUP2 ADD SWAP1 PUSH2 0x33D SWAP2 SWAP1 PUSH2 0xEC4 JUMP JUMPDEST PUSH2 0x7F2 JUMP JUMPDEST PUSH1 0x40 MLOAD PUSH2 0x34F SWAP2 SWAP1 PUSH2 0xF1F JUMP JUMPDEST PUSH1 0x40 MLOAD DUP1 SWAP2 SUB SWAP1 RETURN JUMPDEST CALLVALUE DUP1 ISZERO PUSH2 0x364 JUMPI PUSH1 0x0 DUP1 REVERT JUMPDEST POP PUSH2 0x37F PUSH1 0x4 DUP1 CALLDATASIZE SUB DUP2 ADD SWAP1 PUSH2 0x37A SWAP2 SWAP1 PUSH2 0x101B JUMP JUMPDEST PUSH2 0x815 JUMP JUMPDEST PUSH1 0x40 MLOAD PUSH2 0x38C SWAP2 SWAP1 PUSH2 0xF49 JUMP JUMPDEST PUSH1 0x40 MLOAD DUP1 SWAP2 SUB SWAP1 RETURN JUMPDEST PUSH1 0x60 PUSH1 0x3 DUP1 SLOAD PUSH2 0x3A4 SWAP1 PUSH2 0x108A JUMP JUMPDEST DUP1 PUSH1 0x1F ADD PUSH1 0x20 DUP1 SWAP2 DIV MUL PUSH1 0x20 ADD PUSH1 0x40 MLOAD SWAP1 DUP2 ADD PUSH1 0x40 MSTORE DUP1 SWAP3 SWAP2 SWAP1 DUP2 DUP2 MSTORE PUSH1 0x20 ADD DUP3 DUP1 SLOAD PUSH2 0x3D0 SWAP1 PUSH2 0x108A JUMP JUMPDEST DUP1 ISZERO PUSH2 0x41D JUMPI DUP1 PUSH1 0x1F LT PUSH2 0x3F2 JUMPI PUSH2 0x100 DUP1 DUP4 SLOAD DIV MUL DUP4 MSTORE SWAP2 PUSH1 0x20 ADD SWAP2 PUSH2 0x41D JUMP JUMPDEST DUP3 ADD SWAP2 SWAP1 PUSH1 0x0 MSTORE PUSH1 0x20 PUSH1 0x0 KECCAK256 SWAP1 JUMPDEST DUP2 SLOAD DUP2 MSTORE SWAP1 PUSH1 0x1 ADD SWAP1 PUSH1 0x20 ADD DUP1 DUP4 GT PUSH2 0x400 JUMPI DUP3 SWAP1 SUB PUSH1 0x1F AND DUP3 ADD SWAP2 JUMPDEST POP POP POP POP POP SWAP1 POP SWAP1 JUMP JUMPDEST PUSH1 0x0 DUP1 PUSH2 0x432 PUSH2 0x89C JUMP JUMPDEST SWAP1 POP PUSH2 0x43F DUP2 DUP6 DUP6 PUSH2 0x8A4 JUMP JUMPDEST PUSH1 0x1 SWAP2 POP POP SWAP3 SWAP2 POP POP JUMP JUMPDEST PUSH1 0x0 PUSH1 0x2 SLOAD SWAP1 POP SWAP1 JUMP JUMPDEST PUSH1 0x0 DUP1 PUSH2 0x45F PUSH2 0x89C JUMP JUMPDEST SWAP1 POP PUSH2 0x46C DUP6 DUP3 DUP6 PUSH2 0xA6D JUMP JUMPDEST PUSH2 0x477 DUP6 DUP6 DUP6 PUSH2 0xAF9 JUMP JUMPDEST PUSH1 0x1 SWAP2 POP POP SWAP4 SWAP3 POP POP POP JUMP JUMPDEST PUSH1 0x0 PUSH1 0x12 SWAP1 POP SWAP1 JUMP JUMPDEST PUSH1 0x0 DUP1 PUSH2 0x497 PUSH2 0x89C JUMP JUMPDEST SWAP1 POP PUSH2 0x4B8 DUP2 DUP6 DUP6 PUSH2 0x4A9 DUP6 DUP10 PUSH2 0x815 JUMP JUMPDEST PUSH2 0x4B3 SWAP2 SWAP1 PUSH2 0x10EA JUMP JUMPDEST PUSH2 0x8A4 JUMP JUMPDEST PUSH1 0x1 SWAP2 POP POP SWAP3 SWAP2 POP POP JUMP JUMPDEST PUSH2 0x4CD DUP3 DUP3 PUSH2 0x4D1 JUMP JUMPDEST POP POP JUMP JUMPDEST PUSH1 0x0 PUSH20 0xFFFFFFFFFFFFFFFFFFFFFFFFFFFFFFFFFFFFFFFF AND DUP3 PUSH20 0xFFFFFFFFFFFFFFFFFFFFFFFFFFFFFFFFFFFFFFFF AND SUB PUSH2 0x540 JUMPI PUSH1 0x40 MLOAD PUSH32 0x8C379A000000000000000000000000000000000000000000000000000000000 DUP2 MSTORE PUSH1 0x4 ADD PUSH2 0x537 SWAP1 PUSH2 0x116A JUMP JUMPDEST PUSH1 0x40 MLOAD DUP1 SWAP2 SUB SWAP1 REVERT JUMPDEST PUSH2 0x54C PUSH1 0x0 DUP4 DUP4 PUSH2 0xD6F JUMP JUMPDEST DUP1 PUSH1 0x2 PUSH1 0x0 DUP3 DUP3 SLOAD PUSH2 0x55E SWAP2 SWAP1 PUSH2 0x10EA JUMP JUMPDEST SWAP3 POP POP DUP2 SWAP1 SSTORE POP DUP1 PUSH1 0x0 DUP1 DUP5 PUSH20 0xFFFFFFFFFFFFFFFFFFFFFFFFFFFFFFFFFFFFFFFF AND PUSH20 0xFFFFFFFFFFFFFFFFFFFFFFFFFFFFFFFFFFFFFFFF AND DUP2 MSTORE PUSH1 0x20 ADD SWAP1 DUP2 MSTORE PUSH1 0x20 ADD PUSH1 0x0 KECCAK256 PUSH1 0x0 DUP3 DUP3 SLOAD ADD SWAP3 POP POP DUP2 SWAP1 SSTORE POP DUP2 PUSH20 0xFFFFFFFFFFFFFFFFFFFFFFFFFFFFFFFFFFFFFFFF AND PUSH1 0x0 PUSH20 0xFFFFFFFFFFFFFFFFFFFFFFFFFFFFFFFFFFFFFFFF AND PUSH32 0xDDF252AD1BE2C89B69C2B068FC378DAA952BA7F163C4A11628F55A4DF523B3EF DUP4 PUSH1 0x40 MLOAD PUSH2 0x60F SWAP2 SWAP1 PUSH2 0xF49 JUMP JUMPDEST PUSH1 0x40 MLOAD DUP1 SWAP2 SUB SWAP1 LOG3 PUSH2 0x623 PUSH1 0x0 DUP4 DUP4 PUSH2 0xD74 JUMP JUMPDEST POP POP JUMP JUMPDEST PUSH1 0x0 PUSH7 0x38D7EA4C68000 CALLVALUE PUSH2 0x63C SWAP2 SWAP1 PUSH2 0x11B9 JUMP JUMPDEST SWAP1 POP PUSH1 0x5 SLOAD DUP2 PUSH2 0x64A PUSH2 0x44A JUMP JUMPDEST PUSH2 0x654 SWAP2 SWAP1 PUSH2 0x10EA JUMP JUMPDEST LT PUSH2 0x694 JUMPI PUSH1 0x40 MLOAD PUSH32 0x8C379A000000000000000000000000000000000000000000000000000000000 DUP2 MSTORE PUSH1 0x4 ADD PUSH2 0x68B SWAP1 PUSH2 0x1236 JUMP JUMPDEST PUSH1 0x40 MLOAD DUP1 SWAP2 SUB SWAP1 REVERT JUMPDEST PUSH2 0x69E CALLER DUP3 PUSH2 0x4C3 JUMP JUMPDEST POP JUMP JUMPDEST PUSH1 0x0 DUP1 PUSH1 0x0 DUP4 PUSH20 0xFFFFFFFFFFFFFFFFFFFFFFFFFFFFFFFFFFFFFFFF AND PUSH20 0xFFFFFFFFFFFFFFFFFFFFFFFFFFFFFFFFFFFFFFFF AND DUP2 MSTORE PUSH1 0x20 ADD SWAP1 DUP2 MSTORE PUSH1 0x20 ADD PUSH1 0x0 KECCAK256 SLOAD SWAP1 POP SWAP2 SWAP1 POP JUMP JUMPDEST PUSH1 0x60 PUSH1 0x4 DUP1 SLOAD PUSH2 0x6F8 SWAP1 PUSH2 0x108A JUMP JUMPDEST DUP1 PUSH1 0x1F ADD PUSH1 0x20 DUP1 SWAP2 DIV MUL PUSH1 0x20 ADD PUSH1 0x40 MLOAD SWAP1 DUP2 ADD PUSH1 0x40 MSTORE DUP1 SWAP3 SWAP2 SWAP1 DUP2 DUP2 MSTORE PUSH1 0x20 ADD DUP3 DUP1 SLOAD PUSH2 0x724 SWAP1 PUSH2 0x108A JUMP JUMPDEST DUP1 ISZERO PUSH2 0x771 JUMPI DUP1 PUSH1 0x1F LT PUSH2 0x746 JUMPI PUSH2 0x100 DUP1 DUP4 SLOAD DIV MUL DUP4 MSTORE SWAP2 PUSH1 0x20 ADD SWAP2 PUSH2 0x771 JUMP JUMPDEST DUP3 ADD SWAP2 SWAP1 PUSH1 0x0 MSTORE PUSH1 0x20 PUSH1 0x0 KECCAK256 SWAP1 JUMPDEST DUP2 SLOAD DUP2 MSTORE SWAP1 PUSH1 0x1 ADD SWAP1 PUSH1 0x20 ADD DUP1 DUP4 GT PUSH2 0x754 JUMPI DUP3 SWAP1 SUB PUSH1 0x1F AND DUP3 ADD SWAP2 JUMPDEST POP POP POP POP POP SWAP1 POP SWAP1 JUMP JUMPDEST PUSH1 0x0 DUP1 PUSH2 0x786 PUSH2 0x89C JUMP JUMPDEST SWAP1 POP PUSH1 0x0 PUSH2 0x794 DUP3 DUP7 PUSH2 0x815 JUMP JUMPDEST SWAP1 POP DUP4 DUP2 LT ISZERO PUSH2 0x7D9 JUMPI PUSH1 0x40 MLOAD PUSH32 0x8C379A000000000000000000000000000000000000000000000000000000000 DUP2 MSTORE PUSH1 0x4 ADD PUSH2 0x7D0 SWAP1 PUSH2 0x12C8 JUMP JUMPDEST PUSH1 0x40 MLOAD DUP1 SWAP2 SUB SWAP1 REVERT JUMPDEST PUSH2 0x7E6 DUP3 DUP7 DUP7 DUP5 SUB PUSH2 0x8A4 JUMP JUMPDEST PUSH1 0x1 SWAP3 POP POP POP SWAP3 SWAP2 POP POP JUMP JUMPDEST PUSH1 0x0 DUP1 PUSH2 0x7FD PUSH2 0x89C JUMP JUMPDEST SWAP1 POP PUSH2 0x80A DUP2 DUP6 DUP6 PUSH2 0xAF9 JUMP JUMPDEST PUSH1 0x1 SWAP2 POP POP SWAP3 SWAP2 POP POP JUMP JUMPDEST PUSH1 0x0 PUSH1 0x1 PUSH1 0x0 DUP5 PUSH20 0xFFFFFFFFFFFFFFFFFFFFFFFFFFFFFFFFFFFFFFFF AND PUSH20 0xFFFFFFFFFFFFFFFFFFFFFFFFFFFFFFFFFFFFFFFF AND DUP2 MSTORE PUSH1 0x20 ADD SWAP1 DUP2 MSTORE PUSH1 0x20 ADD PUSH1 0x0 KECCAK256 PUSH1 0x0 DUP4 PUSH20 0xFFFFFFFFFFFFFFFFFFFFFFFFFFFFFFFFFFFFFFFF AND PUSH20 0xFFFFFFFFFFFFFFFFFFFFFFFFFFFFFFFFFFFFFFFF AND DUP2 MSTORE PUSH1 0x20 ADD SWAP1 DUP2 MSTORE PUSH1 0x20 ADD PUSH1 0x0 KECCAK256 SLOAD SWAP1 POP SWAP3 SWAP2 POP POP JUMP JUMPDEST PUSH1 0x0 CALLER SWAP1 POP SWAP1 JUMP JUMPDEST PUSH1 0x0 PUSH20 0xFFFFFFFFFFFFFFFFFFFFFFFFFFFFFFFFFFFFFFFF AND DUP4 PUSH20 0xFFFFFFFFFFFFFFFFFFFFFFFFFFFFFFFFFFFFFFFF AND SUB PUSH2 0x913 JUMPI PUSH1 0x40 MLOAD PUSH32 0x8C379A000000000000000000000000000000000000000000000000000000000 DUP2 MSTORE PUSH1 0x4 ADD PUSH2 0x90A SWAP1 PUSH2 0x135A JUMP JUMPDEST PUSH1 0x40 MLOAD DUP1 SWAP2 SUB SWAP1 REVERT JUMPDEST PUSH1 0x0 PUSH20 0xFFFFFFFFFFFFFFFFFFFFFFFFFFFFFFFFFFFFFFFF AND DUP3 PUSH20 0xFFFFFFFFFFFFFFFFFFFFFFFFFFFFFFFFFFFFFFFF AND SUB PUSH2 0x982 JUMPI PUSH1 0x40 MLOAD PUSH32 0x8C379A000000000000000000000000000000000000000000000000000000000 DUP2 MSTORE PUSH1 0x4 ADD PUSH2 0x979 SWAP1 PUSH2 0x13EC JUMP JUMPDEST PUSH1 0x40 MLOAD DUP1 SWAP2 SUB SWAP1 REVERT JUMPDEST DUP1 PUSH1 0x1 PUSH1 0x0 DUP6 PUSH20 0xFFFFFFFFFFFFFFFFFFFFFFFFFFFFFFFFFFFFFFFF AND PUSH20 0xFFFFFFFFFFFFFFFFFFFFFFFFFFFFFFFFFFFFFFFF AND DUP2 MSTORE PUSH1 0x20 ADD SWAP1 DUP2 MSTORE PUSH1 0x20 ADD PUSH1 0x0 KECCAK256 PUSH1 0x0 DUP5 PUSH20 0xFFFFFFFFFFFFFFFFFFFFFFFFFFFFFFFFFFFFFFFF AND PUSH20 0xFFFFFFFFFFFFFFFFFFFFFFFFFFFFFFFFFFFFFFFF AND DUP2 MSTORE PUSH1 0x20 ADD SWAP1 DUP2 MSTORE PUSH1 0x20 ADD PUSH1 0x0 KECCAK256 DUP2 SWAP1 SSTORE POP DUP2 PUSH20 0xFFFFFFFFFFFFFFFFFFFFFFFFFFFFFFFFFFFFFFFF AND DUP4 PUSH20 0xFFFFFFFFFFFFFFFFFFFFFFFFFFFFFFFFFFFFFFFF AND PUSH32 0x8C5BE1E5EBEC7D5BD14F71427D1E84F3DD0314C0F7B2291E5B200AC8C7C3B925 DUP4 PUSH1 0x40 MLOAD PUSH2 0xA60 SWAP2 SWAP1 PUSH2 0xF49 JUMP JUMPDEST PUSH1 0x40 MLOAD DUP1 SWAP2 SUB SWAP1 LOG3 POP POP POP JUMP JUMPDEST PUSH1 0x0 PUSH2 0xA79 DUP5 DUP5 PUSH2 0x815 JUMP JUMPDEST SWAP1 POP PUSH32 0xFFFFFFFFFFFFFFFFFFFFFFFFFFFFFFFFFFFFFFFFFFFFFFFFFFFFFFFFFFFFFFFF DUP2 EQ PUSH2 0xAF3 JUMPI DUP2 DUP2 LT ISZERO PUSH2 0xAE5 JUMPI PUSH1 0x40 MLOAD PUSH32 0x8C379A000000000000000000000000000000000000000000000000000000000 DUP2 MSTORE PUSH1 0x4 ADD PUSH2 0xADC SWAP1 PUSH2 0x1458 JUMP JUMPDEST PUSH1 0x40 MLOAD DUP1 SWAP2 SUB SWAP1 REVERT JUMPDEST PUSH2 0xAF2 DUP5 DUP5 DUP5 DUP5 SUB PUSH2 0x8A4 JUMP JUMPDEST JUMPDEST POP POP POP POP JUMP JUMPDEST PUSH1 0x0 PUSH20 0xFFFFFFFFFFFFFFFFFFFFFFFFFFFFFFFFFFFFFFFF AND DUP4 PUSH20 0xFFFFFFFFFFFFFFFFFFFFFFFFFFFFFFFFFFFFFFFF AND SUB PUSH2 0xB68 JUMPI PUSH1 0x40 MLOAD PUSH32 0x8C379A000000000000000000000000000000000000000000000000000000000 DUP2 MSTORE PUSH1 0x4 ADD PUSH2 0xB5F SWAP1 PUSH2 0x14EA JUMP JUMPDEST PUSH1 0x40 MLOAD DUP1 SWAP2 SUB SWAP1 REVERT JUMPDEST PUSH1 0x0 PUSH20 0xFFFFFFFFFFFFFFFFFFFFFFFFFFFFFFFFFFFFFFFF AND DUP3 PUSH20 0xFFFFFFFFFFFFFFFFFFFFFFFFFFFFFFFFFFFFFFFF AND SUB PUSH2 0xBD7 JUMPI PUSH1 0x40 MLOAD PUSH32 0x8C379A000000000000000000000000000000000000000000000000000000000 DUP2 MSTORE PUSH1 0x4 ADD PUSH2 0xBCE SWAP1 PUSH2 0x157C JUMP JUMPDEST PUSH1 0x40 MLOAD DUP1 SWAP2 SUB SWAP1 REVERT JUMPDEST PUSH2 0xBE2 DUP4 DUP4 DUP4 PUSH2 0xD6F JUMP JUMPDEST PUSH1 0x0 DUP1 PUSH1 0x0 DUP6 PUSH20 0xFFFFFFFFFFFFFFFFFFFFFFFFFFFFFFFFFFFFFFFF AND PUSH20 0xFFFFFFFFFFFFFFFFFFFFFFFFFFFFFFFFFFFFFFFF AND DUP2 MSTORE PUSH1 0x20 ADD SWAP1 DUP2 MSTORE PUSH1 0x20 ADD PUSH1 0x0 KECCAK256 SLOAD SWAP1 POP DUP2 DUP2 LT ISZERO PUSH2 0xC68 JUMPI PUSH1 0x40 MLOAD PUSH32 0x8C379A000000000000000000000000000000000000000000000000000000000 DUP2 MSTORE PUSH1 0x4 ADD PUSH2 0xC5F SWAP1 PUSH2 0x160E JUMP JUMPDEST PUSH1 0x40 MLOAD DUP1 SWAP2 SUB SWAP1 REVERT JUMPDEST DUP2 DUP2 SUB PUSH1 0x0 DUP1 DUP7 PUSH20 0xFFFFFFFFFFFFFFFFFFFFFFFFFFFFFFFFFFFFFFFF AND PUSH20 0xFFFFFFFFFFFFFFFFFFFFFFFFFFFFFFFFFFFFFFFF AND DUP2 MSTORE PUSH1 0x20 ADD SWAP1 DUP2 MSTORE PUSH1 0x20 ADD PUSH1 0x0 KECCAK256 DUP2 SWAP1 SSTORE POP DUP2 PUSH1 0x0 DUP1 DUP6 PUSH20 0xFFFFFFFFFFFFFFFFFFFFFFFFFFFFFFFFFFFFFFFF AND PUSH20 0xFFFFFFFFFFFFFFFFFFFFFFFFFFFFFFFFFFFFFFFF AND DUP2 MSTORE PUSH1 0x20 ADD SWAP1 DUP2 MSTORE PUSH1 0x20 ADD PUSH1 0x0 KECCAK256 PUSH1 0x0 DUP3 DUP3 SLOAD ADD SWAP3 POP POP DUP2 SWAP1 SSTORE POP DUP3 PUSH20 0xFFFFFFFFFFFFFFFFFFFFFFFFFFFFFFFFFFFFFFFF AND DUP5 PUSH20 0xFFFFFFFFFFFFFFFFFFFFFFFFFFFFFFFFFFFFFFFF AND PUSH32 0xDDF252AD1BE2C89B69C2B068FC378DAA952BA7F163C4A11628F55A4DF523B3EF DUP5 PUSH1 0x40 MLOAD PUSH2 0xD56 SWAP2 SWAP1 PUSH2 0xF49 JUMP JUMPDEST PUSH1 0x40 MLOAD DUP1 SWAP2 SUB SWAP1 LOG3 PUSH2 0xD69 DUP5 DUP5 DUP5 PUSH2 0xD74 JUMP JUMPDEST POP POP POP POP JUMP JUMPDEST POP POP POP JUMP JUMPDEST POP POP POP JUMP JUMPDEST PUSH1 0x0 DUP2 MLOAD SWAP1 POP SWAP2 SWAP1 POP JUMP JUMPDEST PUSH1 0x0 DUP3 DUP3 MSTORE PUSH1 0x20 DUP3 ADD SWAP1 POP SWAP3 SWAP2 POP POP JUMP JUMPDEST PUSH1 0x0 JUMPDEST DUP4 DUP2 LT ISZERO PUSH2 0xDB3 JUMPI DUP1 DUP3 ADD MLOAD DUP2 DUP5 ADD MSTORE PUSH1 0x20 DUP2 ADD SWAP1 POP PUSH2 0xD98 JUMP JUMPDEST PUSH1 0x0 DUP5 DUP5 ADD MSTORE POP POP POP POP JUMP JUMPDEST PUSH1 0x0 PUSH1 0x1F NOT PUSH1 0x1F DUP4 ADD AND SWAP1 POP SWAP2 SWAP1 POP JUMP JUMPDEST PUSH1 0x0 PUSH2 0xDDB DUP3 PUSH2 0xD79 JUMP JUMPDEST PUSH2 0xDE5 DUP2 DUP6 PUSH2 0xD84 JUMP JUMPDEST SWAP4 POP PUSH2 0xDF5 DUP2 DUP6 PUSH1 0x20 DUP7 ADD PUSH2 0xD95 JUMP JUMPDEST PUSH2 0xDFE DUP2 PUSH2 0xDBF JUMP JUMPDEST DUP5 ADD SWAP2 POP POP SWAP3 SWAP2 POP POP JUMP JUMPDEST PUSH1 0x0 PUSH1 0x20 DUP3 ADD SWAP1 POP DUP2 DUP2 SUB PUSH1 0x0 DUP4 ADD MSTORE PUSH2 0xE23 DUP2 DUP5 PUSH2 0xDD0 JUMP JUMPDEST SWAP1 POP SWAP3 SWAP2 POP POP JUMP JUMPDEST PUSH1 0x0 DUP1 REVERT JUMPDEST PUSH1 0x0 PUSH20 0xFFFFFFFFFFFFFFFFFFFFFFFFFFFFFFFFFFFFFFFF DUP3 AND SWAP1 POP SWAP2 SWAP1 POP JUMP JUMPDEST PUSH1 0x0 PUSH2 0xE5B DUP3 PUSH2 0xE30 JUMP JUMPDEST SWAP1 POP SWAP2 SWAP1 POP JUMP JUMPDEST PUSH2 0xE6B DUP2 PUSH2 0xE50 JUMP JUMPDEST DUP2 EQ PUSH2 0xE76 JUMPI PUSH1 0x0 DUP1 REVERT JUMPDEST POP JUMP JUMPDEST PUSH1 0x0 DUP2 CALLDATALOAD SWAP1 POP PUSH2 0xE88 DUP2 PUSH2 0xE62 JUMP JUMPDEST SWAP3 SWAP2 POP POP JUMP JUMPDEST PUSH1 0x0 DUP2 SWAP1 POP SWAP2 SWAP1 POP JUMP JUMPDEST PUSH2 0xEA1 DUP2 PUSH2 0xE8E JUMP JUMPDEST DUP2 EQ PUSH2 0xEAC JUMPI PUSH1 0x0 DUP1 REVERT JUMPDEST POP JUMP JUMPDEST PUSH1 0x0 DUP2 CALLDATALOAD SWAP1 POP PUSH2 0xEBE DUP2 PUSH2 0xE98 JUMP JUMPDEST SWAP3 SWAP2 POP POP JUMP JUMPDEST PUSH1 0x0 DUP1 PUSH1 0x40 DUP4 DUP6 SUB SLT ISZERO PUSH2 0xEDB JUMPI PUSH2 0xEDA PUSH2 0xE2B JUMP JUMPDEST JUMPDEST PUSH1 0x0 PUSH2 0xEE9 DUP6 DUP3 DUP7 ADD PUSH2 0xE79 JUMP JUMPDEST SWAP3 POP POP PUSH1 0x20 PUSH2 0xEFA DUP6 DUP3 DUP7 ADD PUSH2 0xEAF JUMP JUMPDEST SWAP2 POP POP SWAP3 POP SWAP3 SWAP1 POP JUMP JUMPDEST PUSH1 0x0 DUP2 ISZERO ISZERO SWAP1 POP SWAP2 SWAP1 POP JUMP JUMPDEST PUSH2 0xF19 DUP2 PUSH2 0xF04 JUMP JUMPDEST DUP3 MSTORE POP POP JUMP JUMPDEST PUSH1 0x0 PUSH1 0x20 DUP3 ADD SWAP1 POP PUSH2 0xF34 PUSH1 0x0 DUP4 ADD DUP5 PUSH2 0xF10 JUMP JUMPDEST SWAP3 SWAP2 POP POP JUMP JUMPDEST PUSH2 0xF43 DUP2 PUSH2 0xE8E JUMP JUMPDEST DUP3 MSTORE POP POP JUMP JUMPDEST PUSH1 0x0 PUSH1 0x20 DUP3 ADD SWAP1 POP PUSH2 0xF5E PUSH1 0x0 DUP4 ADD DUP5 PUSH2 0xF3A JUMP JUMPDEST SWAP3 SWAP2 POP POP JUMP JUMPDEST PUSH1 0x0 DUP1 PUSH1 0x0 PUSH1 0x60 DUP5 DUP7 SUB SLT ISZERO PUSH2 0xF7D JUMPI PUSH2 0xF7C PUSH2 0xE2B JUMP JUMPDEST JUMPDEST PUSH1 0x0 PUSH2 0xF8B DUP7 DUP3 DUP8 ADD PUSH2 0xE79 JUMP JUMPDEST SWAP4 POP POP PUSH1 0x20 PUSH2 0xF9C DUP7 DUP3 DUP8 ADD PUSH2 0xE79 JUMP JUMPDEST SWAP3 POP POP PUSH1 0x40 PUSH2 0xFAD DUP7 DUP3 DUP8 ADD PUSH2 0xEAF JUMP JUMPDEST SWAP2 POP POP SWAP3 POP SWAP3 POP SWAP3 JUMP JUMPDEST PUSH1 0x0 PUSH1 0xFF DUP3 AND SWAP1 POP SWAP2 SWAP1 POP JUMP JUMPDEST PUSH2 0xFCD DUP2 PUSH2 0xFB7 JUMP JUMPDEST DUP3 MSTORE POP POP JUMP JUMPDEST PUSH1 0x0 PUSH1 0x20 DUP3 ADD SWAP1 POP PUSH2 0xFE8 PUSH1 0x0 DUP4 ADD DUP5 PUSH2 0xFC4 JUMP JUMPDEST SWAP3 SWAP2 POP POP JUMP JUMPDEST PUSH1 0x0 PUSH1 0x20 DUP3 DUP5 SUB SLT ISZERO PUSH2 0x1004 JUMPI PUSH2 0x1003 PUSH2 0xE2B JUMP JUMPDEST JUMPDEST PUSH1 0x0 PUSH2 0x1012 DUP5 DUP3 DUP6 ADD PUSH2 0xE79 JUMP JUMPDEST SWAP2 POP POP SWAP3 SWAP2 POP POP JUMP JUMPDEST PUSH1 0x0 DUP1 PUSH1 0x40 DUP4 DUP6 SUB SLT ISZERO PUSH2 0x1032 JUMPI PUSH2 0x1031 PUSH2 0xE2B JUMP JUMPDEST JUMPDEST PUSH1 0x0 PUSH2 0x1040 DUP6 DUP3 DUP7 ADD PUSH2 0xE79 JUMP JUMPDEST SWAP3 POP POP PUSH1 0x20 PUSH2 0x1051 DUP6 DUP3 DUP7 ADD PUSH2 0xE79 JUMP JUMPDEST SWAP2 POP POP SWAP3 POP SWAP3 SWAP1 POP JUMP JUMPDEST PUSH32 0x4E487B7100000000000000000000000000000000000000000000000000000000 PUSH1 0x0 MSTORE PUSH1 0x22 PUSH1 0x4 MSTORE PUSH1 0x24 PUSH1 0x0 REVERT JUMPDEST PUSH1 0x0 PUSH1 0x2 DUP3 DIV SWAP1 POP PUSH1 0x1 DUP3 AND DUP1 PUSH2 0x10A2 JUMPI PUSH1 0x7F DUP3 AND SWAP2 POP JUMPDEST PUSH1 0x20 DUP3 LT DUP2 SUB PUSH2 0x10B5 JUMPI PUSH2 0x10B4 PUSH2 0x105B JUMP JUMPDEST JUMPDEST POP SWAP2 SWAP1 POP JUMP JUMPDEST PUSH32 0x4E487B7100000000000000000000000000000000000000000000000000000000 PUSH1 0x0 MSTORE PUSH1 0x11 PUSH1 0x4 MSTORE PUSH1 0x24 PUSH1 0x0 REVERT JUMPDEST PUSH1 0x0 PUSH2 0x10F5 DUP3 PUSH2 0xE8E JUMP JUMPDEST SWAP2 POP PUSH2 0x1100 DUP4 PUSH2 0xE8E JUMP JUMPDEST SWAP3 POP DUP3 DUP3 ADD SWAP1 POP DUP1 DUP3 GT ISZERO PUSH2 0x1118 JUMPI PUSH2 0x1117 PUSH2 0x10BB JUMP JUMPDEST JUMPDEST SWAP3 SWAP2 POP POP JUMP JUMPDEST PUSH32 0x45524332303A206D696E7420746F20746865207A65726F206164647265737300 PUSH1 0x0 DUP3 ADD MSTORE POP JUMP JUMPDEST PUSH1 0x0 PUSH2 0x1154 PUSH1 0x1F DUP4 PUSH2 0xD84 JUMP JUMPDEST SWAP2 POP PUSH2 0x115F DUP3 PUSH2 0x111E JUMP JUMPDEST PUSH1 0x20 DUP3 ADD SWAP1 POP SWAP2 SWAP1 POP JUMP JUMPDEST PUSH1 0x0 PUSH1 0x20 DUP3 ADD SWAP1 POP DUP2 DUP2 SUB PUSH1 0x0 DUP4 ADD MSTORE PUSH2 0x1183 DUP2 PUSH2 0x1147 JUMP JUMPDEST SWAP1 POP SWAP2 SWAP1 POP JUMP JUMPDEST PUSH32 0x4E487B7100000000000000000000000000000000000000000000000000000000 PUSH1 0x0 MSTORE PUSH1 0x12 PUSH1 0x4 MSTORE PUSH1 0x24 PUSH1 0x0 REVERT JUMPDEST PUSH1 0x0 PUSH2 0x11C4 DUP3 PUSH2 0xE8E JUMP JUMPDEST SWAP2 POP PUSH2 0x11CF DUP4 PUSH2 0xE8E JUMP JUMPDEST SWAP3 POP DUP3 PUSH2 0x11DF JUMPI PUSH2 0x11DE PUSH2 0x118A JUMP JUMPDEST JUMPDEST DUP3 DUP3 DIV SWAP1 POP SWAP3 SWAP2 POP POP JUMP JUMPDEST PUSH32 0x5761726E696E673A20496E73756666696369656E742047656D73210000000000 PUSH1 0x0 DUP3 ADD MSTORE POP JUMP JUMPDEST PUSH1 0x0 PUSH2 0x1220 PUSH1 0x1B DUP4 PUSH2 0xD84 JUMP JUMPDEST SWAP2 POP PUSH2 0x122B DUP3 PUSH2 0x11EA JUMP JUMPDEST PUSH1 0x20 DUP3 ADD SWAP1 POP SWAP2 SWAP1 POP JUMP JUMPDEST PUSH1 0x0 PUSH1 0x20 DUP3 ADD SWAP1 POP DUP2 DUP2 SUB PUSH1 0x0 DUP4 ADD MSTORE PUSH2 0x124F DUP2 PUSH2 0x1213 JUMP JUMPDEST SWAP1 POP SWAP2 SWAP1 POP JUMP JUMPDEST PUSH32 0x45524332303A2064656372656173656420616C6C6F77616E63652062656C6F77 PUSH1 0x0 DUP3 ADD MSTORE PUSH32 0x207A65726F000000000000000000000000000000000000000000000000000000 PUSH1 0x20 DUP3 ADD MSTORE POP JUMP JUMPDEST PUSH1 0x0 PUSH2 0x12B2 PUSH1 0x25 DUP4 PUSH2 0xD84 JUMP JUMPDEST SWAP2 POP PUSH2 0x12BD DUP3 PUSH2 0x1256 JUMP JUMPDEST PUSH1 0x40 DUP3 ADD SWAP1 POP SWAP2 SWAP1 POP JUMP JUMPDEST PUSH1 0x0 PUSH1 0x20 DUP3 ADD SWAP1 POP DUP2 DUP2 SUB PUSH1 0x0 DUP4 ADD MSTORE PUSH2 0x12E1 DUP2 PUSH2 0x12A5 JUMP JUMPDEST SWAP1 POP SWAP2 SWAP1 POP JUMP JUMPDEST PUSH32 0x45524332303A20617070726F76652066726F6D20746865207A65726F20616464 PUSH1 0x0 DUP3 ADD MSTORE PUSH32 0x7265737300000000000000000000000000000000000000000000000000000000 PUSH1 0x20 DUP3 ADD MSTORE POP JUMP JUMPDEST PUSH1 0x0 PUSH2 0x1344 PUSH1 0x24 DUP4 PUSH2 0xD84 JUMP JUMPDEST SWAP2 POP PUSH2 0x134F DUP3 PUSH2 0x12E8 JUMP JUMPDEST PUSH1 0x40 DUP3 ADD SWAP1 POP SWAP2 SWAP1 POP JUMP JUMPDEST PUSH1 0x0 PUSH1 0x20 DUP3 ADD SWAP1 POP DUP2 DUP2 SUB PUSH1 0x0 DUP4 ADD MSTORE PUSH2 0x1373 DUP2 PUSH2 0x1337 JUMP JUMPDEST SWAP1 POP SWAP2 SWAP1 POP JUMP JUMPDEST PUSH32 0x45524332303A20617070726F766520746F20746865207A65726F206164647265 PUSH1 0x0 DUP3 ADD MSTORE PUSH32 0x7373000000000000000000000000000000000000000000000000000000000000 PUSH1 0x20 DUP3 ADD MSTORE POP JUMP JUMPDEST PUSH1 0x0 PUSH2 0x13D6 PUSH1 0x22 DUP4 PUSH2 0xD84 JUMP JUMPDEST SWAP2 POP PUSH2 0x13E1 DUP3 PUSH2 0x137A JUMP JUMPDEST PUSH1 0x40 DUP3 ADD SWAP1 POP SWAP2 SWAP1 POP JUMP JUMPDEST PUSH1 0x0 PUSH1 0x20 DUP3 ADD SWAP1 POP DUP2 DUP2 SUB PUSH1 0x0 DUP4 ADD MSTORE PUSH2 0x1405 DUP2 PUSH2 0x13C9 JUMP JUMPDEST SWAP1 POP SWAP2 SWAP1 POP JUMP JUMPDEST PUSH32 0x45524332303A20696E73756666696369656E7420616C6C6F77616E6365000000 PUSH1 0x0 DUP3 ADD MSTORE POP JUMP JUMPDEST PUSH1 0x0 PUSH2 0x1442 PUSH1 0x1D DUP4 PUSH2 0xD84 JUMP JUMPDEST SWAP2 POP PUSH2 0x144D DUP3 PUSH2 0x140C JUMP JUMPDEST PUSH1 0x20 DUP3 ADD SWAP1 POP SWAP2 SWAP1 POP JUMP JUMPDEST PUSH1 0x0 PUSH1 0x20 DUP3 ADD SWAP1 POP DUP2 DUP2 SUB PUSH1 0x0 DUP4 ADD MSTORE PUSH2 0x1471 DUP2 PUSH2 0x1435 JUMP JUMPDEST SWAP1 POP SWAP2 SWAP1 POP JUMP JUMPDEST PUSH32 0x45524332303A207472616E736665722066726F6D20746865207A65726F206164 PUSH1 0x0 DUP3 ADD MSTORE PUSH32 0x6472657373000000000000000000000000000000000000000000000000000000 PUSH1 0x20 DUP3 ADD MSTORE POP JUMP JUMPDEST PUSH1 0x0 PUSH2 0x14D4 PUSH1 0x25 DUP4 PUSH2 0xD84 JUMP JUMPDEST SWAP2 POP PUSH2 0x14DF DUP3 PUSH2 0x1478 JUMP JUMPDEST PUSH1 0x40 DUP3 ADD SWAP1 POP SWAP2 SWAP1 POP JUMP JUMPDEST PUSH1 0x0 PUSH1 0x20 DUP3 ADD SWAP1 POP DUP2 DUP2 SUB PUSH1 0x0 DUP4 ADD MSTORE PUSH2 0x1503 DUP2 PUSH2 0x14C7 JUMP JUMPDEST SWAP1 POP SWAP2 SWAP1 POP JUMP JUMPDEST PUSH32 0x45524332303A207472616E7366657220746F20746865207A65726F2061646472 PUSH1 0x0 DUP3 ADD MSTORE PUSH32 0x6573730000000000000000000000000000000000000000000000000000000000 PUSH1 0x20 DUP3 ADD MSTORE POP JUMP JUMPDEST PUSH1 0x0 PUSH2 0x1566 PUSH1 0x23 DUP4 PUSH2 0xD84 JUMP JUMPDEST SWAP2 POP PUSH2 0x1571 DUP3 PUSH2 0x150A JUMP JUMPDEST PUSH1 0x40 DUP3 ADD SWAP1 POP SWAP2 SWAP1 POP JUMP JUMPDEST PUSH1 0x0 PUSH1 0x20 DUP3 ADD SWAP1 POP DUP2 DUP2 SUB PUSH1 0x0 DUP4 ADD MSTORE PUSH2 0x1595 DUP2 PUSH2 0x1559 JUMP JUMPDEST SWAP1 POP SWAP2 SWAP1 POP JUMP JUMPDEST PUSH32 0x45524332303A207472616E7366657220616D6F756E7420657863656564732062 PUSH1 0x0 DUP3 ADD MSTORE PUSH32 0x616C616E63650000000000000000000000000000000000000000000000000000 PUSH1 0x20 DUP3 ADD MSTORE POP JUMP JUMPDEST PUSH1 0x0 PUSH2 0x15F8 PUSH1 0x26 DUP4 PUSH2 0xD84 JUMP JUMPDEST SWAP2 POP PUSH2 0x1603 DUP3 PUSH2 0x159C JUMP JUMPDEST PUSH1 0x40 DUP3 ADD SWAP1 POP SWAP2 SWAP1 POP JUMP JUMPDEST PUSH1 0x0 PUSH1 0x20 DUP3 ADD SWAP1 POP DUP2 DUP2 SUB PUSH1 0x0 DUP4 ADD MSTORE PUSH2 0x1627 DUP2 PUSH2 0x15EB JUMP JUMPDEST SWAP1 POP SWAP2 SWAP1 POP JUMP INVALID LOG2 PUSH5 0x6970667358 0x22 SLT KECCAK256 0xE4 0xFB COINBASE 0xC7 0xC8 0xEF 0xEA DUP12 0x2A ISZERO 0x4B 0x27 0xE4 SWAP2 PUSH1 0xA6 0xC1 POP DUP2 0xD7 0xD8 0xA7 0xE4 0xB0 CALLDATACOPY 0x4F POP SIGNEXTEND SWAP14 0xAB SWAP12 0x4A PUSH5 0x736F6C6343 STOP ADDMOD SGT STOP CALLER "
				},
				"gasEstimates": {
					"creation": {
						"codeDepositCost": "1146400",
						"executionCost": "infinite",
						"totalCost": "infinite"
					},
					"external": {
						"_mint(address,uint256)": "infinite",
						"allowance(address,address)": "infinite",
						"approve(address,uint256)": "infinite",
						"balanceOf(address)": "2908",
						"decimals()": "388",
						"decreaseAllowance(address,uint256)": "infinite",
						"getCredit()": "infinite",
						"increaseAllowance(address,uint256)": "infinite",
						"mint(address,uint256)": "infinite",
						"name()": "infinite",
						"symbol()": "infinite",
						"totalSupply()": "2505",
						"transfer(address,uint256)": "infinite",
						"transferFrom(address,address,uint256)": "infinite"
					}
				},
				"methodIdentifiers": {
					"_mint(address,uint256)": "4e6ec247",
					"allowance(address,address)": "dd62ed3e",
					"approve(address,uint256)": "095ea7b3",
					"balanceOf(address)": "70a08231",
					"decimals()": "313ce567",
					"decreaseAllowance(address,uint256)": "a457c2d7",
					"getCredit()": "59296e7b",
					"increaseAllowance(address,uint256)": "39509351",
					"mint(address,uint256)": "40c10f19",
					"name()": "06fdde03",
					"symbol()": "95d89b41",
					"totalSupply()": "18160ddd",
					"transfer(address,uint256)": "a9059cbb",
					"transferFrom(address,address,uint256)": "23b872dd"
				}
			},
			"storageLayout": {
				"storage": [
					{
						"astId": 15,
						"contract": "contracts/Gem.sol:Gem",
						"label": "_balances",
						"offset": 0,
						"slot": "0",
						"type": "t_mapping(t_address,t_uint256)"
					},
					{
						"astId": 21,
						"contract": "contracts/Gem.sol:Gem",
						"label": "_allowances",
						"offset": 0,
						"slot": "1",
						"type": "t_mapping(t_address,t_mapping(t_address,t_uint256))"
					},
					{
						"astId": 23,
						"contract": "contracts/Gem.sol:Gem",
						"label": "_totalSupply",
						"offset": 0,
						"slot": "2",
						"type": "t_uint256"
					},
					{
						"astId": 25,
						"contract": "contracts/Gem.sol:Gem",
						"label": "_name",
						"offset": 0,
						"slot": "3",
						"type": "t_string_storage"
					},
					{
						"astId": 27,
						"contract": "contracts/Gem.sol:Gem",
						"label": "_symbol",
						"offset": 0,
						"slot": "4",
						"type": "t_string_storage"
					},
					{
						"astId": 608,
						"contract": "contracts/Gem.sol:Gem",
						"label": "supplyLimit",
						"offset": 0,
						"slot": "5",
						"type": "t_uint256"
					},
					{
						"astId": 610,
						"contract": "contracts/Gem.sol:Gem",
						"label": "currentSupply",
						"offset": 0,
						"slot": "6",
						"type": "t_uint256"
					},
					{
						"astId": 612,
						"contract": "contracts/Gem.sol:Gem",
						"label": "owner",
						"offset": 0,
						"slot": "7",
						"type": "t_address"
					}
				],
				"types": {
					"t_address": {
						"encoding": "inplace",
						"label": "address",
						"numberOfBytes": "20"
					},
					"t_mapping(t_address,t_mapping(t_address,t_uint256))": {
						"encoding": "mapping",
						"key": "t_address",
						"label": "mapping(address => mapping(address => uint256))",
						"numberOfBytes": "32",
						"value": "t_mapping(t_address,t_uint256)"
					},
					"t_mapping(t_address,t_uint256)": {
						"encoding": "mapping",
						"key": "t_address",
						"label": "mapping(address => uint256)",
						"numberOfBytes": "32",
						"value": "t_uint256"
					},
					"t_string_storage": {
						"encoding": "bytes",
						"label": "string",
						"numberOfBytes": "32"
					},
					"t_uint256": {
						"encoding": "inplace",
						"label": "uint256",
						"numberOfBytes": "32"
					}
				}
			},
			"userdoc": {
				"kind": "user",
				"methods": {},
				"version": 1
			}
		}
	}
}