{
	"Documents/Documents/Y3S2/IS4302/is4302placeholdername/contracts/Gem.sol": {
		"Gem": {
			"abi": [
				{
					"inputs": [],
					"stateMutability": "nonpayable",
					"type": "constructor"
				},
				{
					"anonymous": false,
					"inputs": [
						{
							"indexed": true,
							"internalType": "address",
							"name": "owner",
							"type": "address"
						},
						{
							"indexed": true,
							"internalType": "address",
							"name": "spender",
							"type": "address"
						},
						{
							"indexed": false,
							"internalType": "uint256",
							"name": "value",
							"type": "uint256"
						}
					],
					"name": "Approval",
					"type": "event"
				},
				{
					"anonymous": false,
					"inputs": [
						{
							"indexed": true,
							"internalType": "address",
							"name": "from",
							"type": "address"
						},
						{
							"indexed": true,
							"internalType": "address",
							"name": "to",
							"type": "address"
						},
						{
							"indexed": false,
							"internalType": "uint256",
							"name": "value",
							"type": "uint256"
						}
					],
					"name": "Transfer",
					"type": "event"
				},
				{
					"inputs": [
						{
							"internalType": "address",
							"name": "account",
							"type": "address"
						},
						{
							"internalType": "uint256",
							"name": "amount",
							"type": "uint256"
						}
					],
					"name": "_mint",
					"outputs": [],
					"stateMutability": "nonpayable",
					"type": "function"
				},
				{
					"inputs": [
						{
							"internalType": "address",
							"name": "owner",
							"type": "address"
						},
						{
							"internalType": "address",
							"name": "spender",
							"type": "address"
						}
					],
					"name": "allowance",
					"outputs": [
						{
							"internalType": "uint256",
							"name": "",
							"type": "uint256"
						}
					],
					"stateMutability": "view",
					"type": "function"
				},
				{
					"inputs": [
						{
							"internalType": "address",
							"name": "spender",
							"type": "address"
						},
						{
							"internalType": "uint256",
							"name": "amount",
							"type": "uint256"
						}
					],
					"name": "approve",
					"outputs": [
						{
							"internalType": "bool",
							"name": "",
							"type": "bool"
						}
					],
					"stateMutability": "nonpayable",
					"type": "function"
				},
				{
					"inputs": [
						{
							"internalType": "address",
							"name": "account",
							"type": "address"
						}
					],
					"name": "balanceOf",
					"outputs": [
						{
							"internalType": "uint256",
							"name": "",
							"type": "uint256"
						}
					],
					"stateMutability": "view",
					"type": "function"
				},
				{
					"inputs": [
						{
							"internalType": "address",
							"name": "user",
							"type": "address"
						},
						{
							"internalType": "address",
							"name": "spender",
							"type": "address"
						}
					],
					"name": "checkGemAllowance",
					"outputs": [
						{
							"internalType": "uint256",
							"name": "",
							"type": "uint256"
						}
					],
					"stateMutability": "view",
					"type": "function"
				},
				{
					"inputs": [],
					"name": "checkGems",
					"outputs": [
						{
							"internalType": "uint256",
							"name": "",
							"type": "uint256"
						}
					],
					"stateMutability": "view",
					"type": "function"
				},
				{
					"inputs": [
						{
							"internalType": "address",
							"name": "myAdd",
							"type": "address"
						}
					],
					"name": "checkGemsOf",
					"outputs": [
						{
							"internalType": "uint256",
							"name": "",
							"type": "uint256"
						}
					],
					"stateMutability": "view",
					"type": "function"
				},
				{
					"inputs": [],
					"name": "currentGemSupply",
					"outputs": [
						{
							"internalType": "uint256",
							"name": "",
							"type": "uint256"
						}
					],
					"stateMutability": "view",
					"type": "function"
				},
				{
					"inputs": [],
					"name": "decimals",
					"outputs": [
						{
							"internalType": "uint8",
							"name": "",
							"type": "uint8"
						}
					],
					"stateMutability": "view",
					"type": "function"
				},
				{
					"inputs": [
						{
							"internalType": "address",
							"name": "spender",
							"type": "address"
						},
						{
							"internalType": "uint256",
							"name": "subtractedValue",
							"type": "uint256"
						}
					],
					"name": "decreaseAllowance",
					"outputs": [
						{
							"internalType": "bool",
							"name": "",
							"type": "bool"
						}
					],
					"stateMutability": "nonpayable",
					"type": "function"
				},
				{
					"inputs": [],
					"name": "getGems",
					"outputs": [],
					"stateMutability": "payable",
					"type": "function"
				},
				{
					"inputs": [
						{
							"internalType": "address",
							"name": "receipt",
							"type": "address"
						},
						{
							"internalType": "uint256",
							"name": "amt",
							"type": "uint256"
						}
					],
					"name": "giveGemApproval",
					"outputs": [],
					"stateMutability": "nonpayable",
					"type": "function"
				},
				{
					"inputs": [
						{
							"internalType": "address",
							"name": "spender",
							"type": "address"
						},
						{
							"internalType": "uint256",
							"name": "addedValue",
							"type": "uint256"
						}
					],
					"name": "increaseAllowance",
					"outputs": [
						{
							"internalType": "bool",
							"name": "",
							"type": "bool"
						}
					],
					"stateMutability": "nonpayable",
					"type": "function"
				},
				{
					"inputs": [
						{
							"internalType": "address",
							"name": "account",
							"type": "address"
						},
						{
							"internalType": "uint256",
							"name": "amount",
							"type": "uint256"
						}
					],
					"name": "mint",
					"outputs": [],
					"stateMutability": "nonpayable",
					"type": "function"
				},
				{
					"inputs": [],
					"name": "name",
					"outputs": [
						{
							"internalType": "string",
							"name": "",
							"type": "string"
						}
					],
					"stateMutability": "view",
					"type": "function"
				},
				{
					"inputs": [],
					"name": "symbol",
					"outputs": [
						{
							"internalType": "string",
							"name": "",
							"type": "string"
						}
					],
					"stateMutability": "view",
					"type": "function"
				},
				{
					"inputs": [],
					"name": "totalSupply",
					"outputs": [
						{
							"internalType": "uint256",
							"name": "",
							"type": "uint256"
						}
					],
					"stateMutability": "view",
					"type": "function"
				},
				{
					"inputs": [
						{
							"internalType": "address",
							"name": "to",
							"type": "address"
						},
						{
							"internalType": "uint256",
							"name": "amount",
							"type": "uint256"
						}
					],
					"name": "transfer",
					"outputs": [
						{
							"internalType": "bool",
							"name": "",
							"type": "bool"
						}
					],
					"stateMutability": "nonpayable",
					"type": "function"
				},
				{
					"inputs": [
						{
							"internalType": "address",
							"name": "from",
							"type": "address"
						},
						{
							"internalType": "address",
							"name": "to",
							"type": "address"
						},
						{
							"internalType": "uint256",
							"name": "amount",
							"type": "uint256"
						}
					],
					"name": "transferFrom",
					"outputs": [
						{
							"internalType": "bool",
							"name": "",
							"type": "bool"
						}
					],
					"stateMutability": "nonpayable",
					"type": "function"
				},
				{
					"inputs": [
						{
							"internalType": "address",
							"name": "recipient",
							"type": "address"
						},
						{
							"internalType": "uint256",
							"name": "value",
							"type": "uint256"
						}
					],
					"name": "transferGems",
					"outputs": [
						{
							"internalType": "bool",
							"name": "",
							"type": "bool"
						}
					],
					"stateMutability": "nonpayable",
					"type": "function"
				},
				{
					"inputs": [
						{
							"internalType": "address",
							"name": "from",
							"type": "address"
						},
						{
							"internalType": "address",
							"name": "to",
							"type": "address"
						},
						{
							"internalType": "uint256",
							"name": "amt",
							"type": "uint256"
						}
					],
					"name": "transferGemsFrom",
					"outputs": [],
					"stateMutability": "nonpayable",
					"type": "function"
				}
			],
			"devdoc": {
				"events": {
					"Approval(address,address,uint256)": {
						"details": "Emitted when the allowance of a `spender` for an `owner` is set by a call to {approve}. `value` is the new allowance."
					},
					"Transfer(address,address,uint256)": {
						"details": "Emitted when `value` tokens are moved from one account (`from`) to another (`to`). Note that `value` may be zero."
					}
				},
				"kind": "dev",
				"methods": {
					"_mint(address,uint256)": {
						"details": "Creates `amount` tokens and assigns them to `account`, increasing the total supply. Emits a {Transfer} event with `from` set to the zero address. Requirements: - `account` cannot be the zero address."
					},
					"allowance(address,address)": {
						"details": "See {IERC20-allowance}."
					},
					"approve(address,uint256)": {
						"details": "See {IERC20-approve}. NOTE: If `amount` is the maximum `uint256`, the allowance is not updated on `transferFrom`. This is semantically equivalent to an infinite approval. Requirements: - `spender` cannot be the zero address."
					},
					"balanceOf(address)": {
						"details": "See {IERC20-balanceOf}."
					},
					"decimals()": {
						"details": "Returns the number of decimals used to get its user representation. For example, if `decimals` equals `2`, a balance of `505` tokens should be displayed to a user as `5.05` (`505 / 10 ** 2`). Tokens usually opt for a value of 18, imitating the relationship between Ether and Wei. This is the default value returned by this function, unless it's overridden. NOTE: This information is only used for _display_ purposes: it in no way affects any of the arithmetic of the contract, including {IERC20-balanceOf} and {IERC20-transfer}."
					},
					"decreaseAllowance(address,uint256)": {
						"details": "Atomically decreases the allowance granted to `spender` by the caller. This is an alternative to {approve} that can be used as a mitigation for problems described in {IERC20-approve}. Emits an {Approval} event indicating the updated allowance. Requirements: - `spender` cannot be the zero address. - `spender` must have allowance for the caller of at least `subtractedValue`."
					},
					"increaseAllowance(address,uint256)": {
						"details": "Atomically increases the allowance granted to `spender` by the caller. This is an alternative to {approve} that can be used as a mitigation for problems described in {IERC20-approve}. Emits an {Approval} event indicating the updated allowance. Requirements: - `spender` cannot be the zero address."
					},
					"name()": {
						"details": "Returns the name of the token."
					},
					"symbol()": {
						"details": "Returns the symbol of the token, usually a shorter version of the name."
					},
					"totalSupply()": {
						"details": "See {IERC20-totalSupply}."
					},
					"transfer(address,uint256)": {
						"details": "See {IERC20-transfer}. Requirements: - `to` cannot be the zero address. - the caller must have a balance of at least `amount`."
					},
					"transferFrom(address,address,uint256)": {
						"details": "See {IERC20-transferFrom}. Emits an {Approval} event indicating the updated allowance. This is not required by the EIP. See the note at the beginning of {ERC20}. NOTE: Does not update the allowance if the current allowance is the maximum `uint256`. Requirements: - `from` and `to` cannot be the zero address. - `from` must have a balance of at least `amount`. - the caller must have allowance for ``from``'s tokens of at least `amount`."
					}
				},
				"version": 1
			},
			"evm": {
				"assembly": "    /* \"Documents/Documents/Y3S2/IS4302/is4302placeholdername/contracts/Gem.sol\":82:1767  contract Gem is ERC20(\"BEAST GEM\", \"BGM\") {... */\n  mstore(0x40, 0x80)\n    /* \"Documents/Documents/Y3S2/IS4302/is4302placeholdername/contracts/Gem.sol\":234:418  constructor() {... */\n  callvalue\n  dup1\n  iszero\n  tag_1\n  jumpi\n  0x00\n  dup1\n  revert\ntag_1:\n  pop\n    /* \"Documents/Documents/Y3S2/IS4302/is4302placeholdername/contracts/ERC20.sol\":1976:2089  constructor(string memory name_, string memory symbol_) {... */\n  mload(0x40)\n  dup1\n  0x40\n  add\n  0x40\n  mstore\n  dup1\n  0x09\n  dup2\n  mstore\n  0x20\n  add\n  0x42454153542047454d0000000000000000000000000000000000000000000000\n  dup2\n  mstore\n  pop\n  mload(0x40)\n  dup1\n  0x40\n  add\n  0x40\n  mstore\n  dup1\n  0x03\n  dup2\n  mstore\n  0x20\n  add\n  0x42474d0000000000000000000000000000000000000000000000000000000000\n  dup2\n  mstore\n  pop\n    /* \"Documents/Documents/Y3S2/IS4302/is4302placeholdername/contracts/ERC20.sol\":2050:2055  name_ */\n  dup2\n    /* \"Documents/Documents/Y3S2/IS4302/is4302placeholdername/contracts/ERC20.sol\":2042:2047  _name */\n  0x03\n    /* \"Documents/Documents/Y3S2/IS4302/is4302placeholdername/contracts/ERC20.sol\":2042:2055  _name = name_ */\n  swap1\n  dup2\n  tag_5\n  swap2\n  swap1\n  tag_6\n  jump\t// in\ntag_5:\n  pop\n    /* \"Documents/Documents/Y3S2/IS4302/is4302placeholdername/contracts/ERC20.sol\":2075:2082  symbol_ */\n  dup1\n    /* \"Documents/Documents/Y3S2/IS4302/is4302placeholdername/contracts/ERC20.sol\":2065:2072  _symbol */\n  0x04\n    /* \"Documents/Documents/Y3S2/IS4302/is4302placeholdername/contracts/ERC20.sol\":2065:2082  _symbol = symbol_ */\n  swap1\n  dup2\n  tag_7\n  swap2\n  swap1\n  tag_6\n  jump\t// in\ntag_7:\n  pop\n    /* \"Documents/Documents/Y3S2/IS4302/is4302placeholdername/contracts/ERC20.sol\":1976:2089  constructor(string memory name_, string memory symbol_) {... */\n  pop\n  pop\n    /* \"Documents/Documents/Y3S2/IS4302/is4302placeholdername/contracts/Gem.sol\":348:358  msg.sender */\n  caller\n    /* \"Documents/Documents/Y3S2/IS4302/is4302placeholdername/contracts/Gem.sol\":340:345  owner */\n  0x07\n  0x00\n    /* \"Documents/Documents/Y3S2/IS4302/is4302placeholdername/contracts/Gem.sol\":340:358  owner = msg.sender */\n  0x0100\n  exp\n  dup2\n  sload\n  dup2\n  0xffffffffffffffffffffffffffffffffffffffff\n  mul\n  not\n  and\n  swap1\n  dup4\n  0xffffffffffffffffffffffffffffffffffffffff\n  and\n  mul\n  or\n  swap1\n  sstore\n  pop\n    /* \"Documents/Documents/Y3S2/IS4302/is4302placeholdername/contracts/Gem.sol\":382:411  1000000 * 1000000000000000000 */\n  0xd3c21bcecceda1000000\n    /* \"Documents/Documents/Y3S2/IS4302/is4302placeholdername/contracts/Gem.sol\":368:379  supplyLimit */\n  0x05\n    /* \"Documents/Documents/Y3S2/IS4302/is4302placeholdername/contracts/Gem.sol\":368:411  supplyLimit = 1000000 * 1000000000000000000 */\n  dup2\n  swap1\n  sstore\n  pop\n    /* \"Documents/Documents/Y3S2/IS4302/is4302placeholdername/contracts/Gem.sol\":82:1767  contract Gem is ERC20(\"BEAST GEM\", \"BGM\") {... */\n  jump(tag_9)\n    /* \"#utility.yul\":7:106   */\ntag_10:\n    /* \"#utility.yul\":59:65   */\n  0x00\n    /* \"#utility.yul\":93:98   */\n  dup2\n    /* \"#utility.yul\":87:99   */\n  mload\n    /* \"#utility.yul\":77:99   */\n  swap1\n  pop\n    /* \"#utility.yul\":7:106   */\n  swap2\n  swap1\n  pop\n  jump\t// out\n    /* \"#utility.yul\":112:292   */\ntag_11:\n    /* \"#utility.yul\":160:237   */\n  0x4e487b7100000000000000000000000000000000000000000000000000000000\n    /* \"#utility.yul\":157:158   */\n  0x00\n    /* \"#utility.yul\":150:238   */\n  mstore\n    /* \"#utility.yul\":257:261   */\n  0x41\n    /* \"#utility.yul\":254:255   */\n  0x04\n    /* \"#utility.yul\":247:262   */\n  mstore\n    /* \"#utility.yul\":281:285   */\n  0x24\n    /* \"#utility.yul\":278:279   */\n  0x00\n    /* \"#utility.yul\":271:286   */\n  revert\n    /* \"#utility.yul\":298:478   */\ntag_12:\n    /* \"#utility.yul\":346:423   */\n  0x4e487b7100000000000000000000000000000000000000000000000000000000\n    /* \"#utility.yul\":343:344   */\n  0x00\n    /* \"#utility.yul\":336:424   */\n  mstore\n    /* \"#utility.yul\":443:447   */\n  0x22\n    /* \"#utility.yul\":440:441   */\n  0x04\n    /* \"#utility.yul\":433:448   */\n  mstore\n    /* \"#utility.yul\":467:471   */\n  0x24\n    /* \"#utility.yul\":464:465   */\n  0x00\n    /* \"#utility.yul\":457:472   */\n  revert\n    /* \"#utility.yul\":484:804   */\ntag_13:\n    /* \"#utility.yul\":528:534   */\n  0x00\n    /* \"#utility.yul\":565:566   */\n  0x02\n    /* \"#utility.yul\":559:563   */\n  dup3\n    /* \"#utility.yul\":555:567   */\n  div\n    /* \"#utility.yul\":545:567   */\n  swap1\n  pop\n    /* \"#utility.yul\":612:613   */\n  0x01\n    /* \"#utility.yul\":606:610   */\n  dup3\n    /* \"#utility.yul\":602:614   */\n  and\n    /* \"#utility.yul\":633:651   */\n  dup1\n    /* \"#utility.yul\":623:704   */\n  tag_35\n  jumpi\n    /* \"#utility.yul\":689:693   */\n  0x7f\n    /* \"#utility.yul\":681:687   */\n  dup3\n    /* \"#utility.yul\":677:694   */\n  and\n    /* \"#utility.yul\":667:694   */\n  swap2\n  pop\n    /* \"#utility.yul\":623:704   */\ntag_35:\n    /* \"#utility.yul\":751:753   */\n  0x20\n    /* \"#utility.yul\":743:749   */\n  dup3\n    /* \"#utility.yul\":740:754   */\n  lt\n    /* \"#utility.yul\":720:738   */\n  dup2\n    /* \"#utility.yul\":717:755   */\n  sub\n    /* \"#utility.yul\":714:798   */\n  tag_36\n  jumpi\n    /* \"#utility.yul\":770:788   */\n  tag_37\n  tag_12\n  jump\t// in\ntag_37:\n    /* \"#utility.yul\":714:798   */\ntag_36:\n    /* \"#utility.yul\":535:804   */\n  pop\n    /* \"#utility.yul\":484:804   */\n  swap2\n  swap1\n  pop\n  jump\t// out\n    /* \"#utility.yul\":810:951   */\ntag_14:\n    /* \"#utility.yul\":859:863   */\n  0x00\n    /* \"#utility.yul\":882:885   */\n  dup2\n    /* \"#utility.yul\":874:885   */\n  swap1\n  pop\n    /* \"#utility.yul\":905:908   */\n  dup2\n    /* \"#utility.yul\":902:903   */\n  0x00\n    /* \"#utility.yul\":895:909   */\n  mstore\n    /* \"#utility.yul\":939:943   */\n  0x20\n    /* \"#utility.yul\":936:937   */\n  0x00\n    /* \"#utility.yul\":926:944   */\n  keccak256\n    /* \"#utility.yul\":918:944   */\n  swap1\n  pop\n    /* \"#utility.yul\":810:951   */\n  swap2\n  swap1\n  pop\n  jump\t// out\n    /* \"#utility.yul\":957:1050   */\ntag_15:\n    /* \"#utility.yul\":994:1000   */\n  0x00\n    /* \"#utility.yul\":1041:1043   */\n  0x20\n    /* \"#utility.yul\":1036:1038   */\n  0x1f\n    /* \"#utility.yul\":1029:1034   */\n  dup4\n    /* \"#utility.yul\":1025:1039   */\n  add\n    /* \"#utility.yul\":1021:1044   */\n  div\n    /* \"#utility.yul\":1011:1044   */\n  swap1\n  pop\n    /* \"#utility.yul\":957:1050   */\n  swap2\n  swap1\n  pop\n  jump\t// out\n    /* \"#utility.yul\":1056:1163   */\ntag_16:\n    /* \"#utility.yul\":1100:1108   */\n  0x00\n    /* \"#utility.yul\":1150:1155   */\n  dup3\n    /* \"#utility.yul\":1144:1148   */\n  dup3\n    /* \"#utility.yul\":1140:1156   */\n  shl\n    /* \"#utility.yul\":1119:1156   */\n  swap1\n  pop\n    /* \"#utility.yul\":1056:1163   */\n  swap3\n  swap2\n  pop\n  pop\n  jump\t// out\n    /* \"#utility.yul\":1169:1562   */\ntag_17:\n    /* \"#utility.yul\":1238:1244   */\n  0x00\n    /* \"#utility.yul\":1288:1289   */\n  0x08\n    /* \"#utility.yul\":1276:1286   */\n  dup4\n    /* \"#utility.yul\":1272:1290   */\n  mul\n    /* \"#utility.yul\":1311:1408   */\n  tag_42\n    /* \"#utility.yul\":1341:1407   */\n  0xffffffffffffffffffffffffffffffffffffffffffffffffffffffffffffffff\n    /* \"#utility.yul\":1330:1339   */\n  dup3\n    /* \"#utility.yul\":1311:1408   */\n  tag_16\n  jump\t// in\ntag_42:\n    /* \"#utility.yul\":1429:1468   */\n  tag_43\n    /* \"#utility.yul\":1459:1467   */\n  dup7\n    /* \"#utility.yul\":1448:1457   */\n  dup4\n    /* \"#utility.yul\":1429:1468   */\n  tag_16\n  jump\t// in\ntag_43:\n    /* \"#utility.yul\":1417:1468   */\n  swap6\n  pop\n    /* \"#utility.yul\":1501:1505   */\n  dup1\n    /* \"#utility.yul\":1497:1506   */\n  not\n    /* \"#utility.yul\":1490:1495   */\n  dup5\n    /* \"#utility.yul\":1486:1507   */\n  and\n    /* \"#utility.yul\":1477:1507   */\n  swap4\n  pop\n    /* \"#utility.yul\":1550:1554   */\n  dup1\n    /* \"#utility.yul\":1540:1548   */\n  dup7\n    /* \"#utility.yul\":1536:1555   */\n  and\n    /* \"#utility.yul\":1529:1534   */\n  dup5\n    /* \"#utility.yul\":1526:1556   */\n  or\n    /* \"#utility.yul\":1516:1556   */\n  swap3\n  pop\n    /* \"#utility.yul\":1245:1562   */\n  pop\n  pop\n    /* \"#utility.yul\":1169:1562   */\n  swap4\n  swap3\n  pop\n  pop\n  pop\n  jump\t// out\n    /* \"#utility.yul\":1568:1645   */\ntag_18:\n    /* \"#utility.yul\":1605:1612   */\n  0x00\n    /* \"#utility.yul\":1634:1639   */\n  dup2\n    /* \"#utility.yul\":1623:1639   */\n  swap1\n  pop\n    /* \"#utility.yul\":1568:1645   */\n  swap2\n  swap1\n  pop\n  jump\t// out\n    /* \"#utility.yul\":1651:1711   */\ntag_19:\n    /* \"#utility.yul\":1679:1682   */\n  0x00\n    /* \"#utility.yul\":1700:1705   */\n  dup2\n    /* \"#utility.yul\":1693:1705   */\n  swap1\n  pop\n    /* \"#utility.yul\":1651:1711   */\n  swap2\n  swap1\n  pop\n  jump\t// out\n    /* \"#utility.yul\":1717:1859   */\ntag_20:\n    /* \"#utility.yul\":1767:1776   */\n  0x00\n    /* \"#utility.yul\":1800:1853   */\n  tag_47\n    /* \"#utility.yul\":1818:1852   */\n  tag_48\n    /* \"#utility.yul\":1827:1851   */\n  tag_49\n    /* \"#utility.yul\":1845:1850   */\n  dup5\n    /* \"#utility.yul\":1827:1851   */\n  tag_18\n  jump\t// in\ntag_49:\n    /* \"#utility.yul\":1818:1852   */\n  tag_19\n  jump\t// in\ntag_48:\n    /* \"#utility.yul\":1800:1853   */\n  tag_18\n  jump\t// in\ntag_47:\n    /* \"#utility.yul\":1787:1853   */\n  swap1\n  pop\n    /* \"#utility.yul\":1717:1859   */\n  swap2\n  swap1\n  pop\n  jump\t// out\n    /* \"#utility.yul\":1865:1940   */\ntag_21:\n    /* \"#utility.yul\":1908:1911   */\n  0x00\n    /* \"#utility.yul\":1929:1934   */\n  dup2\n    /* \"#utility.yul\":1922:1934   */\n  swap1\n  pop\n    /* \"#utility.yul\":1865:1940   */\n  swap2\n  swap1\n  pop\n  jump\t// out\n    /* \"#utility.yul\":1946:2215   */\ntag_22:\n    /* \"#utility.yul\":2056:2095   */\n  tag_52\n    /* \"#utility.yul\":2087:2094   */\n  dup4\n    /* \"#utility.yul\":2056:2095   */\n  tag_20\n  jump\t// in\ntag_52:\n    /* \"#utility.yul\":2117:2208   */\n  tag_53\n    /* \"#utility.yul\":2166:2207   */\n  tag_54\n    /* \"#utility.yul\":2190:2206   */\n  dup3\n    /* \"#utility.yul\":2166:2207   */\n  tag_21\n  jump\t// in\ntag_54:\n    /* \"#utility.yul\":2158:2164   */\n  dup5\n    /* \"#utility.yul\":2151:2155   */\n  dup5\n    /* \"#utility.yul\":2145:2156   */\n  sload\n    /* \"#utility.yul\":2117:2208   */\n  tag_17\n  jump\t// in\ntag_53:\n    /* \"#utility.yul\":2111:2115   */\n  dup3\n    /* \"#utility.yul\":2104:2209   */\n  sstore\n    /* \"#utility.yul\":2022:2215   */\n  pop\n    /* \"#utility.yul\":1946:2215   */\n  pop\n  pop\n  pop\n  jump\t// out\n    /* \"#utility.yul\":2221:2294   */\ntag_23:\n    /* \"#utility.yul\":2266:2269   */\n  0x00\n    /* \"#utility.yul\":2221:2294   */\n  swap1\n  jump\t// out\n    /* \"#utility.yul\":2300:2489   */\ntag_24:\n    /* \"#utility.yul\":2377:2409   */\n  tag_57\n  tag_23\n  jump\t// in\ntag_57:\n    /* \"#utility.yul\":2418:2483   */\n  tag_58\n    /* \"#utility.yul\":2476:2482   */\n  dup2\n    /* \"#utility.yul\":2468:2474   */\n  dup5\n    /* \"#utility.yul\":2462:2466   */\n  dup5\n    /* \"#utility.yul\":2418:2483   */\n  tag_22\n  jump\t// in\ntag_58:\n    /* \"#utility.yul\":2353:2489   */\n  pop\n    /* \"#utility.yul\":2300:2489   */\n  pop\n  pop\n  jump\t// out\n    /* \"#utility.yul\":2495:2681   */\ntag_25:\n    /* \"#utility.yul\":2555:2675   */\ntag_60:\n    /* \"#utility.yul\":2572:2575   */\n  dup2\n    /* \"#utility.yul\":2565:2570   */\n  dup2\n    /* \"#utility.yul\":2562:2576   */\n  lt\n    /* \"#utility.yul\":2555:2675   */\n  iszero\n  tag_62\n  jumpi\n    /* \"#utility.yul\":2626:2665   */\n  tag_63\n    /* \"#utility.yul\":2663:2664   */\n  0x00\n    /* \"#utility.yul\":2656:2661   */\n  dup3\n    /* \"#utility.yul\":2626:2665   */\n  tag_24\n  jump\t// in\ntag_63:\n    /* \"#utility.yul\":2599:2600   */\n  0x01\n    /* \"#utility.yul\":2592:2597   */\n  dup2\n    /* \"#utility.yul\":2588:2601   */\n  add\n    /* \"#utility.yul\":2579:2601   */\n  swap1\n  pop\n    /* \"#utility.yul\":2555:2675   */\n  jump(tag_60)\ntag_62:\n    /* \"#utility.yul\":2495:2681   */\n  pop\n  pop\n  jump\t// out\n    /* \"#utility.yul\":2687:3230   */\ntag_26:\n    /* \"#utility.yul\":2788:2790   */\n  0x1f\n    /* \"#utility.yul\":2783:2786   */\n  dup3\n    /* \"#utility.yul\":2780:2791   */\n  gt\n    /* \"#utility.yul\":2777:3223   */\n  iszero\n  tag_65\n  jumpi\n    /* \"#utility.yul\":2822:2860   */\n  tag_66\n    /* \"#utility.yul\":2854:2859   */\n  dup2\n    /* \"#utility.yul\":2822:2860   */\n  tag_14\n  jump\t// in\ntag_66:\n    /* \"#utility.yul\":2906:2935   */\n  tag_67\n    /* \"#utility.yul\":2924:2934   */\n  dup5\n    /* \"#utility.yul\":2906:2935   */\n  tag_15\n  jump\t// in\ntag_67:\n    /* \"#utility.yul\":2896:2904   */\n  dup2\n    /* \"#utility.yul\":2892:2936   */\n  add\n    /* \"#utility.yul\":3089:3091   */\n  0x20\n    /* \"#utility.yul\":3077:3087   */\n  dup6\n    /* \"#utility.yul\":3074:3092   */\n  lt\n    /* \"#utility.yul\":3071:3120   */\n  iszero\n  tag_68\n  jumpi\n    /* \"#utility.yul\":3110:3118   */\n  dup2\n    /* \"#utility.yul\":3095:3118   */\n  swap1\n  pop\n    /* \"#utility.yul\":3071:3120   */\ntag_68:\n    /* \"#utility.yul\":3133:3213   */\n  tag_69\n    /* \"#utility.yul\":3189:3211   */\n  tag_70\n    /* \"#utility.yul\":3207:3210   */\n  dup6\n    /* \"#utility.yul\":3189:3211   */\n  tag_15\n  jump\t// in\ntag_70:\n    /* \"#utility.yul\":3179:3187   */\n  dup4\n    /* \"#utility.yul\":3175:3212   */\n  add\n    /* \"#utility.yul\":3162:3173   */\n  dup3\n    /* \"#utility.yul\":3133:3213   */\n  tag_25\n  jump\t// in\ntag_69:\n    /* \"#utility.yul\":2792:3223   */\n  pop\n  pop\n    /* \"#utility.yul\":2777:3223   */\ntag_65:\n    /* \"#utility.yul\":2687:3230   */\n  pop\n  pop\n  pop\n  jump\t// out\n    /* \"#utility.yul\":3236:3353   */\ntag_27:\n    /* \"#utility.yul\":3290:3298   */\n  0x00\n    /* \"#utility.yul\":3340:3345   */\n  dup3\n    /* \"#utility.yul\":3334:3338   */\n  dup3\n    /* \"#utility.yul\":3330:3346   */\n  shr\n    /* \"#utility.yul\":3309:3346   */\n  swap1\n  pop\n    /* \"#utility.yul\":3236:3353   */\n  swap3\n  swap2\n  pop\n  pop\n  jump\t// out\n    /* \"#utility.yul\":3359:3528   */\ntag_28:\n    /* \"#utility.yul\":3403:3409   */\n  0x00\n    /* \"#utility.yul\":3436:3487   */\n  tag_73\n    /* \"#utility.yul\":3484:3485   */\n  0x00\n    /* \"#utility.yul\":3480:3486   */\n  not\n    /* \"#utility.yul\":3472:3477   */\n  dup5\n    /* \"#utility.yul\":3469:3470   */\n  0x08\n    /* \"#utility.yul\":3465:3478   */\n  mul\n    /* \"#utility.yul\":3436:3487   */\n  tag_27\n  jump\t// in\ntag_73:\n    /* \"#utility.yul\":3432:3488   */\n  not\n    /* \"#utility.yul\":3517:3521   */\n  dup1\n    /* \"#utility.yul\":3511:3515   */\n  dup4\n    /* \"#utility.yul\":3507:3522   */\n  and\n    /* \"#utility.yul\":3497:3522   */\n  swap2\n  pop\n    /* \"#utility.yul\":3410:3528   */\n  pop\n    /* \"#utility.yul\":3359:3528   */\n  swap3\n  swap2\n  pop\n  pop\n  jump\t// out\n    /* \"#utility.yul\":3533:3828   */\ntag_29:\n    /* \"#utility.yul\":3609:3613   */\n  0x00\n    /* \"#utility.yul\":3755:3784   */\n  tag_75\n    /* \"#utility.yul\":3780:3783   */\n  dup4\n    /* \"#utility.yul\":3774:3778   */\n  dup4\n    /* \"#utility.yul\":3755:3784   */\n  tag_28\n  jump\t// in\ntag_75:\n    /* \"#utility.yul\":3747:3784   */\n  swap2\n  pop\n    /* \"#utility.yul\":3817:3820   */\n  dup3\n    /* \"#utility.yul\":3814:3815   */\n  0x02\n    /* \"#utility.yul\":3810:3821   */\n  mul\n    /* \"#utility.yul\":3804:3808   */\n  dup3\n    /* \"#utility.yul\":3801:3822   */\n  or\n    /* \"#utility.yul\":3793:3822   */\n  swap1\n  pop\n    /* \"#utility.yul\":3533:3828   */\n  swap3\n  swap2\n  pop\n  pop\n  jump\t// out\n    /* \"#utility.yul\":3833:5228   */\ntag_6:\n    /* \"#utility.yul\":3950:3987   */\n  tag_77\n    /* \"#utility.yul\":3983:3986   */\n  dup3\n    /* \"#utility.yul\":3950:3987   */\n  tag_10\n  jump\t// in\ntag_77:\n    /* \"#utility.yul\":4052:4070   */\n  0xffffffffffffffff\n    /* \"#utility.yul\":4044:4050   */\n  dup2\n    /* \"#utility.yul\":4041:4071   */\n  gt\n    /* \"#utility.yul\":4038:4094   */\n  iszero\n  tag_78\n  jumpi\n    /* \"#utility.yul\":4074:4092   */\n  tag_79\n  tag_11\n  jump\t// in\ntag_79:\n    /* \"#utility.yul\":4038:4094   */\ntag_78:\n    /* \"#utility.yul\":4118:4156   */\n  tag_80\n    /* \"#utility.yul\":4150:4154   */\n  dup3\n    /* \"#utility.yul\":4144:4155   */\n  sload\n    /* \"#utility.yul\":4118:4156   */\n  tag_13\n  jump\t// in\ntag_80:\n    /* \"#utility.yul\":4203:4270   */\n  tag_81\n    /* \"#utility.yul\":4263:4269   */\n  dup3\n    /* \"#utility.yul\":4255:4261   */\n  dup3\n    /* \"#utility.yul\":4249:4253   */\n  dup6\n    /* \"#utility.yul\":4203:4270   */\n  tag_26\n  jump\t// in\ntag_81:\n    /* \"#utility.yul\":4297:4298   */\n  0x00\n    /* \"#utility.yul\":4321:4325   */\n  0x20\n    /* \"#utility.yul\":4308:4325   */\n  swap1\n  pop\n    /* \"#utility.yul\":4353:4355   */\n  0x1f\n    /* \"#utility.yul\":4345:4351   */\n  dup4\n    /* \"#utility.yul\":4342:4356   */\n  gt\n    /* \"#utility.yul\":4370:4371   */\n  0x01\n    /* \"#utility.yul\":4365:4983   */\n  dup2\n  eq\n  tag_83\n  jumpi\n    /* \"#utility.yul\":5027:5028   */\n  0x00\n    /* \"#utility.yul\":5044:5050   */\n  dup5\n    /* \"#utility.yul\":5041:5118   */\n  iszero\n  tag_84\n  jumpi\n    /* \"#utility.yul\":5093:5102   */\n  dup3\n    /* \"#utility.yul\":5088:5091   */\n  dup8\n    /* \"#utility.yul\":5084:5103   */\n  add\n    /* \"#utility.yul\":5078:5104   */\n  mload\n    /* \"#utility.yul\":5069:5104   */\n  swap1\n  pop\n    /* \"#utility.yul\":5041:5118   */\ntag_84:\n    /* \"#utility.yul\":5144:5211   */\n  tag_85\n    /* \"#utility.yul\":5204:5210   */\n  dup6\n    /* \"#utility.yul\":5197:5202   */\n  dup3\n    /* \"#utility.yul\":5144:5211   */\n  tag_29\n  jump\t// in\ntag_85:\n    /* \"#utility.yul\":5138:5142   */\n  dup7\n    /* \"#utility.yul\":5131:5212   */\n  sstore\n    /* \"#utility.yul\":5000:5222   */\n  pop\n    /* \"#utility.yul\":4335:5222   */\n  jump(tag_82)\n    /* \"#utility.yul\":4365:4983   */\ntag_83:\n    /* \"#utility.yul\":4417:4421   */\n  0x1f\n    /* \"#utility.yul\":4413:4422   */\n  not\n    /* \"#utility.yul\":4405:4411   */\n  dup5\n    /* \"#utility.yul\":4401:4423   */\n  and\n    /* \"#utility.yul\":4451:4488   */\n  tag_86\n    /* \"#utility.yul\":4483:4487   */\n  dup7\n    /* \"#utility.yul\":4451:4488   */\n  tag_14\n  jump\t// in\ntag_86:\n    /* \"#utility.yul\":4510:4511   */\n  0x00\n    /* \"#utility.yul\":4524:4732   */\ntag_87:\n    /* \"#utility.yul\":4538:4545   */\n  dup3\n    /* \"#utility.yul\":4535:4536   */\n  dup2\n    /* \"#utility.yul\":4532:4546   */\n  lt\n    /* \"#utility.yul\":4524:4732   */\n  iszero\n  tag_89\n  jumpi\n    /* \"#utility.yul\":4617:4626   */\n  dup5\n    /* \"#utility.yul\":4612:4615   */\n  dup10\n    /* \"#utility.yul\":4608:4627   */\n  add\n    /* \"#utility.yul\":4602:4628   */\n  mload\n    /* \"#utility.yul\":4594:4600   */\n  dup3\n    /* \"#utility.yul\":4587:4629   */\n  sstore\n    /* \"#utility.yul\":4668:4669   */\n  0x01\n    /* \"#utility.yul\":4660:4666   */\n  dup3\n    /* \"#utility.yul\":4656:4670   */\n  add\n    /* \"#utility.yul\":4646:4670   */\n  swap2\n  pop\n    /* \"#utility.yul\":4715:4717   */\n  0x20\n    /* \"#utility.yul\":4704:4713   */\n  dup6\n    /* \"#utility.yul\":4700:4718   */\n  add\n    /* \"#utility.yul\":4687:4718   */\n  swap5\n  pop\n    /* \"#utility.yul\":4561:4565   */\n  0x20\n    /* \"#utility.yul\":4558:4559   */\n  dup2\n    /* \"#utility.yul\":4554:4566   */\n  add\n    /* \"#utility.yul\":4549:4566   */\n  swap1\n  pop\n    /* \"#utility.yul\":4524:4732   */\n  jump(tag_87)\ntag_89:\n    /* \"#utility.yul\":4760:4766   */\n  dup7\n    /* \"#utility.yul\":4751:4758   */\n  dup4\n    /* \"#utility.yul\":4748:4767   */\n  lt\n    /* \"#utility.yul\":4745:4924   */\n  iszero\n  tag_90\n  jumpi\n    /* \"#utility.yul\":4818:4827   */\n  dup5\n    /* \"#utility.yul\":4813:4816   */\n  dup10\n    /* \"#utility.yul\":4809:4828   */\n  add\n    /* \"#utility.yul\":4803:4829   */\n  mload\n    /* \"#utility.yul\":4861:4909   */\n  tag_91\n    /* \"#utility.yul\":4903:4907   */\n  0x1f\n    /* \"#utility.yul\":4895:4901   */\n  dup10\n    /* \"#utility.yul\":4891:4908   */\n  and\n    /* \"#utility.yul\":4880:4889   */\n  dup3\n    /* \"#utility.yul\":4861:4909   */\n  tag_28\n  jump\t// in\ntag_91:\n    /* \"#utility.yul\":4853:4859   */\n  dup4\n    /* \"#utility.yul\":4846:4910   */\n  sstore\n    /* \"#utility.yul\":4768:4924   */\n  pop\n    /* \"#utility.yul\":4745:4924   */\ntag_90:\n    /* \"#utility.yul\":4970:4971   */\n  0x01\n    /* \"#utility.yul\":4966:4967   */\n  0x02\n    /* \"#utility.yul\":4958:4964   */\n  dup9\n    /* \"#utility.yul\":4954:4968   */\n  mul\n    /* \"#utility.yul\":4950:4972   */\n  add\n    /* \"#utility.yul\":4944:4948   */\n  dup9\n    /* \"#utility.yul\":4937:4973   */\n  sstore\n    /* \"#utility.yul\":4372:4983   */\n  pop\n  pop\n  pop\n    /* \"#utility.yul\":4335:5222   */\ntag_82:\n  pop\n    /* \"#utility.yul\":3925:5228   */\n  pop\n  pop\n  pop\n    /* \"#utility.yul\":3833:5228   */\n  pop\n  pop\n  jump\t// out\n    /* \"Documents/Documents/Y3S2/IS4302/is4302placeholdername/contracts/Gem.sol\":82:1767  contract Gem is ERC20(\"BEAST GEM\", \"BGM\") {... */\ntag_9:\n  dataSize(sub_0)\n  dup1\n  dataOffset(sub_0)\n  0x00\n  codecopy\n  0x00\n  return\nstop\n\nsub_0: assembly {\n        /* \"Documents/Documents/Y3S2/IS4302/is4302placeholdername/contracts/Gem.sol\":82:1767  contract Gem is ERC20(\"BEAST GEM\", \"BGM\") {... */\n      mstore(0x40, 0x80)\n      jumpi(tag_1, lt(calldatasize, 0x04))\n      shr(0xe0, calldataload(0x00))\n      dup1\n      0x4e6ec247\n      gt\n      tag_23\n      jumpi\n      dup1\n      0x9d900f95\n      gt\n      tag_24\n      jumpi\n      dup1\n      0x9d900f95\n      eq\n      tag_17\n      jumpi\n      dup1\n      0x9dcad2b6\n      eq\n      tag_18\n      jumpi\n      dup1\n      0xa457c2d7\n      eq\n      tag_19\n      jumpi\n      dup1\n      0xa9059cbb\n      eq\n      tag_20\n      jumpi\n      dup1\n      0xdd62ed3e\n      eq\n      tag_21\n      jumpi\n      dup1\n      0xf09910e4\n      eq\n      tag_22\n      jumpi\n      jump(tag_1)\n    tag_24:\n      dup1\n      0x4e6ec247\n      eq\n      tag_12\n      jumpi\n      dup1\n      0x5e1c86ce\n      eq\n      tag_13\n      jumpi\n      dup1\n      0x6874aab9\n      eq\n      tag_14\n      jumpi\n      dup1\n      0x70a08231\n      eq\n      tag_15\n      jumpi\n      dup1\n      0x95d89b41\n      eq\n      tag_16\n      jumpi\n      jump(tag_1)\n    tag_23:\n      dup1\n      0x313ce567\n      gt\n      tag_25\n      jumpi\n      dup1\n      0x313ce567\n      eq\n      tag_7\n      jumpi\n      dup1\n      0x39509351\n      eq\n      tag_8\n      jumpi\n      dup1\n      0x40c10f19\n      eq\n      tag_9\n      jumpi\n      dup1\n      0x42634f94\n      eq\n      tag_10\n      jumpi\n      dup1\n      0x46ed2bcb\n      eq\n      tag_11\n      jumpi\n      jump(tag_1)\n    tag_25:\n      dup1\n      0x06fdde03\n      eq\n      tag_2\n      jumpi\n      dup1\n      0x095ea7b3\n      eq\n      tag_3\n      jumpi\n      dup1\n      0x18160ddd\n      eq\n      tag_4\n      jumpi\n      dup1\n      0x23b872dd\n      eq\n      tag_5\n      jumpi\n      dup1\n      0x2a73ac1f\n      eq\n      tag_6\n      jumpi\n    tag_1:\n      0x00\n      dup1\n      revert\n        /* \"Documents/Documents/Y3S2/IS4302/is4302placeholdername/contracts/ERC20.sol\":2154:2252  function name() public view virtual override returns (string memory) {... */\n    tag_2:\n      callvalue\n      dup1\n      iszero\n      tag_26\n      jumpi\n      0x00\n      dup1\n      revert\n    tag_26:\n      pop\n      tag_27\n      tag_28\n      jump\t// in\n    tag_27:\n      mload(0x40)\n      tag_29\n      swap2\n      swap1\n      tag_30\n      jump\t// in\n    tag_29:\n      mload(0x40)\n      dup1\n      swap2\n      sub\n      swap1\n      return\n        /* \"Documents/Documents/Y3S2/IS4302/is4302placeholdername/contracts/ERC20.sol\":4440:4637  function approve(address spender, uint256 amount) public virtual override returns (bool) {... */\n    tag_3:\n      callvalue\n      dup1\n      iszero\n      tag_31\n      jumpi\n      0x00\n      dup1\n      revert\n    tag_31:\n      pop\n      tag_32\n      0x04\n      dup1\n      calldatasize\n      sub\n      dup2\n      add\n      swap1\n      tag_33\n      swap2\n      swap1\n      tag_34\n      jump\t// in\n    tag_33:\n      tag_35\n      jump\t// in\n    tag_32:\n      mload(0x40)\n      tag_36\n      swap2\n      swap1\n      tag_37\n      jump\t// in\n    tag_36:\n      mload(0x40)\n      dup1\n      swap2\n      sub\n      swap1\n      return\n        /* \"Documents/Documents/Y3S2/IS4302/is4302placeholdername/contracts/ERC20.sol\":3251:3357  function totalSupply() public view virtual override returns (uint256) {... */\n    tag_4:\n      callvalue\n      dup1\n      iszero\n      tag_38\n      jumpi\n      0x00\n      dup1\n      revert\n    tag_38:\n      pop\n      tag_39\n      tag_40\n      jump\t// in\n    tag_39:\n      mload(0x40)\n      tag_41\n      swap2\n      swap1\n      tag_42\n      jump\t// in\n    tag_41:\n      mload(0x40)\n      dup1\n      swap2\n      sub\n      swap1\n      return\n        /* \"Documents/Documents/Y3S2/IS4302/is4302placeholdername/contracts/ERC20.sol\":5199:5455  function transferFrom(address from, address to, uint256 amount) public virtual override returns (bool) {... */\n    tag_5:\n      callvalue\n      dup1\n      iszero\n      tag_43\n      jumpi\n      0x00\n      dup1\n      revert\n    tag_43:\n      pop\n      tag_44\n      0x04\n      dup1\n      calldatasize\n      sub\n      dup2\n      add\n      swap1\n      tag_45\n      swap2\n      swap1\n      tag_46\n      jump\t// in\n    tag_45:\n      tag_47\n      jump\t// in\n    tag_44:\n      mload(0x40)\n      tag_48\n      swap2\n      swap1\n      tag_37\n      jump\t// in\n    tag_48:\n      mload(0x40)\n      dup1\n      swap2\n      sub\n      swap1\n      return\n        /* \"Documents/Documents/Y3S2/IS4302/is4302placeholdername/contracts/Gem.sol\":1092:1349  function transferGemsFrom(address from, address to, uint256 amt) public {... */\n    tag_6:\n      callvalue\n      dup1\n      iszero\n      tag_49\n      jumpi\n      0x00\n      dup1\n      revert\n    tag_49:\n      pop\n      tag_50\n      0x04\n      dup1\n      calldatasize\n      sub\n      dup2\n      add\n      swap1\n      tag_51\n      swap2\n      swap1\n      tag_46\n      jump\t// in\n    tag_51:\n      tag_52\n      jump\t// in\n    tag_50:\n      stop\n        /* \"Documents/Documents/Y3S2/IS4302/is4302placeholdername/contracts/ERC20.sol\":3100:3191  function decimals() public view virtual override returns (uint8) {... */\n    tag_7:\n      callvalue\n      dup1\n      iszero\n      tag_53\n      jumpi\n      0x00\n      dup1\n      revert\n    tag_53:\n      pop\n      tag_54\n      tag_55\n      jump\t// in\n    tag_54:\n      mload(0x40)\n      tag_56\n      swap2\n      swap1\n      tag_57\n      jump\t// in\n    tag_56:\n      mload(0x40)\n      dup1\n      swap2\n      sub\n      swap1\n      return\n        /* \"Documents/Documents/Y3S2/IS4302/is4302placeholdername/contracts/ERC20.sol\":5850:6084  function increaseAllowance(address spender, uint256 addedValue) public virtual returns (bool) {... */\n    tag_8:\n      callvalue\n      dup1\n      iszero\n      tag_58\n      jumpi\n      0x00\n      dup1\n      revert\n    tag_58:\n      pop\n      tag_59\n      0x04\n      dup1\n      calldatasize\n      sub\n      dup2\n      add\n      swap1\n      tag_60\n      swap2\n      swap1\n      tag_34\n      jump\t// in\n    tag_60:\n      tag_61\n      jump\t// in\n    tag_59:\n      mload(0x40)\n      tag_62\n      swap2\n      swap1\n      tag_37\n      jump\t// in\n    tag_62:\n      mload(0x40)\n      dup1\n      swap2\n      sub\n      swap1\n      return\n        /* \"Documents/Documents/Y3S2/IS4302/is4302placeholdername/contracts/ERC20.sol\":7004:7097  function mint(address account, uint256 amount) public {... */\n    tag_9:\n      callvalue\n      dup1\n      iszero\n      tag_63\n      jumpi\n      0x00\n      dup1\n      revert\n    tag_63:\n      pop\n      tag_64\n      0x04\n      dup1\n      calldatasize\n      sub\n      dup2\n      add\n      swap1\n      tag_65\n      swap2\n      swap1\n      tag_34\n      jump\t// in\n    tag_65:\n      tag_66\n      jump\t// in\n    tag_64:\n      stop\n        /* \"Documents/Documents/Y3S2/IS4302/is4302placeholdername/contracts/Gem.sol\":424:673  function getGems() public payable {... */\n    tag_10:\n      tag_67\n      tag_68\n      jump\t// in\n    tag_67:\n      stop\n        /* \"Documents/Documents/Y3S2/IS4302/is4302placeholdername/contracts/Gem.sol\":802:930  function checkGemsOf(address myAdd) public view returns (uint256) {... */\n    tag_11:\n      callvalue\n      dup1\n      iszero\n      tag_69\n      jumpi\n      0x00\n      dup1\n      revert\n    tag_69:\n      pop\n      tag_70\n      0x04\n      dup1\n      calldatasize\n      sub\n      dup2\n      add\n      swap1\n      tag_71\n      swap2\n      swap1\n      tag_72\n      jump\t// in\n    tag_71:\n      tag_73\n      jump\t// in\n    tag_70:\n      mload(0x40)\n      tag_74\n      swap2\n      swap1\n      tag_42\n      jump\t// in\n    tag_74:\n      mload(0x40)\n      dup1\n      swap2\n      sub\n      swap1\n      return\n        /* \"Documents/Documents/Y3S2/IS4302/is4302placeholdername/contracts/ERC20.sol\":8615:9148  function _mint(address account, uint256 amount) public virtual {... */\n    tag_12:\n      callvalue\n      dup1\n      iszero\n      tag_75\n      jumpi\n      0x00\n      dup1\n      revert\n    tag_75:\n      pop\n      tag_76\n      0x04\n      dup1\n      calldatasize\n      sub\n      dup2\n      add\n      swap1\n      tag_77\n      swap2\n      swap1\n      tag_34\n      jump\t// in\n    tag_77:\n      tag_78\n      jump\t// in\n    tag_76:\n      stop\n        /* \"Documents/Documents/Y3S2/IS4302/is4302placeholdername/contracts/Gem.sol\":679:796  function checkGems() public view returns(uint256) {... */\n    tag_13:\n      callvalue\n      dup1\n      iszero\n      tag_79\n      jumpi\n      0x00\n      dup1\n      revert\n    tag_79:\n      pop\n      tag_80\n      tag_81\n      jump\t// in\n    tag_80:\n      mload(0x40)\n      tag_82\n      swap2\n      swap1\n      tag_42\n      jump\t// in\n    tag_82:\n      mload(0x40)\n      dup1\n      swap2\n      sub\n      swap1\n      return\n        /* \"Documents/Documents/Y3S2/IS4302/is4302placeholdername/contracts/Gem.sol\":1355:1477  function giveGemApproval(address receipt, uint256 amt) public {... */\n    tag_14:\n      callvalue\n      dup1\n      iszero\n      tag_83\n      jumpi\n      0x00\n      dup1\n      revert\n    tag_83:\n      pop\n      tag_84\n      0x04\n      dup1\n      calldatasize\n      sub\n      dup2\n      add\n      swap1\n      tag_85\n      swap2\n      swap1\n      tag_34\n      jump\t// in\n    tag_85:\n      tag_86\n      jump\t// in\n    tag_84:\n      stop\n        /* \"Documents/Documents/Y3S2/IS4302/is4302placeholdername/contracts/ERC20.sol\":3415:3540  function balanceOf(address account) public view virtual override returns (uint256) {... */\n    tag_15:\n      callvalue\n      dup1\n      iszero\n      tag_87\n      jumpi\n      0x00\n      dup1\n      revert\n    tag_87:\n      pop\n      tag_88\n      0x04\n      dup1\n      calldatasize\n      sub\n      dup2\n      add\n      swap1\n      tag_89\n      swap2\n      swap1\n      tag_72\n      jump\t// in\n    tag_89:\n      tag_90\n      jump\t// in\n    tag_88:\n      mload(0x40)\n      tag_91\n      swap2\n      swap1\n      tag_42\n      jump\t// in\n    tag_91:\n      mload(0x40)\n      dup1\n      swap2\n      sub\n      swap1\n      return\n        /* \"Documents/Documents/Y3S2/IS4302/is4302placeholdername/contracts/ERC20.sol\":2365:2467  function symbol() public view virtual override returns (string memory) {... */\n    tag_16:\n      callvalue\n      dup1\n      iszero\n      tag_92\n      jumpi\n      0x00\n      dup1\n      revert\n    tag_92:\n      pop\n      tag_93\n      tag_94\n      jump\t// in\n    tag_93:\n      mload(0x40)\n      tag_95\n      swap2\n      swap1\n      tag_30\n      jump\t// in\n    tag_95:\n      mload(0x40)\n      dup1\n      swap2\n      sub\n      swap1\n      return\n        /* \"Documents/Documents/Y3S2/IS4302/is4302placeholdername/contracts/Gem.sol\":1483:1641  function checkGemAllowance(address user, address spender) public view returns (uint256) {... */\n    tag_17:\n      callvalue\n      dup1\n      iszero\n      tag_96\n      jumpi\n      0x00\n      dup1\n      revert\n    tag_96:\n      pop\n      tag_97\n      0x04\n      dup1\n      calldatasize\n      sub\n      dup2\n      add\n      swap1\n      tag_98\n      swap2\n      swap1\n      tag_99\n      jump\t// in\n    tag_98:\n      tag_100\n      jump\t// in\n    tag_97:\n      mload(0x40)\n      tag_101\n      swap2\n      swap1\n      tag_42\n      jump\t// in\n    tag_101:\n      mload(0x40)\n      dup1\n      swap2\n      sub\n      swap1\n      return\n        /* \"Documents/Documents/Y3S2/IS4302/is4302placeholdername/contracts/Gem.sol\":1647:1764  function currentGemSupply() public view returns (uint256) {... */\n    tag_18:\n      callvalue\n      dup1\n      iszero\n      tag_102\n      jumpi\n      0x00\n      dup1\n      revert\n    tag_102:\n      pop\n      tag_103\n      tag_104\n      jump\t// in\n    tag_103:\n      mload(0x40)\n      tag_105\n      swap2\n      swap1\n      tag_42\n      jump\t// in\n    tag_105:\n      mload(0x40)\n      dup1\n      swap2\n      sub\n      swap1\n      return\n        /* \"Documents/Documents/Y3S2/IS4302/is4302placeholdername/contracts/ERC20.sol\":6571:6998  function decreaseAllowance(address spender, uint256 subtractedValue) public virtual returns (bool) {... */\n    tag_19:\n      callvalue\n      dup1\n      iszero\n      tag_106\n      jumpi\n      0x00\n      dup1\n      revert\n    tag_106:\n      pop\n      tag_107\n      0x04\n      dup1\n      calldatasize\n      sub\n      dup2\n      add\n      swap1\n      tag_108\n      swap2\n      swap1\n      tag_34\n      jump\t// in\n    tag_108:\n      tag_109\n      jump\t// in\n    tag_107:\n      mload(0x40)\n      tag_110\n      swap2\n      swap1\n      tag_37\n      jump\t// in\n    tag_110:\n      mload(0x40)\n      dup1\n      swap2\n      sub\n      swap1\n      return\n        /* \"Documents/Documents/Y3S2/IS4302/is4302placeholdername/contracts/ERC20.sol\":3736:3925  function transfer(address to, uint256 amount) public virtual override returns (bool) {... */\n    tag_20:\n      callvalue\n      dup1\n      iszero\n      tag_111\n      jumpi\n      0x00\n      dup1\n      revert\n    tag_111:\n      pop\n      tag_112\n      0x04\n      dup1\n      calldatasize\n      sub\n      dup2\n      add\n      swap1\n      tag_113\n      swap2\n      swap1\n      tag_34\n      jump\t// in\n    tag_113:\n      tag_114\n      jump\t// in\n    tag_112:\n      mload(0x40)\n      tag_115\n      swap2\n      swap1\n      tag_37\n      jump\t// in\n    tag_115:\n      mload(0x40)\n      dup1\n      swap2\n      sub\n      swap1\n      return\n        /* \"Documents/Documents/Y3S2/IS4302/is4302placeholdername/contracts/ERC20.sol\":3983:4132  function allowance(address owner, address spender) public view virtual override returns (uint256) {... */\n    tag_21:\n      callvalue\n      dup1\n      iszero\n      tag_116\n      jumpi\n      0x00\n      dup1\n      revert\n    tag_116:\n      pop\n      tag_117\n      0x04\n      dup1\n      calldatasize\n      sub\n      dup2\n      add\n      swap1\n      tag_118\n      swap2\n      swap1\n      tag_99\n      jump\t// in\n    tag_118:\n      tag_119\n      jump\t// in\n    tag_117:\n      mload(0x40)\n      tag_120\n      swap2\n      swap1\n      tag_42\n      jump\t// in\n    tag_120:\n      mload(0x40)\n      dup1\n      swap2\n      sub\n      swap1\n      return\n        /* \"Documents/Documents/Y3S2/IS4302/is4302placeholdername/contracts/Gem.sol\":936:1086  function transferGems(address recipient, uint256 value) public returns (bool) {... */\n    tag_22:\n      callvalue\n      dup1\n      iszero\n      tag_121\n      jumpi\n      0x00\n      dup1\n      revert\n    tag_121:\n      pop\n      tag_122\n      0x04\n      dup1\n      calldatasize\n      sub\n      dup2\n      add\n      swap1\n      tag_123\n      swap2\n      swap1\n      tag_34\n      jump\t// in\n    tag_123:\n      tag_124\n      jump\t// in\n    tag_122:\n      mload(0x40)\n      tag_125\n      swap2\n      swap1\n      tag_37\n      jump\t// in\n    tag_125:\n      mload(0x40)\n      dup1\n      swap2\n      sub\n      swap1\n      return\n        /* \"Documents/Documents/Y3S2/IS4302/is4302placeholdername/contracts/ERC20.sol\":2154:2252  function name() public view virtual override returns (string memory) {... */\n    tag_28:\n        /* \"Documents/Documents/Y3S2/IS4302/is4302placeholdername/contracts/ERC20.sol\":2208:2221  string memory */\n      0x60\n        /* \"Documents/Documents/Y3S2/IS4302/is4302placeholdername/contracts/ERC20.sol\":2240:2245  _name */\n      0x03\n        /* \"Documents/Documents/Y3S2/IS4302/is4302placeholdername/contracts/ERC20.sol\":2233:2245  return _name */\n      dup1\n      sload\n      tag_127\n      swap1\n      tag_128\n      jump\t// in\n    tag_127:\n      dup1\n      0x1f\n      add\n      0x20\n      dup1\n      swap2\n      div\n      mul\n      0x20\n      add\n      mload(0x40)\n      swap1\n      dup2\n      add\n      0x40\n      mstore\n      dup1\n      swap3\n      swap2\n      swap1\n      dup2\n      dup2\n      mstore\n      0x20\n      add\n      dup3\n      dup1\n      sload\n      tag_129\n      swap1\n      tag_128\n      jump\t// in\n    tag_129:\n      dup1\n      iszero\n      tag_130\n      jumpi\n      dup1\n      0x1f\n      lt\n      tag_131\n      jumpi\n      0x0100\n      dup1\n      dup4\n      sload\n      div\n      mul\n      dup4\n      mstore\n      swap2\n      0x20\n      add\n      swap2\n      jump(tag_130)\n    tag_131:\n      dup3\n      add\n      swap2\n      swap1\n      0x00\n      mstore\n      keccak256(0x00, 0x20)\n      swap1\n    tag_132:\n      dup2\n      sload\n      dup2\n      mstore\n      swap1\n      0x01\n      add\n      swap1\n      0x20\n      add\n      dup1\n      dup4\n      gt\n      tag_132\n      jumpi\n      dup3\n      swap1\n      sub\n      0x1f\n      and\n      dup3\n      add\n      swap2\n    tag_130:\n      pop\n      pop\n      pop\n      pop\n      pop\n      swap1\n      pop\n        /* \"Documents/Documents/Y3S2/IS4302/is4302placeholdername/contracts/ERC20.sol\":2154:2252  function name() public view virtual override returns (string memory) {... */\n      swap1\n      jump\t// out\n        /* \"Documents/Documents/Y3S2/IS4302/is4302placeholdername/contracts/ERC20.sol\":4440:4637  function approve(address spender, uint256 amount) public virtual override returns (bool) {... */\n    tag_35:\n        /* \"Documents/Documents/Y3S2/IS4302/is4302placeholdername/contracts/ERC20.sol\":4523:4527  bool */\n      0x00\n        /* \"Documents/Documents/Y3S2/IS4302/is4302placeholdername/contracts/ERC20.sol\":4539:4552  address owner */\n      dup1\n        /* \"Documents/Documents/Y3S2/IS4302/is4302placeholdername/contracts/ERC20.sol\":4555:4567  _msgSender() */\n      tag_134\n        /* \"Documents/Documents/Y3S2/IS4302/is4302placeholdername/contracts/ERC20.sol\":4555:4565  _msgSender */\n      tag_135\n        /* \"Documents/Documents/Y3S2/IS4302/is4302placeholdername/contracts/ERC20.sol\":4555:4567  _msgSender() */\n      jump\t// in\n    tag_134:\n        /* \"Documents/Documents/Y3S2/IS4302/is4302placeholdername/contracts/ERC20.sol\":4539:4567  address owner = _msgSender() */\n      swap1\n      pop\n        /* \"Documents/Documents/Y3S2/IS4302/is4302placeholdername/contracts/ERC20.sol\":4577:4609  _approve(owner, spender, amount) */\n      tag_136\n        /* \"Documents/Documents/Y3S2/IS4302/is4302placeholdername/contracts/ERC20.sol\":4586:4591  owner */\n      dup2\n        /* \"Documents/Documents/Y3S2/IS4302/is4302placeholdername/contracts/ERC20.sol\":4593:4600  spender */\n      dup6\n        /* \"Documents/Documents/Y3S2/IS4302/is4302placeholdername/contracts/ERC20.sol\":4602:4608  amount */\n      dup6\n        /* \"Documents/Documents/Y3S2/IS4302/is4302placeholdername/contracts/ERC20.sol\":4577:4585  _approve */\n      tag_137\n        /* \"Documents/Documents/Y3S2/IS4302/is4302placeholdername/contracts/ERC20.sol\":4577:4609  _approve(owner, spender, amount) */\n      jump\t// in\n    tag_136:\n        /* \"Documents/Documents/Y3S2/IS4302/is4302placeholdername/contracts/ERC20.sol\":4626:4630  true */\n      0x01\n        /* \"Documents/Documents/Y3S2/IS4302/is4302placeholdername/contracts/ERC20.sol\":4619:4630  return true */\n      swap2\n      pop\n      pop\n        /* \"Documents/Documents/Y3S2/IS4302/is4302placeholdername/contracts/ERC20.sol\":4440:4637  function approve(address spender, uint256 amount) public virtual override returns (bool) {... */\n      swap3\n      swap2\n      pop\n      pop\n      jump\t// out\n        /* \"Documents/Documents/Y3S2/IS4302/is4302placeholdername/contracts/ERC20.sol\":3251:3357  function totalSupply() public view virtual override returns (uint256) {... */\n    tag_40:\n        /* \"Documents/Documents/Y3S2/IS4302/is4302placeholdername/contracts/ERC20.sol\":3312:3319  uint256 */\n      0x00\n        /* \"Documents/Documents/Y3S2/IS4302/is4302placeholdername/contracts/ERC20.sol\":3338:3350  _totalSupply */\n      sload(0x02)\n        /* \"Documents/Documents/Y3S2/IS4302/is4302placeholdername/contracts/ERC20.sol\":3331:3350  return _totalSupply */\n      swap1\n      pop\n        /* \"Documents/Documents/Y3S2/IS4302/is4302placeholdername/contracts/ERC20.sol\":3251:3357  function totalSupply() public view virtual override returns (uint256) {... */\n      swap1\n      jump\t// out\n        /* \"Documents/Documents/Y3S2/IS4302/is4302placeholdername/contracts/ERC20.sol\":5199:5455  function transferFrom(address from, address to, uint256 amount) public virtual override returns (bool) {... */\n    tag_47:\n        /* \"Documents/Documents/Y3S2/IS4302/is4302placeholdername/contracts/ERC20.sol\":5296:5300  bool */\n      0x00\n        /* \"Documents/Documents/Y3S2/IS4302/is4302placeholdername/contracts/ERC20.sol\":5312:5327  address spender */\n      dup1\n        /* \"Documents/Documents/Y3S2/IS4302/is4302placeholdername/contracts/ERC20.sol\":5330:5342  _msgSender() */\n      tag_140\n        /* \"Documents/Documents/Y3S2/IS4302/is4302placeholdername/contracts/ERC20.sol\":5330:5340  _msgSender */\n      tag_135\n        /* \"Documents/Documents/Y3S2/IS4302/is4302placeholdername/contracts/ERC20.sol\":5330:5342  _msgSender() */\n      jump\t// in\n    tag_140:\n        /* \"Documents/Documents/Y3S2/IS4302/is4302placeholdername/contracts/ERC20.sol\":5312:5342  address spender = _msgSender() */\n      swap1\n      pop\n        /* \"Documents/Documents/Y3S2/IS4302/is4302placeholdername/contracts/ERC20.sol\":5352:5390  _spendAllowance(from, spender, amount) */\n      tag_141\n        /* \"Documents/Documents/Y3S2/IS4302/is4302placeholdername/contracts/ERC20.sol\":5368:5372  from */\n      dup6\n        /* \"Documents/Documents/Y3S2/IS4302/is4302placeholdername/contracts/ERC20.sol\":5374:5381  spender */\n      dup3\n        /* \"Documents/Documents/Y3S2/IS4302/is4302placeholdername/contracts/ERC20.sol\":5383:5389  amount */\n      dup6\n        /* \"Documents/Documents/Y3S2/IS4302/is4302placeholdername/contracts/ERC20.sol\":5352:5367  _spendAllowance */\n      tag_142\n        /* \"Documents/Documents/Y3S2/IS4302/is4302placeholdername/contracts/ERC20.sol\":5352:5390  _spendAllowance(from, spender, amount) */\n      jump\t// in\n    tag_141:\n        /* \"Documents/Documents/Y3S2/IS4302/is4302placeholdername/contracts/ERC20.sol\":5400:5427  _transfer(from, to, amount) */\n      tag_143\n        /* \"Documents/Documents/Y3S2/IS4302/is4302placeholdername/contracts/ERC20.sol\":5410:5414  from */\n      dup6\n        /* \"Documents/Documents/Y3S2/IS4302/is4302placeholdername/contracts/ERC20.sol\":5416:5418  to */\n      dup6\n        /* \"Documents/Documents/Y3S2/IS4302/is4302placeholdername/contracts/ERC20.sol\":5420:5426  amount */\n      dup6\n        /* \"Documents/Documents/Y3S2/IS4302/is4302placeholdername/contracts/ERC20.sol\":5400:5409  _transfer */\n      tag_144\n        /* \"Documents/Documents/Y3S2/IS4302/is4302placeholdername/contracts/ERC20.sol\":5400:5427  _transfer(from, to, amount) */\n      jump\t// in\n    tag_143:\n        /* \"Documents/Documents/Y3S2/IS4302/is4302placeholdername/contracts/ERC20.sol\":5444:5448  true */\n      0x01\n        /* \"Documents/Documents/Y3S2/IS4302/is4302placeholdername/contracts/ERC20.sol\":5437:5448  return true */\n      swap2\n      pop\n      pop\n        /* \"Documents/Documents/Y3S2/IS4302/is4302placeholdername/contracts/ERC20.sol\":5199:5455  function transferFrom(address from, address to, uint256 amount) public virtual override returns (bool) {... */\n      swap4\n      swap3\n      pop\n      pop\n      pop\n      jump\t// out\n        /* \"Documents/Documents/Y3S2/IS4302/is4302placeholdername/contracts/Gem.sol\":1092:1349  function transferGemsFrom(address from, address to, uint256 amt) public {... */\n    tag_52:\n        /* \"Documents/Documents/Y3S2/IS4302/is4302placeholdername/contracts/Gem.sol\":1218:1237  1000000000000000000 */\n      0x0de0b6b3a7640000\n        /* \"Documents/Documents/Y3S2/IS4302/is4302placeholdername/contracts/Gem.sol\":1212:1215  amt */\n      dup2\n        /* \"Documents/Documents/Y3S2/IS4302/is4302placeholdername/contracts/Gem.sol\":1212:1237  amt * 1000000000000000000 */\n      tag_146\n      swap2\n      swap1\n      tag_147\n      jump\t// in\n    tag_146:\n        /* \"Documents/Documents/Y3S2/IS4302/is4302placeholdername/contracts/Gem.sol\":1182:1209  allowance(from, msg.sender) */\n      tag_148\n        /* \"Documents/Documents/Y3S2/IS4302/is4302placeholdername/contracts/Gem.sol\":1192:1196  from */\n      dup5\n        /* \"Documents/Documents/Y3S2/IS4302/is4302placeholdername/contracts/Gem.sol\":1198:1208  msg.sender */\n      caller\n        /* \"Documents/Documents/Y3S2/IS4302/is4302placeholdername/contracts/Gem.sol\":1182:1191  allowance */\n      tag_119\n        /* \"Documents/Documents/Y3S2/IS4302/is4302placeholdername/contracts/Gem.sol\":1182:1209  allowance(from, msg.sender) */\n      jump\t// in\n    tag_148:\n        /* \"Documents/Documents/Y3S2/IS4302/is4302placeholdername/contracts/Gem.sol\":1182:1237  allowance(from, msg.sender) > amt * 1000000000000000000 */\n      gt\n        /* \"Documents/Documents/Y3S2/IS4302/is4302placeholdername/contracts/Gem.sol\":1174:1283  require(allowance(from, msg.sender) > amt * 1000000000000000000, \"Warning: You are not allowed to transfer!\") */\n      tag_149\n      jumpi\n      mload(0x40)\n      0x08c379a000000000000000000000000000000000000000000000000000000000\n      dup2\n      mstore\n      0x04\n      add\n      tag_150\n      swap1\n      tag_151\n      jump\t// in\n    tag_150:\n      mload(0x40)\n      dup1\n      swap2\n      sub\n      swap1\n      revert\n    tag_149:\n        /* \"Documents/Documents/Y3S2/IS4302/is4302placeholdername/contracts/Gem.sol\":1293:1342  transferFrom(from, to, amt * 1000000000000000000) */\n      tag_152\n        /* \"Documents/Documents/Y3S2/IS4302/is4302placeholdername/contracts/Gem.sol\":1306:1310  from */\n      dup4\n        /* \"Documents/Documents/Y3S2/IS4302/is4302placeholdername/contracts/Gem.sol\":1312:1314  to */\n      dup4\n        /* \"Documents/Documents/Y3S2/IS4302/is4302placeholdername/contracts/Gem.sol\":1322:1341  1000000000000000000 */\n      0x0de0b6b3a7640000\n        /* \"Documents/Documents/Y3S2/IS4302/is4302placeholdername/contracts/Gem.sol\":1316:1319  amt */\n      dup5\n        /* \"Documents/Documents/Y3S2/IS4302/is4302placeholdername/contracts/Gem.sol\":1316:1341  amt * 1000000000000000000 */\n      tag_153\n      swap2\n      swap1\n      tag_147\n      jump\t// in\n    tag_153:\n        /* \"Documents/Documents/Y3S2/IS4302/is4302placeholdername/contracts/Gem.sol\":1293:1305  transferFrom */\n      tag_47\n        /* \"Documents/Documents/Y3S2/IS4302/is4302placeholdername/contracts/Gem.sol\":1293:1342  transferFrom(from, to, amt * 1000000000000000000) */\n      jump\t// in\n    tag_152:\n      pop\n        /* \"Documents/Documents/Y3S2/IS4302/is4302placeholdername/contracts/Gem.sol\":1092:1349  function transferGemsFrom(address from, address to, uint256 amt) public {... */\n      pop\n      pop\n      pop\n      jump\t// out\n        /* \"Documents/Documents/Y3S2/IS4302/is4302placeholdername/contracts/ERC20.sol\":3100:3191  function decimals() public view virtual override returns (uint8) {... */\n    tag_55:\n        /* \"Documents/Documents/Y3S2/IS4302/is4302placeholdername/contracts/ERC20.sol\":3158:3163  uint8 */\n      0x00\n        /* \"Documents/Documents/Y3S2/IS4302/is4302placeholdername/contracts/ERC20.sol\":3182:3184  18 */\n      0x12\n        /* \"Documents/Documents/Y3S2/IS4302/is4302placeholdername/contracts/ERC20.sol\":3175:3184  return 18 */\n      swap1\n      pop\n        /* \"Documents/Documents/Y3S2/IS4302/is4302placeholdername/contracts/ERC20.sol\":3100:3191  function decimals() public view virtual override returns (uint8) {... */\n      swap1\n      jump\t// out\n        /* \"Documents/Documents/Y3S2/IS4302/is4302placeholdername/contracts/ERC20.sol\":5850:6084  function increaseAllowance(address spender, uint256 addedValue) public virtual returns (bool) {... */\n    tag_61:\n        /* \"Documents/Documents/Y3S2/IS4302/is4302placeholdername/contracts/ERC20.sol\":5938:5942  bool */\n      0x00\n        /* \"Documents/Documents/Y3S2/IS4302/is4302placeholdername/contracts/ERC20.sol\":5954:5967  address owner */\n      dup1\n        /* \"Documents/Documents/Y3S2/IS4302/is4302placeholdername/contracts/ERC20.sol\":5970:5982  _msgSender() */\n      tag_156\n        /* \"Documents/Documents/Y3S2/IS4302/is4302placeholdername/contracts/ERC20.sol\":5970:5980  _msgSender */\n      tag_135\n        /* \"Documents/Documents/Y3S2/IS4302/is4302placeholdername/contracts/ERC20.sol\":5970:5982  _msgSender() */\n      jump\t// in\n    tag_156:\n        /* \"Documents/Documents/Y3S2/IS4302/is4302placeholdername/contracts/ERC20.sol\":5954:5982  address owner = _msgSender() */\n      swap1\n      pop\n        /* \"Documents/Documents/Y3S2/IS4302/is4302placeholdername/contracts/ERC20.sol\":5992:6056  _approve(owner, spender, allowance(owner, spender) + addedValue) */\n      tag_157\n        /* \"Documents/Documents/Y3S2/IS4302/is4302placeholdername/contracts/ERC20.sol\":6001:6006  owner */\n      dup2\n        /* \"Documents/Documents/Y3S2/IS4302/is4302placeholdername/contracts/ERC20.sol\":6008:6015  spender */\n      dup6\n        /* \"Documents/Documents/Y3S2/IS4302/is4302placeholdername/contracts/ERC20.sol\":6045:6055  addedValue */\n      dup6\n        /* \"Documents/Documents/Y3S2/IS4302/is4302placeholdername/contracts/ERC20.sol\":6017:6042  allowance(owner, spender) */\n      tag_158\n        /* \"Documents/Documents/Y3S2/IS4302/is4302placeholdername/contracts/ERC20.sol\":6027:6032  owner */\n      dup6\n        /* \"Documents/Documents/Y3S2/IS4302/is4302placeholdername/contracts/ERC20.sol\":6034:6041  spender */\n      dup10\n        /* \"Documents/Documents/Y3S2/IS4302/is4302placeholdername/contracts/ERC20.sol\":6017:6026  allowance */\n      tag_119\n        /* \"Documents/Documents/Y3S2/IS4302/is4302placeholdername/contracts/ERC20.sol\":6017:6042  allowance(owner, spender) */\n      jump\t// in\n    tag_158:\n        /* \"Documents/Documents/Y3S2/IS4302/is4302placeholdername/contracts/ERC20.sol\":6017:6055  allowance(owner, spender) + addedValue */\n      tag_159\n      swap2\n      swap1\n      tag_160\n      jump\t// in\n    tag_159:\n        /* \"Documents/Documents/Y3S2/IS4302/is4302placeholdername/contracts/ERC20.sol\":5992:6000  _approve */\n      tag_137\n        /* \"Documents/Documents/Y3S2/IS4302/is4302placeholdername/contracts/ERC20.sol\":5992:6056  _approve(owner, spender, allowance(owner, spender) + addedValue) */\n      jump\t// in\n    tag_157:\n        /* \"Documents/Documents/Y3S2/IS4302/is4302placeholdername/contracts/ERC20.sol\":6073:6077  true */\n      0x01\n        /* \"Documents/Documents/Y3S2/IS4302/is4302placeholdername/contracts/ERC20.sol\":6066:6077  return true */\n      swap2\n      pop\n      pop\n        /* \"Documents/Documents/Y3S2/IS4302/is4302placeholdername/contracts/ERC20.sol\":5850:6084  function increaseAllowance(address spender, uint256 addedValue) public virtual returns (bool) {... */\n      swap3\n      swap2\n      pop\n      pop\n      jump\t// out\n        /* \"Documents/Documents/Y3S2/IS4302/is4302placeholdername/contracts/ERC20.sol\":7004:7097  function mint(address account, uint256 amount) public {... */\n    tag_66:\n        /* \"Documents/Documents/Y3S2/IS4302/is4302placeholdername/contracts/ERC20.sol\":7068:7090  _mint(account, amount) */\n      tag_162\n        /* \"Documents/Documents/Y3S2/IS4302/is4302placeholdername/contracts/ERC20.sol\":7074:7081  account */\n      dup3\n        /* \"Documents/Documents/Y3S2/IS4302/is4302placeholdername/contracts/ERC20.sol\":7083:7089  amount */\n      dup3\n        /* \"Documents/Documents/Y3S2/IS4302/is4302placeholdername/contracts/ERC20.sol\":7068:7073  _mint */\n      tag_78\n        /* \"Documents/Documents/Y3S2/IS4302/is4302placeholdername/contracts/ERC20.sol\":7068:7090  _mint(account, amount) */\n      jump\t// in\n    tag_162:\n        /* \"Documents/Documents/Y3S2/IS4302/is4302placeholdername/contracts/ERC20.sol\":7004:7097  function mint(address account, uint256 amount) public {... */\n      pop\n      pop\n      jump\t// out\n        /* \"Documents/Documents/Y3S2/IS4302/is4302placeholdername/contracts/Gem.sol\":424:673  function getGems() public payable {... */\n    tag_68:\n        /* \"Documents/Documents/Y3S2/IS4302/is4302placeholdername/contracts/Gem.sol\":468:479  uint256 amt */\n      0x00\n        /* \"Documents/Documents/Y3S2/IS4302/is4302placeholdername/contracts/Gem.sol\":494:498  1000 */\n      0x03e8\n        /* \"Documents/Documents/Y3S2/IS4302/is4302placeholdername/contracts/Gem.sol\":482:491  msg.value */\n      callvalue\n        /* \"Documents/Documents/Y3S2/IS4302/is4302placeholdername/contracts/Gem.sol\":482:498  msg.value * 1000 */\n      tag_164\n      swap2\n      swap1\n      tag_147\n      jump\t// in\n    tag_164:\n        /* \"Documents/Documents/Y3S2/IS4302/is4302placeholdername/contracts/Gem.sol\":468:498  uint256 amt = msg.value * 1000 */\n      swap1\n      pop\n        /* \"Documents/Documents/Y3S2/IS4302/is4302placeholdername/contracts/Gem.sol\":538:549  supplyLimit */\n      sload(0x05)\n        /* \"Documents/Documents/Y3S2/IS4302/is4302placeholdername/contracts/Gem.sol\":532:535  amt */\n      dup2\n        /* \"Documents/Documents/Y3S2/IS4302/is4302placeholdername/contracts/Gem.sol\":516:529  totalSupply() */\n      tag_165\n        /* \"Documents/Documents/Y3S2/IS4302/is4302placeholdername/contracts/Gem.sol\":516:527  totalSupply */\n      tag_40\n        /* \"Documents/Documents/Y3S2/IS4302/is4302placeholdername/contracts/Gem.sol\":516:529  totalSupply() */\n      jump\t// in\n    tag_165:\n        /* \"Documents/Documents/Y3S2/IS4302/is4302placeholdername/contracts/Gem.sol\":516:535  totalSupply() + amt */\n      tag_166\n      swap2\n      swap1\n      tag_160\n      jump\t// in\n    tag_166:\n        /* \"Documents/Documents/Y3S2/IS4302/is4302placeholdername/contracts/Gem.sol\":516:549  totalSupply() + amt < supplyLimit */\n      lt\n        /* \"Documents/Documents/Y3S2/IS4302/is4302placeholdername/contracts/Gem.sol\":508:581  require(totalSupply() + amt < supplyLimit, \"Warning: Insufficient Gems!\") */\n      tag_167\n      jumpi\n      mload(0x40)\n      0x08c379a000000000000000000000000000000000000000000000000000000000\n      dup2\n      mstore\n      0x04\n      add\n      tag_168\n      swap1\n      tag_169\n      jump\t// in\n    tag_168:\n      mload(0x40)\n      dup1\n      swap2\n      sub\n      swap1\n      revert\n    tag_167:\n        /* \"Documents/Documents/Y3S2/IS4302/is4302placeholdername/contracts/Gem.sol\":645:666  mint(msg.sender, amt) */\n      tag_170\n        /* \"Documents/Documents/Y3S2/IS4302/is4302placeholdername/contracts/Gem.sol\":650:660  msg.sender */\n      caller\n        /* \"Documents/Documents/Y3S2/IS4302/is4302placeholdername/contracts/Gem.sol\":662:665  amt */\n      dup3\n        /* \"Documents/Documents/Y3S2/IS4302/is4302placeholdername/contracts/Gem.sol\":645:649  mint */\n      tag_66\n        /* \"Documents/Documents/Y3S2/IS4302/is4302placeholdername/contracts/Gem.sol\":645:666  mint(msg.sender, amt) */\n      jump\t// in\n    tag_170:\n        /* \"Documents/Documents/Y3S2/IS4302/is4302placeholdername/contracts/Gem.sol\":458:673  {... */\n      pop\n        /* \"Documents/Documents/Y3S2/IS4302/is4302placeholdername/contracts/Gem.sol\":424:673  function getGems() public payable {... */\n      jump\t// out\n        /* \"Documents/Documents/Y3S2/IS4302/is4302placeholdername/contracts/Gem.sol\":802:930  function checkGemsOf(address myAdd) public view returns (uint256) {... */\n    tag_73:\n        /* \"Documents/Documents/Y3S2/IS4302/is4302placeholdername/contracts/Gem.sol\":859:866  uint256 */\n      0x00\n        /* \"Documents/Documents/Y3S2/IS4302/is4302placeholdername/contracts/Gem.sol\":904:923  1000000000000000000 */\n      0x0de0b6b3a7640000\n        /* \"Documents/Documents/Y3S2/IS4302/is4302placeholdername/contracts/Gem.sol\":885:901  balanceOf(myAdd) */\n      tag_172\n        /* \"Documents/Documents/Y3S2/IS4302/is4302placeholdername/contracts/Gem.sol\":895:900  myAdd */\n      dup4\n        /* \"Documents/Documents/Y3S2/IS4302/is4302placeholdername/contracts/Gem.sol\":885:894  balanceOf */\n      tag_90\n        /* \"Documents/Documents/Y3S2/IS4302/is4302placeholdername/contracts/Gem.sol\":885:901  balanceOf(myAdd) */\n      jump\t// in\n    tag_172:\n        /* \"Documents/Documents/Y3S2/IS4302/is4302placeholdername/contracts/Gem.sol\":885:923  balanceOf(myAdd) / 1000000000000000000 */\n      tag_173\n      swap2\n      swap1\n      tag_174\n      jump\t// in\n    tag_173:\n        /* \"Documents/Documents/Y3S2/IS4302/is4302placeholdername/contracts/Gem.sol\":878:923  return balanceOf(myAdd) / 1000000000000000000 */\n      swap1\n      pop\n        /* \"Documents/Documents/Y3S2/IS4302/is4302placeholdername/contracts/Gem.sol\":802:930  function checkGemsOf(address myAdd) public view returns (uint256) {... */\n      swap2\n      swap1\n      pop\n      jump\t// out\n        /* \"Documents/Documents/Y3S2/IS4302/is4302placeholdername/contracts/ERC20.sol\":8615:9148  function _mint(address account, uint256 amount) public virtual {... */\n    tag_78:\n        /* \"Documents/Documents/Y3S2/IS4302/is4302placeholdername/contracts/ERC20.sol\":8715:8716  0 */\n      0x00\n        /* \"Documents/Documents/Y3S2/IS4302/is4302placeholdername/contracts/ERC20.sol\":8696:8717  account != address(0) */\n      0xffffffffffffffffffffffffffffffffffffffff\n      and\n        /* \"Documents/Documents/Y3S2/IS4302/is4302placeholdername/contracts/ERC20.sol\":8696:8703  account */\n      dup3\n        /* \"Documents/Documents/Y3S2/IS4302/is4302placeholdername/contracts/ERC20.sol\":8696:8717  account != address(0) */\n      0xffffffffffffffffffffffffffffffffffffffff\n      and\n      sub\n        /* \"Documents/Documents/Y3S2/IS4302/is4302placeholdername/contracts/ERC20.sol\":8688:8753  require(account != address(0), \"ERC20: mint to the zero address\") */\n      tag_176\n      jumpi\n      mload(0x40)\n      0x08c379a000000000000000000000000000000000000000000000000000000000\n      dup2\n      mstore\n      0x04\n      add\n      tag_177\n      swap1\n      tag_178\n      jump\t// in\n    tag_177:\n      mload(0x40)\n      dup1\n      swap2\n      sub\n      swap1\n      revert\n    tag_176:\n        /* \"Documents/Documents/Y3S2/IS4302/is4302placeholdername/contracts/ERC20.sol\":8764:8813  _beforeTokenTransfer(address(0), account, amount) */\n      tag_179\n        /* \"Documents/Documents/Y3S2/IS4302/is4302placeholdername/contracts/ERC20.sol\":8793:8794  0 */\n      0x00\n        /* \"Documents/Documents/Y3S2/IS4302/is4302placeholdername/contracts/ERC20.sol\":8797:8804  account */\n      dup4\n        /* \"Documents/Documents/Y3S2/IS4302/is4302placeholdername/contracts/ERC20.sol\":8806:8812  amount */\n      dup4\n        /* \"Documents/Documents/Y3S2/IS4302/is4302placeholdername/contracts/ERC20.sol\":8764:8784  _beforeTokenTransfer */\n      tag_180\n        /* \"Documents/Documents/Y3S2/IS4302/is4302placeholdername/contracts/ERC20.sol\":8764:8813  _beforeTokenTransfer(address(0), account, amount) */\n      jump\t// in\n    tag_179:\n        /* \"Documents/Documents/Y3S2/IS4302/is4302placeholdername/contracts/ERC20.sol\":8840:8846  amount */\n      dup1\n        /* \"Documents/Documents/Y3S2/IS4302/is4302placeholdername/contracts/ERC20.sol\":8824:8836  _totalSupply */\n      0x02\n      0x00\n        /* \"Documents/Documents/Y3S2/IS4302/is4302placeholdername/contracts/ERC20.sol\":8824:8846  _totalSupply += amount */\n      dup3\n      dup3\n      sload\n      tag_181\n      swap2\n      swap1\n      tag_160\n      jump\t// in\n    tag_181:\n      swap3\n      pop\n      pop\n      dup2\n      swap1\n      sstore\n      pop\n        /* \"Documents/Documents/Y3S2/IS4302/is4302placeholdername/contracts/ERC20.sol\":9014:9020  amount */\n      dup1\n        /* \"Documents/Documents/Y3S2/IS4302/is4302placeholdername/contracts/ERC20.sol\":8992:9001  _balances */\n      0x00\n        /* \"Documents/Documents/Y3S2/IS4302/is4302placeholdername/contracts/ERC20.sol\":8992:9010  _balances[account] */\n      dup1\n        /* \"Documents/Documents/Y3S2/IS4302/is4302placeholdername/contracts/ERC20.sol\":9002:9009  account */\n      dup5\n        /* \"Documents/Documents/Y3S2/IS4302/is4302placeholdername/contracts/ERC20.sol\":8992:9010  _balances[account] */\n      0xffffffffffffffffffffffffffffffffffffffff\n      and\n      0xffffffffffffffffffffffffffffffffffffffff\n      and\n      dup2\n      mstore\n      0x20\n      add\n      swap1\n      dup2\n      mstore\n      0x20\n      add\n      0x00\n      keccak256\n      0x00\n        /* \"Documents/Documents/Y3S2/IS4302/is4302placeholdername/contracts/ERC20.sol\":8992:9020  _balances[account] += amount */\n      dup3\n      dup3\n      sload\n      add\n      swap3\n      pop\n      pop\n      dup2\n      swap1\n      sstore\n      pop\n        /* \"Documents/Documents/Y3S2/IS4302/is4302placeholdername/contracts/ERC20.sol\":9066:9073  account */\n      dup2\n        /* \"Documents/Documents/Y3S2/IS4302/is4302placeholdername/contracts/ERC20.sol\":9045:9082  Transfer(address(0), account, amount) */\n      0xffffffffffffffffffffffffffffffffffffffff\n      and\n        /* \"Documents/Documents/Y3S2/IS4302/is4302placeholdername/contracts/ERC20.sol\":9062:9063  0 */\n      0x00\n        /* \"Documents/Documents/Y3S2/IS4302/is4302placeholdername/contracts/ERC20.sol\":9045:9082  Transfer(address(0), account, amount) */\n      0xffffffffffffffffffffffffffffffffffffffff\n      and\n      0xddf252ad1be2c89b69c2b068fc378daa952ba7f163c4a11628f55a4df523b3ef\n        /* \"Documents/Documents/Y3S2/IS4302/is4302placeholdername/contracts/ERC20.sol\":9075:9081  amount */\n      dup4\n        /* \"Documents/Documents/Y3S2/IS4302/is4302placeholdername/contracts/ERC20.sol\":9045:9082  Transfer(address(0), account, amount) */\n      mload(0x40)\n      tag_182\n      swap2\n      swap1\n      tag_42\n      jump\t// in\n    tag_182:\n      mload(0x40)\n      dup1\n      swap2\n      sub\n      swap1\n      log3\n        /* \"Documents/Documents/Y3S2/IS4302/is4302placeholdername/contracts/ERC20.sol\":9093:9141  _afterTokenTransfer(address(0), account, amount) */\n      tag_183\n        /* \"Documents/Documents/Y3S2/IS4302/is4302placeholdername/contracts/ERC20.sol\":9121:9122  0 */\n      0x00\n        /* \"Documents/Documents/Y3S2/IS4302/is4302placeholdername/contracts/ERC20.sol\":9125:9132  account */\n      dup4\n        /* \"Documents/Documents/Y3S2/IS4302/is4302placeholdername/contracts/ERC20.sol\":9134:9140  amount */\n      dup4\n        /* \"Documents/Documents/Y3S2/IS4302/is4302placeholdername/contracts/ERC20.sol\":9093:9112  _afterTokenTransfer */\n      tag_184\n        /* \"Documents/Documents/Y3S2/IS4302/is4302placeholdername/contracts/ERC20.sol\":9093:9141  _afterTokenTransfer(address(0), account, amount) */\n      jump\t// in\n    tag_183:\n        /* \"Documents/Documents/Y3S2/IS4302/is4302placeholdername/contracts/ERC20.sol\":8615:9148  function _mint(address account, uint256 amount) public virtual {... */\n      pop\n      pop\n      jump\t// out\n        /* \"Documents/Documents/Y3S2/IS4302/is4302placeholdername/contracts/Gem.sol\":679:796  function checkGems() public view returns(uint256) {... */\n    tag_81:\n        /* \"Documents/Documents/Y3S2/IS4302/is4302placeholdername/contracts/Gem.sol\":720:727  uint256 */\n      0x00\n        /* \"Documents/Documents/Y3S2/IS4302/is4302placeholdername/contracts/Gem.sol\":770:789  1000000000000000000 */\n      0x0de0b6b3a7640000\n        /* \"Documents/Documents/Y3S2/IS4302/is4302placeholdername/contracts/Gem.sol\":746:767  balanceOf(msg.sender) */\n      tag_186\n        /* \"Documents/Documents/Y3S2/IS4302/is4302placeholdername/contracts/Gem.sol\":756:766  msg.sender */\n      caller\n        /* \"Documents/Documents/Y3S2/IS4302/is4302placeholdername/contracts/Gem.sol\":746:755  balanceOf */\n      tag_90\n        /* \"Documents/Documents/Y3S2/IS4302/is4302placeholdername/contracts/Gem.sol\":746:767  balanceOf(msg.sender) */\n      jump\t// in\n    tag_186:\n        /* \"Documents/Documents/Y3S2/IS4302/is4302placeholdername/contracts/Gem.sol\":746:789  balanceOf(msg.sender) / 1000000000000000000 */\n      tag_187\n      swap2\n      swap1\n      tag_174\n      jump\t// in\n    tag_187:\n        /* \"Documents/Documents/Y3S2/IS4302/is4302placeholdername/contracts/Gem.sol\":739:789  return balanceOf(msg.sender) / 1000000000000000000 */\n      swap1\n      pop\n        /* \"Documents/Documents/Y3S2/IS4302/is4302placeholdername/contracts/Gem.sol\":679:796  function checkGems() public view returns(uint256) {... */\n      swap1\n      jump\t// out\n        /* \"Documents/Documents/Y3S2/IS4302/is4302placeholdername/contracts/Gem.sol\":1355:1477  function giveGemApproval(address receipt, uint256 amt) public {... */\n    tag_86:\n        /* \"Documents/Documents/Y3S2/IS4302/is4302placeholdername/contracts/Gem.sol\":1427:1470  approve(receipt, amt * 1000000000000000000) */\n      tag_189\n        /* \"Documents/Documents/Y3S2/IS4302/is4302placeholdername/contracts/Gem.sol\":1435:1442  receipt */\n      dup3\n        /* \"Documents/Documents/Y3S2/IS4302/is4302placeholdername/contracts/Gem.sol\":1450:1469  1000000000000000000 */\n      0x0de0b6b3a7640000\n        /* \"Documents/Documents/Y3S2/IS4302/is4302placeholdername/contracts/Gem.sol\":1444:1447  amt */\n      dup4\n        /* \"Documents/Documents/Y3S2/IS4302/is4302placeholdername/contracts/Gem.sol\":1444:1469  amt * 1000000000000000000 */\n      tag_190\n      swap2\n      swap1\n      tag_147\n      jump\t// in\n    tag_190:\n        /* \"Documents/Documents/Y3S2/IS4302/is4302placeholdername/contracts/Gem.sol\":1427:1434  approve */\n      tag_35\n        /* \"Documents/Documents/Y3S2/IS4302/is4302placeholdername/contracts/Gem.sol\":1427:1470  approve(receipt, amt * 1000000000000000000) */\n      jump\t// in\n    tag_189:\n      pop\n        /* \"Documents/Documents/Y3S2/IS4302/is4302placeholdername/contracts/Gem.sol\":1355:1477  function giveGemApproval(address receipt, uint256 amt) public {... */\n      pop\n      pop\n      jump\t// out\n        /* \"Documents/Documents/Y3S2/IS4302/is4302placeholdername/contracts/ERC20.sol\":3415:3540  function balanceOf(address account) public view virtual override returns (uint256) {... */\n    tag_90:\n        /* \"Documents/Documents/Y3S2/IS4302/is4302placeholdername/contracts/ERC20.sol\":3489:3496  uint256 */\n      0x00\n        /* \"Documents/Documents/Y3S2/IS4302/is4302placeholdername/contracts/ERC20.sol\":3515:3524  _balances */\n      dup1\n        /* \"Documents/Documents/Y3S2/IS4302/is4302placeholdername/contracts/ERC20.sol\":3515:3533  _balances[account] */\n      0x00\n        /* \"Documents/Documents/Y3S2/IS4302/is4302placeholdername/contracts/ERC20.sol\":3525:3532  account */\n      dup4\n        /* \"Documents/Documents/Y3S2/IS4302/is4302placeholdername/contracts/ERC20.sol\":3515:3533  _balances[account] */\n      0xffffffffffffffffffffffffffffffffffffffff\n      and\n      0xffffffffffffffffffffffffffffffffffffffff\n      and\n      dup2\n      mstore\n      0x20\n      add\n      swap1\n      dup2\n      mstore\n      0x20\n      add\n      0x00\n      keccak256\n      sload\n        /* \"Documents/Documents/Y3S2/IS4302/is4302placeholdername/contracts/ERC20.sol\":3508:3533  return _balances[account] */\n      swap1\n      pop\n        /* \"Documents/Documents/Y3S2/IS4302/is4302placeholdername/contracts/ERC20.sol\":3415:3540  function balanceOf(address account) public view virtual override returns (uint256) {... */\n      swap2\n      swap1\n      pop\n      jump\t// out\n        /* \"Documents/Documents/Y3S2/IS4302/is4302placeholdername/contracts/ERC20.sol\":2365:2467  function symbol() public view virtual override returns (string memory) {... */\n    tag_94:\n        /* \"Documents/Documents/Y3S2/IS4302/is4302placeholdername/contracts/ERC20.sol\":2421:2434  string memory */\n      0x60\n        /* \"Documents/Documents/Y3S2/IS4302/is4302placeholdername/contracts/ERC20.sol\":2453:2460  _symbol */\n      0x04\n        /* \"Documents/Documents/Y3S2/IS4302/is4302placeholdername/contracts/ERC20.sol\":2446:2460  return _symbol */\n      dup1\n      sload\n      tag_193\n      swap1\n      tag_128\n      jump\t// in\n    tag_193:\n      dup1\n      0x1f\n      add\n      0x20\n      dup1\n      swap2\n      div\n      mul\n      0x20\n      add\n      mload(0x40)\n      swap1\n      dup2\n      add\n      0x40\n      mstore\n      dup1\n      swap3\n      swap2\n      swap1\n      dup2\n      dup2\n      mstore\n      0x20\n      add\n      dup3\n      dup1\n      sload\n      tag_194\n      swap1\n      tag_128\n      jump\t// in\n    tag_194:\n      dup1\n      iszero\n      tag_195\n      jumpi\n      dup1\n      0x1f\n      lt\n      tag_196\n      jumpi\n      0x0100\n      dup1\n      dup4\n      sload\n      div\n      mul\n      dup4\n      mstore\n      swap2\n      0x20\n      add\n      swap2\n      jump(tag_195)\n    tag_196:\n      dup3\n      add\n      swap2\n      swap1\n      0x00\n      mstore\n      keccak256(0x00, 0x20)\n      swap1\n    tag_197:\n      dup2\n      sload\n      dup2\n      mstore\n      swap1\n      0x01\n      add\n      swap1\n      0x20\n      add\n      dup1\n      dup4\n      gt\n      tag_197\n      jumpi\n      dup3\n      swap1\n      sub\n      0x1f\n      and\n      dup3\n      add\n      swap2\n    tag_195:\n      pop\n      pop\n      pop\n      pop\n      pop\n      swap1\n      pop\n        /* \"Documents/Documents/Y3S2/IS4302/is4302placeholdername/contracts/ERC20.sol\":2365:2467  function symbol() public view virtual override returns (string memory) {... */\n      swap1\n      jump\t// out\n        /* \"Documents/Documents/Y3S2/IS4302/is4302placeholdername/contracts/Gem.sol\":1483:1641  function checkGemAllowance(address user, address spender) public view returns (uint256) {... */\n    tag_100:\n        /* \"Documents/Documents/Y3S2/IS4302/is4302placeholdername/contracts/Gem.sol\":1562:1569  uint256 */\n      0x00\n        /* \"Documents/Documents/Y3S2/IS4302/is4302placeholdername/contracts/Gem.sol\":1615:1634  1000000000000000000 */\n      0x0de0b6b3a7640000\n        /* \"Documents/Documents/Y3S2/IS4302/is4302placeholdername/contracts/Gem.sol\":1588:1612  allowance(user, spender) */\n      tag_199\n        /* \"Documents/Documents/Y3S2/IS4302/is4302placeholdername/contracts/Gem.sol\":1598:1602  user */\n      dup5\n        /* \"Documents/Documents/Y3S2/IS4302/is4302placeholdername/contracts/Gem.sol\":1604:1611  spender */\n      dup5\n        /* \"Documents/Documents/Y3S2/IS4302/is4302placeholdername/contracts/Gem.sol\":1588:1597  allowance */\n      tag_119\n        /* \"Documents/Documents/Y3S2/IS4302/is4302placeholdername/contracts/Gem.sol\":1588:1612  allowance(user, spender) */\n      jump\t// in\n    tag_199:\n        /* \"Documents/Documents/Y3S2/IS4302/is4302placeholdername/contracts/Gem.sol\":1588:1634  allowance(user, spender) / 1000000000000000000 */\n      tag_200\n      swap2\n      swap1\n      tag_174\n      jump\t// in\n    tag_200:\n        /* \"Documents/Documents/Y3S2/IS4302/is4302placeholdername/contracts/Gem.sol\":1581:1634  return allowance(user, spender) / 1000000000000000000 */\n      swap1\n      pop\n        /* \"Documents/Documents/Y3S2/IS4302/is4302placeholdername/contracts/Gem.sol\":1483:1641  function checkGemAllowance(address user, address spender) public view returns (uint256) {... */\n      swap3\n      swap2\n      pop\n      pop\n      jump\t// out\n        /* \"Documents/Documents/Y3S2/IS4302/is4302placeholdername/contracts/Gem.sol\":1647:1764  function currentGemSupply() public view returns (uint256) {... */\n    tag_104:\n        /* \"Documents/Documents/Y3S2/IS4302/is4302placeholdername/contracts/Gem.sol\":1696:1703  uint256 */\n      0x00\n        /* \"Documents/Documents/Y3S2/IS4302/is4302placeholdername/contracts/Gem.sol\":1738:1757  1000000000000000000 */\n      0x0de0b6b3a7640000\n        /* \"Documents/Documents/Y3S2/IS4302/is4302placeholdername/contracts/Gem.sol\":1722:1735  totalSupply() */\n      tag_202\n        /* \"Documents/Documents/Y3S2/IS4302/is4302placeholdername/contracts/Gem.sol\":1722:1733  totalSupply */\n      tag_40\n        /* \"Documents/Documents/Y3S2/IS4302/is4302placeholdername/contracts/Gem.sol\":1722:1735  totalSupply() */\n      jump\t// in\n    tag_202:\n        /* \"Documents/Documents/Y3S2/IS4302/is4302placeholdername/contracts/Gem.sol\":1722:1757  totalSupply() / 1000000000000000000 */\n      tag_203\n      swap2\n      swap1\n      tag_174\n      jump\t// in\n    tag_203:\n        /* \"Documents/Documents/Y3S2/IS4302/is4302placeholdername/contracts/Gem.sol\":1715:1757  return totalSupply() / 1000000000000000000 */\n      swap1\n      pop\n        /* \"Documents/Documents/Y3S2/IS4302/is4302placeholdername/contracts/Gem.sol\":1647:1764  function currentGemSupply() public view returns (uint256) {... */\n      swap1\n      jump\t// out\n        /* \"Documents/Documents/Y3S2/IS4302/is4302placeholdername/contracts/ERC20.sol\":6571:6998  function decreaseAllowance(address spender, uint256 subtractedValue) public virtual returns (bool) {... */\n    tag_109:\n        /* \"Documents/Documents/Y3S2/IS4302/is4302placeholdername/contracts/ERC20.sol\":6664:6668  bool */\n      0x00\n        /* \"Documents/Documents/Y3S2/IS4302/is4302placeholdername/contracts/ERC20.sol\":6680:6693  address owner */\n      dup1\n        /* \"Documents/Documents/Y3S2/IS4302/is4302placeholdername/contracts/ERC20.sol\":6696:6708  _msgSender() */\n      tag_205\n        /* \"Documents/Documents/Y3S2/IS4302/is4302placeholdername/contracts/ERC20.sol\":6696:6706  _msgSender */\n      tag_135\n        /* \"Documents/Documents/Y3S2/IS4302/is4302placeholdername/contracts/ERC20.sol\":6696:6708  _msgSender() */\n      jump\t// in\n    tag_205:\n        /* \"Documents/Documents/Y3S2/IS4302/is4302placeholdername/contracts/ERC20.sol\":6680:6708  address owner = _msgSender() */\n      swap1\n      pop\n        /* \"Documents/Documents/Y3S2/IS4302/is4302placeholdername/contracts/ERC20.sol\":6718:6742  uint256 currentAllowance */\n      0x00\n        /* \"Documents/Documents/Y3S2/IS4302/is4302placeholdername/contracts/ERC20.sol\":6745:6770  allowance(owner, spender) */\n      tag_206\n        /* \"Documents/Documents/Y3S2/IS4302/is4302placeholdername/contracts/ERC20.sol\":6755:6760  owner */\n      dup3\n        /* \"Documents/Documents/Y3S2/IS4302/is4302placeholdername/contracts/ERC20.sol\":6762:6769  spender */\n      dup7\n        /* \"Documents/Documents/Y3S2/IS4302/is4302placeholdername/contracts/ERC20.sol\":6745:6754  allowance */\n      tag_119\n        /* \"Documents/Documents/Y3S2/IS4302/is4302placeholdername/contracts/ERC20.sol\":6745:6770  allowance(owner, spender) */\n      jump\t// in\n    tag_206:\n        /* \"Documents/Documents/Y3S2/IS4302/is4302placeholdername/contracts/ERC20.sol\":6718:6770  uint256 currentAllowance = allowance(owner, spender) */\n      swap1\n      pop\n        /* \"Documents/Documents/Y3S2/IS4302/is4302placeholdername/contracts/ERC20.sol\":6808:6823  subtractedValue */\n      dup4\n        /* \"Documents/Documents/Y3S2/IS4302/is4302placeholdername/contracts/ERC20.sol\":6788:6804  currentAllowance */\n      dup2\n        /* \"Documents/Documents/Y3S2/IS4302/is4302placeholdername/contracts/ERC20.sol\":6788:6823  currentAllowance >= subtractedValue */\n      lt\n      iszero\n        /* \"Documents/Documents/Y3S2/IS4302/is4302placeholdername/contracts/ERC20.sol\":6780:6865  require(currentAllowance >= subtractedValue, \"ERC20: decreased allowance below zero\") */\n      tag_207\n      jumpi\n      mload(0x40)\n      0x08c379a000000000000000000000000000000000000000000000000000000000\n      dup2\n      mstore\n      0x04\n      add\n      tag_208\n      swap1\n      tag_209\n      jump\t// in\n    tag_208:\n      mload(0x40)\n      dup1\n      swap2\n      sub\n      swap1\n      revert\n    tag_207:\n        /* \"Documents/Documents/Y3S2/IS4302/is4302placeholdername/contracts/ERC20.sol\":6899:6959  _approve(owner, spender, currentAllowance - subtractedValue) */\n      tag_210\n        /* \"Documents/Documents/Y3S2/IS4302/is4302placeholdername/contracts/ERC20.sol\":6908:6913  owner */\n      dup3\n        /* \"Documents/Documents/Y3S2/IS4302/is4302placeholdername/contracts/ERC20.sol\":6915:6922  spender */\n      dup7\n        /* \"Documents/Documents/Y3S2/IS4302/is4302placeholdername/contracts/ERC20.sol\":6943:6958  subtractedValue */\n      dup7\n        /* \"Documents/Documents/Y3S2/IS4302/is4302placeholdername/contracts/ERC20.sol\":6924:6940  currentAllowance */\n      dup5\n        /* \"Documents/Documents/Y3S2/IS4302/is4302placeholdername/contracts/ERC20.sol\":6924:6958  currentAllowance - subtractedValue */\n      sub\n        /* \"Documents/Documents/Y3S2/IS4302/is4302placeholdername/contracts/ERC20.sol\":6899:6907  _approve */\n      tag_137\n        /* \"Documents/Documents/Y3S2/IS4302/is4302placeholdername/contracts/ERC20.sol\":6899:6959  _approve(owner, spender, currentAllowance - subtractedValue) */\n      jump\t// in\n    tag_210:\n        /* \"Documents/Documents/Y3S2/IS4302/is4302placeholdername/contracts/ERC20.sol\":6987:6991  true */\n      0x01\n        /* \"Documents/Documents/Y3S2/IS4302/is4302placeholdername/contracts/ERC20.sol\":6980:6991  return true */\n      swap3\n      pop\n      pop\n      pop\n        /* \"Documents/Documents/Y3S2/IS4302/is4302placeholdername/contracts/ERC20.sol\":6571:6998  function decreaseAllowance(address spender, uint256 subtractedValue) public virtual returns (bool) {... */\n      swap3\n      swap2\n      pop\n      pop\n      jump\t// out\n        /* \"Documents/Documents/Y3S2/IS4302/is4302placeholdername/contracts/ERC20.sol\":3736:3925  function transfer(address to, uint256 amount) public virtual override returns (bool) {... */\n    tag_114:\n        /* \"Documents/Documents/Y3S2/IS4302/is4302placeholdername/contracts/ERC20.sol\":3815:3819  bool */\n      0x00\n        /* \"Documents/Documents/Y3S2/IS4302/is4302placeholdername/contracts/ERC20.sol\":3831:3844  address owner */\n      dup1\n        /* \"Documents/Documents/Y3S2/IS4302/is4302placeholdername/contracts/ERC20.sol\":3847:3859  _msgSender() */\n      tag_212\n        /* \"Documents/Documents/Y3S2/IS4302/is4302placeholdername/contracts/ERC20.sol\":3847:3857  _msgSender */\n      tag_135\n        /* \"Documents/Documents/Y3S2/IS4302/is4302placeholdername/contracts/ERC20.sol\":3847:3859  _msgSender() */\n      jump\t// in\n    tag_212:\n        /* \"Documents/Documents/Y3S2/IS4302/is4302placeholdername/contracts/ERC20.sol\":3831:3859  address owner = _msgSender() */\n      swap1\n      pop\n        /* \"Documents/Documents/Y3S2/IS4302/is4302placeholdername/contracts/ERC20.sol\":3869:3897  _transfer(owner, to, amount) */\n      tag_213\n        /* \"Documents/Documents/Y3S2/IS4302/is4302placeholdername/contracts/ERC20.sol\":3879:3884  owner */\n      dup2\n        /* \"Documents/Documents/Y3S2/IS4302/is4302placeholdername/contracts/ERC20.sol\":3886:3888  to */\n      dup6\n        /* \"Documents/Documents/Y3S2/IS4302/is4302placeholdername/contracts/ERC20.sol\":3890:3896  amount */\n      dup6\n        /* \"Documents/Documents/Y3S2/IS4302/is4302placeholdername/contracts/ERC20.sol\":3869:3878  _transfer */\n      tag_144\n        /* \"Documents/Documents/Y3S2/IS4302/is4302placeholdername/contracts/ERC20.sol\":3869:3897  _transfer(owner, to, amount) */\n      jump\t// in\n    tag_213:\n        /* \"Documents/Documents/Y3S2/IS4302/is4302placeholdername/contracts/ERC20.sol\":3914:3918  true */\n      0x01\n        /* \"Documents/Documents/Y3S2/IS4302/is4302placeholdername/contracts/ERC20.sol\":3907:3918  return true */\n      swap2\n      pop\n      pop\n        /* \"Documents/Documents/Y3S2/IS4302/is4302placeholdername/contracts/ERC20.sol\":3736:3925  function transfer(address to, uint256 amount) public virtual override returns (bool) {... */\n      swap3\n      swap2\n      pop\n      pop\n      jump\t// out\n        /* \"Documents/Documents/Y3S2/IS4302/is4302placeholdername/contracts/ERC20.sol\":3983:4132  function allowance(address owner, address spender) public view virtual override returns (uint256) {... */\n    tag_119:\n        /* \"Documents/Documents/Y3S2/IS4302/is4302placeholdername/contracts/ERC20.sol\":4072:4079  uint256 */\n      0x00\n        /* \"Documents/Documents/Y3S2/IS4302/is4302placeholdername/contracts/ERC20.sol\":4098:4109  _allowances */\n      0x01\n        /* \"Documents/Documents/Y3S2/IS4302/is4302placeholdername/contracts/ERC20.sol\":4098:4116  _allowances[owner] */\n      0x00\n        /* \"Documents/Documents/Y3S2/IS4302/is4302placeholdername/contracts/ERC20.sol\":4110:4115  owner */\n      dup5\n        /* \"Documents/Documents/Y3S2/IS4302/is4302placeholdername/contracts/ERC20.sol\":4098:4116  _allowances[owner] */\n      0xffffffffffffffffffffffffffffffffffffffff\n      and\n      0xffffffffffffffffffffffffffffffffffffffff\n      and\n      dup2\n      mstore\n      0x20\n      add\n      swap1\n      dup2\n      mstore\n      0x20\n      add\n      0x00\n      keccak256\n        /* \"Documents/Documents/Y3S2/IS4302/is4302placeholdername/contracts/ERC20.sol\":4098:4125  _allowances[owner][spender] */\n      0x00\n        /* \"Documents/Documents/Y3S2/IS4302/is4302placeholdername/contracts/ERC20.sol\":4117:4124  spender */\n      dup4\n        /* \"Documents/Documents/Y3S2/IS4302/is4302placeholdername/contracts/ERC20.sol\":4098:4125  _allowances[owner][spender] */\n      0xffffffffffffffffffffffffffffffffffffffff\n      and\n      0xffffffffffffffffffffffffffffffffffffffff\n      and\n      dup2\n      mstore\n      0x20\n      add\n      swap1\n      dup2\n      mstore\n      0x20\n      add\n      0x00\n      keccak256\n      sload\n        /* \"Documents/Documents/Y3S2/IS4302/is4302placeholdername/contracts/ERC20.sol\":4091:4125  return _allowances[owner][spender] */\n      swap1\n      pop\n        /* \"Documents/Documents/Y3S2/IS4302/is4302placeholdername/contracts/ERC20.sol\":3983:4132  function allowance(address owner, address spender) public view virtual override returns (uint256) {... */\n      swap3\n      swap2\n      pop\n      pop\n      jump\t// out\n        /* \"Documents/Documents/Y3S2/IS4302/is4302placeholdername/contracts/Gem.sol\":936:1086  function transferGems(address recipient, uint256 value) public returns (bool) {... */\n    tag_124:\n        /* \"Documents/Documents/Y3S2/IS4302/is4302placeholdername/contracts/Gem.sol\":1008:1012  bool */\n      0x00\n        /* \"Documents/Documents/Y3S2/IS4302/is4302placeholdername/contracts/Gem.sol\":1031:1079  transfer(recipient, value * 1000000000000000000) */\n      tag_216\n        /* \"Documents/Documents/Y3S2/IS4302/is4302placeholdername/contracts/Gem.sol\":1040:1049  recipient */\n      dup4\n        /* \"Documents/Documents/Y3S2/IS4302/is4302placeholdername/contracts/Gem.sol\":1059:1078  1000000000000000000 */\n      0x0de0b6b3a7640000\n        /* \"Documents/Documents/Y3S2/IS4302/is4302placeholdername/contracts/Gem.sol\":1051:1056  value */\n      dup5\n        /* \"Documents/Documents/Y3S2/IS4302/is4302placeholdername/contracts/Gem.sol\":1051:1078  value * 1000000000000000000 */\n      tag_217\n      swap2\n      swap1\n      tag_147\n      jump\t// in\n    tag_217:\n        /* \"Documents/Documents/Y3S2/IS4302/is4302placeholdername/contracts/Gem.sol\":1031:1039  transfer */\n      tag_114\n        /* \"Documents/Documents/Y3S2/IS4302/is4302placeholdername/contracts/Gem.sol\":1031:1079  transfer(recipient, value * 1000000000000000000) */\n      jump\t// in\n    tag_216:\n        /* \"Documents/Documents/Y3S2/IS4302/is4302placeholdername/contracts/Gem.sol\":1024:1079  return transfer(recipient, value * 1000000000000000000) */\n      swap1\n      pop\n        /* \"Documents/Documents/Y3S2/IS4302/is4302placeholdername/contracts/Gem.sol\":936:1086  function transferGems(address recipient, uint256 value) public returns (bool) {... */\n      swap3\n      swap2\n      pop\n      pop\n      jump\t// out\n        /* \"Documents/Documents/Y3S2/IS4302/is4302placeholdername/contracts/utils/Context.sol\":640:736  function _msgSender() internal view virtual returns (address) {... */\n    tag_135:\n        /* \"Documents/Documents/Y3S2/IS4302/is4302placeholdername/contracts/utils/Context.sol\":693:700  address */\n      0x00\n        /* \"Documents/Documents/Y3S2/IS4302/is4302placeholdername/contracts/utils/Context.sol\":719:729  msg.sender */\n      caller\n        /* \"Documents/Documents/Y3S2/IS4302/is4302placeholdername/contracts/utils/Context.sol\":712:729  return msg.sender */\n      swap1\n      pop\n        /* \"Documents/Documents/Y3S2/IS4302/is4302placeholdername/contracts/utils/Context.sol\":640:736  function _msgSender() internal view virtual returns (address) {... */\n      swap1\n      jump\t// out\n        /* \"Documents/Documents/Y3S2/IS4302/is4302placeholdername/contracts/ERC20.sol\":10550:10890  function _approve(address owner, address spender, uint256 amount) internal virtual {... */\n    tag_137:\n        /* \"Documents/Documents/Y3S2/IS4302/is4302placeholdername/contracts/ERC20.sol\":10668:10669  0 */\n      0x00\n        /* \"Documents/Documents/Y3S2/IS4302/is4302placeholdername/contracts/ERC20.sol\":10651:10670  owner != address(0) */\n      0xffffffffffffffffffffffffffffffffffffffff\n      and\n        /* \"Documents/Documents/Y3S2/IS4302/is4302placeholdername/contracts/ERC20.sol\":10651:10656  owner */\n      dup4\n        /* \"Documents/Documents/Y3S2/IS4302/is4302placeholdername/contracts/ERC20.sol\":10651:10670  owner != address(0) */\n      0xffffffffffffffffffffffffffffffffffffffff\n      and\n      sub\n        /* \"Documents/Documents/Y3S2/IS4302/is4302placeholdername/contracts/ERC20.sol\":10643:10711  require(owner != address(0), \"ERC20: approve from the zero address\") */\n      tag_220\n      jumpi\n      mload(0x40)\n      0x08c379a000000000000000000000000000000000000000000000000000000000\n      dup2\n      mstore\n      0x04\n      add\n      tag_221\n      swap1\n      tag_222\n      jump\t// in\n    tag_221:\n      mload(0x40)\n      dup1\n      swap2\n      sub\n      swap1\n      revert\n    tag_220:\n        /* \"Documents/Documents/Y3S2/IS4302/is4302placeholdername/contracts/ERC20.sol\":10748:10749  0 */\n      0x00\n        /* \"Documents/Documents/Y3S2/IS4302/is4302placeholdername/contracts/ERC20.sol\":10729:10750  spender != address(0) */\n      0xffffffffffffffffffffffffffffffffffffffff\n      and\n        /* \"Documents/Documents/Y3S2/IS4302/is4302placeholdername/contracts/ERC20.sol\":10729:10736  spender */\n      dup3\n        /* \"Documents/Documents/Y3S2/IS4302/is4302placeholdername/contracts/ERC20.sol\":10729:10750  spender != address(0) */\n      0xffffffffffffffffffffffffffffffffffffffff\n      and\n      sub\n        /* \"Documents/Documents/Y3S2/IS4302/is4302placeholdername/contracts/ERC20.sol\":10721:10789  require(spender != address(0), \"ERC20: approve to the zero address\") */\n      tag_223\n      jumpi\n      mload(0x40)\n      0x08c379a000000000000000000000000000000000000000000000000000000000\n      dup2\n      mstore\n      0x04\n      add\n      tag_224\n      swap1\n      tag_225\n      jump\t// in\n    tag_224:\n      mload(0x40)\n      dup1\n      swap2\n      sub\n      swap1\n      revert\n    tag_223:\n        /* \"Documents/Documents/Y3S2/IS4302/is4302placeholdername/contracts/ERC20.sol\":10830:10836  amount */\n      dup1\n        /* \"Documents/Documents/Y3S2/IS4302/is4302placeholdername/contracts/ERC20.sol\":10800:10811  _allowances */\n      0x01\n        /* \"Documents/Documents/Y3S2/IS4302/is4302placeholdername/contracts/ERC20.sol\":10800:10818  _allowances[owner] */\n      0x00\n        /* \"Documents/Documents/Y3S2/IS4302/is4302placeholdername/contracts/ERC20.sol\":10812:10817  owner */\n      dup6\n        /* \"Documents/Documents/Y3S2/IS4302/is4302placeholdername/contracts/ERC20.sol\":10800:10818  _allowances[owner] */\n      0xffffffffffffffffffffffffffffffffffffffff\n      and\n      0xffffffffffffffffffffffffffffffffffffffff\n      and\n      dup2\n      mstore\n      0x20\n      add\n      swap1\n      dup2\n      mstore\n      0x20\n      add\n      0x00\n      keccak256\n        /* \"Documents/Documents/Y3S2/IS4302/is4302placeholdername/contracts/ERC20.sol\":10800:10827  _allowances[owner][spender] */\n      0x00\n        /* \"Documents/Documents/Y3S2/IS4302/is4302placeholdername/contracts/ERC20.sol\":10819:10826  spender */\n      dup5\n        /* \"Documents/Documents/Y3S2/IS4302/is4302placeholdername/contracts/ERC20.sol\":10800:10827  _allowances[owner][spender] */\n      0xffffffffffffffffffffffffffffffffffffffff\n      and\n      0xffffffffffffffffffffffffffffffffffffffff\n      and\n      dup2\n      mstore\n      0x20\n      add\n      swap1\n      dup2\n      mstore\n      0x20\n      add\n      0x00\n      keccak256\n        /* \"Documents/Documents/Y3S2/IS4302/is4302placeholdername/contracts/ERC20.sol\":10800:10836  _allowances[owner][spender] = amount */\n      dup2\n      swap1\n      sstore\n      pop\n        /* \"Documents/Documents/Y3S2/IS4302/is4302placeholdername/contracts/ERC20.sol\":10867:10874  spender */\n      dup2\n        /* \"Documents/Documents/Y3S2/IS4302/is4302placeholdername/contracts/ERC20.sol\":10851:10883  Approval(owner, spender, amount) */\n      0xffffffffffffffffffffffffffffffffffffffff\n      and\n        /* \"Documents/Documents/Y3S2/IS4302/is4302placeholdername/contracts/ERC20.sol\":10860:10865  owner */\n      dup4\n        /* \"Documents/Documents/Y3S2/IS4302/is4302placeholdername/contracts/ERC20.sol\":10851:10883  Approval(owner, spender, amount) */\n      0xffffffffffffffffffffffffffffffffffffffff\n      and\n      0x8c5be1e5ebec7d5bd14f71427d1e84f3dd0314c0f7b2291e5b200ac8c7c3b925\n        /* \"Documents/Documents/Y3S2/IS4302/is4302placeholdername/contracts/ERC20.sol\":10876:10882  amount */\n      dup4\n        /* \"Documents/Documents/Y3S2/IS4302/is4302placeholdername/contracts/ERC20.sol\":10851:10883  Approval(owner, spender, amount) */\n      mload(0x40)\n      tag_226\n      swap2\n      swap1\n      tag_42\n      jump\t// in\n    tag_226:\n      mload(0x40)\n      dup1\n      swap2\n      sub\n      swap1\n      log3\n        /* \"Documents/Documents/Y3S2/IS4302/is4302placeholdername/contracts/ERC20.sol\":10550:10890  function _approve(address owner, address spender, uint256 amount) internal virtual {... */\n      pop\n      pop\n      pop\n      jump\t// out\n        /* \"Documents/Documents/Y3S2/IS4302/is4302placeholdername/contracts/ERC20.sol\":11171:11582  function _spendAllowance(address owner, address spender, uint256 amount) internal virtual {... */\n    tag_142:\n        /* \"Documents/Documents/Y3S2/IS4302/is4302placeholdername/contracts/ERC20.sol\":11271:11295  uint256 currentAllowance */\n      0x00\n        /* \"Documents/Documents/Y3S2/IS4302/is4302placeholdername/contracts/ERC20.sol\":11298:11323  allowance(owner, spender) */\n      tag_228\n        /* \"Documents/Documents/Y3S2/IS4302/is4302placeholdername/contracts/ERC20.sol\":11308:11313  owner */\n      dup5\n        /* \"Documents/Documents/Y3S2/IS4302/is4302placeholdername/contracts/ERC20.sol\":11315:11322  spender */\n      dup5\n        /* \"Documents/Documents/Y3S2/IS4302/is4302placeholdername/contracts/ERC20.sol\":11298:11307  allowance */\n      tag_119\n        /* \"Documents/Documents/Y3S2/IS4302/is4302placeholdername/contracts/ERC20.sol\":11298:11323  allowance(owner, spender) */\n      jump\t// in\n    tag_228:\n        /* \"Documents/Documents/Y3S2/IS4302/is4302placeholdername/contracts/ERC20.sol\":11271:11323  uint256 currentAllowance = allowance(owner, spender) */\n      swap1\n      pop\n        /* \"Documents/Documents/Y3S2/IS4302/is4302placeholdername/contracts/ERC20.sol\":11357:11374  type(uint256).max */\n      0xffffffffffffffffffffffffffffffffffffffffffffffffffffffffffffffff\n        /* \"Documents/Documents/Y3S2/IS4302/is4302placeholdername/contracts/ERC20.sol\":11337:11353  currentAllowance */\n      dup2\n        /* \"Documents/Documents/Y3S2/IS4302/is4302placeholdername/contracts/ERC20.sol\":11337:11374  currentAllowance != type(uint256).max */\n      eq\n        /* \"Documents/Documents/Y3S2/IS4302/is4302placeholdername/contracts/ERC20.sol\":11333:11576  if (currentAllowance != type(uint256).max) {... */\n      tag_229\n      jumpi\n        /* \"Documents/Documents/Y3S2/IS4302/is4302placeholdername/contracts/ERC20.sol\":11418:11424  amount */\n      dup2\n        /* \"Documents/Documents/Y3S2/IS4302/is4302placeholdername/contracts/ERC20.sol\":11398:11414  currentAllowance */\n      dup2\n        /* \"Documents/Documents/Y3S2/IS4302/is4302placeholdername/contracts/ERC20.sol\":11398:11424  currentAllowance >= amount */\n      lt\n      iszero\n        /* \"Documents/Documents/Y3S2/IS4302/is4302placeholdername/contracts/ERC20.sol\":11390:11458  require(currentAllowance >= amount, \"ERC20: insufficient allowance\") */\n      tag_230\n      jumpi\n      mload(0x40)\n      0x08c379a000000000000000000000000000000000000000000000000000000000\n      dup2\n      mstore\n      0x04\n      add\n      tag_231\n      swap1\n      tag_232\n      jump\t// in\n    tag_231:\n      mload(0x40)\n      dup1\n      swap2\n      sub\n      swap1\n      revert\n    tag_230:\n        /* \"Documents/Documents/Y3S2/IS4302/is4302placeholdername/contracts/ERC20.sol\":11500:11551  _approve(owner, spender, currentAllowance - amount) */\n      tag_233\n        /* \"Documents/Documents/Y3S2/IS4302/is4302placeholdername/contracts/ERC20.sol\":11509:11514  owner */\n      dup5\n        /* \"Documents/Documents/Y3S2/IS4302/is4302placeholdername/contracts/ERC20.sol\":11516:11523  spender */\n      dup5\n        /* \"Documents/Documents/Y3S2/IS4302/is4302placeholdername/contracts/ERC20.sol\":11544:11550  amount */\n      dup5\n        /* \"Documents/Documents/Y3S2/IS4302/is4302placeholdername/contracts/ERC20.sol\":11525:11541  currentAllowance */\n      dup5\n        /* \"Documents/Documents/Y3S2/IS4302/is4302placeholdername/contracts/ERC20.sol\":11525:11550  currentAllowance - amount */\n      sub\n        /* \"Documents/Documents/Y3S2/IS4302/is4302placeholdername/contracts/ERC20.sol\":11500:11508  _approve */\n      tag_137\n        /* \"Documents/Documents/Y3S2/IS4302/is4302placeholdername/contracts/ERC20.sol\":11500:11551  _approve(owner, spender, currentAllowance - amount) */\n      jump\t// in\n    tag_233:\n        /* \"Documents/Documents/Y3S2/IS4302/is4302placeholdername/contracts/ERC20.sol\":11333:11576  if (currentAllowance != type(uint256).max) {... */\n    tag_229:\n        /* \"Documents/Documents/Y3S2/IS4302/is4302placeholdername/contracts/ERC20.sol\":11261:11582  {... */\n      pop\n        /* \"Documents/Documents/Y3S2/IS4302/is4302placeholdername/contracts/ERC20.sol\":11171:11582  function _spendAllowance(address owner, address spender, uint256 amount) internal virtual {... */\n      pop\n      pop\n      pop\n      jump\t// out\n        /* \"Documents/Documents/Y3S2/IS4302/is4302placeholdername/contracts/ERC20.sol\":7551:8339  function _transfer(address from, address to, uint256 amount) internal virtual {... */\n    tag_144:\n        /* \"Documents/Documents/Y3S2/IS4302/is4302placeholdername/contracts/ERC20.sol\":7663:7664  0 */\n      0x00\n        /* \"Documents/Documents/Y3S2/IS4302/is4302placeholdername/contracts/ERC20.sol\":7647:7665  from != address(0) */\n      0xffffffffffffffffffffffffffffffffffffffff\n      and\n        /* \"Documents/Documents/Y3S2/IS4302/is4302placeholdername/contracts/ERC20.sol\":7647:7651  from */\n      dup4\n        /* \"Documents/Documents/Y3S2/IS4302/is4302placeholdername/contracts/ERC20.sol\":7647:7665  from != address(0) */\n      0xffffffffffffffffffffffffffffffffffffffff\n      and\n      sub\n        /* \"Documents/Documents/Y3S2/IS4302/is4302placeholdername/contracts/ERC20.sol\":7639:7707  require(from != address(0), \"ERC20: transfer from the zero address\") */\n      tag_235\n      jumpi\n      mload(0x40)\n      0x08c379a000000000000000000000000000000000000000000000000000000000\n      dup2\n      mstore\n      0x04\n      add\n      tag_236\n      swap1\n      tag_237\n      jump\t// in\n    tag_236:\n      mload(0x40)\n      dup1\n      swap2\n      sub\n      swap1\n      revert\n    tag_235:\n        /* \"Documents/Documents/Y3S2/IS4302/is4302placeholdername/contracts/ERC20.sol\":7739:7740  0 */\n      0x00\n        /* \"Documents/Documents/Y3S2/IS4302/is4302placeholdername/contracts/ERC20.sol\":7725:7741  to != address(0) */\n      0xffffffffffffffffffffffffffffffffffffffff\n      and\n        /* \"Documents/Documents/Y3S2/IS4302/is4302placeholdername/contracts/ERC20.sol\":7725:7727  to */\n      dup3\n        /* \"Documents/Documents/Y3S2/IS4302/is4302placeholdername/contracts/ERC20.sol\":7725:7741  to != address(0) */\n      0xffffffffffffffffffffffffffffffffffffffff\n      and\n      sub\n        /* \"Documents/Documents/Y3S2/IS4302/is4302placeholdername/contracts/ERC20.sol\":7717:7781  require(to != address(0), \"ERC20: transfer to the zero address\") */\n      tag_238\n      jumpi\n      mload(0x40)\n      0x08c379a000000000000000000000000000000000000000000000000000000000\n      dup2\n      mstore\n      0x04\n      add\n      tag_239\n      swap1\n      tag_240\n      jump\t// in\n    tag_239:\n      mload(0x40)\n      dup1\n      swap2\n      sub\n      swap1\n      revert\n    tag_238:\n        /* \"Documents/Documents/Y3S2/IS4302/is4302placeholdername/contracts/ERC20.sol\":7792:7830  _beforeTokenTransfer(from, to, amount) */\n      tag_241\n        /* \"Documents/Documents/Y3S2/IS4302/is4302placeholdername/contracts/ERC20.sol\":7813:7817  from */\n      dup4\n        /* \"Documents/Documents/Y3S2/IS4302/is4302placeholdername/contracts/ERC20.sol\":7819:7821  to */\n      dup4\n        /* \"Documents/Documents/Y3S2/IS4302/is4302placeholdername/contracts/ERC20.sol\":7823:7829  amount */\n      dup4\n        /* \"Documents/Documents/Y3S2/IS4302/is4302placeholdername/contracts/ERC20.sol\":7792:7812  _beforeTokenTransfer */\n      tag_180\n        /* \"Documents/Documents/Y3S2/IS4302/is4302placeholdername/contracts/ERC20.sol\":7792:7830  _beforeTokenTransfer(from, to, amount) */\n      jump\t// in\n    tag_241:\n        /* \"Documents/Documents/Y3S2/IS4302/is4302placeholdername/contracts/ERC20.sol\":7841:7860  uint256 fromBalance */\n      0x00\n        /* \"Documents/Documents/Y3S2/IS4302/is4302placeholdername/contracts/ERC20.sol\":7863:7872  _balances */\n      dup1\n        /* \"Documents/Documents/Y3S2/IS4302/is4302placeholdername/contracts/ERC20.sol\":7863:7878  _balances[from] */\n      0x00\n        /* \"Documents/Documents/Y3S2/IS4302/is4302placeholdername/contracts/ERC20.sol\":7873:7877  from */\n      dup6\n        /* \"Documents/Documents/Y3S2/IS4302/is4302placeholdername/contracts/ERC20.sol\":7863:7878  _balances[from] */\n      0xffffffffffffffffffffffffffffffffffffffff\n      and\n      0xffffffffffffffffffffffffffffffffffffffff\n      and\n      dup2\n      mstore\n      0x20\n      add\n      swap1\n      dup2\n      mstore\n      0x20\n      add\n      0x00\n      keccak256\n      sload\n        /* \"Documents/Documents/Y3S2/IS4302/is4302placeholdername/contracts/ERC20.sol\":7841:7878  uint256 fromBalance = _balances[from] */\n      swap1\n      pop\n        /* \"Documents/Documents/Y3S2/IS4302/is4302placeholdername/contracts/ERC20.sol\":7911:7917  amount */\n      dup2\n        /* \"Documents/Documents/Y3S2/IS4302/is4302placeholdername/contracts/ERC20.sol\":7896:7907  fromBalance */\n      dup2\n        /* \"Documents/Documents/Y3S2/IS4302/is4302placeholdername/contracts/ERC20.sol\":7896:7917  fromBalance >= amount */\n      lt\n      iszero\n        /* \"Documents/Documents/Y3S2/IS4302/is4302placeholdername/contracts/ERC20.sol\":7888:7960  require(fromBalance >= amount, \"ERC20: transfer amount exceeds balance\") */\n      tag_242\n      jumpi\n      mload(0x40)\n      0x08c379a000000000000000000000000000000000000000000000000000000000\n      dup2\n      mstore\n      0x04\n      add\n      tag_243\n      swap1\n      tag_244\n      jump\t// in\n    tag_243:\n      mload(0x40)\n      dup1\n      swap2\n      sub\n      swap1\n      revert\n    tag_242:\n        /* \"Documents/Documents/Y3S2/IS4302/is4302placeholdername/contracts/ERC20.sol\":8026:8032  amount */\n      dup2\n        /* \"Documents/Documents/Y3S2/IS4302/is4302placeholdername/contracts/ERC20.sol\":8012:8023  fromBalance */\n      dup2\n        /* \"Documents/Documents/Y3S2/IS4302/is4302placeholdername/contracts/ERC20.sol\":8012:8032  fromBalance - amount */\n      sub\n        /* \"Documents/Documents/Y3S2/IS4302/is4302placeholdername/contracts/ERC20.sol\":7994:8003  _balances */\n      0x00\n        /* \"Documents/Documents/Y3S2/IS4302/is4302placeholdername/contracts/ERC20.sol\":7994:8009  _balances[from] */\n      dup1\n        /* \"Documents/Documents/Y3S2/IS4302/is4302placeholdername/contracts/ERC20.sol\":8004:8008  from */\n      dup7\n        /* \"Documents/Documents/Y3S2/IS4302/is4302placeholdername/contracts/ERC20.sol\":7994:8009  _balances[from] */\n      0xffffffffffffffffffffffffffffffffffffffff\n      and\n      0xffffffffffffffffffffffffffffffffffffffff\n      and\n      dup2\n      mstore\n      0x20\n      add\n      swap1\n      dup2\n      mstore\n      0x20\n      add\n      0x00\n      keccak256\n        /* \"Documents/Documents/Y3S2/IS4302/is4302placeholdername/contracts/ERC20.sol\":7994:8032  _balances[from] = fromBalance - amount */\n      dup2\n      swap1\n      sstore\n      pop\n        /* \"Documents/Documents/Y3S2/IS4302/is4302placeholdername/contracts/ERC20.sol\":8226:8232  amount */\n      dup2\n        /* \"Documents/Documents/Y3S2/IS4302/is4302placeholdername/contracts/ERC20.sol\":8209:8218  _balances */\n      0x00\n        /* \"Documents/Documents/Y3S2/IS4302/is4302placeholdername/contracts/ERC20.sol\":8209:8222  _balances[to] */\n      dup1\n        /* \"Documents/Documents/Y3S2/IS4302/is4302placeholdername/contracts/ERC20.sol\":8219:8221  to */\n      dup6\n        /* \"Documents/Documents/Y3S2/IS4302/is4302placeholdername/contracts/ERC20.sol\":8209:8222  _balances[to] */\n      0xffffffffffffffffffffffffffffffffffffffff\n      and\n      0xffffffffffffffffffffffffffffffffffffffff\n      and\n      dup2\n      mstore\n      0x20\n      add\n      swap1\n      dup2\n      mstore\n      0x20\n      add\n      0x00\n      keccak256\n      0x00\n        /* \"Documents/Documents/Y3S2/IS4302/is4302placeholdername/contracts/ERC20.sol\":8209:8232  _balances[to] += amount */\n      dup3\n      dup3\n      sload\n      add\n      swap3\n      pop\n      pop\n      dup2\n      swap1\n      sstore\n      pop\n        /* \"Documents/Documents/Y3S2/IS4302/is4302placeholdername/contracts/ERC20.sol\":8273:8275  to */\n      dup3\n        /* \"Documents/Documents/Y3S2/IS4302/is4302placeholdername/contracts/ERC20.sol\":8258:8284  Transfer(from, to, amount) */\n      0xffffffffffffffffffffffffffffffffffffffff\n      and\n        /* \"Documents/Documents/Y3S2/IS4302/is4302placeholdername/contracts/ERC20.sol\":8267:8271  from */\n      dup5\n        /* \"Documents/Documents/Y3S2/IS4302/is4302placeholdername/contracts/ERC20.sol\":8258:8284  Transfer(from, to, amount) */\n      0xffffffffffffffffffffffffffffffffffffffff\n      and\n      0xddf252ad1be2c89b69c2b068fc378daa952ba7f163c4a11628f55a4df523b3ef\n        /* \"Documents/Documents/Y3S2/IS4302/is4302placeholdername/contracts/ERC20.sol\":8277:8283  amount */\n      dup5\n        /* \"Documents/Documents/Y3S2/IS4302/is4302placeholdername/contracts/ERC20.sol\":8258:8284  Transfer(from, to, amount) */\n      mload(0x40)\n      tag_245\n      swap2\n      swap1\n      tag_42\n      jump\t// in\n    tag_245:\n      mload(0x40)\n      dup1\n      swap2\n      sub\n      swap1\n      log3\n        /* \"Documents/Documents/Y3S2/IS4302/is4302placeholdername/contracts/ERC20.sol\":8295:8332  _afterTokenTransfer(from, to, amount) */\n      tag_246\n        /* \"Documents/Documents/Y3S2/IS4302/is4302placeholdername/contracts/ERC20.sol\":8315:8319  from */\n      dup5\n        /* \"Documents/Documents/Y3S2/IS4302/is4302placeholdername/contracts/ERC20.sol\":8321:8323  to */\n      dup5\n        /* \"Documents/Documents/Y3S2/IS4302/is4302placeholdername/contracts/ERC20.sol\":8325:8331  amount */\n      dup5\n        /* \"Documents/Documents/Y3S2/IS4302/is4302placeholdername/contracts/ERC20.sol\":8295:8314  _afterTokenTransfer */\n      tag_184\n        /* \"Documents/Documents/Y3S2/IS4302/is4302placeholdername/contracts/ERC20.sol\":8295:8332  _afterTokenTransfer(from, to, amount) */\n      jump\t// in\n    tag_246:\n        /* \"Documents/Documents/Y3S2/IS4302/is4302placeholdername/contracts/ERC20.sol\":7629:8339  {... */\n      pop\n        /* \"Documents/Documents/Y3S2/IS4302/is4302placeholdername/contracts/ERC20.sol\":7551:8339  function _transfer(address from, address to, uint256 amount) internal virtual {... */\n      pop\n      pop\n      pop\n      jump\t// out\n        /* \"Documents/Documents/Y3S2/IS4302/is4302placeholdername/contracts/ERC20.sol\":12166:12257  function _beforeTokenTransfer(address from, address to, uint256 amount) internal virtual {} */\n    tag_180:\n      pop\n      pop\n      pop\n      jump\t// out\n        /* \"Documents/Documents/Y3S2/IS4302/is4302placeholdername/contracts/ERC20.sol\":12845:12935  function _afterTokenTransfer(address from, address to, uint256 amount) internal virtual {} */\n    tag_184:\n      pop\n      pop\n      pop\n      jump\t// out\n        /* \"#utility.yul\":7:106   */\n    tag_249:\n        /* \"#utility.yul\":59:65   */\n      0x00\n        /* \"#utility.yul\":93:98   */\n      dup2\n        /* \"#utility.yul\":87:99   */\n      mload\n        /* \"#utility.yul\":77:99   */\n      swap1\n      pop\n        /* \"#utility.yul\":7:106   */\n      swap2\n      swap1\n      pop\n      jump\t// out\n        /* \"#utility.yul\":112:281   */\n    tag_250:\n        /* \"#utility.yul\":196:207   */\n      0x00\n        /* \"#utility.yul\":230:236   */\n      dup3\n        /* \"#utility.yul\":225:228   */\n      dup3\n        /* \"#utility.yul\":218:237   */\n      mstore\n        /* \"#utility.yul\":270:274   */\n      0x20\n        /* \"#utility.yul\":265:268   */\n      dup3\n        /* \"#utility.yul\":261:275   */\n      add\n        /* \"#utility.yul\":246:275   */\n      swap1\n      pop\n        /* \"#utility.yul\":112:281   */\n      swap3\n      swap2\n      pop\n      pop\n      jump\t// out\n        /* \"#utility.yul\":287:533   */\n    tag_251:\n        /* \"#utility.yul\":368:369   */\n      0x00\n        /* \"#utility.yul\":378:491   */\n    tag_296:\n        /* \"#utility.yul\":392:398   */\n      dup4\n        /* \"#utility.yul\":389:390   */\n      dup2\n        /* \"#utility.yul\":386:399   */\n      lt\n        /* \"#utility.yul\":378:491   */\n      iszero\n      tag_298\n      jumpi\n        /* \"#utility.yul\":477:478   */\n      dup1\n        /* \"#utility.yul\":472:475   */\n      dup3\n        /* \"#utility.yul\":468:479   */\n      add\n        /* \"#utility.yul\":462:480   */\n      mload\n        /* \"#utility.yul\":458:459   */\n      dup2\n        /* \"#utility.yul\":453:456   */\n      dup5\n        /* \"#utility.yul\":449:460   */\n      add\n        /* \"#utility.yul\":442:481   */\n      mstore\n        /* \"#utility.yul\":414:416   */\n      0x20\n        /* \"#utility.yul\":411:412   */\n      dup2\n        /* \"#utility.yul\":407:417   */\n      add\n        /* \"#utility.yul\":402:417   */\n      swap1\n      pop\n        /* \"#utility.yul\":378:491   */\n      jump(tag_296)\n    tag_298:\n        /* \"#utility.yul\":525:526   */\n      0x00\n        /* \"#utility.yul\":516:522   */\n      dup5\n        /* \"#utility.yul\":511:514   */\n      dup5\n        /* \"#utility.yul\":507:523   */\n      add\n        /* \"#utility.yul\":500:527   */\n      mstore\n        /* \"#utility.yul\":349:533   */\n      pop\n        /* \"#utility.yul\":287:533   */\n      pop\n      pop\n      pop\n      jump\t// out\n        /* \"#utility.yul\":539:641   */\n    tag_252:\n        /* \"#utility.yul\":580:586   */\n      0x00\n        /* \"#utility.yul\":631:633   */\n      0x1f\n        /* \"#utility.yul\":627:634   */\n      not\n        /* \"#utility.yul\":622:624   */\n      0x1f\n        /* \"#utility.yul\":615:620   */\n      dup4\n        /* \"#utility.yul\":611:625   */\n      add\n        /* \"#utility.yul\":607:635   */\n      and\n        /* \"#utility.yul\":597:635   */\n      swap1\n      pop\n        /* \"#utility.yul\":539:641   */\n      swap2\n      swap1\n      pop\n      jump\t// out\n        /* \"#utility.yul\":647:1024   */\n    tag_253:\n        /* \"#utility.yul\":735:738   */\n      0x00\n        /* \"#utility.yul\":763:802   */\n      tag_301\n        /* \"#utility.yul\":796:801   */\n      dup3\n        /* \"#utility.yul\":763:802   */\n      tag_249\n      jump\t// in\n    tag_301:\n        /* \"#utility.yul\":818:889   */\n      tag_302\n        /* \"#utility.yul\":882:888   */\n      dup2\n        /* \"#utility.yul\":877:880   */\n      dup6\n        /* \"#utility.yul\":818:889   */\n      tag_250\n      jump\t// in\n    tag_302:\n        /* \"#utility.yul\":811:889   */\n      swap4\n      pop\n        /* \"#utility.yul\":898:963   */\n      tag_303\n        /* \"#utility.yul\":956:962   */\n      dup2\n        /* \"#utility.yul\":951:954   */\n      dup6\n        /* \"#utility.yul\":944:948   */\n      0x20\n        /* \"#utility.yul\":937:942   */\n      dup7\n        /* \"#utility.yul\":933:949   */\n      add\n        /* \"#utility.yul\":898:963   */\n      tag_251\n      jump\t// in\n    tag_303:\n        /* \"#utility.yul\":988:1017   */\n      tag_304\n        /* \"#utility.yul\":1010:1016   */\n      dup2\n        /* \"#utility.yul\":988:1017   */\n      tag_252\n      jump\t// in\n    tag_304:\n        /* \"#utility.yul\":983:986   */\n      dup5\n        /* \"#utility.yul\":979:1018   */\n      add\n        /* \"#utility.yul\":972:1018   */\n      swap2\n      pop\n        /* \"#utility.yul\":739:1024   */\n      pop\n        /* \"#utility.yul\":647:1024   */\n      swap3\n      swap2\n      pop\n      pop\n      jump\t// out\n        /* \"#utility.yul\":1030:1343   */\n    tag_30:\n        /* \"#utility.yul\":1143:1147   */\n      0x00\n        /* \"#utility.yul\":1181:1183   */\n      0x20\n        /* \"#utility.yul\":1170:1179   */\n      dup3\n        /* \"#utility.yul\":1166:1184   */\n      add\n        /* \"#utility.yul\":1158:1184   */\n      swap1\n      pop\n        /* \"#utility.yul\":1230:1239   */\n      dup2\n        /* \"#utility.yul\":1224:1228   */\n      dup2\n        /* \"#utility.yul\":1220:1240   */\n      sub\n        /* \"#utility.yul\":1216:1217   */\n      0x00\n        /* \"#utility.yul\":1205:1214   */\n      dup4\n        /* \"#utility.yul\":1201:1218   */\n      add\n        /* \"#utility.yul\":1194:1241   */\n      mstore\n        /* \"#utility.yul\":1258:1336   */\n      tag_306\n        /* \"#utility.yul\":1331:1335   */\n      dup2\n        /* \"#utility.yul\":1322:1328   */\n      dup5\n        /* \"#utility.yul\":1258:1336   */\n      tag_253\n      jump\t// in\n    tag_306:\n        /* \"#utility.yul\":1250:1336   */\n      swap1\n      pop\n        /* \"#utility.yul\":1030:1343   */\n      swap3\n      swap2\n      pop\n      pop\n      jump\t// out\n        /* \"#utility.yul\":1430:1547   */\n    tag_255:\n        /* \"#utility.yul\":1539:1540   */\n      0x00\n        /* \"#utility.yul\":1536:1537   */\n      dup1\n        /* \"#utility.yul\":1529:1541   */\n      revert\n        /* \"#utility.yul\":1676:1802   */\n    tag_257:\n        /* \"#utility.yul\":1713:1720   */\n      0x00\n        /* \"#utility.yul\":1753:1795   */\n      0xffffffffffffffffffffffffffffffffffffffff\n        /* \"#utility.yul\":1746:1751   */\n      dup3\n        /* \"#utility.yul\":1742:1796   */\n      and\n        /* \"#utility.yul\":1731:1796   */\n      swap1\n      pop\n        /* \"#utility.yul\":1676:1802   */\n      swap2\n      swap1\n      pop\n      jump\t// out\n        /* \"#utility.yul\":1808:1904   */\n    tag_258:\n        /* \"#utility.yul\":1845:1852   */\n      0x00\n        /* \"#utility.yul\":1874:1898   */\n      tag_312\n        /* \"#utility.yul\":1892:1897   */\n      dup3\n        /* \"#utility.yul\":1874:1898   */\n      tag_257\n      jump\t// in\n    tag_312:\n        /* \"#utility.yul\":1863:1898   */\n      swap1\n      pop\n        /* \"#utility.yul\":1808:1904   */\n      swap2\n      swap1\n      pop\n      jump\t// out\n        /* \"#utility.yul\":1910:2032   */\n    tag_259:\n        /* \"#utility.yul\":1983:2007   */\n      tag_314\n        /* \"#utility.yul\":2001:2006   */\n      dup2\n        /* \"#utility.yul\":1983:2007   */\n      tag_258\n      jump\t// in\n    tag_314:\n        /* \"#utility.yul\":1976:1981   */\n      dup2\n        /* \"#utility.yul\":1973:2008   */\n      eq\n        /* \"#utility.yul\":1963:2026   */\n      tag_315\n      jumpi\n        /* \"#utility.yul\":2022:2023   */\n      0x00\n        /* \"#utility.yul\":2019:2020   */\n      dup1\n        /* \"#utility.yul\":2012:2024   */\n      revert\n        /* \"#utility.yul\":1963:2026   */\n    tag_315:\n        /* \"#utility.yul\":1910:2032   */\n      pop\n      jump\t// out\n        /* \"#utility.yul\":2038:2177   */\n    tag_260:\n        /* \"#utility.yul\":2084:2089   */\n      0x00\n        /* \"#utility.yul\":2122:2128   */\n      dup2\n        /* \"#utility.yul\":2109:2129   */\n      calldataload\n        /* \"#utility.yul\":2100:2129   */\n      swap1\n      pop\n        /* \"#utility.yul\":2138:2171   */\n      tag_317\n        /* \"#utility.yul\":2165:2170   */\n      dup2\n        /* \"#utility.yul\":2138:2171   */\n      tag_259\n      jump\t// in\n    tag_317:\n        /* \"#utility.yul\":2038:2177   */\n      swap3\n      swap2\n      pop\n      pop\n      jump\t// out\n        /* \"#utility.yul\":2183:2260   */\n    tag_261:\n        /* \"#utility.yul\":2220:2227   */\n      0x00\n        /* \"#utility.yul\":2249:2254   */\n      dup2\n        /* \"#utility.yul\":2238:2254   */\n      swap1\n      pop\n        /* \"#utility.yul\":2183:2260   */\n      swap2\n      swap1\n      pop\n      jump\t// out\n        /* \"#utility.yul\":2266:2388   */\n    tag_262:\n        /* \"#utility.yul\":2339:2363   */\n      tag_320\n        /* \"#utility.yul\":2357:2362   */\n      dup2\n        /* \"#utility.yul\":2339:2363   */\n      tag_261\n      jump\t// in\n    tag_320:\n        /* \"#utility.yul\":2332:2337   */\n      dup2\n        /* \"#utility.yul\":2329:2364   */\n      eq\n        /* \"#utility.yul\":2319:2382   */\n      tag_321\n      jumpi\n        /* \"#utility.yul\":2378:2379   */\n      0x00\n        /* \"#utility.yul\":2375:2376   */\n      dup1\n        /* \"#utility.yul\":2368:2380   */\n      revert\n        /* \"#utility.yul\":2319:2382   */\n    tag_321:\n        /* \"#utility.yul\":2266:2388   */\n      pop\n      jump\t// out\n        /* \"#utility.yul\":2394:2533   */\n    tag_263:\n        /* \"#utility.yul\":2440:2445   */\n      0x00\n        /* \"#utility.yul\":2478:2484   */\n      dup2\n        /* \"#utility.yul\":2465:2485   */\n      calldataload\n        /* \"#utility.yul\":2456:2485   */\n      swap1\n      pop\n        /* \"#utility.yul\":2494:2527   */\n      tag_323\n        /* \"#utility.yul\":2521:2526   */\n      dup2\n        /* \"#utility.yul\":2494:2527   */\n      tag_262\n      jump\t// in\n    tag_323:\n        /* \"#utility.yul\":2394:2533   */\n      swap3\n      swap2\n      pop\n      pop\n      jump\t// out\n        /* \"#utility.yul\":2539:3013   */\n    tag_34:\n        /* \"#utility.yul\":2607:2613   */\n      0x00\n        /* \"#utility.yul\":2615:2621   */\n      dup1\n        /* \"#utility.yul\":2664:2666   */\n      0x40\n        /* \"#utility.yul\":2652:2661   */\n      dup4\n        /* \"#utility.yul\":2643:2650   */\n      dup6\n        /* \"#utility.yul\":2639:2662   */\n      sub\n        /* \"#utility.yul\":2635:2667   */\n      slt\n        /* \"#utility.yul\":2632:2751   */\n      iszero\n      tag_325\n      jumpi\n        /* \"#utility.yul\":2670:2749   */\n      tag_326\n      tag_255\n      jump\t// in\n    tag_326:\n        /* \"#utility.yul\":2632:2751   */\n    tag_325:\n        /* \"#utility.yul\":2790:2791   */\n      0x00\n        /* \"#utility.yul\":2815:2868   */\n      tag_327\n        /* \"#utility.yul\":2860:2867   */\n      dup6\n        /* \"#utility.yul\":2851:2857   */\n      dup3\n        /* \"#utility.yul\":2840:2849   */\n      dup7\n        /* \"#utility.yul\":2836:2858   */\n      add\n        /* \"#utility.yul\":2815:2868   */\n      tag_260\n      jump\t// in\n    tag_327:\n        /* \"#utility.yul\":2805:2868   */\n      swap3\n      pop\n        /* \"#utility.yul\":2761:2878   */\n      pop\n        /* \"#utility.yul\":2917:2919   */\n      0x20\n        /* \"#utility.yul\":2943:2996   */\n      tag_328\n        /* \"#utility.yul\":2988:2995   */\n      dup6\n        /* \"#utility.yul\":2979:2985   */\n      dup3\n        /* \"#utility.yul\":2968:2977   */\n      dup7\n        /* \"#utility.yul\":2964:2986   */\n      add\n        /* \"#utility.yul\":2943:2996   */\n      tag_263\n      jump\t// in\n    tag_328:\n        /* \"#utility.yul\":2933:2996   */\n      swap2\n      pop\n        /* \"#utility.yul\":2888:3006   */\n      pop\n        /* \"#utility.yul\":2539:3013   */\n      swap3\n      pop\n      swap3\n      swap1\n      pop\n      jump\t// out\n        /* \"#utility.yul\":3019:3109   */\n    tag_264:\n        /* \"#utility.yul\":3053:3060   */\n      0x00\n        /* \"#utility.yul\":3096:3101   */\n      dup2\n        /* \"#utility.yul\":3089:3102   */\n      iszero\n        /* \"#utility.yul\":3082:3103   */\n      iszero\n        /* \"#utility.yul\":3071:3103   */\n      swap1\n      pop\n        /* \"#utility.yul\":3019:3109   */\n      swap2\n      swap1\n      pop\n      jump\t// out\n        /* \"#utility.yul\":3115:3224   */\n    tag_265:\n        /* \"#utility.yul\":3196:3217   */\n      tag_331\n        /* \"#utility.yul\":3211:3216   */\n      dup2\n        /* \"#utility.yul\":3196:3217   */\n      tag_264\n      jump\t// in\n    tag_331:\n        /* \"#utility.yul\":3191:3194   */\n      dup3\n        /* \"#utility.yul\":3184:3218   */\n      mstore\n        /* \"#utility.yul\":3115:3224   */\n      pop\n      pop\n      jump\t// out\n        /* \"#utility.yul\":3230:3440   */\n    tag_37:\n        /* \"#utility.yul\":3317:3321   */\n      0x00\n        /* \"#utility.yul\":3355:3357   */\n      0x20\n        /* \"#utility.yul\":3344:3353   */\n      dup3\n        /* \"#utility.yul\":3340:3358   */\n      add\n        /* \"#utility.yul\":3332:3358   */\n      swap1\n      pop\n        /* \"#utility.yul\":3368:3433   */\n      tag_333\n        /* \"#utility.yul\":3430:3431   */\n      0x00\n        /* \"#utility.yul\":3419:3428   */\n      dup4\n        /* \"#utility.yul\":3415:3432   */\n      add\n        /* \"#utility.yul\":3406:3412   */\n      dup5\n        /* \"#utility.yul\":3368:3433   */\n      tag_265\n      jump\t// in\n    tag_333:\n        /* \"#utility.yul\":3230:3440   */\n      swap3\n      swap2\n      pop\n      pop\n      jump\t// out\n        /* \"#utility.yul\":3446:3564   */\n    tag_266:\n        /* \"#utility.yul\":3533:3557   */\n      tag_335\n        /* \"#utility.yul\":3551:3556   */\n      dup2\n        /* \"#utility.yul\":3533:3557   */\n      tag_261\n      jump\t// in\n    tag_335:\n        /* \"#utility.yul\":3528:3531   */\n      dup3\n        /* \"#utility.yul\":3521:3558   */\n      mstore\n        /* \"#utility.yul\":3446:3564   */\n      pop\n      pop\n      jump\t// out\n        /* \"#utility.yul\":3570:3792   */\n    tag_42:\n        /* \"#utility.yul\":3663:3667   */\n      0x00\n        /* \"#utility.yul\":3701:3703   */\n      0x20\n        /* \"#utility.yul\":3690:3699   */\n      dup3\n        /* \"#utility.yul\":3686:3704   */\n      add\n        /* \"#utility.yul\":3678:3704   */\n      swap1\n      pop\n        /* \"#utility.yul\":3714:3785   */\n      tag_337\n        /* \"#utility.yul\":3782:3783   */\n      0x00\n        /* \"#utility.yul\":3771:3780   */\n      dup4\n        /* \"#utility.yul\":3767:3784   */\n      add\n        /* \"#utility.yul\":3758:3764   */\n      dup5\n        /* \"#utility.yul\":3714:3785   */\n      tag_266\n      jump\t// in\n    tag_337:\n        /* \"#utility.yul\":3570:3792   */\n      swap3\n      swap2\n      pop\n      pop\n      jump\t// out\n        /* \"#utility.yul\":3798:4417   */\n    tag_46:\n        /* \"#utility.yul\":3875:3881   */\n      0x00\n        /* \"#utility.yul\":3883:3889   */\n      dup1\n        /* \"#utility.yul\":3891:3897   */\n      0x00\n        /* \"#utility.yul\":3940:3942   */\n      0x60\n        /* \"#utility.yul\":3928:3937   */\n      dup5\n        /* \"#utility.yul\":3919:3926   */\n      dup7\n        /* \"#utility.yul\":3915:3938   */\n      sub\n        /* \"#utility.yul\":3911:3943   */\n      slt\n        /* \"#utility.yul\":3908:4027   */\n      iszero\n      tag_339\n      jumpi\n        /* \"#utility.yul\":3946:4025   */\n      tag_340\n      tag_255\n      jump\t// in\n    tag_340:\n        /* \"#utility.yul\":3908:4027   */\n    tag_339:\n        /* \"#utility.yul\":4066:4067   */\n      0x00\n        /* \"#utility.yul\":4091:4144   */\n      tag_341\n        /* \"#utility.yul\":4136:4143   */\n      dup7\n        /* \"#utility.yul\":4127:4133   */\n      dup3\n        /* \"#utility.yul\":4116:4125   */\n      dup8\n        /* \"#utility.yul\":4112:4134   */\n      add\n        /* \"#utility.yul\":4091:4144   */\n      tag_260\n      jump\t// in\n    tag_341:\n        /* \"#utility.yul\":4081:4144   */\n      swap4\n      pop\n        /* \"#utility.yul\":4037:4154   */\n      pop\n        /* \"#utility.yul\":4193:4195   */\n      0x20\n        /* \"#utility.yul\":4219:4272   */\n      tag_342\n        /* \"#utility.yul\":4264:4271   */\n      dup7\n        /* \"#utility.yul\":4255:4261   */\n      dup3\n        /* \"#utility.yul\":4244:4253   */\n      dup8\n        /* \"#utility.yul\":4240:4262   */\n      add\n        /* \"#utility.yul\":4219:4272   */\n      tag_260\n      jump\t// in\n    tag_342:\n        /* \"#utility.yul\":4209:4272   */\n      swap3\n      pop\n        /* \"#utility.yul\":4164:4282   */\n      pop\n        /* \"#utility.yul\":4321:4323   */\n      0x40\n        /* \"#utility.yul\":4347:4400   */\n      tag_343\n        /* \"#utility.yul\":4392:4399   */\n      dup7\n        /* \"#utility.yul\":4383:4389   */\n      dup3\n        /* \"#utility.yul\":4372:4381   */\n      dup8\n        /* \"#utility.yul\":4368:4390   */\n      add\n        /* \"#utility.yul\":4347:4400   */\n      tag_263\n      jump\t// in\n    tag_343:\n        /* \"#utility.yul\":4337:4400   */\n      swap2\n      pop\n        /* \"#utility.yul\":4292:4410   */\n      pop\n        /* \"#utility.yul\":3798:4417   */\n      swap3\n      pop\n      swap3\n      pop\n      swap3\n      jump\t// out\n        /* \"#utility.yul\":4423:4509   */\n    tag_267:\n        /* \"#utility.yul\":4458:4465   */\n      0x00\n        /* \"#utility.yul\":4498:4502   */\n      0xff\n        /* \"#utility.yul\":4491:4496   */\n      dup3\n        /* \"#utility.yul\":4487:4503   */\n      and\n        /* \"#utility.yul\":4476:4503   */\n      swap1\n      pop\n        /* \"#utility.yul\":4423:4509   */\n      swap2\n      swap1\n      pop\n      jump\t// out\n        /* \"#utility.yul\":4515:4627   */\n    tag_268:\n        /* \"#utility.yul\":4598:4620   */\n      tag_346\n        /* \"#utility.yul\":4614:4619   */\n      dup2\n        /* \"#utility.yul\":4598:4620   */\n      tag_267\n      jump\t// in\n    tag_346:\n        /* \"#utility.yul\":4593:4596   */\n      dup3\n        /* \"#utility.yul\":4586:4621   */\n      mstore\n        /* \"#utility.yul\":4515:4627   */\n      pop\n      pop\n      jump\t// out\n        /* \"#utility.yul\":4633:4847   */\n    tag_57:\n        /* \"#utility.yul\":4722:4726   */\n      0x00\n        /* \"#utility.yul\":4760:4762   */\n      0x20\n        /* \"#utility.yul\":4749:4758   */\n      dup3\n        /* \"#utility.yul\":4745:4763   */\n      add\n        /* \"#utility.yul\":4737:4763   */\n      swap1\n      pop\n        /* \"#utility.yul\":4773:4840   */\n      tag_348\n        /* \"#utility.yul\":4837:4838   */\n      0x00\n        /* \"#utility.yul\":4826:4835   */\n      dup4\n        /* \"#utility.yul\":4822:4839   */\n      add\n        /* \"#utility.yul\":4813:4819   */\n      dup5\n        /* \"#utility.yul\":4773:4840   */\n      tag_268\n      jump\t// in\n    tag_348:\n        /* \"#utility.yul\":4633:4847   */\n      swap3\n      swap2\n      pop\n      pop\n      jump\t// out\n        /* \"#utility.yul\":4853:5182   */\n    tag_72:\n        /* \"#utility.yul\":4912:4918   */\n      0x00\n        /* \"#utility.yul\":4961:4963   */\n      0x20\n        /* \"#utility.yul\":4949:4958   */\n      dup3\n        /* \"#utility.yul\":4940:4947   */\n      dup5\n        /* \"#utility.yul\":4936:4959   */\n      sub\n        /* \"#utility.yul\":4932:4964   */\n      slt\n        /* \"#utility.yul\":4929:5048   */\n      iszero\n      tag_350\n      jumpi\n        /* \"#utility.yul\":4967:5046   */\n      tag_351\n      tag_255\n      jump\t// in\n    tag_351:\n        /* \"#utility.yul\":4929:5048   */\n    tag_350:\n        /* \"#utility.yul\":5087:5088   */\n      0x00\n        /* \"#utility.yul\":5112:5165   */\n      tag_352\n        /* \"#utility.yul\":5157:5164   */\n      dup5\n        /* \"#utility.yul\":5148:5154   */\n      dup3\n        /* \"#utility.yul\":5137:5146   */\n      dup6\n        /* \"#utility.yul\":5133:5155   */\n      add\n        /* \"#utility.yul\":5112:5165   */\n      tag_260\n      jump\t// in\n    tag_352:\n        /* \"#utility.yul\":5102:5165   */\n      swap2\n      pop\n        /* \"#utility.yul\":5058:5175   */\n      pop\n        /* \"#utility.yul\":4853:5182   */\n      swap3\n      swap2\n      pop\n      pop\n      jump\t// out\n        /* \"#utility.yul\":5188:5662   */\n    tag_99:\n        /* \"#utility.yul\":5256:5262   */\n      0x00\n        /* \"#utility.yul\":5264:5270   */\n      dup1\n        /* \"#utility.yul\":5313:5315   */\n      0x40\n        /* \"#utility.yul\":5301:5310   */\n      dup4\n        /* \"#utility.yul\":5292:5299   */\n      dup6\n        /* \"#utility.yul\":5288:5311   */\n      sub\n        /* \"#utility.yul\":5284:5316   */\n      slt\n        /* \"#utility.yul\":5281:5400   */\n      iszero\n      tag_354\n      jumpi\n        /* \"#utility.yul\":5319:5398   */\n      tag_355\n      tag_255\n      jump\t// in\n    tag_355:\n        /* \"#utility.yul\":5281:5400   */\n    tag_354:\n        /* \"#utility.yul\":5439:5440   */\n      0x00\n        /* \"#utility.yul\":5464:5517   */\n      tag_356\n        /* \"#utility.yul\":5509:5516   */\n      dup6\n        /* \"#utility.yul\":5500:5506   */\n      dup3\n        /* \"#utility.yul\":5489:5498   */\n      dup7\n        /* \"#utility.yul\":5485:5507   */\n      add\n        /* \"#utility.yul\":5464:5517   */\n      tag_260\n      jump\t// in\n    tag_356:\n        /* \"#utility.yul\":5454:5517   */\n      swap3\n      pop\n        /* \"#utility.yul\":5410:5527   */\n      pop\n        /* \"#utility.yul\":5566:5568   */\n      0x20\n        /* \"#utility.yul\":5592:5645   */\n      tag_357\n        /* \"#utility.yul\":5637:5644   */\n      dup6\n        /* \"#utility.yul\":5628:5634   */\n      dup3\n        /* \"#utility.yul\":5617:5626   */\n      dup7\n        /* \"#utility.yul\":5613:5635   */\n      add\n        /* \"#utility.yul\":5592:5645   */\n      tag_260\n      jump\t// in\n    tag_357:\n        /* \"#utility.yul\":5582:5645   */\n      swap2\n      pop\n        /* \"#utility.yul\":5537:5655   */\n      pop\n        /* \"#utility.yul\":5188:5662   */\n      swap3\n      pop\n      swap3\n      swap1\n      pop\n      jump\t// out\n        /* \"#utility.yul\":5668:5848   */\n    tag_269:\n        /* \"#utility.yul\":5716:5793   */\n      0x4e487b7100000000000000000000000000000000000000000000000000000000\n        /* \"#utility.yul\":5713:5714   */\n      0x00\n        /* \"#utility.yul\":5706:5794   */\n      mstore\n        /* \"#utility.yul\":5813:5817   */\n      0x22\n        /* \"#utility.yul\":5810:5811   */\n      0x04\n        /* \"#utility.yul\":5803:5818   */\n      mstore\n        /* \"#utility.yul\":5837:5841   */\n      0x24\n        /* \"#utility.yul\":5834:5835   */\n      0x00\n        /* \"#utility.yul\":5827:5842   */\n      revert\n        /* \"#utility.yul\":5854:6174   */\n    tag_128:\n        /* \"#utility.yul\":5898:5904   */\n      0x00\n        /* \"#utility.yul\":5935:5936   */\n      0x02\n        /* \"#utility.yul\":5929:5933   */\n      dup3\n        /* \"#utility.yul\":5925:5937   */\n      div\n        /* \"#utility.yul\":5915:5937   */\n      swap1\n      pop\n        /* \"#utility.yul\":5982:5983   */\n      0x01\n        /* \"#utility.yul\":5976:5980   */\n      dup3\n        /* \"#utility.yul\":5972:5984   */\n      and\n        /* \"#utility.yul\":6003:6021   */\n      dup1\n        /* \"#utility.yul\":5993:6074   */\n      tag_360\n      jumpi\n        /* \"#utility.yul\":6059:6063   */\n      0x7f\n        /* \"#utility.yul\":6051:6057   */\n      dup3\n        /* \"#utility.yul\":6047:6064   */\n      and\n        /* \"#utility.yul\":6037:6064   */\n      swap2\n      pop\n        /* \"#utility.yul\":5993:6074   */\n    tag_360:\n        /* \"#utility.yul\":6121:6123   */\n      0x20\n        /* \"#utility.yul\":6113:6119   */\n      dup3\n        /* \"#utility.yul\":6110:6124   */\n      lt\n        /* \"#utility.yul\":6090:6108   */\n      dup2\n        /* \"#utility.yul\":6087:6125   */\n      sub\n        /* \"#utility.yul\":6084:6168   */\n      tag_361\n      jumpi\n        /* \"#utility.yul\":6140:6158   */\n      tag_362\n      tag_269\n      jump\t// in\n    tag_362:\n        /* \"#utility.yul\":6084:6168   */\n    tag_361:\n        /* \"#utility.yul\":5905:6174   */\n      pop\n        /* \"#utility.yul\":5854:6174   */\n      swap2\n      swap1\n      pop\n      jump\t// out\n        /* \"#utility.yul\":6180:6360   */\n    tag_270:\n        /* \"#utility.yul\":6228:6305   */\n      0x4e487b7100000000000000000000000000000000000000000000000000000000\n        /* \"#utility.yul\":6225:6226   */\n      0x00\n        /* \"#utility.yul\":6218:6306   */\n      mstore\n        /* \"#utility.yul\":6325:6329   */\n      0x11\n        /* \"#utility.yul\":6322:6323   */\n      0x04\n        /* \"#utility.yul\":6315:6330   */\n      mstore\n        /* \"#utility.yul\":6349:6353   */\n      0x24\n        /* \"#utility.yul\":6346:6347   */\n      0x00\n        /* \"#utility.yul\":6339:6354   */\n      revert\n        /* \"#utility.yul\":6366:6776   */\n    tag_147:\n        /* \"#utility.yul\":6406:6413   */\n      0x00\n        /* \"#utility.yul\":6429:6449   */\n      tag_365\n        /* \"#utility.yul\":6447:6448   */\n      dup3\n        /* \"#utility.yul\":6429:6449   */\n      tag_261\n      jump\t// in\n    tag_365:\n        /* \"#utility.yul\":6424:6449   */\n      swap2\n      pop\n        /* \"#utility.yul\":6463:6483   */\n      tag_366\n        /* \"#utility.yul\":6481:6482   */\n      dup4\n        /* \"#utility.yul\":6463:6483   */\n      tag_261\n      jump\t// in\n    tag_366:\n        /* \"#utility.yul\":6458:6483   */\n      swap3\n      pop\n        /* \"#utility.yul\":6518:6519   */\n      dup3\n        /* \"#utility.yul\":6515:6516   */\n      dup3\n        /* \"#utility.yul\":6511:6520   */\n      mul\n        /* \"#utility.yul\":6540:6570   */\n      tag_367\n        /* \"#utility.yul\":6558:6569   */\n      dup2\n        /* \"#utility.yul\":6540:6570   */\n      tag_261\n      jump\t// in\n    tag_367:\n        /* \"#utility.yul\":6529:6570   */\n      swap2\n      pop\n        /* \"#utility.yul\":6719:6720   */\n      dup3\n        /* \"#utility.yul\":6710:6717   */\n      dup3\n        /* \"#utility.yul\":6706:6721   */\n      div\n        /* \"#utility.yul\":6703:6704   */\n      dup5\n        /* \"#utility.yul\":6700:6722   */\n      eq\n        /* \"#utility.yul\":6680:6681   */\n      dup4\n        /* \"#utility.yul\":6673:6682   */\n      iszero\n        /* \"#utility.yul\":6653:6736   */\n      or\n        /* \"#utility.yul\":6630:6769   */\n      tag_368\n      jumpi\n        /* \"#utility.yul\":6749:6767   */\n      tag_369\n      tag_270\n      jump\t// in\n    tag_369:\n        /* \"#utility.yul\":6630:6769   */\n    tag_368:\n        /* \"#utility.yul\":6414:6776   */\n      pop\n        /* \"#utility.yul\":6366:6776   */\n      swap3\n      swap2\n      pop\n      pop\n      jump\t// out\n        /* \"#utility.yul\":6782:7010   */\n    tag_271:\n        /* \"#utility.yul\":6922:6956   */\n      0x5761726e696e673a20596f7520617265206e6f7420616c6c6f77656420746f20\n        /* \"#utility.yul\":6918:6919   */\n      0x00\n        /* \"#utility.yul\":6910:6916   */\n      dup3\n        /* \"#utility.yul\":6906:6920   */\n      add\n        /* \"#utility.yul\":6899:6957   */\n      mstore\n        /* \"#utility.yul\":6991:7002   */\n      0x7472616e73666572210000000000000000000000000000000000000000000000\n        /* \"#utility.yul\":6986:6988   */\n      0x20\n        /* \"#utility.yul\":6978:6984   */\n      dup3\n        /* \"#utility.yul\":6974:6989   */\n      add\n        /* \"#utility.yul\":6967:7003   */\n      mstore\n        /* \"#utility.yul\":6782:7010   */\n      pop\n      jump\t// out\n        /* \"#utility.yul\":7016:7382   */\n    tag_272:\n        /* \"#utility.yul\":7158:7161   */\n      0x00\n        /* \"#utility.yul\":7179:7246   */\n      tag_372\n        /* \"#utility.yul\":7243:7245   */\n      0x29\n        /* \"#utility.yul\":7238:7241   */\n      dup4\n        /* \"#utility.yul\":7179:7246   */\n      tag_250\n      jump\t// in\n    tag_372:\n        /* \"#utility.yul\":7172:7246   */\n      swap2\n      pop\n        /* \"#utility.yul\":7255:7348   */\n      tag_373\n        /* \"#utility.yul\":7344:7347   */\n      dup3\n        /* \"#utility.yul\":7255:7348   */\n      tag_271\n      jump\t// in\n    tag_373:\n        /* \"#utility.yul\":7373:7375   */\n      0x40\n        /* \"#utility.yul\":7368:7371   */\n      dup3\n        /* \"#utility.yul\":7364:7376   */\n      add\n        /* \"#utility.yul\":7357:7376   */\n      swap1\n      pop\n        /* \"#utility.yul\":7016:7382   */\n      swap2\n      swap1\n      pop\n      jump\t// out\n        /* \"#utility.yul\":7388:7807   */\n    tag_151:\n        /* \"#utility.yul\":7554:7558   */\n      0x00\n        /* \"#utility.yul\":7592:7594   */\n      0x20\n        /* \"#utility.yul\":7581:7590   */\n      dup3\n        /* \"#utility.yul\":7577:7595   */\n      add\n        /* \"#utility.yul\":7569:7595   */\n      swap1\n      pop\n        /* \"#utility.yul\":7641:7650   */\n      dup2\n        /* \"#utility.yul\":7635:7639   */\n      dup2\n        /* \"#utility.yul\":7631:7651   */\n      sub\n        /* \"#utility.yul\":7627:7628   */\n      0x00\n        /* \"#utility.yul\":7616:7625   */\n      dup4\n        /* \"#utility.yul\":7612:7629   */\n      add\n        /* \"#utility.yul\":7605:7652   */\n      mstore\n        /* \"#utility.yul\":7669:7800   */\n      tag_375\n        /* \"#utility.yul\":7795:7799   */\n      dup2\n        /* \"#utility.yul\":7669:7800   */\n      tag_272\n      jump\t// in\n    tag_375:\n        /* \"#utility.yul\":7661:7800   */\n      swap1\n      pop\n        /* \"#utility.yul\":7388:7807   */\n      swap2\n      swap1\n      pop\n      jump\t// out\n        /* \"#utility.yul\":7813:8004   */\n    tag_160:\n        /* \"#utility.yul\":7853:7856   */\n      0x00\n        /* \"#utility.yul\":7872:7892   */\n      tag_377\n        /* \"#utility.yul\":7890:7891   */\n      dup3\n        /* \"#utility.yul\":7872:7892   */\n      tag_261\n      jump\t// in\n    tag_377:\n        /* \"#utility.yul\":7867:7892   */\n      swap2\n      pop\n        /* \"#utility.yul\":7906:7926   */\n      tag_378\n        /* \"#utility.yul\":7924:7925   */\n      dup4\n        /* \"#utility.yul\":7906:7926   */\n      tag_261\n      jump\t// in\n    tag_378:\n        /* \"#utility.yul\":7901:7926   */\n      swap3\n      pop\n        /* \"#utility.yul\":7949:7950   */\n      dup3\n        /* \"#utility.yul\":7946:7947   */\n      dup3\n        /* \"#utility.yul\":7942:7951   */\n      add\n        /* \"#utility.yul\":7935:7951   */\n      swap1\n      pop\n        /* \"#utility.yul\":7970:7973   */\n      dup1\n        /* \"#utility.yul\":7967:7968   */\n      dup3\n        /* \"#utility.yul\":7964:7974   */\n      gt\n        /* \"#utility.yul\":7961:7997   */\n      iszero\n      tag_379\n      jumpi\n        /* \"#utility.yul\":7977:7995   */\n      tag_380\n      tag_270\n      jump\t// in\n    tag_380:\n        /* \"#utility.yul\":7961:7997   */\n    tag_379:\n        /* \"#utility.yul\":7813:8004   */\n      swap3\n      swap2\n      pop\n      pop\n      jump\t// out\n        /* \"#utility.yul\":8010:8187   */\n    tag_273:\n        /* \"#utility.yul\":8150:8179   */\n      0x5761726e696e673a20496e73756666696369656e742047656d73210000000000\n        /* \"#utility.yul\":8146:8147   */\n      0x00\n        /* \"#utility.yul\":8138:8144   */\n      dup3\n        /* \"#utility.yul\":8134:8148   */\n      add\n        /* \"#utility.yul\":8127:8180   */\n      mstore\n        /* \"#utility.yul\":8010:8187   */\n      pop\n      jump\t// out\n        /* \"#utility.yul\":8193:8559   */\n    tag_274:\n        /* \"#utility.yul\":8335:8338   */\n      0x00\n        /* \"#utility.yul\":8356:8423   */\n      tag_383\n        /* \"#utility.yul\":8420:8422   */\n      0x1b\n        /* \"#utility.yul\":8415:8418   */\n      dup4\n        /* \"#utility.yul\":8356:8423   */\n      tag_250\n      jump\t// in\n    tag_383:\n        /* \"#utility.yul\":8349:8423   */\n      swap2\n      pop\n        /* \"#utility.yul\":8432:8525   */\n      tag_384\n        /* \"#utility.yul\":8521:8524   */\n      dup3\n        /* \"#utility.yul\":8432:8525   */\n      tag_273\n      jump\t// in\n    tag_384:\n        /* \"#utility.yul\":8550:8552   */\n      0x20\n        /* \"#utility.yul\":8545:8548   */\n      dup3\n        /* \"#utility.yul\":8541:8553   */\n      add\n        /* \"#utility.yul\":8534:8553   */\n      swap1\n      pop\n        /* \"#utility.yul\":8193:8559   */\n      swap2\n      swap1\n      pop\n      jump\t// out\n        /* \"#utility.yul\":8565:8984   */\n    tag_169:\n        /* \"#utility.yul\":8731:8735   */\n      0x00\n        /* \"#utility.yul\":8769:8771   */\n      0x20\n        /* \"#utility.yul\":8758:8767   */\n      dup3\n        /* \"#utility.yul\":8754:8772   */\n      add\n        /* \"#utility.yul\":8746:8772   */\n      swap1\n      pop\n        /* \"#utility.yul\":8818:8827   */\n      dup2\n        /* \"#utility.yul\":8812:8816   */\n      dup2\n        /* \"#utility.yul\":8808:8828   */\n      sub\n        /* \"#utility.yul\":8804:8805   */\n      0x00\n        /* \"#utility.yul\":8793:8802   */\n      dup4\n        /* \"#utility.yul\":8789:8806   */\n      add\n        /* \"#utility.yul\":8782:8829   */\n      mstore\n        /* \"#utility.yul\":8846:8977   */\n      tag_386\n        /* \"#utility.yul\":8972:8976   */\n      dup2\n        /* \"#utility.yul\":8846:8977   */\n      tag_274\n      jump\t// in\n    tag_386:\n        /* \"#utility.yul\":8838:8977   */\n      swap1\n      pop\n        /* \"#utility.yul\":8565:8984   */\n      swap2\n      swap1\n      pop\n      jump\t// out\n        /* \"#utility.yul\":8990:9170   */\n    tag_275:\n        /* \"#utility.yul\":9038:9115   */\n      0x4e487b7100000000000000000000000000000000000000000000000000000000\n        /* \"#utility.yul\":9035:9036   */\n      0x00\n        /* \"#utility.yul\":9028:9116   */\n      mstore\n        /* \"#utility.yul\":9135:9139   */\n      0x12\n        /* \"#utility.yul\":9132:9133   */\n      0x04\n        /* \"#utility.yul\":9125:9140   */\n      mstore\n        /* \"#utility.yul\":9159:9163   */\n      0x24\n        /* \"#utility.yul\":9156:9157   */\n      0x00\n        /* \"#utility.yul\":9149:9164   */\n      revert\n        /* \"#utility.yul\":9176:9361   */\n    tag_174:\n        /* \"#utility.yul\":9216:9217   */\n      0x00\n        /* \"#utility.yul\":9233:9253   */\n      tag_389\n        /* \"#utility.yul\":9251:9252   */\n      dup3\n        /* \"#utility.yul\":9233:9253   */\n      tag_261\n      jump\t// in\n    tag_389:\n        /* \"#utility.yul\":9228:9253   */\n      swap2\n      pop\n        /* \"#utility.yul\":9267:9287   */\n      tag_390\n        /* \"#utility.yul\":9285:9286   */\n      dup4\n        /* \"#utility.yul\":9267:9287   */\n      tag_261\n      jump\t// in\n    tag_390:\n        /* \"#utility.yul\":9262:9287   */\n      swap3\n      pop\n        /* \"#utility.yul\":9306:9307   */\n      dup3\n        /* \"#utility.yul\":9296:9331   */\n      tag_391\n      jumpi\n        /* \"#utility.yul\":9311:9329   */\n      tag_392\n      tag_275\n      jump\t// in\n    tag_392:\n        /* \"#utility.yul\":9296:9331   */\n    tag_391:\n        /* \"#utility.yul\":9353:9354   */\n      dup3\n        /* \"#utility.yul\":9350:9351   */\n      dup3\n        /* \"#utility.yul\":9346:9355   */\n      div\n        /* \"#utility.yul\":9341:9355   */\n      swap1\n      pop\n        /* \"#utility.yul\":9176:9361   */\n      swap3\n      swap2\n      pop\n      pop\n      jump\t// out\n        /* \"#utility.yul\":9367:9548   */\n    tag_276:\n        /* \"#utility.yul\":9507:9540   */\n      0x45524332303a206d696e7420746f20746865207a65726f206164647265737300\n        /* \"#utility.yul\":9503:9504   */\n      0x00\n        /* \"#utility.yul\":9495:9501   */\n      dup3\n        /* \"#utility.yul\":9491:9505   */\n      add\n        /* \"#utility.yul\":9484:9541   */\n      mstore\n        /* \"#utility.yul\":9367:9548   */\n      pop\n      jump\t// out\n        /* \"#utility.yul\":9554:9920   */\n    tag_277:\n        /* \"#utility.yul\":9696:9699   */\n      0x00\n        /* \"#utility.yul\":9717:9784   */\n      tag_395\n        /* \"#utility.yul\":9781:9783   */\n      0x1f\n        /* \"#utility.yul\":9776:9779   */\n      dup4\n        /* \"#utility.yul\":9717:9784   */\n      tag_250\n      jump\t// in\n    tag_395:\n        /* \"#utility.yul\":9710:9784   */\n      swap2\n      pop\n        /* \"#utility.yul\":9793:9886   */\n      tag_396\n        /* \"#utility.yul\":9882:9885   */\n      dup3\n        /* \"#utility.yul\":9793:9886   */\n      tag_276\n      jump\t// in\n    tag_396:\n        /* \"#utility.yul\":9911:9913   */\n      0x20\n        /* \"#utility.yul\":9906:9909   */\n      dup3\n        /* \"#utility.yul\":9902:9914   */\n      add\n        /* \"#utility.yul\":9895:9914   */\n      swap1\n      pop\n        /* \"#utility.yul\":9554:9920   */\n      swap2\n      swap1\n      pop\n      jump\t// out\n        /* \"#utility.yul\":9926:10345   */\n    tag_178:\n        /* \"#utility.yul\":10092:10096   */\n      0x00\n        /* \"#utility.yul\":10130:10132   */\n      0x20\n        /* \"#utility.yul\":10119:10128   */\n      dup3\n        /* \"#utility.yul\":10115:10133   */\n      add\n        /* \"#utility.yul\":10107:10133   */\n      swap1\n      pop\n        /* \"#utility.yul\":10179:10188   */\n      dup2\n        /* \"#utility.yul\":10173:10177   */\n      dup2\n        /* \"#utility.yul\":10169:10189   */\n      sub\n        /* \"#utility.yul\":10165:10166   */\n      0x00\n        /* \"#utility.yul\":10154:10163   */\n      dup4\n        /* \"#utility.yul\":10150:10167   */\n      add\n        /* \"#utility.yul\":10143:10190   */\n      mstore\n        /* \"#utility.yul\":10207:10338   */\n      tag_398\n        /* \"#utility.yul\":10333:10337   */\n      dup2\n        /* \"#utility.yul\":10207:10338   */\n      tag_277\n      jump\t// in\n    tag_398:\n        /* \"#utility.yul\":10199:10338   */\n      swap1\n      pop\n        /* \"#utility.yul\":9926:10345   */\n      swap2\n      swap1\n      pop\n      jump\t// out\n        /* \"#utility.yul\":10351:10575   */\n    tag_278:\n        /* \"#utility.yul\":10491:10525   */\n      0x45524332303a2064656372656173656420616c6c6f77616e63652062656c6f77\n        /* \"#utility.yul\":10487:10488   */\n      0x00\n        /* \"#utility.yul\":10479:10485   */\n      dup3\n        /* \"#utility.yul\":10475:10489   */\n      add\n        /* \"#utility.yul\":10468:10526   */\n      mstore\n        /* \"#utility.yul\":10560:10567   */\n      0x207a65726f000000000000000000000000000000000000000000000000000000\n        /* \"#utility.yul\":10555:10557   */\n      0x20\n        /* \"#utility.yul\":10547:10553   */\n      dup3\n        /* \"#utility.yul\":10543:10558   */\n      add\n        /* \"#utility.yul\":10536:10568   */\n      mstore\n        /* \"#utility.yul\":10351:10575   */\n      pop\n      jump\t// out\n        /* \"#utility.yul\":10581:10947   */\n    tag_279:\n        /* \"#utility.yul\":10723:10726   */\n      0x00\n        /* \"#utility.yul\":10744:10811   */\n      tag_401\n        /* \"#utility.yul\":10808:10810   */\n      0x25\n        /* \"#utility.yul\":10803:10806   */\n      dup4\n        /* \"#utility.yul\":10744:10811   */\n      tag_250\n      jump\t// in\n    tag_401:\n        /* \"#utility.yul\":10737:10811   */\n      swap2\n      pop\n        /* \"#utility.yul\":10820:10913   */\n      tag_402\n        /* \"#utility.yul\":10909:10912   */\n      dup3\n        /* \"#utility.yul\":10820:10913   */\n      tag_278\n      jump\t// in\n    tag_402:\n        /* \"#utility.yul\":10938:10940   */\n      0x40\n        /* \"#utility.yul\":10933:10936   */\n      dup3\n        /* \"#utility.yul\":10929:10941   */\n      add\n        /* \"#utility.yul\":10922:10941   */\n      swap1\n      pop\n        /* \"#utility.yul\":10581:10947   */\n      swap2\n      swap1\n      pop\n      jump\t// out\n        /* \"#utility.yul\":10953:11372   */\n    tag_209:\n        /* \"#utility.yul\":11119:11123   */\n      0x00\n        /* \"#utility.yul\":11157:11159   */\n      0x20\n        /* \"#utility.yul\":11146:11155   */\n      dup3\n        /* \"#utility.yul\":11142:11160   */\n      add\n        /* \"#utility.yul\":11134:11160   */\n      swap1\n      pop\n        /* \"#utility.yul\":11206:11215   */\n      dup2\n        /* \"#utility.yul\":11200:11204   */\n      dup2\n        /* \"#utility.yul\":11196:11216   */\n      sub\n        /* \"#utility.yul\":11192:11193   */\n      0x00\n        /* \"#utility.yul\":11181:11190   */\n      dup4\n        /* \"#utility.yul\":11177:11194   */\n      add\n        /* \"#utility.yul\":11170:11217   */\n      mstore\n        /* \"#utility.yul\":11234:11365   */\n      tag_404\n        /* \"#utility.yul\":11360:11364   */\n      dup2\n        /* \"#utility.yul\":11234:11365   */\n      tag_279\n      jump\t// in\n    tag_404:\n        /* \"#utility.yul\":11226:11365   */\n      swap1\n      pop\n        /* \"#utility.yul\":10953:11372   */\n      swap2\n      swap1\n      pop\n      jump\t// out\n        /* \"#utility.yul\":11378:11601   */\n    tag_280:\n        /* \"#utility.yul\":11518:11552   */\n      0x45524332303a20617070726f76652066726f6d20746865207a65726f20616464\n        /* \"#utility.yul\":11514:11515   */\n      0x00\n        /* \"#utility.yul\":11506:11512   */\n      dup3\n        /* \"#utility.yul\":11502:11516   */\n      add\n        /* \"#utility.yul\":11495:11553   */\n      mstore\n        /* \"#utility.yul\":11587:11593   */\n      0x7265737300000000000000000000000000000000000000000000000000000000\n        /* \"#utility.yul\":11582:11584   */\n      0x20\n        /* \"#utility.yul\":11574:11580   */\n      dup3\n        /* \"#utility.yul\":11570:11585   */\n      add\n        /* \"#utility.yul\":11563:11594   */\n      mstore\n        /* \"#utility.yul\":11378:11601   */\n      pop\n      jump\t// out\n        /* \"#utility.yul\":11607:11973   */\n    tag_281:\n        /* \"#utility.yul\":11749:11752   */\n      0x00\n        /* \"#utility.yul\":11770:11837   */\n      tag_407\n        /* \"#utility.yul\":11834:11836   */\n      0x24\n        /* \"#utility.yul\":11829:11832   */\n      dup4\n        /* \"#utility.yul\":11770:11837   */\n      tag_250\n      jump\t// in\n    tag_407:\n        /* \"#utility.yul\":11763:11837   */\n      swap2\n      pop\n        /* \"#utility.yul\":11846:11939   */\n      tag_408\n        /* \"#utility.yul\":11935:11938   */\n      dup3\n        /* \"#utility.yul\":11846:11939   */\n      tag_280\n      jump\t// in\n    tag_408:\n        /* \"#utility.yul\":11964:11966   */\n      0x40\n        /* \"#utility.yul\":11959:11962   */\n      dup3\n        /* \"#utility.yul\":11955:11967   */\n      add\n        /* \"#utility.yul\":11948:11967   */\n      swap1\n      pop\n        /* \"#utility.yul\":11607:11973   */\n      swap2\n      swap1\n      pop\n      jump\t// out\n        /* \"#utility.yul\":11979:12398   */\n    tag_222:\n        /* \"#utility.yul\":12145:12149   */\n      0x00\n        /* \"#utility.yul\":12183:12185   */\n      0x20\n        /* \"#utility.yul\":12172:12181   */\n      dup3\n        /* \"#utility.yul\":12168:12186   */\n      add\n        /* \"#utility.yul\":12160:12186   */\n      swap1\n      pop\n        /* \"#utility.yul\":12232:12241   */\n      dup2\n        /* \"#utility.yul\":12226:12230   */\n      dup2\n        /* \"#utility.yul\":12222:12242   */\n      sub\n        /* \"#utility.yul\":12218:12219   */\n      0x00\n        /* \"#utility.yul\":12207:12216   */\n      dup4\n        /* \"#utility.yul\":12203:12220   */\n      add\n        /* \"#utility.yul\":12196:12243   */\n      mstore\n        /* \"#utility.yul\":12260:12391   */\n      tag_410\n        /* \"#utility.yul\":12386:12390   */\n      dup2\n        /* \"#utility.yul\":12260:12391   */\n      tag_281\n      jump\t// in\n    tag_410:\n        /* \"#utility.yul\":12252:12391   */\n      swap1\n      pop\n        /* \"#utility.yul\":11979:12398   */\n      swap2\n      swap1\n      pop\n      jump\t// out\n        /* \"#utility.yul\":12404:12625   */\n    tag_282:\n        /* \"#utility.yul\":12544:12578   */\n      0x45524332303a20617070726f766520746f20746865207a65726f206164647265\n        /* \"#utility.yul\":12540:12541   */\n      0x00\n        /* \"#utility.yul\":12532:12538   */\n      dup3\n        /* \"#utility.yul\":12528:12542   */\n      add\n        /* \"#utility.yul\":12521:12579   */\n      mstore\n        /* \"#utility.yul\":12613:12617   */\n      0x7373000000000000000000000000000000000000000000000000000000000000\n        /* \"#utility.yul\":12608:12610   */\n      0x20\n        /* \"#utility.yul\":12600:12606   */\n      dup3\n        /* \"#utility.yul\":12596:12611   */\n      add\n        /* \"#utility.yul\":12589:12618   */\n      mstore\n        /* \"#utility.yul\":12404:12625   */\n      pop\n      jump\t// out\n        /* \"#utility.yul\":12631:12997   */\n    tag_283:\n        /* \"#utility.yul\":12773:12776   */\n      0x00\n        /* \"#utility.yul\":12794:12861   */\n      tag_413\n        /* \"#utility.yul\":12858:12860   */\n      0x22\n        /* \"#utility.yul\":12853:12856   */\n      dup4\n        /* \"#utility.yul\":12794:12861   */\n      tag_250\n      jump\t// in\n    tag_413:\n        /* \"#utility.yul\":12787:12861   */\n      swap2\n      pop\n        /* \"#utility.yul\":12870:12963   */\n      tag_414\n        /* \"#utility.yul\":12959:12962   */\n      dup3\n        /* \"#utility.yul\":12870:12963   */\n      tag_282\n      jump\t// in\n    tag_414:\n        /* \"#utility.yul\":12988:12990   */\n      0x40\n        /* \"#utility.yul\":12983:12986   */\n      dup3\n        /* \"#utility.yul\":12979:12991   */\n      add\n        /* \"#utility.yul\":12972:12991   */\n      swap1\n      pop\n        /* \"#utility.yul\":12631:12997   */\n      swap2\n      swap1\n      pop\n      jump\t// out\n        /* \"#utility.yul\":13003:13422   */\n    tag_225:\n        /* \"#utility.yul\":13169:13173   */\n      0x00\n        /* \"#utility.yul\":13207:13209   */\n      0x20\n        /* \"#utility.yul\":13196:13205   */\n      dup3\n        /* \"#utility.yul\":13192:13210   */\n      add\n        /* \"#utility.yul\":13184:13210   */\n      swap1\n      pop\n        /* \"#utility.yul\":13256:13265   */\n      dup2\n        /* \"#utility.yul\":13250:13254   */\n      dup2\n        /* \"#utility.yul\":13246:13266   */\n      sub\n        /* \"#utility.yul\":13242:13243   */\n      0x00\n        /* \"#utility.yul\":13231:13240   */\n      dup4\n        /* \"#utility.yul\":13227:13244   */\n      add\n        /* \"#utility.yul\":13220:13267   */\n      mstore\n        /* \"#utility.yul\":13284:13415   */\n      tag_416\n        /* \"#utility.yul\":13410:13414   */\n      dup2\n        /* \"#utility.yul\":13284:13415   */\n      tag_283\n      jump\t// in\n    tag_416:\n        /* \"#utility.yul\":13276:13415   */\n      swap1\n      pop\n        /* \"#utility.yul\":13003:13422   */\n      swap2\n      swap1\n      pop\n      jump\t// out\n        /* \"#utility.yul\":13428:13607   */\n    tag_284:\n        /* \"#utility.yul\":13568:13599   */\n      0x45524332303a20696e73756666696369656e7420616c6c6f77616e6365000000\n        /* \"#utility.yul\":13564:13565   */\n      0x00\n        /* \"#utility.yul\":13556:13562   */\n      dup3\n        /* \"#utility.yul\":13552:13566   */\n      add\n        /* \"#utility.yul\":13545:13600   */\n      mstore\n        /* \"#utility.yul\":13428:13607   */\n      pop\n      jump\t// out\n        /* \"#utility.yul\":13613:13979   */\n    tag_285:\n        /* \"#utility.yul\":13755:13758   */\n      0x00\n        /* \"#utility.yul\":13776:13843   */\n      tag_419\n        /* \"#utility.yul\":13840:13842   */\n      0x1d\n        /* \"#utility.yul\":13835:13838   */\n      dup4\n        /* \"#utility.yul\":13776:13843   */\n      tag_250\n      jump\t// in\n    tag_419:\n        /* \"#utility.yul\":13769:13843   */\n      swap2\n      pop\n        /* \"#utility.yul\":13852:13945   */\n      tag_420\n        /* \"#utility.yul\":13941:13944   */\n      dup3\n        /* \"#utility.yul\":13852:13945   */\n      tag_284\n      jump\t// in\n    tag_420:\n        /* \"#utility.yul\":13970:13972   */\n      0x20\n        /* \"#utility.yul\":13965:13968   */\n      dup3\n        /* \"#utility.yul\":13961:13973   */\n      add\n        /* \"#utility.yul\":13954:13973   */\n      swap1\n      pop\n        /* \"#utility.yul\":13613:13979   */\n      swap2\n      swap1\n      pop\n      jump\t// out\n        /* \"#utility.yul\":13985:14404   */\n    tag_232:\n        /* \"#utility.yul\":14151:14155   */\n      0x00\n        /* \"#utility.yul\":14189:14191   */\n      0x20\n        /* \"#utility.yul\":14178:14187   */\n      dup3\n        /* \"#utility.yul\":14174:14192   */\n      add\n        /* \"#utility.yul\":14166:14192   */\n      swap1\n      pop\n        /* \"#utility.yul\":14238:14247   */\n      dup2\n        /* \"#utility.yul\":14232:14236   */\n      dup2\n        /* \"#utility.yul\":14228:14248   */\n      sub\n        /* \"#utility.yul\":14224:14225   */\n      0x00\n        /* \"#utility.yul\":14213:14222   */\n      dup4\n        /* \"#utility.yul\":14209:14226   */\n      add\n        /* \"#utility.yul\":14202:14249   */\n      mstore\n        /* \"#utility.yul\":14266:14397   */\n      tag_422\n        /* \"#utility.yul\":14392:14396   */\n      dup2\n        /* \"#utility.yul\":14266:14397   */\n      tag_285\n      jump\t// in\n    tag_422:\n        /* \"#utility.yul\":14258:14397   */\n      swap1\n      pop\n        /* \"#utility.yul\":13985:14404   */\n      swap2\n      swap1\n      pop\n      jump\t// out\n        /* \"#utility.yul\":14410:14634   */\n    tag_286:\n        /* \"#utility.yul\":14550:14584   */\n      0x45524332303a207472616e736665722066726f6d20746865207a65726f206164\n        /* \"#utility.yul\":14546:14547   */\n      0x00\n        /* \"#utility.yul\":14538:14544   */\n      dup3\n        /* \"#utility.yul\":14534:14548   */\n      add\n        /* \"#utility.yul\":14527:14585   */\n      mstore\n        /* \"#utility.yul\":14619:14626   */\n      0x6472657373000000000000000000000000000000000000000000000000000000\n        /* \"#utility.yul\":14614:14616   */\n      0x20\n        /* \"#utility.yul\":14606:14612   */\n      dup3\n        /* \"#utility.yul\":14602:14617   */\n      add\n        /* \"#utility.yul\":14595:14627   */\n      mstore\n        /* \"#utility.yul\":14410:14634   */\n      pop\n      jump\t// out\n        /* \"#utility.yul\":14640:15006   */\n    tag_287:\n        /* \"#utility.yul\":14782:14785   */\n      0x00\n        /* \"#utility.yul\":14803:14870   */\n      tag_425\n        /* \"#utility.yul\":14867:14869   */\n      0x25\n        /* \"#utility.yul\":14862:14865   */\n      dup4\n        /* \"#utility.yul\":14803:14870   */\n      tag_250\n      jump\t// in\n    tag_425:\n        /* \"#utility.yul\":14796:14870   */\n      swap2\n      pop\n        /* \"#utility.yul\":14879:14972   */\n      tag_426\n        /* \"#utility.yul\":14968:14971   */\n      dup3\n        /* \"#utility.yul\":14879:14972   */\n      tag_286\n      jump\t// in\n    tag_426:\n        /* \"#utility.yul\":14997:14999   */\n      0x40\n        /* \"#utility.yul\":14992:14995   */\n      dup3\n        /* \"#utility.yul\":14988:15000   */\n      add\n        /* \"#utility.yul\":14981:15000   */\n      swap1\n      pop\n        /* \"#utility.yul\":14640:15006   */\n      swap2\n      swap1\n      pop\n      jump\t// out\n        /* \"#utility.yul\":15012:15431   */\n    tag_237:\n        /* \"#utility.yul\":15178:15182   */\n      0x00\n        /* \"#utility.yul\":15216:15218   */\n      0x20\n        /* \"#utility.yul\":15205:15214   */\n      dup3\n        /* \"#utility.yul\":15201:15219   */\n      add\n        /* \"#utility.yul\":15193:15219   */\n      swap1\n      pop\n        /* \"#utility.yul\":15265:15274   */\n      dup2\n        /* \"#utility.yul\":15259:15263   */\n      dup2\n        /* \"#utility.yul\":15255:15275   */\n      sub\n        /* \"#utility.yul\":15251:15252   */\n      0x00\n        /* \"#utility.yul\":15240:15249   */\n      dup4\n        /* \"#utility.yul\":15236:15253   */\n      add\n        /* \"#utility.yul\":15229:15276   */\n      mstore\n        /* \"#utility.yul\":15293:15424   */\n      tag_428\n        /* \"#utility.yul\":15419:15423   */\n      dup2\n        /* \"#utility.yul\":15293:15424   */\n      tag_287\n      jump\t// in\n    tag_428:\n        /* \"#utility.yul\":15285:15424   */\n      swap1\n      pop\n        /* \"#utility.yul\":15012:15431   */\n      swap2\n      swap1\n      pop\n      jump\t// out\n        /* \"#utility.yul\":15437:15659   */\n    tag_288:\n        /* \"#utility.yul\":15577:15611   */\n      0x45524332303a207472616e7366657220746f20746865207a65726f2061646472\n        /* \"#utility.yul\":15573:15574   */\n      0x00\n        /* \"#utility.yul\":15565:15571   */\n      dup3\n        /* \"#utility.yul\":15561:15575   */\n      add\n        /* \"#utility.yul\":15554:15612   */\n      mstore\n        /* \"#utility.yul\":15646:15651   */\n      0x6573730000000000000000000000000000000000000000000000000000000000\n        /* \"#utility.yul\":15641:15643   */\n      0x20\n        /* \"#utility.yul\":15633:15639   */\n      dup3\n        /* \"#utility.yul\":15629:15644   */\n      add\n        /* \"#utility.yul\":15622:15652   */\n      mstore\n        /* \"#utility.yul\":15437:15659   */\n      pop\n      jump\t// out\n        /* \"#utility.yul\":15665:16031   */\n    tag_289:\n        /* \"#utility.yul\":15807:15810   */\n      0x00\n        /* \"#utility.yul\":15828:15895   */\n      tag_431\n        /* \"#utility.yul\":15892:15894   */\n      0x23\n        /* \"#utility.yul\":15887:15890   */\n      dup4\n        /* \"#utility.yul\":15828:15895   */\n      tag_250\n      jump\t// in\n    tag_431:\n        /* \"#utility.yul\":15821:15895   */\n      swap2\n      pop\n        /* \"#utility.yul\":15904:15997   */\n      tag_432\n        /* \"#utility.yul\":15993:15996   */\n      dup3\n        /* \"#utility.yul\":15904:15997   */\n      tag_288\n      jump\t// in\n    tag_432:\n        /* \"#utility.yul\":16022:16024   */\n      0x40\n        /* \"#utility.yul\":16017:16020   */\n      dup3\n        /* \"#utility.yul\":16013:16025   */\n      add\n        /* \"#utility.yul\":16006:16025   */\n      swap1\n      pop\n        /* \"#utility.yul\":15665:16031   */\n      swap2\n      swap1\n      pop\n      jump\t// out\n        /* \"#utility.yul\":16037:16456   */\n    tag_240:\n        /* \"#utility.yul\":16203:16207   */\n      0x00\n        /* \"#utility.yul\":16241:16243   */\n      0x20\n        /* \"#utility.yul\":16230:16239   */\n      dup3\n        /* \"#utility.yul\":16226:16244   */\n      add\n        /* \"#utility.yul\":16218:16244   */\n      swap1\n      pop\n        /* \"#utility.yul\":16290:16299   */\n      dup2\n        /* \"#utility.yul\":16284:16288   */\n      dup2\n        /* \"#utility.yul\":16280:16300   */\n      sub\n        /* \"#utility.yul\":16276:16277   */\n      0x00\n        /* \"#utility.yul\":16265:16274   */\n      dup4\n        /* \"#utility.yul\":16261:16278   */\n      add\n        /* \"#utility.yul\":16254:16301   */\n      mstore\n        /* \"#utility.yul\":16318:16449   */\n      tag_434\n        /* \"#utility.yul\":16444:16448   */\n      dup2\n        /* \"#utility.yul\":16318:16449   */\n      tag_289\n      jump\t// in\n    tag_434:\n        /* \"#utility.yul\":16310:16449   */\n      swap1\n      pop\n        /* \"#utility.yul\":16037:16456   */\n      swap2\n      swap1\n      pop\n      jump\t// out\n        /* \"#utility.yul\":16462:16687   */\n    tag_290:\n        /* \"#utility.yul\":16602:16636   */\n      0x45524332303a207472616e7366657220616d6f756e7420657863656564732062\n        /* \"#utility.yul\":16598:16599   */\n      0x00\n        /* \"#utility.yul\":16590:16596   */\n      dup3\n        /* \"#utility.yul\":16586:16600   */\n      add\n        /* \"#utility.yul\":16579:16637   */\n      mstore\n        /* \"#utility.yul\":16671:16679   */\n      0x616c616e63650000000000000000000000000000000000000000000000000000\n        /* \"#utility.yul\":16666:16668   */\n      0x20\n        /* \"#utility.yul\":16658:16664   */\n      dup3\n        /* \"#utility.yul\":16654:16669   */\n      add\n        /* \"#utility.yul\":16647:16680   */\n      mstore\n        /* \"#utility.yul\":16462:16687   */\n      pop\n      jump\t// out\n        /* \"#utility.yul\":16693:17059   */\n    tag_291:\n        /* \"#utility.yul\":16835:16838   */\n      0x00\n        /* \"#utility.yul\":16856:16923   */\n      tag_437\n        /* \"#utility.yul\":16920:16922   */\n      0x26\n        /* \"#utility.yul\":16915:16918   */\n      dup4\n        /* \"#utility.yul\":16856:16923   */\n      tag_250\n      jump\t// in\n    tag_437:\n        /* \"#utility.yul\":16849:16923   */\n      swap2\n      pop\n        /* \"#utility.yul\":16932:17025   */\n      tag_438\n        /* \"#utility.yul\":17021:17024   */\n      dup3\n        /* \"#utility.yul\":16932:17025   */\n      tag_290\n      jump\t// in\n    tag_438:\n        /* \"#utility.yul\":17050:17052   */\n      0x40\n        /* \"#utility.yul\":17045:17048   */\n      dup3\n        /* \"#utility.yul\":17041:17053   */\n      add\n        /* \"#utility.yul\":17034:17053   */\n      swap1\n      pop\n        /* \"#utility.yul\":16693:17059   */\n      swap2\n      swap1\n      pop\n      jump\t// out\n        /* \"#utility.yul\":17065:17484   */\n    tag_244:\n        /* \"#utility.yul\":17231:17235   */\n      0x00\n        /* \"#utility.yul\":17269:17271   */\n      0x20\n        /* \"#utility.yul\":17258:17267   */\n      dup3\n        /* \"#utility.yul\":17254:17272   */\n      add\n        /* \"#utility.yul\":17246:17272   */\n      swap1\n      pop\n        /* \"#utility.yul\":17318:17327   */\n      dup2\n        /* \"#utility.yul\":17312:17316   */\n      dup2\n        /* \"#utility.yul\":17308:17328   */\n      sub\n        /* \"#utility.yul\":17304:17305   */\n      0x00\n        /* \"#utility.yul\":17293:17302   */\n      dup4\n        /* \"#utility.yul\":17289:17306   */\n      add\n        /* \"#utility.yul\":17282:17329   */\n      mstore\n        /* \"#utility.yul\":17346:17477   */\n      tag_440\n        /* \"#utility.yul\":17472:17476   */\n      dup2\n        /* \"#utility.yul\":17346:17477   */\n      tag_291\n      jump\t// in\n    tag_440:\n        /* \"#utility.yul\":17338:17477   */\n      swap1\n      pop\n        /* \"#utility.yul\":17065:17484   */\n      swap2\n      swap1\n      pop\n      jump\t// out\n\n    auxdata: 0xa2646970667358221220dd224e3e6a583702470d5173c7cdbb5a32bc50ecc3f33466af176bbf0f44414d64736f6c63430008120033\n}\n",
				"bytecode": {
					"linkReferences": {},
					"object": "60806040523480156200001157600080fd5b506040518060400160405280600981526020017f42454153542047454d00000000000000000000000000000000000000000000008152506040518060400160405280600381526020017f42474d000000000000000000000000000000000000000000000000000000000081525081600390816200008f919062000376565b508060049081620000a1919062000376565b50505033600760006101000a81548173ffffffffffffffffffffffffffffffffffffffff021916908373ffffffffffffffffffffffffffffffffffffffff16021790555069d3c21bcecceda10000006005819055506200045d565b600081519050919050565b7f4e487b7100000000000000000000000000000000000000000000000000000000600052604160045260246000fd5b7f4e487b7100000000000000000000000000000000000000000000000000000000600052602260045260246000fd5b600060028204905060018216806200017e57607f821691505b60208210810362000194576200019362000136565b5b50919050565b60008190508160005260206000209050919050565b60006020601f8301049050919050565b600082821b905092915050565b600060088302620001fe7fffffffffffffffffffffffffffffffffffffffffffffffffffffffffffffffff82620001bf565b6200020a8683620001bf565b95508019841693508086168417925050509392505050565b6000819050919050565b6000819050919050565b600062000257620002516200024b8462000222565b6200022c565b62000222565b9050919050565b6000819050919050565b620002738362000236565b6200028b62000282826200025e565b848454620001cc565b825550505050565b600090565b620002a262000293565b620002af81848462000268565b505050565b5b81811015620002d757620002cb60008262000298565b600181019050620002b5565b5050565b601f8211156200032657620002f0816200019a565b620002fb84620001af565b810160208510156200030b578190505b620003236200031a85620001af565b830182620002b4565b50505b505050565b600082821c905092915050565b60006200034b600019846008026200032b565b1980831691505092915050565b600062000366838362000338565b9150826002028217905092915050565b6200038182620000fc565b67ffffffffffffffff8111156200039d576200039c62000107565b5b620003a9825462000165565b620003b6828285620002db565b600060209050601f831160018114620003ee5760008415620003d9578287015190505b620003e5858262000358565b86555062000455565b601f198416620003fe866200019a565b60005b82811015620004285784890151825560018201915060208501945060208101905062000401565b8683101562000448578489015162000444601f89168262000338565b8355505b6001600288020188555050505b505050505050565b611a3b806200046d6000396000f3fe60806040526004361061012a5760003560e01c80634e6ec247116100ab5780639d900f951161006f5780639d900f95146103e55780639dcad2b614610422578063a457c2d71461044d578063a9059cbb1461048a578063dd62ed3e146104c7578063f09910e4146105045761012a565b80634e6ec247146103005780635e1c86ce146103295780636874aab91461035457806370a082311461037d57806395d89b41146103ba5761012a565b8063313ce567116100f2578063313ce56714610228578063395093511461025357806340c10f191461029057806342634f94146102b957806346ed2bcb146102c35761012a565b806306fdde031461012f578063095ea7b31461015a57806318160ddd1461019757806323b872dd146101c25780632a73ac1f146101ff575b600080fd5b34801561013b57600080fd5b50610144610541565b604051610151919061110c565b60405180910390f35b34801561016657600080fd5b50610181600480360381019061017c91906111c7565b6105d3565b60405161018e9190611222565b60405180910390f35b3480156101a357600080fd5b506101ac6105f6565b6040516101b9919061124c565b60405180910390f35b3480156101ce57600080fd5b506101e960048036038101906101e49190611267565b610600565b6040516101f69190611222565b60405180910390f35b34801561020b57600080fd5b5061022660048036038101906102219190611267565b61062f565b005b34801561023457600080fd5b5061023d6106b1565b60405161024a91906112d6565b60405180910390f35b34801561025f57600080fd5b5061027a600480360381019061027591906111c7565b6106ba565b6040516102879190611222565b60405180910390f35b34801561029c57600080fd5b506102b760048036038101906102b291906111c7565b6106f1565b005b6102c16106ff565b005b3480156102cf57600080fd5b506102ea60048036038101906102e591906112f1565b610774565b6040516102f7919061124c565b60405180910390f35b34801561030c57600080fd5b50610327600480360381019061032291906111c7565b610799565b005b34801561033557600080fd5b5061033e6108ef565b60405161034b919061124c565b60405180910390f35b34801561036057600080fd5b5061037b600480360381019061037691906111c7565b610912565b005b34801561038957600080fd5b506103a4600480360381019061039f91906112f1565b610934565b6040516103b1919061124c565b60405180910390f35b3480156103c657600080fd5b506103cf61097c565b6040516103dc919061110c565b60405180910390f35b3480156103f157600080fd5b5061040c6004803603810190610407919061131e565b610a0e565b604051610419919061124c565b60405180910390f35b34801561042e57600080fd5b50610437610a35565b604051610444919061124c565b60405180910390f35b34801561045957600080fd5b50610474600480360381019061046f91906111c7565b610a57565b6040516104819190611222565b60405180910390f35b34801561049657600080fd5b506104b160048036038101906104ac91906111c7565b610ace565b6040516104be9190611222565b60405180910390f35b3480156104d357600080fd5b506104ee60048036038101906104e9919061131e565b610af1565b6040516104fb919061124c565b60405180910390f35b34801561051057600080fd5b5061052b600480360381019061052691906111c7565b610b78565b6040516105389190611222565b60405180910390f35b6060600380546105509061138d565b80601f016020809104026020016040519081016040528092919081815260200182805461057c9061138d565b80156105c95780601f1061059e576101008083540402835291602001916105c9565b820191906000526020600020905b8154815290600101906020018083116105ac57829003601f168201915b5050505050905090565b6000806105de610b9f565b90506105eb818585610ba7565b600191505092915050565b6000600254905090565b60008061060b610b9f565b9050610618858285610d70565b610623858585610dfc565b60019150509392505050565b670de0b6b3a76400008161064391906113ed565b61064d8433610af1565b1161068d576040517f08c379a0000000000000000000000000000000000000000000000000000000008152600401610684906114a1565b60405180910390fd5b6106ab8383670de0b6b3a7640000846106a691906113ed565b610600565b50505050565b60006012905090565b6000806106c5610b9f565b90506106e68185856106d78589610af1565b6106e191906114c1565b610ba7565b600191505092915050565b6106fb8282610799565b5050565b60006103e83461070f91906113ed565b90506005548161071d6105f6565b61072791906114c1565b10610767576040517f08c379a000000000000000000000000000000000000000000000000000000000815260040161075e90611541565b60405180910390fd5b61077133826106f1565b50565b6000670de0b6b3a764000061078883610934565b6107929190611590565b9050919050565b600073ffffffffffffffffffffffffffffffffffffffff168273ffffffffffffffffffffffffffffffffffffffff1603610808576040517f08c379a00000000000000000000000000000000000000000000000000000000081526004016107ff9061160d565b60405180910390fd5b61081460008383611072565b806002600082825461082691906114c1565b92505081905550806000808473ffffffffffffffffffffffffffffffffffffffff1673ffffffffffffffffffffffffffffffffffffffff168152602001908152602001600020600082825401925050819055508173ffffffffffffffffffffffffffffffffffffffff16600073ffffffffffffffffffffffffffffffffffffffff167fddf252ad1be2c89b69c2b068fc378daa952ba7f163c4a11628f55a4df523b3ef836040516108d7919061124c565b60405180910390a36108eb60008383611077565b5050565b6000670de0b6b3a764000061090333610934565b61090d9190611590565b905090565b61092f82670de0b6b3a76400008361092a91906113ed565b6105d3565b505050565b60008060008373ffffffffffffffffffffffffffffffffffffffff1673ffffffffffffffffffffffffffffffffffffffff168152602001908152602001600020549050919050565b60606004805461098b9061138d565b80601f01602080910402602001604051908101604052809291908181526020018280546109b79061138d565b8015610a045780601f106109d957610100808354040283529160200191610a04565b820191906000526020600020905b8154815290600101906020018083116109e757829003601f168201915b5050505050905090565b6000670de0b6b3a7640000610a238484610af1565b610a2d9190611590565b905092915050565b6000670de0b6b3a7640000610a486105f6565b610a529190611590565b905090565b600080610a62610b9f565b90506000610a708286610af1565b905083811015610ab5576040517f08c379a0000000000000000000000000000000000000000000000000000000008152600401610aac9061169f565b60405180910390fd5b610ac28286868403610ba7565b60019250505092915050565b600080610ad9610b9f565b9050610ae6818585610dfc565b600191505092915050565b6000600160008473ffffffffffffffffffffffffffffffffffffffff1673ffffffffffffffffffffffffffffffffffffffff16815260200190815260200160002060008373ffffffffffffffffffffffffffffffffffffffff1673ffffffffffffffffffffffffffffffffffffffff16815260200190815260200160002054905092915050565b6000610b9783670de0b6b3a764000084610b9291906113ed565b610ace565b905092915050565b600033905090565b600073ffffffffffffffffffffffffffffffffffffffff168373ffffffffffffffffffffffffffffffffffffffff1603610c16576040517f08c379a0000000000000000000000000000000000000000000000000000000008152600401610c0d90611731565b60405180910390fd5b600073ffffffffffffffffffffffffffffffffffffffff168273ffffffffffffffffffffffffffffffffffffffff1603610c85576040517f08c379a0000000000000000000000000000000000000000000000000000000008152600401610c7c906117c3565b60405180910390fd5b80600160008573ffffffffffffffffffffffffffffffffffffffff1673ffffffffffffffffffffffffffffffffffffffff16815260200190815260200160002060008473ffffffffffffffffffffffffffffffffffffffff1673ffffffffffffffffffffffffffffffffffffffff168152602001908152602001600020819055508173ffffffffffffffffffffffffffffffffffffffff168373ffffffffffffffffffffffffffffffffffffffff167f8c5be1e5ebec7d5bd14f71427d1e84f3dd0314c0f7b2291e5b200ac8c7c3b92583604051610d63919061124c565b60405180910390a3505050565b6000610d7c8484610af1565b90507fffffffffffffffffffffffffffffffffffffffffffffffffffffffffffffffff8114610df65781811015610de8576040517f08c379a0000000000000000000000000000000000000000000000000000000008152600401610ddf9061182f565b60405180910390fd5b610df58484848403610ba7565b5b50505050565b600073ffffffffffffffffffffffffffffffffffffffff168373ffffffffffffffffffffffffffffffffffffffff1603610e6b576040517f08c379a0000000000000000000000000000000000000000000000000000000008152600401610e62906118c1565b60405180910390fd5b600073ffffffffffffffffffffffffffffffffffffffff168273ffffffffffffffffffffffffffffffffffffffff1603610eda576040517f08c379a0000000000000000000000000000000000000000000000000000000008152600401610ed190611953565b60405180910390fd5b610ee5838383611072565b60008060008573ffffffffffffffffffffffffffffffffffffffff1673ffffffffffffffffffffffffffffffffffffffff16815260200190815260200160002054905081811015610f6b576040517f08c379a0000000000000000000000000000000000000000000000000000000008152600401610f62906119e5565b60405180910390fd5b8181036000808673ffffffffffffffffffffffffffffffffffffffff1673ffffffffffffffffffffffffffffffffffffffff16815260200190815260200160002081905550816000808573ffffffffffffffffffffffffffffffffffffffff1673ffffffffffffffffffffffffffffffffffffffff168152602001908152602001600020600082825401925050819055508273ffffffffffffffffffffffffffffffffffffffff168473ffffffffffffffffffffffffffffffffffffffff167fddf252ad1be2c89b69c2b068fc378daa952ba7f163c4a11628f55a4df523b3ef84604051611059919061124c565b60405180910390a361106c848484611077565b50505050565b505050565b505050565b600081519050919050565b600082825260208201905092915050565b60005b838110156110b657808201518184015260208101905061109b565b60008484015250505050565b6000601f19601f8301169050919050565b60006110de8261107c565b6110e88185611087565b93506110f8818560208601611098565b611101816110c2565b840191505092915050565b6000602082019050818103600083015261112681846110d3565b905092915050565b600080fd5b600073ffffffffffffffffffffffffffffffffffffffff82169050919050565b600061115e82611133565b9050919050565b61116e81611153565b811461117957600080fd5b50565b60008135905061118b81611165565b92915050565b6000819050919050565b6111a481611191565b81146111af57600080fd5b50565b6000813590506111c18161119b565b92915050565b600080604083850312156111de576111dd61112e565b5b60006111ec8582860161117c565b92505060206111fd858286016111b2565b9150509250929050565b60008115159050919050565b61121c81611207565b82525050565b60006020820190506112376000830184611213565b92915050565b61124681611191565b82525050565b6000602082019050611261600083018461123d565b92915050565b6000806000606084860312156112805761127f61112e565b5b600061128e8682870161117c565b935050602061129f8682870161117c565b92505060406112b0868287016111b2565b9150509250925092565b600060ff82169050919050565b6112d0816112ba565b82525050565b60006020820190506112eb60008301846112c7565b92915050565b6000602082840312156113075761130661112e565b5b60006113158482850161117c565b91505092915050565b600080604083850312156113355761133461112e565b5b60006113438582860161117c565b92505060206113548582860161117c565b9150509250929050565b7f4e487b7100000000000000000000000000000000000000000000000000000000600052602260045260246000fd5b600060028204905060018216806113a557607f821691505b6020821081036113b8576113b761135e565b5b50919050565b7f4e487b7100000000000000000000000000000000000000000000000000000000600052601160045260246000fd5b60006113f882611191565b915061140383611191565b925082820261141181611191565b91508282048414831517611428576114276113be565b5b5092915050565b7f5761726e696e673a20596f7520617265206e6f7420616c6c6f77656420746f2060008201527f7472616e73666572210000000000000000000000000000000000000000000000602082015250565b600061148b602983611087565b91506114968261142f565b604082019050919050565b600060208201905081810360008301526114ba8161147e565b9050919050565b60006114cc82611191565b91506114d783611191565b92508282019050808211156114ef576114ee6113be565b5b92915050565b7f5761726e696e673a20496e73756666696369656e742047656d73210000000000600082015250565b600061152b601b83611087565b9150611536826114f5565b602082019050919050565b6000602082019050818103600083015261155a8161151e565b9050919050565b7f4e487b7100000000000000000000000000000000000000000000000000000000600052601260045260246000fd5b600061159b82611191565b91506115a683611191565b9250826115b6576115b5611561565b5b828204905092915050565b7f45524332303a206d696e7420746f20746865207a65726f206164647265737300600082015250565b60006115f7601f83611087565b9150611602826115c1565b602082019050919050565b60006020820190508181036000830152611626816115ea565b9050919050565b7f45524332303a2064656372656173656420616c6c6f77616e63652062656c6f7760008201527f207a65726f000000000000000000000000000000000000000000000000000000602082015250565b6000611689602583611087565b91506116948261162d565b604082019050919050565b600060208201905081810360008301526116b88161167c565b9050919050565b7f45524332303a20617070726f76652066726f6d20746865207a65726f2061646460008201527f7265737300000000000000000000000000000000000000000000000000000000602082015250565b600061171b602483611087565b9150611726826116bf565b604082019050919050565b6000602082019050818103600083015261174a8161170e565b9050919050565b7f45524332303a20617070726f766520746f20746865207a65726f20616464726560008201527f7373000000000000000000000000000000000000000000000000000000000000602082015250565b60006117ad602283611087565b91506117b882611751565b604082019050919050565b600060208201905081810360008301526117dc816117a0565b9050919050565b7f45524332303a20696e73756666696369656e7420616c6c6f77616e6365000000600082015250565b6000611819601d83611087565b9150611824826117e3565b602082019050919050565b600060208201905081810360008301526118488161180c565b9050919050565b7f45524332303a207472616e736665722066726f6d20746865207a65726f20616460008201527f6472657373000000000000000000000000000000000000000000000000000000602082015250565b60006118ab602583611087565b91506118b68261184f565b604082019050919050565b600060208201905081810360008301526118da8161189e565b9050919050565b7f45524332303a207472616e7366657220746f20746865207a65726f206164647260008201527f6573730000000000000000000000000000000000000000000000000000000000602082015250565b600061193d602383611087565b9150611948826118e1565b604082019050919050565b6000602082019050818103600083015261196c81611930565b9050919050565b7f45524332303a207472616e7366657220616d6f756e742065786365656473206260008201527f616c616e63650000000000000000000000000000000000000000000000000000602082015250565b60006119cf602683611087565b91506119da82611973565b604082019050919050565b600060208201905081810360008301526119fe816119c2565b905091905056fea2646970667358221220dd224e3e6a583702470d5173c7cdbb5a32bc50ecc3f33466af176bbf0f44414d64736f6c63430008120033",
					"opcodes": "PUSH1 0x80 PUSH1 0x40 MSTORE CALLVALUE DUP1 ISZERO PUSH3 0x11 JUMPI PUSH1 0x0 DUP1 REVERT JUMPDEST POP PUSH1 0x40 MLOAD DUP1 PUSH1 0x40 ADD PUSH1 0x40 MSTORE DUP1 PUSH1 0x9 DUP2 MSTORE PUSH1 0x20 ADD PUSH32 0x42454153542047454D0000000000000000000000000000000000000000000000 DUP2 MSTORE POP PUSH1 0x40 MLOAD DUP1 PUSH1 0x40 ADD PUSH1 0x40 MSTORE DUP1 PUSH1 0x3 DUP2 MSTORE PUSH1 0x20 ADD PUSH32 0x42474D0000000000000000000000000000000000000000000000000000000000 DUP2 MSTORE POP DUP2 PUSH1 0x3 SWAP1 DUP2 PUSH3 0x8F SWAP2 SWAP1 PUSH3 0x376 JUMP JUMPDEST POP DUP1 PUSH1 0x4 SWAP1 DUP2 PUSH3 0xA1 SWAP2 SWAP1 PUSH3 0x376 JUMP JUMPDEST POP POP POP CALLER PUSH1 0x7 PUSH1 0x0 PUSH2 0x100 EXP DUP2 SLOAD DUP2 PUSH20 0xFFFFFFFFFFFFFFFFFFFFFFFFFFFFFFFFFFFFFFFF MUL NOT AND SWAP1 DUP4 PUSH20 0xFFFFFFFFFFFFFFFFFFFFFFFFFFFFFFFFFFFFFFFF AND MUL OR SWAP1 SSTORE POP PUSH10 0xD3C21BCECCEDA1000000 PUSH1 0x5 DUP2 SWAP1 SSTORE POP PUSH3 0x45D JUMP JUMPDEST PUSH1 0x0 DUP2 MLOAD SWAP1 POP SWAP2 SWAP1 POP JUMP JUMPDEST PUSH32 0x4E487B7100000000000000000000000000000000000000000000000000000000 PUSH1 0x0 MSTORE PUSH1 0x41 PUSH1 0x4 MSTORE PUSH1 0x24 PUSH1 0x0 REVERT JUMPDEST PUSH32 0x4E487B7100000000000000000000000000000000000000000000000000000000 PUSH1 0x0 MSTORE PUSH1 0x22 PUSH1 0x4 MSTORE PUSH1 0x24 PUSH1 0x0 REVERT JUMPDEST PUSH1 0x0 PUSH1 0x2 DUP3 DIV SWAP1 POP PUSH1 0x1 DUP3 AND DUP1 PUSH3 0x17E JUMPI PUSH1 0x7F DUP3 AND SWAP2 POP JUMPDEST PUSH1 0x20 DUP3 LT DUP2 SUB PUSH3 0x194 JUMPI PUSH3 0x193 PUSH3 0x136 JUMP JUMPDEST JUMPDEST POP SWAP2 SWAP1 POP JUMP JUMPDEST PUSH1 0x0 DUP2 SWAP1 POP DUP2 PUSH1 0x0 MSTORE PUSH1 0x20 PUSH1 0x0 KECCAK256 SWAP1 POP SWAP2 SWAP1 POP JUMP JUMPDEST PUSH1 0x0 PUSH1 0x20 PUSH1 0x1F DUP4 ADD DIV SWAP1 POP SWAP2 SWAP1 POP JUMP JUMPDEST PUSH1 0x0 DUP3 DUP3 SHL SWAP1 POP SWAP3 SWAP2 POP POP JUMP JUMPDEST PUSH1 0x0 PUSH1 0x8 DUP4 MUL PUSH3 0x1FE PUSH32 0xFFFFFFFFFFFFFFFFFFFFFFFFFFFFFFFFFFFFFFFFFFFFFFFFFFFFFFFFFFFFFFFF DUP3 PUSH3 0x1BF JUMP JUMPDEST PUSH3 0x20A DUP7 DUP4 PUSH3 0x1BF JUMP JUMPDEST SWAP6 POP DUP1 NOT DUP5 AND SWAP4 POP DUP1 DUP7 AND DUP5 OR SWAP3 POP POP POP SWAP4 SWAP3 POP POP POP JUMP JUMPDEST PUSH1 0x0 DUP2 SWAP1 POP SWAP2 SWAP1 POP JUMP JUMPDEST PUSH1 0x0 DUP2 SWAP1 POP SWAP2 SWAP1 POP JUMP JUMPDEST PUSH1 0x0 PUSH3 0x257 PUSH3 0x251 PUSH3 0x24B DUP5 PUSH3 0x222 JUMP JUMPDEST PUSH3 0x22C JUMP JUMPDEST PUSH3 0x222 JUMP JUMPDEST SWAP1 POP SWAP2 SWAP1 POP JUMP JUMPDEST PUSH1 0x0 DUP2 SWAP1 POP SWAP2 SWAP1 POP JUMP JUMPDEST PUSH3 0x273 DUP4 PUSH3 0x236 JUMP JUMPDEST PUSH3 0x28B PUSH3 0x282 DUP3 PUSH3 0x25E JUMP JUMPDEST DUP5 DUP5 SLOAD PUSH3 0x1CC JUMP JUMPDEST DUP3 SSTORE POP POP POP POP JUMP JUMPDEST PUSH1 0x0 SWAP1 JUMP JUMPDEST PUSH3 0x2A2 PUSH3 0x293 JUMP JUMPDEST PUSH3 0x2AF DUP2 DUP5 DUP5 PUSH3 0x268 JUMP JUMPDEST POP POP POP JUMP JUMPDEST JUMPDEST DUP2 DUP2 LT ISZERO PUSH3 0x2D7 JUMPI PUSH3 0x2CB PUSH1 0x0 DUP3 PUSH3 0x298 JUMP JUMPDEST PUSH1 0x1 DUP2 ADD SWAP1 POP PUSH3 0x2B5 JUMP JUMPDEST POP POP JUMP JUMPDEST PUSH1 0x1F DUP3 GT ISZERO PUSH3 0x326 JUMPI PUSH3 0x2F0 DUP2 PUSH3 0x19A JUMP JUMPDEST PUSH3 0x2FB DUP5 PUSH3 0x1AF JUMP JUMPDEST DUP2 ADD PUSH1 0x20 DUP6 LT ISZERO PUSH3 0x30B JUMPI DUP2 SWAP1 POP JUMPDEST PUSH3 0x323 PUSH3 0x31A DUP6 PUSH3 0x1AF JUMP JUMPDEST DUP4 ADD DUP3 PUSH3 0x2B4 JUMP JUMPDEST POP POP JUMPDEST POP POP POP JUMP JUMPDEST PUSH1 0x0 DUP3 DUP3 SHR SWAP1 POP SWAP3 SWAP2 POP POP JUMP JUMPDEST PUSH1 0x0 PUSH3 0x34B PUSH1 0x0 NOT DUP5 PUSH1 0x8 MUL PUSH3 0x32B JUMP JUMPDEST NOT DUP1 DUP4 AND SWAP2 POP POP SWAP3 SWAP2 POP POP JUMP JUMPDEST PUSH1 0x0 PUSH3 0x366 DUP4 DUP4 PUSH3 0x338 JUMP JUMPDEST SWAP2 POP DUP3 PUSH1 0x2 MUL DUP3 OR SWAP1 POP SWAP3 SWAP2 POP POP JUMP JUMPDEST PUSH3 0x381 DUP3 PUSH3 0xFC JUMP JUMPDEST PUSH8 0xFFFFFFFFFFFFFFFF DUP2 GT ISZERO PUSH3 0x39D JUMPI PUSH3 0x39C PUSH3 0x107 JUMP JUMPDEST JUMPDEST PUSH3 0x3A9 DUP3 SLOAD PUSH3 0x165 JUMP JUMPDEST PUSH3 0x3B6 DUP3 DUP3 DUP6 PUSH3 0x2DB JUMP JUMPDEST PUSH1 0x0 PUSH1 0x20 SWAP1 POP PUSH1 0x1F DUP4 GT PUSH1 0x1 DUP2 EQ PUSH3 0x3EE JUMPI PUSH1 0x0 DUP5 ISZERO PUSH3 0x3D9 JUMPI DUP3 DUP8 ADD MLOAD SWAP1 POP JUMPDEST PUSH3 0x3E5 DUP6 DUP3 PUSH3 0x358 JUMP JUMPDEST DUP7 SSTORE POP PUSH3 0x455 JUMP JUMPDEST PUSH1 0x1F NOT DUP5 AND PUSH3 0x3FE DUP7 PUSH3 0x19A JUMP JUMPDEST PUSH1 0x0 JUMPDEST DUP3 DUP2 LT ISZERO PUSH3 0x428 JUMPI DUP5 DUP10 ADD MLOAD DUP3 SSTORE PUSH1 0x1 DUP3 ADD SWAP2 POP PUSH1 0x20 DUP6 ADD SWAP5 POP PUSH1 0x20 DUP2 ADD SWAP1 POP PUSH3 0x401 JUMP JUMPDEST DUP7 DUP4 LT ISZERO PUSH3 0x448 JUMPI DUP5 DUP10 ADD MLOAD PUSH3 0x444 PUSH1 0x1F DUP10 AND DUP3 PUSH3 0x338 JUMP JUMPDEST DUP4 SSTORE POP JUMPDEST PUSH1 0x1 PUSH1 0x2 DUP9 MUL ADD DUP9 SSTORE POP POP POP JUMPDEST POP POP POP POP POP POP JUMP JUMPDEST PUSH2 0x1A3B DUP1 PUSH3 0x46D PUSH1 0x0 CODECOPY PUSH1 0x0 RETURN INVALID PUSH1 0x80 PUSH1 0x40 MSTORE PUSH1 0x4 CALLDATASIZE LT PUSH2 0x12A JUMPI PUSH1 0x0 CALLDATALOAD PUSH1 0xE0 SHR DUP1 PUSH4 0x4E6EC247 GT PUSH2 0xAB JUMPI DUP1 PUSH4 0x9D900F95 GT PUSH2 0x6F JUMPI DUP1 PUSH4 0x9D900F95 EQ PUSH2 0x3E5 JUMPI DUP1 PUSH4 0x9DCAD2B6 EQ PUSH2 0x422 JUMPI DUP1 PUSH4 0xA457C2D7 EQ PUSH2 0x44D JUMPI DUP1 PUSH4 0xA9059CBB EQ PUSH2 0x48A JUMPI DUP1 PUSH4 0xDD62ED3E EQ PUSH2 0x4C7 JUMPI DUP1 PUSH4 0xF09910E4 EQ PUSH2 0x504 JUMPI PUSH2 0x12A JUMP JUMPDEST DUP1 PUSH4 0x4E6EC247 EQ PUSH2 0x300 JUMPI DUP1 PUSH4 0x5E1C86CE EQ PUSH2 0x329 JUMPI DUP1 PUSH4 0x6874AAB9 EQ PUSH2 0x354 JUMPI DUP1 PUSH4 0x70A08231 EQ PUSH2 0x37D JUMPI DUP1 PUSH4 0x95D89B41 EQ PUSH2 0x3BA JUMPI PUSH2 0x12A JUMP JUMPDEST DUP1 PUSH4 0x313CE567 GT PUSH2 0xF2 JUMPI DUP1 PUSH4 0x313CE567 EQ PUSH2 0x228 JUMPI DUP1 PUSH4 0x39509351 EQ PUSH2 0x253 JUMPI DUP1 PUSH4 0x40C10F19 EQ PUSH2 0x290 JUMPI DUP1 PUSH4 0x42634F94 EQ PUSH2 0x2B9 JUMPI DUP1 PUSH4 0x46ED2BCB EQ PUSH2 0x2C3 JUMPI PUSH2 0x12A JUMP JUMPDEST DUP1 PUSH4 0x6FDDE03 EQ PUSH2 0x12F JUMPI DUP1 PUSH4 0x95EA7B3 EQ PUSH2 0x15A JUMPI DUP1 PUSH4 0x18160DDD EQ PUSH2 0x197 JUMPI DUP1 PUSH4 0x23B872DD EQ PUSH2 0x1C2 JUMPI DUP1 PUSH4 0x2A73AC1F EQ PUSH2 0x1FF JUMPI JUMPDEST PUSH1 0x0 DUP1 REVERT JUMPDEST CALLVALUE DUP1 ISZERO PUSH2 0x13B JUMPI PUSH1 0x0 DUP1 REVERT JUMPDEST POP PUSH2 0x144 PUSH2 0x541 JUMP JUMPDEST PUSH1 0x40 MLOAD PUSH2 0x151 SWAP2 SWAP1 PUSH2 0x110C JUMP JUMPDEST PUSH1 0x40 MLOAD DUP1 SWAP2 SUB SWAP1 RETURN JUMPDEST CALLVALUE DUP1 ISZERO PUSH2 0x166 JUMPI PUSH1 0x0 DUP1 REVERT JUMPDEST POP PUSH2 0x181 PUSH1 0x4 DUP1 CALLDATASIZE SUB DUP2 ADD SWAP1 PUSH2 0x17C SWAP2 SWAP1 PUSH2 0x11C7 JUMP JUMPDEST PUSH2 0x5D3 JUMP JUMPDEST PUSH1 0x40 MLOAD PUSH2 0x18E SWAP2 SWAP1 PUSH2 0x1222 JUMP JUMPDEST PUSH1 0x40 MLOAD DUP1 SWAP2 SUB SWAP1 RETURN JUMPDEST CALLVALUE DUP1 ISZERO PUSH2 0x1A3 JUMPI PUSH1 0x0 DUP1 REVERT JUMPDEST POP PUSH2 0x1AC PUSH2 0x5F6 JUMP JUMPDEST PUSH1 0x40 MLOAD PUSH2 0x1B9 SWAP2 SWAP1 PUSH2 0x124C JUMP JUMPDEST PUSH1 0x40 MLOAD DUP1 SWAP2 SUB SWAP1 RETURN JUMPDEST CALLVALUE DUP1 ISZERO PUSH2 0x1CE JUMPI PUSH1 0x0 DUP1 REVERT JUMPDEST POP PUSH2 0x1E9 PUSH1 0x4 DUP1 CALLDATASIZE SUB DUP2 ADD SWAP1 PUSH2 0x1E4 SWAP2 SWAP1 PUSH2 0x1267 JUMP JUMPDEST PUSH2 0x600 JUMP JUMPDEST PUSH1 0x40 MLOAD PUSH2 0x1F6 SWAP2 SWAP1 PUSH2 0x1222 JUMP JUMPDEST PUSH1 0x40 MLOAD DUP1 SWAP2 SUB SWAP1 RETURN JUMPDEST CALLVALUE DUP1 ISZERO PUSH2 0x20B JUMPI PUSH1 0x0 DUP1 REVERT JUMPDEST POP PUSH2 0x226 PUSH1 0x4 DUP1 CALLDATASIZE SUB DUP2 ADD SWAP1 PUSH2 0x221 SWAP2 SWAP1 PUSH2 0x1267 JUMP JUMPDEST PUSH2 0x62F JUMP JUMPDEST STOP JUMPDEST CALLVALUE DUP1 ISZERO PUSH2 0x234 JUMPI PUSH1 0x0 DUP1 REVERT JUMPDEST POP PUSH2 0x23D PUSH2 0x6B1 JUMP JUMPDEST PUSH1 0x40 MLOAD PUSH2 0x24A SWAP2 SWAP1 PUSH2 0x12D6 JUMP JUMPDEST PUSH1 0x40 MLOAD DUP1 SWAP2 SUB SWAP1 RETURN JUMPDEST CALLVALUE DUP1 ISZERO PUSH2 0x25F JUMPI PUSH1 0x0 DUP1 REVERT JUMPDEST POP PUSH2 0x27A PUSH1 0x4 DUP1 CALLDATASIZE SUB DUP2 ADD SWAP1 PUSH2 0x275 SWAP2 SWAP1 PUSH2 0x11C7 JUMP JUMPDEST PUSH2 0x6BA JUMP JUMPDEST PUSH1 0x40 MLOAD PUSH2 0x287 SWAP2 SWAP1 PUSH2 0x1222 JUMP JUMPDEST PUSH1 0x40 MLOAD DUP1 SWAP2 SUB SWAP1 RETURN JUMPDEST CALLVALUE DUP1 ISZERO PUSH2 0x29C JUMPI PUSH1 0x0 DUP1 REVERT JUMPDEST POP PUSH2 0x2B7 PUSH1 0x4 DUP1 CALLDATASIZE SUB DUP2 ADD SWAP1 PUSH2 0x2B2 SWAP2 SWAP1 PUSH2 0x11C7 JUMP JUMPDEST PUSH2 0x6F1 JUMP JUMPDEST STOP JUMPDEST PUSH2 0x2C1 PUSH2 0x6FF JUMP JUMPDEST STOP JUMPDEST CALLVALUE DUP1 ISZERO PUSH2 0x2CF JUMPI PUSH1 0x0 DUP1 REVERT JUMPDEST POP PUSH2 0x2EA PUSH1 0x4 DUP1 CALLDATASIZE SUB DUP2 ADD SWAP1 PUSH2 0x2E5 SWAP2 SWAP1 PUSH2 0x12F1 JUMP JUMPDEST PUSH2 0x774 JUMP JUMPDEST PUSH1 0x40 MLOAD PUSH2 0x2F7 SWAP2 SWAP1 PUSH2 0x124C JUMP JUMPDEST PUSH1 0x40 MLOAD DUP1 SWAP2 SUB SWAP1 RETURN JUMPDEST CALLVALUE DUP1 ISZERO PUSH2 0x30C JUMPI PUSH1 0x0 DUP1 REVERT JUMPDEST POP PUSH2 0x327 PUSH1 0x4 DUP1 CALLDATASIZE SUB DUP2 ADD SWAP1 PUSH2 0x322 SWAP2 SWAP1 PUSH2 0x11C7 JUMP JUMPDEST PUSH2 0x799 JUMP JUMPDEST STOP JUMPDEST CALLVALUE DUP1 ISZERO PUSH2 0x335 JUMPI PUSH1 0x0 DUP1 REVERT JUMPDEST POP PUSH2 0x33E PUSH2 0x8EF JUMP JUMPDEST PUSH1 0x40 MLOAD PUSH2 0x34B SWAP2 SWAP1 PUSH2 0x124C JUMP JUMPDEST PUSH1 0x40 MLOAD DUP1 SWAP2 SUB SWAP1 RETURN JUMPDEST CALLVALUE DUP1 ISZERO PUSH2 0x360 JUMPI PUSH1 0x0 DUP1 REVERT JUMPDEST POP PUSH2 0x37B PUSH1 0x4 DUP1 CALLDATASIZE SUB DUP2 ADD SWAP1 PUSH2 0x376 SWAP2 SWAP1 PUSH2 0x11C7 JUMP JUMPDEST PUSH2 0x912 JUMP JUMPDEST STOP JUMPDEST CALLVALUE DUP1 ISZERO PUSH2 0x389 JUMPI PUSH1 0x0 DUP1 REVERT JUMPDEST POP PUSH2 0x3A4 PUSH1 0x4 DUP1 CALLDATASIZE SUB DUP2 ADD SWAP1 PUSH2 0x39F SWAP2 SWAP1 PUSH2 0x12F1 JUMP JUMPDEST PUSH2 0x934 JUMP JUMPDEST PUSH1 0x40 MLOAD PUSH2 0x3B1 SWAP2 SWAP1 PUSH2 0x124C JUMP JUMPDEST PUSH1 0x40 MLOAD DUP1 SWAP2 SUB SWAP1 RETURN JUMPDEST CALLVALUE DUP1 ISZERO PUSH2 0x3C6 JUMPI PUSH1 0x0 DUP1 REVERT JUMPDEST POP PUSH2 0x3CF PUSH2 0x97C JUMP JUMPDEST PUSH1 0x40 MLOAD PUSH2 0x3DC SWAP2 SWAP1 PUSH2 0x110C JUMP JUMPDEST PUSH1 0x40 MLOAD DUP1 SWAP2 SUB SWAP1 RETURN JUMPDEST CALLVALUE DUP1 ISZERO PUSH2 0x3F1 JUMPI PUSH1 0x0 DUP1 REVERT JUMPDEST POP PUSH2 0x40C PUSH1 0x4 DUP1 CALLDATASIZE SUB DUP2 ADD SWAP1 PUSH2 0x407 SWAP2 SWAP1 PUSH2 0x131E JUMP JUMPDEST PUSH2 0xA0E JUMP JUMPDEST PUSH1 0x40 MLOAD PUSH2 0x419 SWAP2 SWAP1 PUSH2 0x124C JUMP JUMPDEST PUSH1 0x40 MLOAD DUP1 SWAP2 SUB SWAP1 RETURN JUMPDEST CALLVALUE DUP1 ISZERO PUSH2 0x42E JUMPI PUSH1 0x0 DUP1 REVERT JUMPDEST POP PUSH2 0x437 PUSH2 0xA35 JUMP JUMPDEST PUSH1 0x40 MLOAD PUSH2 0x444 SWAP2 SWAP1 PUSH2 0x124C JUMP JUMPDEST PUSH1 0x40 MLOAD DUP1 SWAP2 SUB SWAP1 RETURN JUMPDEST CALLVALUE DUP1 ISZERO PUSH2 0x459 JUMPI PUSH1 0x0 DUP1 REVERT JUMPDEST POP PUSH2 0x474 PUSH1 0x4 DUP1 CALLDATASIZE SUB DUP2 ADD SWAP1 PUSH2 0x46F SWAP2 SWAP1 PUSH2 0x11C7 JUMP JUMPDEST PUSH2 0xA57 JUMP JUMPDEST PUSH1 0x40 MLOAD PUSH2 0x481 SWAP2 SWAP1 PUSH2 0x1222 JUMP JUMPDEST PUSH1 0x40 MLOAD DUP1 SWAP2 SUB SWAP1 RETURN JUMPDEST CALLVALUE DUP1 ISZERO PUSH2 0x496 JUMPI PUSH1 0x0 DUP1 REVERT JUMPDEST POP PUSH2 0x4B1 PUSH1 0x4 DUP1 CALLDATASIZE SUB DUP2 ADD SWAP1 PUSH2 0x4AC SWAP2 SWAP1 PUSH2 0x11C7 JUMP JUMPDEST PUSH2 0xACE JUMP JUMPDEST PUSH1 0x40 MLOAD PUSH2 0x4BE SWAP2 SWAP1 PUSH2 0x1222 JUMP JUMPDEST PUSH1 0x40 MLOAD DUP1 SWAP2 SUB SWAP1 RETURN JUMPDEST CALLVALUE DUP1 ISZERO PUSH2 0x4D3 JUMPI PUSH1 0x0 DUP1 REVERT JUMPDEST POP PUSH2 0x4EE PUSH1 0x4 DUP1 CALLDATASIZE SUB DUP2 ADD SWAP1 PUSH2 0x4E9 SWAP2 SWAP1 PUSH2 0x131E JUMP JUMPDEST PUSH2 0xAF1 JUMP JUMPDEST PUSH1 0x40 MLOAD PUSH2 0x4FB SWAP2 SWAP1 PUSH2 0x124C JUMP JUMPDEST PUSH1 0x40 MLOAD DUP1 SWAP2 SUB SWAP1 RETURN JUMPDEST CALLVALUE DUP1 ISZERO PUSH2 0x510 JUMPI PUSH1 0x0 DUP1 REVERT JUMPDEST POP PUSH2 0x52B PUSH1 0x4 DUP1 CALLDATASIZE SUB DUP2 ADD SWAP1 PUSH2 0x526 SWAP2 SWAP1 PUSH2 0x11C7 JUMP JUMPDEST PUSH2 0xB78 JUMP JUMPDEST PUSH1 0x40 MLOAD PUSH2 0x538 SWAP2 SWAP1 PUSH2 0x1222 JUMP JUMPDEST PUSH1 0x40 MLOAD DUP1 SWAP2 SUB SWAP1 RETURN JUMPDEST PUSH1 0x60 PUSH1 0x3 DUP1 SLOAD PUSH2 0x550 SWAP1 PUSH2 0x138D JUMP JUMPDEST DUP1 PUSH1 0x1F ADD PUSH1 0x20 DUP1 SWAP2 DIV MUL PUSH1 0x20 ADD PUSH1 0x40 MLOAD SWAP1 DUP2 ADD PUSH1 0x40 MSTORE DUP1 SWAP3 SWAP2 SWAP1 DUP2 DUP2 MSTORE PUSH1 0x20 ADD DUP3 DUP1 SLOAD PUSH2 0x57C SWAP1 PUSH2 0x138D JUMP JUMPDEST DUP1 ISZERO PUSH2 0x5C9 JUMPI DUP1 PUSH1 0x1F LT PUSH2 0x59E JUMPI PUSH2 0x100 DUP1 DUP4 SLOAD DIV MUL DUP4 MSTORE SWAP2 PUSH1 0x20 ADD SWAP2 PUSH2 0x5C9 JUMP JUMPDEST DUP3 ADD SWAP2 SWAP1 PUSH1 0x0 MSTORE PUSH1 0x20 PUSH1 0x0 KECCAK256 SWAP1 JUMPDEST DUP2 SLOAD DUP2 MSTORE SWAP1 PUSH1 0x1 ADD SWAP1 PUSH1 0x20 ADD DUP1 DUP4 GT PUSH2 0x5AC JUMPI DUP3 SWAP1 SUB PUSH1 0x1F AND DUP3 ADD SWAP2 JUMPDEST POP POP POP POP POP SWAP1 POP SWAP1 JUMP JUMPDEST PUSH1 0x0 DUP1 PUSH2 0x5DE PUSH2 0xB9F JUMP JUMPDEST SWAP1 POP PUSH2 0x5EB DUP2 DUP6 DUP6 PUSH2 0xBA7 JUMP JUMPDEST PUSH1 0x1 SWAP2 POP POP SWAP3 SWAP2 POP POP JUMP JUMPDEST PUSH1 0x0 PUSH1 0x2 SLOAD SWAP1 POP SWAP1 JUMP JUMPDEST PUSH1 0x0 DUP1 PUSH2 0x60B PUSH2 0xB9F JUMP JUMPDEST SWAP1 POP PUSH2 0x618 DUP6 DUP3 DUP6 PUSH2 0xD70 JUMP JUMPDEST PUSH2 0x623 DUP6 DUP6 DUP6 PUSH2 0xDFC JUMP JUMPDEST PUSH1 0x1 SWAP2 POP POP SWAP4 SWAP3 POP POP POP JUMP JUMPDEST PUSH8 0xDE0B6B3A7640000 DUP2 PUSH2 0x643 SWAP2 SWAP1 PUSH2 0x13ED JUMP JUMPDEST PUSH2 0x64D DUP5 CALLER PUSH2 0xAF1 JUMP JUMPDEST GT PUSH2 0x68D JUMPI PUSH1 0x40 MLOAD PUSH32 0x8C379A000000000000000000000000000000000000000000000000000000000 DUP2 MSTORE PUSH1 0x4 ADD PUSH2 0x684 SWAP1 PUSH2 0x14A1 JUMP JUMPDEST PUSH1 0x40 MLOAD DUP1 SWAP2 SUB SWAP1 REVERT JUMPDEST PUSH2 0x6AB DUP4 DUP4 PUSH8 0xDE0B6B3A7640000 DUP5 PUSH2 0x6A6 SWAP2 SWAP1 PUSH2 0x13ED JUMP JUMPDEST PUSH2 0x600 JUMP JUMPDEST POP POP POP POP JUMP JUMPDEST PUSH1 0x0 PUSH1 0x12 SWAP1 POP SWAP1 JUMP JUMPDEST PUSH1 0x0 DUP1 PUSH2 0x6C5 PUSH2 0xB9F JUMP JUMPDEST SWAP1 POP PUSH2 0x6E6 DUP2 DUP6 DUP6 PUSH2 0x6D7 DUP6 DUP10 PUSH2 0xAF1 JUMP JUMPDEST PUSH2 0x6E1 SWAP2 SWAP1 PUSH2 0x14C1 JUMP JUMPDEST PUSH2 0xBA7 JUMP JUMPDEST PUSH1 0x1 SWAP2 POP POP SWAP3 SWAP2 POP POP JUMP JUMPDEST PUSH2 0x6FB DUP3 DUP3 PUSH2 0x799 JUMP JUMPDEST POP POP JUMP JUMPDEST PUSH1 0x0 PUSH2 0x3E8 CALLVALUE PUSH2 0x70F SWAP2 SWAP1 PUSH2 0x13ED JUMP JUMPDEST SWAP1 POP PUSH1 0x5 SLOAD DUP2 PUSH2 0x71D PUSH2 0x5F6 JUMP JUMPDEST PUSH2 0x727 SWAP2 SWAP1 PUSH2 0x14C1 JUMP JUMPDEST LT PUSH2 0x767 JUMPI PUSH1 0x40 MLOAD PUSH32 0x8C379A000000000000000000000000000000000000000000000000000000000 DUP2 MSTORE PUSH1 0x4 ADD PUSH2 0x75E SWAP1 PUSH2 0x1541 JUMP JUMPDEST PUSH1 0x40 MLOAD DUP1 SWAP2 SUB SWAP1 REVERT JUMPDEST PUSH2 0x771 CALLER DUP3 PUSH2 0x6F1 JUMP JUMPDEST POP JUMP JUMPDEST PUSH1 0x0 PUSH8 0xDE0B6B3A7640000 PUSH2 0x788 DUP4 PUSH2 0x934 JUMP JUMPDEST PUSH2 0x792 SWAP2 SWAP1 PUSH2 0x1590 JUMP JUMPDEST SWAP1 POP SWAP2 SWAP1 POP JUMP JUMPDEST PUSH1 0x0 PUSH20 0xFFFFFFFFFFFFFFFFFFFFFFFFFFFFFFFFFFFFFFFF AND DUP3 PUSH20 0xFFFFFFFFFFFFFFFFFFFFFFFFFFFFFFFFFFFFFFFF AND SUB PUSH2 0x808 JUMPI PUSH1 0x40 MLOAD PUSH32 0x8C379A000000000000000000000000000000000000000000000000000000000 DUP2 MSTORE PUSH1 0x4 ADD PUSH2 0x7FF SWAP1 PUSH2 0x160D JUMP JUMPDEST PUSH1 0x40 MLOAD DUP1 SWAP2 SUB SWAP1 REVERT JUMPDEST PUSH2 0x814 PUSH1 0x0 DUP4 DUP4 PUSH2 0x1072 JUMP JUMPDEST DUP1 PUSH1 0x2 PUSH1 0x0 DUP3 DUP3 SLOAD PUSH2 0x826 SWAP2 SWAP1 PUSH2 0x14C1 JUMP JUMPDEST SWAP3 POP POP DUP2 SWAP1 SSTORE POP DUP1 PUSH1 0x0 DUP1 DUP5 PUSH20 0xFFFFFFFFFFFFFFFFFFFFFFFFFFFFFFFFFFFFFFFF AND PUSH20 0xFFFFFFFFFFFFFFFFFFFFFFFFFFFFFFFFFFFFFFFF AND DUP2 MSTORE PUSH1 0x20 ADD SWAP1 DUP2 MSTORE PUSH1 0x20 ADD PUSH1 0x0 KECCAK256 PUSH1 0x0 DUP3 DUP3 SLOAD ADD SWAP3 POP POP DUP2 SWAP1 SSTORE POP DUP2 PUSH20 0xFFFFFFFFFFFFFFFFFFFFFFFFFFFFFFFFFFFFFFFF AND PUSH1 0x0 PUSH20 0xFFFFFFFFFFFFFFFFFFFFFFFFFFFFFFFFFFFFFFFF AND PUSH32 0xDDF252AD1BE2C89B69C2B068FC378DAA952BA7F163C4A11628F55A4DF523B3EF DUP4 PUSH1 0x40 MLOAD PUSH2 0x8D7 SWAP2 SWAP1 PUSH2 0x124C JUMP JUMPDEST PUSH1 0x40 MLOAD DUP1 SWAP2 SUB SWAP1 LOG3 PUSH2 0x8EB PUSH1 0x0 DUP4 DUP4 PUSH2 0x1077 JUMP JUMPDEST POP POP JUMP JUMPDEST PUSH1 0x0 PUSH8 0xDE0B6B3A7640000 PUSH2 0x903 CALLER PUSH2 0x934 JUMP JUMPDEST PUSH2 0x90D SWAP2 SWAP1 PUSH2 0x1590 JUMP JUMPDEST SWAP1 POP SWAP1 JUMP JUMPDEST PUSH2 0x92F DUP3 PUSH8 0xDE0B6B3A7640000 DUP4 PUSH2 0x92A SWAP2 SWAP1 PUSH2 0x13ED JUMP JUMPDEST PUSH2 0x5D3 JUMP JUMPDEST POP POP POP JUMP JUMPDEST PUSH1 0x0 DUP1 PUSH1 0x0 DUP4 PUSH20 0xFFFFFFFFFFFFFFFFFFFFFFFFFFFFFFFFFFFFFFFF AND PUSH20 0xFFFFFFFFFFFFFFFFFFFFFFFFFFFFFFFFFFFFFFFF AND DUP2 MSTORE PUSH1 0x20 ADD SWAP1 DUP2 MSTORE PUSH1 0x20 ADD PUSH1 0x0 KECCAK256 SLOAD SWAP1 POP SWAP2 SWAP1 POP JUMP JUMPDEST PUSH1 0x60 PUSH1 0x4 DUP1 SLOAD PUSH2 0x98B SWAP1 PUSH2 0x138D JUMP JUMPDEST DUP1 PUSH1 0x1F ADD PUSH1 0x20 DUP1 SWAP2 DIV MUL PUSH1 0x20 ADD PUSH1 0x40 MLOAD SWAP1 DUP2 ADD PUSH1 0x40 MSTORE DUP1 SWAP3 SWAP2 SWAP1 DUP2 DUP2 MSTORE PUSH1 0x20 ADD DUP3 DUP1 SLOAD PUSH2 0x9B7 SWAP1 PUSH2 0x138D JUMP JUMPDEST DUP1 ISZERO PUSH2 0xA04 JUMPI DUP1 PUSH1 0x1F LT PUSH2 0x9D9 JUMPI PUSH2 0x100 DUP1 DUP4 SLOAD DIV MUL DUP4 MSTORE SWAP2 PUSH1 0x20 ADD SWAP2 PUSH2 0xA04 JUMP JUMPDEST DUP3 ADD SWAP2 SWAP1 PUSH1 0x0 MSTORE PUSH1 0x20 PUSH1 0x0 KECCAK256 SWAP1 JUMPDEST DUP2 SLOAD DUP2 MSTORE SWAP1 PUSH1 0x1 ADD SWAP1 PUSH1 0x20 ADD DUP1 DUP4 GT PUSH2 0x9E7 JUMPI DUP3 SWAP1 SUB PUSH1 0x1F AND DUP3 ADD SWAP2 JUMPDEST POP POP POP POP POP SWAP1 POP SWAP1 JUMP JUMPDEST PUSH1 0x0 PUSH8 0xDE0B6B3A7640000 PUSH2 0xA23 DUP5 DUP5 PUSH2 0xAF1 JUMP JUMPDEST PUSH2 0xA2D SWAP2 SWAP1 PUSH2 0x1590 JUMP JUMPDEST SWAP1 POP SWAP3 SWAP2 POP POP JUMP JUMPDEST PUSH1 0x0 PUSH8 0xDE0B6B3A7640000 PUSH2 0xA48 PUSH2 0x5F6 JUMP JUMPDEST PUSH2 0xA52 SWAP2 SWAP1 PUSH2 0x1590 JUMP JUMPDEST SWAP1 POP SWAP1 JUMP JUMPDEST PUSH1 0x0 DUP1 PUSH2 0xA62 PUSH2 0xB9F JUMP JUMPDEST SWAP1 POP PUSH1 0x0 PUSH2 0xA70 DUP3 DUP7 PUSH2 0xAF1 JUMP JUMPDEST SWAP1 POP DUP4 DUP2 LT ISZERO PUSH2 0xAB5 JUMPI PUSH1 0x40 MLOAD PUSH32 0x8C379A000000000000000000000000000000000000000000000000000000000 DUP2 MSTORE PUSH1 0x4 ADD PUSH2 0xAAC SWAP1 PUSH2 0x169F JUMP JUMPDEST PUSH1 0x40 MLOAD DUP1 SWAP2 SUB SWAP1 REVERT JUMPDEST PUSH2 0xAC2 DUP3 DUP7 DUP7 DUP5 SUB PUSH2 0xBA7 JUMP JUMPDEST PUSH1 0x1 SWAP3 POP POP POP SWAP3 SWAP2 POP POP JUMP JUMPDEST PUSH1 0x0 DUP1 PUSH2 0xAD9 PUSH2 0xB9F JUMP JUMPDEST SWAP1 POP PUSH2 0xAE6 DUP2 DUP6 DUP6 PUSH2 0xDFC JUMP JUMPDEST PUSH1 0x1 SWAP2 POP POP SWAP3 SWAP2 POP POP JUMP JUMPDEST PUSH1 0x0 PUSH1 0x1 PUSH1 0x0 DUP5 PUSH20 0xFFFFFFFFFFFFFFFFFFFFFFFFFFFFFFFFFFFFFFFF AND PUSH20 0xFFFFFFFFFFFFFFFFFFFFFFFFFFFFFFFFFFFFFFFF AND DUP2 MSTORE PUSH1 0x20 ADD SWAP1 DUP2 MSTORE PUSH1 0x20 ADD PUSH1 0x0 KECCAK256 PUSH1 0x0 DUP4 PUSH20 0xFFFFFFFFFFFFFFFFFFFFFFFFFFFFFFFFFFFFFFFF AND PUSH20 0xFFFFFFFFFFFFFFFFFFFFFFFFFFFFFFFFFFFFFFFF AND DUP2 MSTORE PUSH1 0x20 ADD SWAP1 DUP2 MSTORE PUSH1 0x20 ADD PUSH1 0x0 KECCAK256 SLOAD SWAP1 POP SWAP3 SWAP2 POP POP JUMP JUMPDEST PUSH1 0x0 PUSH2 0xB97 DUP4 PUSH8 0xDE0B6B3A7640000 DUP5 PUSH2 0xB92 SWAP2 SWAP1 PUSH2 0x13ED JUMP JUMPDEST PUSH2 0xACE JUMP JUMPDEST SWAP1 POP SWAP3 SWAP2 POP POP JUMP JUMPDEST PUSH1 0x0 CALLER SWAP1 POP SWAP1 JUMP JUMPDEST PUSH1 0x0 PUSH20 0xFFFFFFFFFFFFFFFFFFFFFFFFFFFFFFFFFFFFFFFF AND DUP4 PUSH20 0xFFFFFFFFFFFFFFFFFFFFFFFFFFFFFFFFFFFFFFFF AND SUB PUSH2 0xC16 JUMPI PUSH1 0x40 MLOAD PUSH32 0x8C379A000000000000000000000000000000000000000000000000000000000 DUP2 MSTORE PUSH1 0x4 ADD PUSH2 0xC0D SWAP1 PUSH2 0x1731 JUMP JUMPDEST PUSH1 0x40 MLOAD DUP1 SWAP2 SUB SWAP1 REVERT JUMPDEST PUSH1 0x0 PUSH20 0xFFFFFFFFFFFFFFFFFFFFFFFFFFFFFFFFFFFFFFFF AND DUP3 PUSH20 0xFFFFFFFFFFFFFFFFFFFFFFFFFFFFFFFFFFFFFFFF AND SUB PUSH2 0xC85 JUMPI PUSH1 0x40 MLOAD PUSH32 0x8C379A000000000000000000000000000000000000000000000000000000000 DUP2 MSTORE PUSH1 0x4 ADD PUSH2 0xC7C SWAP1 PUSH2 0x17C3 JUMP JUMPDEST PUSH1 0x40 MLOAD DUP1 SWAP2 SUB SWAP1 REVERT JUMPDEST DUP1 PUSH1 0x1 PUSH1 0x0 DUP6 PUSH20 0xFFFFFFFFFFFFFFFFFFFFFFFFFFFFFFFFFFFFFFFF AND PUSH20 0xFFFFFFFFFFFFFFFFFFFFFFFFFFFFFFFFFFFFFFFF AND DUP2 MSTORE PUSH1 0x20 ADD SWAP1 DUP2 MSTORE PUSH1 0x20 ADD PUSH1 0x0 KECCAK256 PUSH1 0x0 DUP5 PUSH20 0xFFFFFFFFFFFFFFFFFFFFFFFFFFFFFFFFFFFFFFFF AND PUSH20 0xFFFFFFFFFFFFFFFFFFFFFFFFFFFFFFFFFFFFFFFF AND DUP2 MSTORE PUSH1 0x20 ADD SWAP1 DUP2 MSTORE PUSH1 0x20 ADD PUSH1 0x0 KECCAK256 DUP2 SWAP1 SSTORE POP DUP2 PUSH20 0xFFFFFFFFFFFFFFFFFFFFFFFFFFFFFFFFFFFFFFFF AND DUP4 PUSH20 0xFFFFFFFFFFFFFFFFFFFFFFFFFFFFFFFFFFFFFFFF AND PUSH32 0x8C5BE1E5EBEC7D5BD14F71427D1E84F3DD0314C0F7B2291E5B200AC8C7C3B925 DUP4 PUSH1 0x40 MLOAD PUSH2 0xD63 SWAP2 SWAP1 PUSH2 0x124C JUMP JUMPDEST PUSH1 0x40 MLOAD DUP1 SWAP2 SUB SWAP1 LOG3 POP POP POP JUMP JUMPDEST PUSH1 0x0 PUSH2 0xD7C DUP5 DUP5 PUSH2 0xAF1 JUMP JUMPDEST SWAP1 POP PUSH32 0xFFFFFFFFFFFFFFFFFFFFFFFFFFFFFFFFFFFFFFFFFFFFFFFFFFFFFFFFFFFFFFFF DUP2 EQ PUSH2 0xDF6 JUMPI DUP2 DUP2 LT ISZERO PUSH2 0xDE8 JUMPI PUSH1 0x40 MLOAD PUSH32 0x8C379A000000000000000000000000000000000000000000000000000000000 DUP2 MSTORE PUSH1 0x4 ADD PUSH2 0xDDF SWAP1 PUSH2 0x182F JUMP JUMPDEST PUSH1 0x40 MLOAD DUP1 SWAP2 SUB SWAP1 REVERT JUMPDEST PUSH2 0xDF5 DUP5 DUP5 DUP5 DUP5 SUB PUSH2 0xBA7 JUMP JUMPDEST JUMPDEST POP POP POP POP JUMP JUMPDEST PUSH1 0x0 PUSH20 0xFFFFFFFFFFFFFFFFFFFFFFFFFFFFFFFFFFFFFFFF AND DUP4 PUSH20 0xFFFFFFFFFFFFFFFFFFFFFFFFFFFFFFFFFFFFFFFF AND SUB PUSH2 0xE6B JUMPI PUSH1 0x40 MLOAD PUSH32 0x8C379A000000000000000000000000000000000000000000000000000000000 DUP2 MSTORE PUSH1 0x4 ADD PUSH2 0xE62 SWAP1 PUSH2 0x18C1 JUMP JUMPDEST PUSH1 0x40 MLOAD DUP1 SWAP2 SUB SWAP1 REVERT JUMPDEST PUSH1 0x0 PUSH20 0xFFFFFFFFFFFFFFFFFFFFFFFFFFFFFFFFFFFFFFFF AND DUP3 PUSH20 0xFFFFFFFFFFFFFFFFFFFFFFFFFFFFFFFFFFFFFFFF AND SUB PUSH2 0xEDA JUMPI PUSH1 0x40 MLOAD PUSH32 0x8C379A000000000000000000000000000000000000000000000000000000000 DUP2 MSTORE PUSH1 0x4 ADD PUSH2 0xED1 SWAP1 PUSH2 0x1953 JUMP JUMPDEST PUSH1 0x40 MLOAD DUP1 SWAP2 SUB SWAP1 REVERT JUMPDEST PUSH2 0xEE5 DUP4 DUP4 DUP4 PUSH2 0x1072 JUMP JUMPDEST PUSH1 0x0 DUP1 PUSH1 0x0 DUP6 PUSH20 0xFFFFFFFFFFFFFFFFFFFFFFFFFFFFFFFFFFFFFFFF AND PUSH20 0xFFFFFFFFFFFFFFFFFFFFFFFFFFFFFFFFFFFFFFFF AND DUP2 MSTORE PUSH1 0x20 ADD SWAP1 DUP2 MSTORE PUSH1 0x20 ADD PUSH1 0x0 KECCAK256 SLOAD SWAP1 POP DUP2 DUP2 LT ISZERO PUSH2 0xF6B JUMPI PUSH1 0x40 MLOAD PUSH32 0x8C379A000000000000000000000000000000000000000000000000000000000 DUP2 MSTORE PUSH1 0x4 ADD PUSH2 0xF62 SWAP1 PUSH2 0x19E5 JUMP JUMPDEST PUSH1 0x40 MLOAD DUP1 SWAP2 SUB SWAP1 REVERT JUMPDEST DUP2 DUP2 SUB PUSH1 0x0 DUP1 DUP7 PUSH20 0xFFFFFFFFFFFFFFFFFFFFFFFFFFFFFFFFFFFFFFFF AND PUSH20 0xFFFFFFFFFFFFFFFFFFFFFFFFFFFFFFFFFFFFFFFF AND DUP2 MSTORE PUSH1 0x20 ADD SWAP1 DUP2 MSTORE PUSH1 0x20 ADD PUSH1 0x0 KECCAK256 DUP2 SWAP1 SSTORE POP DUP2 PUSH1 0x0 DUP1 DUP6 PUSH20 0xFFFFFFFFFFFFFFFFFFFFFFFFFFFFFFFFFFFFFFFF AND PUSH20 0xFFFFFFFFFFFFFFFFFFFFFFFFFFFFFFFFFFFFFFFF AND DUP2 MSTORE PUSH1 0x20 ADD SWAP1 DUP2 MSTORE PUSH1 0x20 ADD PUSH1 0x0 KECCAK256 PUSH1 0x0 DUP3 DUP3 SLOAD ADD SWAP3 POP POP DUP2 SWAP1 SSTORE POP DUP3 PUSH20 0xFFFFFFFFFFFFFFFFFFFFFFFFFFFFFFFFFFFFFFFF AND DUP5 PUSH20 0xFFFFFFFFFFFFFFFFFFFFFFFFFFFFFFFFFFFFFFFF AND PUSH32 0xDDF252AD1BE2C89B69C2B068FC378DAA952BA7F163C4A11628F55A4DF523B3EF DUP5 PUSH1 0x40 MLOAD PUSH2 0x1059 SWAP2 SWAP1 PUSH2 0x124C JUMP JUMPDEST PUSH1 0x40 MLOAD DUP1 SWAP2 SUB SWAP1 LOG3 PUSH2 0x106C DUP5 DUP5 DUP5 PUSH2 0x1077 JUMP JUMPDEST POP POP POP POP JUMP JUMPDEST POP POP POP JUMP JUMPDEST POP POP POP JUMP JUMPDEST PUSH1 0x0 DUP2 MLOAD SWAP1 POP SWAP2 SWAP1 POP JUMP JUMPDEST PUSH1 0x0 DUP3 DUP3 MSTORE PUSH1 0x20 DUP3 ADD SWAP1 POP SWAP3 SWAP2 POP POP JUMP JUMPDEST PUSH1 0x0 JUMPDEST DUP4 DUP2 LT ISZERO PUSH2 0x10B6 JUMPI DUP1 DUP3 ADD MLOAD DUP2 DUP5 ADD MSTORE PUSH1 0x20 DUP2 ADD SWAP1 POP PUSH2 0x109B JUMP JUMPDEST PUSH1 0x0 DUP5 DUP5 ADD MSTORE POP POP POP POP JUMP JUMPDEST PUSH1 0x0 PUSH1 0x1F NOT PUSH1 0x1F DUP4 ADD AND SWAP1 POP SWAP2 SWAP1 POP JUMP JUMPDEST PUSH1 0x0 PUSH2 0x10DE DUP3 PUSH2 0x107C JUMP JUMPDEST PUSH2 0x10E8 DUP2 DUP6 PUSH2 0x1087 JUMP JUMPDEST SWAP4 POP PUSH2 0x10F8 DUP2 DUP6 PUSH1 0x20 DUP7 ADD PUSH2 0x1098 JUMP JUMPDEST PUSH2 0x1101 DUP2 PUSH2 0x10C2 JUMP JUMPDEST DUP5 ADD SWAP2 POP POP SWAP3 SWAP2 POP POP JUMP JUMPDEST PUSH1 0x0 PUSH1 0x20 DUP3 ADD SWAP1 POP DUP2 DUP2 SUB PUSH1 0x0 DUP4 ADD MSTORE PUSH2 0x1126 DUP2 DUP5 PUSH2 0x10D3 JUMP JUMPDEST SWAP1 POP SWAP3 SWAP2 POP POP JUMP JUMPDEST PUSH1 0x0 DUP1 REVERT JUMPDEST PUSH1 0x0 PUSH20 0xFFFFFFFFFFFFFFFFFFFFFFFFFFFFFFFFFFFFFFFF DUP3 AND SWAP1 POP SWAP2 SWAP1 POP JUMP JUMPDEST PUSH1 0x0 PUSH2 0x115E DUP3 PUSH2 0x1133 JUMP JUMPDEST SWAP1 POP SWAP2 SWAP1 POP JUMP JUMPDEST PUSH2 0x116E DUP2 PUSH2 0x1153 JUMP JUMPDEST DUP2 EQ PUSH2 0x1179 JUMPI PUSH1 0x0 DUP1 REVERT JUMPDEST POP JUMP JUMPDEST PUSH1 0x0 DUP2 CALLDATALOAD SWAP1 POP PUSH2 0x118B DUP2 PUSH2 0x1165 JUMP JUMPDEST SWAP3 SWAP2 POP POP JUMP JUMPDEST PUSH1 0x0 DUP2 SWAP1 POP SWAP2 SWAP1 POP JUMP JUMPDEST PUSH2 0x11A4 DUP2 PUSH2 0x1191 JUMP JUMPDEST DUP2 EQ PUSH2 0x11AF JUMPI PUSH1 0x0 DUP1 REVERT JUMPDEST POP JUMP JUMPDEST PUSH1 0x0 DUP2 CALLDATALOAD SWAP1 POP PUSH2 0x11C1 DUP2 PUSH2 0x119B JUMP JUMPDEST SWAP3 SWAP2 POP POP JUMP JUMPDEST PUSH1 0x0 DUP1 PUSH1 0x40 DUP4 DUP6 SUB SLT ISZERO PUSH2 0x11DE JUMPI PUSH2 0x11DD PUSH2 0x112E JUMP JUMPDEST JUMPDEST PUSH1 0x0 PUSH2 0x11EC DUP6 DUP3 DUP7 ADD PUSH2 0x117C JUMP JUMPDEST SWAP3 POP POP PUSH1 0x20 PUSH2 0x11FD DUP6 DUP3 DUP7 ADD PUSH2 0x11B2 JUMP JUMPDEST SWAP2 POP POP SWAP3 POP SWAP3 SWAP1 POP JUMP JUMPDEST PUSH1 0x0 DUP2 ISZERO ISZERO SWAP1 POP SWAP2 SWAP1 POP JUMP JUMPDEST PUSH2 0x121C DUP2 PUSH2 0x1207 JUMP JUMPDEST DUP3 MSTORE POP POP JUMP JUMPDEST PUSH1 0x0 PUSH1 0x20 DUP3 ADD SWAP1 POP PUSH2 0x1237 PUSH1 0x0 DUP4 ADD DUP5 PUSH2 0x1213 JUMP JUMPDEST SWAP3 SWAP2 POP POP JUMP JUMPDEST PUSH2 0x1246 DUP2 PUSH2 0x1191 JUMP JUMPDEST DUP3 MSTORE POP POP JUMP JUMPDEST PUSH1 0x0 PUSH1 0x20 DUP3 ADD SWAP1 POP PUSH2 0x1261 PUSH1 0x0 DUP4 ADD DUP5 PUSH2 0x123D JUMP JUMPDEST SWAP3 SWAP2 POP POP JUMP JUMPDEST PUSH1 0x0 DUP1 PUSH1 0x0 PUSH1 0x60 DUP5 DUP7 SUB SLT ISZERO PUSH2 0x1280 JUMPI PUSH2 0x127F PUSH2 0x112E JUMP JUMPDEST JUMPDEST PUSH1 0x0 PUSH2 0x128E DUP7 DUP3 DUP8 ADD PUSH2 0x117C JUMP JUMPDEST SWAP4 POP POP PUSH1 0x20 PUSH2 0x129F DUP7 DUP3 DUP8 ADD PUSH2 0x117C JUMP JUMPDEST SWAP3 POP POP PUSH1 0x40 PUSH2 0x12B0 DUP7 DUP3 DUP8 ADD PUSH2 0x11B2 JUMP JUMPDEST SWAP2 POP POP SWAP3 POP SWAP3 POP SWAP3 JUMP JUMPDEST PUSH1 0x0 PUSH1 0xFF DUP3 AND SWAP1 POP SWAP2 SWAP1 POP JUMP JUMPDEST PUSH2 0x12D0 DUP2 PUSH2 0x12BA JUMP JUMPDEST DUP3 MSTORE POP POP JUMP JUMPDEST PUSH1 0x0 PUSH1 0x20 DUP3 ADD SWAP1 POP PUSH2 0x12EB PUSH1 0x0 DUP4 ADD DUP5 PUSH2 0x12C7 JUMP JUMPDEST SWAP3 SWAP2 POP POP JUMP JUMPDEST PUSH1 0x0 PUSH1 0x20 DUP3 DUP5 SUB SLT ISZERO PUSH2 0x1307 JUMPI PUSH2 0x1306 PUSH2 0x112E JUMP JUMPDEST JUMPDEST PUSH1 0x0 PUSH2 0x1315 DUP5 DUP3 DUP6 ADD PUSH2 0x117C JUMP JUMPDEST SWAP2 POP POP SWAP3 SWAP2 POP POP JUMP JUMPDEST PUSH1 0x0 DUP1 PUSH1 0x40 DUP4 DUP6 SUB SLT ISZERO PUSH2 0x1335 JUMPI PUSH2 0x1334 PUSH2 0x112E JUMP JUMPDEST JUMPDEST PUSH1 0x0 PUSH2 0x1343 DUP6 DUP3 DUP7 ADD PUSH2 0x117C JUMP JUMPDEST SWAP3 POP POP PUSH1 0x20 PUSH2 0x1354 DUP6 DUP3 DUP7 ADD PUSH2 0x117C JUMP JUMPDEST SWAP2 POP POP SWAP3 POP SWAP3 SWAP1 POP JUMP JUMPDEST PUSH32 0x4E487B7100000000000000000000000000000000000000000000000000000000 PUSH1 0x0 MSTORE PUSH1 0x22 PUSH1 0x4 MSTORE PUSH1 0x24 PUSH1 0x0 REVERT JUMPDEST PUSH1 0x0 PUSH1 0x2 DUP3 DIV SWAP1 POP PUSH1 0x1 DUP3 AND DUP1 PUSH2 0x13A5 JUMPI PUSH1 0x7F DUP3 AND SWAP2 POP JUMPDEST PUSH1 0x20 DUP3 LT DUP2 SUB PUSH2 0x13B8 JUMPI PUSH2 0x13B7 PUSH2 0x135E JUMP JUMPDEST JUMPDEST POP SWAP2 SWAP1 POP JUMP JUMPDEST PUSH32 0x4E487B7100000000000000000000000000000000000000000000000000000000 PUSH1 0x0 MSTORE PUSH1 0x11 PUSH1 0x4 MSTORE PUSH1 0x24 PUSH1 0x0 REVERT JUMPDEST PUSH1 0x0 PUSH2 0x13F8 DUP3 PUSH2 0x1191 JUMP JUMPDEST SWAP2 POP PUSH2 0x1403 DUP4 PUSH2 0x1191 JUMP JUMPDEST SWAP3 POP DUP3 DUP3 MUL PUSH2 0x1411 DUP2 PUSH2 0x1191 JUMP JUMPDEST SWAP2 POP DUP3 DUP3 DIV DUP5 EQ DUP4 ISZERO OR PUSH2 0x1428 JUMPI PUSH2 0x1427 PUSH2 0x13BE JUMP JUMPDEST JUMPDEST POP SWAP3 SWAP2 POP POP JUMP JUMPDEST PUSH32 0x5761726E696E673A20596F7520617265206E6F7420616C6C6F77656420746F20 PUSH1 0x0 DUP3 ADD MSTORE PUSH32 0x7472616E73666572210000000000000000000000000000000000000000000000 PUSH1 0x20 DUP3 ADD MSTORE POP JUMP JUMPDEST PUSH1 0x0 PUSH2 0x148B PUSH1 0x29 DUP4 PUSH2 0x1087 JUMP JUMPDEST SWAP2 POP PUSH2 0x1496 DUP3 PUSH2 0x142F JUMP JUMPDEST PUSH1 0x40 DUP3 ADD SWAP1 POP SWAP2 SWAP1 POP JUMP JUMPDEST PUSH1 0x0 PUSH1 0x20 DUP3 ADD SWAP1 POP DUP2 DUP2 SUB PUSH1 0x0 DUP4 ADD MSTORE PUSH2 0x14BA DUP2 PUSH2 0x147E JUMP JUMPDEST SWAP1 POP SWAP2 SWAP1 POP JUMP JUMPDEST PUSH1 0x0 PUSH2 0x14CC DUP3 PUSH2 0x1191 JUMP JUMPDEST SWAP2 POP PUSH2 0x14D7 DUP4 PUSH2 0x1191 JUMP JUMPDEST SWAP3 POP DUP3 DUP3 ADD SWAP1 POP DUP1 DUP3 GT ISZERO PUSH2 0x14EF JUMPI PUSH2 0x14EE PUSH2 0x13BE JUMP JUMPDEST JUMPDEST SWAP3 SWAP2 POP POP JUMP JUMPDEST PUSH32 0x5761726E696E673A20496E73756666696369656E742047656D73210000000000 PUSH1 0x0 DUP3 ADD MSTORE POP JUMP JUMPDEST PUSH1 0x0 PUSH2 0x152B PUSH1 0x1B DUP4 PUSH2 0x1087 JUMP JUMPDEST SWAP2 POP PUSH2 0x1536 DUP3 PUSH2 0x14F5 JUMP JUMPDEST PUSH1 0x20 DUP3 ADD SWAP1 POP SWAP2 SWAP1 POP JUMP JUMPDEST PUSH1 0x0 PUSH1 0x20 DUP3 ADD SWAP1 POP DUP2 DUP2 SUB PUSH1 0x0 DUP4 ADD MSTORE PUSH2 0x155A DUP2 PUSH2 0x151E JUMP JUMPDEST SWAP1 POP SWAP2 SWAP1 POP JUMP JUMPDEST PUSH32 0x4E487B7100000000000000000000000000000000000000000000000000000000 PUSH1 0x0 MSTORE PUSH1 0x12 PUSH1 0x4 MSTORE PUSH1 0x24 PUSH1 0x0 REVERT JUMPDEST PUSH1 0x0 PUSH2 0x159B DUP3 PUSH2 0x1191 JUMP JUMPDEST SWAP2 POP PUSH2 0x15A6 DUP4 PUSH2 0x1191 JUMP JUMPDEST SWAP3 POP DUP3 PUSH2 0x15B6 JUMPI PUSH2 0x15B5 PUSH2 0x1561 JUMP JUMPDEST JUMPDEST DUP3 DUP3 DIV SWAP1 POP SWAP3 SWAP2 POP POP JUMP JUMPDEST PUSH32 0x45524332303A206D696E7420746F20746865207A65726F206164647265737300 PUSH1 0x0 DUP3 ADD MSTORE POP JUMP JUMPDEST PUSH1 0x0 PUSH2 0x15F7 PUSH1 0x1F DUP4 PUSH2 0x1087 JUMP JUMPDEST SWAP2 POP PUSH2 0x1602 DUP3 PUSH2 0x15C1 JUMP JUMPDEST PUSH1 0x20 DUP3 ADD SWAP1 POP SWAP2 SWAP1 POP JUMP JUMPDEST PUSH1 0x0 PUSH1 0x20 DUP3 ADD SWAP1 POP DUP2 DUP2 SUB PUSH1 0x0 DUP4 ADD MSTORE PUSH2 0x1626 DUP2 PUSH2 0x15EA JUMP JUMPDEST SWAP1 POP SWAP2 SWAP1 POP JUMP JUMPDEST PUSH32 0x45524332303A2064656372656173656420616C6C6F77616E63652062656C6F77 PUSH1 0x0 DUP3 ADD MSTORE PUSH32 0x207A65726F000000000000000000000000000000000000000000000000000000 PUSH1 0x20 DUP3 ADD MSTORE POP JUMP JUMPDEST PUSH1 0x0 PUSH2 0x1689 PUSH1 0x25 DUP4 PUSH2 0x1087 JUMP JUMPDEST SWAP2 POP PUSH2 0x1694 DUP3 PUSH2 0x162D JUMP JUMPDEST PUSH1 0x40 DUP3 ADD SWAP1 POP SWAP2 SWAP1 POP JUMP JUMPDEST PUSH1 0x0 PUSH1 0x20 DUP3 ADD SWAP1 POP DUP2 DUP2 SUB PUSH1 0x0 DUP4 ADD MSTORE PUSH2 0x16B8 DUP2 PUSH2 0x167C JUMP JUMPDEST SWAP1 POP SWAP2 SWAP1 POP JUMP JUMPDEST PUSH32 0x45524332303A20617070726F76652066726F6D20746865207A65726F20616464 PUSH1 0x0 DUP3 ADD MSTORE PUSH32 0x7265737300000000000000000000000000000000000000000000000000000000 PUSH1 0x20 DUP3 ADD MSTORE POP JUMP JUMPDEST PUSH1 0x0 PUSH2 0x171B PUSH1 0x24 DUP4 PUSH2 0x1087 JUMP JUMPDEST SWAP2 POP PUSH2 0x1726 DUP3 PUSH2 0x16BF JUMP JUMPDEST PUSH1 0x40 DUP3 ADD SWAP1 POP SWAP2 SWAP1 POP JUMP JUMPDEST PUSH1 0x0 PUSH1 0x20 DUP3 ADD SWAP1 POP DUP2 DUP2 SUB PUSH1 0x0 DUP4 ADD MSTORE PUSH2 0x174A DUP2 PUSH2 0x170E JUMP JUMPDEST SWAP1 POP SWAP2 SWAP1 POP JUMP JUMPDEST PUSH32 0x45524332303A20617070726F766520746F20746865207A65726F206164647265 PUSH1 0x0 DUP3 ADD MSTORE PUSH32 0x7373000000000000000000000000000000000000000000000000000000000000 PUSH1 0x20 DUP3 ADD MSTORE POP JUMP JUMPDEST PUSH1 0x0 PUSH2 0x17AD PUSH1 0x22 DUP4 PUSH2 0x1087 JUMP JUMPDEST SWAP2 POP PUSH2 0x17B8 DUP3 PUSH2 0x1751 JUMP JUMPDEST PUSH1 0x40 DUP3 ADD SWAP1 POP SWAP2 SWAP1 POP JUMP JUMPDEST PUSH1 0x0 PUSH1 0x20 DUP3 ADD SWAP1 POP DUP2 DUP2 SUB PUSH1 0x0 DUP4 ADD MSTORE PUSH2 0x17DC DUP2 PUSH2 0x17A0 JUMP JUMPDEST SWAP1 POP SWAP2 SWAP1 POP JUMP JUMPDEST PUSH32 0x45524332303A20696E73756666696369656E7420616C6C6F77616E6365000000 PUSH1 0x0 DUP3 ADD MSTORE POP JUMP JUMPDEST PUSH1 0x0 PUSH2 0x1819 PUSH1 0x1D DUP4 PUSH2 0x1087 JUMP JUMPDEST SWAP2 POP PUSH2 0x1824 DUP3 PUSH2 0x17E3 JUMP JUMPDEST PUSH1 0x20 DUP3 ADD SWAP1 POP SWAP2 SWAP1 POP JUMP JUMPDEST PUSH1 0x0 PUSH1 0x20 DUP3 ADD SWAP1 POP DUP2 DUP2 SUB PUSH1 0x0 DUP4 ADD MSTORE PUSH2 0x1848 DUP2 PUSH2 0x180C JUMP JUMPDEST SWAP1 POP SWAP2 SWAP1 POP JUMP JUMPDEST PUSH32 0x45524332303A207472616E736665722066726F6D20746865207A65726F206164 PUSH1 0x0 DUP3 ADD MSTORE PUSH32 0x6472657373000000000000000000000000000000000000000000000000000000 PUSH1 0x20 DUP3 ADD MSTORE POP JUMP JUMPDEST PUSH1 0x0 PUSH2 0x18AB PUSH1 0x25 DUP4 PUSH2 0x1087 JUMP JUMPDEST SWAP2 POP PUSH2 0x18B6 DUP3 PUSH2 0x184F JUMP JUMPDEST PUSH1 0x40 DUP3 ADD SWAP1 POP SWAP2 SWAP1 POP JUMP JUMPDEST PUSH1 0x0 PUSH1 0x20 DUP3 ADD SWAP1 POP DUP2 DUP2 SUB PUSH1 0x0 DUP4 ADD MSTORE PUSH2 0x18DA DUP2 PUSH2 0x189E JUMP JUMPDEST SWAP1 POP SWAP2 SWAP1 POP JUMP JUMPDEST PUSH32 0x45524332303A207472616E7366657220746F20746865207A65726F2061646472 PUSH1 0x0 DUP3 ADD MSTORE PUSH32 0x6573730000000000000000000000000000000000000000000000000000000000 PUSH1 0x20 DUP3 ADD MSTORE POP JUMP JUMPDEST PUSH1 0x0 PUSH2 0x193D PUSH1 0x23 DUP4 PUSH2 0x1087 JUMP JUMPDEST SWAP2 POP PUSH2 0x1948 DUP3 PUSH2 0x18E1 JUMP JUMPDEST PUSH1 0x40 DUP3 ADD SWAP1 POP SWAP2 SWAP1 POP JUMP JUMPDEST PUSH1 0x0 PUSH1 0x20 DUP3 ADD SWAP1 POP DUP2 DUP2 SUB PUSH1 0x0 DUP4 ADD MSTORE PUSH2 0x196C DUP2 PUSH2 0x1930 JUMP JUMPDEST SWAP1 POP SWAP2 SWAP1 POP JUMP JUMPDEST PUSH32 0x45524332303A207472616E7366657220616D6F756E7420657863656564732062 PUSH1 0x0 DUP3 ADD MSTORE PUSH32 0x616C616E63650000000000000000000000000000000000000000000000000000 PUSH1 0x20 DUP3 ADD MSTORE POP JUMP JUMPDEST PUSH1 0x0 PUSH2 0x19CF PUSH1 0x26 DUP4 PUSH2 0x1087 JUMP JUMPDEST SWAP2 POP PUSH2 0x19DA DUP3 PUSH2 0x1973 JUMP JUMPDEST PUSH1 0x40 DUP3 ADD SWAP1 POP SWAP2 SWAP1 POP JUMP JUMPDEST PUSH1 0x0 PUSH1 0x20 DUP3 ADD SWAP1 POP DUP2 DUP2 SUB PUSH1 0x0 DUP4 ADD MSTORE PUSH2 0x19FE DUP2 PUSH2 0x19C2 JUMP JUMPDEST SWAP1 POP SWAP2 SWAP1 POP JUMP INVALID LOG2 PUSH5 0x6970667358 0x22 SLT KECCAK256 0xDD 0x22 0x4E RETURNDATACOPY PUSH11 0x583702470D5173C7CDBB5A ORIGIN 0xBC POP 0xEC 0xC3 RETURN CALLVALUE PUSH7 0xAF176BBF0F4441 0x4D PUSH5 0x736F6C6343 STOP ADDMOD SLT STOP CALLER "
				},
				"gasEstimates": {
					"creation": {
						"codeDepositCost": "1343000",
						"executionCost": "infinite",
						"totalCost": "infinite"
					},
					"external": {
						"_mint(address,uint256)": "infinite",
						"allowance(address,address)": "infinite",
						"approve(address,uint256)": "infinite",
						"balanceOf(address)": "2930",
						"checkGemAllowance(address,address)": "infinite",
						"checkGems()": "infinite",
						"checkGemsOf(address)": "infinite",
						"currentGemSupply()": "infinite",
						"decimals()": "366",
						"decreaseAllowance(address,uint256)": "infinite",
						"getGems()": "infinite",
						"giveGemApproval(address,uint256)": "infinite",
						"increaseAllowance(address,uint256)": "infinite",
						"mint(address,uint256)": "infinite",
						"name()": "infinite",
						"symbol()": "infinite",
						"totalSupply()": "2505",
						"transfer(address,uint256)": "infinite",
						"transferFrom(address,address,uint256)": "infinite",
						"transferGems(address,uint256)": "infinite",
						"transferGemsFrom(address,address,uint256)": "infinite"
					}
				},
				"methodIdentifiers": {
					"_mint(address,uint256)": "4e6ec247",
					"allowance(address,address)": "dd62ed3e",
					"approve(address,uint256)": "095ea7b3",
					"balanceOf(address)": "70a08231",
					"checkGemAllowance(address,address)": "9d900f95",
					"checkGems()": "5e1c86ce",
					"checkGemsOf(address)": "46ed2bcb",
					"currentGemSupply()": "9dcad2b6",
					"decimals()": "313ce567",
					"decreaseAllowance(address,uint256)": "a457c2d7",
					"getGems()": "42634f94",
					"giveGemApproval(address,uint256)": "6874aab9",
					"increaseAllowance(address,uint256)": "39509351",
					"mint(address,uint256)": "40c10f19",
					"name()": "06fdde03",
					"symbol()": "95d89b41",
					"totalSupply()": "18160ddd",
					"transfer(address,uint256)": "a9059cbb",
					"transferFrom(address,address,uint256)": "23b872dd",
					"transferGems(address,uint256)": "f09910e4",
					"transferGemsFrom(address,address,uint256)": "2a73ac1f"
				}
			},
			"storageLayout": {
				"storage": [
					{
						"astId": 15,
						"contract": "Documents/Documents/Y3S2/IS4302/is4302placeholdername/contracts/Gem.sol:Gem",
						"label": "_balances",
						"offset": 0,
						"slot": "0",
						"type": "t_mapping(t_address,t_uint256)"
					},
					{
						"astId": 21,
						"contract": "Documents/Documents/Y3S2/IS4302/is4302placeholdername/contracts/Gem.sol:Gem",
						"label": "_allowances",
						"offset": 0,
						"slot": "1",
						"type": "t_mapping(t_address,t_mapping(t_address,t_uint256))"
					},
					{
						"astId": 23,
						"contract": "Documents/Documents/Y3S2/IS4302/is4302placeholdername/contracts/Gem.sol:Gem",
						"label": "_totalSupply",
						"offset": 0,
						"slot": "2",
						"type": "t_uint256"
					},
					{
						"astId": 25,
						"contract": "Documents/Documents/Y3S2/IS4302/is4302placeholdername/contracts/Gem.sol:Gem",
						"label": "_name",
						"offset": 0,
						"slot": "3",
						"type": "t_string_storage"
					},
					{
						"astId": 27,
						"contract": "Documents/Documents/Y3S2/IS4302/is4302placeholdername/contracts/Gem.sol:Gem",
						"label": "_symbol",
						"offset": 0,
						"slot": "4",
						"type": "t_string_storage"
					},
					{
						"astId": 608,
						"contract": "Documents/Documents/Y3S2/IS4302/is4302placeholdername/contracts/Gem.sol:Gem",
						"label": "supplyLimit",
						"offset": 0,
						"slot": "5",
						"type": "t_uint256"
					},
					{
						"astId": 610,
						"contract": "Documents/Documents/Y3S2/IS4302/is4302placeholdername/contracts/Gem.sol:Gem",
						"label": "currentSupply",
						"offset": 0,
						"slot": "6",
						"type": "t_uint256"
					},
					{
						"astId": 612,
						"contract": "Documents/Documents/Y3S2/IS4302/is4302placeholdername/contracts/Gem.sol:Gem",
						"label": "owner",
						"offset": 0,
						"slot": "7",
						"type": "t_address"
					}
				],
				"types": {
					"t_address": {
						"encoding": "inplace",
						"label": "address",
						"numberOfBytes": "20"
					},
					"t_mapping(t_address,t_mapping(t_address,t_uint256))": {
						"encoding": "mapping",
						"key": "t_address",
						"label": "mapping(address => mapping(address => uint256))",
						"numberOfBytes": "32",
						"value": "t_mapping(t_address,t_uint256)"
					},
					"t_mapping(t_address,t_uint256)": {
						"encoding": "mapping",
						"key": "t_address",
						"label": "mapping(address => uint256)",
						"numberOfBytes": "32",
						"value": "t_uint256"
					},
					"t_string_storage": {
						"encoding": "bytes",
						"label": "string",
						"numberOfBytes": "32"
					},
					"t_uint256": {
						"encoding": "inplace",
						"label": "uint256",
						"numberOfBytes": "32"
					}
				}
			},
			"userdoc": {
				"kind": "user",
				"methods": {},
				"version": 1
			}
		}
	}
}