{
	"contracts/MMR.sol": {
		"MMR": {
			"abi": [
				{
					"inputs": [
						{
							"internalType": "address",
							"name": "user",
							"type": "address"
						}
					],
					"name": "getMMR",
					"outputs": [
						{
							"internalType": "uint256",
							"name": "",
							"type": "uint256"
						}
					],
					"stateMutability": "view",
					"type": "function"
				},
				{
					"inputs": [
						{
							"internalType": "address",
							"name": "user",
							"type": "address"
						}
					],
					"name": "initialiseUser",
					"outputs": [],
					"stateMutability": "nonpayable",
					"type": "function"
				},
				{
					"inputs": [
						{
							"internalType": "address",
							"name": "user",
							"type": "address"
						}
					],
					"name": "isNew",
					"outputs": [
						{
							"internalType": "bool",
							"name": "",
							"type": "bool"
						}
					],
					"stateMutability": "view",
					"type": "function"
				},
				{
					"inputs": [
						{
							"internalType": "address",
							"name": "winner",
							"type": "address"
						},
						{
							"internalType": "address",
							"name": "loser",
							"type": "address"
						}
					],
					"name": "updateMMR",
					"outputs": [],
					"stateMutability": "nonpayable",
					"type": "function"
				}
			],
			"devdoc": {
				"kind": "dev",
				"methods": {},
				"version": 1
			},
			"evm": {
				"assembly": "    /* \"contracts/MMR.sol\":57:1420  contract MMR {... */\n  mstore(0x40, 0x80)\n  callvalue\n  dup1\n  iszero\n  tag_1\n  jumpi\n  0x00\n  dup1\n  revert\ntag_1:\n  pop\n  dataSize(sub_0)\n  dup1\n  dataOffset(sub_0)\n  0x00\n  codecopy\n  0x00\n  return\nstop\n\nsub_0: assembly {\n        /* \"contracts/MMR.sol\":57:1420  contract MMR {... */\n      mstore(0x40, 0x80)\n      callvalue\n      dup1\n      iszero\n      tag_1\n      jumpi\n      0x00\n      dup1\n      revert\n    tag_1:\n      pop\n      jumpi(tag_2, lt(calldatasize, 0x04))\n      shr(0xe0, calldataload(0x00))\n      dup1\n      0x0639f3ce\n      eq\n      tag_3\n      jumpi\n      dup1\n      0x3f368279\n      eq\n      tag_4\n      jumpi\n      dup1\n      0xbee061f9\n      eq\n      tag_5\n      jumpi\n      dup1\n      0xf31defcb\n      eq\n      tag_6\n      jumpi\n    tag_2:\n      0x00\n      dup1\n      revert\n        /* \"contracts/MMR.sol\":130:231  function isNew(address user) public view returns (bool) {... */\n    tag_3:\n      tag_7\n      0x04\n      dup1\n      calldatasize\n      sub\n      dup2\n      add\n      swap1\n      tag_8\n      swap2\n      swap1\n      tag_9\n      jump\t// in\n    tag_8:\n      tag_10\n      jump\t// in\n    tag_7:\n      mload(0x40)\n      tag_11\n      swap2\n      swap1\n      tag_12\n      jump\t// in\n    tag_11:\n      mload(0x40)\n      dup1\n      swap2\n      sub\n      swap1\n      return\n        /* \"contracts/MMR.sol\":612:1418  function updateMMR(address winner, address loser) public {... */\n    tag_4:\n      tag_13\n      0x04\n      dup1\n      calldatasize\n      sub\n      dup2\n      add\n      swap1\n      tag_14\n      swap2\n      swap1\n      tag_15\n      jump\t// in\n    tag_14:\n      tag_16\n      jump\t// in\n    tag_13:\n      stop\n        /* \"contracts/MMR.sol\":451:551  function getMMR(address user) public view returns (uint256) {... */\n    tag_5:\n      tag_17\n      0x04\n      dup1\n      calldatasize\n      sub\n      dup2\n      add\n      swap1\n      tag_18\n      swap2\n      swap1\n      tag_9\n      jump\t// in\n    tag_18:\n      tag_19\n      jump\t// in\n    tag_17:\n      mload(0x40)\n      tag_20\n      swap2\n      swap1\n      tag_21\n      jump\t// in\n    tag_20:\n      mload(0x40)\n      dup1\n      swap2\n      sub\n      swap1\n      return\n        /* \"contracts/MMR.sol\":237:371  function initialiseUser(address user) public {... */\n    tag_6:\n      tag_22\n      0x04\n      dup1\n      calldatasize\n      sub\n      dup2\n      add\n      swap1\n      tag_23\n      swap2\n      swap1\n      tag_9\n      jump\t// in\n    tag_23:\n      tag_24\n      jump\t// in\n    tag_22:\n      stop\n        /* \"contracts/MMR.sol\":130:231  function isNew(address user) public view returns (bool) {... */\n    tag_10:\n        /* \"contracts/MMR.sol\":180:184  bool */\n      0x00\n        /* \"contracts/MMR.sol\":223:224  0 */\n      dup1\n        /* \"contracts/MMR.sol\":203:213  _playerMMR */\n      0x00\n        /* \"contracts/MMR.sol\":203:219  _playerMMR[user] */\n      dup1\n        /* \"contracts/MMR.sol\":214:218  user */\n      dup5\n        /* \"contracts/MMR.sol\":203:219  _playerMMR[user] */\n      0xffffffffffffffffffffffffffffffffffffffff\n      and\n      0xffffffffffffffffffffffffffffffffffffffff\n      and\n      dup2\n      mstore\n      0x20\n      add\n      swap1\n      dup2\n      mstore\n      0x20\n      add\n      0x00\n      keccak256\n      sload\n        /* \"contracts/MMR.sol\":203:224  _playerMMR[user] == 0 */\n      eq\n        /* \"contracts/MMR.sol\":196:224  return _playerMMR[user] == 0 */\n      swap1\n      pop\n        /* \"contracts/MMR.sol\":130:231  function isNew(address user) public view returns (bool) {... */\n      swap2\n      swap1\n      pop\n      jump\t// out\n        /* \"contracts/MMR.sol\":612:1418  function updateMMR(address winner, address loser) public {... */\n    tag_16:\n        /* \"contracts/MMR.sol\":679:696  uint256 winnerMMR */\n      0x00\n        /* \"contracts/MMR.sol\":699:709  _playerMMR */\n      dup1\n        /* \"contracts/MMR.sol\":699:717  _playerMMR[winner] */\n      0x00\n        /* \"contracts/MMR.sol\":710:716  winner */\n      dup5\n        /* \"contracts/MMR.sol\":699:717  _playerMMR[winner] */\n      0xffffffffffffffffffffffffffffffffffffffff\n      and\n      0xffffffffffffffffffffffffffffffffffffffff\n      and\n      dup2\n      mstore\n      0x20\n      add\n      swap1\n      dup2\n      mstore\n      0x20\n      add\n      0x00\n      keccak256\n      sload\n        /* \"contracts/MMR.sol\":679:717  uint256 winnerMMR = _playerMMR[winner] */\n      swap1\n      pop\n        /* \"contracts/MMR.sol\":727:743  uint256 loserMMR */\n      0x00\n        /* \"contracts/MMR.sol\":746:756  _playerMMR */\n      dup1\n        /* \"contracts/MMR.sol\":746:763  _playerMMR[loser] */\n      0x00\n        /* \"contracts/MMR.sol\":757:762  loser */\n      dup5\n        /* \"contracts/MMR.sol\":746:763  _playerMMR[loser] */\n      0xffffffffffffffffffffffffffffffffffffffff\n      and\n      0xffffffffffffffffffffffffffffffffffffffff\n      and\n      dup2\n      mstore\n      0x20\n      add\n      swap1\n      dup2\n      mstore\n      0x20\n      add\n      0x00\n      keccak256\n      sload\n        /* \"contracts/MMR.sol\":727:763  uint256 loserMMR = _playerMMR[loser] */\n      swap1\n      pop\n        /* \"contracts/MMR.sol\":773:785  uint256 diff */\n      0x00\n        /* \"contracts/MMR.sol\":800:808  loserMMR */\n      dup2\n        /* \"contracts/MMR.sol\":788:797  winnerMMR */\n      dup4\n        /* \"contracts/MMR.sol\":788:808  winnerMMR - loserMMR */\n      tag_27\n      swap2\n      swap1\n      tag_28\n      jump\t// in\n    tag_27:\n        /* \"contracts/MMR.sol\":773:808  uint256 diff = winnerMMR - loserMMR */\n      swap1\n      pop\n        /* \"contracts/MMR.sol\":818:832  uint256 change */\n      0x00\n        /* \"contracts/MMR.sol\":835:837  10 */\n      0x0a\n        /* \"contracts/MMR.sol\":818:837  uint256 change = 10 */\n      swap1\n      pop\n        /* \"contracts/MMR.sol\":858:859  0 */\n      0x00\n        /* \"contracts/MMR.sol\":851:855  diff */\n      dup3\n        /* \"contracts/MMR.sol\":851:859  diff > 0 */\n      gt\n        /* \"contracts/MMR.sol\":847:1156  if (diff > 0) {... */\n      iszero\n      tag_29\n      jumpi\n        /* \"contracts/MMR.sol\":986:987  5 */\n      0x05\n        /* \"contracts/MMR.sol\":977:987  change = 5 */\n      swap1\n      pop\n        /* \"contracts/MMR.sol\":847:1156  if (diff > 0) {... */\n      jump(tag_30)\n    tag_29:\n        /* \"contracts/MMR.sol\":1016:1017  0 */\n      0x00\n        /* \"contracts/MMR.sol\":1009:1013  diff */\n      dup3\n        /* \"contracts/MMR.sol\":1009:1017  diff < 0 */\n      lt\n        /* \"contracts/MMR.sol\":1005:1156  if (diff < 0) {... */\n      iszero\n      tag_31\n      jumpi\n        /* \"contracts/MMR.sol\":1143:1145  15 */\n      0x0f\n        /* \"contracts/MMR.sol\":1134:1145  change = 15 */\n      swap1\n      pop\n        /* \"contracts/MMR.sol\":1005:1156  if (diff < 0) {... */\n    tag_31:\n        /* \"contracts/MMR.sol\":847:1156  if (diff > 0) {... */\n    tag_30:\n        /* \"contracts/MMR.sol\":1180:1188  loserMMR */\n      dup3\n        /* \"contracts/MMR.sol\":1170:1176  change */\n      dup2\n        /* \"contracts/MMR.sol\":1170:1188  change >= loserMMR */\n      lt\n        /* \"contracts/MMR.sol\":1166:1412  if (change >= loserMMR) {... */\n      tag_32\n      jumpi\n        /* \"contracts/MMR.sol\":1226:1232  change */\n      dup1\n        /* \"contracts/MMR.sol\":1204:1214  _playerMMR */\n      0x00\n        /* \"contracts/MMR.sol\":1204:1222  _playerMMR[winner] */\n      dup1\n        /* \"contracts/MMR.sol\":1215:1221  winner */\n      dup9\n        /* \"contracts/MMR.sol\":1204:1222  _playerMMR[winner] */\n      0xffffffffffffffffffffffffffffffffffffffff\n      and\n      0xffffffffffffffffffffffffffffffffffffffff\n      and\n      dup2\n      mstore\n      0x20\n      add\n      swap1\n      dup2\n      mstore\n      0x20\n      add\n      0x00\n      keccak256\n      0x00\n        /* \"contracts/MMR.sol\":1204:1232  _playerMMR[winner] += change */\n      dup3\n      dup3\n      sload\n      tag_33\n      swap2\n      swap1\n      tag_34\n      jump\t// in\n    tag_33:\n      swap3\n      pop\n      pop\n      dup2\n      swap1\n      sstore\n      pop\n        /* \"contracts/MMR.sol\":1266:1267  1 */\n      0x01\n        /* \"contracts/MMR.sol\":1246:1256  _playerMMR */\n      0x00\n        /* \"contracts/MMR.sol\":1246:1263  _playerMMR[loser] */\n      dup1\n        /* \"contracts/MMR.sol\":1257:1262  loser */\n      dup8\n        /* \"contracts/MMR.sol\":1246:1263  _playerMMR[loser] */\n      0xffffffffffffffffffffffffffffffffffffffff\n      and\n      0xffffffffffffffffffffffffffffffffffffffff\n      and\n      dup2\n      mstore\n      0x20\n      add\n      swap1\n      dup2\n      mstore\n      0x20\n      add\n      0x00\n      keccak256\n        /* \"contracts/MMR.sol\":1246:1267  _playerMMR[loser] = 1 */\n      dup2\n      swap1\n      sstore\n      pop\n        /* \"contracts/MMR.sol\":1166:1412  if (change >= loserMMR) {... */\n      jump(tag_35)\n    tag_32:\n        /* \"contracts/MMR.sol\":1354:1360  change */\n      dup1\n        /* \"contracts/MMR.sol\":1332:1342  _playerMMR */\n      0x00\n        /* \"contracts/MMR.sol\":1332:1350  _playerMMR[winner] */\n      dup1\n        /* \"contracts/MMR.sol\":1343:1349  winner */\n      dup9\n        /* \"contracts/MMR.sol\":1332:1350  _playerMMR[winner] */\n      0xffffffffffffffffffffffffffffffffffffffff\n      and\n      0xffffffffffffffffffffffffffffffffffffffff\n      and\n      dup2\n      mstore\n      0x20\n      add\n      swap1\n      dup2\n      mstore\n      0x20\n      add\n      0x00\n      keccak256\n      0x00\n        /* \"contracts/MMR.sol\":1332:1360  _playerMMR[winner] += change */\n      dup3\n      dup3\n      sload\n      tag_36\n      swap2\n      swap1\n      tag_34\n      jump\t// in\n    tag_36:\n      swap3\n      pop\n      pop\n      dup2\n      swap1\n      sstore\n      pop\n        /* \"contracts/MMR.sol\":1395:1401  change */\n      dup1\n        /* \"contracts/MMR.sol\":1374:1384  _playerMMR */\n      0x00\n        /* \"contracts/MMR.sol\":1374:1391  _playerMMR[loser] */\n      dup1\n        /* \"contracts/MMR.sol\":1385:1390  loser */\n      dup8\n        /* \"contracts/MMR.sol\":1374:1391  _playerMMR[loser] */\n      0xffffffffffffffffffffffffffffffffffffffff\n      and\n      0xffffffffffffffffffffffffffffffffffffffff\n      and\n      dup2\n      mstore\n      0x20\n      add\n      swap1\n      dup2\n      mstore\n      0x20\n      add\n      0x00\n      keccak256\n      0x00\n        /* \"contracts/MMR.sol\":1374:1401  _playerMMR[loser] -= change */\n      dup3\n      dup3\n      sload\n      tag_37\n      swap2\n      swap1\n      tag_28\n      jump\t// in\n    tag_37:\n      swap3\n      pop\n      pop\n      dup2\n      swap1\n      sstore\n      pop\n        /* \"contracts/MMR.sol\":1166:1412  if (change >= loserMMR) {... */\n    tag_35:\n        /* \"contracts/MMR.sol\":669:1418  {... */\n      pop\n      pop\n      pop\n      pop\n        /* \"contracts/MMR.sol\":612:1418  function updateMMR(address winner, address loser) public {... */\n      pop\n      pop\n      jump\t// out\n        /* \"contracts/MMR.sol\":451:551  function getMMR(address user) public view returns (uint256) {... */\n    tag_19:\n        /* \"contracts/MMR.sol\":502:509  uint256 */\n      0x00\n        /* \"contracts/MMR.sol\":528:538  _playerMMR */\n      dup1\n        /* \"contracts/MMR.sol\":528:544  _playerMMR[user] */\n      0x00\n        /* \"contracts/MMR.sol\":539:543  user */\n      dup4\n        /* \"contracts/MMR.sol\":528:544  _playerMMR[user] */\n      0xffffffffffffffffffffffffffffffffffffffff\n      and\n      0xffffffffffffffffffffffffffffffffffffffff\n      and\n      dup2\n      mstore\n      0x20\n      add\n      swap1\n      dup2\n      mstore\n      0x20\n      add\n      0x00\n      keccak256\n      sload\n        /* \"contracts/MMR.sol\":521:544  return _playerMMR[user] */\n      swap1\n      pop\n        /* \"contracts/MMR.sol\":451:551  function getMMR(address user) public view returns (uint256) {... */\n      swap2\n      swap1\n      pop\n      jump\t// out\n        /* \"contracts/MMR.sol\":237:371  function initialiseUser(address user) public {... */\n    tag_24:\n        /* \"contracts/MMR.sol\":315:316  0 */\n      0x00\n        /* \"contracts/MMR.sol\":295:305  _playerMMR */\n      dup1\n        /* \"contracts/MMR.sol\":295:311  _playerMMR[user] */\n      0x00\n        /* \"contracts/MMR.sol\":306:310  user */\n      dup4\n        /* \"contracts/MMR.sol\":295:311  _playerMMR[user] */\n      0xffffffffffffffffffffffffffffffffffffffff\n      and\n      0xffffffffffffffffffffffffffffffffffffffff\n      and\n      dup2\n      mstore\n      0x20\n      add\n      swap1\n      dup2\n      mstore\n      0x20\n      add\n      0x00\n      keccak256\n      sload\n        /* \"contracts/MMR.sol\":295:316  _playerMMR[user] == 0 */\n      sub\n        /* \"contracts/MMR.sol\":292:365  if(_playerMMR[user] == 0) {... */\n      tag_40\n      jumpi\n        /* \"contracts/MMR.sol\":351:354  100 */\n      0x64\n        /* \"contracts/MMR.sol\":332:342  _playerMMR */\n      0x00\n        /* \"contracts/MMR.sol\":332:348  _playerMMR[user] */\n      dup1\n        /* \"contracts/MMR.sol\":343:347  user */\n      dup4\n        /* \"contracts/MMR.sol\":332:348  _playerMMR[user] */\n      0xffffffffffffffffffffffffffffffffffffffff\n      and\n      0xffffffffffffffffffffffffffffffffffffffff\n      and\n      dup2\n      mstore\n      0x20\n      add\n      swap1\n      dup2\n      mstore\n      0x20\n      add\n      0x00\n      keccak256\n        /* \"contracts/MMR.sol\":332:354  _playerMMR[user] = 100 */\n      dup2\n      swap1\n      sstore\n      pop\n        /* \"contracts/MMR.sol\":292:365  if(_playerMMR[user] == 0) {... */\n    tag_40:\n        /* \"contracts/MMR.sol\":237:371  function initialiseUser(address user) public {... */\n      pop\n      jump\t// out\n        /* \"#utility.yul\":88:205   */\n    tag_42:\n        /* \"#utility.yul\":197:198   */\n      0x00\n        /* \"#utility.yul\":194:195   */\n      dup1\n        /* \"#utility.yul\":187:199   */\n      revert\n        /* \"#utility.yul\":334:460   */\n    tag_44:\n        /* \"#utility.yul\":371:378   */\n      0x00\n        /* \"#utility.yul\":411:453   */\n      0xffffffffffffffffffffffffffffffffffffffff\n        /* \"#utility.yul\":404:409   */\n      dup3\n        /* \"#utility.yul\":400:454   */\n      and\n        /* \"#utility.yul\":389:454   */\n      swap1\n      pop\n        /* \"#utility.yul\":334:460   */\n      swap2\n      swap1\n      pop\n      jump\t// out\n        /* \"#utility.yul\":466:562   */\n    tag_45:\n        /* \"#utility.yul\":503:510   */\n      0x00\n        /* \"#utility.yul\":532:556   */\n      tag_59\n        /* \"#utility.yul\":550:555   */\n      dup3\n        /* \"#utility.yul\":532:556   */\n      tag_44\n      jump\t// in\n    tag_59:\n        /* \"#utility.yul\":521:556   */\n      swap1\n      pop\n        /* \"#utility.yul\":466:562   */\n      swap2\n      swap1\n      pop\n      jump\t// out\n        /* \"#utility.yul\":568:690   */\n    tag_46:\n        /* \"#utility.yul\":641:665   */\n      tag_61\n        /* \"#utility.yul\":659:664   */\n      dup2\n        /* \"#utility.yul\":641:665   */\n      tag_45\n      jump\t// in\n    tag_61:\n        /* \"#utility.yul\":634:639   */\n      dup2\n        /* \"#utility.yul\":631:666   */\n      eq\n        /* \"#utility.yul\":621:684   */\n      tag_62\n      jumpi\n        /* \"#utility.yul\":680:681   */\n      0x00\n        /* \"#utility.yul\":677:678   */\n      dup1\n        /* \"#utility.yul\":670:682   */\n      revert\n        /* \"#utility.yul\":621:684   */\n    tag_62:\n        /* \"#utility.yul\":568:690   */\n      pop\n      jump\t// out\n        /* \"#utility.yul\":696:835   */\n    tag_47:\n        /* \"#utility.yul\":742:747   */\n      0x00\n        /* \"#utility.yul\":780:786   */\n      dup2\n        /* \"#utility.yul\":767:787   */\n      calldataload\n        /* \"#utility.yul\":758:787   */\n      swap1\n      pop\n        /* \"#utility.yul\":796:829   */\n      tag_64\n        /* \"#utility.yul\":823:828   */\n      dup2\n        /* \"#utility.yul\":796:829   */\n      tag_46\n      jump\t// in\n    tag_64:\n        /* \"#utility.yul\":696:835   */\n      swap3\n      swap2\n      pop\n      pop\n      jump\t// out\n        /* \"#utility.yul\":841:1170   */\n    tag_9:\n        /* \"#utility.yul\":900:906   */\n      0x00\n        /* \"#utility.yul\":949:951   */\n      0x20\n        /* \"#utility.yul\":937:946   */\n      dup3\n        /* \"#utility.yul\":928:935   */\n      dup5\n        /* \"#utility.yul\":924:947   */\n      sub\n        /* \"#utility.yul\":920:952   */\n      slt\n        /* \"#utility.yul\":917:1036   */\n      iszero\n      tag_66\n      jumpi\n        /* \"#utility.yul\":955:1034   */\n      tag_67\n      tag_42\n      jump\t// in\n    tag_67:\n        /* \"#utility.yul\":917:1036   */\n    tag_66:\n        /* \"#utility.yul\":1075:1076   */\n      0x00\n        /* \"#utility.yul\":1100:1153   */\n      tag_68\n        /* \"#utility.yul\":1145:1152   */\n      dup5\n        /* \"#utility.yul\":1136:1142   */\n      dup3\n        /* \"#utility.yul\":1125:1134   */\n      dup6\n        /* \"#utility.yul\":1121:1143   */\n      add\n        /* \"#utility.yul\":1100:1153   */\n      tag_47\n      jump\t// in\n    tag_68:\n        /* \"#utility.yul\":1090:1153   */\n      swap2\n      pop\n        /* \"#utility.yul\":1046:1163   */\n      pop\n        /* \"#utility.yul\":841:1170   */\n      swap3\n      swap2\n      pop\n      pop\n      jump\t// out\n        /* \"#utility.yul\":1176:1266   */\n    tag_48:\n        /* \"#utility.yul\":1210:1217   */\n      0x00\n        /* \"#utility.yul\":1253:1258   */\n      dup2\n        /* \"#utility.yul\":1246:1259   */\n      iszero\n        /* \"#utility.yul\":1239:1260   */\n      iszero\n        /* \"#utility.yul\":1228:1260   */\n      swap1\n      pop\n        /* \"#utility.yul\":1176:1266   */\n      swap2\n      swap1\n      pop\n      jump\t// out\n        /* \"#utility.yul\":1272:1381   */\n    tag_49:\n        /* \"#utility.yul\":1353:1374   */\n      tag_71\n        /* \"#utility.yul\":1368:1373   */\n      dup2\n        /* \"#utility.yul\":1353:1374   */\n      tag_48\n      jump\t// in\n    tag_71:\n        /* \"#utility.yul\":1348:1351   */\n      dup3\n        /* \"#utility.yul\":1341:1375   */\n      mstore\n        /* \"#utility.yul\":1272:1381   */\n      pop\n      pop\n      jump\t// out\n        /* \"#utility.yul\":1387:1597   */\n    tag_12:\n        /* \"#utility.yul\":1474:1478   */\n      0x00\n        /* \"#utility.yul\":1512:1514   */\n      0x20\n        /* \"#utility.yul\":1501:1510   */\n      dup3\n        /* \"#utility.yul\":1497:1515   */\n      add\n        /* \"#utility.yul\":1489:1515   */\n      swap1\n      pop\n        /* \"#utility.yul\":1525:1590   */\n      tag_73\n        /* \"#utility.yul\":1587:1588   */\n      0x00\n        /* \"#utility.yul\":1576:1585   */\n      dup4\n        /* \"#utility.yul\":1572:1589   */\n      add\n        /* \"#utility.yul\":1563:1569   */\n      dup5\n        /* \"#utility.yul\":1525:1590   */\n      tag_49\n      jump\t// in\n    tag_73:\n        /* \"#utility.yul\":1387:1597   */\n      swap3\n      swap2\n      pop\n      pop\n      jump\t// out\n        /* \"#utility.yul\":1603:2077   */\n    tag_15:\n        /* \"#utility.yul\":1671:1677   */\n      0x00\n        /* \"#utility.yul\":1679:1685   */\n      dup1\n        /* \"#utility.yul\":1728:1730   */\n      0x40\n        /* \"#utility.yul\":1716:1725   */\n      dup4\n        /* \"#utility.yul\":1707:1714   */\n      dup6\n        /* \"#utility.yul\":1703:1726   */\n      sub\n        /* \"#utility.yul\":1699:1731   */\n      slt\n        /* \"#utility.yul\":1696:1815   */\n      iszero\n      tag_75\n      jumpi\n        /* \"#utility.yul\":1734:1813   */\n      tag_76\n      tag_42\n      jump\t// in\n    tag_76:\n        /* \"#utility.yul\":1696:1815   */\n    tag_75:\n        /* \"#utility.yul\":1854:1855   */\n      0x00\n        /* \"#utility.yul\":1879:1932   */\n      tag_77\n        /* \"#utility.yul\":1924:1931   */\n      dup6\n        /* \"#utility.yul\":1915:1921   */\n      dup3\n        /* \"#utility.yul\":1904:1913   */\n      dup7\n        /* \"#utility.yul\":1900:1922   */\n      add\n        /* \"#utility.yul\":1879:1932   */\n      tag_47\n      jump\t// in\n    tag_77:\n        /* \"#utility.yul\":1869:1932   */\n      swap3\n      pop\n        /* \"#utility.yul\":1825:1942   */\n      pop\n        /* \"#utility.yul\":1981:1983   */\n      0x20\n        /* \"#utility.yul\":2007:2060   */\n      tag_78\n        /* \"#utility.yul\":2052:2059   */\n      dup6\n        /* \"#utility.yul\":2043:2049   */\n      dup3\n        /* \"#utility.yul\":2032:2041   */\n      dup7\n        /* \"#utility.yul\":2028:2050   */\n      add\n        /* \"#utility.yul\":2007:2060   */\n      tag_47\n      jump\t// in\n    tag_78:\n        /* \"#utility.yul\":1997:2060   */\n      swap2\n      pop\n        /* \"#utility.yul\":1952:2070   */\n      pop\n        /* \"#utility.yul\":1603:2077   */\n      swap3\n      pop\n      swap3\n      swap1\n      pop\n      jump\t// out\n        /* \"#utility.yul\":2083:2160   */\n    tag_50:\n        /* \"#utility.yul\":2120:2127   */\n      0x00\n        /* \"#utility.yul\":2149:2154   */\n      dup2\n        /* \"#utility.yul\":2138:2154   */\n      swap1\n      pop\n        /* \"#utility.yul\":2083:2160   */\n      swap2\n      swap1\n      pop\n      jump\t// out\n        /* \"#utility.yul\":2166:2284   */\n    tag_51:\n        /* \"#utility.yul\":2253:2277   */\n      tag_81\n        /* \"#utility.yul\":2271:2276   */\n      dup2\n        /* \"#utility.yul\":2253:2277   */\n      tag_50\n      jump\t// in\n    tag_81:\n        /* \"#utility.yul\":2248:2251   */\n      dup3\n        /* \"#utility.yul\":2241:2278   */\n      mstore\n        /* \"#utility.yul\":2166:2284   */\n      pop\n      pop\n      jump\t// out\n        /* \"#utility.yul\":2290:2512   */\n    tag_21:\n        /* \"#utility.yul\":2383:2387   */\n      0x00\n        /* \"#utility.yul\":2421:2423   */\n      0x20\n        /* \"#utility.yul\":2410:2419   */\n      dup3\n        /* \"#utility.yul\":2406:2424   */\n      add\n        /* \"#utility.yul\":2398:2424   */\n      swap1\n      pop\n        /* \"#utility.yul\":2434:2505   */\n      tag_83\n        /* \"#utility.yul\":2502:2503   */\n      0x00\n        /* \"#utility.yul\":2491:2500   */\n      dup4\n        /* \"#utility.yul\":2487:2504   */\n      add\n        /* \"#utility.yul\":2478:2484   */\n      dup5\n        /* \"#utility.yul\":2434:2505   */\n      tag_51\n      jump\t// in\n    tag_83:\n        /* \"#utility.yul\":2290:2512   */\n      swap3\n      swap2\n      pop\n      pop\n      jump\t// out\n        /* \"#utility.yul\":2518:2698   */\n    tag_52:\n        /* \"#utility.yul\":2566:2643   */\n      0x4e487b7100000000000000000000000000000000000000000000000000000000\n        /* \"#utility.yul\":2563:2564   */\n      0x00\n        /* \"#utility.yul\":2556:2644   */\n      mstore\n        /* \"#utility.yul\":2663:2667   */\n      0x11\n        /* \"#utility.yul\":2660:2661   */\n      0x04\n        /* \"#utility.yul\":2653:2668   */\n      mstore\n        /* \"#utility.yul\":2687:2691   */\n      0x24\n        /* \"#utility.yul\":2684:2685   */\n      0x00\n        /* \"#utility.yul\":2677:2692   */\n      revert\n        /* \"#utility.yul\":2704:2898   */\n    tag_28:\n        /* \"#utility.yul\":2744:2748   */\n      0x00\n        /* \"#utility.yul\":2764:2784   */\n      tag_86\n        /* \"#utility.yul\":2782:2783   */\n      dup3\n        /* \"#utility.yul\":2764:2784   */\n      tag_50\n      jump\t// in\n    tag_86:\n        /* \"#utility.yul\":2759:2784   */\n      swap2\n      pop\n        /* \"#utility.yul\":2798:2818   */\n      tag_87\n        /* \"#utility.yul\":2816:2817   */\n      dup4\n        /* \"#utility.yul\":2798:2818   */\n      tag_50\n      jump\t// in\n    tag_87:\n        /* \"#utility.yul\":2793:2818   */\n      swap3\n      pop\n        /* \"#utility.yul\":2842:2843   */\n      dup3\n        /* \"#utility.yul\":2839:2840   */\n      dup3\n        /* \"#utility.yul\":2835:2844   */\n      sub\n        /* \"#utility.yul\":2827:2844   */\n      swap1\n      pop\n        /* \"#utility.yul\":2866:2867   */\n      dup2\n        /* \"#utility.yul\":2860:2864   */\n      dup2\n        /* \"#utility.yul\":2857:2868   */\n      gt\n        /* \"#utility.yul\":2854:2891   */\n      iszero\n      tag_88\n      jumpi\n        /* \"#utility.yul\":2871:2889   */\n      tag_89\n      tag_52\n      jump\t// in\n    tag_89:\n        /* \"#utility.yul\":2854:2891   */\n    tag_88:\n        /* \"#utility.yul\":2704:2898   */\n      swap3\n      swap2\n      pop\n      pop\n      jump\t// out\n        /* \"#utility.yul\":2904:3095   */\n    tag_34:\n        /* \"#utility.yul\":2944:2947   */\n      0x00\n        /* \"#utility.yul\":2963:2983   */\n      tag_91\n        /* \"#utility.yul\":2981:2982   */\n      dup3\n        /* \"#utility.yul\":2963:2983   */\n      tag_50\n      jump\t// in\n    tag_91:\n        /* \"#utility.yul\":2958:2983   */\n      swap2\n      pop\n        /* \"#utility.yul\":2997:3017   */\n      tag_92\n        /* \"#utility.yul\":3015:3016   */\n      dup4\n        /* \"#utility.yul\":2997:3017   */\n      tag_50\n      jump\t// in\n    tag_92:\n        /* \"#utility.yul\":2992:3017   */\n      swap3\n      pop\n        /* \"#utility.yul\":3040:3041   */\n      dup3\n        /* \"#utility.yul\":3037:3038   */\n      dup3\n        /* \"#utility.yul\":3033:3042   */\n      add\n        /* \"#utility.yul\":3026:3042   */\n      swap1\n      pop\n        /* \"#utility.yul\":3061:3064   */\n      dup1\n        /* \"#utility.yul\":3058:3059   */\n      dup3\n        /* \"#utility.yul\":3055:3065   */\n      gt\n        /* \"#utility.yul\":3052:3088   */\n      iszero\n      tag_93\n      jumpi\n        /* \"#utility.yul\":3068:3086   */\n      tag_94\n      tag_52\n      jump\t// in\n    tag_94:\n        /* \"#utility.yul\":3052:3088   */\n    tag_93:\n        /* \"#utility.yul\":2904:3095   */\n      swap3\n      swap2\n      pop\n      pop\n      jump\t// out\n\n    auxdata: 0xa2646970667358221220273359ee11ae58329e7205255b0575cb32a6a956ed3a7794a6699d0a49b51e3f64736f6c63430008130033\n}\n",
				"bytecode": {
					"linkReferences": {},
					"object": "608060405234801561001057600080fd5b50610625806100206000396000f3fe608060405234801561001057600080fd5b506004361061004c5760003560e01c80630639f3ce146100515780633f36827914610081578063bee061f91461009d578063f31defcb146100cd575b600080fd5b61006b60048036038101906100669190610481565b6100e9565b60405161007891906104c9565b60405180910390f35b61009b600480360381019061009691906104e4565b610133565b005b6100b760048036038101906100b29190610481565b610348565b6040516100c4919061053d565b60405180910390f35b6100e760048036038101906100e29190610481565b610390565b005b6000806000808473ffffffffffffffffffffffffffffffffffffffff1673ffffffffffffffffffffffffffffffffffffffff16815260200190815260200160002054149050919050565b60008060008473ffffffffffffffffffffffffffffffffffffffff1673ffffffffffffffffffffffffffffffffffffffff16815260200190815260200160002054905060008060008473ffffffffffffffffffffffffffffffffffffffff1673ffffffffffffffffffffffffffffffffffffffff168152602001908152602001600020549050600081836101c79190610587565b90506000600a905060008211156101e157600590506101f0565b60008210156101ef57600f90505b5b82811061029557806000808873ffffffffffffffffffffffffffffffffffffffff1673ffffffffffffffffffffffffffffffffffffffff168152602001908152602001600020600082825461024591906105bb565b9250508190555060016000808773ffffffffffffffffffffffffffffffffffffffff1673ffffffffffffffffffffffffffffffffffffffff16815260200190815260200160002081905550610340565b806000808873ffffffffffffffffffffffffffffffffffffffff1673ffffffffffffffffffffffffffffffffffffffff16815260200190815260200160002060008282546102e391906105bb565b92505081905550806000808773ffffffffffffffffffffffffffffffffffffffff1673ffffffffffffffffffffffffffffffffffffffff16815260200190815260200160002060008282546103389190610587565b925050819055505b505050505050565b60008060008373ffffffffffffffffffffffffffffffffffffffff1673ffffffffffffffffffffffffffffffffffffffff168152602001908152602001600020549050919050565b60008060008373ffffffffffffffffffffffffffffffffffffffff1673ffffffffffffffffffffffffffffffffffffffff168152602001908152602001600020540361041b5760646000808373ffffffffffffffffffffffffffffffffffffffff1673ffffffffffffffffffffffffffffffffffffffff168152602001908152602001600020819055505b50565b600080fd5b600073ffffffffffffffffffffffffffffffffffffffff82169050919050565b600061044e82610423565b9050919050565b61045e81610443565b811461046957600080fd5b50565b60008135905061047b81610455565b92915050565b6000602082840312156104975761049661041e565b5b60006104a58482850161046c565b91505092915050565b60008115159050919050565b6104c3816104ae565b82525050565b60006020820190506104de60008301846104ba565b92915050565b600080604083850312156104fb576104fa61041e565b5b60006105098582860161046c565b925050602061051a8582860161046c565b9150509250929050565b6000819050919050565b61053781610524565b82525050565b6000602082019050610552600083018461052e565b92915050565b7f4e487b7100000000000000000000000000000000000000000000000000000000600052601160045260246000fd5b600061059282610524565b915061059d83610524565b92508282039050818111156105b5576105b4610558565b5b92915050565b60006105c682610524565b91506105d183610524565b92508282019050808211156105e9576105e8610558565b5b9291505056fea2646970667358221220273359ee11ae58329e7205255b0575cb32a6a956ed3a7794a6699d0a49b51e3f64736f6c63430008130033",
					"opcodes": "PUSH1 0x80 PUSH1 0x40 MSTORE CALLVALUE DUP1 ISZERO PUSH2 0x10 JUMPI PUSH1 0x0 DUP1 REVERT JUMPDEST POP PUSH2 0x625 DUP1 PUSH2 0x20 PUSH1 0x0 CODECOPY PUSH1 0x0 RETURN INVALID PUSH1 0x80 PUSH1 0x40 MSTORE CALLVALUE DUP1 ISZERO PUSH2 0x10 JUMPI PUSH1 0x0 DUP1 REVERT JUMPDEST POP PUSH1 0x4 CALLDATASIZE LT PUSH2 0x4C JUMPI PUSH1 0x0 CALLDATALOAD PUSH1 0xE0 SHR DUP1 PUSH4 0x639F3CE EQ PUSH2 0x51 JUMPI DUP1 PUSH4 0x3F368279 EQ PUSH2 0x81 JUMPI DUP1 PUSH4 0xBEE061F9 EQ PUSH2 0x9D JUMPI DUP1 PUSH4 0xF31DEFCB EQ PUSH2 0xCD JUMPI JUMPDEST PUSH1 0x0 DUP1 REVERT JUMPDEST PUSH2 0x6B PUSH1 0x4 DUP1 CALLDATASIZE SUB DUP2 ADD SWAP1 PUSH2 0x66 SWAP2 SWAP1 PUSH2 0x481 JUMP JUMPDEST PUSH2 0xE9 JUMP JUMPDEST PUSH1 0x40 MLOAD PUSH2 0x78 SWAP2 SWAP1 PUSH2 0x4C9 JUMP JUMPDEST PUSH1 0x40 MLOAD DUP1 SWAP2 SUB SWAP1 RETURN JUMPDEST PUSH2 0x9B PUSH1 0x4 DUP1 CALLDATASIZE SUB DUP2 ADD SWAP1 PUSH2 0x96 SWAP2 SWAP1 PUSH2 0x4E4 JUMP JUMPDEST PUSH2 0x133 JUMP JUMPDEST STOP JUMPDEST PUSH2 0xB7 PUSH1 0x4 DUP1 CALLDATASIZE SUB DUP2 ADD SWAP1 PUSH2 0xB2 SWAP2 SWAP1 PUSH2 0x481 JUMP JUMPDEST PUSH2 0x348 JUMP JUMPDEST PUSH1 0x40 MLOAD PUSH2 0xC4 SWAP2 SWAP1 PUSH2 0x53D JUMP JUMPDEST PUSH1 0x40 MLOAD DUP1 SWAP2 SUB SWAP1 RETURN JUMPDEST PUSH2 0xE7 PUSH1 0x4 DUP1 CALLDATASIZE SUB DUP2 ADD SWAP1 PUSH2 0xE2 SWAP2 SWAP1 PUSH2 0x481 JUMP JUMPDEST PUSH2 0x390 JUMP JUMPDEST STOP JUMPDEST PUSH1 0x0 DUP1 PUSH1 0x0 DUP1 DUP5 PUSH20 0xFFFFFFFFFFFFFFFFFFFFFFFFFFFFFFFFFFFFFFFF AND PUSH20 0xFFFFFFFFFFFFFFFFFFFFFFFFFFFFFFFFFFFFFFFF AND DUP2 MSTORE PUSH1 0x20 ADD SWAP1 DUP2 MSTORE PUSH1 0x20 ADD PUSH1 0x0 KECCAK256 SLOAD EQ SWAP1 POP SWAP2 SWAP1 POP JUMP JUMPDEST PUSH1 0x0 DUP1 PUSH1 0x0 DUP5 PUSH20 0xFFFFFFFFFFFFFFFFFFFFFFFFFFFFFFFFFFFFFFFF AND PUSH20 0xFFFFFFFFFFFFFFFFFFFFFFFFFFFFFFFFFFFFFFFF AND DUP2 MSTORE PUSH1 0x20 ADD SWAP1 DUP2 MSTORE PUSH1 0x20 ADD PUSH1 0x0 KECCAK256 SLOAD SWAP1 POP PUSH1 0x0 DUP1 PUSH1 0x0 DUP5 PUSH20 0xFFFFFFFFFFFFFFFFFFFFFFFFFFFFFFFFFFFFFFFF AND PUSH20 0xFFFFFFFFFFFFFFFFFFFFFFFFFFFFFFFFFFFFFFFF AND DUP2 MSTORE PUSH1 0x20 ADD SWAP1 DUP2 MSTORE PUSH1 0x20 ADD PUSH1 0x0 KECCAK256 SLOAD SWAP1 POP PUSH1 0x0 DUP2 DUP4 PUSH2 0x1C7 SWAP2 SWAP1 PUSH2 0x587 JUMP JUMPDEST SWAP1 POP PUSH1 0x0 PUSH1 0xA SWAP1 POP PUSH1 0x0 DUP3 GT ISZERO PUSH2 0x1E1 JUMPI PUSH1 0x5 SWAP1 POP PUSH2 0x1F0 JUMP JUMPDEST PUSH1 0x0 DUP3 LT ISZERO PUSH2 0x1EF JUMPI PUSH1 0xF SWAP1 POP JUMPDEST JUMPDEST DUP3 DUP2 LT PUSH2 0x295 JUMPI DUP1 PUSH1 0x0 DUP1 DUP9 PUSH20 0xFFFFFFFFFFFFFFFFFFFFFFFFFFFFFFFFFFFFFFFF AND PUSH20 0xFFFFFFFFFFFFFFFFFFFFFFFFFFFFFFFFFFFFFFFF AND DUP2 MSTORE PUSH1 0x20 ADD SWAP1 DUP2 MSTORE PUSH1 0x20 ADD PUSH1 0x0 KECCAK256 PUSH1 0x0 DUP3 DUP3 SLOAD PUSH2 0x245 SWAP2 SWAP1 PUSH2 0x5BB JUMP JUMPDEST SWAP3 POP POP DUP2 SWAP1 SSTORE POP PUSH1 0x1 PUSH1 0x0 DUP1 DUP8 PUSH20 0xFFFFFFFFFFFFFFFFFFFFFFFFFFFFFFFFFFFFFFFF AND PUSH20 0xFFFFFFFFFFFFFFFFFFFFFFFFFFFFFFFFFFFFFFFF AND DUP2 MSTORE PUSH1 0x20 ADD SWAP1 DUP2 MSTORE PUSH1 0x20 ADD PUSH1 0x0 KECCAK256 DUP2 SWAP1 SSTORE POP PUSH2 0x340 JUMP JUMPDEST DUP1 PUSH1 0x0 DUP1 DUP9 PUSH20 0xFFFFFFFFFFFFFFFFFFFFFFFFFFFFFFFFFFFFFFFF AND PUSH20 0xFFFFFFFFFFFFFFFFFFFFFFFFFFFFFFFFFFFFFFFF AND DUP2 MSTORE PUSH1 0x20 ADD SWAP1 DUP2 MSTORE PUSH1 0x20 ADD PUSH1 0x0 KECCAK256 PUSH1 0x0 DUP3 DUP3 SLOAD PUSH2 0x2E3 SWAP2 SWAP1 PUSH2 0x5BB JUMP JUMPDEST SWAP3 POP POP DUP2 SWAP1 SSTORE POP DUP1 PUSH1 0x0 DUP1 DUP8 PUSH20 0xFFFFFFFFFFFFFFFFFFFFFFFFFFFFFFFFFFFFFFFF AND PUSH20 0xFFFFFFFFFFFFFFFFFFFFFFFFFFFFFFFFFFFFFFFF AND DUP2 MSTORE PUSH1 0x20 ADD SWAP1 DUP2 MSTORE PUSH1 0x20 ADD PUSH1 0x0 KECCAK256 PUSH1 0x0 DUP3 DUP3 SLOAD PUSH2 0x338 SWAP2 SWAP1 PUSH2 0x587 JUMP JUMPDEST SWAP3 POP POP DUP2 SWAP1 SSTORE POP JUMPDEST POP POP POP POP POP POP JUMP JUMPDEST PUSH1 0x0 DUP1 PUSH1 0x0 DUP4 PUSH20 0xFFFFFFFFFFFFFFFFFFFFFFFFFFFFFFFFFFFFFFFF AND PUSH20 0xFFFFFFFFFFFFFFFFFFFFFFFFFFFFFFFFFFFFFFFF AND DUP2 MSTORE PUSH1 0x20 ADD SWAP1 DUP2 MSTORE PUSH1 0x20 ADD PUSH1 0x0 KECCAK256 SLOAD SWAP1 POP SWAP2 SWAP1 POP JUMP JUMPDEST PUSH1 0x0 DUP1 PUSH1 0x0 DUP4 PUSH20 0xFFFFFFFFFFFFFFFFFFFFFFFFFFFFFFFFFFFFFFFF AND PUSH20 0xFFFFFFFFFFFFFFFFFFFFFFFFFFFFFFFFFFFFFFFF AND DUP2 MSTORE PUSH1 0x20 ADD SWAP1 DUP2 MSTORE PUSH1 0x20 ADD PUSH1 0x0 KECCAK256 SLOAD SUB PUSH2 0x41B JUMPI PUSH1 0x64 PUSH1 0x0 DUP1 DUP4 PUSH20 0xFFFFFFFFFFFFFFFFFFFFFFFFFFFFFFFFFFFFFFFF AND PUSH20 0xFFFFFFFFFFFFFFFFFFFFFFFFFFFFFFFFFFFFFFFF AND DUP2 MSTORE PUSH1 0x20 ADD SWAP1 DUP2 MSTORE PUSH1 0x20 ADD PUSH1 0x0 KECCAK256 DUP2 SWAP1 SSTORE POP JUMPDEST POP JUMP JUMPDEST PUSH1 0x0 DUP1 REVERT JUMPDEST PUSH1 0x0 PUSH20 0xFFFFFFFFFFFFFFFFFFFFFFFFFFFFFFFFFFFFFFFF DUP3 AND SWAP1 POP SWAP2 SWAP1 POP JUMP JUMPDEST PUSH1 0x0 PUSH2 0x44E DUP3 PUSH2 0x423 JUMP JUMPDEST SWAP1 POP SWAP2 SWAP1 POP JUMP JUMPDEST PUSH2 0x45E DUP2 PUSH2 0x443 JUMP JUMPDEST DUP2 EQ PUSH2 0x469 JUMPI PUSH1 0x0 DUP1 REVERT JUMPDEST POP JUMP JUMPDEST PUSH1 0x0 DUP2 CALLDATALOAD SWAP1 POP PUSH2 0x47B DUP2 PUSH2 0x455 JUMP JUMPDEST SWAP3 SWAP2 POP POP JUMP JUMPDEST PUSH1 0x0 PUSH1 0x20 DUP3 DUP5 SUB SLT ISZERO PUSH2 0x497 JUMPI PUSH2 0x496 PUSH2 0x41E JUMP JUMPDEST JUMPDEST PUSH1 0x0 PUSH2 0x4A5 DUP5 DUP3 DUP6 ADD PUSH2 0x46C JUMP JUMPDEST SWAP2 POP POP SWAP3 SWAP2 POP POP JUMP JUMPDEST PUSH1 0x0 DUP2 ISZERO ISZERO SWAP1 POP SWAP2 SWAP1 POP JUMP JUMPDEST PUSH2 0x4C3 DUP2 PUSH2 0x4AE JUMP JUMPDEST DUP3 MSTORE POP POP JUMP JUMPDEST PUSH1 0x0 PUSH1 0x20 DUP3 ADD SWAP1 POP PUSH2 0x4DE PUSH1 0x0 DUP4 ADD DUP5 PUSH2 0x4BA JUMP JUMPDEST SWAP3 SWAP2 POP POP JUMP JUMPDEST PUSH1 0x0 DUP1 PUSH1 0x40 DUP4 DUP6 SUB SLT ISZERO PUSH2 0x4FB JUMPI PUSH2 0x4FA PUSH2 0x41E JUMP JUMPDEST JUMPDEST PUSH1 0x0 PUSH2 0x509 DUP6 DUP3 DUP7 ADD PUSH2 0x46C JUMP JUMPDEST SWAP3 POP POP PUSH1 0x20 PUSH2 0x51A DUP6 DUP3 DUP7 ADD PUSH2 0x46C JUMP JUMPDEST SWAP2 POP POP SWAP3 POP SWAP3 SWAP1 POP JUMP JUMPDEST PUSH1 0x0 DUP2 SWAP1 POP SWAP2 SWAP1 POP JUMP JUMPDEST PUSH2 0x537 DUP2 PUSH2 0x524 JUMP JUMPDEST DUP3 MSTORE POP POP JUMP JUMPDEST PUSH1 0x0 PUSH1 0x20 DUP3 ADD SWAP1 POP PUSH2 0x552 PUSH1 0x0 DUP4 ADD DUP5 PUSH2 0x52E JUMP JUMPDEST SWAP3 SWAP2 POP POP JUMP JUMPDEST PUSH32 0x4E487B7100000000000000000000000000000000000000000000000000000000 PUSH1 0x0 MSTORE PUSH1 0x11 PUSH1 0x4 MSTORE PUSH1 0x24 PUSH1 0x0 REVERT JUMPDEST PUSH1 0x0 PUSH2 0x592 DUP3 PUSH2 0x524 JUMP JUMPDEST SWAP2 POP PUSH2 0x59D DUP4 PUSH2 0x524 JUMP JUMPDEST SWAP3 POP DUP3 DUP3 SUB SWAP1 POP DUP2 DUP2 GT ISZERO PUSH2 0x5B5 JUMPI PUSH2 0x5B4 PUSH2 0x558 JUMP JUMPDEST JUMPDEST SWAP3 SWAP2 POP POP JUMP JUMPDEST PUSH1 0x0 PUSH2 0x5C6 DUP3 PUSH2 0x524 JUMP JUMPDEST SWAP2 POP PUSH2 0x5D1 DUP4 PUSH2 0x524 JUMP JUMPDEST SWAP3 POP DUP3 DUP3 ADD SWAP1 POP DUP1 DUP3 GT ISZERO PUSH2 0x5E9 JUMPI PUSH2 0x5E8 PUSH2 0x558 JUMP JUMPDEST JUMPDEST SWAP3 SWAP2 POP POP JUMP INVALID LOG2 PUSH5 0x6970667358 0x22 SLT KECCAK256 0x27 CALLER MSIZE 0xEE GT 0xAE PC ORIGIN SWAP15 PUSH19 0x5255B0575CB32A6A956ED3A7794A6699D0A49 0xB5 0x1E EXTCODEHASH PUSH5 0x736F6C6343 STOP ADDMOD SGT STOP CALLER "
				},
				"gasEstimates": {
					"creation": {
						"codeDepositCost": "314600",
						"executionCost": "355",
						"totalCost": "314955"
					},
					"external": {
						"getMMR(address)": "2863",
						"initialiseUser(address)": "24916",
						"isNew(address)": "2831",
						"updateMMR(address,address)": "infinite"
					}
				},
				"methodIdentifiers": {
					"getMMR(address)": "bee061f9",
					"initialiseUser(address)": "f31defcb",
					"isNew(address)": "0639f3ce",
					"updateMMR(address,address)": "3f368279"
				}
			},
			"storageLayout": {
				"storage": [
					{
						"astId": 5,
						"contract": "contracts/MMR.sol:MMR",
						"label": "_playerMMR",
						"offset": 0,
						"slot": "0",
						"type": "t_mapping(t_address,t_uint256)"
					}
				],
				"types": {
					"t_address": {
						"encoding": "inplace",
						"label": "address",
						"numberOfBytes": "20"
					},
					"t_mapping(t_address,t_uint256)": {
						"encoding": "mapping",
						"key": "t_address",
						"label": "mapping(address => uint256)",
						"numberOfBytes": "32",
						"value": "t_uint256"
					},
					"t_uint256": {
						"encoding": "inplace",
						"label": "uint256",
						"numberOfBytes": "32"
					}
				}
			},
			"userdoc": {
				"kind": "user",
				"methods": {},
				"version": 1
			}
		}
	}
}