{
	"data": {
		"bytecode": {
			"linkReferences": {},
			"object": "60806040523480156200001157600080fd5b506040516200124438038062001244833981810160405281019062000037919062000189565b826000806101000a81548173ffffffffffffffffffffffffffffffffffffffff021916908373ffffffffffffffffffffffffffffffffffffffff16021790555081600160006101000a81548173ffffffffffffffffffffffffffffffffffffffff021916908373ffffffffffffffffffffffffffffffffffffffff16021790555043600481905550670de0b6b3a764000081620000d5919062000214565b6002819055505050506200025f565b600080fd5b600073ffffffffffffffffffffffffffffffffffffffff82169050919050565b60006200011682620000e9565b9050919050565b620001288162000109565b81146200013457600080fd5b50565b60008151905062000148816200011d565b92915050565b6000819050919050565b62000163816200014e565b81146200016f57600080fd5b50565b600081519050620001838162000158565b92915050565b600080600060608486031215620001a557620001a4620000e4565b5b6000620001b58682870162000137565b9350506020620001c88682870162000137565b9250506040620001db8682870162000172565b9150509250925092565b7f4e487b7100000000000000000000000000000000000000000000000000000000600052601160045260246000fd5b600062000221826200014e565b91506200022e836200014e565b92508282026200023e816200014e565b91508282048414831517620002585762000257620001e5565b5b5092915050565b610fd5806200026f6000396000f3fe608060405234801561001057600080fd5b50600436106100b45760003560e01c80637bd2bea7116100715780637bd2bea71461017c578063817b1cd21461019a578063939d6237146101b8578063a218141b146101d6578063b6b55f25146101f4578063e3161ddd14610210576100b4565b806309c85e24146100b95780631959a002146100d75780632e1a7d4d14610108578063372500ab146101245780634df9d6ba1461012e5780635fcbd2851461015e575b600080fd5b6100c161021a565b6040516100ce9190610b32565b60405180910390f35b6100f160048036038101906100ec9190610bb0565b610220565b6040516100ff929190610bdd565b60405180910390f35b610122600480360381019061011d9190610c32565b610244565b005b61012c6104ef565b005b61014860048036038101906101439190610bb0565b61069c565b6040516101559190610b32565b60405180910390f35b6101666107a8565b6040516101739190610cbe565b60405180910390f35b6101846107cc565b6040516101919190610cfa565b60405180910390f35b6101a26107f2565b6040516101af9190610b32565b60405180910390f35b6101c06107f8565b6040516101cd9190610b32565b60405180910390f35b6101de6107fe565b6040516101eb9190610b32565b60405180910390f35b61020e60048036038101906102099190610c32565b610804565b005b610218610a78565b005b60025481565b60066020528060005260406000206000915090508060000154908060010154905082565b6000600660003373ffffffffffffffffffffffffffffffffffffffff1673ffffffffffffffffffffffffffffffffffffffff168152602001908152602001600020905081816000015410156102ce576040517f08c379a00000000000000000000000000000000000000000000000000000000081526004016102c590610d72565b60405180910390fd5b6102d6610a78565b60008160010154670de0b6b3a764000060055484600001546102f89190610dc1565b6103029190610e32565b61030c9190610e63565b905060008111156103ea5760006002548211610328578161032c565b6002545b9050600160009054906101000a900473ffffffffffffffffffffffffffffffffffffffff1673ffffffffffffffffffffffffffffffffffffffff1663a9059cbb33836040518363ffffffff1660e01b815260040161038b929190610ea6565b6020604051808303816000875af11580156103aa573d6000803e3d6000fd5b505050506040513d601f19601f820116820180604052508101906103ce9190610f07565b5080600260008282546103e19190610e63565b92505081905550505b60008054906101000a900473ffffffffffffffffffffffffffffffffffffffff1673ffffffffffffffffffffffffffffffffffffffff1663a9059cbb33856040518363ffffffff1660e01b8152600401610445929190610ea6565b6020604051808303816000875af1158015610464573d6000803e3d6000fd5b505050506040513d601f19601f820116820180604052508101906104889190610f07565b508282600001600082825461049d9190610e63565b9250508190555082600360008282546104b69190610e63565b92505081905550670de0b6b3a764000060055483600001546104d89190610dc1565b6104e29190610e32565b8260010181905550505050565b6000600660003373ffffffffffffffffffffffffffffffffffffffff1673ffffffffffffffffffffffffffffffffffffffff168152602001908152602001600020905061053a610a78565b60008160010154670de0b6b3a7640000600554846000015461055c9190610dc1565b6105669190610e32565b6105709190610e63565b9050600081111561069857600160009054906101000a900473ffffffffffffffffffffffffffffffffffffffff1673ffffffffffffffffffffffffffffffffffffffff1663a9059cbb33836040518363ffffffff1660e01b81526004016105d8929190610ea6565b6020604051808303816000875af11580156105f7573d6000803e3d6000fd5b505050506040513d601f19601f8201168201806040525081019061061b9190610f07565b50670de0b6b3a764000060055483600001546106379190610dc1565b6106419190610e32565b82600101819055503373ffffffffffffffffffffffffffffffffffffffff167f106f923f993c2149d49b4255ff723acafa1f2d94393f561d3eda32ae348f72418260405161068f9190610b32565b60405180910390a25b5050565b600080600660008473ffffffffffffffffffffffffffffffffffffffff1673ffffffffffffffffffffffffffffffffffffffff168152602001908152602001600020905060006005549050600454431180156106fb5750600060035414155b1561076d576000600454436107109190610e63565b90506000600454436107229190610e63565b826002546107309190610dc1565b61073a9190610e32565b9050600354670de0b6b3a7640000826107539190610dc1565b61075d9190610e32565b836107689190610f34565b925050505b8160010154670de0b6b3a764000082846000015461078b9190610dc1565b6107959190610e32565b61079f9190610e63565b92505050919050565b60008054906101000a900473ffffffffffffffffffffffffffffffffffffffff1681565b600160009054906101000a900473ffffffffffffffffffffffffffffffffffffffff1681565b60035481565b60055481565b60045481565b6000600660003373ffffffffffffffffffffffffffffffffffffffff1673ffffffffffffffffffffffffffffffffffffffff168152602001908152602001600020905061084f610a78565b6000816000015411156109725760008160010154670de0b6b3a7640000600554846000015461087e9190610dc1565b6108889190610e32565b6108929190610e63565b9050600081111561097057600060025482116108ae57816108b2565b6002545b9050600160009054906101000a900473ffffffffffffffffffffffffffffffffffffffff1673ffffffffffffffffffffffffffffffffffffffff1663a9059cbb33836040518363ffffffff1660e01b8152600401610911929190610ea6565b6020604051808303816000875af1158015610930573d6000803e3d6000fd5b505050506040513d601f19601f820116820180604052508101906109549190610f07565b5080600260008282546109679190610e63565b92505081905550505b505b60008054906101000a900473ffffffffffffffffffffffffffffffffffffffff1673ffffffffffffffffffffffffffffffffffffffff166323b872dd3330856040518463ffffffff1660e01b81526004016109cf93929190610f68565b6020604051808303816000875af11580156109ee573d6000803e3d6000fd5b505050506040513d601f19601f82011682018060405250810190610a129190610f07565b5081816000016000828254610a279190610f34565b925050819055508160036000828254610a409190610f34565b92505081905550670de0b6b3a76400006005548260000154610a629190610dc1565b610a6c9190610e32565b81600101819055505050565b600454431115610b1757600060035403610a985743600481905550610b17565b600060045443610aa89190610e63565b9050600060045443610aba9190610e63565b82600254610ac89190610dc1565b610ad29190610e32565b9050600354670de0b6b3a764000082610aeb9190610dc1565b610af59190610e32565b60056000828254610b069190610f34565b925050819055504360048190555050505b565b6000819050919050565b610b2c81610b19565b82525050565b6000602082019050610b476000830184610b23565b92915050565b600080fd5b600073ffffffffffffffffffffffffffffffffffffffff82169050919050565b6000610b7d82610b52565b9050919050565b610b8d81610b72565b8114610b9857600080fd5b50565b600081359050610baa81610b84565b92915050565b600060208284031215610bc657610bc5610b4d565b5b6000610bd484828501610b9b565b91505092915050565b6000604082019050610bf26000830185610b23565b610bff6020830184610b23565b9392505050565b610c0f81610b19565b8114610c1a57600080fd5b50565b600081359050610c2c81610c06565b92915050565b600060208284031215610c4857610c47610b4d565b5b6000610c5684828501610c1d565b91505092915050565b6000819050919050565b6000610c84610c7f610c7a84610b52565b610c5f565b610b52565b9050919050565b6000610c9682610c69565b9050919050565b6000610ca882610c8b565b9050919050565b610cb881610c9d565b82525050565b6000602082019050610cd36000830184610caf565b92915050565b6000610ce482610c8b565b9050919050565b610cf481610cd9565b82525050565b6000602082019050610d0f6000830184610ceb565b92915050565b600082825260208201905092915050565b7f4e6f7420656e6f756768207374616b656420746f6b656e730000000000000000600082015250565b6000610d5c601883610d15565b9150610d6782610d26565b602082019050919050565b60006020820190508181036000830152610d8b81610d4f565b9050919050565b7f4e487b7100000000000000000000000000000000000000000000000000000000600052601160045260246000fd5b6000610dcc82610b19565b9150610dd783610b19565b9250828202610de581610b19565b91508282048414831517610dfc57610dfb610d92565b5b5092915050565b7f4e487b7100000000000000000000000000000000000000000000000000000000600052601260045260246000fd5b6000610e3d82610b19565b9150610e4883610b19565b925082610e5857610e57610e03565b5b828204905092915050565b6000610e6e82610b19565b9150610e7983610b19565b9250828203905081811115610e9157610e90610d92565b5b92915050565b610ea081610b72565b82525050565b6000604082019050610ebb6000830185610e97565b610ec86020830184610b23565b9392505050565b60008115159050919050565b610ee481610ecf565b8114610eef57600080fd5b50565b600081519050610f0181610edb565b92915050565b600060208284031215610f1d57610f1c610b4d565b5b6000610f2b84828501610ef2565b91505092915050565b6000610f3f82610b19565b9150610f4a83610b19565b9250828201905080821115610f6257610f61610d92565b5b92915050565b6000606082019050610f7d6000830186610e97565b610f8a6020830185610e97565b610f976040830184610b23565b94935050505056fea26469706673582212202b425810aa72297678c95b7c4f2974530238cf49b24858860b2c3fe24e4b99b664736f6c63430008130033",
			"opcodes": "PUSH1 0x80 PUSH1 0x40 MSTORE CALLVALUE DUP1 ISZERO PUSH3 0x11 JUMPI PUSH1 0x0 DUP1 REVERT JUMPDEST POP PUSH1 0x40 MLOAD PUSH3 0x1244 CODESIZE SUB DUP1 PUSH3 0x1244 DUP4 CODECOPY DUP2 DUP2 ADD PUSH1 0x40 MSTORE DUP2 ADD SWAP1 PUSH3 0x37 SWAP2 SWAP1 PUSH3 0x189 JUMP JUMPDEST DUP3 PUSH1 0x0 DUP1 PUSH2 0x100 EXP DUP2 SLOAD DUP2 PUSH20 0xFFFFFFFFFFFFFFFFFFFFFFFFFFFFFFFFFFFFFFFF MUL NOT AND SWAP1 DUP4 PUSH20 0xFFFFFFFFFFFFFFFFFFFFFFFFFFFFFFFFFFFFFFFF AND MUL OR SWAP1 SSTORE POP DUP2 PUSH1 0x1 PUSH1 0x0 PUSH2 0x100 EXP DUP2 SLOAD DUP2 PUSH20 0xFFFFFFFFFFFFFFFFFFFFFFFFFFFFFFFFFFFFFFFF MUL NOT AND SWAP1 DUP4 PUSH20 0xFFFFFFFFFFFFFFFFFFFFFFFFFFFFFFFFFFFFFFFF AND MUL OR SWAP1 SSTORE POP NUMBER PUSH1 0x4 DUP2 SWAP1 SSTORE POP PUSH8 0xDE0B6B3A7640000 DUP2 PUSH3 0xD5 SWAP2 SWAP1 PUSH3 0x214 JUMP JUMPDEST PUSH1 0x2 DUP2 SWAP1 SSTORE POP POP POP POP PUSH3 0x25F JUMP JUMPDEST PUSH1 0x0 DUP1 REVERT JUMPDEST PUSH1 0x0 PUSH20 0xFFFFFFFFFFFFFFFFFFFFFFFFFFFFFFFFFFFFFFFF DUP3 AND SWAP1 POP SWAP2 SWAP1 POP JUMP JUMPDEST PUSH1 0x0 PUSH3 0x116 DUP3 PUSH3 0xE9 JUMP JUMPDEST SWAP1 POP SWAP2 SWAP1 POP JUMP JUMPDEST PUSH3 0x128 DUP2 PUSH3 0x109 JUMP JUMPDEST DUP2 EQ PUSH3 0x134 JUMPI PUSH1 0x0 DUP1 REVERT JUMPDEST POP JUMP JUMPDEST PUSH1 0x0 DUP2 MLOAD SWAP1 POP PUSH3 0x148 DUP2 PUSH3 0x11D JUMP JUMPDEST SWAP3 SWAP2 POP POP JUMP JUMPDEST PUSH1 0x0 DUP2 SWAP1 POP SWAP2 SWAP1 POP JUMP JUMPDEST PUSH3 0x163 DUP2 PUSH3 0x14E JUMP JUMPDEST DUP2 EQ PUSH3 0x16F JUMPI PUSH1 0x0 DUP1 REVERT JUMPDEST POP JUMP JUMPDEST PUSH1 0x0 DUP2 MLOAD SWAP1 POP PUSH3 0x183 DUP2 PUSH3 0x158 JUMP JUMPDEST SWAP3 SWAP2 POP POP JUMP JUMPDEST PUSH1 0x0 DUP1 PUSH1 0x0 PUSH1 0x60 DUP5 DUP7 SUB SLT ISZERO PUSH3 0x1A5 JUMPI PUSH3 0x1A4 PUSH3 0xE4 JUMP JUMPDEST JUMPDEST PUSH1 0x0 PUSH3 0x1B5 DUP7 DUP3 DUP8 ADD PUSH3 0x137 JUMP JUMPDEST SWAP4 POP POP PUSH1 0x20 PUSH3 0x1C8 DUP7 DUP3 DUP8 ADD PUSH3 0x137 JUMP JUMPDEST SWAP3 POP POP PUSH1 0x40 PUSH3 0x1DB DUP7 DUP3 DUP8 ADD PUSH3 0x172 JUMP JUMPDEST SWAP2 POP POP SWAP3 POP SWAP3 POP SWAP3 JUMP JUMPDEST PUSH32 0x4E487B7100000000000000000000000000000000000000000000000000000000 PUSH1 0x0 MSTORE PUSH1 0x11 PUSH1 0x4 MSTORE PUSH1 0x24 PUSH1 0x0 REVERT JUMPDEST PUSH1 0x0 PUSH3 0x221 DUP3 PUSH3 0x14E JUMP JUMPDEST SWAP2 POP PUSH3 0x22E DUP4 PUSH3 0x14E JUMP JUMPDEST SWAP3 POP DUP3 DUP3 MUL PUSH3 0x23E DUP2 PUSH3 0x14E JUMP JUMPDEST SWAP2 POP DUP3 DUP3 DIV DUP5 EQ DUP4 ISZERO OR PUSH3 0x258 JUMPI PUSH3 0x257 PUSH3 0x1E5 JUMP JUMPDEST JUMPDEST POP SWAP3 SWAP2 POP POP JUMP JUMPDEST PUSH2 0xFD5 DUP1 PUSH3 0x26F PUSH1 0x0 CODECOPY PUSH1 0x0 RETURN INVALID PUSH1 0x80 PUSH1 0x40 MSTORE CALLVALUE DUP1 ISZERO PUSH2 0x10 JUMPI PUSH1 0x0 DUP1 REVERT JUMPDEST POP PUSH1 0x4 CALLDATASIZE LT PUSH2 0xB4 JUMPI PUSH1 0x0 CALLDATALOAD PUSH1 0xE0 SHR DUP1 PUSH4 0x7BD2BEA7 GT PUSH2 0x71 JUMPI DUP1 PUSH4 0x7BD2BEA7 EQ PUSH2 0x17C JUMPI DUP1 PUSH4 0x817B1CD2 EQ PUSH2 0x19A JUMPI DUP1 PUSH4 0x939D6237 EQ PUSH2 0x1B8 JUMPI DUP1 PUSH4 0xA218141B EQ PUSH2 0x1D6 JUMPI DUP1 PUSH4 0xB6B55F25 EQ PUSH2 0x1F4 JUMPI DUP1 PUSH4 0xE3161DDD EQ PUSH2 0x210 JUMPI PUSH2 0xB4 JUMP JUMPDEST DUP1 PUSH4 0x9C85E24 EQ PUSH2 0xB9 JUMPI DUP1 PUSH4 0x1959A002 EQ PUSH2 0xD7 JUMPI DUP1 PUSH4 0x2E1A7D4D EQ PUSH2 0x108 JUMPI DUP1 PUSH4 0x372500AB EQ PUSH2 0x124 JUMPI DUP1 PUSH4 0x4DF9D6BA EQ PUSH2 0x12E JUMPI DUP1 PUSH4 0x5FCBD285 EQ PUSH2 0x15E JUMPI JUMPDEST PUSH1 0x0 DUP1 REVERT JUMPDEST PUSH2 0xC1 PUSH2 0x21A JUMP JUMPDEST PUSH1 0x40 MLOAD PUSH2 0xCE SWAP2 SWAP1 PUSH2 0xB32 JUMP JUMPDEST PUSH1 0x40 MLOAD DUP1 SWAP2 SUB SWAP1 RETURN JUMPDEST PUSH2 0xF1 PUSH1 0x4 DUP1 CALLDATASIZE SUB DUP2 ADD SWAP1 PUSH2 0xEC SWAP2 SWAP1 PUSH2 0xBB0 JUMP JUMPDEST PUSH2 0x220 JUMP JUMPDEST PUSH1 0x40 MLOAD PUSH2 0xFF SWAP3 SWAP2 SWAP1 PUSH2 0xBDD JUMP JUMPDEST PUSH1 0x40 MLOAD DUP1 SWAP2 SUB SWAP1 RETURN JUMPDEST PUSH2 0x122 PUSH1 0x4 DUP1 CALLDATASIZE SUB DUP2 ADD SWAP1 PUSH2 0x11D SWAP2 SWAP1 PUSH2 0xC32 JUMP JUMPDEST PUSH2 0x244 JUMP JUMPDEST STOP JUMPDEST PUSH2 0x12C PUSH2 0x4EF JUMP JUMPDEST STOP JUMPDEST PUSH2 0x148 PUSH1 0x4 DUP1 CALLDATASIZE SUB DUP2 ADD SWAP1 PUSH2 0x143 SWAP2 SWAP1 PUSH2 0xBB0 JUMP JUMPDEST PUSH2 0x69C JUMP JUMPDEST PUSH1 0x40 MLOAD PUSH2 0x155 SWAP2 SWAP1 PUSH2 0xB32 JUMP JUMPDEST PUSH1 0x40 MLOAD DUP1 SWAP2 SUB SWAP1 RETURN JUMPDEST PUSH2 0x166 PUSH2 0x7A8 JUMP JUMPDEST PUSH1 0x40 MLOAD PUSH2 0x173 SWAP2 SWAP1 PUSH2 0xCBE JUMP JUMPDEST PUSH1 0x40 MLOAD DUP1 SWAP2 SUB SWAP1 RETURN JUMPDEST PUSH2 0x184 PUSH2 0x7CC JUMP JUMPDEST PUSH1 0x40 MLOAD PUSH2 0x191 SWAP2 SWAP1 PUSH2 0xCFA JUMP JUMPDEST PUSH1 0x40 MLOAD DUP1 SWAP2 SUB SWAP1 RETURN JUMPDEST PUSH2 0x1A2 PUSH2 0x7F2 JUMP JUMPDEST PUSH1 0x40 MLOAD PUSH2 0x1AF SWAP2 SWAP1 PUSH2 0xB32 JUMP JUMPDEST PUSH1 0x40 MLOAD DUP1 SWAP2 SUB SWAP1 RETURN JUMPDEST PUSH2 0x1C0 PUSH2 0x7F8 JUMP JUMPDEST PUSH1 0x40 MLOAD PUSH2 0x1CD SWAP2 SWAP1 PUSH2 0xB32 JUMP JUMPDEST PUSH1 0x40 MLOAD DUP1 SWAP2 SUB SWAP1 RETURN JUMPDEST PUSH2 0x1DE PUSH2 0x7FE JUMP JUMPDEST PUSH1 0x40 MLOAD PUSH2 0x1EB SWAP2 SWAP1 PUSH2 0xB32 JUMP JUMPDEST PUSH1 0x40 MLOAD DUP1 SWAP2 SUB SWAP1 RETURN JUMPDEST PUSH2 0x20E PUSH1 0x4 DUP1 CALLDATASIZE SUB DUP2 ADD SWAP1 PUSH2 0x209 SWAP2 SWAP1 PUSH2 0xC32 JUMP JUMPDEST PUSH2 0x804 JUMP JUMPDEST STOP JUMPDEST PUSH2 0x218 PUSH2 0xA78 JUMP JUMPDEST STOP JUMPDEST PUSH1 0x2 SLOAD DUP2 JUMP JUMPDEST PUSH1 0x6 PUSH1 0x20 MSTORE DUP1 PUSH1 0x0 MSTORE PUSH1 0x40 PUSH1 0x0 KECCAK256 PUSH1 0x0 SWAP2 POP SWAP1 POP DUP1 PUSH1 0x0 ADD SLOAD SWAP1 DUP1 PUSH1 0x1 ADD SLOAD SWAP1 POP DUP3 JUMP JUMPDEST PUSH1 0x0 PUSH1 0x6 PUSH1 0x0 CALLER PUSH20 0xFFFFFFFFFFFFFFFFFFFFFFFFFFFFFFFFFFFFFFFF AND PUSH20 0xFFFFFFFFFFFFFFFFFFFFFFFFFFFFFFFFFFFFFFFF AND DUP2 MSTORE PUSH1 0x20 ADD SWAP1 DUP2 MSTORE PUSH1 0x20 ADD PUSH1 0x0 KECCAK256 SWAP1 POP DUP2 DUP2 PUSH1 0x0 ADD SLOAD LT ISZERO PUSH2 0x2CE JUMPI PUSH1 0x40 MLOAD PUSH32 0x8C379A000000000000000000000000000000000000000000000000000000000 DUP2 MSTORE PUSH1 0x4 ADD PUSH2 0x2C5 SWAP1 PUSH2 0xD72 JUMP JUMPDEST PUSH1 0x40 MLOAD DUP1 SWAP2 SUB SWAP1 REVERT JUMPDEST PUSH2 0x2D6 PUSH2 0xA78 JUMP JUMPDEST PUSH1 0x0 DUP2 PUSH1 0x1 ADD SLOAD PUSH8 0xDE0B6B3A7640000 PUSH1 0x5 SLOAD DUP5 PUSH1 0x0 ADD SLOAD PUSH2 0x2F8 SWAP2 SWAP1 PUSH2 0xDC1 JUMP JUMPDEST PUSH2 0x302 SWAP2 SWAP1 PUSH2 0xE32 JUMP JUMPDEST PUSH2 0x30C SWAP2 SWAP1 PUSH2 0xE63 JUMP JUMPDEST SWAP1 POP PUSH1 0x0 DUP2 GT ISZERO PUSH2 0x3EA JUMPI PUSH1 0x0 PUSH1 0x2 SLOAD DUP3 GT PUSH2 0x328 JUMPI DUP2 PUSH2 0x32C JUMP JUMPDEST PUSH1 0x2 SLOAD JUMPDEST SWAP1 POP PUSH1 0x1 PUSH1 0x0 SWAP1 SLOAD SWAP1 PUSH2 0x100 EXP SWAP1 DIV PUSH20 0xFFFFFFFFFFFFFFFFFFFFFFFFFFFFFFFFFFFFFFFF AND PUSH20 0xFFFFFFFFFFFFFFFFFFFFFFFFFFFFFFFFFFFFFFFF AND PUSH4 0xA9059CBB CALLER DUP4 PUSH1 0x40 MLOAD DUP4 PUSH4 0xFFFFFFFF AND PUSH1 0xE0 SHL DUP2 MSTORE PUSH1 0x4 ADD PUSH2 0x38B SWAP3 SWAP2 SWAP1 PUSH2 0xEA6 JUMP JUMPDEST PUSH1 0x20 PUSH1 0x40 MLOAD DUP1 DUP4 SUB DUP2 PUSH1 0x0 DUP8 GAS CALL ISZERO DUP1 ISZERO PUSH2 0x3AA JUMPI RETURNDATASIZE PUSH1 0x0 DUP1 RETURNDATACOPY RETURNDATASIZE PUSH1 0x0 REVERT JUMPDEST POP POP POP POP PUSH1 0x40 MLOAD RETURNDATASIZE PUSH1 0x1F NOT PUSH1 0x1F DUP3 ADD AND DUP3 ADD DUP1 PUSH1 0x40 MSTORE POP DUP2 ADD SWAP1 PUSH2 0x3CE SWAP2 SWAP1 PUSH2 0xF07 JUMP JUMPDEST POP DUP1 PUSH1 0x2 PUSH1 0x0 DUP3 DUP3 SLOAD PUSH2 0x3E1 SWAP2 SWAP1 PUSH2 0xE63 JUMP JUMPDEST SWAP3 POP POP DUP2 SWAP1 SSTORE POP POP JUMPDEST PUSH1 0x0 DUP1 SLOAD SWAP1 PUSH2 0x100 EXP SWAP1 DIV PUSH20 0xFFFFFFFFFFFFFFFFFFFFFFFFFFFFFFFFFFFFFFFF AND PUSH20 0xFFFFFFFFFFFFFFFFFFFFFFFFFFFFFFFFFFFFFFFF AND PUSH4 0xA9059CBB CALLER DUP6 PUSH1 0x40 MLOAD DUP4 PUSH4 0xFFFFFFFF AND PUSH1 0xE0 SHL DUP2 MSTORE PUSH1 0x4 ADD PUSH2 0x445 SWAP3 SWAP2 SWAP1 PUSH2 0xEA6 JUMP JUMPDEST PUSH1 0x20 PUSH1 0x40 MLOAD DUP1 DUP4 SUB DUP2 PUSH1 0x0 DUP8 GAS CALL ISZERO DUP1 ISZERO PUSH2 0x464 JUMPI RETURNDATASIZE PUSH1 0x0 DUP1 RETURNDATACOPY RETURNDATASIZE PUSH1 0x0 REVERT JUMPDEST POP POP POP POP PUSH1 0x40 MLOAD RETURNDATASIZE PUSH1 0x1F NOT PUSH1 0x1F DUP3 ADD AND DUP3 ADD DUP1 PUSH1 0x40 MSTORE POP DUP2 ADD SWAP1 PUSH2 0x488 SWAP2 SWAP1 PUSH2 0xF07 JUMP JUMPDEST POP DUP3 DUP3 PUSH1 0x0 ADD PUSH1 0x0 DUP3 DUP3 SLOAD PUSH2 0x49D SWAP2 SWAP1 PUSH2 0xE63 JUMP JUMPDEST SWAP3 POP POP DUP2 SWAP1 SSTORE POP DUP3 PUSH1 0x3 PUSH1 0x0 DUP3 DUP3 SLOAD PUSH2 0x4B6 SWAP2 SWAP1 PUSH2 0xE63 JUMP JUMPDEST SWAP3 POP POP DUP2 SWAP1 SSTORE POP PUSH8 0xDE0B6B3A7640000 PUSH1 0x5 SLOAD DUP4 PUSH1 0x0 ADD SLOAD PUSH2 0x4D8 SWAP2 SWAP1 PUSH2 0xDC1 JUMP JUMPDEST PUSH2 0x4E2 SWAP2 SWAP1 PUSH2 0xE32 JUMP JUMPDEST DUP3 PUSH1 0x1 ADD DUP2 SWAP1 SSTORE POP POP POP POP JUMP JUMPDEST PUSH1 0x0 PUSH1 0x6 PUSH1 0x0 CALLER PUSH20 0xFFFFFFFFFFFFFFFFFFFFFFFFFFFFFFFFFFFFFFFF AND PUSH20 0xFFFFFFFFFFFFFFFFFFFFFFFFFFFFFFFFFFFFFFFF AND DUP2 MSTORE PUSH1 0x20 ADD SWAP1 DUP2 MSTORE PUSH1 0x20 ADD PUSH1 0x0 KECCAK256 SWAP1 POP PUSH2 0x53A PUSH2 0xA78 JUMP JUMPDEST PUSH1 0x0 DUP2 PUSH1 0x1 ADD SLOAD PUSH8 0xDE0B6B3A7640000 PUSH1 0x5 SLOAD DUP5 PUSH1 0x0 ADD SLOAD PUSH2 0x55C SWAP2 SWAP1 PUSH2 0xDC1 JUMP JUMPDEST PUSH2 0x566 SWAP2 SWAP1 PUSH2 0xE32 JUMP JUMPDEST PUSH2 0x570 SWAP2 SWAP1 PUSH2 0xE63 JUMP JUMPDEST SWAP1 POP PUSH1 0x0 DUP2 GT ISZERO PUSH2 0x698 JUMPI PUSH1 0x1 PUSH1 0x0 SWAP1 SLOAD SWAP1 PUSH2 0x100 EXP SWAP1 DIV PUSH20 0xFFFFFFFFFFFFFFFFFFFFFFFFFFFFFFFFFFFFFFFF AND PUSH20 0xFFFFFFFFFFFFFFFFFFFFFFFFFFFFFFFFFFFFFFFF AND PUSH4 0xA9059CBB CALLER DUP4 PUSH1 0x40 MLOAD DUP4 PUSH4 0xFFFFFFFF AND PUSH1 0xE0 SHL DUP2 MSTORE PUSH1 0x4 ADD PUSH2 0x5D8 SWAP3 SWAP2 SWAP1 PUSH2 0xEA6 JUMP JUMPDEST PUSH1 0x20 PUSH1 0x40 MLOAD DUP1 DUP4 SUB DUP2 PUSH1 0x0 DUP8 GAS CALL ISZERO DUP1 ISZERO PUSH2 0x5F7 JUMPI RETURNDATASIZE PUSH1 0x0 DUP1 RETURNDATACOPY RETURNDATASIZE PUSH1 0x0 REVERT JUMPDEST POP POP POP POP PUSH1 0x40 MLOAD RETURNDATASIZE PUSH1 0x1F NOT PUSH1 0x1F DUP3 ADD AND DUP3 ADD DUP1 PUSH1 0x40 MSTORE POP DUP2 ADD SWAP1 PUSH2 0x61B SWAP2 SWAP1 PUSH2 0xF07 JUMP JUMPDEST POP PUSH8 0xDE0B6B3A7640000 PUSH1 0x5 SLOAD DUP4 PUSH1 0x0 ADD SLOAD PUSH2 0x637 SWAP2 SWAP1 PUSH2 0xDC1 JUMP JUMPDEST PUSH2 0x641 SWAP2 SWAP1 PUSH2 0xE32 JUMP JUMPDEST DUP3 PUSH1 0x1 ADD DUP2 SWAP1 SSTORE POP CALLER PUSH20 0xFFFFFFFFFFFFFFFFFFFFFFFFFFFFFFFFFFFFFFFF AND PUSH32 0x106F923F993C2149D49B4255FF723ACAFA1F2D94393F561D3EDA32AE348F7241 DUP3 PUSH1 0x40 MLOAD PUSH2 0x68F SWAP2 SWAP1 PUSH2 0xB32 JUMP JUMPDEST PUSH1 0x40 MLOAD DUP1 SWAP2 SUB SWAP1 LOG2 JUMPDEST POP POP JUMP JUMPDEST PUSH1 0x0 DUP1 PUSH1 0x6 PUSH1 0x0 DUP5 PUSH20 0xFFFFFFFFFFFFFFFFFFFFFFFFFFFFFFFFFFFFFFFF AND PUSH20 0xFFFFFFFFFFFFFFFFFFFFFFFFFFFFFFFFFFFFFFFF AND DUP2 MSTORE PUSH1 0x20 ADD SWAP1 DUP2 MSTORE PUSH1 0x20 ADD PUSH1 0x0 KECCAK256 SWAP1 POP PUSH1 0x0 PUSH1 0x5 SLOAD SWAP1 POP PUSH1 0x4 SLOAD NUMBER GT DUP1 ISZERO PUSH2 0x6FB JUMPI POP PUSH1 0x0 PUSH1 0x3 SLOAD EQ ISZERO JUMPDEST ISZERO PUSH2 0x76D JUMPI PUSH1 0x0 PUSH1 0x4 SLOAD NUMBER PUSH2 0x710 SWAP2 SWAP1 PUSH2 0xE63 JUMP JUMPDEST SWAP1 POP PUSH1 0x0 PUSH1 0x4 SLOAD NUMBER PUSH2 0x722 SWAP2 SWAP1 PUSH2 0xE63 JUMP JUMPDEST DUP3 PUSH1 0x2 SLOAD PUSH2 0x730 SWAP2 SWAP1 PUSH2 0xDC1 JUMP JUMPDEST PUSH2 0x73A SWAP2 SWAP1 PUSH2 0xE32 JUMP JUMPDEST SWAP1 POP PUSH1 0x3 SLOAD PUSH8 0xDE0B6B3A7640000 DUP3 PUSH2 0x753 SWAP2 SWAP1 PUSH2 0xDC1 JUMP JUMPDEST PUSH2 0x75D SWAP2 SWAP1 PUSH2 0xE32 JUMP JUMPDEST DUP4 PUSH2 0x768 SWAP2 SWAP1 PUSH2 0xF34 JUMP JUMPDEST SWAP3 POP POP POP JUMPDEST DUP2 PUSH1 0x1 ADD SLOAD PUSH8 0xDE0B6B3A7640000 DUP3 DUP5 PUSH1 0x0 ADD SLOAD PUSH2 0x78B SWAP2 SWAP1 PUSH2 0xDC1 JUMP JUMPDEST PUSH2 0x795 SWAP2 SWAP1 PUSH2 0xE32 JUMP JUMPDEST PUSH2 0x79F SWAP2 SWAP1 PUSH2 0xE63 JUMP JUMPDEST SWAP3 POP POP POP SWAP2 SWAP1 POP JUMP JUMPDEST PUSH1 0x0 DUP1 SLOAD SWAP1 PUSH2 0x100 EXP SWAP1 DIV PUSH20 0xFFFFFFFFFFFFFFFFFFFFFFFFFFFFFFFFFFFFFFFF AND DUP2 JUMP JUMPDEST PUSH1 0x1 PUSH1 0x0 SWAP1 SLOAD SWAP1 PUSH2 0x100 EXP SWAP1 DIV PUSH20 0xFFFFFFFFFFFFFFFFFFFFFFFFFFFFFFFFFFFFFFFF AND DUP2 JUMP JUMPDEST PUSH1 0x3 SLOAD DUP2 JUMP JUMPDEST PUSH1 0x5 SLOAD DUP2 JUMP JUMPDEST PUSH1 0x4 SLOAD DUP2 JUMP JUMPDEST PUSH1 0x0 PUSH1 0x6 PUSH1 0x0 CALLER PUSH20 0xFFFFFFFFFFFFFFFFFFFFFFFFFFFFFFFFFFFFFFFF AND PUSH20 0xFFFFFFFFFFFFFFFFFFFFFFFFFFFFFFFFFFFFFFFF AND DUP2 MSTORE PUSH1 0x20 ADD SWAP1 DUP2 MSTORE PUSH1 0x20 ADD PUSH1 0x0 KECCAK256 SWAP1 POP PUSH2 0x84F PUSH2 0xA78 JUMP JUMPDEST PUSH1 0x0 DUP2 PUSH1 0x0 ADD SLOAD GT ISZERO PUSH2 0x972 JUMPI PUSH1 0x0 DUP2 PUSH1 0x1 ADD SLOAD PUSH8 0xDE0B6B3A7640000 PUSH1 0x5 SLOAD DUP5 PUSH1 0x0 ADD SLOAD PUSH2 0x87E SWAP2 SWAP1 PUSH2 0xDC1 JUMP JUMPDEST PUSH2 0x888 SWAP2 SWAP1 PUSH2 0xE32 JUMP JUMPDEST PUSH2 0x892 SWAP2 SWAP1 PUSH2 0xE63 JUMP JUMPDEST SWAP1 POP PUSH1 0x0 DUP2 GT ISZERO PUSH2 0x970 JUMPI PUSH1 0x0 PUSH1 0x2 SLOAD DUP3 GT PUSH2 0x8AE JUMPI DUP2 PUSH2 0x8B2 JUMP JUMPDEST PUSH1 0x2 SLOAD JUMPDEST SWAP1 POP PUSH1 0x1 PUSH1 0x0 SWAP1 SLOAD SWAP1 PUSH2 0x100 EXP SWAP1 DIV PUSH20 0xFFFFFFFFFFFFFFFFFFFFFFFFFFFFFFFFFFFFFFFF AND PUSH20 0xFFFFFFFFFFFFFFFFFFFFFFFFFFFFFFFFFFFFFFFF AND PUSH4 0xA9059CBB CALLER DUP4 PUSH1 0x40 MLOAD DUP4 PUSH4 0xFFFFFFFF AND PUSH1 0xE0 SHL DUP2 MSTORE PUSH1 0x4 ADD PUSH2 0x911 SWAP3 SWAP2 SWAP1 PUSH2 0xEA6 JUMP JUMPDEST PUSH1 0x20 PUSH1 0x40 MLOAD DUP1 DUP4 SUB DUP2 PUSH1 0x0 DUP8 GAS CALL ISZERO DUP1 ISZERO PUSH2 0x930 JUMPI RETURNDATASIZE PUSH1 0x0 DUP1 RETURNDATACOPY RETURNDATASIZE PUSH1 0x0 REVERT JUMPDEST POP POP POP POP PUSH1 0x40 MLOAD RETURNDATASIZE PUSH1 0x1F NOT PUSH1 0x1F DUP3 ADD AND DUP3 ADD DUP1 PUSH1 0x40 MSTORE POP DUP2 ADD SWAP1 PUSH2 0x954 SWAP2 SWAP1 PUSH2 0xF07 JUMP JUMPDEST POP DUP1 PUSH1 0x2 PUSH1 0x0 DUP3 DUP3 SLOAD PUSH2 0x967 SWAP2 SWAP1 PUSH2 0xE63 JUMP JUMPDEST SWAP3 POP POP DUP2 SWAP1 SSTORE POP POP JUMPDEST POP JUMPDEST PUSH1 0x0 DUP1 SLOAD SWAP1 PUSH2 0x100 EXP SWAP1 DIV PUSH20 0xFFFFFFFFFFFFFFFFFFFFFFFFFFFFFFFFFFFFFFFF AND PUSH20 0xFFFFFFFFFFFFFFFFFFFFFFFFFFFFFFFFFFFFFFFF AND PUSH4 0x23B872DD CALLER ADDRESS DUP6 PUSH1 0x40 MLOAD DUP5 PUSH4 0xFFFFFFFF AND PUSH1 0xE0 SHL DUP2 MSTORE PUSH1 0x4 ADD PUSH2 0x9CF SWAP4 SWAP3 SWAP2 SWAP1 PUSH2 0xF68 JUMP JUMPDEST PUSH1 0x20 PUSH1 0x40 MLOAD DUP1 DUP4 SUB DUP2 PUSH1 0x0 DUP8 GAS CALL ISZERO DUP1 ISZERO PUSH2 0x9EE JUMPI RETURNDATASIZE PUSH1 0x0 DUP1 RETURNDATACOPY RETURNDATASIZE PUSH1 0x0 REVERT JUMPDEST POP POP POP POP PUSH1 0x40 MLOAD RETURNDATASIZE PUSH1 0x1F NOT PUSH1 0x1F DUP3 ADD AND DUP3 ADD DUP1 PUSH1 0x40 MSTORE POP DUP2 ADD SWAP1 PUSH2 0xA12 SWAP2 SWAP1 PUSH2 0xF07 JUMP JUMPDEST POP DUP2 DUP2 PUSH1 0x0 ADD PUSH1 0x0 DUP3 DUP3 SLOAD PUSH2 0xA27 SWAP2 SWAP1 PUSH2 0xF34 JUMP JUMPDEST SWAP3 POP POP DUP2 SWAP1 SSTORE POP DUP2 PUSH1 0x3 PUSH1 0x0 DUP3 DUP3 SLOAD PUSH2 0xA40 SWAP2 SWAP1 PUSH2 0xF34 JUMP JUMPDEST SWAP3 POP POP DUP2 SWAP1 SSTORE POP PUSH8 0xDE0B6B3A7640000 PUSH1 0x5 SLOAD DUP3 PUSH1 0x0 ADD SLOAD PUSH2 0xA62 SWAP2 SWAP1 PUSH2 0xDC1 JUMP JUMPDEST PUSH2 0xA6C SWAP2 SWAP1 PUSH2 0xE32 JUMP JUMPDEST DUP2 PUSH1 0x1 ADD DUP2 SWAP1 SSTORE POP POP POP JUMP JUMPDEST PUSH1 0x4 SLOAD NUMBER GT ISZERO PUSH2 0xB17 JUMPI PUSH1 0x0 PUSH1 0x3 SLOAD SUB PUSH2 0xA98 JUMPI NUMBER PUSH1 0x4 DUP2 SWAP1 SSTORE POP PUSH2 0xB17 JUMP JUMPDEST PUSH1 0x0 PUSH1 0x4 SLOAD NUMBER PUSH2 0xAA8 SWAP2 SWAP1 PUSH2 0xE63 JUMP JUMPDEST SWAP1 POP PUSH1 0x0 PUSH1 0x4 SLOAD NUMBER PUSH2 0xABA SWAP2 SWAP1 PUSH2 0xE63 JUMP JUMPDEST DUP3 PUSH1 0x2 SLOAD PUSH2 0xAC8 SWAP2 SWAP1 PUSH2 0xDC1 JUMP JUMPDEST PUSH2 0xAD2 SWAP2 SWAP1 PUSH2 0xE32 JUMP JUMPDEST SWAP1 POP PUSH1 0x3 SLOAD PUSH8 0xDE0B6B3A7640000 DUP3 PUSH2 0xAEB SWAP2 SWAP1 PUSH2 0xDC1 JUMP JUMPDEST PUSH2 0xAF5 SWAP2 SWAP1 PUSH2 0xE32 JUMP JUMPDEST PUSH1 0x5 PUSH1 0x0 DUP3 DUP3 SLOAD PUSH2 0xB06 SWAP2 SWAP1 PUSH2 0xF34 JUMP JUMPDEST SWAP3 POP POP DUP2 SWAP1 SSTORE POP NUMBER PUSH1 0x4 DUP2 SWAP1 SSTORE POP POP POP JUMPDEST JUMP JUMPDEST PUSH1 0x0 DUP2 SWAP1 POP SWAP2 SWAP1 POP JUMP JUMPDEST PUSH2 0xB2C DUP2 PUSH2 0xB19 JUMP JUMPDEST DUP3 MSTORE POP POP JUMP JUMPDEST PUSH1 0x0 PUSH1 0x20 DUP3 ADD SWAP1 POP PUSH2 0xB47 PUSH1 0x0 DUP4 ADD DUP5 PUSH2 0xB23 JUMP JUMPDEST SWAP3 SWAP2 POP POP JUMP JUMPDEST PUSH1 0x0 DUP1 REVERT JUMPDEST PUSH1 0x0 PUSH20 0xFFFFFFFFFFFFFFFFFFFFFFFFFFFFFFFFFFFFFFFF DUP3 AND SWAP1 POP SWAP2 SWAP1 POP JUMP JUMPDEST PUSH1 0x0 PUSH2 0xB7D DUP3 PUSH2 0xB52 JUMP JUMPDEST SWAP1 POP SWAP2 SWAP1 POP JUMP JUMPDEST PUSH2 0xB8D DUP2 PUSH2 0xB72 JUMP JUMPDEST DUP2 EQ PUSH2 0xB98 JUMPI PUSH1 0x0 DUP1 REVERT JUMPDEST POP JUMP JUMPDEST PUSH1 0x0 DUP2 CALLDATALOAD SWAP1 POP PUSH2 0xBAA DUP2 PUSH2 0xB84 JUMP JUMPDEST SWAP3 SWAP2 POP POP JUMP JUMPDEST PUSH1 0x0 PUSH1 0x20 DUP3 DUP5 SUB SLT ISZERO PUSH2 0xBC6 JUMPI PUSH2 0xBC5 PUSH2 0xB4D JUMP JUMPDEST JUMPDEST PUSH1 0x0 PUSH2 0xBD4 DUP5 DUP3 DUP6 ADD PUSH2 0xB9B JUMP JUMPDEST SWAP2 POP POP SWAP3 SWAP2 POP POP JUMP JUMPDEST PUSH1 0x0 PUSH1 0x40 DUP3 ADD SWAP1 POP PUSH2 0xBF2 PUSH1 0x0 DUP4 ADD DUP6 PUSH2 0xB23 JUMP JUMPDEST PUSH2 0xBFF PUSH1 0x20 DUP4 ADD DUP5 PUSH2 0xB23 JUMP JUMPDEST SWAP4 SWAP3 POP POP POP JUMP JUMPDEST PUSH2 0xC0F DUP2 PUSH2 0xB19 JUMP JUMPDEST DUP2 EQ PUSH2 0xC1A JUMPI PUSH1 0x0 DUP1 REVERT JUMPDEST POP JUMP JUMPDEST PUSH1 0x0 DUP2 CALLDATALOAD SWAP1 POP PUSH2 0xC2C DUP2 PUSH2 0xC06 JUMP JUMPDEST SWAP3 SWAP2 POP POP JUMP JUMPDEST PUSH1 0x0 PUSH1 0x20 DUP3 DUP5 SUB SLT ISZERO PUSH2 0xC48 JUMPI PUSH2 0xC47 PUSH2 0xB4D JUMP JUMPDEST JUMPDEST PUSH1 0x0 PUSH2 0xC56 DUP5 DUP3 DUP6 ADD PUSH2 0xC1D JUMP JUMPDEST SWAP2 POP POP SWAP3 SWAP2 POP POP JUMP JUMPDEST PUSH1 0x0 DUP2 SWAP1 POP SWAP2 SWAP1 POP JUMP JUMPDEST PUSH1 0x0 PUSH2 0xC84 PUSH2 0xC7F PUSH2 0xC7A DUP5 PUSH2 0xB52 JUMP JUMPDEST PUSH2 0xC5F JUMP JUMPDEST PUSH2 0xB52 JUMP JUMPDEST SWAP1 POP SWAP2 SWAP1 POP JUMP JUMPDEST PUSH1 0x0 PUSH2 0xC96 DUP3 PUSH2 0xC69 JUMP JUMPDEST SWAP1 POP SWAP2 SWAP1 POP JUMP JUMPDEST PUSH1 0x0 PUSH2 0xCA8 DUP3 PUSH2 0xC8B JUMP JUMPDEST SWAP1 POP SWAP2 SWAP1 POP JUMP JUMPDEST PUSH2 0xCB8 DUP2 PUSH2 0xC9D JUMP JUMPDEST DUP3 MSTORE POP POP JUMP JUMPDEST PUSH1 0x0 PUSH1 0x20 DUP3 ADD SWAP1 POP PUSH2 0xCD3 PUSH1 0x0 DUP4 ADD DUP5 PUSH2 0xCAF JUMP JUMPDEST SWAP3 SWAP2 POP POP JUMP JUMPDEST PUSH1 0x0 PUSH2 0xCE4 DUP3 PUSH2 0xC8B JUMP JUMPDEST SWAP1 POP SWAP2 SWAP1 POP JUMP JUMPDEST PUSH2 0xCF4 DUP2 PUSH2 0xCD9 JUMP JUMPDEST DUP3 MSTORE POP POP JUMP JUMPDEST PUSH1 0x0 PUSH1 0x20 DUP3 ADD SWAP1 POP PUSH2 0xD0F PUSH1 0x0 DUP4 ADD DUP5 PUSH2 0xCEB JUMP JUMPDEST SWAP3 SWAP2 POP POP JUMP JUMPDEST PUSH1 0x0 DUP3 DUP3 MSTORE PUSH1 0x20 DUP3 ADD SWAP1 POP SWAP3 SWAP2 POP POP JUMP JUMPDEST PUSH32 0x4E6F7420656E6F756768207374616B656420746F6B656E730000000000000000 PUSH1 0x0 DUP3 ADD MSTORE POP JUMP JUMPDEST PUSH1 0x0 PUSH2 0xD5C PUSH1 0x18 DUP4 PUSH2 0xD15 JUMP JUMPDEST SWAP2 POP PUSH2 0xD67 DUP3 PUSH2 0xD26 JUMP JUMPDEST PUSH1 0x20 DUP3 ADD SWAP1 POP SWAP2 SWAP1 POP JUMP JUMPDEST PUSH1 0x0 PUSH1 0x20 DUP3 ADD SWAP1 POP DUP2 DUP2 SUB PUSH1 0x0 DUP4 ADD MSTORE PUSH2 0xD8B DUP2 PUSH2 0xD4F JUMP JUMPDEST SWAP1 POP SWAP2 SWAP1 POP JUMP JUMPDEST PUSH32 0x4E487B7100000000000000000000000000000000000000000000000000000000 PUSH1 0x0 MSTORE PUSH1 0x11 PUSH1 0x4 MSTORE PUSH1 0x24 PUSH1 0x0 REVERT JUMPDEST PUSH1 0x0 PUSH2 0xDCC DUP3 PUSH2 0xB19 JUMP JUMPDEST SWAP2 POP PUSH2 0xDD7 DUP4 PUSH2 0xB19 JUMP JUMPDEST SWAP3 POP DUP3 DUP3 MUL PUSH2 0xDE5 DUP2 PUSH2 0xB19 JUMP JUMPDEST SWAP2 POP DUP3 DUP3 DIV DUP5 EQ DUP4 ISZERO OR PUSH2 0xDFC JUMPI PUSH2 0xDFB PUSH2 0xD92 JUMP JUMPDEST JUMPDEST POP SWAP3 SWAP2 POP POP JUMP JUMPDEST PUSH32 0x4E487B7100000000000000000000000000000000000000000000000000000000 PUSH1 0x0 MSTORE PUSH1 0x12 PUSH1 0x4 MSTORE PUSH1 0x24 PUSH1 0x0 REVERT JUMPDEST PUSH1 0x0 PUSH2 0xE3D DUP3 PUSH2 0xB19 JUMP JUMPDEST SWAP2 POP PUSH2 0xE48 DUP4 PUSH2 0xB19 JUMP JUMPDEST SWAP3 POP DUP3 PUSH2 0xE58 JUMPI PUSH2 0xE57 PUSH2 0xE03 JUMP JUMPDEST JUMPDEST DUP3 DUP3 DIV SWAP1 POP SWAP3 SWAP2 POP POP JUMP JUMPDEST PUSH1 0x0 PUSH2 0xE6E DUP3 PUSH2 0xB19 JUMP JUMPDEST SWAP2 POP PUSH2 0xE79 DUP4 PUSH2 0xB19 JUMP JUMPDEST SWAP3 POP DUP3 DUP3 SUB SWAP1 POP DUP2 DUP2 GT ISZERO PUSH2 0xE91 JUMPI PUSH2 0xE90 PUSH2 0xD92 JUMP JUMPDEST JUMPDEST SWAP3 SWAP2 POP POP JUMP JUMPDEST PUSH2 0xEA0 DUP2 PUSH2 0xB72 JUMP JUMPDEST DUP3 MSTORE POP POP JUMP JUMPDEST PUSH1 0x0 PUSH1 0x40 DUP3 ADD SWAP1 POP PUSH2 0xEBB PUSH1 0x0 DUP4 ADD DUP6 PUSH2 0xE97 JUMP JUMPDEST PUSH2 0xEC8 PUSH1 0x20 DUP4 ADD DUP5 PUSH2 0xB23 JUMP JUMPDEST SWAP4 SWAP3 POP POP POP JUMP JUMPDEST PUSH1 0x0 DUP2 ISZERO ISZERO SWAP1 POP SWAP2 SWAP1 POP JUMP JUMPDEST PUSH2 0xEE4 DUP2 PUSH2 0xECF JUMP JUMPDEST DUP2 EQ PUSH2 0xEEF JUMPI PUSH1 0x0 DUP1 REVERT JUMPDEST POP JUMP JUMPDEST PUSH1 0x0 DUP2 MLOAD SWAP1 POP PUSH2 0xF01 DUP2 PUSH2 0xEDB JUMP JUMPDEST SWAP3 SWAP2 POP POP JUMP JUMPDEST PUSH1 0x0 PUSH1 0x20 DUP3 DUP5 SUB SLT ISZERO PUSH2 0xF1D JUMPI PUSH2 0xF1C PUSH2 0xB4D JUMP JUMPDEST JUMPDEST PUSH1 0x0 PUSH2 0xF2B DUP5 DUP3 DUP6 ADD PUSH2 0xEF2 JUMP JUMPDEST SWAP2 POP POP SWAP3 SWAP2 POP POP JUMP JUMPDEST PUSH1 0x0 PUSH2 0xF3F DUP3 PUSH2 0xB19 JUMP JUMPDEST SWAP2 POP PUSH2 0xF4A DUP4 PUSH2 0xB19 JUMP JUMPDEST SWAP3 POP DUP3 DUP3 ADD SWAP1 POP DUP1 DUP3 GT ISZERO PUSH2 0xF62 JUMPI PUSH2 0xF61 PUSH2 0xD92 JUMP JUMPDEST JUMPDEST SWAP3 SWAP2 POP POP JUMP JUMPDEST PUSH1 0x0 PUSH1 0x60 DUP3 ADD SWAP1 POP PUSH2 0xF7D PUSH1 0x0 DUP4 ADD DUP7 PUSH2 0xE97 JUMP JUMPDEST PUSH2 0xF8A PUSH1 0x20 DUP4 ADD DUP6 PUSH2 0xE97 JUMP JUMPDEST PUSH2 0xF97 PUSH1 0x40 DUP4 ADD DUP5 PUSH2 0xB23 JUMP JUMPDEST SWAP5 SWAP4 POP POP POP POP JUMP INVALID LOG2 PUSH5 0x6970667358 0x22 SLT KECCAK256 0x2B TIMESTAMP PC LT 0xAA PUSH19 0x297678C95B7C4F2974530238CF49B24858860B 0x2C EXTCODEHASH 0xE2 0x4E 0x4B SWAP10 0xB6 PUSH5 0x736F6C6343 STOP ADDMOD SGT STOP CALLER "
		},
		"gasEstimates": {
			"creation": {
				"codeDepositCost": "810600",
				"executionCost": "infinite",
				"totalCost": "infinite"
			},
			"external": {
				"accRewardPerShare()": "2473",
				"claimRewards()": "infinite",
				"deposit(uint256)": "infinite",
				"gem()": "infinite",
				"getPendingReward(address)": "infinite",
				"lastUpdateBlock()": "2495",
				"lpToken()": "infinite",
				"totalRewardPool()": "2430",
				"totalStaked()": "2451",
				"updatePool()": "infinite",
				"userInfo(address)": "infinite",
				"withdraw(uint256)": "infinite"
			}
		},
		"methodIdentifiers": {
			"accRewardPerShare()": "939d6237",
			"claimRewards()": "372500ab",
			"deposit(uint256)": "b6b55f25",
			"gem()": "7bd2bea7",
			"getPendingReward(address)": "4df9d6ba",
			"lastUpdateBlock()": "a218141b",
			"lpToken()": "5fcbd285",
			"totalRewardPool()": "09c85e24",
			"totalStaked()": "817b1cd2",
			"updatePool()": "e3161ddd",
			"userInfo(address)": "1959a002",
			"withdraw(uint256)": "2e1a7d4d"
		}
	},
	"abi": [
		{
			"inputs": [
				{
					"internalType": "address",
					"name": "_lpToken",
					"type": "address"
				},
				{
					"internalType": "address",
					"name": "_rewardToken",
					"type": "address"
				},
				{
					"internalType": "uint256",
					"name": "_rewardPool",
					"type": "uint256"
				}
			],
			"stateMutability": "nonpayable",
			"type": "constructor"
		},
		{
			"anonymous": false,
			"inputs": [
				{
					"indexed": true,
					"internalType": "address",
					"name": "user",
					"type": "address"
				},
				{
					"indexed": false,
					"internalType": "uint256",
					"name": "reward",
					"type": "uint256"
				}
			],
			"name": "ClaimReward",
			"type": "event"
		},
		{
			"anonymous": false,
			"inputs": [
				{
					"indexed": true,
					"internalType": "address",
					"name": "user",
					"type": "address"
				},
				{
					"indexed": false,
					"internalType": "uint256",
					"name": "amount",
					"type": "uint256"
				}
			],
			"name": "Deposit",
			"type": "event"
		},
		{
			"anonymous": false,
			"inputs": [
				{
					"indexed": true,
					"internalType": "address",
					"name": "user",
					"type": "address"
				},
				{
					"indexed": false,
					"internalType": "uint256",
					"name": "amount",
					"type": "uint256"
				}
			],
			"name": "RewardClaimed",
			"type": "event"
		},
		{
			"anonymous": false,
			"inputs": [
				{
					"indexed": true,
					"internalType": "address",
					"name": "user",
					"type": "address"
				},
				{
					"indexed": false,
					"internalType": "uint256",
					"name": "amount",
					"type": "uint256"
				}
			],
			"name": "Withdraw",
			"type": "event"
		},
		{
			"inputs": [],
			"name": "accRewardPerShare",
			"outputs": [
				{
					"internalType": "uint256",
					"name": "",
					"type": "uint256"
				}
			],
			"stateMutability": "view",
			"type": "function"
		},
		{
			"inputs": [],
			"name": "claimRewards",
			"outputs": [],
			"stateMutability": "nonpayable",
			"type": "function"
		},
		{
			"inputs": [
				{
					"internalType": "uint256",
					"name": "amount",
					"type": "uint256"
				}
			],
			"name": "deposit",
			"outputs": [],
			"stateMutability": "nonpayable",
			"type": "function"
		},
		{
			"inputs": [],
			"name": "gem",
			"outputs": [
				{
					"internalType": "contract Gem",
					"name": "",
					"type": "address"
				}
			],
			"stateMutability": "view",
			"type": "function"
		},
		{
			"inputs": [
				{
					"internalType": "address",
					"name": "_user",
					"type": "address"
				}
			],
			"name": "getPendingReward",
			"outputs": [
				{
					"internalType": "uint256",
					"name": "",
					"type": "uint256"
				}
			],
			"stateMutability": "view",
			"type": "function"
		},
		{
			"inputs": [],
			"name": "lastUpdateBlock",
			"outputs": [
				{
					"internalType": "uint256",
					"name": "",
					"type": "uint256"
				}
			],
			"stateMutability": "view",
			"type": "function"
		},
		{
			"inputs": [],
			"name": "lpToken",
			"outputs": [
				{
					"internalType": "contract ERC20",
					"name": "",
					"type": "address"
				}
			],
			"stateMutability": "view",
			"type": "function"
		},
		{
			"inputs": [],
			"name": "totalRewardPool",
			"outputs": [
				{
					"internalType": "uint256",
					"name": "",
					"type": "uint256"
				}
			],
			"stateMutability": "view",
			"type": "function"
		},
		{
			"inputs": [],
			"name": "totalStaked",
			"outputs": [
				{
					"internalType": "uint256",
					"name": "",
					"type": "uint256"
				}
			],
			"stateMutability": "view",
			"type": "function"
		},
		{
			"inputs": [],
			"name": "updatePool",
			"outputs": [],
			"stateMutability": "nonpayable",
			"type": "function"
		},
		{
			"inputs": [
				{
					"internalType": "address",
					"name": "",
					"type": "address"
				}
			],
			"name": "userInfo",
			"outputs": [
				{
					"internalType": "uint256",
					"name": "stakedAmount",
					"type": "uint256"
				},
				{
					"internalType": "uint256",
					"name": "rewardDebt",
					"type": "uint256"
				}
			],
			"stateMutability": "view",
			"type": "function"
		},
		{
			"inputs": [
				{
					"internalType": "uint256",
					"name": "amount",
					"type": "uint256"
				}
			],
			"name": "withdraw",
			"outputs": [],
			"stateMutability": "nonpayable",
			"type": "function"
		}
	]
}