{
  "contractName": "BeastCard",
  "abi": [
    {
      "inputs": [
        {
          "internalType": "contract Gem",
          "name": "gemAddress",
          "type": "address"
        },
        {
          "internalType": "string",
          "name": "_name",
          "type": "string"
        },
        {
          "internalType": "string",
          "name": "_symbol",
          "type": "string"
        }
      ],
      "stateMutability": "nonpayable",
      "type": "constructor"
    },
    {
      "anonymous": false,
      "inputs": [
        {
          "indexed": true,
          "internalType": "address",
          "name": "_owner",
          "type": "address"
        },
        {
          "indexed": true,
          "internalType": "address",
          "name": "_approved",
          "type": "address"
        },
        {
          "indexed": true,
          "internalType": "uint256",
          "name": "_tokenId",
          "type": "uint256"
        }
      ],
      "name": "Approval",
      "type": "event"
    },
    {
      "anonymous": false,
      "inputs": [
        {
          "indexed": true,
          "internalType": "address",
          "name": "_owner",
          "type": "address"
        },
        {
          "indexed": true,
          "internalType": "address",
          "name": "_operator",
          "type": "address"
        },
        {
          "indexed": false,
          "internalType": "bool",
          "name": "_approved",
          "type": "bool"
        }
      ],
      "name": "ApprovalForAll",
      "type": "event"
    },
    {
      "anonymous": false,
      "inputs": [
        {
          "indexed": true,
          "internalType": "address",
          "name": "_from",
          "type": "address"
        },
        {
          "indexed": true,
          "internalType": "address",
          "name": "_to",
          "type": "address"
        },
        {
          "indexed": true,
          "internalType": "uint256",
          "name": "_tokenId",
          "type": "uint256"
        }
      ],
      "name": "Transfer",
      "type": "event"
    },
    {
      "inputs": [],
      "name": "baseURI",
      "outputs": [
        {
          "internalType": "string",
          "name": "",
          "type": "string"
        }
      ],
      "stateMutability": "view",
      "type": "function"
    },
    {
      "inputs": [],
      "name": "collectionName",
      "outputs": [
        {
          "internalType": "string",
          "name": "",
          "type": "string"
        }
      ],
      "stateMutability": "view",
      "type": "function"
    },
    {
      "inputs": [],
      "name": "collectionSymbol",
      "outputs": [
        {
          "internalType": "string",
          "name": "",
          "type": "string"
        }
      ],
      "stateMutability": "view",
      "type": "function"
    },
    {
      "inputs": [],
      "name": "contractOwner",
      "outputs": [
        {
          "internalType": "address",
          "name": "",
          "type": "address"
        }
      ],
      "stateMutability": "view",
      "type": "function"
    },
    {
      "inputs": [],
      "name": "maxTokens",
      "outputs": [
        {
          "internalType": "uint256",
          "name": "",
          "type": "uint256"
        }
      ],
      "stateMutability": "view",
      "type": "function"
    },
    {
      "inputs": [],
      "name": "nextTokenIdToMint",
      "outputs": [
        {
          "internalType": "uint256",
          "name": "",
          "type": "uint256"
        }
      ],
      "stateMutability": "view",
      "type": "function"
    },
    {
      "inputs": [],
      "name": "name",
      "outputs": [
        {
          "internalType": "string",
          "name": "",
          "type": "string"
        }
      ],
      "stateMutability": "view",
      "type": "function"
    },
    {
      "inputs": [],
      "name": "symbol",
      "outputs": [
        {
          "internalType": "string",
          "name": "",
          "type": "string"
        }
      ],
      "stateMutability": "view",
      "type": "function"
    },
    {
      "inputs": [
        {
          "internalType": "uint256",
          "name": "_tokenId",
          "type": "uint256"
        }
      ],
      "name": "tokenURI",
      "outputs": [
        {
          "internalType": "string",
          "name": "",
          "type": "string"
        }
      ],
      "stateMutability": "view",
      "type": "function"
    },
    {
      "inputs": [
        {
          "internalType": "uint256",
          "name": "_cardId",
          "type": "uint256"
        }
      ],
      "name": "cardDestroyed",
      "outputs": [],
      "stateMutability": "nonpayable",
      "type": "function"
    },
    {
      "inputs": [
        {
          "internalType": "uint256",
          "name": "_cardId",
          "type": "uint256"
        }
      ],
      "name": "restoreCard",
      "outputs": [],
      "stateMutability": "nonpayable",
      "type": "function"
    },
    {
      "inputs": [
        {
          "internalType": "uint256",
          "name": "_cardId",
          "type": "uint256"
        }
      ],
      "name": "attackOf",
      "outputs": [
        {
          "internalType": "uint256",
          "name": "",
          "type": "uint256"
        }
      ],
      "stateMutability": "view",
      "type": "function"
    },
    {
      "inputs": [
        {
          "internalType": "uint256",
          "name": "_cardId",
          "type": "uint256"
        }
      ],
      "name": "healthOf",
      "outputs": [
        {
          "internalType": "uint256",
          "name": "",
          "type": "uint256"
        }
      ],
      "stateMutability": "view",
      "type": "function"
    },
    {
      "inputs": [
        {
          "internalType": "uint256",
          "name": "_cardId",
          "type": "uint256"
        }
      ],
      "name": "stateOf",
      "outputs": [
        {
          "internalType": "enum BeastCard.cardState",
          "name": "",
          "type": "uint8"
        }
      ],
      "stateMutability": "view",
      "type": "function"
    },
    {
      "inputs": [
        {
          "internalType": "uint256",
          "name": "_cardId",
          "type": "uint256"
        }
      ],
      "name": "costOf",
      "outputs": [
        {
          "internalType": "uint256",
          "name": "",
          "type": "uint256"
        }
      ],
      "stateMutability": "view",
      "type": "function"
    },
    {
      "inputs": [
        {
          "internalType": "uint256",
          "name": "_cardId",
          "type": "uint256"
        }
      ],
      "name": "natureOf",
      "outputs": [
        {
          "internalType": "string",
          "name": "",
          "type": "string"
        }
      ],
      "stateMutability": "view",
      "type": "function"
    },
    {
      "inputs": [
        {
          "internalType": "uint256",
          "name": "_cardId",
          "type": "uint256"
        }
      ],
      "name": "nameOf",
      "outputs": [
        {
          "internalType": "string",
          "name": "",
          "type": "string"
        }
      ],
      "stateMutability": "view",
      "type": "function"
    },
    {
      "inputs": [
        {
          "internalType": "uint256",
          "name": "_cardId",
          "type": "uint256"
        }
      ],
      "name": "rarityOf",
      "outputs": [
        {
          "internalType": "string",
          "name": "",
          "type": "string"
        }
      ],
      "stateMutability": "view",
      "type": "function"
    },
    {
      "inputs": [
        {
          "internalType": "address",
          "name": "_owner",
          "type": "address"
        }
      ],
      "name": "balanceOf",
      "outputs": [
        {
          "internalType": "uint256",
          "name": "",
          "type": "uint256"
        }
      ],
      "stateMutability": "view",
      "type": "function"
    },
    {
      "inputs": [
        {
          "internalType": "uint256",
          "name": "_tokenId",
          "type": "uint256"
        }
      ],
      "name": "ownerOf",
      "outputs": [
        {
          "internalType": "address",
          "name": "",
          "type": "address"
        }
      ],
      "stateMutability": "view",
      "type": "function"
    },
    {
      "inputs": [
        {
          "internalType": "uint256",
          "name": "myCard",
          "type": "uint256"
        },
        {
          "internalType": "uint256",
          "name": "enemyCard",
          "type": "uint256"
        }
      ],
      "name": "effective",
      "outputs": [
        {
          "internalType": "bool",
          "name": "",
          "type": "bool"
        }
      ],
      "stateMutability": "view",
      "type": "function"
    },
    {
      "inputs": [
        {
          "internalType": "address",
          "name": "_from",
          "type": "address"
        },
        {
          "internalType": "address",
          "name": "_to",
          "type": "address"
        },
        {
          "internalType": "uint256",
          "name": "_tokenId",
          "type": "uint256"
        }
      ],
      "name": "safeTransferFrom",
      "outputs": [],
      "stateMutability": "payable",
      "type": "function"
    },
    {
      "inputs": [
        {
          "internalType": "address",
          "name": "_from",
          "type": "address"
        },
        {
          "internalType": "address",
          "name": "_to",
          "type": "address"
        },
        {
          "internalType": "uint256",
          "name": "_tokenId",
          "type": "uint256"
        },
        {
          "internalType": "bytes",
          "name": "_data",
          "type": "bytes"
        }
      ],
      "name": "safeTransferFrom",
      "outputs": [],
      "stateMutability": "payable",
      "type": "function"
    },
    {
      "inputs": [
        {
          "internalType": "address",
          "name": "_from",
          "type": "address"
        },
        {
          "internalType": "address",
          "name": "_to",
          "type": "address"
        },
        {
          "internalType": "uint256",
          "name": "_tokenId",
          "type": "uint256"
        }
      ],
      "name": "transferFrom",
      "outputs": [],
      "stateMutability": "payable",
      "type": "function"
    },
    {
      "inputs": [
        {
          "internalType": "address",
          "name": "_approved",
          "type": "address"
        },
        {
          "internalType": "uint256",
          "name": "_tokenId",
          "type": "uint256"
        }
      ],
      "name": "approve",
      "outputs": [],
      "stateMutability": "payable",
      "type": "function"
    },
    {
      "inputs": [
        {
          "internalType": "address",
          "name": "_operator",
          "type": "address"
        },
        {
          "internalType": "bool",
          "name": "_approved",
          "type": "bool"
        }
      ],
      "name": "setApprovalForAll",
      "outputs": [],
      "stateMutability": "nonpayable",
      "type": "function"
    },
    {
      "inputs": [
        {
          "internalType": "uint256",
          "name": "_tokenId",
          "type": "uint256"
        }
      ],
      "name": "getApproved",
      "outputs": [
        {
          "internalType": "address",
          "name": "",
          "type": "address"
        }
      ],
      "stateMutability": "view",
      "type": "function"
    },
    {
      "inputs": [
        {
          "internalType": "address",
          "name": "_owner",
          "type": "address"
        },
        {
          "internalType": "address",
          "name": "_operator",
          "type": "address"
        }
      ],
      "name": "isApprovedForAll",
      "outputs": [
        {
          "internalType": "bool",
          "name": "",
          "type": "bool"
        }
      ],
      "stateMutability": "view",
      "type": "function"
    },
    {
      "inputs": [
        {
          "internalType": "address",
          "name": "_to",
          "type": "address"
        },
        {
          "internalType": "string",
          "name": "bname",
          "type": "string"
        },
        {
          "internalType": "string",
          "name": "rarity",
          "type": "string"
        },
        {
          "internalType": "string",
          "name": "nature",
          "type": "string"
        },
        {
          "internalType": "uint256",
          "name": "cost",
          "type": "uint256"
        },
        {
          "internalType": "uint256",
          "name": "attack",
          "type": "uint256"
        },
        {
          "internalType": "uint256",
          "name": "health",
          "type": "uint256"
        }
      ],
      "name": "mint",
      "outputs": [],
      "stateMutability": "nonpayable",
      "type": "function"
    },
    {
      "inputs": [],
      "name": "totalSupply",
      "outputs": [
        {
          "internalType": "uint256",
          "name": "",
          "type": "uint256"
        }
      ],
      "stateMutability": "view",
      "type": "function"
    },
    {
      "inputs": [],
      "name": "withdraw",
      "outputs": [],
      "stateMutability": "nonpayable",
      "type": "function"
    },
    {
      "inputs": [
        {
          "internalType": "string",
          "name": "a",
          "type": "string"
        },
        {
          "internalType": "string",
          "name": "b",
          "type": "string"
        }
      ],
      "name": "compareStrings",
      "outputs": [
        {
          "internalType": "bool",
          "name": "",
          "type": "bool"
        }
      ],
      "stateMutability": "pure",
      "type": "function"
    },
    {
      "inputs": [],
      "name": "isContract",
      "outputs": [
        {
          "internalType": "bool",
          "name": "",
          "type": "bool"
        }
      ],
      "stateMutability": "view",
      "type": "function"
    }
  ],
  "bytecode": "0x60806040523480156200001157600080fd5b50604051620048063803806200480683398181016040528101906200003791906200032d565b826000806101000a81548173ffffffffffffffffffffffffffffffffffffffff021916908373ffffffffffffffffffffffffffffffffffffffff160217905550816001908162000088919062000612565b5080600290816200009a919062000612565b50604051806080016040528060518152602001620047b56051913960039081620000c5919062000612565b5060006004819055506103e860058190555033600660006101000a81548173ffffffffffffffffffffffffffffffffffffffff021916908373ffffffffffffffffffffffffffffffffffffffff160217905550505050620006f9565b6000604051905090565b600080fd5b600080fd5b600073ffffffffffffffffffffffffffffffffffffffff82169050919050565b6000620001628262000135565b9050919050565b6000620001768262000155565b9050919050565b620001888162000169565b81146200019457600080fd5b50565b600081519050620001a8816200017d565b92915050565b600080fd5b600080fd5b6000601f19601f8301169050919050565b7f4e487b7100000000000000000000000000000000000000000000000000000000600052604160045260246000fd5b6200020382620001b8565b810181811067ffffffffffffffff82111715620002255762000224620001c9565b5b80604052505050565b60006200023a62000121565b9050620002488282620001f8565b919050565b600067ffffffffffffffff8211156200026b576200026a620001c9565b5b6200027682620001b8565b9050602081019050919050565b60005b83811015620002a357808201518184015260208101905062000286565b60008484015250505050565b6000620002c6620002c0846200024d565b6200022e565b905082815260208101848484011115620002e557620002e4620001b3565b5b620002f284828562000283565b509392505050565b600082601f830112620003125762000311620001ae565b5b815162000324848260208601620002af565b91505092915050565b6000806000606084860312156200034957620003486200012b565b5b6000620003598682870162000197565b935050602084015167ffffffffffffffff8111156200037d576200037c62000130565b5b6200038b86828701620002fa565b925050604084015167ffffffffffffffff811115620003af57620003ae62000130565b5b620003bd86828701620002fa565b9150509250925092565b600081519050919050565b7f4e487b7100000000000000000000000000000000000000000000000000000000600052602260045260246000fd5b600060028204905060018216806200041a57607f821691505b60208210810362000430576200042f620003d2565b5b50919050565b60008190508160005260206000209050919050565b60006020601f8301049050919050565b600082821b905092915050565b6000600883026200049a7fffffffffffffffffffffffffffffffffffffffffffffffffffffffffffffffff826200045b565b620004a686836200045b565b95508019841693508086168417925050509392505050565b6000819050919050565b6000819050919050565b6000620004f3620004ed620004e784620004be565b620004c8565b620004be565b9050919050565b6000819050919050565b6200050f83620004d2565b620005276200051e82620004fa565b84845462000468565b825550505050565b600090565b6200053e6200052f565b6200054b81848462000504565b505050565b5b8181101562000573576200056760008262000534565b60018101905062000551565b5050565b601f821115620005c2576200058c8162000436565b62000597846200044b565b81016020851015620005a7578190505b620005bf620005b6856200044b565b83018262000550565b50505b505050565b600082821c905092915050565b6000620005e760001984600802620005c7565b1980831691505092915050565b6000620006028383620005d4565b9150826002028217905092915050565b6200061d82620003c7565b67ffffffffffffffff811115620006395762000638620001c9565b5b62000645825462000401565b6200065282828562000577565b600060209050601f8311600181146200068a576000841562000675578287015190505b620006818582620005f4565b865550620006f1565b601f1984166200069a8662000436565b60005b82811015620006c4578489015182556001820191506020850194506020810190506200069d565b86831015620006e45784890151620006e0601f891682620005d4565b8355505b6001600288020188555050505b505050505050565b6140ac80620007096000396000f3fe6080604052600436106101ee5760003560e01c806370a082311161010d578063c63868b9116100a0578063e5326ab11161006f578063e5326ab114610727578063e831574214610752578063e985e9c51461077d578063f7ec2f35146107ba578063fd326592146107e5576101ee565b8063c63868b914610659578063c87b56dd14610682578063ce606ee0146106bf578063dd3b5f9a146106ea576101ee565b8063a22cb465116100dc578063a22cb4651461059a578063b88d4fde146105c3578063bda91833146105df578063bed34bba1461061c576101ee565b806370a08231146104cc5780637185d3d0146105095780638fbeff231461053257806395d89b411461056f576101ee565b806323b872dd1161018557806342842e0e1161015457806342842e0e1461040b5780634c1b02c0146104275780636352211e146104645780636c0360eb146104a1576101ee565b806323b872dd146103825780632f39352a1461039e5780633b1475a7146103c95780633ccfd60b146103f4576101ee565b8063095ea7b3116101c1578063095ea7b3146102d5578063131a7e24146102f157806318160ddd1461032e57806318f239ca14610359576101ee565b80630374e945146101f3578063051a26641461023057806306fdde031461026d578063081812fc14610298575b600080fd5b3480156101ff57600080fd5b5061021a60048036038101906102159190612a51565b610822565b6040516102279190612a8d565b60405180910390f35b34801561023c57600080fd5b5061025760048036038101906102529190612a51565b610842565b6040516102649190612b38565b60405180910390f35b34801561027957600080fd5b506102826108ea565b60405161028f9190612b38565b60405180910390f35b3480156102a457600080fd5b506102bf60048036038101906102ba9190612a51565b61097c565b6040516102cc9190612b9b565b60405180910390f35b6102ef60048036038101906102ea9190612be2565b6109b9565b005b3480156102fd57600080fd5b5061031860048036038101906103139190612a51565b610ae8565b6040516103259190612c99565b60405180910390f35b34801561033a57600080fd5b50610343610b12565b6040516103509190612a8d565b60405180910390f35b34801561036557600080fd5b50610380600480360381019061037b9190612a51565b610b1c565b005b61039c60048036038101906103979190612cb4565b611072565b005b3480156103aa57600080fd5b506103b36111fa565b6040516103c09190612b38565b60405180910390f35b3480156103d557600080fd5b506103de611288565b6040516103eb9190612a8d565b60405180910390f35b34801561040057600080fd5b5061040961128e565b005b61042560048036038101906104209190612cb4565b6113e6565b005b34801561043357600080fd5b5061044e60048036038101906104499190612a51565b611406565b60405161045b9190612a8d565b60405180910390f35b34801561047057600080fd5b5061048b60048036038101906104869190612a51565b611426565b6040516104989190612b9b565b60405180910390f35b3480156104ad57600080fd5b506104b6611463565b6040516104c39190612b38565b60405180910390f35b3480156104d857600080fd5b506104f360048036038101906104ee9190612d07565b6114f1565b6040516105009190612a8d565b60405180910390f35b34801561051557600080fd5b50610530600480360381019061052b9190612a51565b6115a8565b005b34801561053e57600080fd5b5061055960048036038101906105549190612d34565b61162e565b6040516105669190612d8f565b60405180910390f35b34801561057b57600080fd5b50610584611932565b6040516105919190612b38565b60405180910390f35b3480156105a657600080fd5b506105c160048036038101906105bc9190612dd6565b6119c4565b005b6105dd60048036038101906105d89190612f4b565b611ac1565b005b3480156105eb57600080fd5b5061060660048036038101906106019190612a51565b611c95565b6040516106139190612b38565b60405180910390f35b34801561062857600080fd5b50610643600480360381019061063e919061306f565b611d3d565b6040516106509190612d8f565b60405180910390f35b34801561066557600080fd5b50610680600480360381019061067b91906130e7565b611d96565b005b34801561068e57600080fd5b506106a960048036038101906106a49190612a51565b612172565b6040516106b69190612b38565b60405180910390f35b3480156106cb57600080fd5b506106d4612217565b6040516106e19190612b9b565b60405180910390f35b3480156106f657600080fd5b50610711600480360381019061070c9190612a51565b61223d565b60405161071e9190612b38565b60405180910390f35b34801561073357600080fd5b5061073c6122e5565b6040516107499190612b38565b60405180910390f35b34801561075e57600080fd5b50610767612373565b6040516107749190612a8d565b60405180910390f35b34801561078957600080fd5b506107a4600480360381019061079f91906131dd565b612379565b6040516107b19190612d8f565b60405180910390f35b3480156107c657600080fd5b506107cf61240d565b6040516107dc9190612d8f565b60405180910390f35b3480156107f157600080fd5b5061080c60048036038101906108079190612a51565b61242a565b6040516108199190612a8d565b60405180910390f35b6000600b6000838152602001908152602001600020600501549050919050565b6060600b600083815260200190815260200160002060010180546108659061324c565b80601f01602080910402602001604051908101604052809291908181526020018280546108919061324c565b80156108de5780601f106108b3576101008083540402835291602001916108de565b820191906000526020600020905b8154815290600101906020018083116108c157829003601f168201915b50505050509050919050565b6060600180546108f99061324c565b80601f01602080910402602001604051908101604052809291908181526020018280546109259061324c565b80156109725780601f1061094757610100808354040283529160200191610972565b820191906000526020600020905b81548152906001019060200180831161095557829003601f168201915b5050505050905090565b60006009600083815260200190815260200160002060009054906101000a900473ffffffffffffffffffffffffffffffffffffffff169050919050565b3373ffffffffffffffffffffffffffffffffffffffff166109d982611426565b73ffffffffffffffffffffffffffffffffffffffff1614610a2f576040517f08c379a0000000000000000000000000000000000000000000000000000000008152600401610a26906132c9565b60405180910390fd5b816009600083815260200190815260200160002060006101000a81548173ffffffffffffffffffffffffffffffffffffffff021916908373ffffffffffffffffffffffffffffffffffffffff160217905550808273ffffffffffffffffffffffffffffffffffffffff16610aa283611426565b73ffffffffffffffffffffffffffffffffffffffff167f8c5be1e5ebec7d5bd14f71427d1e84f3dd0314c0f7b2291e5b200ac8c7c3b92560405160405180910390a45050565b6000600c600083815260200190815260200160002060009054906101000a900460ff169050919050565b6000600454905090565b3373ffffffffffffffffffffffffffffffffffffffff166007600083815260200190815260200160002060009054906101000a900473ffffffffffffffffffffffffffffffffffffffff1673ffffffffffffffffffffffffffffffffffffffff1614610bbd576040517f08c379a0000000000000000000000000000000000000000000000000000000008152600401610bb4906132c9565b60405180910390fd5b60006001811115610bd157610bd0612c22565b5b600c600083815260200190815260200160002060009054906101000a900460ff166001811115610c0457610c03612c22565b5b14610c44576040517f08c379a0000000000000000000000000000000000000000000000000000000008152600401610c3b90613335565b60405180910390fd5b6000600b60008381526020019081526020016000206002018054610c679061324c565b80601f0160208091040260200160405190810160405280929190818152602001828054610c939061324c565b8015610ce05780601f10610cb557610100808354040283529160200191610ce0565b820191906000526020600020905b815481529060010190602001808311610cc357829003601f168201915b50505050509050610d26816040518060400160405280600981526020017f4c6567656e646172790000000000000000000000000000000000000000000000815250611d3d565b15610dc95760008054906101000a900473ffffffffffffffffffffffffffffffffffffffff1673ffffffffffffffffffffffffffffffffffffffff16632a73ac1f333060086040518463ffffffff1660e01b8152600401610d899392919061339a565b600060405180830381600087803b158015610da357600080fd5b505af1158015610db7573d6000803e3d6000fd5b50505050610dc48261244a565b61106e565b610e08816040518060400160405280600481526020017f4570696300000000000000000000000000000000000000000000000000000000815250611d3d565b15610eab5760008054906101000a900473ffffffffffffffffffffffffffffffffffffffff1673ffffffffffffffffffffffffffffffffffffffff16632a73ac1f333060046040518463ffffffff1660e01b8152600401610e6b9392919061340c565b600060405180830381600087803b158015610e8557600080fd5b505af1158015610e99573d6000803e3d6000fd5b50505050610ea68261244a565b61106d565b610eea816040518060400160405280600481526020017f5261726500000000000000000000000000000000000000000000000000000000815250611d3d565b15610f8d5760008054906101000a900473ffffffffffffffffffffffffffffffffffffffff1673ffffffffffffffffffffffffffffffffffffffff16632a73ac1f333060026040518463ffffffff1660e01b8152600401610f4d9392919061347e565b600060405180830381600087803b158015610f6757600080fd5b505af1158015610f7b573d6000803e3d6000fd5b50505050610f888261244a565b61106c565b610fcc816040518060400160405280600681526020017f436f6d6d6f6e0000000000000000000000000000000000000000000000000000815250611d3d565b1561106b5760008054906101000a900473ffffffffffffffffffffffffffffffffffffffff1673ffffffffffffffffffffffffffffffffffffffff16632a73ac1f333060016040518463ffffffff1660e01b815260040161102f939291906134f0565b600060405180830381600087803b15801561104957600080fd5b505af115801561105d573d6000803e3d6000fd5b5050505061106a8261244a565b5b5b5b5b5050565b3373ffffffffffffffffffffffffffffffffffffffff1661109282611426565b73ffffffffffffffffffffffffffffffffffffffff16148061111257503373ffffffffffffffffffffffffffffffffffffffff166009600083815260200190815260200160002060009054906101000a900473ffffffffffffffffffffffffffffffffffffffff1673ffffffffffffffffffffffffffffffffffffffff16145b806111ab5750600a600061112583611426565b73ffffffffffffffffffffffffffffffffffffffff1673ffffffffffffffffffffffffffffffffffffffff16815260200190815260200160002060003373ffffffffffffffffffffffffffffffffffffffff1673ffffffffffffffffffffffffffffffffffffffff16815260200190815260200160002060009054906101000a900460ff165b6111ea576040517f08c379a00000000000000000000000000000000000000000000000000000000081526004016111e190613599565b60405180910390fd5b6111f5838383612489565b505050565b600280546112079061324c565b80601f01602080910402602001604051908101604052809291908181526020018280546112339061324c565b80156112805780601f1061125557610100808354040283529160200191611280565b820191906000526020600020905b81548152906001019060200180831161126357829003601f168201915b505050505081565b60045481565b60008060009054906101000a900473ffffffffffffffffffffffffffffffffffffffff1673ffffffffffffffffffffffffffffffffffffffff16635e1c86ce6040518163ffffffff1660e01b8152600401602060405180830381865afa1580156112fc573d6000803e3d6000fd5b505050506040513d601f19601f8201168201806040525081019061132091906135ce565b905060008054906101000a900473ffffffffffffffffffffffffffffffffffffffff1673ffffffffffffffffffffffffffffffffffffffff1663f09910e4600660009054906101000a900473ffffffffffffffffffffffffffffffffffffffff16836040518363ffffffff1660e01b815260040161139f9291906135fb565b6020604051808303816000875af11580156113be573d6000803e3d6000fd5b505050506040513d601f19601f820116820180604052508101906113e29190613639565b5050565b61140183838360405180602001604052806000815250611ac1565b505050565b6000600b6000838152602001908152602001600020600601549050919050565b60006007600083815260200190815260200160002060009054906101000a900473ffffffffffffffffffffffffffffffffffffffff169050919050565b600380546114709061324c565b80601f016020809104026020016040519081016040528092919081815260200182805461149c9061324c565b80156114e95780601f106114be576101008083540402835291602001916114e9565b820191906000526020600020905b8154815290600101906020018083116114cc57829003601f168201915b505050505081565b60008073ffffffffffffffffffffffffffffffffffffffff168273ffffffffffffffffffffffffffffffffffffffff1603611561576040517f08c379a0000000000000000000000000000000000000000000000000000000008152600401611558906136b2565b60405180910390fd5b600860008373ffffffffffffffffffffffffffffffffffffffff1673ffffffffffffffffffffffffffffffffffffffff168152602001908152602001600020549050919050565b6115b061240d565b6115ef576040517f08c379a00000000000000000000000000000000000000000000000000000000081526004016115e69061371e565b60405180910390fd5b6000600c600083815260200190815260200160002060006101000a81548160ff0219169083600181111561162657611625612c22565b5b021790555050565b600080600b600085815260200190815260200160002060030180546116529061324c565b80601f016020809104026020016040519081016040528092919081815260200182805461167e9061324c565b80156116cb5780601f106116a0576101008083540402835291602001916116cb565b820191906000526020600020905b8154815290600101906020018083116116ae57829003601f168201915b505050505090506000600b600085815260200190815260200160002060030180546116f59061324c565b80601f01602080910402602001604051908101604052809291908181526020018280546117219061324c565b801561176e5780601f106117435761010080835404028352916020019161176e565b820191906000526020600020905b81548152906001019060200180831161175157829003601f168201915b505050505090506117b4826040518060400160405280600781526020017f4171756174696300000000000000000000000000000000000000000000000000815250611d3d565b80156117fb57506117fa816040518060400160405280600881526020017f496e6665726e616c000000000000000000000000000000000000000000000000815250611d3d565b5b806118885750611840826040518060400160405280600781526020017f56657264616e7400000000000000000000000000000000000000000000000000815250611d3d565b80156118875750611886816040518060400160405280600781526020017f4171756174696300000000000000000000000000000000000000000000000000815250611d3d565b5b5b8061191557506118cd826040518060400160405280600881526020017f496e6665726e616c000000000000000000000000000000000000000000000000815250611d3d565b80156119145750611913816040518060400160405280600781526020017f56657264616e7400000000000000000000000000000000000000000000000000815250611d3d565b5b5b156119255760019250505061192c565b6000925050505b92915050565b6060600280546119419061324c565b80601f016020809104026020016040519081016040528092919081815260200182805461196d9061324c565b80156119ba5780601f1061198f576101008083540402835291602001916119ba565b820191906000526020600020905b81548152906001019060200180831161199d57829003601f168201915b5050505050905090565b80600a60003373ffffffffffffffffffffffffffffffffffffffff1673ffffffffffffffffffffffffffffffffffffffff16815260200190815260200160002060008473ffffffffffffffffffffffffffffffffffffffff1673ffffffffffffffffffffffffffffffffffffffff16815260200190815260200160002060006101000a81548160ff0219169083151502179055508173ffffffffffffffffffffffffffffffffffffffff163373ffffffffffffffffffffffffffffffffffffffff167f17307eab39ab6107e8899845ad3d59bd9653f200f220920489ca2b5937696c3183604051611ab59190612d8f565b60405180910390a35050565b3373ffffffffffffffffffffffffffffffffffffffff16611ae183611426565b73ffffffffffffffffffffffffffffffffffffffff161480611b6157503373ffffffffffffffffffffffffffffffffffffffff166009600084815260200190815260200160002060009054906101000a900473ffffffffffffffffffffffffffffffffffffffff1673ffffffffffffffffffffffffffffffffffffffff16145b80611bfa5750600a6000611b7484611426565b73ffffffffffffffffffffffffffffffffffffffff1673ffffffffffffffffffffffffffffffffffffffff16815260200190815260200160002060003373ffffffffffffffffffffffffffffffffffffffff1673ffffffffffffffffffffffffffffffffffffffff16815260200190815260200160002060009054906101000a900460ff165b611c39576040517f08c379a0000000000000000000000000000000000000000000000000000000008152600401611c3090613599565b60405180910390fd5b611c44848484612489565b611c5084848484612704565b611c8f576040517f08c379a0000000000000000000000000000000000000000000000000000000008152600401611c869061378a565b60405180910390fd5b50505050565b6060600b60008381526020019081526020016000206003018054611cb89061324c565b80601f0160208091040260200160405190810160405280929190818152602001828054611ce49061324c565b8015611d315780601f10611d0657610100808354040283529160200191611d31565b820191906000526020600020905b815481529060010190602001808311611d1457829003601f168201915b50505050509050919050565b600081604051602001611d5091906137e6565b6040516020818303038152906040528051906020012083604051602001611d7791906137e6565b6040516020818303038152906040528051906020012014905092915050565b600160008054906101000a900473ffffffffffffffffffffffffffffffffffffffff1673ffffffffffffffffffffffffffffffffffffffff166370a08231896040518263ffffffff1660e01b8152600401611df19190612b9b565b602060405180830381865afa158015611e0e573d6000803e3d6000fd5b505050506040513d601f19601f82011682018060405250810190611e3291906135ce565b11611e72576040517f08c379a0000000000000000000000000000000000000000000000000000000008152600401611e6990613849565b60405180910390fd5b60008054906101000a900473ffffffffffffffffffffffffffffffffffffffff1673ffffffffffffffffffffffffffffffffffffffff16632a73ac1f883060056040518463ffffffff1660e01b8152600401611ed0939291906138a4565b600060405180830381600087803b158015611eea57600080fd5b505af1158015611efe573d6000803e3d6000fd5b505050508660076000600454815260200190815260200160002060006101000a81548173ffffffffffffffffffffffffffffffffffffffff021916908373ffffffffffffffffffffffffffffffffffffffff1602179055506001600860008973ffffffffffffffffffffffffffffffffffffffff1673ffffffffffffffffffffffffffffffffffffffff1681526020019081526020016000206000828254611fa6919061390a565b925050819055506003611fba60045461287f565b604051602001611fcb929190613a22565b604051602081830303815290604052600d600060045481526020019081526020016000209081611ffb9190613bf1565b506040518060e00160405280600454815260200187815260200186815260200185815260200184815260200183815260200182815250600b600060045481526020019081526020016000206000820151816000015560208201518160010190816120659190613bf1565b50604082015181600201908161207b9190613bf1565b5060608201518160030190816120919190613bf1565b506080820151816004015560a0820151816005015560c082015181600601559050506001600c6000600454815260200190815260200160002060006101000a81548160ff021916908360018111156120ec576120eb612c22565b5b02179055506004548773ffffffffffffffffffffffffffffffffffffffff16600073ffffffffffffffffffffffffffffffffffffffff167fddf252ad1be2c89b69c2b068fc378daa952ba7f163c4a11628f55a4df523b3ef60405160405180910390a4600160046000828254612162919061390a565b9250508190555050505050505050565b6060600d600083815260200190815260200160002080546121929061324c565b80601f01602080910402602001604051908101604052809291908181526020018280546121be9061324c565b801561220b5780601f106121e05761010080835404028352916020019161220b565b820191906000526020600020905b8154815290600101906020018083116121ee57829003601f168201915b50505050509050919050565b600660009054906101000a900473ffffffffffffffffffffffffffffffffffffffff1681565b6060600b600083815260200190815260200160002060020180546122609061324c565b80601f016020809104026020016040519081016040528092919081815260200182805461228c9061324c565b80156122d95780601f106122ae576101008083540402835291602001916122d9565b820191906000526020600020905b8154815290600101906020018083116122bc57829003601f168201915b50505050509050919050565b600180546122f29061324c565b80601f016020809104026020016040519081016040528092919081815260200182805461231e9061324c565b801561236b5780601f106123405761010080835404028352916020019161236b565b820191906000526020600020905b81548152906001019060200180831161234e57829003601f168201915b505050505081565b60055481565b6000600a60008473ffffffffffffffffffffffffffffffffffffffff1673ffffffffffffffffffffffffffffffffffffffff16815260200190815260200160002060008373ffffffffffffffffffffffffffffffffffffffff1673ffffffffffffffffffffffffffffffffffffffff16815260200190815260200160002060009054906101000a900460ff16905092915050565b6000806000339050803b915060008263ffffffff16119250505090565b6000600b6000838152602001908152602001600020600401549050919050565b6001600c600083815260200190815260200160002060006101000a81548160ff0219169083600181111561248157612480612c22565b5b021790555050565b8273ffffffffffffffffffffffffffffffffffffffff166124a982611426565b73ffffffffffffffffffffffffffffffffffffffff16146124ff576040517f08c379a00000000000000000000000000000000000000000000000000000000081526004016124f6906132c9565b60405180910390fd5b600073ffffffffffffffffffffffffffffffffffffffff168273ffffffffffffffffffffffffffffffffffffffff160361256e576040517f08c379a000000000000000000000000000000000000000000000000000000000815260040161256590613d0f565b60405180910390fd5b6009600082815260200190815260200160002060006101000a81549073ffffffffffffffffffffffffffffffffffffffff02191690556001600860008573ffffffffffffffffffffffffffffffffffffffff1673ffffffffffffffffffffffffffffffffffffffff16815260200190815260200160002060008282546125f49190613d2f565b925050819055506001600860008473ffffffffffffffffffffffffffffffffffffffff1673ffffffffffffffffffffffffffffffffffffffff168152602001908152602001600020600082825461264b919061390a565b92505081905550816007600083815260200190815260200160002060006101000a81548173ffffffffffffffffffffffffffffffffffffffff021916908373ffffffffffffffffffffffffffffffffffffffff160217905550808273ffffffffffffffffffffffffffffffffffffffff168473ffffffffffffffffffffffffffffffffffffffff167fddf252ad1be2c89b69c2b068fc378daa952ba7f163c4a11628f55a4df523b3ef60405160405180910390a4505050565b6000808473ffffffffffffffffffffffffffffffffffffffff163b1115612872578373ffffffffffffffffffffffffffffffffffffffff1663150b7a02338786866040518563ffffffff1660e01b81526004016127649493929190613db8565b6020604051808303816000875af19250505080156127a057506040513d601f19601f8201168201806040525081019061279d9190613e5c565b60015b612822573d80600081146127d0576040519150601f19603f3d011682016040523d82523d6000602084013e6127d5565b606091505b50600081510361281a576040517f08c379a000000000000000000000000000000000000000000000000000000000815260040161281190613efb565b60405180910390fd5b805181602001fd5b63150b7a0260e01b7bffffffffffffffffffffffffffffffffffffffffffffffffffffffff1916817bffffffffffffffffffffffffffffffffffffffffffffffffffffffff191614915050612877565b600190505b949350505050565b6060600082036128c6576040518060400160405280600181526020017f30000000000000000000000000000000000000000000000000000000000000008152509050612a02565b600082905060005b600082146128f85780806128e190613f1b565b915050600a826128f19190613f92565b91506128ce565b60008167ffffffffffffffff81111561291457612913612e20565b5b6040519080825280601f01601f1916602001820160405280156129465781602001600182028036833780820191505090505b50905060008290505b600086146129fa576001816129649190613d2f565b90506000600a80886129769190613f92565b6129809190613fc3565b8761298b9190613d2f565b60306129979190614012565b905060008160f81b9050808484815181106129b5576129b4614047565b5b60200101907effffffffffffffffffffffffffffffffffffffffffffffffffffffffffffff1916908160001a905350600a886129f19190613f92565b9750505061294f565b819450505050505b919050565b6000604051905090565b600080fd5b600080fd5b6000819050919050565b612a2e81612a1b565b8114612a3957600080fd5b50565b600081359050612a4b81612a25565b92915050565b600060208284031215612a6757612a66612a11565b5b6000612a7584828501612a3c565b91505092915050565b612a8781612a1b565b82525050565b6000602082019050612aa26000830184612a7e565b92915050565b600081519050919050565b600082825260208201905092915050565b60005b83811015612ae2578082015181840152602081019050612ac7565b60008484015250505050565b6000601f19601f8301169050919050565b6000612b0a82612aa8565b612b148185612ab3565b9350612b24818560208601612ac4565b612b2d81612aee565b840191505092915050565b60006020820190508181036000830152612b528184612aff565b905092915050565b600073ffffffffffffffffffffffffffffffffffffffff82169050919050565b6000612b8582612b5a565b9050919050565b612b9581612b7a565b82525050565b6000602082019050612bb06000830184612b8c565b92915050565b612bbf81612b7a565b8114612bca57600080fd5b50565b600081359050612bdc81612bb6565b92915050565b60008060408385031215612bf957612bf8612a11565b5b6000612c0785828601612bcd565b9250506020612c1885828601612a3c565b9150509250929050565b7f4e487b7100000000000000000000000000000000000000000000000000000000600052602160045260246000fd5b60028110612c6257612c61612c22565b5b50565b6000819050612c7382612c51565b919050565b6000612c8382612c65565b9050919050565b612c9381612c78565b82525050565b6000602082019050612cae6000830184612c8a565b92915050565b600080600060608486031215612ccd57612ccc612a11565b5b6000612cdb86828701612bcd565b9350506020612cec86828701612bcd565b9250506040612cfd86828701612a3c565b9150509250925092565b600060208284031215612d1d57612d1c612a11565b5b6000612d2b84828501612bcd565b91505092915050565b60008060408385031215612d4b57612d4a612a11565b5b6000612d5985828601612a3c565b9250506020612d6a85828601612a3c565b9150509250929050565b60008115159050919050565b612d8981612d74565b82525050565b6000602082019050612da46000830184612d80565b92915050565b612db381612d74565b8114612dbe57600080fd5b50565b600081359050612dd081612daa565b92915050565b60008060408385031215612ded57612dec612a11565b5b6000612dfb85828601612bcd565b9250506020612e0c85828601612dc1565b9150509250929050565b600080fd5b600080fd5b7f4e487b7100000000000000000000000000000000000000000000000000000000600052604160045260246000fd5b612e5882612aee565b810181811067ffffffffffffffff82111715612e7757612e76612e20565b5b80604052505050565b6000612e8a612a07565b9050612e968282612e4f565b919050565b600067ffffffffffffffff821115612eb657612eb5612e20565b5b612ebf82612aee565b9050602081019050919050565b82818337600083830152505050565b6000612eee612ee984612e9b565b612e80565b905082815260208101848484011115612f0a57612f09612e1b565b5b612f15848285612ecc565b509392505050565b600082601f830112612f3257612f31612e16565b5b8135612f42848260208601612edb565b91505092915050565b60008060008060808587031215612f6557612f64612a11565b5b6000612f7387828801612bcd565b9450506020612f8487828801612bcd565b9350506040612f9587828801612a3c565b925050606085013567ffffffffffffffff811115612fb657612fb5612a16565b5b612fc287828801612f1d565b91505092959194509250565b600067ffffffffffffffff821115612fe957612fe8612e20565b5b612ff282612aee565b9050602081019050919050565b600061301261300d84612fce565b612e80565b90508281526020810184848401111561302e5761302d612e1b565b5b613039848285612ecc565b509392505050565b600082601f83011261305657613055612e16565b5b8135613066848260208601612fff565b91505092915050565b6000806040838503121561308657613085612a11565b5b600083013567ffffffffffffffff8111156130a4576130a3612a16565b5b6130b085828601613041565b925050602083013567ffffffffffffffff8111156130d1576130d0612a16565b5b6130dd85828601613041565b9150509250929050565b600080600080600080600060e0888a03121561310657613105612a11565b5b60006131148a828b01612bcd565b975050602088013567ffffffffffffffff81111561313557613134612a16565b5b6131418a828b01613041565b965050604088013567ffffffffffffffff81111561316257613161612a16565b5b61316e8a828b01613041565b955050606088013567ffffffffffffffff81111561318f5761318e612a16565b5b61319b8a828b01613041565b94505060806131ac8a828b01612a3c565b93505060a06131bd8a828b01612a3c565b92505060c06131ce8a828b01612a3c565b91505092959891949750929550565b600080604083850312156131f4576131f3612a11565b5b600061320285828601612bcd565b925050602061321385828601612bcd565b9150509250929050565b7f4e487b7100000000000000000000000000000000000000000000000000000000600052602260045260246000fd5b6000600282049050600182168061326457607f821691505b6020821081036132775761327661321d565b5b50919050565b7f4e6f74206f776e6572206f662042656173740000000000000000000000000000600082015250565b60006132b3601283612ab3565b91506132be8261327d565b602082019050919050565b600060208201905081810360008301526132e2816132a6565b9050919050565b7f4265617374206973206e6f742062726f6b656e00000000000000000000000000600082015250565b600061331f601383612ab3565b915061332a826132e9565b602082019050919050565b6000602082019050818103600083015261334e81613312565b9050919050565b6000819050919050565b6000819050919050565b600061338461337f61337a84613355565b61335f565b612a1b565b9050919050565b61339481613369565b82525050565b60006060820190506133af6000830186612b8c565b6133bc6020830185612b8c565b6133c9604083018461338b565b949350505050565b6000819050919050565b60006133f66133f16133ec846133d1565b61335f565b612a1b565b9050919050565b613406816133db565b82525050565b60006060820190506134216000830186612b8c565b61342e6020830185612b8c565b61343b60408301846133fd565b949350505050565b6000819050919050565b600061346861346361345e84613443565b61335f565b612a1b565b9050919050565b6134788161344d565b82525050565b60006060820190506134936000830186612b8c565b6134a06020830185612b8c565b6134ad604083018461346f565b949350505050565b6000819050919050565b60006134da6134d56134d0846134b5565b61335f565b612a1b565b9050919050565b6134ea816134bf565b82525050565b60006060820190506135056000830186612b8c565b6135126020830185612b8c565b61351f60408301846134e1565b949350505050565b7f4e6f20617070726f76616c206772616e7420746f207472616e7366657220746860008201527f6973204265617374000000000000000000000000000000000000000000000000602082015250565b6000613583602883612ab3565b915061358e82613527565b604082019050919050565b600060208201905081810360008301526135b281613576565b9050919050565b6000815190506135c881612a25565b92915050565b6000602082840312156135e4576135e3612a11565b5b60006135f2848285016135b9565b91505092915050565b60006040820190506136106000830185612b8c565b61361d6020830184612a7e565b9392505050565b60008151905061363381612daa565b92915050565b60006020828403121561364f5761364e612a11565b5b600061365d84828501613624565b91505092915050565b7f4e756c6c20616464726573732073706563696669656400000000000000000000600082015250565b600061369c601683612ab3565b91506136a782613666565b602082019050919050565b600060208201905081810360008301526136cb8161368f565b9050919050565b7f596f752063616e6e6f742064657374726f792063617264730000000000000000600082015250565b6000613708601883612ab3565b9150613713826136d2565b602082019050919050565b60006020820190508181036000830152613737816136fb565b9050919050565b7f21455243373231496d706c656d656e7465720000000000000000000000000000600082015250565b6000613774601283612ab3565b915061377f8261373e565b602082019050919050565b600060208201905081810360008301526137a381613767565b9050919050565b600081905092915050565b60006137c082612aa8565b6137ca81856137aa565b93506137da818560208601612ac4565b80840191505092915050565b60006137f282846137b5565b915081905092915050565b7f4e6f7420656e6f7567682047656d20696e2077616c6c65740000000000000000600082015250565b6000613833601883612ab3565b915061383e826137fd565b602082019050919050565b6000602082019050818103600083015261386281613826565b9050919050565b6000819050919050565b600061388e61388961388484613869565b61335f565b612a1b565b9050919050565b61389e81613873565b82525050565b60006060820190506138b96000830186612b8c565b6138c66020830185612b8c565b6138d36040830184613895565b949350505050565b7f4e487b7100000000000000000000000000000000000000000000000000000000600052601160045260246000fd5b600061391582612a1b565b915061392083612a1b565b9250828201905080821115613938576139376138db565b5b92915050565b60008190508160005260206000209050919050565b600081546139608161324c565b61396a81866137aa565b94506001821660008114613985576001811461399a576139cd565b60ff19831686528115158202860193506139cd565b6139a38561393e565b60005b838110156139c5578154818901526001820191506020810190506139a6565b838801955050505b50505092915050565b7f42656173745f0000000000000000000000000000000000000000000000000000815250565b7f2e6a736f6e000000000000000000000000000000000000000000000000000000815250565b6000613a2e8285613953565b9150613a39826139d6565b600682019150613a4982846137b5565b9150613a54826139fc565b6005820191508190509392505050565b60006020601f8301049050919050565b600082821b905092915050565b600060088302613ab17fffffffffffffffffffffffffffffffffffffffffffffffffffffffffffffffff82613a74565b613abb8683613a74565b95508019841693508086168417925050509392505050565b6000613aee613ae9613ae484612a1b565b61335f565b612a1b565b9050919050565b6000819050919050565b613b0883613ad3565b613b1c613b1482613af5565b848454613a81565b825550505050565b600090565b613b31613b24565b613b3c818484613aff565b505050565b5b81811015613b6057613b55600082613b29565b600181019050613b42565b5050565b601f821115613ba557613b768161393e565b613b7f84613a64565b81016020851015613b8e578190505b613ba2613b9a85613a64565b830182613b41565b50505b505050565b600082821c905092915050565b6000613bc860001984600802613baa565b1980831691505092915050565b6000613be18383613bb7565b9150826002028217905092915050565b613bfa82612aa8565b67ffffffffffffffff811115613c1357613c12612e20565b5b613c1d825461324c565b613c28828285613b64565b600060209050601f831160018114613c5b5760008415613c49578287015190505b613c538582613bd5565b865550613cbb565b601f198416613c698661393e565b60005b82811015613c9157848901518255600182019150602085019450602081019050613c6c565b86831015613cae5784890151613caa601f891682613bb7565b8355505b6001600288020188555050505b505050505050565b7f4e756c6c20416464726573732053706563696669656400000000000000000000600082015250565b6000613cf9601683612ab3565b9150613d0482613cc3565b602082019050919050565b60006020820190508181036000830152613d2881613cec565b9050919050565b6000613d3a82612a1b565b9150613d4583612a1b565b9250828203905081811115613d5d57613d5c6138db565b5b92915050565b600081519050919050565b600082825260208201905092915050565b6000613d8a82613d63565b613d948185613d6e565b9350613da4818560208601612ac4565b613dad81612aee565b840191505092915050565b6000608082019050613dcd6000830187612b8c565b613dda6020830186612b8c565b613de76040830185612a7e565b8181036060830152613df98184613d7f565b905095945050505050565b60007fffffffff0000000000000000000000000000000000000000000000000000000082169050919050565b613e3981613e04565b8114613e4457600080fd5b50565b600081519050613e5681613e30565b92915050565b600060208284031215613e7257613e71612a11565b5b6000613e8084828501613e47565b91505092915050565b7f4552433732313a207472616e7366657220746f206e6f6e20455243373231526560008201527f63656976657220696d706c656d656e7465720000000000000000000000000000602082015250565b6000613ee5603283612ab3565b9150613ef082613e89565b604082019050919050565b60006020820190508181036000830152613f1481613ed8565b9050919050565b6000613f2682612a1b565b91507fffffffffffffffffffffffffffffffffffffffffffffffffffffffffffffffff8203613f5857613f576138db565b5b600182019050919050565b7f4e487b7100000000000000000000000000000000000000000000000000000000600052601260045260246000fd5b6000613f9d82612a1b565b9150613fa883612a1b565b925082613fb857613fb7613f63565b5b828204905092915050565b6000613fce82612a1b565b9150613fd983612a1b565b9250828202613fe781612a1b565b91508282048414831517613ffe57613ffd6138db565b5b5092915050565b600060ff82169050919050565b600061401d82614005565b915061402883614005565b9250828201905060ff811115614041576140406138db565b5b92915050565b7f4e487b7100000000000000000000000000000000000000000000000000000000600052603260045260246000fdfea264697066735822122062e31b224bcab7a31c4b98765714a74e7d7ba4c48737beabdbd80b0225aa61b364736f6c6343000812003368747470733a2f2f697066732e696f2f697066732f62616679626569686a756b6871616e336f6b76356b706f7168366171786d6e636a70373561373672676d6d367a65743678336c376b7567636b35652f",
  "immutableReferences": {},
  "source": "// SPDX-License-Identifier: MIT\npragma solidity ^0.8.17;\n\nimport './IERC721Receiver.sol';\nimport './Gem.sol';\n\ncontract BeastCard {\n    Gem gemContract;\n    string public collectionName;\n    string public collectionSymbol;\n    string public baseURI;\n\n    enum cardState { broken, functional }\n\n    uint256 public nextTokenIdToMint;\n    uint256 public maxTokens;\n    address public contractOwner;\n\n    // card id => owner\n    mapping(uint256 => address) internal _owners;\n    // owner => card count\n    mapping(address => uint256) internal _balances;\n    // card id => approved address\n    mapping(uint256 => address) internal _tokenApprovals;\n    // owner => (operator => yes/no)\n    mapping(address => mapping(address => bool)) internal _operatorApprovals;\n    // card id => beast struct\n    mapping(uint256 => Beast) _beasts;\n    // card id => card state\n    mapping(uint256 => cardState) _cardStates;\n    // card id => URI\n    mapping(uint256 => string) _tokenUris;\n\n\n    struct Beast {\n        uint256 id;\n        string name;\n        string rarity;\n        string nature;\n        uint256 cost;\n        uint256 attack;\n        uint256 health;\n    }\n\n    event Transfer(address indexed _from, address indexed _to, uint256 indexed _tokenId);\n    event Approval(address indexed _owner, address indexed _approved, uint256 indexed _tokenId);\n    event ApprovalForAll(address indexed _owner, address indexed _operator, bool _approved);\n\n    constructor(Gem gemAddress, string memory _name, string memory _symbol) {\n        gemContract = gemAddress;\n        collectionName = _name;\n        collectionSymbol = _symbol;\n        baseURI = \"https://ipfs.io/ipfs/bafybeihjukhqan3okv5kpoqh6aqxmncjp75a76rgmm6zet6x3l7kugck5e/\";\n        nextTokenIdToMint = 0;\n        maxTokens = 1000;\n        contractOwner = msg.sender;\n    }\n\n    function name() external view returns (string memory) {\n        return collectionName;\n    }\n\n    function symbol() external view returns (string memory) {\n        return collectionSymbol;\n    }\n\n    function tokenURI(uint256 _tokenId) public view returns (string memory) {\n        return _tokenUris[_tokenId];\n    }\n    \n    function cardDestroyed(uint256 _cardId) public {\n        require(isContract(), \"You cannot destroy cards\");\n        _cardStates[_cardId] = cardState.broken;\n    }\n\n    function cardRevived(uint256 _cardId) internal {\n        _cardStates[_cardId] = cardState.functional;\n    }\n\n    function restoreCard(uint256 _cardId) public {\n        require(_owners[_cardId] == msg.sender, \"Not owner of Beast\");\n        require(_cardStates[_cardId] == cardState.broken, \"Beast is not broken\");\n        string memory rarity = _beasts[_cardId].rarity;\n        if (compareStrings(rarity, \"Legendary\")) {\n            gemContract.transferGemsFrom(msg.sender, address(this), 8);\n            cardRevived(_cardId);\n        } else if (compareStrings(rarity, \"Epic\")) {\n            gemContract.transferGemsFrom(msg.sender, address(this), 4);\n            cardRevived(_cardId);\n        } else if (compareStrings(rarity, \"Rare\")) {\n            gemContract.transferGemsFrom(msg.sender, address(this), 2);\n            cardRevived(_cardId);\n        } else if (compareStrings(rarity, \"Common\")) {\n            gemContract.transferGemsFrom(msg.sender, address(this), 1);\n            cardRevived(_cardId);\n        }\n    }\n\n    function attackOf(uint256 _cardId) public view returns(uint256) {\n        return _beasts[_cardId].attack;\n    }\n\n    function healthOf(uint256 _cardId) public view returns(uint256) {\n        return _beasts[_cardId].health;\n    }\n\n    function stateOf(uint256 _cardId) public view returns(cardState) {\n        return _cardStates[_cardId];\n    }\n\n    function costOf(uint256 _cardId) public view returns (uint256) {\n        return _beasts[_cardId].cost;\n    }\n\n    function natureOf(uint256 _cardId) public view returns (string memory) {\n        return _beasts[_cardId].nature;\n    }\n\n    function nameOf(uint256 _cardId) public view returns (string memory) {\n        return _beasts[_cardId].name;\n    }\n\n    function rarityOf(uint256 _cardId) public view returns (string memory) {\n        return _beasts[_cardId].rarity;\n    }\n\n    function balanceOf(address _owner) public view returns(uint256) {\n        require(_owner != address(0), \"Null address specified\");\n        return _balances[_owner];\n    }\n\n    function ownerOf(uint256 _tokenId) public view returns(address) {\n        return _owners[_tokenId];\n    }\n\n    function effective(uint256 myCard, uint256 enemyCard) public view returns (bool) {\n        string memory myNature = _beasts[myCard].nature;\n        string memory enemyNature = _beasts[enemyCard].nature;\n        if ((compareStrings(myNature, \"Aquatic\") && compareStrings(enemyNature, \"Infernal\")) || (compareStrings(myNature, \"Verdant\") && compareStrings(enemyNature, \"Aquatic\")) || (compareStrings(myNature, \"Infernal\") && compareStrings(enemyNature, \"Verdant\"))) {\n            return true;\n        }  else {\n            return false;\n        }\n    }\n\n    function safeTransferFrom(address _from, address _to, uint256 _tokenId) public payable {\n        safeTransferFrom(_from, _to, _tokenId, \"\");\n    }\n\n    function safeTransferFrom(address _from, address _to, uint256 _tokenId, bytes memory _data) public payable {\n        require(ownerOf(_tokenId) == msg.sender || _tokenApprovals[_tokenId] == msg.sender || _operatorApprovals[ownerOf(_tokenId)][msg.sender], \"No approval grant to transfer this Beast\");\n        _transfer(_from, _to, _tokenId);\n        // trigger func check\n        require(_checkOnERC721Received(_from, _to, _tokenId, _data), \"!ERC721Implementer\");\n    }\n\n    function transferFrom(address _from, address _to, uint256 _tokenId) public payable {\n        // unsafe transfer without onERC721Received, used for contracts that dont implement\n        require(ownerOf(_tokenId) == msg.sender || _tokenApprovals[_tokenId] == msg.sender || _operatorApprovals[ownerOf(_tokenId)][msg.sender], \"No approval grant to transfer this Beast\");\n        _transfer(_from, _to, _tokenId);\n    }\n\n    function approve(address _approved, uint256 _tokenId) public payable {\n        require(ownerOf(_tokenId) == msg.sender, \"Not owner of Beast\");\n        _tokenApprovals[_tokenId] = _approved;\n        emit Approval(ownerOf(_tokenId), _approved, _tokenId);\n    }\n\n    function setApprovalForAll(address _operator, bool _approved) public {\n        _operatorApprovals[msg.sender][_operator] = _approved;\n        emit ApprovalForAll(msg.sender, _operator, _approved);\n    }\n\n    function getApproved(uint256 _tokenId) public view returns (address) {\n        return _tokenApprovals[_tokenId];\n    }\n\n    function isApprovedForAll(address _owner, address _operator) public view returns (bool) {\n        return _operatorApprovals[_owner][_operator];\n    }\n\n    function mint(address _to, string memory bname, string memory rarity, string memory nature, uint256 cost, uint256 attack, uint256 health) public {\n        require(gemContract.balanceOf(_to) > 1, \"Not enough Gem in wallet\");\n        gemContract.transferGemsFrom(_to, address(this), 5);\n        _owners[nextTokenIdToMint] = _to;\n        _balances[_to] += 1;\n        _tokenUris[nextTokenIdToMint] = string.concat(baseURI, \"Beast_\", uint2str(nextTokenIdToMint), \".json\");\n        _beasts[nextTokenIdToMint] = Beast(nextTokenIdToMint, bname, rarity, nature, cost, attack, health);\n        _cardStates[nextTokenIdToMint] = cardState.functional;\n        emit Transfer(address(0), _to, nextTokenIdToMint);\n        nextTokenIdToMint += 1;\n    }\n\n    function totalSupply() public view returns(uint256) {\n        return nextTokenIdToMint;\n    }\n\n    function withdraw() public {\n        uint256 amt = gemContract.checkGems();\n        gemContract.transferGems(contractOwner, amt);\n    }\n\n    // INTERNAL FUNCTIONS\n    function _checkOnERC721Received(\n        address from,\n        address to,\n        uint256 tokenId,\n        bytes memory data\n    ) private returns (bool) {\n        // check if to is an contract, if yes, to.code.length will always > 0\n        if (to.code.length > 0) {\n            try IERC721Receiver(to).onERC721Received(msg.sender, from, tokenId, data) returns (bytes4 retval) {\n                return retval == IERC721Receiver.onERC721Received.selector;\n            } catch (bytes memory reason) {\n                if (reason.length == 0) {\n                    revert(\"ERC721: transfer to non ERC721Receiver implementer\");\n                } else {\n                    /// @solidity memory-safe-assembly\n                    assembly {\n                        revert(add(32, reason), mload(reason))\n                    }\n                }\n            }\n        } else {\n            return true;\n        }\n    }\n\n    // unsafe transfer\n    function _transfer(address _from, address _to, uint256 _tokenId) internal {\n        require(ownerOf(_tokenId) == _from, \"Not owner of Beast\");\n        require(_to != address(0), \"Null Address Specified\");\n\n        delete _tokenApprovals[_tokenId];\n        _balances[_from] -= 1;\n        _balances[_to] += 1;\n        _owners[_tokenId] = _to;\n\n        emit Transfer(_from, _to, _tokenId);\n    }\n\n    function compareStrings(string memory a, string memory b) public pure returns (bool) {\n        return (keccak256(abi.encodePacked((a))) == keccak256(abi.encodePacked((b))));\n    }\n\n    function uint2str(uint _i) internal pure returns (string memory _uintAsString) {\n        if (_i == 0) {\n            return \"0\";\n        }\n        uint j = _i;\n        uint len;\n        while (j != 0) {\n            len++;\n            j /= 10;\n        }\n        bytes memory bstr = new bytes(len);\n        uint k = len;\n        while (_i != 0) {\n            k = k-1;\n            uint8 temp = (48 + uint8(_i - _i / 10 * 10));\n            bytes1 b1 = bytes1(temp);\n            bstr[k] = b1;\n            _i /= 10;\n        }\n        return string(bstr);\n    }\n\n    function isContract() public view returns (bool) {\n      uint32 size;\n      address a = msg.sender;\n      assembly {\n        size := extcodesize(a)\n      }\n      return (size > 0);\n    }\n}\n",
  "sourcePath": "/Users/bryanwonggy/nus/is4302placeholdername/contracts/BeastCard.sol",
  "compiler": {
    "name": "solc",
    "version": "0.8.18+commit.87f61d96.Emscripten.clang"
  },
  "schemaVersion": "3.4.11",
  "updatedAt": "2023-04-09T04:13:30.877Z",
  "devdoc": {
    "kind": "dev",
    "methods": {},
    "version": 1
  },
  "userdoc": {
    "kind": "user",
    "methods": {},
    "version": 1
  }
}