{
  "contractName": "BeastCard",
  "abi": [
    {
      "inputs": [
        {
          "internalType": "contract Gem",
          "name": "gemAddress",
          "type": "address"
        },
        {
          "internalType": "string",
          "name": "_name",
          "type": "string"
        },
        {
          "internalType": "string",
          "name": "_symbol",
          "type": "string"
        }
      ],
      "stateMutability": "nonpayable",
      "type": "constructor"
    },
    {
      "anonymous": false,
      "inputs": [
        {
          "indexed": true,
          "internalType": "address",
          "name": "_owner",
          "type": "address"
        },
        {
          "indexed": true,
          "internalType": "address",
          "name": "_approved",
          "type": "address"
        },
        {
          "indexed": true,
          "internalType": "uint256",
          "name": "_tokenId",
          "type": "uint256"
        }
      ],
      "name": "Approval",
      "type": "event"
    },
    {
      "anonymous": false,
      "inputs": [
        {
          "indexed": true,
          "internalType": "address",
          "name": "_owner",
          "type": "address"
        },
        {
          "indexed": true,
          "internalType": "address",
          "name": "_operator",
          "type": "address"
        },
        {
          "indexed": false,
          "internalType": "bool",
          "name": "_approved",
          "type": "bool"
        }
      ],
      "name": "ApprovalForAll",
      "type": "event"
    },
    {
      "anonymous": false,
      "inputs": [
        {
          "indexed": true,
          "internalType": "address",
          "name": "_from",
          "type": "address"
        },
        {
          "indexed": true,
          "internalType": "address",
          "name": "_to",
          "type": "address"
        },
        {
          "indexed": true,
          "internalType": "uint256",
          "name": "_tokenId",
          "type": "uint256"
        }
      ],
      "name": "Transfer",
      "type": "event"
    },
    {
      "inputs": [],
      "name": "baseURI",
      "outputs": [
        {
          "internalType": "string",
          "name": "",
          "type": "string"
        }
      ],
      "stateMutability": "view",
      "type": "function"
    },
    {
      "inputs": [],
      "name": "collectionName",
      "outputs": [
        {
          "internalType": "string",
          "name": "",
          "type": "string"
        }
      ],
      "stateMutability": "view",
      "type": "function"
    },
    {
      "inputs": [],
      "name": "collectionSymbol",
      "outputs": [
        {
          "internalType": "string",
          "name": "",
          "type": "string"
        }
      ],
      "stateMutability": "view",
      "type": "function"
    },
    {
      "inputs": [],
      "name": "contractOwner",
      "outputs": [
        {
          "internalType": "address",
          "name": "",
          "type": "address"
        }
      ],
      "stateMutability": "view",
      "type": "function"
    },
    {
      "inputs": [],
      "name": "maxTokens",
      "outputs": [
        {
          "internalType": "uint256",
          "name": "",
          "type": "uint256"
        }
      ],
      "stateMutability": "view",
      "type": "function"
    },
    {
      "inputs": [],
      "name": "nextTokenIdToMint",
      "outputs": [
        {
          "internalType": "uint256",
          "name": "",
          "type": "uint256"
        }
      ],
      "stateMutability": "view",
      "type": "function"
    },
    {
      "inputs": [],
      "name": "name",
      "outputs": [
        {
          "internalType": "string",
          "name": "",
          "type": "string"
        }
      ],
      "stateMutability": "view",
      "type": "function"
    },
    {
      "inputs": [],
      "name": "symbol",
      "outputs": [
        {
          "internalType": "string",
          "name": "",
          "type": "string"
        }
      ],
      "stateMutability": "view",
      "type": "function"
    },
    {
      "inputs": [
        {
          "internalType": "uint256",
          "name": "_tokenId",
          "type": "uint256"
        }
      ],
      "name": "tokenURI",
      "outputs": [
        {
          "internalType": "string",
          "name": "",
          "type": "string"
        }
      ],
      "stateMutability": "view",
      "type": "function"
    },
    {
      "inputs": [
        {
          "internalType": "uint256",
          "name": "_cardId",
          "type": "uint256"
        }
      ],
      "name": "cardDestroyed",
      "outputs": [],
      "stateMutability": "nonpayable",
      "type": "function"
    },
    {
      "inputs": [
        {
          "internalType": "uint256",
          "name": "_cardId",
          "type": "uint256"
        }
      ],
      "name": "restoreCard",
      "outputs": [],
      "stateMutability": "nonpayable",
      "type": "function"
    },
    {
      "inputs": [
        {
          "internalType": "uint256",
          "name": "_cardId",
          "type": "uint256"
        }
      ],
      "name": "attackOf",
      "outputs": [
        {
          "internalType": "uint256",
          "name": "",
          "type": "uint256"
        }
      ],
      "stateMutability": "view",
      "type": "function"
    },
    {
      "inputs": [
        {
          "internalType": "uint256",
          "name": "_cardId",
          "type": "uint256"
        }
      ],
      "name": "healthOf",
      "outputs": [
        {
          "internalType": "uint256",
          "name": "",
          "type": "uint256"
        }
      ],
      "stateMutability": "view",
      "type": "function"
    },
    {
      "inputs": [
        {
          "internalType": "uint256",
          "name": "_cardId",
          "type": "uint256"
        }
      ],
      "name": "stateOf",
      "outputs": [
        {
          "internalType": "enum BeastCard.cardState",
          "name": "",
          "type": "uint8"
        }
      ],
      "stateMutability": "view",
      "type": "function"
    },
    {
      "inputs": [
        {
          "internalType": "uint256",
          "name": "_cardId",
          "type": "uint256"
        }
      ],
      "name": "costOf",
      "outputs": [
        {
          "internalType": "uint256",
          "name": "",
          "type": "uint256"
        }
      ],
      "stateMutability": "view",
      "type": "function"
    },
    {
      "inputs": [
        {
          "internalType": "uint256",
          "name": "_cardId",
          "type": "uint256"
        }
      ],
      "name": "natureOf",
      "outputs": [
        {
          "internalType": "string",
          "name": "",
          "type": "string"
        }
      ],
      "stateMutability": "view",
      "type": "function"
    },
    {
      "inputs": [
        {
          "internalType": "address",
          "name": "_owner",
          "type": "address"
        }
      ],
      "name": "balanceOf",
      "outputs": [
        {
          "internalType": "uint256",
          "name": "",
          "type": "uint256"
        }
      ],
      "stateMutability": "view",
      "type": "function"
    },
    {
      "inputs": [
        {
          "internalType": "uint256",
          "name": "_tokenId",
          "type": "uint256"
        }
      ],
      "name": "ownerOf",
      "outputs": [
        {
          "internalType": "address",
          "name": "",
          "type": "address"
        }
      ],
      "stateMutability": "view",
      "type": "function"
    },
    {
      "inputs": [
        {
          "internalType": "uint256",
          "name": "myCard",
          "type": "uint256"
        },
        {
          "internalType": "uint256",
          "name": "enemyCard",
          "type": "uint256"
        }
      ],
      "name": "effective",
      "outputs": [
        {
          "internalType": "bool",
          "name": "",
          "type": "bool"
        }
      ],
      "stateMutability": "view",
      "type": "function"
    },
    {
      "inputs": [
        {
          "internalType": "address",
          "name": "_from",
          "type": "address"
        },
        {
          "internalType": "address",
          "name": "_to",
          "type": "address"
        },
        {
          "internalType": "uint256",
          "name": "_tokenId",
          "type": "uint256"
        }
      ],
      "name": "safeTransferFrom",
      "outputs": [],
      "stateMutability": "payable",
      "type": "function"
    },
    {
      "inputs": [
        {
          "internalType": "address",
          "name": "_from",
          "type": "address"
        },
        {
          "internalType": "address",
          "name": "_to",
          "type": "address"
        },
        {
          "internalType": "uint256",
          "name": "_tokenId",
          "type": "uint256"
        },
        {
          "internalType": "bytes",
          "name": "_data",
          "type": "bytes"
        }
      ],
      "name": "safeTransferFrom",
      "outputs": [],
      "stateMutability": "payable",
      "type": "function"
    },
    {
      "inputs": [
        {
          "internalType": "address",
          "name": "_from",
          "type": "address"
        },
        {
          "internalType": "address",
          "name": "_to",
          "type": "address"
        },
        {
          "internalType": "uint256",
          "name": "_tokenId",
          "type": "uint256"
        }
      ],
      "name": "transferFrom",
      "outputs": [],
      "stateMutability": "payable",
      "type": "function"
    },
    {
      "inputs": [
        {
          "internalType": "address",
          "name": "_approved",
          "type": "address"
        },
        {
          "internalType": "uint256",
          "name": "_tokenId",
          "type": "uint256"
        }
      ],
      "name": "approve",
      "outputs": [],
      "stateMutability": "payable",
      "type": "function"
    },
    {
      "inputs": [
        {
          "internalType": "address",
          "name": "_operator",
          "type": "address"
        },
        {
          "internalType": "bool",
          "name": "_approved",
          "type": "bool"
        }
      ],
      "name": "setApprovalForAll",
      "outputs": [],
      "stateMutability": "nonpayable",
      "type": "function"
    },
    {
      "inputs": [
        {
          "internalType": "uint256",
          "name": "_tokenId",
          "type": "uint256"
        }
      ],
      "name": "getApproved",
      "outputs": [
        {
          "internalType": "address",
          "name": "",
          "type": "address"
        }
      ],
      "stateMutability": "view",
      "type": "function"
    },
    {
      "inputs": [
        {
          "internalType": "address",
          "name": "_owner",
          "type": "address"
        },
        {
          "internalType": "address",
          "name": "_operator",
          "type": "address"
        }
      ],
      "name": "isApprovedForAll",
      "outputs": [
        {
          "internalType": "bool",
          "name": "",
          "type": "bool"
        }
      ],
      "stateMutability": "view",
      "type": "function"
    },
    {
      "inputs": [
        {
          "internalType": "address",
          "name": "_to",
          "type": "address"
        },
        {
          "internalType": "string",
          "name": "bname",
          "type": "string"
        },
        {
          "internalType": "string",
          "name": "rarity",
          "type": "string"
        },
        {
          "internalType": "string",
          "name": "nature",
          "type": "string"
        },
        {
          "internalType": "uint256",
          "name": "cost",
          "type": "uint256"
        },
        {
          "internalType": "uint256",
          "name": "attack",
          "type": "uint256"
        },
        {
          "internalType": "uint256",
          "name": "health",
          "type": "uint256"
        }
      ],
      "name": "mint",
      "outputs": [],
      "stateMutability": "nonpayable",
      "type": "function"
    },
    {
      "inputs": [],
      "name": "totalSupply",
      "outputs": [
        {
          "internalType": "uint256",
          "name": "",
          "type": "uint256"
        }
      ],
      "stateMutability": "view",
      "type": "function"
    },
    {
      "inputs": [],
      "name": "withdraw",
      "outputs": [],
      "stateMutability": "nonpayable",
      "type": "function"
    },
    {
      "inputs": [
        {
          "internalType": "string",
          "name": "a",
          "type": "string"
        },
        {
          "internalType": "string",
          "name": "b",
          "type": "string"
        }
      ],
      "name": "compareStrings",
      "outputs": [
        {
          "internalType": "bool",
          "name": "",
          "type": "bool"
        }
      ],
      "stateMutability": "pure",
      "type": "function"
    }
  ],
  "bytecode": "0x60806040523480156200001157600080fd5b50604051620045203803806200452083398181016040528101906200003791906200032d565b826000806101000a81548173ffffffffffffffffffffffffffffffffffffffff021916908373ffffffffffffffffffffffffffffffffffffffff160217905550816001908162000088919062000612565b5080600290816200009a919062000612565b50604051806080016040528060518152602001620044cf6051913960039081620000c5919062000612565b5060006004819055506103e860058190555033600660006101000a81548173ffffffffffffffffffffffffffffffffffffffff021916908373ffffffffffffffffffffffffffffffffffffffff160217905550505050620006f9565b6000604051905090565b600080fd5b600080fd5b600073ffffffffffffffffffffffffffffffffffffffff82169050919050565b6000620001628262000135565b9050919050565b6000620001768262000155565b9050919050565b620001888162000169565b81146200019457600080fd5b50565b600081519050620001a8816200017d565b92915050565b600080fd5b600080fd5b6000601f19601f8301169050919050565b7f4e487b7100000000000000000000000000000000000000000000000000000000600052604160045260246000fd5b6200020382620001b8565b810181811067ffffffffffffffff82111715620002255762000224620001c9565b5b80604052505050565b60006200023a62000121565b9050620002488282620001f8565b919050565b600067ffffffffffffffff8211156200026b576200026a620001c9565b5b6200027682620001b8565b9050602081019050919050565b60005b83811015620002a357808201518184015260208101905062000286565b60008484015250505050565b6000620002c6620002c0846200024d565b6200022e565b905082815260208101848484011115620002e557620002e4620001b3565b5b620002f284828562000283565b509392505050565b600082601f830112620003125762000311620001ae565b5b815162000324848260208601620002af565b91505092915050565b6000806000606084860312156200034957620003486200012b565b5b6000620003598682870162000197565b935050602084015167ffffffffffffffff8111156200037d576200037c62000130565b5b6200038b86828701620002fa565b925050604084015167ffffffffffffffff811115620003af57620003ae62000130565b5b620003bd86828701620002fa565b9150509250925092565b600081519050919050565b7f4e487b7100000000000000000000000000000000000000000000000000000000600052602260045260246000fd5b600060028204905060018216806200041a57607f821691505b60208210810362000430576200042f620003d2565b5b50919050565b60008190508160005260206000209050919050565b60006020601f8301049050919050565b600082821b905092915050565b6000600883026200049a7fffffffffffffffffffffffffffffffffffffffffffffffffffffffffffffffff826200045b565b620004a686836200045b565b95508019841693508086168417925050509392505050565b6000819050919050565b6000819050919050565b6000620004f3620004ed620004e784620004be565b620004c8565b620004be565b9050919050565b6000819050919050565b6200050f83620004d2565b620005276200051e82620004fa565b84845462000468565b825550505050565b600090565b6200053e6200052f565b6200054b81848462000504565b505050565b5b8181101562000573576200056760008262000534565b60018101905062000551565b5050565b601f821115620005c2576200058c8162000436565b62000597846200044b565b81016020851015620005a7578190505b620005bf620005b6856200044b565b83018262000550565b50505b505050565b600082821c905092915050565b6000620005e760001984600802620005c7565b1980831691505092915050565b6000620006028383620005d4565b9150826002028217905092915050565b6200061d82620003c7565b67ffffffffffffffff811115620006395762000638620001c9565b5b62000645825462000401565b6200065282828562000577565b600060209050601f8311600181146200068a576000841562000675578287015190505b620006818582620005f4565b865550620006f1565b601f1984166200069a8662000436565b60005b82811015620006c4578489015182556001820191506020850194506020810190506200069d565b86831015620006e45784890151620006e0601f891682620005d4565b8355505b6001600288020188555050505b505050505050565b613dc680620007096000396000f3fe6080604052600436106101cd5760003560e01c806370a08231116100f7578063bed34bba11610095578063e5326ab111610064578063e5326ab11461068c578063e8315742146106b7578063e985e9c5146106e2578063fd3265921461071f576101cd565b8063bed34bba146105be578063c63868b9146105fb578063c87b56dd14610624578063ce606ee014610661576101cd565b806395d89b41116100d157806395d89b4114610511578063a22cb4651461053c578063b88d4fde14610565578063bda9183314610581576101cd565b806370a082311461046e5780637185d3d0146104ab5780638fbeff23146104d4576101cd565b806323b872dd1161016f57806342842e0e1161013e57806342842e0e146103ad5780634c1b02c0146103c95780636352211e146104065780636c0360eb14610443576101cd565b806323b872dd146103245780632f39352a146103405780633b1475a71461036b5780633ccfd60b14610396576101cd565b8063095ea7b3116101ab578063095ea7b314610277578063131a7e241461029357806318160ddd146102d057806318f239ca146102fb576101cd565b80630374e945146101d257806306fdde031461020f578063081812fc1461023a575b600080fd5b3480156101de57600080fd5b506101f960048036038101906101f491906127d7565b61075c565b6040516102069190612813565b60405180910390f35b34801561021b57600080fd5b5061022461077c565b60405161023191906128be565b60405180910390f35b34801561024657600080fd5b50610261600480360381019061025c91906127d7565b61080e565b60405161026e9190612921565b60405180910390f35b610291600480360381019061028c9190612968565b61084b565b005b34801561029f57600080fd5b506102ba60048036038101906102b591906127d7565b61097a565b6040516102c79190612a1f565b60405180910390f35b3480156102dc57600080fd5b506102e56109a4565b6040516102f29190612813565b60405180910390f35b34801561030757600080fd5b50610322600480360381019061031d91906127d7565b6109ae565b005b61033e60048036038101906103399190612a3a565b610f04565b005b34801561034c57600080fd5b5061035561108c565b60405161036291906128be565b60405180910390f35b34801561037757600080fd5b5061038061111a565b60405161038d9190612813565b60405180910390f35b3480156103a257600080fd5b506103ab611120565b005b6103c760048036038101906103c29190612a3a565b611278565b005b3480156103d557600080fd5b506103f060048036038101906103eb91906127d7565b611298565b6040516103fd9190612813565b60405180910390f35b34801561041257600080fd5b5061042d600480360381019061042891906127d7565b6112b8565b60405161043a9190612921565b60405180910390f35b34801561044f57600080fd5b506104586112f5565b60405161046591906128be565b60405180910390f35b34801561047a57600080fd5b5061049560048036038101906104909190612a8d565b611383565b6040516104a29190612813565b60405180910390f35b3480156104b757600080fd5b506104d260048036038101906104cd91906127d7565b61143a565b005b3480156104e057600080fd5b506104fb60048036038101906104f69190612aba565b611479565b6040516105089190612b15565b60405180910390f35b34801561051d57600080fd5b5061052661177d565b60405161053391906128be565b60405180910390f35b34801561054857600080fd5b50610563600480360381019061055e9190612b5c565b61180f565b005b61057f600480360381019061057a9190612cd1565b61190c565b005b34801561058d57600080fd5b506105a860048036038101906105a391906127d7565b611ae0565b6040516105b591906128be565b60405180910390f35b3480156105ca57600080fd5b506105e560048036038101906105e09190612df5565b611b88565b6040516105f29190612b15565b60405180910390f35b34801561060757600080fd5b50610622600480360381019061061d9190612e6d565b611be1565b005b34801561063057600080fd5b5061064b600480360381019061064691906127d7565b611fbd565b60405161065891906128be565b60405180910390f35b34801561066d57600080fd5b50610676612062565b6040516106839190612921565b60405180910390f35b34801561069857600080fd5b506106a1612088565b6040516106ae91906128be565b60405180910390f35b3480156106c357600080fd5b506106cc612116565b6040516106d99190612813565b60405180910390f35b3480156106ee57600080fd5b5061070960048036038101906107049190612f63565b61211c565b6040516107169190612b15565b60405180910390f35b34801561072b57600080fd5b50610746600480360381019061074191906127d7565b6121b0565b6040516107539190612813565b60405180910390f35b6000600b6000838152602001908152602001600020600501549050919050565b60606001805461078b90612fd2565b80601f01602080910402602001604051908101604052809291908181526020018280546107b790612fd2565b80156108045780601f106107d957610100808354040283529160200191610804565b820191906000526020600020905b8154815290600101906020018083116107e757829003601f168201915b5050505050905090565b60006009600083815260200190815260200160002060009054906101000a900473ffffffffffffffffffffffffffffffffffffffff169050919050565b3373ffffffffffffffffffffffffffffffffffffffff1661086b826112b8565b73ffffffffffffffffffffffffffffffffffffffff16146108c1576040517f08c379a00000000000000000000000000000000000000000000000000000000081526004016108b89061304f565b60405180910390fd5b816009600083815260200190815260200160002060006101000a81548173ffffffffffffffffffffffffffffffffffffffff021916908373ffffffffffffffffffffffffffffffffffffffff160217905550808273ffffffffffffffffffffffffffffffffffffffff16610934836112b8565b73ffffffffffffffffffffffffffffffffffffffff167f8c5be1e5ebec7d5bd14f71427d1e84f3dd0314c0f7b2291e5b200ac8c7c3b92560405160405180910390a45050565b6000600c600083815260200190815260200160002060009054906101000a900460ff169050919050565b6000600454905090565b3373ffffffffffffffffffffffffffffffffffffffff166007600083815260200190815260200160002060009054906101000a900473ffffffffffffffffffffffffffffffffffffffff1673ffffffffffffffffffffffffffffffffffffffff1614610a4f576040517f08c379a0000000000000000000000000000000000000000000000000000000008152600401610a469061304f565b60405180910390fd5b60006001811115610a6357610a626129a8565b5b600c600083815260200190815260200160002060009054906101000a900460ff166001811115610a9657610a956129a8565b5b14610ad6576040517f08c379a0000000000000000000000000000000000000000000000000000000008152600401610acd906130bb565b60405180910390fd5b6000600b60008381526020019081526020016000206002018054610af990612fd2565b80601f0160208091040260200160405190810160405280929190818152602001828054610b2590612fd2565b8015610b725780601f10610b4757610100808354040283529160200191610b72565b820191906000526020600020905b815481529060010190602001808311610b5557829003601f168201915b50505050509050610bb8816040518060400160405280600981526020017f4c6567656e646172790000000000000000000000000000000000000000000000815250611b88565b15610c5b5760008054906101000a900473ffffffffffffffffffffffffffffffffffffffff1673ffffffffffffffffffffffffffffffffffffffff16632a73ac1f333060086040518463ffffffff1660e01b8152600401610c1b93929190613120565b600060405180830381600087803b158015610c3557600080fd5b505af1158015610c49573d6000803e3d6000fd5b50505050610c56826121d0565b610f00565b610c9a816040518060400160405280600481526020017f4570696300000000000000000000000000000000000000000000000000000000815250611b88565b15610d3d5760008054906101000a900473ffffffffffffffffffffffffffffffffffffffff1673ffffffffffffffffffffffffffffffffffffffff16632a73ac1f333060046040518463ffffffff1660e01b8152600401610cfd93929190613192565b600060405180830381600087803b158015610d1757600080fd5b505af1158015610d2b573d6000803e3d6000fd5b50505050610d38826121d0565b610eff565b610d7c816040518060400160405280600481526020017f5261726500000000000000000000000000000000000000000000000000000000815250611b88565b15610e1f5760008054906101000a900473ffffffffffffffffffffffffffffffffffffffff1673ffffffffffffffffffffffffffffffffffffffff16632a73ac1f333060026040518463ffffffff1660e01b8152600401610ddf93929190613204565b600060405180830381600087803b158015610df957600080fd5b505af1158015610e0d573d6000803e3d6000fd5b50505050610e1a826121d0565b610efe565b610e5e816040518060400160405280600681526020017f436f6d6d6f6e0000000000000000000000000000000000000000000000000000815250611b88565b15610efd5760008054906101000a900473ffffffffffffffffffffffffffffffffffffffff1673ffffffffffffffffffffffffffffffffffffffff16632a73ac1f333060016040518463ffffffff1660e01b8152600401610ec193929190613276565b600060405180830381600087803b158015610edb57600080fd5b505af1158015610eef573d6000803e3d6000fd5b50505050610efc826121d0565b5b5b5b5b5050565b3373ffffffffffffffffffffffffffffffffffffffff16610f24826112b8565b73ffffffffffffffffffffffffffffffffffffffff161480610fa457503373ffffffffffffffffffffffffffffffffffffffff166009600083815260200190815260200160002060009054906101000a900473ffffffffffffffffffffffffffffffffffffffff1673ffffffffffffffffffffffffffffffffffffffff16145b8061103d5750600a6000610fb7836112b8565b73ffffffffffffffffffffffffffffffffffffffff1673ffffffffffffffffffffffffffffffffffffffff16815260200190815260200160002060003373ffffffffffffffffffffffffffffffffffffffff1673ffffffffffffffffffffffffffffffffffffffff16815260200190815260200160002060009054906101000a900460ff165b61107c576040517f08c379a00000000000000000000000000000000000000000000000000000000081526004016110739061331f565b60405180910390fd5b61108783838361220f565b505050565b6002805461109990612fd2565b80601f01602080910402602001604051908101604052809291908181526020018280546110c590612fd2565b80156111125780601f106110e757610100808354040283529160200191611112565b820191906000526020600020905b8154815290600101906020018083116110f557829003601f168201915b505050505081565b60045481565b60008060009054906101000a900473ffffffffffffffffffffffffffffffffffffffff1673ffffffffffffffffffffffffffffffffffffffff16635e1c86ce6040518163ffffffff1660e01b8152600401602060405180830381865afa15801561118e573d6000803e3d6000fd5b505050506040513d601f19601f820116820180604052508101906111b29190613354565b905060008054906101000a900473ffffffffffffffffffffffffffffffffffffffff1673ffffffffffffffffffffffffffffffffffffffff1663f09910e4600660009054906101000a900473ffffffffffffffffffffffffffffffffffffffff16836040518363ffffffff1660e01b8152600401611231929190613381565b6020604051808303816000875af1158015611250573d6000803e3d6000fd5b505050506040513d601f19601f8201168201806040525081019061127491906133bf565b5050565b6112938383836040518060200160405280600081525061190c565b505050565b6000600b6000838152602001908152602001600020600601549050919050565b60006007600083815260200190815260200160002060009054906101000a900473ffffffffffffffffffffffffffffffffffffffff169050919050565b6003805461130290612fd2565b80601f016020809104026020016040519081016040528092919081815260200182805461132e90612fd2565b801561137b5780601f106113505761010080835404028352916020019161137b565b820191906000526020600020905b81548152906001019060200180831161135e57829003601f168201915b505050505081565b60008073ffffffffffffffffffffffffffffffffffffffff168273ffffffffffffffffffffffffffffffffffffffff16036113f3576040517f08c379a00000000000000000000000000000000000000000000000000000000081526004016113ea90613438565b60405180910390fd5b600860008373ffffffffffffffffffffffffffffffffffffffff1673ffffffffffffffffffffffffffffffffffffffff168152602001908152602001600020549050919050565b6000600c600083815260200190815260200160002060006101000a81548160ff02191690836001811115611471576114706129a8565b5b021790555050565b600080600b6000858152602001908152602001600020600301805461149d90612fd2565b80601f01602080910402602001604051908101604052809291908181526020018280546114c990612fd2565b80156115165780601f106114eb57610100808354040283529160200191611516565b820191906000526020600020905b8154815290600101906020018083116114f957829003601f168201915b505050505090506000600b6000858152602001908152602001600020600301805461154090612fd2565b80601f016020809104026020016040519081016040528092919081815260200182805461156c90612fd2565b80156115b95780601f1061158e576101008083540402835291602001916115b9565b820191906000526020600020905b81548152906001019060200180831161159c57829003601f168201915b505050505090506115ff826040518060400160405280600781526020017f4171756174696300000000000000000000000000000000000000000000000000815250611b88565b80156116465750611645816040518060400160405280600881526020017f496e6665726e616c000000000000000000000000000000000000000000000000815250611b88565b5b806116d3575061168b826040518060400160405280600781526020017f56657264616e7400000000000000000000000000000000000000000000000000815250611b88565b80156116d257506116d1816040518060400160405280600781526020017f4171756174696300000000000000000000000000000000000000000000000000815250611b88565b5b5b806117605750611718826040518060400160405280600881526020017f496e6665726e616c000000000000000000000000000000000000000000000000815250611b88565b801561175f575061175e816040518060400160405280600781526020017f56657264616e7400000000000000000000000000000000000000000000000000815250611b88565b5b5b1561177057600192505050611777565b6000925050505b92915050565b60606002805461178c90612fd2565b80601f01602080910402602001604051908101604052809291908181526020018280546117b890612fd2565b80156118055780601f106117da57610100808354040283529160200191611805565b820191906000526020600020905b8154815290600101906020018083116117e857829003601f168201915b5050505050905090565b80600a60003373ffffffffffffffffffffffffffffffffffffffff1673ffffffffffffffffffffffffffffffffffffffff16815260200190815260200160002060008473ffffffffffffffffffffffffffffffffffffffff1673ffffffffffffffffffffffffffffffffffffffff16815260200190815260200160002060006101000a81548160ff0219169083151502179055508173ffffffffffffffffffffffffffffffffffffffff163373ffffffffffffffffffffffffffffffffffffffff167f17307eab39ab6107e8899845ad3d59bd9653f200f220920489ca2b5937696c31836040516119009190612b15565b60405180910390a35050565b3373ffffffffffffffffffffffffffffffffffffffff1661192c836112b8565b73ffffffffffffffffffffffffffffffffffffffff1614806119ac57503373ffffffffffffffffffffffffffffffffffffffff166009600084815260200190815260200160002060009054906101000a900473ffffffffffffffffffffffffffffffffffffffff1673ffffffffffffffffffffffffffffffffffffffff16145b80611a455750600a60006119bf846112b8565b73ffffffffffffffffffffffffffffffffffffffff1673ffffffffffffffffffffffffffffffffffffffff16815260200190815260200160002060003373ffffffffffffffffffffffffffffffffffffffff1673ffffffffffffffffffffffffffffffffffffffff16815260200190815260200160002060009054906101000a900460ff165b611a84576040517f08c379a0000000000000000000000000000000000000000000000000000000008152600401611a7b9061331f565b60405180910390fd5b611a8f84848461220f565b611a9b8484848461248a565b611ada576040517f08c379a0000000000000000000000000000000000000000000000000000000008152600401611ad1906134a4565b60405180910390fd5b50505050565b6060600b60008381526020019081526020016000206003018054611b0390612fd2565b80601f0160208091040260200160405190810160405280929190818152602001828054611b2f90612fd2565b8015611b7c5780601f10611b5157610100808354040283529160200191611b7c565b820191906000526020600020905b815481529060010190602001808311611b5f57829003601f168201915b50505050509050919050565b600081604051602001611b9b9190613500565b6040516020818303038152906040528051906020012083604051602001611bc29190613500565b6040516020818303038152906040528051906020012014905092915050565b600160008054906101000a900473ffffffffffffffffffffffffffffffffffffffff1673ffffffffffffffffffffffffffffffffffffffff166370a08231896040518263ffffffff1660e01b8152600401611c3c9190612921565b602060405180830381865afa158015611c59573d6000803e3d6000fd5b505050506040513d601f19601f82011682018060405250810190611c7d9190613354565b11611cbd576040517f08c379a0000000000000000000000000000000000000000000000000000000008152600401611cb490613563565b60405180910390fd5b60008054906101000a900473ffffffffffffffffffffffffffffffffffffffff1673ffffffffffffffffffffffffffffffffffffffff16632a73ac1f883060056040518463ffffffff1660e01b8152600401611d1b939291906135be565b600060405180830381600087803b158015611d3557600080fd5b505af1158015611d49573d6000803e3d6000fd5b505050508660076000600454815260200190815260200160002060006101000a81548173ffffffffffffffffffffffffffffffffffffffff021916908373ffffffffffffffffffffffffffffffffffffffff1602179055506001600860008973ffffffffffffffffffffffffffffffffffffffff1673ffffffffffffffffffffffffffffffffffffffff1681526020019081526020016000206000828254611df19190613624565b925050819055506003611e05600454612605565b604051602001611e1692919061373c565b604051602081830303815290604052600d600060045481526020019081526020016000209081611e46919061390b565b506040518060e00160405280600454815260200187815260200186815260200185815260200184815260200183815260200182815250600b60006004548152602001908152602001600020600082015181600001556020820151816001019081611eb0919061390b565b506040820151816002019081611ec6919061390b565b506060820151816003019081611edc919061390b565b506080820151816004015560a0820151816005015560c082015181600601559050506001600c6000600454815260200190815260200160002060006101000a81548160ff02191690836001811115611f3757611f366129a8565b5b02179055506004548773ffffffffffffffffffffffffffffffffffffffff16600073ffffffffffffffffffffffffffffffffffffffff167fddf252ad1be2c89b69c2b068fc378daa952ba7f163c4a11628f55a4df523b3ef60405160405180910390a4600160046000828254611fad9190613624565b9250508190555050505050505050565b6060600d60008381526020019081526020016000208054611fdd90612fd2565b80601f016020809104026020016040519081016040528092919081815260200182805461200990612fd2565b80156120565780601f1061202b57610100808354040283529160200191612056565b820191906000526020600020905b81548152906001019060200180831161203957829003601f168201915b50505050509050919050565b600660009054906101000a900473ffffffffffffffffffffffffffffffffffffffff1681565b6001805461209590612fd2565b80601f01602080910402602001604051908101604052809291908181526020018280546120c190612fd2565b801561210e5780601f106120e35761010080835404028352916020019161210e565b820191906000526020600020905b8154815290600101906020018083116120f157829003601f168201915b505050505081565b60055481565b6000600a60008473ffffffffffffffffffffffffffffffffffffffff1673ffffffffffffffffffffffffffffffffffffffff16815260200190815260200160002060008373ffffffffffffffffffffffffffffffffffffffff1673ffffffffffffffffffffffffffffffffffffffff16815260200190815260200160002060009054906101000a900460ff16905092915050565b6000600b6000838152602001908152602001600020600401549050919050565b6001600c600083815260200190815260200160002060006101000a81548160ff02191690836001811115612207576122066129a8565b5b021790555050565b8273ffffffffffffffffffffffffffffffffffffffff1661222f826112b8565b73ffffffffffffffffffffffffffffffffffffffff1614612285576040517f08c379a000000000000000000000000000000000000000000000000000000000815260040161227c9061304f565b60405180910390fd5b600073ffffffffffffffffffffffffffffffffffffffff168273ffffffffffffffffffffffffffffffffffffffff16036122f4576040517f08c379a00000000000000000000000000000000000000000000000000000000081526004016122eb90613a29565b60405180910390fd5b6009600082815260200190815260200160002060006101000a81549073ffffffffffffffffffffffffffffffffffffffff02191690556001600860008573ffffffffffffffffffffffffffffffffffffffff1673ffffffffffffffffffffffffffffffffffffffff168152602001908152602001600020600082825461237a9190613a49565b925050819055506001600860008473ffffffffffffffffffffffffffffffffffffffff1673ffffffffffffffffffffffffffffffffffffffff16815260200190815260200160002060008282546123d19190613624565b92505081905550816007600083815260200190815260200160002060006101000a81548173ffffffffffffffffffffffffffffffffffffffff021916908373ffffffffffffffffffffffffffffffffffffffff160217905550808273ffffffffffffffffffffffffffffffffffffffff168473ffffffffffffffffffffffffffffffffffffffff167fddf252ad1be2c89b69c2b068fc378daa952ba7f163c4a11628f55a4df523b3ef60405160405180910390a4505050565b6000808473ffffffffffffffffffffffffffffffffffffffff163b11156125f8578373ffffffffffffffffffffffffffffffffffffffff1663150b7a02338786866040518563ffffffff1660e01b81526004016124ea9493929190613ad2565b6020604051808303816000875af192505050801561252657506040513d601f19601f820116820180604052508101906125239190613b76565b60015b6125a8573d8060008114612556576040519150601f19603f3d011682016040523d82523d6000602084013e61255b565b606091505b5060008151036125a0576040517f08c379a000000000000000000000000000000000000000000000000000000000815260040161259790613c15565b60405180910390fd5b805181602001fd5b63150b7a0260e01b7bffffffffffffffffffffffffffffffffffffffffffffffffffffffff1916817bffffffffffffffffffffffffffffffffffffffffffffffffffffffff1916149150506125fd565b600190505b949350505050565b60606000820361264c576040518060400160405280600181526020017f30000000000000000000000000000000000000000000000000000000000000008152509050612788565b600082905060005b6000821461267e57808061266790613c35565b915050600a826126779190613cac565b9150612654565b60008167ffffffffffffffff81111561269a57612699612ba6565b5b6040519080825280601f01601f1916602001820160405280156126cc5781602001600182028036833780820191505090505b50905060008290505b60008614612780576001816126ea9190613a49565b90506000600a80886126fc9190613cac565b6127069190613cdd565b876127119190613a49565b603061271d9190613d2c565b905060008160f81b90508084848151811061273b5761273a613d61565b5b60200101907effffffffffffffffffffffffffffffffffffffffffffffffffffffffffffff1916908160001a905350600a886127779190613cac565b975050506126d5565b819450505050505b919050565b6000604051905090565b600080fd5b600080fd5b6000819050919050565b6127b4816127a1565b81146127bf57600080fd5b50565b6000813590506127d1816127ab565b92915050565b6000602082840312156127ed576127ec612797565b5b60006127fb848285016127c2565b91505092915050565b61280d816127a1565b82525050565b60006020820190506128286000830184612804565b92915050565b600081519050919050565b600082825260208201905092915050565b60005b8381101561286857808201518184015260208101905061284d565b60008484015250505050565b6000601f19601f8301169050919050565b60006128908261282e565b61289a8185612839565b93506128aa81856020860161284a565b6128b381612874565b840191505092915050565b600060208201905081810360008301526128d88184612885565b905092915050565b600073ffffffffffffffffffffffffffffffffffffffff82169050919050565b600061290b826128e0565b9050919050565b61291b81612900565b82525050565b60006020820190506129366000830184612912565b92915050565b61294581612900565b811461295057600080fd5b50565b6000813590506129628161293c565b92915050565b6000806040838503121561297f5761297e612797565b5b600061298d85828601612953565b925050602061299e858286016127c2565b9150509250929050565b7f4e487b7100000000000000000000000000000000000000000000000000000000600052602160045260246000fd5b600281106129e8576129e76129a8565b5b50565b60008190506129f9826129d7565b919050565b6000612a09826129eb565b9050919050565b612a19816129fe565b82525050565b6000602082019050612a346000830184612a10565b92915050565b600080600060608486031215612a5357612a52612797565b5b6000612a6186828701612953565b9350506020612a7286828701612953565b9250506040612a83868287016127c2565b9150509250925092565b600060208284031215612aa357612aa2612797565b5b6000612ab184828501612953565b91505092915050565b60008060408385031215612ad157612ad0612797565b5b6000612adf858286016127c2565b9250506020612af0858286016127c2565b9150509250929050565b60008115159050919050565b612b0f81612afa565b82525050565b6000602082019050612b2a6000830184612b06565b92915050565b612b3981612afa565b8114612b4457600080fd5b50565b600081359050612b5681612b30565b92915050565b60008060408385031215612b7357612b72612797565b5b6000612b8185828601612953565b9250506020612b9285828601612b47565b9150509250929050565b600080fd5b600080fd5b7f4e487b7100000000000000000000000000000000000000000000000000000000600052604160045260246000fd5b612bde82612874565b810181811067ffffffffffffffff82111715612bfd57612bfc612ba6565b5b80604052505050565b6000612c1061278d565b9050612c1c8282612bd5565b919050565b600067ffffffffffffffff821115612c3c57612c3b612ba6565b5b612c4582612874565b9050602081019050919050565b82818337600083830152505050565b6000612c74612c6f84612c21565b612c06565b905082815260208101848484011115612c9057612c8f612ba1565b5b612c9b848285612c52565b509392505050565b600082601f830112612cb857612cb7612b9c565b5b8135612cc8848260208601612c61565b91505092915050565b60008060008060808587031215612ceb57612cea612797565b5b6000612cf987828801612953565b9450506020612d0a87828801612953565b9350506040612d1b878288016127c2565b925050606085013567ffffffffffffffff811115612d3c57612d3b61279c565b5b612d4887828801612ca3565b91505092959194509250565b600067ffffffffffffffff821115612d6f57612d6e612ba6565b5b612d7882612874565b9050602081019050919050565b6000612d98612d9384612d54565b612c06565b905082815260208101848484011115612db457612db3612ba1565b5b612dbf848285612c52565b509392505050565b600082601f830112612ddc57612ddb612b9c565b5b8135612dec848260208601612d85565b91505092915050565b60008060408385031215612e0c57612e0b612797565b5b600083013567ffffffffffffffff811115612e2a57612e2961279c565b5b612e3685828601612dc7565b925050602083013567ffffffffffffffff811115612e5757612e5661279c565b5b612e6385828601612dc7565b9150509250929050565b600080600080600080600060e0888a031215612e8c57612e8b612797565b5b6000612e9a8a828b01612953565b975050602088013567ffffffffffffffff811115612ebb57612eba61279c565b5b612ec78a828b01612dc7565b965050604088013567ffffffffffffffff811115612ee857612ee761279c565b5b612ef48a828b01612dc7565b955050606088013567ffffffffffffffff811115612f1557612f1461279c565b5b612f218a828b01612dc7565b9450506080612f328a828b016127c2565b93505060a0612f438a828b016127c2565b92505060c0612f548a828b016127c2565b91505092959891949750929550565b60008060408385031215612f7a57612f79612797565b5b6000612f8885828601612953565b9250506020612f9985828601612953565b9150509250929050565b7f4e487b7100000000000000000000000000000000000000000000000000000000600052602260045260246000fd5b60006002820490506001821680612fea57607f821691505b602082108103612ffd57612ffc612fa3565b5b50919050565b7f4e6f74206f776e6572206f662042656173740000000000000000000000000000600082015250565b6000613039601283612839565b915061304482613003565b602082019050919050565b600060208201905081810360008301526130688161302c565b9050919050565b7f4265617374206973206e6f742062726f6b656e00000000000000000000000000600082015250565b60006130a5601383612839565b91506130b08261306f565b602082019050919050565b600060208201905081810360008301526130d481613098565b9050919050565b6000819050919050565b6000819050919050565b600061310a613105613100846130db565b6130e5565b6127a1565b9050919050565b61311a816130ef565b82525050565b60006060820190506131356000830186612912565b6131426020830185612912565b61314f6040830184613111565b949350505050565b6000819050919050565b600061317c61317761317284613157565b6130e5565b6127a1565b9050919050565b61318c81613161565b82525050565b60006060820190506131a76000830186612912565b6131b46020830185612912565b6131c16040830184613183565b949350505050565b6000819050919050565b60006131ee6131e96131e4846131c9565b6130e5565b6127a1565b9050919050565b6131fe816131d3565b82525050565b60006060820190506132196000830186612912565b6132266020830185612912565b61323360408301846131f5565b949350505050565b6000819050919050565b600061326061325b6132568461323b565b6130e5565b6127a1565b9050919050565b61327081613245565b82525050565b600060608201905061328b6000830186612912565b6132986020830185612912565b6132a56040830184613267565b949350505050565b7f4e6f20617070726f76616c206772616e7420746f207472616e7366657220746860008201527f6973204265617374000000000000000000000000000000000000000000000000602082015250565b6000613309602883612839565b9150613314826132ad565b604082019050919050565b60006020820190508181036000830152613338816132fc565b9050919050565b60008151905061334e816127ab565b92915050565b60006020828403121561336a57613369612797565b5b60006133788482850161333f565b91505092915050565b60006040820190506133966000830185612912565b6133a36020830184612804565b9392505050565b6000815190506133b981612b30565b92915050565b6000602082840312156133d5576133d4612797565b5b60006133e3848285016133aa565b91505092915050565b7f4e756c6c20616464726573732073706563696669656400000000000000000000600082015250565b6000613422601683612839565b915061342d826133ec565b602082019050919050565b6000602082019050818103600083015261345181613415565b9050919050565b7f21455243373231496d706c656d656e7465720000000000000000000000000000600082015250565b600061348e601283612839565b915061349982613458565b602082019050919050565b600060208201905081810360008301526134bd81613481565b9050919050565b600081905092915050565b60006134da8261282e565b6134e481856134c4565b93506134f481856020860161284a565b80840191505092915050565b600061350c82846134cf565b915081905092915050565b7f4e6f7420656e6f7567682047656d20696e2077616c6c65740000000000000000600082015250565b600061354d601883612839565b915061355882613517565b602082019050919050565b6000602082019050818103600083015261357c81613540565b9050919050565b6000819050919050565b60006135a86135a361359e84613583565b6130e5565b6127a1565b9050919050565b6135b88161358d565b82525050565b60006060820190506135d36000830186612912565b6135e06020830185612912565b6135ed60408301846135af565b949350505050565b7f4e487b7100000000000000000000000000000000000000000000000000000000600052601160045260246000fd5b600061362f826127a1565b915061363a836127a1565b9250828201905080821115613652576136516135f5565b5b92915050565b60008190508160005260206000209050919050565b6000815461367a81612fd2565b61368481866134c4565b9450600182166000811461369f57600181146136b4576136e7565b60ff19831686528115158202860193506136e7565b6136bd85613658565b60005b838110156136df578154818901526001820191506020810190506136c0565b838801955050505b50505092915050565b7f42656173745f0000000000000000000000000000000000000000000000000000815250565b7f2e6a736f6e000000000000000000000000000000000000000000000000000000815250565b6000613748828561366d565b9150613753826136f0565b60068201915061376382846134cf565b915061376e82613716565b6005820191508190509392505050565b60006020601f8301049050919050565b600082821b905092915050565b6000600883026137cb7fffffffffffffffffffffffffffffffffffffffffffffffffffffffffffffffff8261378e565b6137d5868361378e565b95508019841693508086168417925050509392505050565b60006138086138036137fe846127a1565b6130e5565b6127a1565b9050919050565b6000819050919050565b613822836137ed565b61383661382e8261380f565b84845461379b565b825550505050565b600090565b61384b61383e565b613856818484613819565b505050565b5b8181101561387a5761386f600082613843565b60018101905061385c565b5050565b601f8211156138bf5761389081613658565b6138998461377e565b810160208510156138a8578190505b6138bc6138b48561377e565b83018261385b565b50505b505050565b600082821c905092915050565b60006138e2600019846008026138c4565b1980831691505092915050565b60006138fb83836138d1565b9150826002028217905092915050565b6139148261282e565b67ffffffffffffffff81111561392d5761392c612ba6565b5b6139378254612fd2565b61394282828561387e565b600060209050601f8311600181146139755760008415613963578287015190505b61396d85826138ef565b8655506139d5565b601f19841661398386613658565b60005b828110156139ab57848901518255600182019150602085019450602081019050613986565b868310156139c857848901516139c4601f8916826138d1565b8355505b6001600288020188555050505b505050505050565b7f4e756c6c20416464726573732053706563696669656400000000000000000000600082015250565b6000613a13601683612839565b9150613a1e826139dd565b602082019050919050565b60006020820190508181036000830152613a4281613a06565b9050919050565b6000613a54826127a1565b9150613a5f836127a1565b9250828203905081811115613a7757613a766135f5565b5b92915050565b600081519050919050565b600082825260208201905092915050565b6000613aa482613a7d565b613aae8185613a88565b9350613abe81856020860161284a565b613ac781612874565b840191505092915050565b6000608082019050613ae76000830187612912565b613af46020830186612912565b613b016040830185612804565b8181036060830152613b138184613a99565b905095945050505050565b60007fffffffff0000000000000000000000000000000000000000000000000000000082169050919050565b613b5381613b1e565b8114613b5e57600080fd5b50565b600081519050613b7081613b4a565b92915050565b600060208284031215613b8c57613b8b612797565b5b6000613b9a84828501613b61565b91505092915050565b7f4552433732313a207472616e7366657220746f206e6f6e20455243373231526560008201527f63656976657220696d706c656d656e7465720000000000000000000000000000602082015250565b6000613bff603283612839565b9150613c0a82613ba3565b604082019050919050565b60006020820190508181036000830152613c2e81613bf2565b9050919050565b6000613c40826127a1565b91507fffffffffffffffffffffffffffffffffffffffffffffffffffffffffffffffff8203613c7257613c716135f5565b5b600182019050919050565b7f4e487b7100000000000000000000000000000000000000000000000000000000600052601260045260246000fd5b6000613cb7826127a1565b9150613cc2836127a1565b925082613cd257613cd1613c7d565b5b828204905092915050565b6000613ce8826127a1565b9150613cf3836127a1565b9250828202613d01816127a1565b91508282048414831517613d1857613d176135f5565b5b5092915050565b600060ff82169050919050565b6000613d3782613d1f565b9150613d4283613d1f565b9250828201905060ff811115613d5b57613d5a6135f5565b5b92915050565b7f4e487b7100000000000000000000000000000000000000000000000000000000600052603260045260246000fdfea2646970667358221220f9071308b79f80999dd8a7449f39075b361367378f2d231392144a7dffd3aca064736f6c6343000812003368747470733a2f2f697066732e696f2f697066732f62616679626569686a756b6871616e336f6b76356b706f7168366171786d6e636a70373561373672676d6d367a65743678336c376b7567636b35652f",
  "immutableReferences": {},
  "source": "// SPDX-License-Identifier: MIT\npragma solidity ^0.8.18;\n\nimport './IERC721Receiver.sol';\nimport './Gem.sol';\n\ncontract BeastCard {\n    Gem gemContract;\n    string public collectionName;\n    string public collectionSymbol;\n    string public baseURI;\n\n    enum cardState { broken, functional }\n\n    uint256 public nextTokenIdToMint;\n    uint256 public maxTokens;\n    address public contractOwner;\n\n    // card id => owner\n    mapping(uint256 => address) internal _owners;\n    // owner => card count\n    mapping(address => uint256) internal _balances;\n    // card id => approved address\n    mapping(uint256 => address) internal _tokenApprovals;\n    // owner => (operator => yes/no)\n    mapping(address => mapping(address => bool)) internal _operatorApprovals;\n    // card id => beast struct\n    mapping(uint256 => Beast) _beasts;\n    // card id => card state\n    mapping(uint256 => cardState) _cardStates;\n    // card id => URI\n    mapping(uint256 => string) _tokenUris;\n\n\n    struct Beast {\n        uint256 id;\n        string name;\n        string rarity;\n        string nature;\n        uint256 cost;\n        uint256 attack;\n        uint256 health;\n    }\n\n    event Transfer(address indexed _from, address indexed _to, uint256 indexed _tokenId);\n    event Approval(address indexed _owner, address indexed _approved, uint256 indexed _tokenId);\n    event ApprovalForAll(address indexed _owner, address indexed _operator, bool _approved);\n\n    constructor(Gem gemAddress, string memory _name, string memory _symbol) {\n        gemContract = gemAddress;\n        collectionName = _name;\n        collectionSymbol = _symbol;\n        baseURI = \"https://ipfs.io/ipfs/bafybeihjukhqan3okv5kpoqh6aqxmncjp75a76rgmm6zet6x3l7kugck5e/\";\n        nextTokenIdToMint = 0;\n        maxTokens = 1000;\n        contractOwner = msg.sender;\n    }\n\n    function name() external view returns (string memory) {\n        return collectionName;\n    }\n\n    function symbol() external view returns (string memory) {\n        return collectionSymbol;\n    }\n\n    function tokenURI(uint256 _tokenId) public view returns (string memory) {\n        return _tokenUris[_tokenId];\n    }\n    \n    // Set as public so as to allow Fight.sol to call it\n    // Any better way to do it?\n    function cardDestroyed(uint256 _cardId) public {\n        _cardStates[_cardId] = cardState.broken;\n    }\n\n    function cardRevived(uint256 _cardId) internal {\n        _cardStates[_cardId] = cardState.functional;\n    }\n\n    function restoreCard(uint256 _cardId) public {\n        require(_owners[_cardId] == msg.sender, \"Not owner of Beast\");\n        require(_cardStates[_cardId] == cardState.broken, \"Beast is not broken\");\n        string memory rarity = _beasts[_cardId].rarity;\n        if (compareStrings(rarity, \"Legendary\")) {\n            gemContract.transferGemsFrom(msg.sender, address(this), 8);\n            cardRevived(_cardId);\n        } else if (compareStrings(rarity, \"Epic\")) {\n            gemContract.transferGemsFrom(msg.sender, address(this), 4);\n            cardRevived(_cardId);\n        } else if (compareStrings(rarity, \"Rare\")) {\n            gemContract.transferGemsFrom(msg.sender, address(this), 2);\n            cardRevived(_cardId);\n        } else if (compareStrings(rarity, \"Common\")) {\n            gemContract.transferGemsFrom(msg.sender, address(this), 1);\n            cardRevived(_cardId);\n        }\n    }\n\n    function attackOf(uint256 _cardId) public view returns(uint256) {\n        return _beasts[_cardId].attack;\n    }\n\n    function healthOf(uint256 _cardId) public view returns(uint256) {\n        return _beasts[_cardId].health;\n    }\n\n    function stateOf(uint256 _cardId) public view returns(cardState) {\n        return _cardStates[_cardId];\n    }\n\n    function costOf(uint256 _cardId) public view returns (uint256) {\n        return _beasts[_cardId].cost;\n    }\n\n    function natureOf(uint256 _cardId) public view returns (string memory) {\n        return _beasts[_cardId].nature;\n    }\n\n    function balanceOf(address _owner) public view returns(uint256) {\n        require(_owner != address(0), \"Null address specified\");\n        return _balances[_owner];\n    }\n\n    function ownerOf(uint256 _tokenId) public view returns(address) {\n        return _owners[_tokenId];\n    }\n\n    function effective(uint256 myCard, uint256 enemyCard) public view returns (bool) {\n        string memory myNature = _beasts[myCard].nature;\n        string memory enemyNature = _beasts[enemyCard].nature;\n        if ((compareStrings(myNature, \"Aquatic\") && compareStrings(enemyNature, \"Infernal\")) || (compareStrings(myNature, \"Verdant\") && compareStrings(enemyNature, \"Aquatic\")) || (compareStrings(myNature, \"Infernal\") && compareStrings(enemyNature, \"Verdant\"))) {\n            return true;\n        }  else {\n            return false;\n        }\n    }\n\n    function safeTransferFrom(address _from, address _to, uint256 _tokenId) public payable {\n        safeTransferFrom(_from, _to, _tokenId, \"\");\n    }\n\n    function safeTransferFrom(address _from, address _to, uint256 _tokenId, bytes memory _data) public payable {\n        require(ownerOf(_tokenId) == msg.sender || _tokenApprovals[_tokenId] == msg.sender || _operatorApprovals[ownerOf(_tokenId)][msg.sender], \"No approval grant to transfer this Beast\");\n        _transfer(_from, _to, _tokenId);\n        // trigger func check\n        require(_checkOnERC721Received(_from, _to, _tokenId, _data), \"!ERC721Implementer\");\n    }\n\n    function transferFrom(address _from, address _to, uint256 _tokenId) public payable {\n        // unsafe transfer without onERC721Received, used for contracts that dont implement\n        require(ownerOf(_tokenId) == msg.sender || _tokenApprovals[_tokenId] == msg.sender || _operatorApprovals[ownerOf(_tokenId)][msg.sender], \"No approval grant to transfer this Beast\");\n        _transfer(_from, _to, _tokenId);\n    }\n\n    function approve(address _approved, uint256 _tokenId) public payable {\n        require(ownerOf(_tokenId) == msg.sender, \"Not owner of Beast\");\n        _tokenApprovals[_tokenId] = _approved;\n        emit Approval(ownerOf(_tokenId), _approved, _tokenId);\n    }\n\n    function setApprovalForAll(address _operator, bool _approved) public {\n        _operatorApprovals[msg.sender][_operator] = _approved;\n        emit ApprovalForAll(msg.sender, _operator, _approved);\n    }\n\n    function getApproved(uint256 _tokenId) public view returns (address) {\n        return _tokenApprovals[_tokenId];\n    }\n\n    function isApprovedForAll(address _owner, address _operator) public view returns (bool) {\n        return _operatorApprovals[_owner][_operator];\n    }\n\n    function mint(address _to, string memory bname, string memory rarity, string memory nature, uint256 cost, uint256 attack, uint256 health) public {\n        require(gemContract.balanceOf(_to) > 1, \"Not enough Gem in wallet\");\n        gemContract.transferGemsFrom(_to, address(this), 5);\n        _owners[nextTokenIdToMint] = _to;\n        _balances[_to] += 1;\n        _tokenUris[nextTokenIdToMint] = string.concat(baseURI, \"Beast_\", uint2str(nextTokenIdToMint), \".json\");\n        _beasts[nextTokenIdToMint] = Beast(nextTokenIdToMint, bname, rarity, nature, cost, attack, health);\n        _cardStates[nextTokenIdToMint] = cardState.functional;\n        emit Transfer(address(0), _to, nextTokenIdToMint);\n        nextTokenIdToMint += 1;\n    }\n\n    function totalSupply() public view returns(uint256) {\n        return nextTokenIdToMint;\n    }\n\n    function withdraw() public {\n        uint256 amt = gemContract.checkGems();\n        gemContract.transferGems(contractOwner, amt);\n    }\n\n    // INTERNAL FUNCTIONS\n    function _checkOnERC721Received(\n        address from,\n        address to,\n        uint256 tokenId,\n        bytes memory data\n    ) private returns (bool) {\n        // check if to is an contract, if yes, to.code.length will always > 0\n        if (to.code.length > 0) {\n            try IERC721Receiver(to).onERC721Received(msg.sender, from, tokenId, data) returns (bytes4 retval) {\n                return retval == IERC721Receiver.onERC721Received.selector;\n            } catch (bytes memory reason) {\n                if (reason.length == 0) {\n                    revert(\"ERC721: transfer to non ERC721Receiver implementer\");\n                } else {\n                    /// @solidity memory-safe-assembly\n                    assembly {\n                        revert(add(32, reason), mload(reason))\n                    }\n                }\n            }\n        } else {\n            return true;\n        }\n    }\n\n    // unsafe transfer\n    function _transfer(address _from, address _to, uint256 _tokenId) internal {\n        require(ownerOf(_tokenId) == _from, \"Not owner of Beast\");\n        require(_to != address(0), \"Null Address Specified\");\n\n        delete _tokenApprovals[_tokenId];\n        _balances[_from] -= 1;\n        _balances[_to] += 1;\n        _owners[_tokenId] = _to;\n\n        emit Transfer(_from, _to, _tokenId);\n    }\n\n    function compareStrings(string memory a, string memory b) public pure returns (bool) {\n        return (keccak256(abi.encodePacked((a))) == keccak256(abi.encodePacked((b))));\n    }\n\n    function uint2str(uint _i) internal pure returns (string memory _uintAsString) {\n        if (_i == 0) {\n            return \"0\";\n        }\n        uint j = _i;\n        uint len;\n        while (j != 0) {\n            len++;\n            j /= 10;\n        }\n        bytes memory bstr = new bytes(len);\n        uint k = len;\n        while (_i != 0) {\n            k = k-1;\n            uint8 temp = (48 + uint8(_i - _i / 10 * 10));\n            bytes1 b1 = bytes1(temp);\n            bstr[k] = b1;\n            _i /= 10;\n        }\n        return string(bstr);\n    }\n}\n",
  "sourcePath": "/Users/luthertan/Documents/Y3S2/BT3103/YourmaskedID/is4302placeholdername/contracts/BeastCard.sol",
  "compiler": {
    "name": "solc",
    "version": "0.8.18+commit.87f61d96.Emscripten.clang"
  },
  "schemaVersion": "3.4.11",
  "updatedAt": "2023-04-07T18:13:17.258Z",
  "devdoc": {
    "kind": "dev",
    "methods": {},
    "version": 1
  },
  "userdoc": {
    "kind": "user",
    "methods": {},
    "version": 1
  }
}