{
  "contractName": "BeastCard",
  "abi": [
    {
      "inputs": [
        {
          "internalType": "contract Gem",
          "name": "gemAddress",
          "type": "address"
        },
        {
          "internalType": "string",
          "name": "_name",
          "type": "string"
        },
        {
          "internalType": "string",
          "name": "_symbol",
          "type": "string"
        }
      ],
      "stateMutability": "nonpayable",
      "type": "constructor"
    },
    {
      "anonymous": false,
      "inputs": [
        {
          "indexed": true,
          "internalType": "address",
          "name": "_owner",
          "type": "address"
        },
        {
          "indexed": true,
          "internalType": "address",
          "name": "_approved",
          "type": "address"
        },
        {
          "indexed": true,
          "internalType": "uint256",
          "name": "_tokenId",
          "type": "uint256"
        }
      ],
      "name": "Approval",
      "type": "event"
    },
    {
      "anonymous": false,
      "inputs": [
        {
          "indexed": true,
          "internalType": "address",
          "name": "_owner",
          "type": "address"
        },
        {
          "indexed": true,
          "internalType": "address",
          "name": "_operator",
          "type": "address"
        },
        {
          "indexed": false,
          "internalType": "bool",
          "name": "_approved",
          "type": "bool"
        }
      ],
      "name": "ApprovalForAll",
      "type": "event"
    },
    {
      "anonymous": false,
      "inputs": [
        {
          "indexed": true,
          "internalType": "address",
          "name": "_from",
          "type": "address"
        },
        {
          "indexed": true,
          "internalType": "address",
          "name": "_to",
          "type": "address"
        },
        {
          "indexed": true,
          "internalType": "uint256",
          "name": "_tokenId",
          "type": "uint256"
        }
      ],
      "name": "Transfer",
      "type": "event"
    },
    {
      "inputs": [],
      "name": "baseURI",
      "outputs": [
        {
          "internalType": "string",
          "name": "",
          "type": "string"
        }
      ],
      "stateMutability": "view",
      "type": "function"
    },
    {
      "inputs": [],
      "name": "collectionName",
      "outputs": [
        {
          "internalType": "string",
          "name": "",
          "type": "string"
        }
      ],
      "stateMutability": "view",
      "type": "function"
    },
    {
      "inputs": [],
      "name": "collectionSymbol",
      "outputs": [
        {
          "internalType": "string",
          "name": "",
          "type": "string"
        }
      ],
      "stateMutability": "view",
      "type": "function"
    },
    {
      "inputs": [],
      "name": "contractOwner",
      "outputs": [
        {
          "internalType": "address",
          "name": "",
          "type": "address"
        }
      ],
      "stateMutability": "view",
      "type": "function"
    },
    {
      "inputs": [],
      "name": "maxTokens",
      "outputs": [
        {
          "internalType": "uint256",
          "name": "",
          "type": "uint256"
        }
      ],
      "stateMutability": "view",
      "type": "function"
    },
    {
      "inputs": [],
      "name": "nextTokenIdToMint",
      "outputs": [
        {
          "internalType": "uint256",
          "name": "",
          "type": "uint256"
        }
      ],
      "stateMutability": "view",
      "type": "function"
    },
    {
      "inputs": [],
      "name": "name",
      "outputs": [
        {
          "internalType": "string",
          "name": "",
          "type": "string"
        }
      ],
      "stateMutability": "view",
      "type": "function"
    },
    {
      "inputs": [],
      "name": "symbol",
      "outputs": [
        {
          "internalType": "string",
          "name": "",
          "type": "string"
        }
      ],
      "stateMutability": "view",
      "type": "function"
    },
    {
      "inputs": [
        {
          "internalType": "uint256",
          "name": "_tokenId",
          "type": "uint256"
        }
      ],
      "name": "tokenURI",
      "outputs": [
        {
          "internalType": "string",
          "name": "",
          "type": "string"
        }
      ],
      "stateMutability": "view",
      "type": "function"
    },
    {
      "inputs": [
        {
          "internalType": "uint256",
          "name": "_cardId",
          "type": "uint256"
        }
      ],
      "name": "cardDestroyed",
      "outputs": [],
      "stateMutability": "nonpayable",
      "type": "function"
    },
    {
      "inputs": [
        {
          "internalType": "uint256",
          "name": "_cardId",
          "type": "uint256"
        }
      ],
      "name": "restoreCard",
      "outputs": [],
      "stateMutability": "nonpayable",
      "type": "function"
    },
    {
      "inputs": [
        {
          "internalType": "uint256",
          "name": "_cardId",
          "type": "uint256"
        }
      ],
      "name": "attackOf",
      "outputs": [
        {
          "internalType": "uint256",
          "name": "",
          "type": "uint256"
        }
      ],
      "stateMutability": "view",
      "type": "function"
    },
    {
      "inputs": [
        {
          "internalType": "uint256",
          "name": "_cardId",
          "type": "uint256"
        }
      ],
      "name": "healthOf",
      "outputs": [
        {
          "internalType": "uint256",
          "name": "",
          "type": "uint256"
        }
      ],
      "stateMutability": "view",
      "type": "function"
    },
    {
      "inputs": [
        {
          "internalType": "uint256",
          "name": "_cardId",
          "type": "uint256"
        }
      ],
      "name": "stateOf",
      "outputs": [
        {
          "internalType": "enum BeastCard.cardState",
          "name": "",
          "type": "uint8"
        }
      ],
      "stateMutability": "view",
      "type": "function"
    },
    {
      "inputs": [
        {
          "internalType": "uint256",
          "name": "_cardId",
          "type": "uint256"
        }
      ],
      "name": "costOf",
      "outputs": [
        {
          "internalType": "uint256",
          "name": "",
          "type": "uint256"
        }
      ],
      "stateMutability": "view",
      "type": "function"
    },
    {
      "inputs": [
        {
          "internalType": "uint256",
          "name": "_cardId",
          "type": "uint256"
        }
      ],
      "name": "natureOf",
      "outputs": [
        {
          "internalType": "string",
          "name": "",
          "type": "string"
        }
      ],
      "stateMutability": "view",
      "type": "function"
    },
    {
      "inputs": [
        {
          "internalType": "address",
          "name": "_owner",
          "type": "address"
        }
      ],
      "name": "balanceOf",
      "outputs": [
        {
          "internalType": "uint256",
          "name": "",
          "type": "uint256"
        }
      ],
      "stateMutability": "view",
      "type": "function"
    },
    {
      "inputs": [
        {
          "internalType": "uint256",
          "name": "_tokenId",
          "type": "uint256"
        }
      ],
      "name": "ownerOf",
      "outputs": [
        {
          "internalType": "address",
          "name": "",
          "type": "address"
        }
      ],
      "stateMutability": "view",
      "type": "function"
    },
    {
      "inputs": [
        {
          "internalType": "uint256",
          "name": "myCard",
          "type": "uint256"
        },
        {
          "internalType": "uint256",
          "name": "enemyCard",
          "type": "uint256"
        }
      ],
      "name": "effective",
      "outputs": [
        {
          "internalType": "bool",
          "name": "",
          "type": "bool"
        }
      ],
      "stateMutability": "view",
      "type": "function"
    },
    {
      "inputs": [
        {
          "internalType": "address",
          "name": "_from",
          "type": "address"
        },
        {
          "internalType": "address",
          "name": "_to",
          "type": "address"
        },
        {
          "internalType": "uint256",
          "name": "_tokenId",
          "type": "uint256"
        }
      ],
      "name": "safeTransferFrom",
      "outputs": [],
      "stateMutability": "payable",
      "type": "function"
    },
    {
      "inputs": [
        {
          "internalType": "address",
          "name": "_from",
          "type": "address"
        },
        {
          "internalType": "address",
          "name": "_to",
          "type": "address"
        },
        {
          "internalType": "uint256",
          "name": "_tokenId",
          "type": "uint256"
        },
        {
          "internalType": "bytes",
          "name": "_data",
          "type": "bytes"
        }
      ],
      "name": "safeTransferFrom",
      "outputs": [],
      "stateMutability": "payable",
      "type": "function"
    },
    {
      "inputs": [
        {
          "internalType": "address",
          "name": "_from",
          "type": "address"
        },
        {
          "internalType": "address",
          "name": "_to",
          "type": "address"
        },
        {
          "internalType": "uint256",
          "name": "_tokenId",
          "type": "uint256"
        }
      ],
      "name": "transferFrom",
      "outputs": [],
      "stateMutability": "payable",
      "type": "function"
    },
    {
      "inputs": [
        {
          "internalType": "address",
          "name": "_approved",
          "type": "address"
        },
        {
          "internalType": "uint256",
          "name": "_tokenId",
          "type": "uint256"
        }
      ],
      "name": "approve",
      "outputs": [],
      "stateMutability": "payable",
      "type": "function"
    },
    {
      "inputs": [
        {
          "internalType": "address",
          "name": "_operator",
          "type": "address"
        },
        {
          "internalType": "bool",
          "name": "_approved",
          "type": "bool"
        }
      ],
      "name": "setApprovalForAll",
      "outputs": [],
      "stateMutability": "nonpayable",
      "type": "function"
    },
    {
      "inputs": [
        {
          "internalType": "uint256",
          "name": "_tokenId",
          "type": "uint256"
        }
      ],
      "name": "getApproved",
      "outputs": [
        {
          "internalType": "address",
          "name": "",
          "type": "address"
        }
      ],
      "stateMutability": "view",
      "type": "function"
    },
    {
      "inputs": [
        {
          "internalType": "address",
          "name": "_owner",
          "type": "address"
        },
        {
          "internalType": "address",
          "name": "_operator",
          "type": "address"
        }
      ],
      "name": "isApprovedForAll",
      "outputs": [
        {
          "internalType": "bool",
          "name": "",
          "type": "bool"
        }
      ],
      "stateMutability": "view",
      "type": "function"
    },
    {
      "inputs": [
        {
          "internalType": "address",
          "name": "_to",
          "type": "address"
        },
        {
          "internalType": "string",
          "name": "bname",
          "type": "string"
        },
        {
          "internalType": "string",
          "name": "rarity",
          "type": "string"
        },
        {
          "internalType": "string",
          "name": "nature",
          "type": "string"
        },
        {
          "internalType": "uint256",
          "name": "cost",
          "type": "uint256"
        },
        {
          "internalType": "uint256",
          "name": "attack",
          "type": "uint256"
        },
        {
          "internalType": "uint256",
          "name": "health",
          "type": "uint256"
        }
      ],
      "name": "mint",
      "outputs": [],
      "stateMutability": "nonpayable",
      "type": "function"
    },
    {
      "inputs": [],
      "name": "totalSupply",
      "outputs": [
        {
          "internalType": "uint256",
          "name": "",
          "type": "uint256"
        }
      ],
      "stateMutability": "view",
      "type": "function"
    },
    {
      "inputs": [],
      "name": "withdraw",
      "outputs": [],
      "stateMutability": "nonpayable",
      "type": "function"
    },
    {
      "inputs": [
        {
          "internalType": "string",
          "name": "a",
          "type": "string"
        },
        {
          "internalType": "string",
          "name": "b",
          "type": "string"
        }
      ],
      "name": "compareStrings",
      "outputs": [
        {
          "internalType": "bool",
          "name": "",
          "type": "bool"
        }
      ],
      "stateMutability": "pure",
      "type": "function"
    },
    {
      "inputs": [],
      "name": "isContract",
      "outputs": [
        {
          "internalType": "bool",
          "name": "",
          "type": "bool"
        }
      ],
      "stateMutability": "view",
      "type": "function"
    }
  ],
  "bytecode": "0x60806040523480156200001157600080fd5b50604051620046263803806200462683398181016040528101906200003791906200032d565b826000806101000a81548173ffffffffffffffffffffffffffffffffffffffff021916908373ffffffffffffffffffffffffffffffffffffffff160217905550816001908162000088919062000612565b5080600290816200009a919062000612565b50604051806080016040528060518152602001620045d56051913960039081620000c5919062000612565b5060006004819055506103e860058190555033600660006101000a81548173ffffffffffffffffffffffffffffffffffffffff021916908373ffffffffffffffffffffffffffffffffffffffff160217905550505050620006f9565b6000604051905090565b600080fd5b600080fd5b600073ffffffffffffffffffffffffffffffffffffffff82169050919050565b6000620001628262000135565b9050919050565b6000620001768262000155565b9050919050565b620001888162000169565b81146200019457600080fd5b50565b600081519050620001a8816200017d565b92915050565b600080fd5b600080fd5b6000601f19601f8301169050919050565b7f4e487b7100000000000000000000000000000000000000000000000000000000600052604160045260246000fd5b6200020382620001b8565b810181811067ffffffffffffffff82111715620002255762000224620001c9565b5b80604052505050565b60006200023a62000121565b9050620002488282620001f8565b919050565b600067ffffffffffffffff8211156200026b576200026a620001c9565b5b6200027682620001b8565b9050602081019050919050565b60005b83811015620002a357808201518184015260208101905062000286565b60008484015250505050565b6000620002c6620002c0846200024d565b6200022e565b905082815260208101848484011115620002e557620002e4620001b3565b5b620002f284828562000283565b509392505050565b600082601f830112620003125762000311620001ae565b5b815162000324848260208601620002af565b91505092915050565b6000806000606084860312156200034957620003486200012b565b5b6000620003598682870162000197565b935050602084015167ffffffffffffffff8111156200037d576200037c62000130565b5b6200038b86828701620002fa565b925050604084015167ffffffffffffffff811115620003af57620003ae62000130565b5b620003bd86828701620002fa565b9150509250925092565b600081519050919050565b7f4e487b7100000000000000000000000000000000000000000000000000000000600052602260045260246000fd5b600060028204905060018216806200041a57607f821691505b60208210810362000430576200042f620003d2565b5b50919050565b60008190508160005260206000209050919050565b60006020601f8301049050919050565b600082821b905092915050565b6000600883026200049a7fffffffffffffffffffffffffffffffffffffffffffffffffffffffffffffffff826200045b565b620004a686836200045b565b95508019841693508086168417925050509392505050565b6000819050919050565b6000819050919050565b6000620004f3620004ed620004e784620004be565b620004c8565b620004be565b9050919050565b6000819050919050565b6200050f83620004d2565b620005276200051e82620004fa565b84845462000468565b825550505050565b600090565b6200053e6200052f565b6200054b81848462000504565b505050565b5b8181101562000573576200056760008262000534565b60018101905062000551565b5050565b601f821115620005c2576200058c8162000436565b62000597846200044b565b81016020851015620005a7578190505b620005bf620005b6856200044b565b83018262000550565b50505b505050565b600082821c905092915050565b6000620005e760001984600802620005c7565b1980831691505092915050565b6000620006028383620005d4565b9150826002028217905092915050565b6200061d82620003c7565b67ffffffffffffffff811115620006395762000638620001c9565b5b62000645825462000401565b6200065282828562000577565b600060209050601f8311600181146200068a576000841562000675578287015190505b620006818582620005f4565b865550620006f1565b601f1984166200069a8662000436565b60005b82811015620006c4578489015182556001820191506020850194506020810190506200069d565b86831015620006e45784890151620006e0601f891682620005d4565b8355505b6001600288020188555050505b505050505050565b613ecc80620007096000396000f3fe6080604052600436106101d85760003560e01c806370a0823111610102578063c63868b911610095578063e831574211610064578063e8315742146106c2578063e985e9c5146106ed578063f7ec2f351461072a578063fd32659214610755576101d8565b8063c63868b914610606578063c87b56dd1461062f578063ce606ee01461066c578063e5326ab114610697576101d8565b8063a22cb465116100d1578063a22cb46514610547578063b88d4fde14610570578063bda918331461058c578063bed34bba146105c9576101d8565b806370a08231146104795780637185d3d0146104b65780638fbeff23146104df57806395d89b411461051c576101d8565b806323b872dd1161017a57806342842e0e1161014957806342842e0e146103b85780634c1b02c0146103d45780636352211e146104115780636c0360eb1461044e576101d8565b806323b872dd1461032f5780632f39352a1461034b5780633b1475a7146103765780633ccfd60b146103a1576101d8565b8063095ea7b3116101b6578063095ea7b314610282578063131a7e241461029e57806318160ddd146102db57806318f239ca14610306576101d8565b80630374e945146101dd57806306fdde031461021a578063081812fc14610245575b600080fd5b3480156101e957600080fd5b5061020460048036038101906101ff9190612871565b610792565b60405161021191906128ad565b60405180910390f35b34801561022657600080fd5b5061022f6107b2565b60405161023c9190612958565b60405180910390f35b34801561025157600080fd5b5061026c60048036038101906102679190612871565b610844565b60405161027991906129bb565b60405180910390f35b61029c60048036038101906102979190612a02565b610881565b005b3480156102aa57600080fd5b506102c560048036038101906102c09190612871565b6109b0565b6040516102d29190612ab9565b60405180910390f35b3480156102e757600080fd5b506102f06109da565b6040516102fd91906128ad565b60405180910390f35b34801561031257600080fd5b5061032d60048036038101906103289190612871565b6109e4565b005b61034960048036038101906103449190612ad4565b610f3a565b005b34801561035757600080fd5b506103606110c2565b60405161036d9190612958565b60405180910390f35b34801561038257600080fd5b5061038b611150565b60405161039891906128ad565b60405180910390f35b3480156103ad57600080fd5b506103b6611156565b005b6103d260048036038101906103cd9190612ad4565b6112ae565b005b3480156103e057600080fd5b506103fb60048036038101906103f69190612871565b6112ce565b60405161040891906128ad565b60405180910390f35b34801561041d57600080fd5b5061043860048036038101906104339190612871565b6112ee565b60405161044591906129bb565b60405180910390f35b34801561045a57600080fd5b5061046361132b565b6040516104709190612958565b60405180910390f35b34801561048557600080fd5b506104a0600480360381019061049b9190612b27565b6113b9565b6040516104ad91906128ad565b60405180910390f35b3480156104c257600080fd5b506104dd60048036038101906104d89190612871565b611470565b005b3480156104eb57600080fd5b5061050660048036038101906105019190612b54565b6114f6565b6040516105139190612baf565b60405180910390f35b34801561052857600080fd5b506105316117fa565b60405161053e9190612958565b60405180910390f35b34801561055357600080fd5b5061056e60048036038101906105699190612bf6565b61188c565b005b61058a60048036038101906105859190612d6b565b611989565b005b34801561059857600080fd5b506105b360048036038101906105ae9190612871565b611b5d565b6040516105c09190612958565b60405180910390f35b3480156105d557600080fd5b506105f060048036038101906105eb9190612e8f565b611c05565b6040516105fd9190612baf565b60405180910390f35b34801561061257600080fd5b5061062d60048036038101906106289190612f07565b611c5e565b005b34801561063b57600080fd5b5061065660048036038101906106519190612871565b61203a565b6040516106639190612958565b60405180910390f35b34801561067857600080fd5b506106816120df565b60405161068e91906129bb565b60405180910390f35b3480156106a357600080fd5b506106ac612105565b6040516106b99190612958565b60405180910390f35b3480156106ce57600080fd5b506106d7612193565b6040516106e491906128ad565b60405180910390f35b3480156106f957600080fd5b50610714600480360381019061070f9190612ffd565b612199565b6040516107219190612baf565b60405180910390f35b34801561073657600080fd5b5061073f61222d565b60405161074c9190612baf565b60405180910390f35b34801561076157600080fd5b5061077c60048036038101906107779190612871565b61224a565b60405161078991906128ad565b60405180910390f35b6000600b6000838152602001908152602001600020600501549050919050565b6060600180546107c19061306c565b80601f01602080910402602001604051908101604052809291908181526020018280546107ed9061306c565b801561083a5780601f1061080f5761010080835404028352916020019161083a565b820191906000526020600020905b81548152906001019060200180831161081d57829003601f168201915b5050505050905090565b60006009600083815260200190815260200160002060009054906101000a900473ffffffffffffffffffffffffffffffffffffffff169050919050565b3373ffffffffffffffffffffffffffffffffffffffff166108a1826112ee565b73ffffffffffffffffffffffffffffffffffffffff16146108f7576040517f08c379a00000000000000000000000000000000000000000000000000000000081526004016108ee906130e9565b60405180910390fd5b816009600083815260200190815260200160002060006101000a81548173ffffffffffffffffffffffffffffffffffffffff021916908373ffffffffffffffffffffffffffffffffffffffff160217905550808273ffffffffffffffffffffffffffffffffffffffff1661096a836112ee565b73ffffffffffffffffffffffffffffffffffffffff167f8c5be1e5ebec7d5bd14f71427d1e84f3dd0314c0f7b2291e5b200ac8c7c3b92560405160405180910390a45050565b6000600c600083815260200190815260200160002060009054906101000a900460ff169050919050565b6000600454905090565b3373ffffffffffffffffffffffffffffffffffffffff166007600083815260200190815260200160002060009054906101000a900473ffffffffffffffffffffffffffffffffffffffff1673ffffffffffffffffffffffffffffffffffffffff1614610a85576040517f08c379a0000000000000000000000000000000000000000000000000000000008152600401610a7c906130e9565b60405180910390fd5b60006001811115610a9957610a98612a42565b5b600c600083815260200190815260200160002060009054906101000a900460ff166001811115610acc57610acb612a42565b5b14610b0c576040517f08c379a0000000000000000000000000000000000000000000000000000000008152600401610b0390613155565b60405180910390fd5b6000600b60008381526020019081526020016000206002018054610b2f9061306c565b80601f0160208091040260200160405190810160405280929190818152602001828054610b5b9061306c565b8015610ba85780601f10610b7d57610100808354040283529160200191610ba8565b820191906000526020600020905b815481529060010190602001808311610b8b57829003601f168201915b50505050509050610bee816040518060400160405280600981526020017f4c6567656e646172790000000000000000000000000000000000000000000000815250611c05565b15610c915760008054906101000a900473ffffffffffffffffffffffffffffffffffffffff1673ffffffffffffffffffffffffffffffffffffffff16632a73ac1f333060086040518463ffffffff1660e01b8152600401610c51939291906131ba565b600060405180830381600087803b158015610c6b57600080fd5b505af1158015610c7f573d6000803e3d6000fd5b50505050610c8c8261226a565b610f36565b610cd0816040518060400160405280600481526020017f4570696300000000000000000000000000000000000000000000000000000000815250611c05565b15610d735760008054906101000a900473ffffffffffffffffffffffffffffffffffffffff1673ffffffffffffffffffffffffffffffffffffffff16632a73ac1f333060046040518463ffffffff1660e01b8152600401610d339392919061322c565b600060405180830381600087803b158015610d4d57600080fd5b505af1158015610d61573d6000803e3d6000fd5b50505050610d6e8261226a565b610f35565b610db2816040518060400160405280600481526020017f5261726500000000000000000000000000000000000000000000000000000000815250611c05565b15610e555760008054906101000a900473ffffffffffffffffffffffffffffffffffffffff1673ffffffffffffffffffffffffffffffffffffffff16632a73ac1f333060026040518463ffffffff1660e01b8152600401610e159392919061329e565b600060405180830381600087803b158015610e2f57600080fd5b505af1158015610e43573d6000803e3d6000fd5b50505050610e508261226a565b610f34565b610e94816040518060400160405280600681526020017f436f6d6d6f6e0000000000000000000000000000000000000000000000000000815250611c05565b15610f335760008054906101000a900473ffffffffffffffffffffffffffffffffffffffff1673ffffffffffffffffffffffffffffffffffffffff16632a73ac1f333060016040518463ffffffff1660e01b8152600401610ef793929190613310565b600060405180830381600087803b158015610f1157600080fd5b505af1158015610f25573d6000803e3d6000fd5b50505050610f328261226a565b5b5b5b5b5050565b3373ffffffffffffffffffffffffffffffffffffffff16610f5a826112ee565b73ffffffffffffffffffffffffffffffffffffffff161480610fda57503373ffffffffffffffffffffffffffffffffffffffff166009600083815260200190815260200160002060009054906101000a900473ffffffffffffffffffffffffffffffffffffffff1673ffffffffffffffffffffffffffffffffffffffff16145b806110735750600a6000610fed836112ee565b73ffffffffffffffffffffffffffffffffffffffff1673ffffffffffffffffffffffffffffffffffffffff16815260200190815260200160002060003373ffffffffffffffffffffffffffffffffffffffff1673ffffffffffffffffffffffffffffffffffffffff16815260200190815260200160002060009054906101000a900460ff165b6110b2576040517f08c379a00000000000000000000000000000000000000000000000000000000081526004016110a9906133b9565b60405180910390fd5b6110bd8383836122a9565b505050565b600280546110cf9061306c565b80601f01602080910402602001604051908101604052809291908181526020018280546110fb9061306c565b80156111485780601f1061111d57610100808354040283529160200191611148565b820191906000526020600020905b81548152906001019060200180831161112b57829003601f168201915b505050505081565b60045481565b60008060009054906101000a900473ffffffffffffffffffffffffffffffffffffffff1673ffffffffffffffffffffffffffffffffffffffff16635e1c86ce6040518163ffffffff1660e01b8152600401602060405180830381865afa1580156111c4573d6000803e3d6000fd5b505050506040513d601f19601f820116820180604052508101906111e891906133ee565b905060008054906101000a900473ffffffffffffffffffffffffffffffffffffffff1673ffffffffffffffffffffffffffffffffffffffff1663f09910e4600660009054906101000a900473ffffffffffffffffffffffffffffffffffffffff16836040518363ffffffff1660e01b815260040161126792919061341b565b6020604051808303816000875af1158015611286573d6000803e3d6000fd5b505050506040513d601f19601f820116820180604052508101906112aa9190613459565b5050565b6112c983838360405180602001604052806000815250611989565b505050565b6000600b6000838152602001908152602001600020600601549050919050565b60006007600083815260200190815260200160002060009054906101000a900473ffffffffffffffffffffffffffffffffffffffff169050919050565b600380546113389061306c565b80601f01602080910402602001604051908101604052809291908181526020018280546113649061306c565b80156113b15780601f10611386576101008083540402835291602001916113b1565b820191906000526020600020905b81548152906001019060200180831161139457829003601f168201915b505050505081565b60008073ffffffffffffffffffffffffffffffffffffffff168273ffffffffffffffffffffffffffffffffffffffff1603611429576040517f08c379a0000000000000000000000000000000000000000000000000000000008152600401611420906134d2565b60405180910390fd5b600860008373ffffffffffffffffffffffffffffffffffffffff1673ffffffffffffffffffffffffffffffffffffffff168152602001908152602001600020549050919050565b61147861222d565b6114b7576040517f08c379a00000000000000000000000000000000000000000000000000000000081526004016114ae9061353e565b60405180910390fd5b6000600c600083815260200190815260200160002060006101000a81548160ff021916908360018111156114ee576114ed612a42565b5b021790555050565b600080600b6000858152602001908152602001600020600301805461151a9061306c565b80601f01602080910402602001604051908101604052809291908181526020018280546115469061306c565b80156115935780601f1061156857610100808354040283529160200191611593565b820191906000526020600020905b81548152906001019060200180831161157657829003601f168201915b505050505090506000600b600085815260200190815260200160002060030180546115bd9061306c565b80601f01602080910402602001604051908101604052809291908181526020018280546115e99061306c565b80156116365780601f1061160b57610100808354040283529160200191611636565b820191906000526020600020905b81548152906001019060200180831161161957829003601f168201915b5050505050905061167c826040518060400160405280600781526020017f4171756174696300000000000000000000000000000000000000000000000000815250611c05565b80156116c357506116c2816040518060400160405280600881526020017f496e6665726e616c000000000000000000000000000000000000000000000000815250611c05565b5b806117505750611708826040518060400160405280600781526020017f56657264616e7400000000000000000000000000000000000000000000000000815250611c05565b801561174f575061174e816040518060400160405280600781526020017f4171756174696300000000000000000000000000000000000000000000000000815250611c05565b5b5b806117dd5750611795826040518060400160405280600881526020017f496e6665726e616c000000000000000000000000000000000000000000000000815250611c05565b80156117dc57506117db816040518060400160405280600781526020017f56657264616e7400000000000000000000000000000000000000000000000000815250611c05565b5b5b156117ed576001925050506117f4565b6000925050505b92915050565b6060600280546118099061306c565b80601f01602080910402602001604051908101604052809291908181526020018280546118359061306c565b80156118825780601f1061185757610100808354040283529160200191611882565b820191906000526020600020905b81548152906001019060200180831161186557829003601f168201915b5050505050905090565b80600a60003373ffffffffffffffffffffffffffffffffffffffff1673ffffffffffffffffffffffffffffffffffffffff16815260200190815260200160002060008473ffffffffffffffffffffffffffffffffffffffff1673ffffffffffffffffffffffffffffffffffffffff16815260200190815260200160002060006101000a81548160ff0219169083151502179055508173ffffffffffffffffffffffffffffffffffffffff163373ffffffffffffffffffffffffffffffffffffffff167f17307eab39ab6107e8899845ad3d59bd9653f200f220920489ca2b5937696c318360405161197d9190612baf565b60405180910390a35050565b3373ffffffffffffffffffffffffffffffffffffffff166119a9836112ee565b73ffffffffffffffffffffffffffffffffffffffff161480611a2957503373ffffffffffffffffffffffffffffffffffffffff166009600084815260200190815260200160002060009054906101000a900473ffffffffffffffffffffffffffffffffffffffff1673ffffffffffffffffffffffffffffffffffffffff16145b80611ac25750600a6000611a3c846112ee565b73ffffffffffffffffffffffffffffffffffffffff1673ffffffffffffffffffffffffffffffffffffffff16815260200190815260200160002060003373ffffffffffffffffffffffffffffffffffffffff1673ffffffffffffffffffffffffffffffffffffffff16815260200190815260200160002060009054906101000a900460ff165b611b01576040517f08c379a0000000000000000000000000000000000000000000000000000000008152600401611af8906133b9565b60405180910390fd5b611b0c8484846122a9565b611b1884848484612524565b611b57576040517f08c379a0000000000000000000000000000000000000000000000000000000008152600401611b4e906135aa565b60405180910390fd5b50505050565b6060600b60008381526020019081526020016000206003018054611b809061306c565b80601f0160208091040260200160405190810160405280929190818152602001828054611bac9061306c565b8015611bf95780601f10611bce57610100808354040283529160200191611bf9565b820191906000526020600020905b815481529060010190602001808311611bdc57829003601f168201915b50505050509050919050565b600081604051602001611c189190613606565b6040516020818303038152906040528051906020012083604051602001611c3f9190613606565b6040516020818303038152906040528051906020012014905092915050565b600160008054906101000a900473ffffffffffffffffffffffffffffffffffffffff1673ffffffffffffffffffffffffffffffffffffffff166370a08231896040518263ffffffff1660e01b8152600401611cb991906129bb565b602060405180830381865afa158015611cd6573d6000803e3d6000fd5b505050506040513d601f19601f82011682018060405250810190611cfa91906133ee565b11611d3a576040517f08c379a0000000000000000000000000000000000000000000000000000000008152600401611d3190613669565b60405180910390fd5b60008054906101000a900473ffffffffffffffffffffffffffffffffffffffff1673ffffffffffffffffffffffffffffffffffffffff16632a73ac1f883060056040518463ffffffff1660e01b8152600401611d98939291906136c4565b600060405180830381600087803b158015611db257600080fd5b505af1158015611dc6573d6000803e3d6000fd5b505050508660076000600454815260200190815260200160002060006101000a81548173ffffffffffffffffffffffffffffffffffffffff021916908373ffffffffffffffffffffffffffffffffffffffff1602179055506001600860008973ffffffffffffffffffffffffffffffffffffffff1673ffffffffffffffffffffffffffffffffffffffff1681526020019081526020016000206000828254611e6e919061372a565b925050819055506003611e8260045461269f565b604051602001611e93929190613842565b604051602081830303815290604052600d600060045481526020019081526020016000209081611ec39190613a11565b506040518060e00160405280600454815260200187815260200186815260200185815260200184815260200183815260200182815250600b60006004548152602001908152602001600020600082015181600001556020820151816001019081611f2d9190613a11565b506040820151816002019081611f439190613a11565b506060820151816003019081611f599190613a11565b506080820151816004015560a0820151816005015560c082015181600601559050506001600c6000600454815260200190815260200160002060006101000a81548160ff02191690836001811115611fb457611fb3612a42565b5b02179055506004548773ffffffffffffffffffffffffffffffffffffffff16600073ffffffffffffffffffffffffffffffffffffffff167fddf252ad1be2c89b69c2b068fc378daa952ba7f163c4a11628f55a4df523b3ef60405160405180910390a460016004600082825461202a919061372a565b9250508190555050505050505050565b6060600d6000838152602001908152602001600020805461205a9061306c565b80601f01602080910402602001604051908101604052809291908181526020018280546120869061306c565b80156120d35780601f106120a8576101008083540402835291602001916120d3565b820191906000526020600020905b8154815290600101906020018083116120b657829003601f168201915b50505050509050919050565b600660009054906101000a900473ffffffffffffffffffffffffffffffffffffffff1681565b600180546121129061306c565b80601f016020809104026020016040519081016040528092919081815260200182805461213e9061306c565b801561218b5780601f106121605761010080835404028352916020019161218b565b820191906000526020600020905b81548152906001019060200180831161216e57829003601f168201915b505050505081565b60055481565b6000600a60008473ffffffffffffffffffffffffffffffffffffffff1673ffffffffffffffffffffffffffffffffffffffff16815260200190815260200160002060008373ffffffffffffffffffffffffffffffffffffffff1673ffffffffffffffffffffffffffffffffffffffff16815260200190815260200160002060009054906101000a900460ff16905092915050565b6000806000339050803b915060008263ffffffff16119250505090565b6000600b6000838152602001908152602001600020600401549050919050565b6001600c600083815260200190815260200160002060006101000a81548160ff021916908360018111156122a1576122a0612a42565b5b021790555050565b8273ffffffffffffffffffffffffffffffffffffffff166122c9826112ee565b73ffffffffffffffffffffffffffffffffffffffff161461231f576040517f08c379a0000000000000000000000000000000000000000000000000000000008152600401612316906130e9565b60405180910390fd5b600073ffffffffffffffffffffffffffffffffffffffff168273ffffffffffffffffffffffffffffffffffffffff160361238e576040517f08c379a000000000000000000000000000000000000000000000000000000000815260040161238590613b2f565b60405180910390fd5b6009600082815260200190815260200160002060006101000a81549073ffffffffffffffffffffffffffffffffffffffff02191690556001600860008573ffffffffffffffffffffffffffffffffffffffff1673ffffffffffffffffffffffffffffffffffffffff16815260200190815260200160002060008282546124149190613b4f565b925050819055506001600860008473ffffffffffffffffffffffffffffffffffffffff1673ffffffffffffffffffffffffffffffffffffffff168152602001908152602001600020600082825461246b919061372a565b92505081905550816007600083815260200190815260200160002060006101000a81548173ffffffffffffffffffffffffffffffffffffffff021916908373ffffffffffffffffffffffffffffffffffffffff160217905550808273ffffffffffffffffffffffffffffffffffffffff168473ffffffffffffffffffffffffffffffffffffffff167fddf252ad1be2c89b69c2b068fc378daa952ba7f163c4a11628f55a4df523b3ef60405160405180910390a4505050565b6000808473ffffffffffffffffffffffffffffffffffffffff163b1115612692578373ffffffffffffffffffffffffffffffffffffffff1663150b7a02338786866040518563ffffffff1660e01b81526004016125849493929190613bd8565b6020604051808303816000875af19250505080156125c057506040513d601f19601f820116820180604052508101906125bd9190613c7c565b60015b612642573d80600081146125f0576040519150601f19603f3d011682016040523d82523d6000602084013e6125f5565b606091505b50600081510361263a576040517f08c379a000000000000000000000000000000000000000000000000000000000815260040161263190613d1b565b60405180910390fd5b805181602001fd5b63150b7a0260e01b7bffffffffffffffffffffffffffffffffffffffffffffffffffffffff1916817bffffffffffffffffffffffffffffffffffffffffffffffffffffffff191614915050612697565b600190505b949350505050565b6060600082036126e6576040518060400160405280600181526020017f30000000000000000000000000000000000000000000000000000000000000008152509050612822565b600082905060005b6000821461271857808061270190613d3b565b915050600a826127119190613db2565b91506126ee565b60008167ffffffffffffffff81111561273457612733612c40565b5b6040519080825280601f01601f1916602001820160405280156127665781602001600182028036833780820191505090505b50905060008290505b6000861461281a576001816127849190613b4f565b90506000600a80886127969190613db2565b6127a09190613de3565b876127ab9190613b4f565b60306127b79190613e32565b905060008160f81b9050808484815181106127d5576127d4613e67565b5b60200101907effffffffffffffffffffffffffffffffffffffffffffffffffffffffffffff1916908160001a905350600a886128119190613db2565b9750505061276f565b819450505050505b919050565b6000604051905090565b600080fd5b600080fd5b6000819050919050565b61284e8161283b565b811461285957600080fd5b50565b60008135905061286b81612845565b92915050565b60006020828403121561288757612886612831565b5b60006128958482850161285c565b91505092915050565b6128a78161283b565b82525050565b60006020820190506128c2600083018461289e565b92915050565b600081519050919050565b600082825260208201905092915050565b60005b838110156129025780820151818401526020810190506128e7565b60008484015250505050565b6000601f19601f8301169050919050565b600061292a826128c8565b61293481856128d3565b93506129448185602086016128e4565b61294d8161290e565b840191505092915050565b60006020820190508181036000830152612972818461291f565b905092915050565b600073ffffffffffffffffffffffffffffffffffffffff82169050919050565b60006129a58261297a565b9050919050565b6129b58161299a565b82525050565b60006020820190506129d060008301846129ac565b92915050565b6129df8161299a565b81146129ea57600080fd5b50565b6000813590506129fc816129d6565b92915050565b60008060408385031215612a1957612a18612831565b5b6000612a27858286016129ed565b9250506020612a388582860161285c565b9150509250929050565b7f4e487b7100000000000000000000000000000000000000000000000000000000600052602160045260246000fd5b60028110612a8257612a81612a42565b5b50565b6000819050612a9382612a71565b919050565b6000612aa382612a85565b9050919050565b612ab381612a98565b82525050565b6000602082019050612ace6000830184612aaa565b92915050565b600080600060608486031215612aed57612aec612831565b5b6000612afb868287016129ed565b9350506020612b0c868287016129ed565b9250506040612b1d8682870161285c565b9150509250925092565b600060208284031215612b3d57612b3c612831565b5b6000612b4b848285016129ed565b91505092915050565b60008060408385031215612b6b57612b6a612831565b5b6000612b798582860161285c565b9250506020612b8a8582860161285c565b9150509250929050565b60008115159050919050565b612ba981612b94565b82525050565b6000602082019050612bc46000830184612ba0565b92915050565b612bd381612b94565b8114612bde57600080fd5b50565b600081359050612bf081612bca565b92915050565b60008060408385031215612c0d57612c0c612831565b5b6000612c1b858286016129ed565b9250506020612c2c85828601612be1565b9150509250929050565b600080fd5b600080fd5b7f4e487b7100000000000000000000000000000000000000000000000000000000600052604160045260246000fd5b612c788261290e565b810181811067ffffffffffffffff82111715612c9757612c96612c40565b5b80604052505050565b6000612caa612827565b9050612cb68282612c6f565b919050565b600067ffffffffffffffff821115612cd657612cd5612c40565b5b612cdf8261290e565b9050602081019050919050565b82818337600083830152505050565b6000612d0e612d0984612cbb565b612ca0565b905082815260208101848484011115612d2a57612d29612c3b565b5b612d35848285612cec565b509392505050565b600082601f830112612d5257612d51612c36565b5b8135612d62848260208601612cfb565b91505092915050565b60008060008060808587031215612d8557612d84612831565b5b6000612d93878288016129ed565b9450506020612da4878288016129ed565b9350506040612db58782880161285c565b925050606085013567ffffffffffffffff811115612dd657612dd5612836565b5b612de287828801612d3d565b91505092959194509250565b600067ffffffffffffffff821115612e0957612e08612c40565b5b612e128261290e565b9050602081019050919050565b6000612e32612e2d84612dee565b612ca0565b905082815260208101848484011115612e4e57612e4d612c3b565b5b612e59848285612cec565b509392505050565b600082601f830112612e7657612e75612c36565b5b8135612e86848260208601612e1f565b91505092915050565b60008060408385031215612ea657612ea5612831565b5b600083013567ffffffffffffffff811115612ec457612ec3612836565b5b612ed085828601612e61565b925050602083013567ffffffffffffffff811115612ef157612ef0612836565b5b612efd85828601612e61565b9150509250929050565b600080600080600080600060e0888a031215612f2657612f25612831565b5b6000612f348a828b016129ed565b975050602088013567ffffffffffffffff811115612f5557612f54612836565b5b612f618a828b01612e61565b965050604088013567ffffffffffffffff811115612f8257612f81612836565b5b612f8e8a828b01612e61565b955050606088013567ffffffffffffffff811115612faf57612fae612836565b5b612fbb8a828b01612e61565b9450506080612fcc8a828b0161285c565b93505060a0612fdd8a828b0161285c565b92505060c0612fee8a828b0161285c565b91505092959891949750929550565b6000806040838503121561301457613013612831565b5b6000613022858286016129ed565b9250506020613033858286016129ed565b9150509250929050565b7f4e487b7100000000000000000000000000000000000000000000000000000000600052602260045260246000fd5b6000600282049050600182168061308457607f821691505b6020821081036130975761309661303d565b5b50919050565b7f4e6f74206f776e6572206f662042656173740000000000000000000000000000600082015250565b60006130d36012836128d3565b91506130de8261309d565b602082019050919050565b60006020820190508181036000830152613102816130c6565b9050919050565b7f4265617374206973206e6f742062726f6b656e00000000000000000000000000600082015250565b600061313f6013836128d3565b915061314a82613109565b602082019050919050565b6000602082019050818103600083015261316e81613132565b9050919050565b6000819050919050565b6000819050919050565b60006131a461319f61319a84613175565b61317f565b61283b565b9050919050565b6131b481613189565b82525050565b60006060820190506131cf60008301866129ac565b6131dc60208301856129ac565b6131e960408301846131ab565b949350505050565b6000819050919050565b600061321661321161320c846131f1565b61317f565b61283b565b9050919050565b613226816131fb565b82525050565b600060608201905061324160008301866129ac565b61324e60208301856129ac565b61325b604083018461321d565b949350505050565b6000819050919050565b600061328861328361327e84613263565b61317f565b61283b565b9050919050565b6132988161326d565b82525050565b60006060820190506132b360008301866129ac565b6132c060208301856129ac565b6132cd604083018461328f565b949350505050565b6000819050919050565b60006132fa6132f56132f0846132d5565b61317f565b61283b565b9050919050565b61330a816132df565b82525050565b600060608201905061332560008301866129ac565b61333260208301856129ac565b61333f6040830184613301565b949350505050565b7f4e6f20617070726f76616c206772616e7420746f207472616e7366657220746860008201527f6973204265617374000000000000000000000000000000000000000000000000602082015250565b60006133a36028836128d3565b91506133ae82613347565b604082019050919050565b600060208201905081810360008301526133d281613396565b9050919050565b6000815190506133e881612845565b92915050565b60006020828403121561340457613403612831565b5b6000613412848285016133d9565b91505092915050565b600060408201905061343060008301856129ac565b61343d602083018461289e565b9392505050565b60008151905061345381612bca565b92915050565b60006020828403121561346f5761346e612831565b5b600061347d84828501613444565b91505092915050565b7f4e756c6c20616464726573732073706563696669656400000000000000000000600082015250565b60006134bc6016836128d3565b91506134c782613486565b602082019050919050565b600060208201905081810360008301526134eb816134af565b9050919050565b7f596f752063616e6e6f742064657374726f792063617264730000000000000000600082015250565b60006135286018836128d3565b9150613533826134f2565b602082019050919050565b600060208201905081810360008301526135578161351b565b9050919050565b7f21455243373231496d706c656d656e7465720000000000000000000000000000600082015250565b60006135946012836128d3565b915061359f8261355e565b602082019050919050565b600060208201905081810360008301526135c381613587565b9050919050565b600081905092915050565b60006135e0826128c8565b6135ea81856135ca565b93506135fa8185602086016128e4565b80840191505092915050565b600061361282846135d5565b915081905092915050565b7f4e6f7420656e6f7567682047656d20696e2077616c6c65740000000000000000600082015250565b60006136536018836128d3565b915061365e8261361d565b602082019050919050565b6000602082019050818103600083015261368281613646565b9050919050565b6000819050919050565b60006136ae6136a96136a484613689565b61317f565b61283b565b9050919050565b6136be81613693565b82525050565b60006060820190506136d960008301866129ac565b6136e660208301856129ac565b6136f360408301846136b5565b949350505050565b7f4e487b7100000000000000000000000000000000000000000000000000000000600052601160045260246000fd5b60006137358261283b565b91506137408361283b565b9250828201905080821115613758576137576136fb565b5b92915050565b60008190508160005260206000209050919050565b600081546137808161306c565b61378a81866135ca565b945060018216600081146137a557600181146137ba576137ed565b60ff19831686528115158202860193506137ed565b6137c38561375e565b60005b838110156137e5578154818901526001820191506020810190506137c6565b838801955050505b50505092915050565b7f42656173745f0000000000000000000000000000000000000000000000000000815250565b7f2e6a736f6e000000000000000000000000000000000000000000000000000000815250565b600061384e8285613773565b9150613859826137f6565b60068201915061386982846135d5565b91506138748261381c565b6005820191508190509392505050565b60006020601f8301049050919050565b600082821b905092915050565b6000600883026138d17fffffffffffffffffffffffffffffffffffffffffffffffffffffffffffffffff82613894565b6138db8683613894565b95508019841693508086168417925050509392505050565b600061390e6139096139048461283b565b61317f565b61283b565b9050919050565b6000819050919050565b613928836138f3565b61393c61393482613915565b8484546138a1565b825550505050565b600090565b613951613944565b61395c81848461391f565b505050565b5b8181101561398057613975600082613949565b600181019050613962565b5050565b601f8211156139c5576139968161375e565b61399f84613884565b810160208510156139ae578190505b6139c26139ba85613884565b830182613961565b50505b505050565b600082821c905092915050565b60006139e8600019846008026139ca565b1980831691505092915050565b6000613a0183836139d7565b9150826002028217905092915050565b613a1a826128c8565b67ffffffffffffffff811115613a3357613a32612c40565b5b613a3d825461306c565b613a48828285613984565b600060209050601f831160018114613a7b5760008415613a69578287015190505b613a7385826139f5565b865550613adb565b601f198416613a898661375e565b60005b82811015613ab157848901518255600182019150602085019450602081019050613a8c565b86831015613ace5784890151613aca601f8916826139d7565b8355505b6001600288020188555050505b505050505050565b7f4e756c6c20416464726573732053706563696669656400000000000000000000600082015250565b6000613b196016836128d3565b9150613b2482613ae3565b602082019050919050565b60006020820190508181036000830152613b4881613b0c565b9050919050565b6000613b5a8261283b565b9150613b658361283b565b9250828203905081811115613b7d57613b7c6136fb565b5b92915050565b600081519050919050565b600082825260208201905092915050565b6000613baa82613b83565b613bb48185613b8e565b9350613bc48185602086016128e4565b613bcd8161290e565b840191505092915050565b6000608082019050613bed60008301876129ac565b613bfa60208301866129ac565b613c07604083018561289e565b8181036060830152613c198184613b9f565b905095945050505050565b60007fffffffff0000000000000000000000000000000000000000000000000000000082169050919050565b613c5981613c24565b8114613c6457600080fd5b50565b600081519050613c7681613c50565b92915050565b600060208284031215613c9257613c91612831565b5b6000613ca084828501613c67565b91505092915050565b7f4552433732313a207472616e7366657220746f206e6f6e20455243373231526560008201527f63656976657220696d706c656d656e7465720000000000000000000000000000602082015250565b6000613d056032836128d3565b9150613d1082613ca9565b604082019050919050565b60006020820190508181036000830152613d3481613cf8565b9050919050565b6000613d468261283b565b91507fffffffffffffffffffffffffffffffffffffffffffffffffffffffffffffffff8203613d7857613d776136fb565b5b600182019050919050565b7f4e487b7100000000000000000000000000000000000000000000000000000000600052601260045260246000fd5b6000613dbd8261283b565b9150613dc88361283b565b925082613dd857613dd7613d83565b5b828204905092915050565b6000613dee8261283b565b9150613df98361283b565b9250828202613e078161283b565b91508282048414831517613e1e57613e1d6136fb565b5b5092915050565b600060ff82169050919050565b6000613e3d82613e25565b9150613e4883613e25565b9250828201905060ff811115613e6157613e606136fb565b5b92915050565b7f4e487b7100000000000000000000000000000000000000000000000000000000600052603260045260246000fdfea2646970667358221220bd6d42f15061d3b055a549dce4f80f8e928a1115680378eed180deded435d2d664736f6c6343000812003368747470733a2f2f697066732e696f2f697066732f62616679626569686a756b6871616e336f6b76356b706f7168366171786d6e636a70373561373672676d6d367a65743678336c376b7567636b35652f",
  "immutableReferences": {},
  "source": "// SPDX-License-Identifier: MIT\npragma solidity ^0.8.17;\n\nimport './IERC721Receiver.sol';\nimport './Gem.sol';\n\ncontract BeastCard {\n    Gem gemContract;\n    string public collectionName;\n    string public collectionSymbol;\n    string public baseURI;\n\n    enum cardState { broken, functional }\n\n    uint256 public nextTokenIdToMint;\n    uint256 public maxTokens;\n    address public contractOwner;\n\n    // card id => owner\n    mapping(uint256 => address) internal _owners;\n    // owner => card count\n    mapping(address => uint256) internal _balances;\n    // card id => approved address\n    mapping(uint256 => address) internal _tokenApprovals;\n    // owner => (operator => yes/no)\n    mapping(address => mapping(address => bool)) internal _operatorApprovals;\n    // card id => beast struct\n    mapping(uint256 => Beast) _beasts;\n    // card id => card state\n    mapping(uint256 => cardState) _cardStates;\n    // card id => URI\n    mapping(uint256 => string) _tokenUris;\n\n\n    struct Beast {\n        uint256 id;\n        string name;\n        string rarity;\n        string nature;\n        uint256 cost;\n        uint256 attack;\n        uint256 health;\n    }\n\n    event Transfer(address indexed _from, address indexed _to, uint256 indexed _tokenId);\n    event Approval(address indexed _owner, address indexed _approved, uint256 indexed _tokenId);\n    event ApprovalForAll(address indexed _owner, address indexed _operator, bool _approved);\n\n    constructor(Gem gemAddress, string memory _name, string memory _symbol) {\n        gemContract = gemAddress;\n        collectionName = _name;\n        collectionSymbol = _symbol;\n        baseURI = \"https://ipfs.io/ipfs/bafybeihjukhqan3okv5kpoqh6aqxmncjp75a76rgmm6zet6x3l7kugck5e/\";\n        nextTokenIdToMint = 0;\n        maxTokens = 1000;\n        contractOwner = msg.sender;\n    }\n\n    function name() external view returns (string memory) {\n        return collectionName;\n    }\n\n    function symbol() external view returns (string memory) {\n        return collectionSymbol;\n    }\n\n    function tokenURI(uint256 _tokenId) public view returns (string memory) {\n        return _tokenUris[_tokenId];\n    }\n    \n    function cardDestroyed(uint256 _cardId) public {\n        require(isContract(), \"You cannot destroy cards\");\n        _cardStates[_cardId] = cardState.broken;\n    }\n\n    function cardRevived(uint256 _cardId) internal {\n        _cardStates[_cardId] = cardState.functional;\n    }\n\n    function restoreCard(uint256 _cardId) public {\n        require(_owners[_cardId] == msg.sender, \"Not owner of Beast\");\n        require(_cardStates[_cardId] == cardState.broken, \"Beast is not broken\");\n        string memory rarity = _beasts[_cardId].rarity;\n        if (compareStrings(rarity, \"Legendary\")) {\n            gemContract.transferGemsFrom(msg.sender, address(this), 8);\n            cardRevived(_cardId);\n        } else if (compareStrings(rarity, \"Epic\")) {\n            gemContract.transferGemsFrom(msg.sender, address(this), 4);\n            cardRevived(_cardId);\n        } else if (compareStrings(rarity, \"Rare\")) {\n            gemContract.transferGemsFrom(msg.sender, address(this), 2);\n            cardRevived(_cardId);\n        } else if (compareStrings(rarity, \"Common\")) {\n            gemContract.transferGemsFrom(msg.sender, address(this), 1);\n            cardRevived(_cardId);\n        }\n    }\n\n    function attackOf(uint256 _cardId) public view returns(uint256) {\n        return _beasts[_cardId].attack;\n    }\n\n    function healthOf(uint256 _cardId) public view returns(uint256) {\n        return _beasts[_cardId].health;\n    }\n\n    function stateOf(uint256 _cardId) public view returns(cardState) {\n        return _cardStates[_cardId];\n    }\n\n    function costOf(uint256 _cardId) public view returns (uint256) {\n        return _beasts[_cardId].cost;\n    }\n\n    function natureOf(uint256 _cardId) public view returns (string memory) {\n        return _beasts[_cardId].nature;\n    }\n\n    function balanceOf(address _owner) public view returns(uint256) {\n        require(_owner != address(0), \"Null address specified\");\n        return _balances[_owner];\n    }\n\n    function ownerOf(uint256 _tokenId) public view returns(address) {\n        return _owners[_tokenId];\n    }\n\n    function effective(uint256 myCard, uint256 enemyCard) public view returns (bool) {\n        string memory myNature = _beasts[myCard].nature;\n        string memory enemyNature = _beasts[enemyCard].nature;\n        if ((compareStrings(myNature, \"Aquatic\") && compareStrings(enemyNature, \"Infernal\")) || (compareStrings(myNature, \"Verdant\") && compareStrings(enemyNature, \"Aquatic\")) || (compareStrings(myNature, \"Infernal\") && compareStrings(enemyNature, \"Verdant\"))) {\n            return true;\n        }  else {\n            return false;\n        }\n    }\n\n    function safeTransferFrom(address _from, address _to, uint256 _tokenId) public payable {\n        safeTransferFrom(_from, _to, _tokenId, \"\");\n    }\n\n    function safeTransferFrom(address _from, address _to, uint256 _tokenId, bytes memory _data) public payable {\n        require(ownerOf(_tokenId) == msg.sender || _tokenApprovals[_tokenId] == msg.sender || _operatorApprovals[ownerOf(_tokenId)][msg.sender], \"No approval grant to transfer this Beast\");\n        _transfer(_from, _to, _tokenId);\n        // trigger func check\n        require(_checkOnERC721Received(_from, _to, _tokenId, _data), \"!ERC721Implementer\");\n    }\n\n    function transferFrom(address _from, address _to, uint256 _tokenId) public payable {\n        // unsafe transfer without onERC721Received, used for contracts that dont implement\n        require(ownerOf(_tokenId) == msg.sender || _tokenApprovals[_tokenId] == msg.sender || _operatorApprovals[ownerOf(_tokenId)][msg.sender], \"No approval grant to transfer this Beast\");\n        _transfer(_from, _to, _tokenId);\n    }\n\n    function approve(address _approved, uint256 _tokenId) public payable {\n        require(ownerOf(_tokenId) == msg.sender, \"Not owner of Beast\");\n        _tokenApprovals[_tokenId] = _approved;\n        emit Approval(ownerOf(_tokenId), _approved, _tokenId);\n    }\n\n    function setApprovalForAll(address _operator, bool _approved) public {\n        _operatorApprovals[msg.sender][_operator] = _approved;\n        emit ApprovalForAll(msg.sender, _operator, _approved);\n    }\n\n    function getApproved(uint256 _tokenId) public view returns (address) {\n        return _tokenApprovals[_tokenId];\n    }\n\n    function isApprovedForAll(address _owner, address _operator) public view returns (bool) {\n        return _operatorApprovals[_owner][_operator];\n    }\n\n    function mint(address _to, string memory bname, string memory rarity, string memory nature, uint256 cost, uint256 attack, uint256 health) public {\n        require(gemContract.balanceOf(_to) > 1, \"Not enough Gem in wallet\");\n        gemContract.transferGemsFrom(_to, address(this), 5);\n        _owners[nextTokenIdToMint] = _to;\n        _balances[_to] += 1;\n        _tokenUris[nextTokenIdToMint] = string.concat(baseURI, \"Beast_\", uint2str(nextTokenIdToMint), \".json\");\n        _beasts[nextTokenIdToMint] = Beast(nextTokenIdToMint, bname, rarity, nature, cost, attack, health);\n        _cardStates[nextTokenIdToMint] = cardState.functional;\n        emit Transfer(address(0), _to, nextTokenIdToMint);\n        nextTokenIdToMint += 1;\n    }\n\n    function totalSupply() public view returns(uint256) {\n        return nextTokenIdToMint;\n    }\n\n    function withdraw() public {\n        uint256 amt = gemContract.checkGems();\n        gemContract.transferGems(contractOwner, amt);\n    }\n\n    // INTERNAL FUNCTIONS\n    function _checkOnERC721Received(\n        address from,\n        address to,\n        uint256 tokenId,\n        bytes memory data\n    ) private returns (bool) {\n        // check if to is an contract, if yes, to.code.length will always > 0\n        if (to.code.length > 0) {\n            try IERC721Receiver(to).onERC721Received(msg.sender, from, tokenId, data) returns (bytes4 retval) {\n                return retval == IERC721Receiver.onERC721Received.selector;\n            } catch (bytes memory reason) {\n                if (reason.length == 0) {\n                    revert(\"ERC721: transfer to non ERC721Receiver implementer\");\n                } else {\n                    /// @solidity memory-safe-assembly\n                    assembly {\n                        revert(add(32, reason), mload(reason))\n                    }\n                }\n            }\n        } else {\n            return true;\n        }\n    }\n\n    // unsafe transfer\n    function _transfer(address _from, address _to, uint256 _tokenId) internal {\n        require(ownerOf(_tokenId) == _from, \"Not owner of Beast\");\n        require(_to != address(0), \"Null Address Specified\");\n\n        delete _tokenApprovals[_tokenId];\n        _balances[_from] -= 1;\n        _balances[_to] += 1;\n        _owners[_tokenId] = _to;\n\n        emit Transfer(_from, _to, _tokenId);\n    }\n\n    function compareStrings(string memory a, string memory b) public pure returns (bool) {\n        return (keccak256(abi.encodePacked((a))) == keccak256(abi.encodePacked((b))));\n    }\n\n    function uint2str(uint _i) internal pure returns (string memory _uintAsString) {\n        if (_i == 0) {\n            return \"0\";\n        }\n        uint j = _i;\n        uint len;\n        while (j != 0) {\n            len++;\n            j /= 10;\n        }\n        bytes memory bstr = new bytes(len);\n        uint k = len;\n        while (_i != 0) {\n            k = k-1;\n            uint8 temp = (48 + uint8(_i - _i / 10 * 10));\n            bytes1 b1 = bytes1(temp);\n            bstr[k] = b1;\n            _i /= 10;\n        }\n        return string(bstr);\n    }\n\n    function isContract() public view returns (bool) {\n      uint32 size;\n      address a = msg.sender;\n      assembly {\n        size := extcodesize(a)\n      }\n      return (size > 0);\n    }\n}\n",
  "sourcePath": "/Users/bryanwonggy/nus/is4302placeholdername/contracts/BeastCard.sol",
  "compiler": {
    "name": "solc",
    "version": "0.8.18+commit.87f61d96.Emscripten.clang"
  },
  "schemaVersion": "3.4.11",
  "updatedAt": "2023-04-07T08:28:28.144Z",
  "devdoc": {
    "kind": "dev",
    "methods": {},
    "version": 1
  },
  "userdoc": {
    "kind": "user",
    "methods": {},
    "version": 1
  }
}