{
  "contractName": "BeastCard",
  "abi": [
    {
      "inputs": [
        {
          "internalType": "contract Gem",
          "name": "gemAddress",
          "type": "address"
        },
        {
          "internalType": "string",
          "name": "_name",
          "type": "string"
        },
        {
          "internalType": "string",
          "name": "_symbol",
          "type": "string"
        }
      ],
      "stateMutability": "nonpayable",
      "type": "constructor"
    },
    {
      "anonymous": false,
      "inputs": [
        {
          "indexed": true,
          "internalType": "address",
          "name": "_owner",
          "type": "address"
        },
        {
          "indexed": true,
          "internalType": "address",
          "name": "_approved",
          "type": "address"
        },
        {
          "indexed": true,
          "internalType": "uint256",
          "name": "_tokenId",
          "type": "uint256"
        }
      ],
      "name": "Approval",
      "type": "event"
    },
    {
      "anonymous": false,
      "inputs": [
        {
          "indexed": true,
          "internalType": "address",
          "name": "_owner",
          "type": "address"
        },
        {
          "indexed": true,
          "internalType": "address",
          "name": "_operator",
          "type": "address"
        },
        {
          "indexed": false,
          "internalType": "bool",
          "name": "_approved",
          "type": "bool"
        }
      ],
      "name": "ApprovalForAll",
      "type": "event"
    },
    {
      "anonymous": false,
      "inputs": [
        {
          "indexed": true,
          "internalType": "address",
          "name": "_from",
          "type": "address"
        },
        {
          "indexed": true,
          "internalType": "address",
          "name": "_to",
          "type": "address"
        },
        {
          "indexed": true,
          "internalType": "uint256",
          "name": "_tokenId",
          "type": "uint256"
        }
      ],
      "name": "Transfer",
      "type": "event"
    },
    {
      "inputs": [],
      "name": "baseURI",
      "outputs": [
        {
          "internalType": "string",
          "name": "",
          "type": "string"
        }
      ],
      "stateMutability": "view",
      "type": "function"
    },
    {
      "inputs": [],
      "name": "collectionName",
      "outputs": [
        {
          "internalType": "string",
          "name": "",
          "type": "string"
        }
      ],
      "stateMutability": "view",
      "type": "function"
    },
    {
      "inputs": [],
      "name": "collectionSymbol",
      "outputs": [
        {
          "internalType": "string",
          "name": "",
          "type": "string"
        }
      ],
      "stateMutability": "view",
      "type": "function"
    },
    {
      "inputs": [],
      "name": "contractOwner",
      "outputs": [
        {
          "internalType": "address",
          "name": "",
          "type": "address"
        }
      ],
      "stateMutability": "view",
      "type": "function"
    },
    {
      "inputs": [],
      "name": "maxTokens",
      "outputs": [
        {
          "internalType": "uint256",
          "name": "",
          "type": "uint256"
        }
      ],
      "stateMutability": "view",
      "type": "function"
    },
    {
      "inputs": [],
      "name": "nextTokenIdToMint",
      "outputs": [
        {
          "internalType": "uint256",
          "name": "",
          "type": "uint256"
        }
      ],
      "stateMutability": "view",
      "type": "function"
    },
    {
      "inputs": [],
      "name": "name",
      "outputs": [
        {
          "internalType": "string",
          "name": "",
          "type": "string"
        }
      ],
      "stateMutability": "view",
      "type": "function"
    },
    {
      "inputs": [],
      "name": "symbol",
      "outputs": [
        {
          "internalType": "string",
          "name": "",
          "type": "string"
        }
      ],
      "stateMutability": "view",
      "type": "function"
    },
    {
      "inputs": [
        {
          "internalType": "uint256",
          "name": "_tokenId",
          "type": "uint256"
        }
      ],
      "name": "tokenURI",
      "outputs": [
        {
          "internalType": "string",
          "name": "",
          "type": "string"
        }
      ],
      "stateMutability": "view",
      "type": "function"
    },
    {
      "inputs": [
        {
          "internalType": "uint256",
          "name": "_cardId",
          "type": "uint256"
        }
      ],
      "name": "cardDestroyed",
      "outputs": [],
      "stateMutability": "nonpayable",
      "type": "function"
    },
    {
      "inputs": [
        {
          "internalType": "uint256",
          "name": "_cardId",
          "type": "uint256"
        }
      ],
      "name": "restoreCard",
      "outputs": [],
      "stateMutability": "nonpayable",
      "type": "function"
    },
    {
      "inputs": [
        {
          "internalType": "uint256",
          "name": "_cardId",
          "type": "uint256"
        }
      ],
      "name": "attackOf",
      "outputs": [
        {
          "internalType": "uint256",
          "name": "",
          "type": "uint256"
        }
      ],
      "stateMutability": "view",
      "type": "function"
    },
    {
      "inputs": [
        {
          "internalType": "uint256",
          "name": "_cardId",
          "type": "uint256"
        }
      ],
      "name": "healthOf",
      "outputs": [
        {
          "internalType": "uint256",
          "name": "",
          "type": "uint256"
        }
      ],
      "stateMutability": "view",
      "type": "function"
    },
    {
      "inputs": [
        {
          "internalType": "uint256",
          "name": "_cardId",
          "type": "uint256"
        }
      ],
      "name": "stateOf",
      "outputs": [
        {
          "internalType": "enum BeastCard.cardState",
          "name": "",
          "type": "uint8"
        }
      ],
      "stateMutability": "view",
      "type": "function"
    },
    {
      "inputs": [
        {
          "internalType": "uint256",
          "name": "_cardId",
          "type": "uint256"
        }
      ],
      "name": "costOf",
      "outputs": [
        {
          "internalType": "uint256",
          "name": "",
          "type": "uint256"
        }
      ],
      "stateMutability": "view",
      "type": "function"
    },
    {
      "inputs": [
        {
          "internalType": "uint256",
          "name": "_cardId",
          "type": "uint256"
        }
      ],
      "name": "natureOf",
      "outputs": [
        {
          "internalType": "string",
          "name": "",
          "type": "string"
        }
      ],
      "stateMutability": "view",
      "type": "function",
      "constant": true
    },
    {
      "inputs": [
        {
          "internalType": "address",
          "name": "_owner",
          "type": "address"
        }
      ],
      "name": "balanceOf",
      "outputs": [
        {
          "internalType": "uint256",
          "name": "",
          "type": "uint256"
        }
      ],
      "stateMutability": "view",
      "type": "function"
    },
    {
      "inputs": [
        {
          "internalType": "uint256",
          "name": "_tokenId",
          "type": "uint256"
        }
      ],
      "name": "ownerOf",
      "outputs": [
        {
          "internalType": "address",
          "name": "",
          "type": "address"
        }
      ],
      "stateMutability": "view",
      "type": "function"
    },
    {
      "inputs": [
        {
          "internalType": "uint256",
          "name": "myCard",
          "type": "uint256"
        },
        {
          "internalType": "uint256",
          "name": "enemyCard",
          "type": "uint256"
        }
      ],
      "name": "effective",
      "outputs": [
        {
          "internalType": "bool",
          "name": "",
          "type": "bool"
        }
      ],
      "stateMutability": "view",
      "type": "function"
    },
    {
      "inputs": [
        {
          "internalType": "address",
          "name": "_from",
          "type": "address"
        },
        {
          "internalType": "address",
          "name": "_to",
          "type": "address"
        },
        {
          "internalType": "uint256",
          "name": "_tokenId",
          "type": "uint256"
        }
      ],
      "name": "safeTransferFrom",
      "outputs": [],
      "stateMutability": "payable",
      "type": "function"
    },
    {
      "inputs": [
        {
          "internalType": "address",
          "name": "_from",
          "type": "address"
        },
        {
          "internalType": "address",
          "name": "_to",
          "type": "address"
        },
        {
          "internalType": "uint256",
          "name": "_tokenId",
          "type": "uint256"
        },
        {
          "internalType": "bytes",
          "name": "_data",
          "type": "bytes"
        }
      ],
      "name": "safeTransferFrom",
      "outputs": [],
      "stateMutability": "payable",
      "type": "function"
    },
    {
      "inputs": [
        {
          "internalType": "address",
          "name": "_from",
          "type": "address"
        },
        {
          "internalType": "address",
          "name": "_to",
          "type": "address"
        },
        {
          "internalType": "uint256",
          "name": "_tokenId",
          "type": "uint256"
        }
      ],
      "name": "transferFrom",
      "outputs": [],
      "stateMutability": "payable",
      "type": "function"
    },
    {
      "inputs": [
        {
          "internalType": "address",
          "name": "_approved",
          "type": "address"
        },
        {
          "internalType": "uint256",
          "name": "_tokenId",
          "type": "uint256"
        }
      ],
      "name": "approve",
      "outputs": [],
      "stateMutability": "payable",
      "type": "function"
    },
    {
      "inputs": [
        {
          "internalType": "address",
          "name": "_operator",
          "type": "address"
        },
        {
          "internalType": "bool",
          "name": "_approved",
          "type": "bool"
        }
      ],
      "name": "setApprovalForAll",
      "outputs": [],
      "stateMutability": "nonpayable",
      "type": "function"
    },
    {
      "inputs": [
        {
          "internalType": "uint256",
          "name": "_tokenId",
          "type": "uint256"
        }
      ],
      "name": "getApproved",
      "outputs": [
        {
          "internalType": "address",
          "name": "",
          "type": "address"
        }
      ],
      "stateMutability": "view",
      "type": "function"
    },
    {
      "inputs": [
        {
          "internalType": "address",
          "name": "_owner",
          "type": "address"
        },
        {
          "internalType": "address",
          "name": "_operator",
          "type": "address"
        }
      ],
      "name": "isApprovedForAll",
      "outputs": [
        {
          "internalType": "bool",
          "name": "",
          "type": "bool"
        }
      ],
      "stateMutability": "view",
      "type": "function"
    },
    {
      "inputs": [
        {
          "internalType": "address",
          "name": "_to",
          "type": "address"
        },
        {
          "internalType": "string",
          "name": "bname",
          "type": "string"
        },
        {
          "internalType": "string",
          "name": "rarity",
          "type": "string"
        },
        {
          "internalType": "string",
          "name": "nature",
          "type": "string"
        },
        {
          "internalType": "uint256",
          "name": "cost",
          "type": "uint256"
        },
        {
          "internalType": "uint256",
          "name": "attack",
          "type": "uint256"
        },
        {
          "internalType": "uint256",
          "name": "health",
          "type": "uint256"
        }
      ],
      "name": "mint",
      "outputs": [],
      "stateMutability": "nonpayable",
      "type": "function"
    },
    {
      "inputs": [],
      "name": "totalSupply",
      "outputs": [
        {
          "internalType": "uint256",
          "name": "",
          "type": "uint256"
        }
      ],
      "stateMutability": "view",
      "type": "function"
    },
    {
      "inputs": [],
      "name": "withdraw",
      "outputs": [],
      "stateMutability": "nonpayable",
      "type": "function"
    },
    {
      "inputs": [
        {
          "internalType": "string",
          "name": "a",
          "type": "string"
        },
        {
          "internalType": "string",
          "name": "b",
          "type": "string"
        }
      ],
      "name": "compareStrings",
      "outputs": [
        {
          "internalType": "bool",
          "name": "",
          "type": "bool"
        }
      ],
      "stateMutability": "pure",
      "type": "function",
      "constant": true
    }
  ],
  "bytecode": "0x60806040523480156200001157600080fd5b5060405162003f3338038062003f33833981810160405281019062000037919062000302565b826000806101000a81548173ffffffffffffffffffffffffffffffffffffffff021916908373ffffffffffffffffffffffffffffffffffffffff1602179055508160019081620000889190620005e7565b5080600290816200009a9190620005e7565b5060006004819055506103e860058190555033600660006101000a81548173ffffffffffffffffffffffffffffffffffffffff021916908373ffffffffffffffffffffffffffffffffffffffff160217905550505050620006ce565b6000604051905090565b600080fd5b600080fd5b600073ffffffffffffffffffffffffffffffffffffffff82169050919050565b600062000137826200010a565b9050919050565b60006200014b826200012a565b9050919050565b6200015d816200013e565b81146200016957600080fd5b50565b6000815190506200017d8162000152565b92915050565b600080fd5b600080fd5b6000601f19601f8301169050919050565b7f4e487b7100000000000000000000000000000000000000000000000000000000600052604160045260246000fd5b620001d8826200018d565b810181811067ffffffffffffffff82111715620001fa57620001f96200019e565b5b80604052505050565b60006200020f620000f6565b90506200021d8282620001cd565b919050565b600067ffffffffffffffff82111562000240576200023f6200019e565b5b6200024b826200018d565b9050602081019050919050565b60005b83811015620002785780820151818401526020810190506200025b565b60008484015250505050565b60006200029b620002958462000222565b62000203565b905082815260208101848484011115620002ba57620002b962000188565b5b620002c784828562000258565b509392505050565b600082601f830112620002e757620002e662000183565b5b8151620002f984826020860162000284565b91505092915050565b6000806000606084860312156200031e576200031d62000100565b5b60006200032e868287016200016c565b935050602084015167ffffffffffffffff81111562000352576200035162000105565b5b6200036086828701620002cf565b925050604084015167ffffffffffffffff81111562000384576200038362000105565b5b6200039286828701620002cf565b9150509250925092565b600081519050919050565b7f4e487b7100000000000000000000000000000000000000000000000000000000600052602260045260246000fd5b60006002820490506001821680620003ef57607f821691505b602082108103620004055762000404620003a7565b5b50919050565b60008190508160005260206000209050919050565b60006020601f8301049050919050565b600082821b905092915050565b6000600883026200046f7fffffffffffffffffffffffffffffffffffffffffffffffffffffffffffffffff8262000430565b6200047b868362000430565b95508019841693508086168417925050509392505050565b6000819050919050565b6000819050919050565b6000620004c8620004c2620004bc8462000493565b6200049d565b62000493565b9050919050565b6000819050919050565b620004e483620004a7565b620004fc620004f382620004cf565b8484546200043d565b825550505050565b600090565b6200051362000504565b62000520818484620004d9565b505050565b5b8181101562000548576200053c60008262000509565b60018101905062000526565b5050565b601f821115620005975762000561816200040b565b6200056c8462000420565b810160208510156200057c578190505b620005946200058b8562000420565b83018262000525565b50505b505050565b600082821c905092915050565b6000620005bc600019846008026200059c565b1980831691505092915050565b6000620005d78383620005a9565b9150826002028217905092915050565b620005f2826200039c565b67ffffffffffffffff8111156200060e576200060d6200019e565b5b6200061a8254620003d6565b620006278282856200054c565b600060209050601f8311600181146200065f57600084156200064a578287015190505b620006568582620005c9565b865550620006c6565b601f1984166200066f866200040b565b60005b82811015620006995784890151825560018201915060208501945060208101905062000672565b86831015620006b95784890151620006b5601f891682620005a9565b8355505b6001600288020188555050505b505050505050565b61385580620006de6000396000f3fe60806040526004361061019c5760003560e01c806370a08231116100ec578063bed34bba1161008a578063e5326ab111610064578063e5326ab1146105c8578063e8315742146105f3578063e985e9c51461061e578063fd3265921461065b5761019c565b8063bed34bba14610537578063c63868b914610574578063ce606ee01461059d5761019c565b806395d89b41116100c657806395d89b411461048a578063a22cb465146104b5578063b88d4fde146104de578063bda91833146104fa5761019c565b806370a08231146103e75780637185d3d0146104245780638fbeff231461044d5761019c565b806323b872dd1161015957806342842e0e1161013357806342842e0e146103265780634c1b02c0146103425780636352211e1461037f5780636c0360eb146103bc5761019c565b806323b872dd146102c85780633b1475a7146102e45780633ccfd60b1461030f5761019c565b80630374e945146101a1578063081812fc146101de578063095ea7b31461021b578063131a7e241461023757806318160ddd1461027457806318f239ca1461029f575b600080fd5b3480156101ad57600080fd5b506101c860048036038101906101c3919061249b565b610698565b6040516101d591906124d7565b60405180910390f35b3480156101ea57600080fd5b506102056004803603810190610200919061249b565b6106b8565b6040516102129190612533565b60405180910390f35b6102356004803603810190610230919061257a565b6106f5565b005b34801561024357600080fd5b5061025e6004803603810190610259919061249b565b610824565b60405161026b9190612631565b60405180910390f35b34801561028057600080fd5b5061028961084e565b60405161029691906124d7565b60405180910390f35b3480156102ab57600080fd5b506102c660048036038101906102c1919061249b565b610858565b005b6102e260048036038101906102dd919061264c565b610df6565b005b3480156102f057600080fd5b506102f9610f7e565b60405161030691906124d7565b60405180910390f35b34801561031b57600080fd5b50610324610f84565b005b610340600480360381019061033b919061264c565b6111aa565b005b34801561034e57600080fd5b506103696004803603810190610364919061249b565b6111ca565b60405161037691906124d7565b60405180910390f35b34801561038b57600080fd5b506103a660048036038101906103a1919061249b565b6111ea565b6040516103b39190612533565b60405180910390f35b3480156103c857600080fd5b506103d1611227565b6040516103de919061272f565b60405180910390f35b3480156103f357600080fd5b5061040e60048036038101906104099190612751565b6112b5565b60405161041b91906124d7565b60405180910390f35b34801561043057600080fd5b5061044b6004803603810190610446919061249b565b61136c565b005b34801561045957600080fd5b50610474600480360381019061046f919061277e565b6113ab565b60405161048191906127d9565b60405180910390f35b34801561049657600080fd5b5061049f6116af565b6040516104ac919061272f565b60405180910390f35b3480156104c157600080fd5b506104dc60048036038101906104d79190612820565b61173d565b005b6104f860048036038101906104f39190612995565b61183a565b005b34801561050657600080fd5b50610521600480360381019061051c919061249b565b611a0e565b60405161052e919061272f565b60405180910390f35b34801561054357600080fd5b5061055e60048036038101906105599190612ab9565b611ab6565b60405161056b91906127d9565b60405180910390f35b34801561058057600080fd5b5061059b60048036038101906105969190612b31565b611b0f565b005b3480156105a957600080fd5b506105b2611eae565b6040516105bf9190612533565b60405180910390f35b3480156105d457600080fd5b506105dd611ed4565b6040516105ea919061272f565b60405180910390f35b3480156105ff57600080fd5b50610608611f62565b60405161061591906124d7565b60405180910390f35b34801561062a57600080fd5b5061064560048036038101906106409190612c27565b611f68565b60405161065291906127d9565b60405180910390f35b34801561066757600080fd5b50610682600480360381019061067d919061249b565b611ffc565b60405161068f91906124d7565b60405180910390f35b6000600b6000838152602001908152602001600020600501549050919050565b60006009600083815260200190815260200160002060009054906101000a900473ffffffffffffffffffffffffffffffffffffffff169050919050565b3373ffffffffffffffffffffffffffffffffffffffff16610715826111ea565b73ffffffffffffffffffffffffffffffffffffffff161461076b576040517f08c379a000000000000000000000000000000000000000000000000000000000815260040161076290612cb3565b60405180910390fd5b816009600083815260200190815260200160002060006101000a81548173ffffffffffffffffffffffffffffffffffffffff021916908373ffffffffffffffffffffffffffffffffffffffff160217905550808273ffffffffffffffffffffffffffffffffffffffff166107de836111ea565b73ffffffffffffffffffffffffffffffffffffffff167f8c5be1e5ebec7d5bd14f71427d1e84f3dd0314c0f7b2291e5b200ac8c7c3b92560405160405180910390a45050565b6000600c600083815260200190815260200160002060009054906101000a900460ff169050919050565b6000600454905090565b3373ffffffffffffffffffffffffffffffffffffffff166007600083815260200190815260200160002060009054906101000a900473ffffffffffffffffffffffffffffffffffffffff1673ffffffffffffffffffffffffffffffffffffffff16146108f9576040517f08c379a00000000000000000000000000000000000000000000000000000000081526004016108f090612cb3565b60405180910390fd5b6000600181111561090d5761090c6125ba565b5b600c600083815260200190815260200160002060009054906101000a900460ff1660018111156109405761093f6125ba565b5b14610980576040517f08c379a000000000000000000000000000000000000000000000000000000000815260040161097790612d1f565b60405180910390fd5b6000600b600083815260200190815260200160002060020180546109a390612d6e565b80601f01602080910402602001604051908101604052809291908181526020018280546109cf90612d6e565b8015610a1c5780601f106109f157610100808354040283529160200191610a1c565b820191906000526020600020905b8154815290600101906020018083116109ff57829003601f168201915b50505050509050610a62816040518060400160405280600981526020017f4c6567656e646172790000000000000000000000000000000000000000000000815250611ab6565b15610b175760008054906101000a900473ffffffffffffffffffffffffffffffffffffffff1673ffffffffffffffffffffffffffffffffffffffff166323b872dd333060086040518463ffffffff1660e01b8152600401610ac593929190612de4565b6020604051808303816000875af1158015610ae4573d6000803e3d6000fd5b505050506040513d601f19601f82011682018060405250810190610b089190612e30565b50610b128261201c565b610df2565b610b56816040518060400160405280600481526020017f4570696300000000000000000000000000000000000000000000000000000000815250611ab6565b15610c0b5760008054906101000a900473ffffffffffffffffffffffffffffffffffffffff1673ffffffffffffffffffffffffffffffffffffffff166323b872dd333060046040518463ffffffff1660e01b8152600401610bb993929190612e98565b6020604051808303816000875af1158015610bd8573d6000803e3d6000fd5b505050506040513d601f19601f82011682018060405250810190610bfc9190612e30565b50610c068261201c565b610df1565b610c4a816040518060400160405280600481526020017f5261726500000000000000000000000000000000000000000000000000000000815250611ab6565b15610cff5760008054906101000a900473ffffffffffffffffffffffffffffffffffffffff1673ffffffffffffffffffffffffffffffffffffffff166323b872dd333060026040518463ffffffff1660e01b8152600401610cad93929190612f0a565b6020604051808303816000875af1158015610ccc573d6000803e3d6000fd5b505050506040513d601f19601f82011682018060405250810190610cf09190612e30565b50610cfa8261201c565b610df0565b610d3e816040518060400160405280600681526020017f436f6d6d6f6e0000000000000000000000000000000000000000000000000000815250611ab6565b15610def5760008054906101000a900473ffffffffffffffffffffffffffffffffffffffff1673ffffffffffffffffffffffffffffffffffffffff166323b872dd333060016040518463ffffffff1660e01b8152600401610da193929190612f7c565b6020604051808303816000875af1158015610dc0573d6000803e3d6000fd5b505050506040513d601f19601f82011682018060405250810190610de49190612e30565b50610dee8261201c565b5b5b5b5b5050565b3373ffffffffffffffffffffffffffffffffffffffff16610e16826111ea565b73ffffffffffffffffffffffffffffffffffffffff161480610e9657503373ffffffffffffffffffffffffffffffffffffffff166009600083815260200190815260200160002060009054906101000a900473ffffffffffffffffffffffffffffffffffffffff1673ffffffffffffffffffffffffffffffffffffffff16145b80610f2f5750600a6000610ea9836111ea565b73ffffffffffffffffffffffffffffffffffffffff1673ffffffffffffffffffffffffffffffffffffffff16815260200190815260200160002060003373ffffffffffffffffffffffffffffffffffffffff1673ffffffffffffffffffffffffffffffffffffffff16815260200190815260200160002060009054906101000a900460ff165b610f6e576040517f08c379a0000000000000000000000000000000000000000000000000000000008152600401610f6590613025565b60405180910390fd5b610f7983838361205b565b505050565b60045481565b60008060009054906101000a900473ffffffffffffffffffffffffffffffffffffffff1673ffffffffffffffffffffffffffffffffffffffff166370a08231306040518263ffffffff1660e01b8152600401610fe09190612533565b602060405180830381865afa158015610ffd573d6000803e3d6000fd5b505050506040513d601f19601f82011682018060405250810190611021919061305a565b905060008054906101000a900473ffffffffffffffffffffffffffffffffffffffff1673ffffffffffffffffffffffffffffffffffffffff1663095ea7b3600660009054906101000a900473ffffffffffffffffffffffffffffffffffffffff16836040518363ffffffff1660e01b81526004016110a0929190613087565b6020604051808303816000875af11580156110bf573d6000803e3d6000fd5b505050506040513d601f19601f820116820180604052508101906110e39190612e30565b5060008054906101000a900473ffffffffffffffffffffffffffffffffffffffff1673ffffffffffffffffffffffffffffffffffffffff166323b872dd30600660009054906101000a900473ffffffffffffffffffffffffffffffffffffffff16846040518463ffffffff1660e01b8152600401611163939291906130b0565b6020604051808303816000875af1158015611182573d6000803e3d6000fd5b505050506040513d601f19601f820116820180604052508101906111a69190612e30565b5050565b6111c58383836040518060200160405280600081525061183a565b505050565b6000600b6000838152602001908152602001600020600601549050919050565b60006007600083815260200190815260200160002060009054906101000a900473ffffffffffffffffffffffffffffffffffffffff169050919050565b6003805461123490612d6e565b80601f016020809104026020016040519081016040528092919081815260200182805461126090612d6e565b80156112ad5780601f10611282576101008083540402835291602001916112ad565b820191906000526020600020905b81548152906001019060200180831161129057829003601f168201915b505050505081565b60008073ffffffffffffffffffffffffffffffffffffffff168273ffffffffffffffffffffffffffffffffffffffff1603611325576040517f08c379a000000000000000000000000000000000000000000000000000000000815260040161131c90613133565b60405180910390fd5b600860008373ffffffffffffffffffffffffffffffffffffffff1673ffffffffffffffffffffffffffffffffffffffff168152602001908152602001600020549050919050565b6000600c600083815260200190815260200160002060006101000a81548160ff021916908360018111156113a3576113a26125ba565b5b021790555050565b600080600b600085815260200190815260200160002060030180546113cf90612d6e565b80601f01602080910402602001604051908101604052809291908181526020018280546113fb90612d6e565b80156114485780601f1061141d57610100808354040283529160200191611448565b820191906000526020600020905b81548152906001019060200180831161142b57829003601f168201915b505050505090506000600b6000858152602001908152602001600020600301805461147290612d6e565b80601f016020809104026020016040519081016040528092919081815260200182805461149e90612d6e565b80156114eb5780601f106114c0576101008083540402835291602001916114eb565b820191906000526020600020905b8154815290600101906020018083116114ce57829003601f168201915b50505050509050611531826040518060400160405280600781526020017f4171756174696300000000000000000000000000000000000000000000000000815250611ab6565b80156115785750611577816040518060400160405280600881526020017f496e6665726e616c000000000000000000000000000000000000000000000000815250611ab6565b5b8061160557506115bd826040518060400160405280600781526020017f56657264616e7400000000000000000000000000000000000000000000000000815250611ab6565b80156116045750611603816040518060400160405280600781526020017f4171756174696300000000000000000000000000000000000000000000000000815250611ab6565b5b5b80611692575061164a826040518060400160405280600881526020017f496e6665726e616c000000000000000000000000000000000000000000000000815250611ab6565b80156116915750611690816040518060400160405280600781526020017f56657264616e7400000000000000000000000000000000000000000000000000815250611ab6565b5b5b156116a2576001925050506116a9565b6000925050505b92915050565b600280546116bc90612d6e565b80601f01602080910402602001604051908101604052809291908181526020018280546116e890612d6e565b80156117355780601f1061170a57610100808354040283529160200191611735565b820191906000526020600020905b81548152906001019060200180831161171857829003601f168201915b505050505081565b80600a60003373ffffffffffffffffffffffffffffffffffffffff1673ffffffffffffffffffffffffffffffffffffffff16815260200190815260200160002060008473ffffffffffffffffffffffffffffffffffffffff1673ffffffffffffffffffffffffffffffffffffffff16815260200190815260200160002060006101000a81548160ff0219169083151502179055508173ffffffffffffffffffffffffffffffffffffffff163373ffffffffffffffffffffffffffffffffffffffff167f17307eab39ab6107e8899845ad3d59bd9653f200f220920489ca2b5937696c318360405161182e91906127d9565b60405180910390a35050565b3373ffffffffffffffffffffffffffffffffffffffff1661185a836111ea565b73ffffffffffffffffffffffffffffffffffffffff1614806118da57503373ffffffffffffffffffffffffffffffffffffffff166009600084815260200190815260200160002060009054906101000a900473ffffffffffffffffffffffffffffffffffffffff1673ffffffffffffffffffffffffffffffffffffffff16145b806119735750600a60006118ed846111ea565b73ffffffffffffffffffffffffffffffffffffffff1673ffffffffffffffffffffffffffffffffffffffff16815260200190815260200160002060003373ffffffffffffffffffffffffffffffffffffffff1673ffffffffffffffffffffffffffffffffffffffff16815260200190815260200160002060009054906101000a900460ff165b6119b2576040517f08c379a00000000000000000000000000000000000000000000000000000000081526004016119a990613025565b60405180910390fd5b6119bd84848461205b565b6119c9848484846122d6565b611a08576040517f08c379a00000000000000000000000000000000000000000000000000000000081526004016119ff9061319f565b60405180910390fd5b50505050565b6060600b60008381526020019081526020016000206003018054611a3190612d6e565b80601f0160208091040260200160405190810160405280929190818152602001828054611a5d90612d6e565b8015611aaa5780601f10611a7f57610100808354040283529160200191611aaa565b820191906000526020600020905b815481529060010190602001808311611a8d57829003601f168201915b50505050509050919050565b600081604051602001611ac991906131fb565b6040516020818303038152906040528051906020012083604051602001611af091906131fb565b6040516020818303038152906040528051906020012014905092915050565b600160008054906101000a900473ffffffffffffffffffffffffffffffffffffffff1673ffffffffffffffffffffffffffffffffffffffff166370a08231896040518263ffffffff1660e01b8152600401611b6a9190612533565b602060405180830381865afa158015611b87573d6000803e3d6000fd5b505050506040513d601f19601f82011682018060405250810190611bab919061305a565b11611beb576040517f08c379a0000000000000000000000000000000000000000000000000000000008152600401611be29061325e565b60405180910390fd5b60008054906101000a900473ffffffffffffffffffffffffffffffffffffffff1673ffffffffffffffffffffffffffffffffffffffff166323b872dd883060056040518463ffffffff1660e01b8152600401611c49939291906132b9565b6020604051808303816000875af1158015611c68573d6000803e3d6000fd5b505050506040513d601f19601f82011682018060405250810190611c8c9190612e30565b508660076000600454815260200190815260200160002060006101000a81548173ffffffffffffffffffffffffffffffffffffffff021916908373ffffffffffffffffffffffffffffffffffffffff1602179055506001600860008973ffffffffffffffffffffffffffffffffffffffff1673ffffffffffffffffffffffffffffffffffffffff1681526020019081526020016000206000828254611d31919061331f565b925050819055506040518060e00160405280600454815260200187815260200186815260200185815260200184815260200183815260200182815250600b60006004548152602001908152602001600020600082015181600001556020820151816001019081611da191906134f5565b506040820151816002019081611db791906134f5565b506060820151816003019081611dcd91906134f5565b506080820151816004015560a0820151816005015560c082015181600601559050506001600c6000600454815260200190815260200160002060006101000a81548160ff02191690836001811115611e2857611e276125ba565b5b02179055506004548773ffffffffffffffffffffffffffffffffffffffff16600073ffffffffffffffffffffffffffffffffffffffff167fddf252ad1be2c89b69c2b068fc378daa952ba7f163c4a11628f55a4df523b3ef60405160405180910390a4600160046000828254611e9e919061331f565b9250508190555050505050505050565b600660009054906101000a900473ffffffffffffffffffffffffffffffffffffffff1681565b60018054611ee190612d6e565b80601f0160208091040260200160405190810160405280929190818152602001828054611f0d90612d6e565b8015611f5a5780601f10611f2f57610100808354040283529160200191611f5a565b820191906000526020600020905b815481529060010190602001808311611f3d57829003601f168201915b505050505081565b60055481565b6000600a60008473ffffffffffffffffffffffffffffffffffffffff1673ffffffffffffffffffffffffffffffffffffffff16815260200190815260200160002060008373ffffffffffffffffffffffffffffffffffffffff1673ffffffffffffffffffffffffffffffffffffffff16815260200190815260200160002060009054906101000a900460ff16905092915050565b6000600b6000838152602001908152602001600020600401549050919050565b6001600c600083815260200190815260200160002060006101000a81548160ff02191690836001811115612053576120526125ba565b5b021790555050565b8273ffffffffffffffffffffffffffffffffffffffff1661207b826111ea565b73ffffffffffffffffffffffffffffffffffffffff16146120d1576040517f08c379a00000000000000000000000000000000000000000000000000000000081526004016120c890612cb3565b60405180910390fd5b600073ffffffffffffffffffffffffffffffffffffffff168273ffffffffffffffffffffffffffffffffffffffff1603612140576040517f08c379a000000000000000000000000000000000000000000000000000000000815260040161213790613613565b60405180910390fd5b6009600082815260200190815260200160002060006101000a81549073ffffffffffffffffffffffffffffffffffffffff02191690556001600860008573ffffffffffffffffffffffffffffffffffffffff1673ffffffffffffffffffffffffffffffffffffffff16815260200190815260200160002060008282546121c69190613633565b925050819055506001600860008473ffffffffffffffffffffffffffffffffffffffff1673ffffffffffffffffffffffffffffffffffffffff168152602001908152602001600020600082825461221d919061331f565b92505081905550816007600083815260200190815260200160002060006101000a81548173ffffffffffffffffffffffffffffffffffffffff021916908373ffffffffffffffffffffffffffffffffffffffff160217905550808273ffffffffffffffffffffffffffffffffffffffff168473ffffffffffffffffffffffffffffffffffffffff167fddf252ad1be2c89b69c2b068fc378daa952ba7f163c4a11628f55a4df523b3ef60405160405180910390a4505050565b6000808473ffffffffffffffffffffffffffffffffffffffff163b1115612444578373ffffffffffffffffffffffffffffffffffffffff1663150b7a02338786866040518563ffffffff1660e01b815260040161233694939291906136bc565b6020604051808303816000875af192505050801561237257506040513d601f19601f8201168201806040525081019061236f9190613760565b60015b6123f4573d80600081146123a2576040519150601f19603f3d011682016040523d82523d6000602084013e6123a7565b606091505b5060008151036123ec576040517f08c379a00000000000000000000000000000000000000000000000000000000081526004016123e3906137ff565b60405180910390fd5b805181602001fd5b63150b7a0260e01b7bffffffffffffffffffffffffffffffffffffffffffffffffffffffff1916817bffffffffffffffffffffffffffffffffffffffffffffffffffffffff191614915050612449565b600190505b949350505050565b6000604051905090565b600080fd5b600080fd5b6000819050919050565b61247881612465565b811461248357600080fd5b50565b6000813590506124958161246f565b92915050565b6000602082840312156124b1576124b061245b565b5b60006124bf84828501612486565b91505092915050565b6124d181612465565b82525050565b60006020820190506124ec60008301846124c8565b92915050565b600073ffffffffffffffffffffffffffffffffffffffff82169050919050565b600061251d826124f2565b9050919050565b61252d81612512565b82525050565b60006020820190506125486000830184612524565b92915050565b61255781612512565b811461256257600080fd5b50565b6000813590506125748161254e565b92915050565b600080604083850312156125915761259061245b565b5b600061259f85828601612565565b92505060206125b085828601612486565b9150509250929050565b7f4e487b7100000000000000000000000000000000000000000000000000000000600052602160045260246000fd5b600281106125fa576125f96125ba565b5b50565b600081905061260b826125e9565b919050565b600061261b826125fd565b9050919050565b61262b81612610565b82525050565b60006020820190506126466000830184612622565b92915050565b6000806000606084860312156126655761266461245b565b5b600061267386828701612565565b935050602061268486828701612565565b925050604061269586828701612486565b9150509250925092565b600081519050919050565b600082825260208201905092915050565b60005b838110156126d95780820151818401526020810190506126be565b60008484015250505050565b6000601f19601f8301169050919050565b60006127018261269f565b61270b81856126aa565b935061271b8185602086016126bb565b612724816126e5565b840191505092915050565b6000602082019050818103600083015261274981846126f6565b905092915050565b6000602082840312156127675761276661245b565b5b600061277584828501612565565b91505092915050565b600080604083850312156127955761279461245b565b5b60006127a385828601612486565b92505060206127b485828601612486565b9150509250929050565b60008115159050919050565b6127d3816127be565b82525050565b60006020820190506127ee60008301846127ca565b92915050565b6127fd816127be565b811461280857600080fd5b50565b60008135905061281a816127f4565b92915050565b600080604083850312156128375761283661245b565b5b600061284585828601612565565b92505060206128568582860161280b565b9150509250929050565b600080fd5b600080fd5b7f4e487b7100000000000000000000000000000000000000000000000000000000600052604160045260246000fd5b6128a2826126e5565b810181811067ffffffffffffffff821117156128c1576128c061286a565b5b80604052505050565b60006128d4612451565b90506128e08282612899565b919050565b600067ffffffffffffffff821115612900576128ff61286a565b5b612909826126e5565b9050602081019050919050565b82818337600083830152505050565b6000612938612933846128e5565b6128ca565b90508281526020810184848401111561295457612953612865565b5b61295f848285612916565b509392505050565b600082601f83011261297c5761297b612860565b5b813561298c848260208601612925565b91505092915050565b600080600080608085870312156129af576129ae61245b565b5b60006129bd87828801612565565b94505060206129ce87828801612565565b93505060406129df87828801612486565b925050606085013567ffffffffffffffff811115612a00576129ff612460565b5b612a0c87828801612967565b91505092959194509250565b600067ffffffffffffffff821115612a3357612a3261286a565b5b612a3c826126e5565b9050602081019050919050565b6000612a5c612a5784612a18565b6128ca565b905082815260208101848484011115612a7857612a77612865565b5b612a83848285612916565b509392505050565b600082601f830112612aa057612a9f612860565b5b8135612ab0848260208601612a49565b91505092915050565b60008060408385031215612ad057612acf61245b565b5b600083013567ffffffffffffffff811115612aee57612aed612460565b5b612afa85828601612a8b565b925050602083013567ffffffffffffffff811115612b1b57612b1a612460565b5b612b2785828601612a8b565b9150509250929050565b600080600080600080600060e0888a031215612b5057612b4f61245b565b5b6000612b5e8a828b01612565565b975050602088013567ffffffffffffffff811115612b7f57612b7e612460565b5b612b8b8a828b01612a8b565b965050604088013567ffffffffffffffff811115612bac57612bab612460565b5b612bb88a828b01612a8b565b955050606088013567ffffffffffffffff811115612bd957612bd8612460565b5b612be58a828b01612a8b565b9450506080612bf68a828b01612486565b93505060a0612c078a828b01612486565b92505060c0612c188a828b01612486565b91505092959891949750929550565b60008060408385031215612c3e57612c3d61245b565b5b6000612c4c85828601612565565b9250506020612c5d85828601612565565b9150509250929050565b7f4e6f74206f776e6572206f662042656173740000000000000000000000000000600082015250565b6000612c9d6012836126aa565b9150612ca882612c67565b602082019050919050565b60006020820190508181036000830152612ccc81612c90565b9050919050565b7f4265617374206973206e6f742062726f6b656e00000000000000000000000000600082015250565b6000612d096013836126aa565b9150612d1482612cd3565b602082019050919050565b60006020820190508181036000830152612d3881612cfc565b9050919050565b7f4e487b7100000000000000000000000000000000000000000000000000000000600052602260045260246000fd5b60006002820490506001821680612d8657607f821691505b602082108103612d9957612d98612d3f565b5b50919050565b6000819050919050565b6000819050919050565b6000612dce612dc9612dc484612d9f565b612da9565b612465565b9050919050565b612dde81612db3565b82525050565b6000606082019050612df96000830186612524565b612e066020830185612524565b612e136040830184612dd5565b949350505050565b600081519050612e2a816127f4565b92915050565b600060208284031215612e4657612e4561245b565b5b6000612e5484828501612e1b565b91505092915050565b6000819050919050565b6000612e82612e7d612e7884612e5d565b612da9565b612465565b9050919050565b612e9281612e67565b82525050565b6000606082019050612ead6000830186612524565b612eba6020830185612524565b612ec76040830184612e89565b949350505050565b6000819050919050565b6000612ef4612eef612eea84612ecf565b612da9565b612465565b9050919050565b612f0481612ed9565b82525050565b6000606082019050612f1f6000830186612524565b612f2c6020830185612524565b612f396040830184612efb565b949350505050565b6000819050919050565b6000612f66612f61612f5c84612f41565b612da9565b612465565b9050919050565b612f7681612f4b565b82525050565b6000606082019050612f916000830186612524565b612f9e6020830185612524565b612fab6040830184612f6d565b949350505050565b7f4e6f20617070726f76616c206772616e7420746f207472616e7366657220746860008201527f6973204265617374000000000000000000000000000000000000000000000000602082015250565b600061300f6028836126aa565b915061301a82612fb3565b604082019050919050565b6000602082019050818103600083015261303e81613002565b9050919050565b6000815190506130548161246f565b92915050565b6000602082840312156130705761306f61245b565b5b600061307e84828501613045565b91505092915050565b600060408201905061309c6000830185612524565b6130a960208301846124c8565b9392505050565b60006060820190506130c56000830186612524565b6130d26020830185612524565b6130df60408301846124c8565b949350505050565b7f4e756c6c20616464726573732073706563696669656400000000000000000000600082015250565b600061311d6016836126aa565b9150613128826130e7565b602082019050919050565b6000602082019050818103600083015261314c81613110565b9050919050565b7f21455243373231496d706c656d656e7465720000000000000000000000000000600082015250565b60006131896012836126aa565b915061319482613153565b602082019050919050565b600060208201905081810360008301526131b88161317c565b9050919050565b600081905092915050565b60006131d58261269f565b6131df81856131bf565b93506131ef8185602086016126bb565b80840191505092915050565b600061320782846131ca565b915081905092915050565b7f4e6f7420656e6f7567682047656d20696e2077616c6c65740000000000000000600082015250565b60006132486018836126aa565b915061325382613212565b602082019050919050565b600060208201905081810360008301526132778161323b565b9050919050565b6000819050919050565b60006132a361329e6132998461327e565b612da9565b612465565b9050919050565b6132b381613288565b82525050565b60006060820190506132ce6000830186612524565b6132db6020830185612524565b6132e860408301846132aa565b949350505050565b7f4e487b7100000000000000000000000000000000000000000000000000000000600052601160045260246000fd5b600061332a82612465565b915061333583612465565b925082820190508082111561334d5761334c6132f0565b5b92915050565b60008190508160005260206000209050919050565b60006020601f8301049050919050565b600082821b905092915050565b6000600883026133b57fffffffffffffffffffffffffffffffffffffffffffffffffffffffffffffffff82613378565b6133bf8683613378565b95508019841693508086168417925050509392505050565b60006133f26133ed6133e884612465565b612da9565b612465565b9050919050565b6000819050919050565b61340c836133d7565b613420613418826133f9565b848454613385565b825550505050565b600090565b613435613428565b613440818484613403565b505050565b5b818110156134645761345960008261342d565b600181019050613446565b5050565b601f8211156134a95761347a81613353565b61348384613368565b81016020851015613492578190505b6134a661349e85613368565b830182613445565b50505b505050565b600082821c905092915050565b60006134cc600019846008026134ae565b1980831691505092915050565b60006134e583836134bb565b9150826002028217905092915050565b6134fe8261269f565b67ffffffffffffffff8111156135175761351661286a565b5b6135218254612d6e565b61352c828285613468565b600060209050601f83116001811461355f576000841561354d578287015190505b61355785826134d9565b8655506135bf565b601f19841661356d86613353565b60005b8281101561359557848901518255600182019150602085019450602081019050613570565b868310156135b257848901516135ae601f8916826134bb565b8355505b6001600288020188555050505b505050505050565b7f4e756c6c20416464726573732053706563696669656400000000000000000000600082015250565b60006135fd6016836126aa565b9150613608826135c7565b602082019050919050565b6000602082019050818103600083015261362c816135f0565b9050919050565b600061363e82612465565b915061364983612465565b9250828203905081811115613661576136606132f0565b5b92915050565b600081519050919050565b600082825260208201905092915050565b600061368e82613667565b6136988185613672565b93506136a88185602086016126bb565b6136b1816126e5565b840191505092915050565b60006080820190506136d16000830187612524565b6136de6020830186612524565b6136eb60408301856124c8565b81810360608301526136fd8184613683565b905095945050505050565b60007fffffffff0000000000000000000000000000000000000000000000000000000082169050919050565b61373d81613708565b811461374857600080fd5b50565b60008151905061375a81613734565b92915050565b6000602082840312156137765761377561245b565b5b60006137848482850161374b565b91505092915050565b7f4552433732313a207472616e7366657220746f206e6f6e20455243373231526560008201527f63656976657220696d706c656d656e7465720000000000000000000000000000602082015250565b60006137e96032836126aa565b91506137f48261378d565b604082019050919050565b60006020820190508181036000830152613818816137dc565b905091905056fea264697066735822122099a575ab0222e9668bb3b54f587d11e7509cde31367de17658178609e903e66464736f6c63430008120033",
  "immutableReferences": {},
  "source": "// SPDX-License-Identifier: MIT\npragma solidity ^0.8.18;\n\nimport './IERC721Receiver.sol';\nimport './Gem.sol';\n\ncontract BeastCard {\n    Gem gemContract;\n    string public collectionName;\n    string public symbol;\n    string public baseURI;\n\n    enum cardState { broken, functional }\n\n    uint256 public nextTokenIdToMint;\n    uint256 public maxTokens;\n    address public contractOwner;\n\n    // card id => owner\n    mapping(uint256 => address) internal _owners;\n    // owner => card count\n    mapping(address => uint256) internal _balances;\n    // card id => approved address\n    mapping(uint256 => address) internal _tokenApprovals;\n    // owner => (operator => yes/no)\n    mapping(address => mapping(address => bool)) internal _operatorApprovals;\n    // card id => beast struct\n    mapping(uint256 => Beast) _beasts;\n    // card id => card state\n    mapping(uint256 => cardState) _cardStates;\n\n\n    struct Beast {\n        uint256 id;\n        string name;\n        string rarity;\n        string nature;\n        uint256 cost;\n        uint256 attack;\n        uint256 health;\n    }\n\n    event Transfer(address indexed _from, address indexed _to, uint256 indexed _tokenId);\n    event Approval(address indexed _owner, address indexed _approved, uint256 indexed _tokenId);\n    event ApprovalForAll(address indexed _owner, address indexed _operator, bool _approved);\n\n    constructor(Gem gemAddress, string memory _name, string memory _symbol) {\n        gemContract = gemAddress;\n        collectionName = _name;\n        symbol = _symbol;\n        //baseURI = \"https://ipfs.io/ipfs/bafybeihxrnzopq3srhjms4rmg2nulen7aiet2cid7rbyczuj2vtnkrpumy/\";\n        nextTokenIdToMint = 0;\n        maxTokens = 1000;\n        contractOwner = msg.sender;\n    }\n    \n    // Set as public so as to allow Fight.sol to call it\n    // Any better way to do it?\n    function cardDestroyed(uint256 _cardId) public {\n        _cardStates[_cardId] = cardState.broken;\n    }\n\n    function cardRevived(uint256 _cardId) internal {\n        _cardStates[_cardId] = cardState.functional;\n    }\n\n    function restoreCard(uint256 _cardId) public {\n        require(_owners[_cardId] == msg.sender, \"Not owner of Beast\");\n        require(_cardStates[_cardId] == cardState.broken, \"Beast is not broken\");\n        string memory rarity = _beasts[_cardId].rarity;\n        if (compareStrings(rarity, \"Legendary\")) {\n            gemContract.transferFrom(msg.sender, address(this), 8);\n            cardRevived(_cardId);\n        } else if (compareStrings(rarity, \"Epic\")) {\n            gemContract.transferFrom(msg.sender, address(this), 4);\n            cardRevived(_cardId);\n        } else if (compareStrings(rarity, \"Rare\")) {\n            gemContract.transferFrom(msg.sender, address(this), 2);\n            cardRevived(_cardId);\n        } else if (compareStrings(rarity, \"Common\")) {\n            gemContract.transferFrom(msg.sender, address(this), 1);\n            cardRevived(_cardId);\n        }\n    }\n\n    function attackOf(uint256 _cardId) public view returns(uint256) {\n        return _beasts[_cardId].attack;\n    }\n\n    function healthOf(uint256 _cardId) public view returns(uint256) {\n        return _beasts[_cardId].health;\n    }\n\n    function stateOf(uint256 _cardId) public view returns(cardState) {\n        return _cardStates[_cardId];\n    }\n\n    function costOf(uint256 _cardId) public view returns (uint256) {\n        return _beasts[_cardId].cost;\n    }\n\n    function natureOf(uint256 _cardId) public view returns (string memory) {\n        return _beasts[_cardId].nature;\n    }\n\n    function balanceOf(address _owner) public view returns(uint256) {\n        require(_owner != address(0), \"Null address specified\");\n        return _balances[_owner];\n    }\n\n    function ownerOf(uint256 _tokenId) public view returns(address) {\n        return _owners[_tokenId];\n    }\n\n    function effective(uint256 myCard, uint256 enemyCard) public view returns (bool) {\n        string memory myNature = _beasts[myCard].nature;\n        string memory enemyNature = _beasts[enemyCard].nature;\n        if ((compareStrings(myNature, \"Aquatic\") && compareStrings(enemyNature, \"Infernal\")) || (compareStrings(myNature, \"Verdant\") && compareStrings(enemyNature, \"Aquatic\")) || (compareStrings(myNature, \"Infernal\") && compareStrings(enemyNature, \"Verdant\"))) {\n            return true;\n        }  else {\n            return false;\n        }\n    }\n\n    function safeTransferFrom(address _from, address _to, uint256 _tokenId) public payable {\n        safeTransferFrom(_from, _to, _tokenId, \"\");\n    }\n\n    function safeTransferFrom(address _from, address _to, uint256 _tokenId, bytes memory _data) public payable {\n        require(ownerOf(_tokenId) == msg.sender || _tokenApprovals[_tokenId] == msg.sender || _operatorApprovals[ownerOf(_tokenId)][msg.sender], \"No approval grant to transfer this Beast\");\n        _transfer(_from, _to, _tokenId);\n        // trigger func check\n        require(_checkOnERC721Received(_from, _to, _tokenId, _data), \"!ERC721Implementer\");\n    }\n\n    function transferFrom(address _from, address _to, uint256 _tokenId) public payable {\n        // unsafe transfer without onERC721Received, used for contracts that dont implement\n        require(ownerOf(_tokenId) == msg.sender || _tokenApprovals[_tokenId] == msg.sender || _operatorApprovals[ownerOf(_tokenId)][msg.sender], \"No approval grant to transfer this Beast\");\n        _transfer(_from, _to, _tokenId);\n    }\n\n    function approve(address _approved, uint256 _tokenId) public payable {\n        require(ownerOf(_tokenId) == msg.sender, \"Not owner of Beast\");\n        _tokenApprovals[_tokenId] = _approved;\n        emit Approval(ownerOf(_tokenId), _approved, _tokenId);\n    }\n\n    function setApprovalForAll(address _operator, bool _approved) public {\n        _operatorApprovals[msg.sender][_operator] = _approved;\n        emit ApprovalForAll(msg.sender, _operator, _approved);\n    }\n\n    function getApproved(uint256 _tokenId) public view returns (address) {\n        return _tokenApprovals[_tokenId];\n    }\n\n    function isApprovedForAll(address _owner, address _operator) public view returns (bool) {\n        return _operatorApprovals[_owner][_operator];\n    }\n\n    function mint(address _to, string memory name, string memory rarity, string memory nature, uint256 cost, uint256 attack, uint256 health) public {\n        require(gemContract.balanceOf(_to) > 1, \"Not enough Gem in wallet\");\n        gemContract.transferFrom(_to, address(this), 5);\n        _owners[nextTokenIdToMint] = _to;\n        _balances[_to] += 1;\n        //_tokenUris[nextTokenIdToMint] = string.concat(baseURI, \"Beast_\", uint2str(nextTokenIdToMint), \".json\");\n        _beasts[nextTokenIdToMint] = Beast(nextTokenIdToMint, name, rarity, nature, cost, attack, health);\n        _cardStates[nextTokenIdToMint] = cardState.functional;\n        emit Transfer(address(0), _to, nextTokenIdToMint);\n        nextTokenIdToMint += 1;\n    }\n\n    function totalSupply() public view returns(uint256) {\n        return nextTokenIdToMint;\n    }\n\n    function withdraw() public {\n        uint256 amt = gemContract.balanceOf(address(this));\n        gemContract.approve(contractOwner, amt);\n        gemContract.transferFrom(address(this), contractOwner, amt);\n    }\n\n    // INTERNAL FUNCTIONS\n    function _checkOnERC721Received(\n        address from,\n        address to,\n        uint256 tokenId,\n        bytes memory data\n    ) private returns (bool) {\n        // check if to is an contract, if yes, to.code.length will always > 0\n        if (to.code.length > 0) {\n            try IERC721Receiver(to).onERC721Received(msg.sender, from, tokenId, data) returns (bytes4 retval) {\n                return retval == IERC721Receiver.onERC721Received.selector;\n            } catch (bytes memory reason) {\n                if (reason.length == 0) {\n                    revert(\"ERC721: transfer to non ERC721Receiver implementer\");\n                } else {\n                    /// @solidity memory-safe-assembly\n                    assembly {\n                        revert(add(32, reason), mload(reason))\n                    }\n                }\n            }\n        } else {\n            return true;\n        }\n    }\n\n    // unsafe transfer\n    function _transfer(address _from, address _to, uint256 _tokenId) internal {\n        require(ownerOf(_tokenId) == _from, \"Not owner of Beast\");\n        require(_to != address(0), \"Null Address Specified\");\n\n        delete _tokenApprovals[_tokenId];\n        _balances[_from] -= 1;\n        _balances[_to] += 1;\n        _owners[_tokenId] = _to;\n\n        emit Transfer(_from, _to, _tokenId);\n    }\n\n    function compareStrings(string memory a, string memory b) public pure returns (bool) {\n        return (keccak256(abi.encodePacked((a))) == keccak256(abi.encodePacked((b))));\n    }\n\n    function uint2str(uint _i) internal pure returns (string memory _uintAsString) {\n        if (_i == 0) {\n            return \"0\";\n        }\n        uint j = _i;\n        uint len;\n        while (j != 0) {\n            len++;\n            j /= 10;\n        }\n        bytes memory bstr = new bytes(len);\n        uint k = len;\n        while (_i != 0) {\n            k = k-1;\n            uint8 temp = (48 + uint8(_i - _i / 10 * 10));\n            bytes1 b1 = bytes1(temp);\n            bstr[k] = b1;\n            _i /= 10;\n        }\n        return string(bstr);\n    }\n}\n",
  "sourcePath": "/Users/bryanwonggy/nus/is4302placeholdername/contracts/BeastCard.sol",
  "compiler": {
    "name": "solc",
    "version": "0.8.18+commit.87f61d96.Emscripten.clang"
  },
  "schemaVersion": "3.4.11",
  "updatedAt": "2023-03-24T14:57:29.262Z",
  "networkType": "ethereum",
  "devdoc": {
    "kind": "dev",
    "methods": {},
    "version": 1
  },
  "userdoc": {
    "kind": "user",
    "methods": {},
    "version": 1
  }
}