{
  "contractName": "Fight",
  "abi": [
    {
      "inputs": [
        {
          "internalType": "contract Gem",
          "name": "gemAddress",
          "type": "address"
        },
        {
          "internalType": "contract BeastCard",
          "name": "cardAddress",
          "type": "address"
        }
      ],
      "stateMutability": "nonpayable",
      "type": "constructor"
    },
    {
      "anonymous": false,
      "inputs": [
        {
          "indexed": false,
          "internalType": "address",
          "name": "player",
          "type": "address"
        }
      ],
      "name": "inQueue",
      "type": "event"
    },
    {
      "anonymous": false,
      "inputs": [],
      "name": "outcomeDraw",
      "type": "event"
    },
    {
      "anonymous": false,
      "inputs": [
        {
          "indexed": false,
          "internalType": "address",
          "name": "winner",
          "type": "address"
        }
      ],
      "name": "outcomeWin",
      "type": "event"
    },
    {
      "inputs": [
        {
          "internalType": "uint256[]",
          "name": "cards",
          "type": "uint256[]"
        }
      ],
      "name": "fight",
      "outputs": [],
      "stateMutability": "nonpayable",
      "type": "function"
    }
  ],
  "bytecode": "0x60806040523480156200001157600080fd5b506040516200242e3803806200242e833981810160405281019062000037919062000183565b806000806101000a81548173ffffffffffffffffffffffffffffffffffffffff021916908373ffffffffffffffffffffffffffffffffffffffff16021790555081600160006101000a81548173ffffffffffffffffffffffffffffffffffffffff021916908373ffffffffffffffffffffffffffffffffffffffff1602179055505050620001ca565b600080fd5b600073ffffffffffffffffffffffffffffffffffffffff82169050919050565b6000620000f282620000c5565b9050919050565b60006200010682620000e5565b9050919050565b6200011881620000f9565b81146200012457600080fd5b50565b60008151905062000138816200010d565b92915050565b60006200014b82620000e5565b9050919050565b6200015d816200013e565b81146200016957600080fd5b50565b6000815190506200017d8162000152565b92915050565b600080604083850312156200019d576200019c620000c0565b5b6000620001ad8582860162000127565b9250506020620001c0858286016200016c565b9150509250929050565b61225480620001da6000396000f3fe608060405234801561001057600080fd5b506004361061002b5760003560e01c8063d5bb430014610030575b600080fd5b61004a60048036038101906100459190611ba8565b61004c565b005b8060005b815181101561018d573373ffffffffffffffffffffffffffffffffffffffff1660008054906101000a900473ffffffffffffffffffffffffffffffffffffffff1673ffffffffffffffffffffffffffffffffffffffff16636352211e8484815181106100bf576100be611bf1565b5b60200260200101516040518263ffffffff1660e01b81526004016100e39190611c2f565b602060405180830381865afa158015610100573d6000803e3d6000fd5b505050506040513d601f19601f820116820180604052508101906101249190611ca8565b73ffffffffffffffffffffffffffffffffffffffff161461017a576040517f08c379a000000000000000000000000000000000000000000000000000000000815260040161017190611d32565b60405180910390fd5b808061018590611d81565b915050610050565b508160058151146101d3576040517f08c379a00000000000000000000000000000000000000000000000000000000081526004016101ca90611e15565b60405180910390fd5b8260005b815181101561030d57600060018111156101f4576101f3611e35565b5b60008054906101000a900473ffffffffffffffffffffffffffffffffffffffff1673ffffffffffffffffffffffffffffffffffffffff1663131a7e2484848151811061024357610242611bf1565b5b60200260200101516040518263ffffffff1660e01b81526004016102679190611c2f565b602060405180830381865afa158015610284573d6000803e3d6000fd5b505050506040513d601f19601f820116820180604052508101906102a89190611e89565b60018111156102ba576102b9611e35565b5b036102fa576040517f08c379a00000000000000000000000000000000000000000000000000000000081526004016102f190611f28565b60405180910390fd5b808061030590611d81565b9150506101d7565b506000805b85518110156103ef5760008054906101000a900473ffffffffffffffffffffffffffffffffffffffff1673ffffffffffffffffffffffffffffffffffffffff1663fd32659287838151811061036a57610369611bf1565b5b60200260200101516040518263ffffffff1660e01b815260040161038e9190611c2f565b602060405180830381865afa1580156103ab573d6000803e3d6000fd5b505050506040513d601f19601f820116820180604052508101906103cf9190611f5d565b826103da9190611f8a565b915080806103e790611d81565b915050610312565b506041811115610434576040517f08c379a000000000000000000000000000000000000000000000000000000000815260040161042b9061200a565b60405180910390fd5b6000600367ffffffffffffffff81111561045157610450611a2f565b5b60405190808252806020026020018201604052801561047f5781602001602082028036833780820191505090505b509050600a8160008151811061049857610497611bf1565b5b602002602001018181525050600a600160148460416104b79190612059565b6104c19190612059565b6104cb9190611f8a565b6104d5919061208a565b816001815181106104e9576104e8611bf1565b5b602002602001018181525050600060028054905003610654576002339080600181540180825580915050600190039060005260206000200160009091909190916101000a81548173ffffffffffffffffffffffffffffffffffffffff021916908373ffffffffffffffffffffffffffffffffffffffff16021790555085600360003373ffffffffffffffffffffffffffffffffffffffff1673ffffffffffffffffffffffffffffffffffffffff16815260200190815260200160002090805190602001906105b892919061199b565b50806001815181106105cd576105cc611bf1565b5b6020026020010151600460003373ffffffffffffffffffffffffffffffffffffffff1673ffffffffffffffffffffffffffffffffffffffff168152602001908152602001600020819055507f07c579022c954befe6934cb25f93711633ed49c0c382d7adab0fb88a5a6b20a43360405161064791906120db565b60405180910390a161174a565b6000600260008154811061066b5761066a611bf1565b5b9060005260206000200160009054906101000a900473ffffffffffffffffffffffffffffffffffffffff16905060028054806106aa576106a96120f6565b5b6001900381819060005260206000200160006101000a81549073ffffffffffffffffffffffffffffffffffffffff02191690559055600460008273ffffffffffffffffffffffffffffffffffffffff1673ffffffffffffffffffffffffffffffffffffffff168152602001908152602001600020548260028151811061073357610732611bf1565b5b6020026020010181815250506000600267ffffffffffffffff81111561075c5761075b611a2f565b5b60405190808252806020026020018201604052801561078a5781602001602082028036833780820191505090505b5090506000600360008473ffffffffffffffffffffffffffffffffffffffff1673ffffffffffffffffffffffffffffffffffffffff16815260200190815260200160002080548060200260200160405190810160405280929190818152602001828054801561081857602002820191906000526020600020905b815481526020019060010190808311610804575b5050505050905060005b895181101561124b57600061086b8b838151811061084357610842611bf1565b5b602002602001015184848151811061085e5761085d611bf1565b5b6020026020010151611752565b90508060018151811061088157610880611bf1565b5b60200260200101518660028151811061089d5761089c611bf1565b5b602002602001015160008054906101000a900473ffffffffffffffffffffffffffffffffffffffff1673ffffffffffffffffffffffffffffffffffffffff16634c1b02c08686815181106108f4576108f3611bf1565b5b60200260200101516040518263ffffffff1660e01b81526004016109189190611c2f565b602060405180830381865afa158015610935573d6000803e3d6000fd5b505050506040513d601f19601f820116820180604052508101906109599190611f5d565b610963919061208a565b61096d919061208a565b8160008151811061098157610980611bf1565b5b60200260200101518760018151811061099d5761099c611bf1565b5b602002602001015160008054906101000a900473ffffffffffffffffffffffffffffffffffffffff1673ffffffffffffffffffffffffffffffffffffffff16630374e9458f87815181106109f4576109f3611bf1565b5b60200260200101516040518263ffffffff1660e01b8152600401610a189190611c2f565b602060405180830381865afa158015610a35573d6000803e3d6000fd5b505050506040513d601f19601f82011682018060405250810190610a599190611f5d565b610a63919061208a565b610a6d919061208a565b1115610d525760008054906101000a900473ffffffffffffffffffffffffffffffffffffffff1673ffffffffffffffffffffffffffffffffffffffff16637185d3d0848481518110610ac257610ac1611bf1565b5b60200260200101516040518263ffffffff1660e01b8152600401610ae69190611c2f565b600060405180830381600087803b158015610b0057600080fd5b505af1158015610b14573d6000803e3d6000fd5b5050505080600181518110610b2c57610b2b611bf1565b5b602002602001015186600281518110610b4857610b47611bf1565b5b602002602001015160008054906101000a900473ffffffffffffffffffffffffffffffffffffffff1673ffffffffffffffffffffffffffffffffffffffff16634c1b02c0868681518110610b9f57610b9e611bf1565b5b60200260200101516040518263ffffffff1660e01b8152600401610bc39190611c2f565b602060405180830381865afa158015610be0573d6000803e3d6000fd5b505050506040513d601f19601f82011682018060405250810190610c049190611f5d565b610c0e919061208a565b610c18919061208a565b81600081518110610c2c57610c2b611bf1565b5b602002602001015187600181518110610c4857610c47611bf1565b5b602002602001015160008054906101000a900473ffffffffffffffffffffffffffffffffffffffff1673ffffffffffffffffffffffffffffffffffffffff16630374e9458f8781518110610c9f57610c9e611bf1565b5b60200260200101516040518263ffffffff1660e01b8152600401610cc39190611c2f565b602060405180830381865afa158015610ce0573d6000803e3d6000fd5b505050506040513d601f19601f82011682018060405250810190610d049190611f5d565b610d0e919061208a565b610d18919061208a565b610d229190612125565b84600081518110610d3657610d35611bf1565b5b60200260200101818151610d4a9190611f8a565b915081815250505b80600081518110610d6657610d65611bf1565b5b602002602001015186600181518110610d8257610d81611bf1565b5b602002602001015160008054906101000a900473ffffffffffffffffffffffffffffffffffffffff1673ffffffffffffffffffffffffffffffffffffffff16634c1b02c08e8681518110610dd957610dd8611bf1565b5b60200260200101516040518263ffffffff1660e01b8152600401610dfd9190611c2f565b602060405180830381865afa158015610e1a573d6000803e3d6000fd5b505050506040513d601f19601f82011682018060405250810190610e3e9190611f5d565b610e48919061208a565b610e52919061208a565b81600181518110610e6657610e65611bf1565b5b602002602001015187600281518110610e8257610e81611bf1565b5b602002602001015160008054906101000a900473ffffffffffffffffffffffffffffffffffffffff1673ffffffffffffffffffffffffffffffffffffffff16630374e945878781518110610ed957610ed8611bf1565b5b60200260200101516040518263ffffffff1660e01b8152600401610efd9190611c2f565b602060405180830381865afa158015610f1a573d6000803e3d6000fd5b505050506040513d601f19601f82011682018060405250810190610f3e9190611f5d565b610f48919061208a565b610f52919061208a565b11156112375760008054906101000a900473ffffffffffffffffffffffffffffffffffffffff1673ffffffffffffffffffffffffffffffffffffffff16637185d3d08c8481518110610fa757610fa6611bf1565b5b60200260200101516040518263ffffffff1660e01b8152600401610fcb9190611c2f565b600060405180830381600087803b158015610fe557600080fd5b505af1158015610ff9573d6000803e3d6000fd5b505050508060008151811061101157611010611bf1565b5b60200260200101518660018151811061102d5761102c611bf1565b5b602002602001015160008054906101000a900473ffffffffffffffffffffffffffffffffffffffff1673ffffffffffffffffffffffffffffffffffffffff16634c1b02c08e868151811061108457611083611bf1565b5b60200260200101516040518263ffffffff1660e01b81526004016110a89190611c2f565b602060405180830381865afa1580156110c5573d6000803e3d6000fd5b505050506040513d601f19601f820116820180604052508101906110e99190611f5d565b6110f3919061208a565b6110fd919061208a565b8160018151811061111157611110611bf1565b5b60200260200101518760028151811061112d5761112c611bf1565b5b602002602001015160008054906101000a900473ffffffffffffffffffffffffffffffffffffffff1673ffffffffffffffffffffffffffffffffffffffff16630374e94587878151811061118457611183611bf1565b5b60200260200101516040518263ffffffff1660e01b81526004016111a89190611c2f565b602060405180830381865afa1580156111c5573d6000803e3d6000fd5b505050506040513d601f19601f820116820180604052508101906111e99190611f5d565b6111f3919061208a565b6111fd919061208a565b6112079190612125565b8460018151811061121b5761121a611bf1565b5b6020026020010181815161122f9190611f8a565b915081815250505b50808061124390611d81565b915050610822565b50816001815181106112605761125f611bf1565b5b60200260200101518260008151811061127c5761127b611bf1565b5b602002602001015111156114b257600160009054906101000a900473ffffffffffffffffffffffffffffffffffffffff1673ffffffffffffffffffffffffffffffffffffffff166323b872dd843360646009876001815181106112e2576112e1611bf1565b5b6020026020010151886000815181106112fe576112fd611bf1565b5b60200260200101516113109190612125565b61131a919061208a565b6113249190612059565b6040518463ffffffff1660e01b815260040161134293929190612159565b6020604051808303816000875af1158015611361573d6000803e3d6000fd5b505050506040513d601f19601f8201168201806040525081019061138591906121c8565b50600160009054906101000a900473ffffffffffffffffffffffffffffffffffffffff1673ffffffffffffffffffffffffffffffffffffffff166323b872dd84306064866001815181106113dc576113db611bf1565b5b6020026020010151876000815181106113f8576113f7611bf1565b5b602002602001015161140a9190612125565b6114149190612059565b6040518463ffffffff1660e01b815260040161143293929190612159565b6020604051808303816000875af1158015611451573d6000803e3d6000fd5b505050506040513d601f19601f8201168201806040525081019061147591906121c8565b507fc327f266ce66a48c81ecb6aaa72a2d5d206e2c718553492115f577607e737172336040516114a591906120db565b60405180910390a1611746565b816001815181106114c6576114c5611bf1565b5b6020026020010151826000815181106114e2576114e1611bf1565b5b6020026020010151101561171857600160009054906101000a900473ffffffffffffffffffffffffffffffffffffffff1673ffffffffffffffffffffffffffffffffffffffff166323b872dd3385606460098760008151811061154857611547611bf1565b5b60200260200101518860018151811061156457611563611bf1565b5b60200260200101516115769190612125565b611580919061208a565b61158a9190612059565b6040518463ffffffff1660e01b81526004016115a893929190612159565b6020604051808303816000875af11580156115c7573d6000803e3d6000fd5b505050506040513d601f19601f820116820180604052508101906115eb91906121c8565b50600160009054906101000a900473ffffffffffffffffffffffffffffffffffffffff1673ffffffffffffffffffffffffffffffffffffffff166323b872dd333060648660008151811061164257611641611bf1565b5b60200260200101518760018151811061165e5761165d611bf1565b5b60200260200101516116709190612125565b61167a9190612059565b6040518463ffffffff1660e01b815260040161169893929190612159565b6020604051808303816000875af11580156116b7573d6000803e3d6000fd5b505050506040513d601f19601f820116820180604052508101906116db91906121c8565b507fc327f266ce66a48c81ecb6aaa72a2d5d206e2c718553492115f577607e7371728360405161170b91906120db565b60405180910390a1611745565b7fbe30ad4e920913a948cd1d58cf5fb2a1d35b358b9c9c797257b742e51643f06e60405160405180910390a15b5b5050505b505050505050565b60606000600267ffffffffffffffff81111561177157611770611a2f565b5b60405190808252806020026020018201604052801561179f5781602001602082028036833780820191505090505b509050600a816000815181106117b8576117b7611bf1565b5b602002602001018181525050600a816001815181106117da576117d9611bf1565b5b60200260200101818152505060008054906101000a900473ffffffffffffffffffffffffffffffffffffffff1673ffffffffffffffffffffffffffffffffffffffff16638fbeff2385856040518363ffffffff1660e01b81526004016118419291906121f5565b602060405180830381865afa15801561185e573d6000803e3d6000fd5b505050506040513d601f19601f8201168201806040525081019061188291906121c8565b156118bd5760018160008151811061189d5761189c611bf1565b5b602002602001018181516118b19190611f8a565b91508181525050611991565b60008054906101000a900473ffffffffffffffffffffffffffffffffffffffff1673ffffffffffffffffffffffffffffffffffffffff16638fbeff2384866040518363ffffffff1660e01b81526004016119189291906121f5565b602060405180830381865afa158015611935573d6000803e3d6000fd5b505050506040513d601f19601f8201168201806040525081019061195991906121c8565b156119905760018160018151811061197457611973611bf1565b5b602002602001018181516119889190611f8a565b915081815250505b5b8091505092915050565b8280548282559060005260206000209081019282156119d7579160200282015b828111156119d65782518255916020019190600101906119bb565b5b5090506119e491906119e8565b5090565b5b80821115611a015760008160009055506001016119e9565b5090565b6000604051905090565b600080fd5b600080fd5b600080fd5b6000601f19601f8301169050919050565b7f4e487b7100000000000000000000000000000000000000000000000000000000600052604160045260246000fd5b611a6782611a1e565b810181811067ffffffffffffffff82111715611a8657611a85611a2f565b5b80604052505050565b6000611a99611a05565b9050611aa58282611a5e565b919050565b600067ffffffffffffffff821115611ac557611ac4611a2f565b5b602082029050602081019050919050565b600080fd5b6000819050919050565b611aee81611adb565b8114611af957600080fd5b50565b600081359050611b0b81611ae5565b92915050565b6000611b24611b1f84611aaa565b611a8f565b90508083825260208201905060208402830185811115611b4757611b46611ad6565b5b835b81811015611b705780611b5c8882611afc565b845260208401935050602081019050611b49565b5050509392505050565b600082601f830112611b8f57611b8e611a19565b5b8135611b9f848260208601611b11565b91505092915050565b600060208284031215611bbe57611bbd611a0f565b5b600082013567ffffffffffffffff811115611bdc57611bdb611a14565b5b611be884828501611b7a565b91505092915050565b7f4e487b7100000000000000000000000000000000000000000000000000000000600052603260045260246000fd5b611c2981611adb565b82525050565b6000602082019050611c446000830184611c20565b92915050565b600073ffffffffffffffffffffffffffffffffffffffff82169050919050565b6000611c7582611c4a565b9050919050565b611c8581611c6a565b8114611c9057600080fd5b50565b600081519050611ca281611c7c565b92915050565b600060208284031215611cbe57611cbd611a0f565b5b6000611ccc84828501611c93565b91505092915050565b600082825260208201905092915050565b7f426561737420646f6573206e6f742062656c6f6e6720746f20706c6179657200600082015250565b6000611d1c601f83611cd5565b9150611d2782611ce6565b602082019050919050565b60006020820190508181036000830152611d4b81611d0f565b9050919050565b7f4e487b7100000000000000000000000000000000000000000000000000000000600052601160045260246000fd5b6000611d8c82611adb565b91507fffffffffffffffffffffffffffffffffffffffffffffffffffffffffffffffff8203611dbe57611dbd611d52565b5b600182019050919050565b7f546f6f206c6974746c6520636172647300000000000000000000000000000000600082015250565b6000611dff601083611cd5565b9150611e0a82611dc9565b602082019050919050565b60006020820190508181036000830152611e2e81611df2565b9050919050565b7f4e487b7100000000000000000000000000000000000000000000000000000000600052602160045260246000fd5b60028110611e7157600080fd5b50565b600081519050611e8381611e64565b92915050565b600060208284031215611e9f57611e9e611a0f565b5b6000611ead84828501611e74565b91505092915050565b7f42656173742069732062726f6b656e2c20706c6561736520726570616972207460008201527f6865204265617374000000000000000000000000000000000000000000000000602082015250565b6000611f12602883611cd5565b9150611f1d82611eb6565b604082019050919050565b60006020820190508181036000830152611f4181611f05565b9050919050565b600081519050611f5781611ae5565b92915050565b600060208284031215611f7357611f72611a0f565b5b6000611f8184828501611f48565b91505092915050565b6000611f9582611adb565b9150611fa083611adb565b9250828201905080821115611fb857611fb7611d52565b5b92915050565b7f436f7374206578636565646564207468726573686f6c64000000000000000000600082015250565b6000611ff4601783611cd5565b9150611fff82611fbe565b602082019050919050565b6000602082019050818103600083015261202381611fe7565b9050919050565b7f4e487b7100000000000000000000000000000000000000000000000000000000600052601260045260246000fd5b600061206482611adb565b915061206f83611adb565b92508261207f5761207e61202a565b5b828204905092915050565b600061209582611adb565b91506120a083611adb565b92508282026120ae81611adb565b915082820484148315176120c5576120c4611d52565b5b5092915050565b6120d581611c6a565b82525050565b60006020820190506120f060008301846120cc565b92915050565b7f4e487b7100000000000000000000000000000000000000000000000000000000600052603160045260246000fd5b600061213082611adb565b915061213b83611adb565b925082820390508181111561215357612152611d52565b5b92915050565b600060608201905061216e60008301866120cc565b61217b60208301856120cc565b6121886040830184611c20565b949350505050565b60008115159050919050565b6121a581612190565b81146121b057600080fd5b50565b6000815190506121c28161219c565b92915050565b6000602082840312156121de576121dd611a0f565b5b60006121ec848285016121b3565b91505092915050565b600060408201905061220a6000830185611c20565b6122176020830184611c20565b939250505056fea26469706673582212208a660389e03c4a646f6822fea5194a872e594419478a0920e13efb86565b0c1064736f6c63430008120033",
  "immutableReferences": {},
  "source": "// SPDX-License-Identifier: MIT\npragma solidity ^0.8.2;\n\nimport \"./BeastCard.sol\";\n\ncontract Fight {\n    BeastCard cardContract;\n    Gem gemContract;\n    // MMR mmrContract;\n    address[] matchmakingQueue; \n\n    constructor(Gem gemAddress, BeastCard cardAddress) {\n        cardContract = cardAddress;\n        gemContract = gemAddress;\n        // mmrContract = mmrAddress;\n    }\n\n    mapping(address => uint256[]) internal _cardsOfPlayersInQueue;\n    mapping(address => uint256) internal _scale;\n    // mapping(address => uint256) internal _playerMMR;\n\n    event inQueue(address player);\n    event outcomeWin(address winner);\n    event outcomeDraw();\n\n    function fight(uint256[] memory cards) public isOwnerOfCards(cards) isCorrectNumCards(cards) cardsNotBroken(cards) {\n        // Get cost\n        uint256 cost = 0;\n        for (uint i = 0; i < cards.length; i++) {\n            cost += cardContract.costOf(cards[i]);\n        }\n        require(cost <= 65, \"Cost exceeded threshold\");\n\n        uint[] memory scales = new uint[](3);\n\n        // Default scale\n        scales[0] = 10;\n\n        // Determine the scale of MY TEAM\n        // Our algorithm to scale the team stats based on the total cost used\n        scales[1] = (((65 / cost) / 20 ) + 1) * 10;\n\n        // if (!mmrContract.exists(msg.sender)) {\n        //     // Sets the MMR for the new player\n        //     mmrContract.setNewPlayer(msg.sender); \n        // } else {\n\n        // }\n\n        if (matchmakingQueue.length == 0) {\n            // Matchmaking\n            // When nobody is in the queue to battle, join the queue\n            matchmakingQueue.push(msg.sender);\n            _cardsOfPlayersInQueue[msg.sender] = cards;\n            _scale[msg.sender] = scales[1];\n\n            emit inQueue(msg.sender);\n        } else {\n            // Battle of cards\n            // Loop through both the arrays of the cards and fight with each other in that order\n            address enemy = matchmakingQueue[0];\n            matchmakingQueue.pop();\n\n            // Enemy's scale\n            scales[2] = _scale[enemy];\n\n            // uint256 enemyMMR = _playerMMR[enemy];\n            uint256[] memory dmg = new uint256[](2);\n            uint256[] memory enemyCards = _cardsOfPlayersInQueue[enemy];\n            \n            for (uint i = 0; i < cards.length; i++) {\n                // Elemental scaling\n                uint[] memory elementalScales = getElementalScales(cards[i], enemyCards[i]);\n\n                if (cardContract.attackOf(cards[i]) * scales[1] * elementalScales[0] > cardContract.healthOf(enemyCards[i]) * scales[2] * elementalScales[1]) {\n                    // Enemy card is broken\n                    cardContract.cardDestroyed(enemyCards[i]);\n\n                    // Extra dmg \n                    dmg[0] += (cardContract.attackOf(cards[i]) * scales[1] * elementalScales[0] - cardContract.healthOf(enemyCards[i]) * scales[2] * elementalScales[1]);\n                } \n                \n                if (cardContract.attackOf(enemyCards[i]) * scales[2] * elementalScales[1] > cardContract.healthOf(cards[i]) * scales[1] * elementalScales[0]) {\n                    // My card is broken\n                    cardContract.cardDestroyed(cards[i]);\n\n                    // Extra dmg \n                    dmg[1] += (cardContract.attackOf(enemyCards[i]) * scales[2] * elementalScales[1] - cardContract.healthOf(cards[i]) * scales[1] * elementalScales[0]);\n                }\n            }\n\n            // Outcome determination\n            // Fight contract takes a commission of 10% per fight \n            // Commission goes to the developing team + a \"prize pool\" that will be disbursed to top 10 players of the season\n            // Divide by 100 to unscale the scaling effects from elemental scaling and cost scaling\n            if (dmg[0] > dmg[1]) {\n                // I win \n                // Gems transfer from loser to winner\n                gemContract.transferFrom(enemy, msg.sender, (dmg[0] - dmg[1]) * 9 / 100);\n\n                // Gems transfer from loser to Fight contract\n                gemContract.transferFrom(enemy, address(this), (dmg[0] - dmg[1]) / 100);\n                emit outcomeWin(msg.sender);\n            } else if (dmg[0] < dmg[1]) {\n                // Enemy wins\n                // Gems transfer from loser to winner\n                gemContract.transferFrom(msg.sender, enemy, (dmg[1] - dmg[0]) * 9 / 100);\n\n                // Gems transfer from loser to Fight contract\n                gemContract.transferFrom(msg.sender, address(this), (dmg[1] - dmg[0]) / 100);\n                emit outcomeWin(enemy);\n            } else {\n                // Draw\n                // No gems are being transferred anywhere\n                emit outcomeDraw();\n            }\n        }\n    }\n\n    function getElementalScales(uint256 myCard, uint256 enemyCard) internal view returns (uint[] memory) {\n            uint[] memory elementalScales = new uint[](2);\n            // Set default elementalScales for mine and enemy's \n            // 10 means 1x multiplier\n            elementalScales[0] = 10; \n            elementalScales[1] = 10;\n\n            if (cardContract.effective(myCard, enemyCard)) {\n                elementalScales[0] += 1;\n            } else if (cardContract.effective(enemyCard, myCard)) {\n                elementalScales[1] += 1;\n            }\n\n            return elementalScales;\n    }\n\n    modifier isOwnerOfCards(uint256[] memory cards) {\n        for (uint i = 0; i < cards.length; i++) {\n            // Requires all the cards to be owned by the player\n            require(cardContract.ownerOf(cards[i]) == msg.sender, \"Beast does not belong to player\");\n        }\n        _;\n    }\n\n    modifier isCorrectNumCards(uint256[] memory cards) {\n        // Require the number of cards to be exactly 5\n        require(cards.length == 5, \"Too little cards\");\n        _;\n    }\n\n    modifier cardsNotBroken(uint256[] memory cards) {\n        // Require the cards to be functional\n        for (uint i = 0; i < cards.length; i++) {\n            require(cardContract.stateOf(cards[i]) != BeastCard.cardState.broken, \"Beast is broken, please repair the Beast\");\n        }\n        _;\n    }\n}\n",
  "sourcePath": "/Users/bryanwonggy/nus/is4302placeholdername/contracts/Fight.sol",
  "compiler": {
    "name": "solc",
    "version": "0.8.18+commit.87f61d96.Emscripten.clang"
  },
  "schemaVersion": "3.4.11",
  "updatedAt": "2023-03-24T14:57:29.270Z",
  "networkType": "ethereum",
  "devdoc": {
    "kind": "dev",
    "methods": {},
    "version": 1
  },
  "userdoc": {
    "kind": "user",
    "methods": {},
    "version": 1
  }
}