{
  "contractName": "Fight",
  "abi": [
    {
      "inputs": [
        {
          "internalType": "contract Gem",
          "name": "gemAddress",
          "type": "address"
        },
        {
          "internalType": "contract BeastCard",
          "name": "cardAddress",
          "type": "address"
        },
        {
          "internalType": "contract MMR",
          "name": "mmrAddress",
          "type": "address"
        }
      ],
      "stateMutability": "nonpayable",
      "type": "constructor"
    },
    {
      "anonymous": false,
      "inputs": [
        {
          "indexed": false,
          "internalType": "uint256",
          "name": "cardId",
          "type": "uint256"
        }
      ],
      "name": "cardBroken",
      "type": "event"
    },
    {
      "anonymous": false,
      "inputs": [
        {
          "indexed": false,
          "internalType": "uint256",
          "name": "diff",
          "type": "uint256"
        }
      ],
      "name": "damageDifference",
      "type": "event"
    },
    {
      "anonymous": false,
      "inputs": [
        {
          "indexed": false,
          "internalType": "address",
          "name": "player",
          "type": "address"
        }
      ],
      "name": "inQueue",
      "type": "event"
    },
    {
      "anonymous": false,
      "inputs": [],
      "name": "outcomeDraw",
      "type": "event"
    },
    {
      "anonymous": false,
      "inputs": [
        {
          "indexed": false,
          "internalType": "address",
          "name": "winner",
          "type": "address"
        }
      ],
      "name": "outcomeWin",
      "type": "event"
    },
    {
      "inputs": [
        {
          "internalType": "uint256[]",
          "name": "cards",
          "type": "uint256[]"
        }
      ],
      "name": "fight",
      "outputs": [],
      "stateMutability": "nonpayable",
      "type": "function"
    }
  ],
  "bytecode": "0x60806040523480156200001157600080fd5b50604051620028bc380380620028bc83398181016040528101906200003791906200020a565b816000806101000a81548173ffffffffffffffffffffffffffffffffffffffff021916908373ffffffffffffffffffffffffffffffffffffffff16021790555082600160006101000a81548173ffffffffffffffffffffffffffffffffffffffff021916908373ffffffffffffffffffffffffffffffffffffffff16021790555080600260006101000a81548173ffffffffffffffffffffffffffffffffffffffff021916908373ffffffffffffffffffffffffffffffffffffffff16021790555050505062000266565b600080fd5b600073ffffffffffffffffffffffffffffffffffffffff82169050919050565b6000620001348262000107565b9050919050565b6000620001488262000127565b9050919050565b6200015a816200013b565b81146200016657600080fd5b50565b6000815190506200017a816200014f565b92915050565b60006200018d8262000127565b9050919050565b6200019f8162000180565b8114620001ab57600080fd5b50565b600081519050620001bf8162000194565b92915050565b6000620001d28262000127565b9050919050565b620001e481620001c5565b8114620001f057600080fd5b50565b6000815190506200020481620001d9565b92915050565b60008060006060848603121562000226576200022562000102565b5b6000620002368682870162000169565b93505060206200024986828701620001ae565b92505060406200025c86828701620001f3565b9150509250925092565b61264680620002766000396000f3fe608060405234801561001057600080fd5b506004361061002b5760003560e01c8063d5bb430014610030575b600080fd5b61004a60048036038101906100459190611f71565b61004c565b005b8060005b815181101561018d573373ffffffffffffffffffffffffffffffffffffffff1660008054906101000a900473ffffffffffffffffffffffffffffffffffffffff1673ffffffffffffffffffffffffffffffffffffffff16636352211e8484815181106100bf576100be611fba565b5b60200260200101516040518263ffffffff1660e01b81526004016100e39190611ff8565b602060405180830381865afa158015610100573d6000803e3d6000fd5b505050506040513d601f19601f820116820180604052508101906101249190612071565b73ffffffffffffffffffffffffffffffffffffffff161461017a576040517f08c379a0000000000000000000000000000000000000000000000000000000008152600401610171906120fb565b60405180910390fd5b80806101859061214a565b915050610050565b508160058151146101d3576040517f08c379a00000000000000000000000000000000000000000000000000000000081526004016101ca906121de565b60405180910390fd5b8260005b815181101561030d57600060018111156101f4576101f36121fe565b5b60008054906101000a900473ffffffffffffffffffffffffffffffffffffffff1673ffffffffffffffffffffffffffffffffffffffff1663131a7e2484848151811061024357610242611fba565b5b60200260200101516040518263ffffffff1660e01b81526004016102679190611ff8565b602060405180830381865afa158015610284573d6000803e3d6000fd5b505050506040513d601f19601f820116820180604052508101906102a89190612252565b60018111156102ba576102b96121fe565b5b036102fa576040517f08c379a00000000000000000000000000000000000000000000000000000000081526004016102f1906122f1565b60405180910390fd5b80806103059061214a565b9150506101d7565b506000805b85518110156103ef5760008054906101000a900473ffffffffffffffffffffffffffffffffffffffff1673ffffffffffffffffffffffffffffffffffffffff1663fd32659287838151811061036a57610369611fba565b5b60200260200101516040518263ffffffff1660e01b815260040161038e9190611ff8565b602060405180830381865afa1580156103ab573d6000803e3d6000fd5b505050506040513d601f19601f820116820180604052508101906103cf9190612326565b826103da9190612353565b915080806103e79061214a565b915050610312565b506041811115610434576040517f08c379a000000000000000000000000000000000000000000000000000000000815260040161042b906123d3565b60405180910390fd5b6000600367ffffffffffffffff81111561045157610450611df8565b5b60405190808252806020026020018201604052801561047f5781602001602082028036833780820191505090505b509050600a8160008151811061049857610497611fba565b5b602002602001018181525050600a808360416104b491906123f3565b6104be9190612456565b6104c89190612353565b816001815181106104dc576104db611fba565b5b602002602001018181525050600060038054905003610647576003339080600181540180825580915050600190039060005260206000200160009091909190916101000a81548173ffffffffffffffffffffffffffffffffffffffff021916908373ffffffffffffffffffffffffffffffffffffffff16021790555085600460003373ffffffffffffffffffffffffffffffffffffffff1673ffffffffffffffffffffffffffffffffffffffff16815260200190815260200160002090805190602001906105ab929190611d64565b50806001815181106105c0576105bf611fba565b5b6020026020010151600560003373ffffffffffffffffffffffffffffffffffffffff1673ffffffffffffffffffffffffffffffffffffffff168152602001908152602001600020819055507f07c579022c954befe6934cb25f93711633ed49c0c382d7adab0fb88a5a6b20a43360405161063a9190612496565b60405180910390a1611b13565b6000600360008154811061065e5761065d611fba565b5b9060005260206000200160009054906101000a900473ffffffffffffffffffffffffffffffffffffffff169050600380548061069d5761069c6124b1565b5b6001900381819060005260206000200160006101000a81549073ffffffffffffffffffffffffffffffffffffffff02191690559055600560008273ffffffffffffffffffffffffffffffffffffffff1673ffffffffffffffffffffffffffffffffffffffff168152602001908152602001600020548260028151811061072657610725611fba565b5b6020026020010181815250506000600267ffffffffffffffff81111561074f5761074e611df8565b5b60405190808252806020026020018201604052801561077d5781602001602082028036833780820191505090505b5090506000600460008473ffffffffffffffffffffffffffffffffffffffff1673ffffffffffffffffffffffffffffffffffffffff16815260200190815260200160002080548060200260200160405190810160405280929190818152602001828054801561080b57602002820191906000526020600020905b8154815260200190600101908083116107f7575b5050505050905060005b89518110156112e057600061085e8b838151811061083657610835611fba565b5b602002602001015184848151811061085157610850611fba565b5b6020026020010151611b1b565b90508060018151811061087457610873611fba565b5b6020026020010151866002815181106108905761088f611fba565b5b602002602001015160008054906101000a900473ffffffffffffffffffffffffffffffffffffffff1673ffffffffffffffffffffffffffffffffffffffff16634c1b02c08686815181106108e7576108e6611fba565b5b60200260200101516040518263ffffffff1660e01b815260040161090b9190611ff8565b602060405180830381865afa158015610928573d6000803e3d6000fd5b505050506040513d601f19601f8201168201806040525081019061094c9190612326565b61095691906124e0565b61096091906124e0565b8160008151811061097457610973611fba565b5b6020026020010151876001815181106109905761098f611fba565b5b602002602001015160008054906101000a900473ffffffffffffffffffffffffffffffffffffffff1673ffffffffffffffffffffffffffffffffffffffff16630374e9458f87815181106109e7576109e6611fba565b5b60200260200101516040518263ffffffff1660e01b8152600401610a0b9190611ff8565b602060405180830381865afa158015610a28573d6000803e3d6000fd5b505050506040513d601f19601f82011682018060405250810190610a4c9190612326565b610a5691906124e0565b610a6091906124e0565b1115610d965760008054906101000a900473ffffffffffffffffffffffffffffffffffffffff1673ffffffffffffffffffffffffffffffffffffffff16637185d3d0848481518110610ab557610ab4611fba565b5b60200260200101516040518263ffffffff1660e01b8152600401610ad99190611ff8565b600060405180830381600087803b158015610af357600080fd5b505af1158015610b07573d6000803e3d6000fd5b505050507f7c4ff25964faf9eb322d7aa2286d5dd9661a346030d0c37fc39e4688b99ea757838381518110610b3f57610b3e611fba565b5b6020026020010151604051610b549190611ff8565b60405180910390a180600181518110610b7057610b6f611fba565b5b602002602001015186600281518110610b8c57610b8b611fba565b5b602002602001015160008054906101000a900473ffffffffffffffffffffffffffffffffffffffff1673ffffffffffffffffffffffffffffffffffffffff16634c1b02c0868681518110610be357610be2611fba565b5b60200260200101516040518263ffffffff1660e01b8152600401610c079190611ff8565b602060405180830381865afa158015610c24573d6000803e3d6000fd5b505050506040513d601f19601f82011682018060405250810190610c489190612326565b610c5291906124e0565b610c5c91906124e0565b81600081518110610c7057610c6f611fba565b5b602002602001015187600181518110610c8c57610c8b611fba565b5b602002602001015160008054906101000a900473ffffffffffffffffffffffffffffffffffffffff1673ffffffffffffffffffffffffffffffffffffffff16630374e9458f8781518110610ce357610ce2611fba565b5b60200260200101516040518263ffffffff1660e01b8152600401610d079190611ff8565b602060405180830381865afa158015610d24573d6000803e3d6000fd5b505050506040513d601f19601f82011682018060405250810190610d489190612326565b610d5291906124e0565b610d5c91906124e0565b610d6691906123f3565b84600081518110610d7a57610d79611fba565b5b60200260200101818151610d8e9190612353565b915081815250505b80600081518110610daa57610da9611fba565b5b602002602001015186600181518110610dc657610dc5611fba565b5b602002602001015160008054906101000a900473ffffffffffffffffffffffffffffffffffffffff1673ffffffffffffffffffffffffffffffffffffffff16634c1b02c08e8681518110610e1d57610e1c611fba565b5b60200260200101516040518263ffffffff1660e01b8152600401610e419190611ff8565b602060405180830381865afa158015610e5e573d6000803e3d6000fd5b505050506040513d601f19601f82011682018060405250810190610e829190612326565b610e8c91906124e0565b610e9691906124e0565b81600181518110610eaa57610ea9611fba565b5b602002602001015187600281518110610ec657610ec5611fba565b5b602002602001015160008054906101000a900473ffffffffffffffffffffffffffffffffffffffff1673ffffffffffffffffffffffffffffffffffffffff16630374e945878781518110610f1d57610f1c611fba565b5b60200260200101516040518263ffffffff1660e01b8152600401610f419190611ff8565b602060405180830381865afa158015610f5e573d6000803e3d6000fd5b505050506040513d601f19601f82011682018060405250810190610f829190612326565b610f8c91906124e0565b610f9691906124e0565b11156112cc5760008054906101000a900473ffffffffffffffffffffffffffffffffffffffff1673ffffffffffffffffffffffffffffffffffffffff16637185d3d08c8481518110610feb57610fea611fba565b5b60200260200101516040518263ffffffff1660e01b815260040161100f9190611ff8565b600060405180830381600087803b15801561102957600080fd5b505af115801561103d573d6000803e3d6000fd5b505050507f7c4ff25964faf9eb322d7aa2286d5dd9661a346030d0c37fc39e4688b99ea7578b838151811061107557611074611fba565b5b602002602001015160405161108a9190611ff8565b60405180910390a1806000815181106110a6576110a5611fba565b5b6020026020010151866001815181106110c2576110c1611fba565b5b602002602001015160008054906101000a900473ffffffffffffffffffffffffffffffffffffffff1673ffffffffffffffffffffffffffffffffffffffff16634c1b02c08e868151811061111957611118611fba565b5b60200260200101516040518263ffffffff1660e01b815260040161113d9190611ff8565b602060405180830381865afa15801561115a573d6000803e3d6000fd5b505050506040513d601f19601f8201168201806040525081019061117e9190612326565b61118891906124e0565b61119291906124e0565b816001815181106111a6576111a5611fba565b5b6020026020010151876002815181106111c2576111c1611fba565b5b602002602001015160008054906101000a900473ffffffffffffffffffffffffffffffffffffffff1673ffffffffffffffffffffffffffffffffffffffff16630374e94587878151811061121957611218611fba565b5b60200260200101516040518263ffffffff1660e01b815260040161123d9190611ff8565b602060405180830381865afa15801561125a573d6000803e3d6000fd5b505050506040513d601f19601f8201168201806040525081019061127e9190612326565b61128891906124e0565b61129291906124e0565b61129c91906123f3565b846001815181106112b0576112af611fba565b5b602002602001018181516112c49190612353565b915081815250505b5080806112d89061214a565b915050610815565b50600260009054906101000a900473ffffffffffffffffffffffffffffffffffffffff1673ffffffffffffffffffffffffffffffffffffffff16630639f3ce846040518263ffffffff1660e01b815260040161133c9190612496565b602060405180830381865afa158015611359573d6000803e3d6000fd5b505050506040513d601f19601f8201168201806040525081019061137d919061255a565b1561141057600260009054906101000a900473ffffffffffffffffffffffffffffffffffffffff1673ffffffffffffffffffffffffffffffffffffffff1663f31defcb846040518263ffffffff1660e01b81526004016113dd9190612496565b600060405180830381600087803b1580156113f757600080fd5b505af115801561140b573d6000803e3d6000fd5b505050505b600260009054906101000a900473ffffffffffffffffffffffffffffffffffffffff1673ffffffffffffffffffffffffffffffffffffffff16630639f3ce336040518263ffffffff1660e01b815260040161146b9190612496565b602060405180830381865afa158015611488573d6000803e3d6000fd5b505050506040513d601f19601f820116820180604052508101906114ac919061255a565b1561153f57600260009054906101000a900473ffffffffffffffffffffffffffffffffffffffff1673ffffffffffffffffffffffffffffffffffffffff1663f31defcb336040518263ffffffff1660e01b815260040161150c9190612496565b600060405180830381600087803b15801561152657600080fd5b505af115801561153a573d6000803e3d6000fd5b505050505b8160018151811061155357611552611fba565b5b60200260200101518260008151811061156f5761156e611fba565b5b6020026020010151111561181057600260009054906101000a900473ffffffffffffffffffffffffffffffffffffffff1673ffffffffffffffffffffffffffffffffffffffff16633f36827933856040518363ffffffff1660e01b81526004016115da929190612587565b600060405180830381600087803b1580156115f457600080fd5b505af1158015611608573d6000803e3d6000fd5b50505050600160009054906101000a900473ffffffffffffffffffffffffffffffffffffffff1673ffffffffffffffffffffffffffffffffffffffff16632a73ac1f8433606460098760018151811061166457611663611fba565b5b6020026020010151886000815181106116805761167f611fba565b5b602002602001015161169291906123f3565b61169c91906124e0565b6116a69190612456565b6040518463ffffffff1660e01b81526004016116c4939291906125b0565b600060405180830381600087803b1580156116de57600080fd5b505af11580156116f2573d6000803e3d6000fd5b50505050600160009054906101000a900473ffffffffffffffffffffffffffffffffffffffff1673ffffffffffffffffffffffffffffffffffffffff16632a73ac1f843060648660018151811061174c5761174b611fba565b5b60200260200101518760008151811061176857611767611fba565b5b602002602001015161177a91906123f3565b6117849190612456565b6040518463ffffffff1660e01b81526004016117a2939291906125b0565b600060405180830381600087803b1580156117bc57600080fd5b505af11580156117d0573d6000803e3d6000fd5b505050507fc327f266ce66a48c81ecb6aaa72a2d5d206e2c718553492115f577607e737172336040516118039190612496565b60405180910390a1611b0f565b8160018151811061182457611823611fba565b5b6020026020010151826000815181106118405761183f611fba565b5b60200260200101511015611ae157600260009054906101000a900473ffffffffffffffffffffffffffffffffffffffff1673ffffffffffffffffffffffffffffffffffffffff16633f36827984336040518363ffffffff1660e01b81526004016118ab929190612587565b600060405180830381600087803b1580156118c557600080fd5b505af11580156118d9573d6000803e3d6000fd5b50505050600160009054906101000a900473ffffffffffffffffffffffffffffffffffffffff1673ffffffffffffffffffffffffffffffffffffffff16632a73ac1f3385606460098760008151811061193557611934611fba565b5b60200260200101518860018151811061195157611950611fba565b5b602002602001015161196391906123f3565b61196d91906124e0565b6119779190612456565b6040518463ffffffff1660e01b8152600401611995939291906125b0565b600060405180830381600087803b1580156119af57600080fd5b505af11580156119c3573d6000803e3d6000fd5b50505050600160009054906101000a900473ffffffffffffffffffffffffffffffffffffffff1673ffffffffffffffffffffffffffffffffffffffff16632a73ac1f3330606486600081518110611a1d57611a1c611fba565b5b602002602001015187600181518110611a3957611a38611fba565b5b6020026020010151611a4b91906123f3565b611a559190612456565b6040518463ffffffff1660e01b8152600401611a73939291906125b0565b600060405180830381600087803b158015611a8d57600080fd5b505af1158015611aa1573d6000803e3d6000fd5b505050507fc327f266ce66a48c81ecb6aaa72a2d5d206e2c718553492115f577607e73717283604051611ad49190612496565b60405180910390a1611b0e565b7fbe30ad4e920913a948cd1d58cf5fb2a1d35b358b9c9c797257b742e51643f06e60405160405180910390a15b5b5050505b505050505050565b60606000600267ffffffffffffffff811115611b3a57611b39611df8565b5b604051908082528060200260200182016040528015611b685781602001602082028036833780820191505090505b509050600a81600081518110611b8157611b80611fba565b5b602002602001018181525050600a81600181518110611ba357611ba2611fba565b5b60200260200101818152505060008054906101000a900473ffffffffffffffffffffffffffffffffffffffff1673ffffffffffffffffffffffffffffffffffffffff16638fbeff2385856040518363ffffffff1660e01b8152600401611c0a9291906125e7565b602060405180830381865afa158015611c27573d6000803e3d6000fd5b505050506040513d601f19601f82011682018060405250810190611c4b919061255a565b15611c8657600181600081518110611c6657611c65611fba565b5b60200260200101818151611c7a9190612353565b91508181525050611d5a565b60008054906101000a900473ffffffffffffffffffffffffffffffffffffffff1673ffffffffffffffffffffffffffffffffffffffff16638fbeff2384866040518363ffffffff1660e01b8152600401611ce19291906125e7565b602060405180830381865afa158015611cfe573d6000803e3d6000fd5b505050506040513d601f19601f82011682018060405250810190611d22919061255a565b15611d5957600181600181518110611d3d57611d3c611fba565b5b60200260200101818151611d519190612353565b915081815250505b5b8091505092915050565b828054828255906000526020600020908101928215611da0579160200282015b82811115611d9f578251825591602001919060010190611d84565b5b509050611dad9190611db1565b5090565b5b80821115611dca576000816000905550600101611db2565b5090565b6000604051905090565b600080fd5b600080fd5b600080fd5b6000601f19601f8301169050919050565b7f4e487b7100000000000000000000000000000000000000000000000000000000600052604160045260246000fd5b611e3082611de7565b810181811067ffffffffffffffff82111715611e4f57611e4e611df8565b5b80604052505050565b6000611e62611dce565b9050611e6e8282611e27565b919050565b600067ffffffffffffffff821115611e8e57611e8d611df8565b5b602082029050602081019050919050565b600080fd5b6000819050919050565b611eb781611ea4565b8114611ec257600080fd5b50565b600081359050611ed481611eae565b92915050565b6000611eed611ee884611e73565b611e58565b90508083825260208201905060208402830185811115611f1057611f0f611e9f565b5b835b81811015611f395780611f258882611ec5565b845260208401935050602081019050611f12565b5050509392505050565b600082601f830112611f5857611f57611de2565b5b8135611f68848260208601611eda565b91505092915050565b600060208284031215611f8757611f86611dd8565b5b600082013567ffffffffffffffff811115611fa557611fa4611ddd565b5b611fb184828501611f43565b91505092915050565b7f4e487b7100000000000000000000000000000000000000000000000000000000600052603260045260246000fd5b611ff281611ea4565b82525050565b600060208201905061200d6000830184611fe9565b92915050565b600073ffffffffffffffffffffffffffffffffffffffff82169050919050565b600061203e82612013565b9050919050565b61204e81612033565b811461205957600080fd5b50565b60008151905061206b81612045565b92915050565b60006020828403121561208757612086611dd8565b5b60006120958482850161205c565b91505092915050565b600082825260208201905092915050565b7f426561737420646f6573206e6f742062656c6f6e6720746f20706c6179657200600082015250565b60006120e5601f8361209e565b91506120f0826120af565b602082019050919050565b60006020820190508181036000830152612114816120d8565b9050919050565b7f4e487b7100000000000000000000000000000000000000000000000000000000600052601160045260246000fd5b600061215582611ea4565b91507fffffffffffffffffffffffffffffffffffffffffffffffffffffffffffffffff82036121875761218661211b565b5b600182019050919050565b7f546f6f206c6974746c6520636172647300000000000000000000000000000000600082015250565b60006121c860108361209e565b91506121d382612192565b602082019050919050565b600060208201905081810360008301526121f7816121bb565b9050919050565b7f4e487b7100000000000000000000000000000000000000000000000000000000600052602160045260246000fd5b6002811061223a57600080fd5b50565b60008151905061224c8161222d565b92915050565b60006020828403121561226857612267611dd8565b5b60006122768482850161223d565b91505092915050565b7f42656173742069732062726f6b656e2c20706c6561736520726570616972207460008201527f6865204265617374000000000000000000000000000000000000000000000000602082015250565b60006122db60288361209e565b91506122e68261227f565b604082019050919050565b6000602082019050818103600083015261230a816122ce565b9050919050565b60008151905061232081611eae565b92915050565b60006020828403121561233c5761233b611dd8565b5b600061234a84828501612311565b91505092915050565b600061235e82611ea4565b915061236983611ea4565b92508282019050808211156123815761238061211b565b5b92915050565b7f436f7374206578636565646564207468726573686f6c64000000000000000000600082015250565b60006123bd60178361209e565b91506123c882612387565b602082019050919050565b600060208201905081810360008301526123ec816123b0565b9050919050565b60006123fe82611ea4565b915061240983611ea4565b92508282039050818111156124215761242061211b565b5b92915050565b7f4e487b7100000000000000000000000000000000000000000000000000000000600052601260045260246000fd5b600061246182611ea4565b915061246c83611ea4565b92508261247c5761247b612427565b5b828204905092915050565b61249081612033565b82525050565b60006020820190506124ab6000830184612487565b92915050565b7f4e487b7100000000000000000000000000000000000000000000000000000000600052603160045260246000fd5b60006124eb82611ea4565b91506124f683611ea4565b925082820261250481611ea4565b9150828204841483151761251b5761251a61211b565b5b5092915050565b60008115159050919050565b61253781612522565b811461254257600080fd5b50565b6000815190506125548161252e565b92915050565b6000602082840312156125705761256f611dd8565b5b600061257e84828501612545565b91505092915050565b600060408201905061259c6000830185612487565b6125a96020830184612487565b9392505050565b60006060820190506125c56000830186612487565b6125d26020830185612487565b6125df6040830184611fe9565b949350505050565b60006040820190506125fc6000830185611fe9565b6126096020830184611fe9565b939250505056fea2646970667358221220747c210103e80ff4d086a9e50a5f8e890563e953f53d5872e755c3341ea5e6a464736f6c63430008120033",
  "immutableReferences": {},
  "source": "// SPDX-License-Identifier: MIT\npragma solidity ^0.8.17;\n\nimport \"./Gem.sol\";\nimport \"./BeastCard.sol\";\nimport \"./MMR.sol\";\n\ncontract Fight {\n    BeastCard cardContract;\n    Gem gemContract;\n    MMR mmrContract;\n    address[] matchmakingQueue; \n\n    constructor(Gem gemAddress, BeastCard cardAddress, MMR mmrAddress) {\n        cardContract = cardAddress;\n        gemContract = gemAddress;\n        mmrContract = mmrAddress;\n    }\n\n    mapping(address => uint256[]) internal _cardsOfPlayersInQueue;\n    mapping(address => uint256) internal _scale;\n\n    event inQueue(address player);\n    event cardBroken(uint256 cardId);\n    event damageDifference(uint256 diff);\n    event outcomeWin(address winner);\n    event outcomeDraw();\n\n    // Main fight function\n    function fight(uint256[] memory cards) public isOwnerOfCards(cards) isCorrectNumCards(cards) cardsNotBroken(cards) {\n        // Get cost\n        uint256 cost = 0;\n        for (uint i = 0; i < cards.length; i++) {\n            cost += cardContract.costOf(cards[i]);\n        }\n        require(cost <= 65, \"Cost exceeded threshold\");\n\n        uint[] memory scales = new uint[](3);\n\n        // Default scale\n        scales[0] = 10;\n\n        // Determine the scale of MY TEAM\n        // Our algorithm to scale the team stats based on the total cost used\n        // scales[1] = (((65 / cost) / 20 ) + 1) * 10;\n        scales[1] = ((65 - cost) / 10) + 10;\n\n        if (matchmakingQueue.length == 0) {\n            // Matchmaking\n            // When nobody is in the queue to battle, join the queue\n            matchmakingQueue.push(msg.sender);\n            _cardsOfPlayersInQueue[msg.sender] = cards;\n            _scale[msg.sender] = scales[1];\n\n            emit inQueue(msg.sender);\n        } else {\n            // Battle of cards\n            // Loop through both the arrays of the cards and fight with each other in that order\n            address enemy = matchmakingQueue[0];\n            matchmakingQueue.pop();\n\n            // Enemy's scale\n            scales[2] = _scale[enemy];\n\n            // uint256 enemyMMR = _playerMMR[enemy];\n            uint256[] memory dmg = new uint256[](2);\n            uint256[] memory enemyCards = _cardsOfPlayersInQueue[enemy];\n            \n            for (uint i = 0; i < cards.length; i++) {\n                // Elemental scaling\n                uint[] memory elementalScales = getElementalScales(cards[i], enemyCards[i]);\n\n                if (cardContract.attackOf(cards[i]) * scales[1] * elementalScales[0] > cardContract.healthOf(enemyCards[i]) * scales[2] * elementalScales[1]) {\n                    // Enemy card is broken\n                    cardContract.cardDestroyed(enemyCards[i]);\n\n                    emit cardBroken(enemyCards[i]);\n\n                    // Extra dmg \n                    dmg[0] += (cardContract.attackOf(cards[i]) * scales[1] * elementalScales[0] - cardContract.healthOf(enemyCards[i]) * scales[2] * elementalScales[1]);\n                } \n                \n                if (cardContract.attackOf(enemyCards[i]) * scales[2] * elementalScales[1] > cardContract.healthOf(cards[i]) * scales[1] * elementalScales[0]) {\n                    // My card is broken\n                    cardContract.cardDestroyed(cards[i]);\n\n                    emit cardBroken(cards[i]);\n\n                    // Extra dmg \n                    dmg[1] += (cardContract.attackOf(enemyCards[i]) * scales[2] * elementalScales[1] - cardContract.healthOf(cards[i]) * scales[1] * elementalScales[0]);\n                }\n            }\n\n            // Initialise if they are new users\n            if (mmrContract.isNew(enemy)) {\n                mmrContract.initialiseUser(enemy);\n            }\n\n            if (mmrContract.isNew(msg.sender)) {\n                mmrContract.initialiseUser(msg.sender);\n            }\n\n            // Outcome determination\n            // Fight contract takes a commission of 10% per fight \n            // Commission goes to the developing team + a \"prize pool\" that will be disbursed to top 10 players of the season\n            // Divide by 100 to unscale the scaling effects from elemental scaling and cost scaling\n            if (dmg[0] > dmg[1]) {\n                // I win \n                mmrContract.updateMMR(msg.sender, enemy);\n\n                // Gems transfer from loser to winner\n                gemContract.transferGemsFrom(enemy, msg.sender, (dmg[0] - dmg[1]) * 9 / 100);\n\n                // Gems transfer from loser to Fight contract\n                gemContract.transferGemsFrom(enemy, address(this), (dmg[0] - dmg[1]) / 100);\n                emit outcomeWin(msg.sender);\n            } else if (dmg[0] < dmg[1]) {\n                // Enemy wins\n                mmrContract.updateMMR(enemy, msg.sender);\n\n                // Gems transfer from loser to winner\n                gemContract.transferGemsFrom(msg.sender, enemy, (dmg[1] - dmg[0]) * 9 / 100);\n\n                // Gems transfer from loser to Fight contract\n                gemContract.transferGemsFrom(msg.sender, address(this), (dmg[1] - dmg[0]) / 100);\n                emit outcomeWin(enemy);\n            } else {\n                // Draw\n                // No gems are being transferred anywhere\n                emit outcomeDraw();\n            }\n        }\n    }\n\n    function getElementalScales(uint256 myCard, uint256 enemyCard) internal view returns (uint[] memory) {\n            uint[] memory elementalScales = new uint[](2);\n            // Set default elementalScales for mine and enemy's \n            // 10 means 1x multiplier\n            elementalScales[0] = 10; \n            elementalScales[1] = 10;\n\n            if (cardContract.effective(myCard, enemyCard)) {\n                elementalScales[0] += 1;\n            } else if (cardContract.effective(enemyCard, myCard)) {\n                elementalScales[1] += 1;\n            }\n\n            return elementalScales;\n    }\n\n\n    // Modifiers\n    modifier isOwnerOfCards(uint256[] memory cards) {\n        for (uint i = 0; i < cards.length; i++) {\n            // Requires all the cards to be owned by the player\n            require(cardContract.ownerOf(cards[i]) == msg.sender, \"Beast does not belong to player\");\n        }\n        _;\n    }\n\n    modifier isCorrectNumCards(uint256[] memory cards) {\n        // Require the number of cards to be exactly 5\n        require(cards.length == 5, \"Too little cards\");\n        _;\n    }\n\n    modifier cardsNotBroken(uint256[] memory cards) {\n        // Require the cards to be functional\n        for (uint i = 0; i < cards.length; i++) {\n            require(cardContract.stateOf(cards[i]) != BeastCard.cardState.broken, \"Beast is broken, please repair the Beast\");\n        }\n        _;\n    }\n}\n",
  "sourcePath": "/Users/bryanwonggy/nus/is4302placeholdername/contracts/Fight.sol",
  "compiler": {
    "name": "solc",
    "version": "0.8.18+commit.87f61d96.Emscripten.clang"
  },
  "schemaVersion": "3.4.11",
  "updatedAt": "2023-04-07T17:21:44.538Z",
  "devdoc": {
    "kind": "dev",
    "methods": {},
    "version": 1
  },
  "userdoc": {
    "kind": "user",
    "methods": {},
    "version": 1
  }
}