{
  "contractName": "Gem",
  "abi": [
    {
      "inputs": [],
      "stateMutability": "nonpayable",
      "type": "constructor"
    },
    {
      "anonymous": false,
      "inputs": [
        {
          "indexed": true,
          "internalType": "address",
          "name": "owner",
          "type": "address"
        },
        {
          "indexed": true,
          "internalType": "address",
          "name": "spender",
          "type": "address"
        },
        {
          "indexed": false,
          "internalType": "uint256",
          "name": "value",
          "type": "uint256"
        }
      ],
      "name": "Approval",
      "type": "event"
    },
    {
      "anonymous": false,
      "inputs": [
        {
          "indexed": true,
          "internalType": "address",
          "name": "from",
          "type": "address"
        },
        {
          "indexed": true,
          "internalType": "address",
          "name": "to",
          "type": "address"
        },
        {
          "indexed": false,
          "internalType": "uint256",
          "name": "value",
          "type": "uint256"
        }
      ],
      "name": "Transfer",
      "type": "event"
    },
    {
      "inputs": [
        {
          "internalType": "address",
          "name": "account",
          "type": "address"
        },
        {
          "internalType": "uint256",
          "name": "amount",
          "type": "uint256"
        }
      ],
      "name": "_mint",
      "outputs": [],
      "stateMutability": "nonpayable",
      "type": "function"
    },
    {
      "inputs": [
        {
          "internalType": "address",
          "name": "owner",
          "type": "address"
        },
        {
          "internalType": "address",
          "name": "spender",
          "type": "address"
        }
      ],
      "name": "allowance",
      "outputs": [
        {
          "internalType": "uint256",
          "name": "",
          "type": "uint256"
        }
      ],
      "stateMutability": "view",
      "type": "function",
      "constant": true
    },
    {
      "inputs": [
        {
          "internalType": "address",
          "name": "spender",
          "type": "address"
        },
        {
          "internalType": "uint256",
          "name": "amount",
          "type": "uint256"
        }
      ],
      "name": "approve",
      "outputs": [
        {
          "internalType": "bool",
          "name": "",
          "type": "bool"
        }
      ],
      "stateMutability": "nonpayable",
      "type": "function"
    },
    {
      "inputs": [
        {
          "internalType": "address",
          "name": "account",
          "type": "address"
        }
      ],
      "name": "balanceOf",
      "outputs": [
        {
          "internalType": "uint256",
          "name": "",
          "type": "uint256"
        }
      ],
      "stateMutability": "view",
      "type": "function",
      "constant": true
    },
    {
      "inputs": [],
      "name": "decimals",
      "outputs": [
        {
          "internalType": "uint8",
          "name": "",
          "type": "uint8"
        }
      ],
      "stateMutability": "view",
      "type": "function",
      "constant": true
    },
    {
      "inputs": [
        {
          "internalType": "address",
          "name": "spender",
          "type": "address"
        },
        {
          "internalType": "uint256",
          "name": "subtractedValue",
          "type": "uint256"
        }
      ],
      "name": "decreaseAllowance",
      "outputs": [
        {
          "internalType": "bool",
          "name": "",
          "type": "bool"
        }
      ],
      "stateMutability": "nonpayable",
      "type": "function"
    },
    {
      "inputs": [
        {
          "internalType": "address",
          "name": "spender",
          "type": "address"
        },
        {
          "internalType": "uint256",
          "name": "addedValue",
          "type": "uint256"
        }
      ],
      "name": "increaseAllowance",
      "outputs": [
        {
          "internalType": "bool",
          "name": "",
          "type": "bool"
        }
      ],
      "stateMutability": "nonpayable",
      "type": "function"
    },
    {
      "inputs": [
        {
          "internalType": "address",
          "name": "account",
          "type": "address"
        },
        {
          "internalType": "uint256",
          "name": "amount",
          "type": "uint256"
        }
      ],
      "name": "mint",
      "outputs": [],
      "stateMutability": "nonpayable",
      "type": "function"
    },
    {
      "inputs": [],
      "name": "name",
      "outputs": [
        {
          "internalType": "string",
          "name": "",
          "type": "string"
        }
      ],
      "stateMutability": "view",
      "type": "function",
      "constant": true
    },
    {
      "inputs": [],
      "name": "symbol",
      "outputs": [
        {
          "internalType": "string",
          "name": "",
          "type": "string"
        }
      ],
      "stateMutability": "view",
      "type": "function",
      "constant": true
    },
    {
      "inputs": [],
      "name": "totalSupply",
      "outputs": [
        {
          "internalType": "uint256",
          "name": "",
          "type": "uint256"
        }
      ],
      "stateMutability": "view",
      "type": "function",
      "constant": true
    },
    {
      "inputs": [
        {
          "internalType": "address",
          "name": "to",
          "type": "address"
        },
        {
          "internalType": "uint256",
          "name": "amount",
          "type": "uint256"
        }
      ],
      "name": "transfer",
      "outputs": [
        {
          "internalType": "bool",
          "name": "",
          "type": "bool"
        }
      ],
      "stateMutability": "nonpayable",
      "type": "function"
    },
    {
      "inputs": [
        {
          "internalType": "address",
          "name": "from",
          "type": "address"
        },
        {
          "internalType": "address",
          "name": "to",
          "type": "address"
        },
        {
          "internalType": "uint256",
          "name": "amount",
          "type": "uint256"
        }
      ],
      "name": "transferFrom",
      "outputs": [
        {
          "internalType": "bool",
          "name": "",
          "type": "bool"
        }
      ],
      "stateMutability": "nonpayable",
      "type": "function"
    },
    {
      "inputs": [],
      "name": "getGems",
      "outputs": [],
      "stateMutability": "payable",
      "type": "function",
      "payable": true
    },
    {
      "inputs": [],
      "name": "checkGems",
      "outputs": [
        {
          "internalType": "uint256",
          "name": "",
          "type": "uint256"
        }
      ],
      "stateMutability": "view",
      "type": "function",
      "constant": true
    },
    {
      "inputs": [
        {
          "internalType": "address",
          "name": "myAdd",
          "type": "address"
        }
      ],
      "name": "checkGemsOf",
      "outputs": [
        {
          "internalType": "uint256",
          "name": "",
          "type": "uint256"
        }
      ],
      "stateMutability": "view",
      "type": "function",
      "constant": true
    },
    {
      "inputs": [
        {
          "internalType": "address",
          "name": "recipient",
          "type": "address"
        },
        {
          "internalType": "uint256",
          "name": "value",
          "type": "uint256"
        }
      ],
      "name": "transferGems",
      "outputs": [
        {
          "internalType": "bool",
          "name": "",
          "type": "bool"
        }
      ],
      "stateMutability": "nonpayable",
      "type": "function"
    },
    {
      "inputs": [
        {
          "internalType": "address",
          "name": "from",
          "type": "address"
        },
        {
          "internalType": "address",
          "name": "to",
          "type": "address"
        },
        {
          "internalType": "uint256",
          "name": "amt",
          "type": "uint256"
        }
      ],
      "name": "transferGemsFrom",
      "outputs": [],
      "stateMutability": "nonpayable",
      "type": "function"
    },
    {
      "inputs": [
        {
          "internalType": "address",
          "name": "receipt",
          "type": "address"
        },
        {
          "internalType": "uint256",
          "name": "amt",
          "type": "uint256"
        }
      ],
      "name": "giveGemApproval",
      "outputs": [],
      "stateMutability": "nonpayable",
      "type": "function"
    },
    {
      "inputs": [
        {
          "internalType": "address",
          "name": "user",
          "type": "address"
        },
        {
          "internalType": "address",
          "name": "spender",
          "type": "address"
        }
      ],
      "name": "checkGemAllowance",
      "outputs": [
        {
          "internalType": "uint256",
          "name": "",
          "type": "uint256"
        }
      ],
      "stateMutability": "view",
      "type": "function",
      "constant": true
    },
    {
      "inputs": [],
      "name": "currentGemSupply",
      "outputs": [
        {
          "internalType": "uint256",
          "name": "",
          "type": "uint256"
        }
      ],
      "stateMutability": "view",
      "type": "function",
      "constant": true
    }
  ],
  "bytecode": "0x60806040523480156200001157600080fd5b506040518060400160405280600981526020017f42454153542047454d00000000000000000000000000000000000000000000008152506040518060400160405280600381526020017f42474d000000000000000000000000000000000000000000000000000000000081525081600390816200008f919062000376565b508060049081620000a1919062000376565b50505033600760006101000a81548173ffffffffffffffffffffffffffffffffffffffff021916908373ffffffffffffffffffffffffffffffffffffffff16021790555069d3c21bcecceda10000006005819055506200045d565b600081519050919050565b7f4e487b7100000000000000000000000000000000000000000000000000000000600052604160045260246000fd5b7f4e487b7100000000000000000000000000000000000000000000000000000000600052602260045260246000fd5b600060028204905060018216806200017e57607f821691505b60208210810362000194576200019362000136565b5b50919050565b60008190508160005260206000209050919050565b60006020601f8301049050919050565b600082821b905092915050565b600060088302620001fe7fffffffffffffffffffffffffffffffffffffffffffffffffffffffffffffffff82620001bf565b6200020a8683620001bf565b95508019841693508086168417925050509392505050565b6000819050919050565b6000819050919050565b600062000257620002516200024b8462000222565b6200022c565b62000222565b9050919050565b6000819050919050565b620002738362000236565b6200028b62000282826200025e565b848454620001cc565b825550505050565b600090565b620002a262000293565b620002af81848462000268565b505050565b5b81811015620002d757620002cb60008262000298565b600181019050620002b5565b5050565b601f8211156200032657620002f0816200019a565b620002fb84620001af565b810160208510156200030b578190505b620003236200031a85620001af565b830182620002b4565b50505b505050565b600082821c905092915050565b60006200034b600019846008026200032b565b1980831691505092915050565b600062000366838362000338565b9150826002028217905092915050565b6200038182620000fc565b67ffffffffffffffff8111156200039d576200039c62000107565b5b620003a9825462000165565b620003b6828285620002db565b600060209050601f831160018114620003ee5760008415620003d9578287015190505b620003e5858262000358565b86555062000455565b601f198416620003fe866200019a565b60005b82811015620004285784890151825560018201915060208501945060208101905062000401565b8683101562000448578489015162000444601f89168262000338565b8355505b6001600288020188555050505b505050505050565b611a3b806200046d6000396000f3fe60806040526004361061012a5760003560e01c80634e6ec247116100ab5780639d900f951161006f5780639d900f95146103e55780639dcad2b614610422578063a457c2d71461044d578063a9059cbb1461048a578063dd62ed3e146104c7578063f09910e4146105045761012a565b80634e6ec247146103005780635e1c86ce146103295780636874aab91461035457806370a082311461037d57806395d89b41146103ba5761012a565b8063313ce567116100f2578063313ce56714610228578063395093511461025357806340c10f191461029057806342634f94146102b957806346ed2bcb146102c35761012a565b806306fdde031461012f578063095ea7b31461015a57806318160ddd1461019757806323b872dd146101c25780632a73ac1f146101ff575b600080fd5b34801561013b57600080fd5b50610144610541565b604051610151919061110c565b60405180910390f35b34801561016657600080fd5b50610181600480360381019061017c91906111c7565b6105d3565b60405161018e9190611222565b60405180910390f35b3480156101a357600080fd5b506101ac6105f6565b6040516101b9919061124c565b60405180910390f35b3480156101ce57600080fd5b506101e960048036038101906101e49190611267565b610600565b6040516101f69190611222565b60405180910390f35b34801561020b57600080fd5b5061022660048036038101906102219190611267565b61062f565b005b34801561023457600080fd5b5061023d6106b1565b60405161024a91906112d6565b60405180910390f35b34801561025f57600080fd5b5061027a600480360381019061027591906111c7565b6106ba565b6040516102879190611222565b60405180910390f35b34801561029c57600080fd5b506102b760048036038101906102b291906111c7565b6106f1565b005b6102c16106ff565b005b3480156102cf57600080fd5b506102ea60048036038101906102e591906112f1565b610774565b6040516102f7919061124c565b60405180910390f35b34801561030c57600080fd5b50610327600480360381019061032291906111c7565b610799565b005b34801561033557600080fd5b5061033e6108ef565b60405161034b919061124c565b60405180910390f35b34801561036057600080fd5b5061037b600480360381019061037691906111c7565b610912565b005b34801561038957600080fd5b506103a4600480360381019061039f91906112f1565b610934565b6040516103b1919061124c565b60405180910390f35b3480156103c657600080fd5b506103cf61097c565b6040516103dc919061110c565b60405180910390f35b3480156103f157600080fd5b5061040c6004803603810190610407919061131e565b610a0e565b604051610419919061124c565b60405180910390f35b34801561042e57600080fd5b50610437610a35565b604051610444919061124c565b60405180910390f35b34801561045957600080fd5b50610474600480360381019061046f91906111c7565b610a57565b6040516104819190611222565b60405180910390f35b34801561049657600080fd5b506104b160048036038101906104ac91906111c7565b610ace565b6040516104be9190611222565b60405180910390f35b3480156104d357600080fd5b506104ee60048036038101906104e9919061131e565b610af1565b6040516104fb919061124c565b60405180910390f35b34801561051057600080fd5b5061052b600480360381019061052691906111c7565b610b78565b6040516105389190611222565b60405180910390f35b6060600380546105509061138d565b80601f016020809104026020016040519081016040528092919081815260200182805461057c9061138d565b80156105c95780601f1061059e576101008083540402835291602001916105c9565b820191906000526020600020905b8154815290600101906020018083116105ac57829003601f168201915b5050505050905090565b6000806105de610b9f565b90506105eb818585610ba7565b600191505092915050565b6000600254905090565b60008061060b610b9f565b9050610618858285610d70565b610623858585610dfc565b60019150509392505050565b670de0b6b3a76400008161064391906113ed565b61064d8433610af1565b1161068d576040517f08c379a0000000000000000000000000000000000000000000000000000000008152600401610684906114a1565b60405180910390fd5b6106ab8383670de0b6b3a7640000846106a691906113ed565b610600565b50505050565b60006012905090565b6000806106c5610b9f565b90506106e68185856106d78589610af1565b6106e191906114c1565b610ba7565b600191505092915050565b6106fb8282610799565b5050565b60006103e83461070f91906113ed565b90506005548161071d6105f6565b61072791906114c1565b10610767576040517f08c379a000000000000000000000000000000000000000000000000000000000815260040161075e90611541565b60405180910390fd5b61077133826106f1565b50565b6000670de0b6b3a764000061078883610934565b6107929190611590565b9050919050565b600073ffffffffffffffffffffffffffffffffffffffff168273ffffffffffffffffffffffffffffffffffffffff1603610808576040517f08c379a00000000000000000000000000000000000000000000000000000000081526004016107ff9061160d565b60405180910390fd5b61081460008383611072565b806002600082825461082691906114c1565b92505081905550806000808473ffffffffffffffffffffffffffffffffffffffff1673ffffffffffffffffffffffffffffffffffffffff168152602001908152602001600020600082825401925050819055508173ffffffffffffffffffffffffffffffffffffffff16600073ffffffffffffffffffffffffffffffffffffffff167fddf252ad1be2c89b69c2b068fc378daa952ba7f163c4a11628f55a4df523b3ef836040516108d7919061124c565b60405180910390a36108eb60008383611077565b5050565b6000670de0b6b3a764000061090333610934565b61090d9190611590565b905090565b61092f82670de0b6b3a76400008361092a91906113ed565b6105d3565b505050565b60008060008373ffffffffffffffffffffffffffffffffffffffff1673ffffffffffffffffffffffffffffffffffffffff168152602001908152602001600020549050919050565b60606004805461098b9061138d565b80601f01602080910402602001604051908101604052809291908181526020018280546109b79061138d565b8015610a045780601f106109d957610100808354040283529160200191610a04565b820191906000526020600020905b8154815290600101906020018083116109e757829003601f168201915b5050505050905090565b6000670de0b6b3a7640000610a238484610af1565b610a2d9190611590565b905092915050565b6000670de0b6b3a7640000610a486105f6565b610a529190611590565b905090565b600080610a62610b9f565b90506000610a708286610af1565b905083811015610ab5576040517f08c379a0000000000000000000000000000000000000000000000000000000008152600401610aac9061169f565b60405180910390fd5b610ac28286868403610ba7565b60019250505092915050565b600080610ad9610b9f565b9050610ae6818585610dfc565b600191505092915050565b6000600160008473ffffffffffffffffffffffffffffffffffffffff1673ffffffffffffffffffffffffffffffffffffffff16815260200190815260200160002060008373ffffffffffffffffffffffffffffffffffffffff1673ffffffffffffffffffffffffffffffffffffffff16815260200190815260200160002054905092915050565b6000610b9783670de0b6b3a764000084610b9291906113ed565b610ace565b905092915050565b600033905090565b600073ffffffffffffffffffffffffffffffffffffffff168373ffffffffffffffffffffffffffffffffffffffff1603610c16576040517f08c379a0000000000000000000000000000000000000000000000000000000008152600401610c0d90611731565b60405180910390fd5b600073ffffffffffffffffffffffffffffffffffffffff168273ffffffffffffffffffffffffffffffffffffffff1603610c85576040517f08c379a0000000000000000000000000000000000000000000000000000000008152600401610c7c906117c3565b60405180910390fd5b80600160008573ffffffffffffffffffffffffffffffffffffffff1673ffffffffffffffffffffffffffffffffffffffff16815260200190815260200160002060008473ffffffffffffffffffffffffffffffffffffffff1673ffffffffffffffffffffffffffffffffffffffff168152602001908152602001600020819055508173ffffffffffffffffffffffffffffffffffffffff168373ffffffffffffffffffffffffffffffffffffffff167f8c5be1e5ebec7d5bd14f71427d1e84f3dd0314c0f7b2291e5b200ac8c7c3b92583604051610d63919061124c565b60405180910390a3505050565b6000610d7c8484610af1565b90507fffffffffffffffffffffffffffffffffffffffffffffffffffffffffffffffff8114610df65781811015610de8576040517f08c379a0000000000000000000000000000000000000000000000000000000008152600401610ddf9061182f565b60405180910390fd5b610df58484848403610ba7565b5b50505050565b600073ffffffffffffffffffffffffffffffffffffffff168373ffffffffffffffffffffffffffffffffffffffff1603610e6b576040517f08c379a0000000000000000000000000000000000000000000000000000000008152600401610e62906118c1565b60405180910390fd5b600073ffffffffffffffffffffffffffffffffffffffff168273ffffffffffffffffffffffffffffffffffffffff1603610eda576040517f08c379a0000000000000000000000000000000000000000000000000000000008152600401610ed190611953565b60405180910390fd5b610ee5838383611072565b60008060008573ffffffffffffffffffffffffffffffffffffffff1673ffffffffffffffffffffffffffffffffffffffff16815260200190815260200160002054905081811015610f6b576040517f08c379a0000000000000000000000000000000000000000000000000000000008152600401610f62906119e5565b60405180910390fd5b8181036000808673ffffffffffffffffffffffffffffffffffffffff1673ffffffffffffffffffffffffffffffffffffffff16815260200190815260200160002081905550816000808573ffffffffffffffffffffffffffffffffffffffff1673ffffffffffffffffffffffffffffffffffffffff168152602001908152602001600020600082825401925050819055508273ffffffffffffffffffffffffffffffffffffffff168473ffffffffffffffffffffffffffffffffffffffff167fddf252ad1be2c89b69c2b068fc378daa952ba7f163c4a11628f55a4df523b3ef84604051611059919061124c565b60405180910390a361106c848484611077565b50505050565b505050565b505050565b600081519050919050565b600082825260208201905092915050565b60005b838110156110b657808201518184015260208101905061109b565b60008484015250505050565b6000601f19601f8301169050919050565b60006110de8261107c565b6110e88185611087565b93506110f8818560208601611098565b611101816110c2565b840191505092915050565b6000602082019050818103600083015261112681846110d3565b905092915050565b600080fd5b600073ffffffffffffffffffffffffffffffffffffffff82169050919050565b600061115e82611133565b9050919050565b61116e81611153565b811461117957600080fd5b50565b60008135905061118b81611165565b92915050565b6000819050919050565b6111a481611191565b81146111af57600080fd5b50565b6000813590506111c18161119b565b92915050565b600080604083850312156111de576111dd61112e565b5b60006111ec8582860161117c565b92505060206111fd858286016111b2565b9150509250929050565b60008115159050919050565b61121c81611207565b82525050565b60006020820190506112376000830184611213565b92915050565b61124681611191565b82525050565b6000602082019050611261600083018461123d565b92915050565b6000806000606084860312156112805761127f61112e565b5b600061128e8682870161117c565b935050602061129f8682870161117c565b92505060406112b0868287016111b2565b9150509250925092565b600060ff82169050919050565b6112d0816112ba565b82525050565b60006020820190506112eb60008301846112c7565b92915050565b6000602082840312156113075761130661112e565b5b60006113158482850161117c565b91505092915050565b600080604083850312156113355761133461112e565b5b60006113438582860161117c565b92505060206113548582860161117c565b9150509250929050565b7f4e487b7100000000000000000000000000000000000000000000000000000000600052602260045260246000fd5b600060028204905060018216806113a557607f821691505b6020821081036113b8576113b761135e565b5b50919050565b7f4e487b7100000000000000000000000000000000000000000000000000000000600052601160045260246000fd5b60006113f882611191565b915061140383611191565b925082820261141181611191565b91508282048414831517611428576114276113be565b5b5092915050565b7f5761726e696e673a20596f7520617265206e6f7420616c6c6f77656420746f2060008201527f7472616e73666572210000000000000000000000000000000000000000000000602082015250565b600061148b602983611087565b91506114968261142f565b604082019050919050565b600060208201905081810360008301526114ba8161147e565b9050919050565b60006114cc82611191565b91506114d783611191565b92508282019050808211156114ef576114ee6113be565b5b92915050565b7f5761726e696e673a20496e73756666696369656e742047656d73210000000000600082015250565b600061152b601b83611087565b9150611536826114f5565b602082019050919050565b6000602082019050818103600083015261155a8161151e565b9050919050565b7f4e487b7100000000000000000000000000000000000000000000000000000000600052601260045260246000fd5b600061159b82611191565b91506115a683611191565b9250826115b6576115b5611561565b5b828204905092915050565b7f45524332303a206d696e7420746f20746865207a65726f206164647265737300600082015250565b60006115f7601f83611087565b9150611602826115c1565b602082019050919050565b60006020820190508181036000830152611626816115ea565b9050919050565b7f45524332303a2064656372656173656420616c6c6f77616e63652062656c6f7760008201527f207a65726f000000000000000000000000000000000000000000000000000000602082015250565b6000611689602583611087565b91506116948261162d565b604082019050919050565b600060208201905081810360008301526116b88161167c565b9050919050565b7f45524332303a20617070726f76652066726f6d20746865207a65726f2061646460008201527f7265737300000000000000000000000000000000000000000000000000000000602082015250565b600061171b602483611087565b9150611726826116bf565b604082019050919050565b6000602082019050818103600083015261174a8161170e565b9050919050565b7f45524332303a20617070726f766520746f20746865207a65726f20616464726560008201527f7373000000000000000000000000000000000000000000000000000000000000602082015250565b60006117ad602283611087565b91506117b882611751565b604082019050919050565b600060208201905081810360008301526117dc816117a0565b9050919050565b7f45524332303a20696e73756666696369656e7420616c6c6f77616e6365000000600082015250565b6000611819601d83611087565b9150611824826117e3565b602082019050919050565b600060208201905081810360008301526118488161180c565b9050919050565b7f45524332303a207472616e736665722066726f6d20746865207a65726f20616460008201527f6472657373000000000000000000000000000000000000000000000000000000602082015250565b60006118ab602583611087565b91506118b68261184f565b604082019050919050565b600060208201905081810360008301526118da8161189e565b9050919050565b7f45524332303a207472616e7366657220746f20746865207a65726f206164647260008201527f6573730000000000000000000000000000000000000000000000000000000000602082015250565b600061193d602383611087565b9150611948826118e1565b604082019050919050565b6000602082019050818103600083015261196c81611930565b9050919050565b7f45524332303a207472616e7366657220616d6f756e742065786365656473206260008201527f616c616e63650000000000000000000000000000000000000000000000000000602082015250565b60006119cf602683611087565b91506119da82611973565b604082019050919050565b600060208201905081810360008301526119fe816119c2565b905091905056fea26469706673582212202b17aa680d59f3e124d011f8a6edc0794bc2001a4f713ddd8020b97c4d9f152a64736f6c63430008120033",
  "immutableReferences": {},
  "source": "// SPDX-License-Identifier: MIT\npragma solidity ^0.8.18;\n\nimport \"./ERC20.sol\"; \n\ncontract Gem is ERC20(\"BEAST GEM\", \"BGM\") {\n    // ERC20 erc20Contract;\n    uint256 supplyLimit;\n    uint256 currentSupply;\n    address owner;\n    \n    constructor() {\n        // ERC20 e = new ERC20(\"Beast Gem\", \"BGM\");\n        // erc20Contract = e;\n        owner = msg.sender;\n        supplyLimit = 1000000 * 1000000000000000000;\n    }\n\n    function getGems() public payable {\n        uint256 amt = msg.value * 1000;\n        require(totalSupply() + amt < supplyLimit, \"Warning: Insufficient Gems!\");\n        // erc.mint(address account, uint256 amount);\n        mint(msg.sender, amt);\n    }\n\n    function checkGems() public view returns(uint256) {\n        return balanceOf(msg.sender) / 1000000000000000000;\n    }\n\n    function checkGemsOf(address myAdd) public view returns (uint256) {\n        return balanceOf(myAdd) / 1000000000000000000;\n    }\n\n    function transferGems(address recipient, uint256 value) public returns (bool) {\n        return transfer(recipient, value * 1000000000000000000);\n    }\n\n    function transferGemsFrom(address from, address to, uint256 amt) public {\n        require(allowance(from, msg.sender) > amt * 1000000000000000000, \"Warning: You are not allowed to transfer!\");\n        transferFrom(from, to, amt * 1000000000000000000);\n    }\n\n    function giveGemApproval(address receipt, uint256 amt) public {\n        approve(receipt, amt * 1000000000000000000);\n    }\n\n    function checkGemAllowance(address user, address spender) public view returns (uint256) {\n        return allowance(user, spender) / 1000000000000000000;\n    }\n\n    function currentGemSupply() public view returns (uint256) {\n        return totalSupply() / 1000000000000000000;\n    }\n\n}",
  "sourcePath": "/Users/luthertan/Documents/Y3S2/BT3103/YourmaskedID/is4302placeholdername/contracts/Gem.sol",
  "compiler": {
    "name": "solc",
    "version": "0.8.18+commit.87f61d96.Emscripten.clang"
  },
  "schemaVersion": "3.4.11",
  "updatedAt": "2023-04-07T13:40:40.113Z",
  "networkType": "ethereum",
  "devdoc": {
    "events": {
      "Approval(address,address,uint256)": {
        "details": "Emitted when the allowance of a `spender` for an `owner` is set by a call to {approve}. `value` is the new allowance."
      },
      "Transfer(address,address,uint256)": {
        "details": "Emitted when `value` tokens are moved from one account (`from`) to another (`to`). Note that `value` may be zero."
      }
    },
    "kind": "dev",
    "methods": {
      "_mint(address,uint256)": {
        "details": "Creates `amount` tokens and assigns them to `account`, increasing the total supply. Emits a {Transfer} event with `from` set to the zero address. Requirements: - `account` cannot be the zero address."
      },
      "allowance(address,address)": {
        "details": "See {IERC20-allowance}."
      },
      "approve(address,uint256)": {
        "details": "See {IERC20-approve}. NOTE: If `amount` is the maximum `uint256`, the allowance is not updated on `transferFrom`. This is semantically equivalent to an infinite approval. Requirements: - `spender` cannot be the zero address."
      },
      "balanceOf(address)": {
        "details": "See {IERC20-balanceOf}."
      },
      "decimals()": {
        "details": "Returns the number of decimals used to get its user representation. For example, if `decimals` equals `2`, a balance of `505` tokens should be displayed to a user as `5.05` (`505 / 10 ** 2`). Tokens usually opt for a value of 18, imitating the relationship between Ether and Wei. This is the default value returned by this function, unless it's overridden. NOTE: This information is only used for _display_ purposes: it in no way affects any of the arithmetic of the contract, including {IERC20-balanceOf} and {IERC20-transfer}."
      },
      "decreaseAllowance(address,uint256)": {
        "details": "Atomically decreases the allowance granted to `spender` by the caller. This is an alternative to {approve} that can be used as a mitigation for problems described in {IERC20-approve}. Emits an {Approval} event indicating the updated allowance. Requirements: - `spender` cannot be the zero address. - `spender` must have allowance for the caller of at least `subtractedValue`."
      },
      "increaseAllowance(address,uint256)": {
        "details": "Atomically increases the allowance granted to `spender` by the caller. This is an alternative to {approve} that can be used as a mitigation for problems described in {IERC20-approve}. Emits an {Approval} event indicating the updated allowance. Requirements: - `spender` cannot be the zero address."
      },
      "name()": {
        "details": "Returns the name of the token."
      },
      "symbol()": {
        "details": "Returns the symbol of the token, usually a shorter version of the name."
      },
      "totalSupply()": {
        "details": "See {IERC20-totalSupply}."
      },
      "transfer(address,uint256)": {
        "details": "See {IERC20-transfer}. Requirements: - `to` cannot be the zero address. - the caller must have a balance of at least `amount`."
      },
      "transferFrom(address,address,uint256)": {
        "details": "See {IERC20-transferFrom}. Emits an {Approval} event indicating the updated allowance. This is not required by the EIP. See the note at the beginning of {ERC20}. NOTE: Does not update the allowance if the current allowance is the maximum `uint256`. Requirements: - `from` and `to` cannot be the zero address. - `from` must have a balance of at least `amount`. - the caller must have allowance for ``from``'s tokens of at least `amount`."
      }
    },
    "version": 1
  },
  "userdoc": {
    "kind": "user",
    "methods": {},
    "version": 1
  }
}