{
  "contractName": "LPstaking",
  "abi": [
    {
      "inputs": [
        {
          "internalType": "address",
          "name": "_lpToken",
          "type": "address"
        },
        {
          "internalType": "address",
          "name": "_rewardToken",
          "type": "address"
        },
        {
          "internalType": "uint256",
          "name": "_rewardPool",
          "type": "uint256"
        }
      ],
      "stateMutability": "nonpayable",
      "type": "constructor"
    },
    {
      "anonymous": false,
      "inputs": [
        {
          "indexed": true,
          "internalType": "address",
          "name": "user",
          "type": "address"
        },
        {
          "indexed": false,
          "internalType": "uint256",
          "name": "reward",
          "type": "uint256"
        }
      ],
      "name": "ClaimReward",
      "type": "event"
    },
    {
      "anonymous": false,
      "inputs": [
        {
          "indexed": true,
          "internalType": "address",
          "name": "user",
          "type": "address"
        },
        {
          "indexed": false,
          "internalType": "uint256",
          "name": "amount",
          "type": "uint256"
        }
      ],
      "name": "Deposit",
      "type": "event"
    },
    {
      "anonymous": false,
      "inputs": [
        {
          "indexed": true,
          "internalType": "address",
          "name": "user",
          "type": "address"
        },
        {
          "indexed": false,
          "internalType": "uint256",
          "name": "amount",
          "type": "uint256"
        }
      ],
      "name": "RewardClaimed",
      "type": "event"
    },
    {
      "anonymous": false,
      "inputs": [
        {
          "indexed": true,
          "internalType": "address",
          "name": "user",
          "type": "address"
        },
        {
          "indexed": false,
          "internalType": "uint256",
          "name": "amount",
          "type": "uint256"
        }
      ],
      "name": "Withdraw",
      "type": "event"
    },
    {
      "inputs": [],
      "name": "accRewardPerShare",
      "outputs": [
        {
          "internalType": "uint256",
          "name": "",
          "type": "uint256"
        }
      ],
      "stateMutability": "view",
      "type": "function"
    },
    {
      "inputs": [],
      "name": "contractOwner",
      "outputs": [
        {
          "internalType": "address",
          "name": "",
          "type": "address"
        }
      ],
      "stateMutability": "view",
      "type": "function"
    },
    {
      "inputs": [],
      "name": "dailyRewardCounter",
      "outputs": [
        {
          "internalType": "uint256",
          "name": "",
          "type": "uint256"
        }
      ],
      "stateMutability": "view",
      "type": "function"
    },
    {
      "inputs": [],
      "name": "gem",
      "outputs": [
        {
          "internalType": "contract Gem",
          "name": "",
          "type": "address"
        }
      ],
      "stateMutability": "view",
      "type": "function"
    },
    {
      "inputs": [],
      "name": "lastRewardUpdateTimestamp",
      "outputs": [
        {
          "internalType": "uint256",
          "name": "",
          "type": "uint256"
        }
      ],
      "stateMutability": "view",
      "type": "function"
    },
    {
      "inputs": [],
      "name": "lastUpdateTime",
      "outputs": [
        {
          "internalType": "uint256",
          "name": "",
          "type": "uint256"
        }
      ],
      "stateMutability": "view",
      "type": "function"
    },
    {
      "inputs": [],
      "name": "lpToken",
      "outputs": [
        {
          "internalType": "contract ERC20",
          "name": "",
          "type": "address"
        }
      ],
      "stateMutability": "view",
      "type": "function"
    },
    {
      "inputs": [],
      "name": "maxDailyReward",
      "outputs": [
        {
          "internalType": "uint256",
          "name": "",
          "type": "uint256"
        }
      ],
      "stateMutability": "view",
      "type": "function"
    },
    {
      "inputs": [],
      "name": "rewardPerTokenStored",
      "outputs": [
        {
          "internalType": "uint256",
          "name": "",
          "type": "uint256"
        }
      ],
      "stateMutability": "view",
      "type": "function"
    },
    {
      "inputs": [],
      "name": "rewardRate",
      "outputs": [
        {
          "internalType": "uint256",
          "name": "",
          "type": "uint256"
        }
      ],
      "stateMutability": "view",
      "type": "function"
    },
    {
      "inputs": [],
      "name": "stakingPoolLive",
      "outputs": [
        {
          "internalType": "bool",
          "name": "",
          "type": "bool"
        }
      ],
      "stateMutability": "view",
      "type": "function"
    },
    {
      "inputs": [],
      "name": "totalRewardPool",
      "outputs": [
        {
          "internalType": "uint256",
          "name": "",
          "type": "uint256"
        }
      ],
      "stateMutability": "view",
      "type": "function"
    },
    {
      "inputs": [],
      "name": "totalStaked",
      "outputs": [
        {
          "internalType": "uint256",
          "name": "",
          "type": "uint256"
        }
      ],
      "stateMutability": "view",
      "type": "function"
    },
    {
      "inputs": [
        {
          "internalType": "address",
          "name": "",
          "type": "address"
        }
      ],
      "name": "userInfo",
      "outputs": [
        {
          "internalType": "uint256",
          "name": "stakedAmount",
          "type": "uint256"
        },
        {
          "internalType": "uint256",
          "name": "rewardDebt",
          "type": "uint256"
        }
      ],
      "stateMutability": "view",
      "type": "function"
    },
    {
      "inputs": [],
      "name": "setStakingPoolLive",
      "outputs": [],
      "stateMutability": "nonpayable",
      "type": "function"
    },
    {
      "inputs": [
        {
          "internalType": "uint256",
          "name": "amount",
          "type": "uint256"
        }
      ],
      "name": "deposit",
      "outputs": [],
      "stateMutability": "nonpayable",
      "type": "function"
    },
    {
      "inputs": [
        {
          "internalType": "uint256",
          "name": "amount",
          "type": "uint256"
        }
      ],
      "name": "withdraw",
      "outputs": [],
      "stateMutability": "nonpayable",
      "type": "function"
    },
    {
      "inputs": [],
      "name": "updatePool",
      "outputs": [],
      "stateMutability": "nonpayable",
      "type": "function"
    },
    {
      "inputs": [
        {
          "internalType": "address",
          "name": "_user",
          "type": "address"
        }
      ],
      "name": "getPendingReward",
      "outputs": [
        {
          "internalType": "uint256",
          "name": "",
          "type": "uint256"
        }
      ],
      "stateMutability": "view",
      "type": "function"
    },
    {
      "inputs": [],
      "name": "claimRewards",
      "outputs": [],
      "stateMutability": "nonpayable",
      "type": "function"
    }
  ],
  "bytecode": "0x60806040523480156200001157600080fd5b5060405162001bbe38038062001bbe8339818101604052810190620000379190620001e6565b826000806101000a81548173ffffffffffffffffffffffffffffffffffffffff021916908373ffffffffffffffffffffffffffffffffffffffff16021790555081600160006101000a81548173ffffffffffffffffffffffffffffffffffffffff021916908373ffffffffffffffffffffffffffffffffffffffff160217905550426005819055508060028190555061016d81620000d6919062000271565b6007819055506000600460146101000a81548160ff02191690831515021790555033600460006101000a81548173ffffffffffffffffffffffffffffffffffffffff021916908373ffffffffffffffffffffffffffffffffffffffff160217905550505050620002a9565b600080fd5b600073ffffffffffffffffffffffffffffffffffffffff82169050919050565b6000620001738262000146565b9050919050565b620001858162000166565b81146200019157600080fd5b50565b600081519050620001a5816200017a565b92915050565b6000819050919050565b620001c081620001ab565b8114620001cc57600080fd5b50565b600081519050620001e081620001b5565b92915050565b60008060006060848603121562000202576200020162000141565b5b6000620002128682870162000194565b9350506020620002258682870162000194565b92505060406200023886828701620001cf565b9150509250925092565b7f4e487b7100000000000000000000000000000000000000000000000000000000600052601260045260246000fd5b60006200027e82620001ab565b91506200028b83620001ab565b9250826200029e576200029d62000242565b5b828204905092915050565b61190580620002b96000396000f3fe608060405234801561001057600080fd5b506004361061012c5760003560e01c80637bd2bea7116100ad578063b6b55f2511610071578063b6b55f25146102ee578063c8f33c911461030a578063ce606ee014610328578063df136d6514610346578063e3161ddd146103645761012c565b80637bd2bea714610258578063817b1cd214610276578063924f85bc14610294578063939d6237146102b2578063ad876fe8146102d05761012c565b8063372500ab116100f4578063372500ab146101c45780634df9d6ba146101ce5780635fb87206146101fe5780635fcbd2851461021c5780637b0a47ee1461023a5761012c565b806309c85e24146101315780631959a0021461014f578063214e0d9d1461018057806326be0c861461019e5780632e1a7d4d146101a8575b600080fd5b61013961036e565b6040516101469190611101565b60405180910390f35b6101696004803603810190610164919061117f565b610374565b6040516101779291906111ac565b60405180910390f35b610188610398565b6040516101959190611101565b60405180910390f35b6101a661039e565b005b6101c260048036038101906101bd9190611201565b6105be565b005b6101cc610892565b005b6101e860048036038101906101e3919061117f565b610aaf565b6040516101f59190611101565b60405180910390f35b610206610be5565b6040516102139190611101565b60405180910390f35b610224610beb565b604051610231919061128d565b60405180910390f35b610242610c0f565b60405161024f9190611101565b60405180910390f35b610260610c15565b60405161026d91906112c9565b60405180910390f35b61027e610c3b565b60405161028b9190611101565b60405180910390f35b61029c610c41565b6040516102a991906112ff565b60405180910390f35b6102ba610c54565b6040516102c79190611101565b60405180910390f35b6102d8610c5a565b6040516102e59190611101565b60405180910390f35b61030860048036038101906103039190611201565b610c60565b005b610312610fd9565b60405161031f9190611101565b60405180910390f35b610330610fdf565b60405161033d9190611329565b60405180910390f35b61034e611005565b60405161035b9190611101565b60405180910390f35b61036c61100b565b005b60025481565b600c6020528060005260406000206000915090508060000154908060010154905082565b60065481565b600460009054906101000a900473ffffffffffffffffffffffffffffffffffffffff1673ffffffffffffffffffffffffffffffffffffffff163373ffffffffffffffffffffffffffffffffffffffff161461042e576040517f08c379a0000000000000000000000000000000000000000000000000000000008152600401610425906113a1565b60405180910390fd5b600254600160009054906101000a900473ffffffffffffffffffffffffffffffffffffffff1673ffffffffffffffffffffffffffffffffffffffff166346ed2bcb336040518263ffffffff1660e01b815260040161048c9190611329565b602060405180830381865afa1580156104a9573d6000803e3d6000fd5b505050506040513d601f19601f820116820180604052508101906104cd91906113d6565b101561050e576040517f08c379a000000000000000000000000000000000000000000000000000000000815260040161050590611475565b60405180910390fd5b600160009054906101000a900473ffffffffffffffffffffffffffffffffffffffff1673ffffffffffffffffffffffffffffffffffffffff16632a73ac1f33306002546040518463ffffffff1660e01b815260040161056f93929190611495565b600060405180830381600087803b15801561058957600080fd5b505af115801561059d573d6000803e3d6000fd5b505050506001600460146101000a81548160ff021916908315150217905550565b600460149054906101000a900460ff1661060d576040517f08c379a000000000000000000000000000000000000000000000000000000000815260040161060490611564565b60405180910390fd5b6000600c60003373ffffffffffffffffffffffffffffffffffffffff1673ffffffffffffffffffffffffffffffffffffffff16815260200190815260200160002090508181600001541015610697576040517f08c379a000000000000000000000000000000000000000000000000000000000815260040161068e906115d0565b60405180910390fd5b61069f61100b565b6000816001015460085483600001546106b8919061161f565b6106c29190611661565b905060008111156107a057600060025482116106de57816106e2565b6002545b9050600160009054906101000a900473ffffffffffffffffffffffffffffffffffffffff1673ffffffffffffffffffffffffffffffffffffffff1663f09910e433836040518363ffffffff1660e01b8152600401610741929190611695565b6020604051808303816000875af1158015610760573d6000803e3d6000fd5b505050506040513d601f19601f8201168201806040525081019061078491906116ea565b5080600260008282546107979190611661565b92505081905550505b60008054906101000a900473ffffffffffffffffffffffffffffffffffffffff1673ffffffffffffffffffffffffffffffffffffffff1663a9059cbb33856040518363ffffffff1660e01b81526004016107fb929190611695565b6020604051808303816000875af115801561081a573d6000803e3d6000fd5b505050506040513d601f19601f8201168201806040525081019061083e91906116ea565b50828260000160008282546108539190611661565b92505081905550826003600082825461086c9190611661565b925050819055506008548260000154610885919061161f565b8260010181905550505050565b600460149054906101000a900460ff166108e1576040517f08c379a00000000000000000000000000000000000000000000000000000000081526004016108d890611564565b60405180910390fd5b6000600c60003373ffffffffffffffffffffffffffffffffffffffff1673ffffffffffffffffffffffffffffffffffffffff1681526020019081526020016000209050600081600001541161096b576040517f08c379a000000000000000000000000000000000000000000000000000000000815260040161096290611789565b60405180910390fd5b61097361100b565b60008160010154600854836000015461098c919061161f565b6109969190611661565b90506000811115610aab57600160009054906101000a900473ffffffffffffffffffffffffffffffffffffffff1673ffffffffffffffffffffffffffffffffffffffff1663f09910e433836040518363ffffffff1660e01b81526004016109fe929190611695565b6020604051808303816000875af1158015610a1d573d6000803e3d6000fd5b505050506040513d601f19601f82011682018060405250810190610a4191906116ea565b506008548260000154610a54919061161f565b82600101819055503373ffffffffffffffffffffffffffffffffffffffff167f106f923f993c2149d49b4255ff723acafa1f2d94393f561d3eda32ae348f724182604051610aa29190611101565b60405180910390a25b5050565b6000600460149054906101000a900460ff16610b00576040517f08c379a0000000000000000000000000000000000000000000000000000000008152600401610af790611564565b60405180910390fd5b6000600c60008473ffffffffffffffffffffffffffffffffffffffff1673ffffffffffffffffffffffffffffffffffffffff16815260200190815260200160002090506000600854905060055443118015610b5e5750600060035414155b15610bbd57600060055443610b739190611661565b9050600060055443610b859190611661565b82600254610b93919061161f565b610b9d91906117d8565b905060035481610bad91906117d8565b83610bb89190611809565b925050505b8160010154818360000154610bd2919061161f565b610bdc9190611661565b92505050919050565b60075481565b60008054906101000a900473ffffffffffffffffffffffffffffffffffffffff1681565b60095481565b600160009054906101000a900473ffffffffffffffffffffffffffffffffffffffff1681565b60035481565b600460149054906101000a900460ff1681565b60085481565b60055481565b600460149054906101000a900460ff16610caf576040517f08c379a0000000000000000000000000000000000000000000000000000000008152600401610ca690611564565b60405180910390fd5b8060008054906101000a900473ffffffffffffffffffffffffffffffffffffffff1673ffffffffffffffffffffffffffffffffffffffff166370a08231336040518263ffffffff1660e01b8152600401610d099190611329565b602060405180830381865afa158015610d26573d6000803e3d6000fd5b505050506040513d601f19601f82011682018060405250810190610d4a91906113d6565b1015610d8b576040517f08c379a0000000000000000000000000000000000000000000000000000000008152600401610d82906118af565b60405180910390fd5b6000600c60003373ffffffffffffffffffffffffffffffffffffffff1673ffffffffffffffffffffffffffffffffffffffff1681526020019081526020016000209050610dd661100b565b600081600001541115610ee657600081600101546008548360000154610dfc919061161f565b610e069190611661565b90506000811115610ee45760006002548211610e225781610e26565b6002545b9050600160009054906101000a900473ffffffffffffffffffffffffffffffffffffffff1673ffffffffffffffffffffffffffffffffffffffff1663f09910e433836040518363ffffffff1660e01b8152600401610e85929190611695565b6020604051808303816000875af1158015610ea4573d6000803e3d6000fd5b505050506040513d601f19601f82011682018060405250810190610ec891906116ea565b508060026000828254610edb9190611661565b92505081905550505b505b60008054906101000a900473ffffffffffffffffffffffffffffffffffffffff1673ffffffffffffffffffffffffffffffffffffffff166323b872dd3330856040518463ffffffff1660e01b8152600401610f4393929190611495565b6020604051808303816000875af1158015610f62573d6000803e3d6000fd5b505050506040513d601f19601f82011682018060405250810190610f8691906116ea565b5081816000016000828254610f9b9190611809565b925050819055508160036000828254610fb49190611809565b925050819055506008548160000154610fcd919061161f565b81600101819055505050565b600b5481565b600460009054906101000a900473ffffffffffffffffffffffffffffffffffffffff1681565b600a5481565b600460149054906101000a900460ff1661105a576040517f08c379a000000000000000000000000000000000000000000000000000000000815260040161105190611564565b60405180910390fd5b6005544311156110e65760006003540361107a57436005819055506110e6565b60006005544361108a9190611661565b905060006005544361109c9190611661565b826002546110aa919061161f565b6110b491906117d8565b9050600354816110c491906117d8565b600860008282546110d59190611809565b925050819055504360058190555050505b565b6000819050919050565b6110fb816110e8565b82525050565b600060208201905061111660008301846110f2565b92915050565b600080fd5b600073ffffffffffffffffffffffffffffffffffffffff82169050919050565b600061114c82611121565b9050919050565b61115c81611141565b811461116757600080fd5b50565b60008135905061117981611153565b92915050565b6000602082840312156111955761119461111c565b5b60006111a38482850161116a565b91505092915050565b60006040820190506111c160008301856110f2565b6111ce60208301846110f2565b9392505050565b6111de816110e8565b81146111e957600080fd5b50565b6000813590506111fb816111d5565b92915050565b6000602082840312156112175761121661111c565b5b6000611225848285016111ec565b91505092915050565b6000819050919050565b600061125361124e61124984611121565b61122e565b611121565b9050919050565b600061126582611238565b9050919050565b60006112778261125a565b9050919050565b6112878161126c565b82525050565b60006020820190506112a2600083018461127e565b92915050565b60006112b38261125a565b9050919050565b6112c3816112a8565b82525050565b60006020820190506112de60008301846112ba565b92915050565b60008115159050919050565b6112f9816112e4565b82525050565b600060208201905061131460008301846112f0565b92915050565b61132381611141565b82525050565b600060208201905061133e600083018461131a565b92915050565b600082825260208201905092915050565b7f4f776e61626c653a2063616c6c6572206973206e6f7420746865206f776e6572600082015250565b600061138b602083611344565b915061139682611355565b602082019050919050565b600060208201905081810360008301526113ba8161137e565b9050919050565b6000815190506113d0816111d5565b92915050565b6000602082840312156113ec576113eb61111c565b5b60006113fa848285016113c1565b91505092915050565b7f596f7520646f206e6f7420686176652073756666696369656e742047656d206660008201527f6f722074686520726577617264506f6f6c000000000000000000000000000000602082015250565b600061145f603183611344565b915061146a82611403565b604082019050919050565b6000602082019050818103600083015261148e81611452565b9050919050565b60006060820190506114aa600083018661131a565b6114b7602083018561131a565b6114c460408301846110f2565b949350505050565b7f5374616b696e6720506f6f6c206973206e6f74206c697665207965742c20506c60008201527f656173652067657420746865204f776e657220746f206465706f73697420746860208201527f6520726577617264730000000000000000000000000000000000000000000000604082015250565b600061154e604983611344565b9150611559826114cc565b606082019050919050565b6000602082019050818103600083015261157d81611541565b9050919050565b7f4e6f7420656e6f756768207374616b656420746f6b656e730000000000000000600082015250565b60006115ba601883611344565b91506115c582611584565b602082019050919050565b600060208201905081810360008301526115e9816115ad565b9050919050565b7f4e487b7100000000000000000000000000000000000000000000000000000000600052601160045260246000fd5b600061162a826110e8565b9150611635836110e8565b9250828202611643816110e8565b9150828204841483151761165a576116596115f0565b5b5092915050565b600061166c826110e8565b9150611677836110e8565b925082820390508181111561168f5761168e6115f0565b5b92915050565b60006040820190506116aa600083018561131a565b6116b760208301846110f2565b9392505050565b6116c7816112e4565b81146116d257600080fd5b50565b6000815190506116e4816116be565b92915050565b600060208284031215611700576116ff61111c565b5b600061170e848285016116d5565b91505092915050565b7f596f7520646f206e6f74206861766520616e79204c5020746f6b656e2073746160008201527f6b65640000000000000000000000000000000000000000000000000000000000602082015250565b6000611773602383611344565b915061177e82611717565b604082019050919050565b600060208201905081810360008301526117a281611766565b9050919050565b7f4e487b7100000000000000000000000000000000000000000000000000000000600052601260045260246000fd5b60006117e3826110e8565b91506117ee836110e8565b9250826117fe576117fd6117a9565b5b828204905092915050565b6000611814826110e8565b915061181f836110e8565b9250828201905080821115611837576118366115f0565b5b92915050565b7f596f7520646f206e6f7420686176652073756666696369656e742047656d206660008201527f6f7220746865206465706f736974000000000000000000000000000000000000602082015250565b6000611899602e83611344565b91506118a48261183d565b604082019050919050565b600060208201905081810360008301526118c88161188c565b905091905056fea26469706673582212200da237f4a40e3fbd467b5ccddec43256e67c62da8c77debd30666eabf75340ef64736f6c63430008120033",
  "immutableReferences": {},
  "source": "pragma solidity ^0.8.0;\n\nimport './ERC20.sol';\nimport './Gem.sol';\n\ncontract LPstaking {\n    ERC20 public lpToken;\n    Gem public gem;\n    // Pool details\n    uint256 public totalRewardPool;\n    uint256 public totalStaked;\n    address public contractOwner;\n    bool public stakingPoolLive;\n\n    // Updating Pool contract for rewards\n    uint256 public lastRewardUpdateTimestamp;\n    uint256 public dailyRewardCounter;\n    uint256 public maxDailyReward;\n    uint256 public accRewardPerShare;\n\n    uint256 public rewardRate;\n    uint256 public rewardPerTokenStored;\n    uint256 public lastUpdateTime;\n\n    struct UserInfo {\n        uint256 stakedAmount;\n        uint256 rewardDebt;\n    }\n\n    mapping(address => UserInfo) public userInfo;\n\n    event Deposit(address indexed user, uint256 amount);\n    event Withdraw(address indexed user, uint256 amount);\n    event ClaimReward(address indexed user, uint256 reward);\n    event RewardClaimed(address indexed user, uint256 amount);\n\n    constructor(address _lpToken, address _rewardToken, uint256 _rewardPool) {\n        lpToken = ERC20(_lpToken);\n        gem = Gem(_rewardToken);\n        lastRewardUpdateTimestamp = block.timestamp;\n        totalRewardPool = _rewardPool;\n        maxDailyReward = _rewardPool / 365;\n        stakingPoolLive = false; // this variable will turn to true once the contract deployer sends the gem (_rewardPool) \n                                        //into the contract\n        contractOwner = msg.sender;\n    }\n\n    function setStakingPoolLive() public onlyOwner {\n            // uint256 rewardPool = totalRewardPool / 1e18;\n            require(gem.checkGemsOf(msg.sender) >= totalRewardPool, \"You do not have sufficient Gem for the rewardPool\");\n            gem.transferGemsFrom(msg.sender, address(this), totalRewardPool);\n            stakingPoolLive = true;\n    }\n\n    function deposit(uint256 amount) public checkStakingPoolStatus {\n        require(lpToken.balanceOf(msg.sender) >= amount, \"You do not have sufficient Gem for the deposit\");\n        UserInfo storage user = userInfo[msg.sender];\n        updatePool();\n\n        if (user.stakedAmount > 0) {\n            // uint256 pendingReward = user.stakedAmount * accRewardPerShare / 1e18 - user.rewardDebt;\n            uint256 pendingReward = user.stakedAmount * accRewardPerShare - user.rewardDebt;\n            if (pendingReward > 0) {\n                uint256 payout = (pendingReward > totalRewardPool) ? totalRewardPool : pendingReward;\n                gem.transferGems(msg.sender, payout);\n                totalRewardPool -= payout;\n            }\n        }\n        lpToken.transferFrom(msg.sender, address(this), amount);\n        user.stakedAmount += amount;\n        totalStaked += amount;\n        // user.rewardDebt = user.stakedAmount * accRewardPerShare / 1e18;\n        user.rewardDebt = user.stakedAmount * accRewardPerShare;\n    }\n\n    function withdraw(uint256 amount) public checkStakingPoolStatus {\n        UserInfo storage user = userInfo[msg.sender];\n        require(user.stakedAmount >= amount, \"Not enough staked tokens\");\n\n        updatePool();\n\n        // uint256 pendingReward = user.stakedAmount * accRewardPerShare / 1e18 - user.rewardDebt;\n        uint256 pendingReward = user.stakedAmount * accRewardPerShare - user.rewardDebt;\n\n        if (pendingReward > 0) {\n            uint256 payout = (pendingReward > totalRewardPool) ? totalRewardPool : pendingReward;\n            gem.transferGems(msg.sender, payout);\n            totalRewardPool -= payout;\n        }\n\n        lpToken.transfer(msg.sender, amount);\n        user.stakedAmount -= amount;\n        totalStaked -= amount;\n        user.rewardDebt = user.stakedAmount * accRewardPerShare;\n        // user.rewardDebt = user.stakedAmount * accRewardPerShare / 1e18;\n    }\n\n    function updatePool() public checkStakingPoolStatus {\n        if (block.number <= lastRewardUpdateTimestamp) {\n            return;\n        }\n        if (totalStaked == 0) {\n            lastRewardUpdateTimestamp = block.number;\n            return;\n        }\n\n        uint256 blocksSinceLastUpdate = block.number - lastRewardUpdateTimestamp;\n        uint256 reward = (totalRewardPool * blocksSinceLastUpdate) / (block.number - lastRewardUpdateTimestamp);\n        // accRewardPerShare += (reward * 1e18) / totalStaked;\n        accRewardPerShare += (reward) / totalStaked;\n        lastRewardUpdateTimestamp = block.number;\n    }\n\n    function getPendingReward(address _user) public view checkStakingPoolStatus returns (uint256) {\n        UserInfo storage user = userInfo[_user];\n        uint256 _accRewardPerShare = accRewardPerShare;\n        if (block.number > lastRewardUpdateTimestamp && totalStaked != 0) {\n            uint256 blocksSinceLastUpdate = block.number - lastRewardUpdateTimestamp;\n            uint256 reward = (totalRewardPool * blocksSinceLastUpdate) / (block.number - lastRewardUpdateTimestamp);\n            // _accRewardPerShare += (reward * 1e18) / totalStaked;\n            _accRewardPerShare += (reward) / totalStaked;\n        }\n        // return user.stakedAmount * _accRewardPerShare / 1e18 - user.rewardDebt;\n        return user.stakedAmount * _accRewardPerShare - user.rewardDebt;\n    }\n\n    function claimRewards() public checkStakingPoolStatus {\n        UserInfo storage user = userInfo[msg.sender];\n        require(user.stakedAmount > 0, \"You do not have any LP token staked\");\n        updatePool();\n\n        // uint256 pendingReward = user.stakedAmount * accRewardPerShare / 1e18 - user.rewardDebt;\n        uint256 pendingReward = user.stakedAmount * accRewardPerShare - user.rewardDebt;\n\n        if (pendingReward > 0) {\n            gem.transferGems(msg.sender, pendingReward);\n\n            // user.rewardDebt = user.stakedAmount * accRewardPerShare / 1e18;\n            user.rewardDebt = user.stakedAmount * accRewardPerShare;\n            emit RewardClaimed(msg.sender, pendingReward);\n        }\n    }\n\n    modifier onlyOwner() {\n        require(msg.sender == contractOwner, 'Ownable: caller is not the owner');\n        _;\n    }\n\n    modifier checkStakingPoolStatus() {\n        require(stakingPoolLive, 'Staking Pool is not live yet, Please get the Owner to deposit the rewards');\n        _;\n    }\n\n}",
  "sourcePath": "/Users/luthertan/Documents/Y3S2/BT3103/YourmaskedID/is4302placeholdername/contracts/LPstaking.sol",
  "compiler": {
    "name": "solc",
    "version": "0.8.18+commit.87f61d96.Emscripten.clang"
  },
  "schemaVersion": "3.4.11",
  "updatedAt": "2023-04-07T18:13:17.283Z",
  "devdoc": {
    "kind": "dev",
    "methods": {},
    "version": 1
  },
  "userdoc": {
    "kind": "user",
    "methods": {},
    "version": 1
  }
}