{
  "contractName": "Marketplace",
  "abi": [
    {
      "inputs": [
        {
          "internalType": "contract BeastCard",
          "name": "beastAddress",
          "type": "address"
        },
        {
          "internalType": "contract Gem",
          "name": "gemAddress",
          "type": "address"
        }
      ],
      "stateMutability": "nonpayable",
      "type": "constructor"
    },
    {
      "inputs": [
        {
          "internalType": "uint256",
          "name": "cardID",
          "type": "uint256"
        },
        {
          "internalType": "uint256",
          "name": "price",
          "type": "uint256"
        }
      ],
      "name": "list",
      "outputs": [],
      "stateMutability": "nonpayable",
      "type": "function"
    },
    {
      "inputs": [
        {
          "internalType": "uint256",
          "name": "cardID",
          "type": "uint256"
        }
      ],
      "name": "unlist",
      "outputs": [],
      "stateMutability": "nonpayable",
      "type": "function"
    },
    {
      "inputs": [
        {
          "internalType": "uint256",
          "name": "cardID",
          "type": "uint256"
        }
      ],
      "name": "checkPrice",
      "outputs": [
        {
          "internalType": "uint256",
          "name": "",
          "type": "uint256"
        }
      ],
      "stateMutability": "view",
      "type": "function"
    },
    {
      "inputs": [
        {
          "internalType": "uint256",
          "name": "cardID",
          "type": "uint256"
        },
        {
          "internalType": "uint256",
          "name": "offerPrice",
          "type": "uint256"
        }
      ],
      "name": "makeOffer",
      "outputs": [],
      "stateMutability": "nonpayable",
      "type": "function"
    },
    {
      "inputs": [
        {
          "internalType": "uint256",
          "name": "cardID",
          "type": "uint256"
        }
      ],
      "name": "checkOffers",
      "outputs": [
        {
          "components": [
            {
              "internalType": "address",
              "name": "owner",
              "type": "address"
            },
            {
              "internalType": "uint256",
              "name": "offerValue",
              "type": "uint256"
            },
            {
              "internalType": "uint256",
              "name": "offerCardId",
              "type": "uint256"
            }
          ],
          "internalType": "struct Marketplace.Offer[]",
          "name": "",
          "type": "tuple[]"
        }
      ],
      "stateMutability": "view",
      "type": "function"
    },
    {
      "inputs": [
        {
          "internalType": "uint256",
          "name": "cardID",
          "type": "uint256"
        },
        {
          "internalType": "address",
          "name": "offerer",
          "type": "address"
        }
      ],
      "name": "acceptOffer",
      "outputs": [],
      "stateMutability": "nonpayable",
      "type": "function"
    },
    {
      "inputs": [
        {
          "internalType": "uint256",
          "name": "cardID",
          "type": "uint256"
        },
        {
          "internalType": "address",
          "name": "offerer",
          "type": "address"
        }
      ],
      "name": "checkOfferExists",
      "outputs": [
        {
          "internalType": "bool",
          "name": "exists",
          "type": "bool"
        }
      ],
      "stateMutability": "view",
      "type": "function"
    },
    {
      "inputs": [
        {
          "internalType": "uint256",
          "name": "cardID",
          "type": "uint256"
        }
      ],
      "name": "retractOffer",
      "outputs": [],
      "stateMutability": "nonpayable",
      "type": "function"
    },
    {
      "inputs": [
        {
          "internalType": "uint256",
          "name": "cardID",
          "type": "uint256"
        }
      ],
      "name": "buy",
      "outputs": [],
      "stateMutability": "nonpayable",
      "type": "function"
    },
    {
      "inputs": [],
      "name": "getContractOwner",
      "outputs": [
        {
          "internalType": "address",
          "name": "",
          "type": "address"
        }
      ],
      "stateMutability": "view",
      "type": "function"
    },
    {
      "inputs": [],
      "name": "withDraw",
      "outputs": [],
      "stateMutability": "nonpayable",
      "type": "function"
    },
    {
      "inputs": [],
      "name": "checkComission",
      "outputs": [
        {
          "internalType": "uint256",
          "name": "",
          "type": "uint256"
        }
      ],
      "stateMutability": "view",
      "type": "function"
    }
  ],
  "bytecode": "0x608060405233600260006101000a81548173ffffffffffffffffffffffffffffffffffffffff021916908373ffffffffffffffffffffffffffffffffffffffff1602179055503480156200005257600080fd5b50604051620027b2380380620027b28339818101604052810190620000789190620001c4565b816000806101000a81548173ffffffffffffffffffffffffffffffffffffffff021916908373ffffffffffffffffffffffffffffffffffffffff16021790555080600160006101000a81548173ffffffffffffffffffffffffffffffffffffffff021916908373ffffffffffffffffffffffffffffffffffffffff16021790555050506200020b565b600080fd5b600073ffffffffffffffffffffffffffffffffffffffff82169050919050565b6000620001338262000106565b9050919050565b6000620001478262000126565b9050919050565b62000159816200013a565b81146200016557600080fd5b50565b60008151905062000179816200014e565b92915050565b60006200018c8262000126565b9050919050565b6200019e816200017f565b8114620001aa57600080fd5b50565b600081519050620001be8162000193565b92915050565b60008060408385031215620001de57620001dd62000101565b5b6000620001ee8582860162000168565b92505060206200020185828601620001ad565b9150509250929050565b612597806200021b6000396000f3fe608060405234801561001057600080fd5b50600436106100b45760003560e01c8063918d407d11610071578063918d407d146101795780639da41eb514610195578063bf5a4dd3146101b3578063c4c6c87d146101cf578063d96a094a146101eb578063f0dbc80d14610207576100b4565b806301b13001146100b957806305b7cdd3146100e95780630fdb1c10146101055780631de7463a1461010f578063442890d51461013f57806350fd73671461015d575b600080fd5b6100d360048036038101906100ce91906119e5565b610237565b6040516100e09190611b53565b60405180910390f35b61010360048036038101906100fe9190611b75565b6104a8565b005b61010d610700565b005b610129600480360381019061012491906119e5565b610889565b6040516101369190611bc4565b60405180910390f35b6101476108be565b6040516101549190611bee565b60405180910390f35b61017760048036038101906101729190611b75565b6108e8565b005b610193600480360381019061018e9190611c35565b610a0b565b005b61019d610eb7565b6040516101aa9190611bc4565b60405180910390f35b6101cd60048036038101906101c891906119e5565b610fea565b005b6101e960048036038101906101e491906119e5565b61112c565b005b610205600480360381019061020091906119e5565b6113ad565b005b610221600480360381019061021c9190611c35565b61182a565b60405161022e9190611c90565b60405180910390f35b606060008054906101000a900473ffffffffffffffffffffffffffffffffffffffff1673ffffffffffffffffffffffffffffffffffffffff16636352211e836040518263ffffffff1660e01b81526004016102929190611bc4565b602060405180830381865afa1580156102af573d6000803e3d6000fd5b505050506040513d601f19601f820116820180604052508101906102d39190611cc0565b73ffffffffffffffffffffffffffffffffffffffff163373ffffffffffffffffffffffffffffffffffffffff1614610340576040517f08c379a000000000000000000000000000000000000000000000000000000000815260040161033790611d96565b60405180910390fd5b60006004600084815260200190815260200160002080549050905060008167ffffffffffffffff81111561037757610376611db6565b5b6040519080825280602002602001820160405280156103b057816020015b61039d611901565b8152602001906001900390816103955790505b50905060005b8281101561049d5760006004600087815260200190815260200160002082815481106103e5576103e4611de5565b5b90600052602060002090600302019050806040518060600160405290816000820160009054906101000a900473ffffffffffffffffffffffffffffffffffffffff1673ffffffffffffffffffffffffffffffffffffffff1673ffffffffffffffffffffffffffffffffffffffff1681526020016001820154815260200160028201548152505083838151811061047e5761047d611de5565b5b602002602001018190525050808061049590611e43565b9150506103b6565b508092505050919050565b60006003600084815260200190815260200160002054036104fe576040517f08c379a00000000000000000000000000000000000000000000000000000000081526004016104f590611ed7565b60405180910390fd5b80600160009054906101000a900473ffffffffffffffffffffffffffffffffffffffff1673ffffffffffffffffffffffffffffffffffffffff166370a08231336040518263ffffffff1660e01b815260040161055a9190611bee565b602060405180830381865afa158015610577573d6000803e3d6000fd5b505050506040513d601f19601f8201168201806040525081019061059b9190611f0c565b10156105dc576040517f08c379a00000000000000000000000000000000000000000000000000000000081526004016105d390611f85565b60405180910390fd5b600015156105ea833361182a565b15151461062c576040517f08c379a000000000000000000000000000000000000000000000000000000000815260040161062390612017565b60405180910390fd5b600060405180606001604052803373ffffffffffffffffffffffffffffffffffffffff1681526020018381526020018481525090506004600084815260200190815260200160002081908060018154018082558091505060019003906000526020600020906003020160009091909190915060008201518160000160006101000a81548173ffffffffffffffffffffffffffffffffffffffff021916908373ffffffffffffffffffffffffffffffffffffffff16021790555060208201518160010155604082015181600201555050505050565b600260009054906101000a900473ffffffffffffffffffffffffffffffffffffffff1673ffffffffffffffffffffffffffffffffffffffff163373ffffffffffffffffffffffffffffffffffffffff1614610790576040517f08c379a0000000000000000000000000000000000000000000000000000000008152600401610787906120a9565b60405180910390fd5b600260009054906101000a900473ffffffffffffffffffffffffffffffffffffffff1673ffffffffffffffffffffffffffffffffffffffff163373ffffffffffffffffffffffffffffffffffffffff160361088757600160009054906101000a900473ffffffffffffffffffffffffffffffffffffffff1673ffffffffffffffffffffffffffffffffffffffff1663f09910e433476040518363ffffffff1660e01b81526004016108429291906120c9565b6020604051808303816000875af1158015610861573d6000803e3d6000fd5b505050506040513d601f19601f82011682018060405250810190610885919061211e565b505b565b60006064606960036000858152602001908152602001600020546108ad919061214b565b6108b791906121bc565b9050919050565b6000600260009054906101000a900473ffffffffffffffffffffffffffffffffffffffff16905090565b60008054906101000a900473ffffffffffffffffffffffffffffffffffffffff1673ffffffffffffffffffffffffffffffffffffffff16636352211e836040518263ffffffff1660e01b81526004016109419190611bc4565b602060405180830381865afa15801561095e573d6000803e3d6000fd5b505050506040513d601f19601f820116820180604052508101906109829190611cc0565b73ffffffffffffffffffffffffffffffffffffffff163373ffffffffffffffffffffffffffffffffffffffff16146109ef576040517f08c379a00000000000000000000000000000000000000000000000000000000081526004016109e69061225f565b60405180910390fd5b8060036000848152602001908152602001600020819055505050565b60008054906101000a900473ffffffffffffffffffffffffffffffffffffffff1673ffffffffffffffffffffffffffffffffffffffff16636352211e836040518263ffffffff1660e01b8152600401610a649190611bc4565b602060405180830381865afa158015610a81573d6000803e3d6000fd5b505050506040513d601f19601f82011682018060405250810190610aa59190611cc0565b73ffffffffffffffffffffffffffffffffffffffff163373ffffffffffffffffffffffffffffffffffffffff1614610b12576040517f08c379a0000000000000000000000000000000000000000000000000000000008152600401610b0990612317565b60405180910390fd5b60011515610b20838361182a565b151514610b62576040517f08c379a0000000000000000000000000000000000000000000000000000000008152600401610b5990612383565b60405180910390fd5b60001515610b70833361182a565b151514610bb2576040517f08c379a0000000000000000000000000000000000000000000000000000000008152600401610ba990612415565b60405180910390fd5b6000806004600085815260200190815260200160002080549050905060005b81811015610caf578373ffffffffffffffffffffffffffffffffffffffff16600460008781526020019081526020016000208281548110610c1557610c14611de5565b5b906000526020600020906003020160000160009054906101000a900473ffffffffffffffffffffffffffffffffffffffff1673ffffffffffffffffffffffffffffffffffffffff1603610c9c57600460008681526020019081526020016000208181548110610c8757610c86611de5565b5b90600052602060002090600302016001015492505b8080610ca790611e43565b915050610bd1565b50600160009054906101000a900473ffffffffffffffffffffffffffffffffffffffff1673ffffffffffffffffffffffffffffffffffffffff16632a73ac1f8433856040518463ffffffff1660e01b8152600401610d0f93929190612435565b600060405180830381600087803b158015610d2957600080fd5b505af1158015610d3d573d6000803e3d6000fd5b50505050600160009054906101000a900473ffffffffffffffffffffffffffffffffffffffff1673ffffffffffffffffffffffffffffffffffffffff16632a73ac1f84306064600587610d90919061214b565b610d9a91906121bc565b6040518463ffffffff1660e01b8152600401610db893929190612435565b600060405180830381600087803b158015610dd257600080fd5b505af1158015610de6573d6000803e3d6000fd5b5050505060008054906101000a900473ffffffffffffffffffffffffffffffffffffffff1673ffffffffffffffffffffffffffffffffffffffff166342842e0e3385876040518463ffffffff1660e01b8152600401610e4793929190612435565b600060405180830381600087803b158015610e6157600080fd5b505af1158015610e75573d6000803e3d6000fd5b5050505060006003600086815260200190815260200160002081905550600460008581526020019081526020016000206000610eb19190611938565b50505050565b6000600260009054906101000a900473ffffffffffffffffffffffffffffffffffffffff1673ffffffffffffffffffffffffffffffffffffffff163373ffffffffffffffffffffffffffffffffffffffff1614610f49576040517f08c379a0000000000000000000000000000000000000000000000000000000008152600401610f40906120a9565b60405180910390fd5b600160009054906101000a900473ffffffffffffffffffffffffffffffffffffffff1673ffffffffffffffffffffffffffffffffffffffff166346ed2bcb306040518263ffffffff1660e01b8152600401610fa49190611bee565b602060405180830381865afa158015610fc1573d6000803e3d6000fd5b505050506040513d601f19601f82011682018060405250810190610fe59190611f0c565b905090565b60008054906101000a900473ffffffffffffffffffffffffffffffffffffffff1673ffffffffffffffffffffffffffffffffffffffff16636352211e826040518263ffffffff1660e01b81526004016110439190611bc4565b602060405180830381865afa158015611060573d6000803e3d6000fd5b505050506040513d601f19601f820116820180604052508101906110849190611cc0565b73ffffffffffffffffffffffffffffffffffffffff163373ffffffffffffffffffffffffffffffffffffffff16146110f1576040517f08c379a00000000000000000000000000000000000000000000000000000000081526004016110e8906124de565b60405180910390fd5b600060036000838152602001908152602001600020819055506004600082815260200190815260200160002060006111299190611938565b50565b6001151561113a823361182a565b15151461117c576040517f08c379a000000000000000000000000000000000000000000000000000000000815260040161117390612415565b60405180910390fd5b600033905060006004600084815260200190815260200160002080549050905060005b818110156113a7578273ffffffffffffffffffffffffffffffffffffffff166004600086815260200190815260200160002082815481106111e3576111e2611de5565b5b906000526020600020906003020160000160009054906101000a900473ffffffffffffffffffffffffffffffffffffffff1673ffffffffffffffffffffffffffffffffffffffff1603611394576004600085815260200190815260200160002060018361125091906124fe565b8154811061126157611260611de5565b5b906000526020600020906003020160046000868152602001908152602001600020828154811061129457611293611de5565b5b90600052602060002090600302016000820160009054906101000a900473ffffffffffffffffffffffffffffffffffffffff168160000160006101000a81548173ffffffffffffffffffffffffffffffffffffffff021916908373ffffffffffffffffffffffffffffffffffffffff16021790555060018201548160010155600282015481600201559050506004600085815260200190815260200160002080548061134357611342612532565b5b6001900381819060005260206000209060030201600080820160006101000a81549073ffffffffffffffffffffffffffffffffffffffff021916905560018201600090556002820160009055505090555b808061139f90611e43565b91505061119f565b50505050565b6000600360008381526020019081526020016000205403611403576040517f08c379a00000000000000000000000000000000000000000000000000000000081526004016113fa90611ed7565b60405180910390fd5b3073ffffffffffffffffffffffffffffffffffffffff16631de7463a826040518263ffffffff1660e01b815260040161143c9190611bc4565b602060405180830381865afa158015611459573d6000803e3d6000fd5b505050506040513d601f19601f8201168201806040525081019061147d9190611f0c565b600160009054906101000a900473ffffffffffffffffffffffffffffffffffffffff1673ffffffffffffffffffffffffffffffffffffffff166370a08231336040518263ffffffff1660e01b81526004016114d89190611bee565b602060405180830381865afa1580156114f5573d6000803e3d6000fd5b505050506040513d601f19601f820116820180604052508101906115199190611f0c565b101561155a576040517f08c379a000000000000000000000000000000000000000000000000000000000815260040161155190611f85565b60405180910390fd5b60008060009054906101000a900473ffffffffffffffffffffffffffffffffffffffff1673ffffffffffffffffffffffffffffffffffffffff16636352211e836040518263ffffffff1660e01b81526004016115b69190611bc4565b602060405180830381865afa1580156115d3573d6000803e3d6000fd5b505050506040513d601f19601f820116820180604052508101906115f79190611cc0565b90506000819050600160009054906101000a900473ffffffffffffffffffffffffffffffffffffffff1673ffffffffffffffffffffffffffffffffffffffff16632a73ac1f338460036000888152602001908152602001600020546040518463ffffffff1660e01b815260040161167093929190612435565b600060405180830381600087803b15801561168a57600080fd5b505af115801561169e573d6000803e3d6000fd5b50505050600160009054906101000a900473ffffffffffffffffffffffffffffffffffffffff1673ffffffffffffffffffffffffffffffffffffffff16632a73ac1f333060646005600360008a815260200190815260200160002054611704919061214b565b61170e91906121bc565b6040518463ffffffff1660e01b815260040161172c93929190612435565b600060405180830381600087803b15801561174657600080fd5b505af115801561175a573d6000803e3d6000fd5b5050505060008054906101000a900473ffffffffffffffffffffffffffffffffffffffff1673ffffffffffffffffffffffffffffffffffffffff166342842e0e8233866040518463ffffffff1660e01b81526004016117bb93929190612435565b600060405180830381600087803b1580156117d557600080fd5b505af11580156117e9573d6000803e3d6000fd5b50505050600060036000858152602001908152602001600020819055506004600084815260200190815260200160002060006118259190611938565b505050565b6000806004600085815260200190815260200160002080549050905060005b818110156118f8578373ffffffffffffffffffffffffffffffffffffffff1660046000878152602001908152602001600020828154811061188d5761188c611de5565b5b906000526020600020906003020160000160009054906101000a900473ffffffffffffffffffffffffffffffffffffffff1673ffffffffffffffffffffffffffffffffffffffff16036118e5576001925050506118fb565b80806118f090611e43565b915050611849565b50505b92915050565b6040518060600160405280600073ffffffffffffffffffffffffffffffffffffffff16815260200160008152602001600081525090565b5080546000825560030290600052602060002090810190611959919061195c565b50565b5b808211156119a657600080820160006101000a81549073ffffffffffffffffffffffffffffffffffffffff0219169055600182016000905560028201600090555060030161195d565b5090565b600080fd5b6000819050919050565b6119c2816119af565b81146119cd57600080fd5b50565b6000813590506119df816119b9565b92915050565b6000602082840312156119fb576119fa6119aa565b5b6000611a09848285016119d0565b91505092915050565b600081519050919050565b600082825260208201905092915050565b6000819050602082019050919050565b600073ffffffffffffffffffffffffffffffffffffffff82169050919050565b6000611a6982611a3e565b9050919050565b611a7981611a5e565b82525050565b611a88816119af565b82525050565b606082016000820151611aa46000850182611a70565b506020820151611ab76020850182611a7f565b506040820151611aca6040850182611a7f565b50505050565b6000611adc8383611a8e565b60608301905092915050565b6000602082019050919050565b6000611b0082611a12565b611b0a8185611a1d565b9350611b1583611a2e565b8060005b83811015611b46578151611b2d8882611ad0565b9750611b3883611ae8565b925050600181019050611b19565b5085935050505092915050565b60006020820190508181036000830152611b6d8184611af5565b905092915050565b60008060408385031215611b8c57611b8b6119aa565b5b6000611b9a858286016119d0565b9250506020611bab858286016119d0565b9150509250929050565b611bbe816119af565b82525050565b6000602082019050611bd96000830184611bb5565b92915050565b611be881611a5e565b82525050565b6000602082019050611c036000830184611bdf565b92915050565b611c1281611a5e565b8114611c1d57600080fd5b50565b600081359050611c2f81611c09565b92915050565b60008060408385031215611c4c57611c4b6119aa565b5b6000611c5a858286016119d0565b9250506020611c6b85828601611c20565b9150509250929050565b60008115159050919050565b611c8a81611c75565b82525050565b6000602082019050611ca56000830184611c81565b92915050565b600081519050611cba81611c09565b92915050565b600060208284031215611cd657611cd56119aa565b5b6000611ce484828501611cab565b91505092915050565b600082825260208201905092915050565b7f536f72727920796f752063616e6e6f74207669657720746865206f666665727360008201527f20666f722074686973206361726420617320796f7520617265206e6f7420746860208201527f65206f776e657200000000000000000000000000000000000000000000000000604082015250565b6000611d80604783611ced565b9150611d8b82611cfe565b606082019050919050565b60006020820190508181036000830152611daf81611d73565b9050919050565b7f4e487b7100000000000000000000000000000000000000000000000000000000600052604160045260246000fd5b7f4e487b7100000000000000000000000000000000000000000000000000000000600052603260045260246000fd5b7f4e487b7100000000000000000000000000000000000000000000000000000000600052601160045260246000fd5b6000611e4e826119af565b91507fffffffffffffffffffffffffffffffffffffffffffffffffffffffffffffffff8203611e8057611e7f611e14565b5b600182019050919050565b7f43617264206973206e6f74206c697374656420666f722073616c650000000000600082015250565b6000611ec1601b83611ced565b9150611ecc82611e8b565b602082019050919050565b60006020820190508181036000830152611ef081611eb4565b9050919050565b600081519050611f06816119b9565b92915050565b600060208284031215611f2257611f216119aa565b5b6000611f3084828501611ef7565b91505092915050565b7f496e73756666696369656e742047656d73000000000000000000000000000000600082015250565b6000611f6f601183611ced565b9150611f7a82611f39565b602082019050919050565b60006020820190508181036000830152611f9e81611f62565b9050919050565b7f596f75206861766520616c7265616479206d61646520616e206f66666572206660008201527f6f72207468697320636172640000000000000000000000000000000000000000602082015250565b6000612001602c83611ced565b915061200c82611fa5565b604082019050919050565b6000602082019050818103600083015261203081611ff4565b9050919050565b7f536f7272792c20796f7520617265206e6f7420616c6c6f77656420746f20646f60008201527f2074686174000000000000000000000000000000000000000000000000000000602082015250565b6000612093602583611ced565b915061209e82612037565b604082019050919050565b600060208201905081810360008301526120c281612086565b9050919050565b60006040820190506120de6000830185611bdf565b6120eb6020830184611bb5565b9392505050565b6120fb81611c75565b811461210657600080fd5b50565b600081519050612118816120f2565b92915050565b600060208284031215612134576121336119aa565b5b600061214284828501612109565b91505092915050565b6000612156826119af565b9150612161836119af565b925082820261216f816119af565b9150828204841483151761218657612185611e14565b5b5092915050565b7f4e487b7100000000000000000000000000000000000000000000000000000000600052601260045260246000fd5b60006121c7826119af565b91506121d2836119af565b9250826121e2576121e161218d565b5b828204905092915050565b7f536f72727920796f752063616e6e6f74206c697374207468697320636172642060008201527f617320796f7520617265206e6f7420746865206f776e65720000000000000000602082015250565b6000612249603883611ced565b9150612254826121ed565b604082019050919050565b600060208201905081810360008301526122788161223c565b9050919050565b7f536f72727920796f752063616e6e6f7420616363657074206f6666657273206660008201527f6f722074686973206361726420617320796f7520617265206e6f74207468652060208201527f6f776e6572000000000000000000000000000000000000000000000000000000604082015250565b6000612301604583611ced565b915061230c8261227f565b606082019050919050565b60006020820190508181036000830152612330816122f4565b9050919050565b7f4f6666657220646f6573206e6f74206578697374730000000000000000000000600082015250565b600061236d601583611ced565b915061237882612337565b602082019050919050565b6000602082019050818103600083015261239c81612360565b9050919050565b7f596f752068617665206e6f74206d61646520616e206f6666657220666f72207460008201527f6869732063617264000000000000000000000000000000000000000000000000602082015250565b60006123ff602883611ced565b915061240a826123a3565b604082019050919050565b6000602082019050818103600083015261242e816123f2565b9050919050565b600060608201905061244a6000830186611bdf565b6124576020830185611bdf565b6124646040830184611bb5565b949350505050565b7f536f72727920796f752063616e6e6f7420756e6c69737420746869732063617260008201527f6420617320796f7520617265206e6f7420746865206f776e6572000000000000602082015250565b60006124c8603a83611ced565b91506124d38261246c565b604082019050919050565b600060208201905081810360008301526124f7816124bb565b9050919050565b6000612509826119af565b9150612514836119af565b925082820390508181111561252c5761252b611e14565b5b92915050565b7f4e487b7100000000000000000000000000000000000000000000000000000000600052603160045260246000fdfea264697066735822122042ee19a10c1b65d5d87abd9c89113b6f5d634cd457ab8cd032f298d4db0a356f64736f6c63430008120033",
  "immutableReferences": {},
  "source": "// SPDX-License-Identifier: MIT\npragma solidity ^0.8.17;\n\nimport \"./Gem.sol\";\nimport \"./BeastCard.sol\";\n\ncontract Marketplace {\n    BeastCard CardContract;\n    Gem GemContract;\n    //uint256 public comissionFee;\n    address _owner = msg.sender;\n\n    struct Offer {\n        address owner;\n        uint256 offerValue;\n        uint256 offerCardId;\n    }\n\n    mapping(uint256 => uint256) listPrice;\n    mapping(uint256 => Offer[]) offers;\n\n        constructor(BeastCard beastAddress, Gem gemAddress) {\n            CardContract = beastAddress;\n            GemContract = gemAddress;\n        }\n\n    function list(uint256 cardID, uint256 price) public {\n        require(msg.sender == CardContract.ownerOf(cardID), \"Sorry you cannot list this card as you are not the owner\");\n        listPrice[cardID] = price;\n        //offers[cardID] = new Offer[];\n    }\n\n    function unlist(uint256 cardID) public {\n        require(msg.sender == CardContract.ownerOf(cardID), \"Sorry you cannot unlist this card as you are not the owner\");\n        listPrice[cardID] = 0;\n        delete offers[cardID];\n    }\n\n    function checkPrice(uint256 cardID) public view returns(uint) {\n        return uint(listPrice[cardID])*105/100; // Charge 5% commission\n    }\n\n    function makeOffer(uint256 cardID, uint256 offerPrice) public {\n        require(listPrice[cardID] != 0, \"Card is not listed for sale\");\n        require(GemContract.balanceOf(msg.sender) >= offerPrice, \"Insufficient Gems\");\n        require(checkOfferExists(cardID, address(msg.sender)) == false, \"You have already made an offer for this card\");\n        Offer memory newOffer = Offer({\n            owner: address(msg.sender),\n            offerValue: offerPrice,\n            offerCardId: cardID\n        });\n        offers[cardID].push(newOffer);\n    }\n\n    function checkOffers(uint256 cardID) public view returns(Offer[] memory) {\n        require(msg.sender == CardContract.ownerOf(cardID), \"Sorry you cannot view the offers for this card as you are not the owner\");\n        uint256 numOffers = offers[cardID].length;\n        Offer[] memory id = new Offer[](numOffers);\n        for (uint i = 0; i < numOffers; i++) {\n            Offer storage offer = offers[cardID][i];\n            id[i] = offer;\n        }\n        return id;\n    }\n\n    function acceptOffer(uint256 cardID, address offerer) public {\n        require(msg.sender == CardContract.ownerOf(cardID), \"Sorry you cannot accept offers for this card as you are not the owner\");\n        require(checkOfferExists(cardID, offerer) == true, \"Offer does not exists\");\n        require(checkOfferExists(cardID, address(msg.sender)) == false, \"You have not made an offer for this card\");\n        uint256 price;\n\n        uint256 numOffers = offers[cardID].length;\n        for (uint i = 0; i < numOffers; i++) {\n            if(offers[cardID][i].owner == offerer) {\n                price = offers[cardID][i].offerValue;\n            }\n        }\n\n        GemContract.transferGemsFrom(offerer, msg.sender, price);\n        GemContract.transferGemsFrom(offerer, address(this), price* 5/100);\n        CardContract.safeTransferFrom(msg.sender, offerer, cardID);\n\n        listPrice[cardID] = 0;\n        delete offers[cardID];\n    }\n\n    function checkOfferExists(uint256 cardID, address offerer) public view returns(bool exists) {\n        // Offer[] offerArray = offers[cardID];\n        uint256 numOffers = offers[cardID].length;\n        for (uint i = 0; i < numOffers; i++) {\n            // Offer storage offer = offerArray[i];\n            if(offers[cardID][i].owner == offerer) {\n                exists = true;\n                return exists;\n            }\n        }\n    }\n    \n    /*\n    function remove(uint index, Offer[] array) public {\n        array[index] = array[array.length - 1];\n        array.pop();\n    }\n    */\n\n    function retractOffer(uint256 cardID) public {\n        require(checkOfferExists(cardID, address(msg.sender)) == true, \"You have not made an offer for this card\");\n        // Offer[] offerArray = offers[cardID];\n        address Offerer = address(msg.sender);\n        uint256 numOffers = offers[cardID].length;\n        for (uint i = 0; i < numOffers; i++) {\n            // Offer storage offer = offerArray[i];\n            if(offers[cardID][i].owner == Offerer) {\n                // remove(i, offers[cardID]);\n                offers[cardID][i] = offers[cardID][numOffers - 1];\n                offers[cardID].pop();\n            }\n        }\n    }\n\n    function buy(uint256 cardID) public {\n        require(listPrice[cardID] != 0, \"Card is not listed for sale\");\n        require(GemContract.balanceOf(msg.sender) >= this.checkPrice(cardID), \"Insufficient Gems\");\n\n        address recipent = address(uint160(CardContract.ownerOf(cardID)));\n        address seller = recipent;\n        GemContract.transferGemsFrom(msg.sender ,recipent, listPrice[cardID]); // transfer price to seller\n        GemContract.transferGemsFrom(msg.sender, address(this), listPrice[cardID]*5/100); // transfer commission to this contract\n        CardContract.safeTransferFrom(seller, address(msg.sender), cardID);\n\n        listPrice[cardID] = 0;\n        delete offers[cardID];\n    }\n\n    function getContractOwner() public view returns(address) {\n        return _owner;\n    }\n\n    function withDraw() public { // Withdraw commission\n        require(msg.sender == _owner, \"Sorry, you are not allowed to do that\");\n        if(msg.sender == _owner) {\n            GemContract.transferGems(msg.sender, address(this).balance);\n        }\n    }\n\n    function checkComission() public view returns(uint256) {\n        require(msg.sender == _owner, \"Sorry, you are not allowed to do that\");\n        return GemContract.checkGemsOf(address(this));\n    }\n}",
  "sourcePath": "/Users/luthertan/Documents/Y3S2/BT3103/YourmaskedID/is4302placeholdername/contracts/Marketplace.sol",
  "compiler": {
    "name": "solc",
    "version": "0.8.18+commit.87f61d96.Emscripten.clang"
  },
  "schemaVersion": "3.4.11",
  "updatedAt": "2023-04-07T13:40:30.650Z",
  "devdoc": {
    "kind": "dev",
    "methods": {},
    "version": 1
  },
  "userdoc": {
    "kind": "user",
    "methods": {},
    "version": 1
  }
}