{
  "contractName": "MMR",
  "abi": [
    {
      "inputs": [
        {
          "internalType": "address",
          "name": "user",
          "type": "address"
        }
      ],
      "name": "isNew",
      "outputs": [
        {
          "internalType": "bool",
          "name": "",
          "type": "bool"
        }
      ],
      "stateMutability": "view",
      "type": "function"
    },
    {
      "inputs": [
        {
          "internalType": "address",
          "name": "user",
          "type": "address"
        }
      ],
      "name": "initialiseUser",
      "outputs": [],
      "stateMutability": "nonpayable",
      "type": "function"
    },
    {
      "inputs": [
        {
          "internalType": "address",
          "name": "user",
          "type": "address"
        }
      ],
      "name": "getMMR",
      "outputs": [
        {
          "internalType": "uint256",
          "name": "",
          "type": "uint256"
        }
      ],
      "stateMutability": "view",
      "type": "function"
    },
    {
      "inputs": [
        {
          "internalType": "address",
          "name": "winner",
          "type": "address"
        },
        {
          "internalType": "address",
          "name": "loser",
          "type": "address"
        }
      ],
      "name": "updateMMR",
      "outputs": [],
      "stateMutability": "nonpayable",
      "type": "function"
    }
  ],
  "bytecode": "0x608060405234801561001057600080fd5b50610625806100206000396000f3fe608060405234801561001057600080fd5b506004361061004c5760003560e01c80630639f3ce146100515780633f36827914610081578063bee061f91461009d578063f31defcb146100cd575b600080fd5b61006b60048036038101906100669190610481565b6100e9565b60405161007891906104c9565b60405180910390f35b61009b600480360381019061009691906104e4565b610133565b005b6100b760048036038101906100b29190610481565b610348565b6040516100c4919061053d565b60405180910390f35b6100e760048036038101906100e29190610481565b610390565b005b6000806000808473ffffffffffffffffffffffffffffffffffffffff1673ffffffffffffffffffffffffffffffffffffffff16815260200190815260200160002054149050919050565b60008060008473ffffffffffffffffffffffffffffffffffffffff1673ffffffffffffffffffffffffffffffffffffffff16815260200190815260200160002054905060008060008473ffffffffffffffffffffffffffffffffffffffff1673ffffffffffffffffffffffffffffffffffffffff168152602001908152602001600020549050600081836101c79190610587565b90506000600a905060008211156101e157600590506101f0565b60008210156101ef57600f90505b5b82811061029557806000808873ffffffffffffffffffffffffffffffffffffffff1673ffffffffffffffffffffffffffffffffffffffff168152602001908152602001600020600082825461024591906105bb565b9250508190555060016000808773ffffffffffffffffffffffffffffffffffffffff1673ffffffffffffffffffffffffffffffffffffffff16815260200190815260200160002081905550610340565b806000808873ffffffffffffffffffffffffffffffffffffffff1673ffffffffffffffffffffffffffffffffffffffff16815260200190815260200160002060008282546102e391906105bb565b92505081905550806000808773ffffffffffffffffffffffffffffffffffffffff1673ffffffffffffffffffffffffffffffffffffffff16815260200190815260200160002060008282546103389190610587565b925050819055505b505050505050565b60008060008373ffffffffffffffffffffffffffffffffffffffff1673ffffffffffffffffffffffffffffffffffffffff168152602001908152602001600020549050919050565b60008060008373ffffffffffffffffffffffffffffffffffffffff1673ffffffffffffffffffffffffffffffffffffffff168152602001908152602001600020540361041b5760646000808373ffffffffffffffffffffffffffffffffffffffff1673ffffffffffffffffffffffffffffffffffffffff168152602001908152602001600020819055505b50565b600080fd5b600073ffffffffffffffffffffffffffffffffffffffff82169050919050565b600061044e82610423565b9050919050565b61045e81610443565b811461046957600080fd5b50565b60008135905061047b81610455565b92915050565b6000602082840312156104975761049661041e565b5b60006104a58482850161046c565b91505092915050565b60008115159050919050565b6104c3816104ae565b82525050565b60006020820190506104de60008301846104ba565b92915050565b600080604083850312156104fb576104fa61041e565b5b60006105098582860161046c565b925050602061051a8582860161046c565b9150509250929050565b6000819050919050565b61053781610524565b82525050565b6000602082019050610552600083018461052e565b92915050565b7f4e487b7100000000000000000000000000000000000000000000000000000000600052601160045260246000fd5b600061059282610524565b915061059d83610524565b92508282039050818111156105b5576105b4610558565b5b92915050565b60006105c682610524565b91506105d183610524565b92508282019050808211156105e9576105e8610558565b5b9291505056fea264697066735822122063a627e51ea3d36336b314d7dabb8349a1f9286a477489d0dd633c175348bb3664736f6c63430008120033",
  "immutableReferences": {},
  "source": "// SPDX-License-Identifier: MIT\npragma solidity ^0.8.2;\n\ncontract MMR {\n    mapping(address => uint256) internal _playerMMR;\n\n    function isNew(address user) public view returns (bool) {\n        return _playerMMR[user] == 0;\n    }\n\n    function initialiseUser(address user) public {\n        if(_playerMMR[user] == 0) {\n            _playerMMR[user] = 100;\n        }\n    }\n\n    // Lowest MMR is 1\n    // MMR = 0 means user has not been initialised\n    function getMMR(address user) public view returns (uint256) {\n        return _playerMMR[user];\n    }\n\n    // Function to update MMR given a loser and winner\n    function updateMMR(address winner, address loser) public {\n        uint256 winnerMMR = _playerMMR[winner];\n        uint256 loserMMR = _playerMMR[loser];\n        uint256 diff = winnerMMR - loserMMR;\n        uint256 change = 10;\n        if (diff > 0) {\n            // Winner has higher MMR\n            // Winner should win less and loser should lose less\n            change = 5; \n        } else if (diff < 0) {\n            // Loser has higher MMR\n            // Loser should win more and winner should lose more\n            change = 15;\n        } \n        if (change >= loserMMR) {\n            _playerMMR[winner] += change;\n            _playerMMR[loser] = 1; // Set to 1 if lose till negative\n        } else {\n            _playerMMR[winner] += change;\n            _playerMMR[loser] -= change;\n        }\n    }\n}",
  "sourcePath": "/Users/luthertan/Documents/Y3S2/BT3103/YourmaskedID/is4302placeholdername/contracts/MMR.sol",
  "compiler": {
    "name": "solc",
    "version": "0.8.18+commit.87f61d96.Emscripten.clang"
  },
  "schemaVersion": "3.4.11",
  "updatedAt": "2023-04-06T18:51:06.714Z",
  "devdoc": {
    "kind": "dev",
    "methods": {},
    "version": 1
  },
  "userdoc": {
    "kind": "user",
    "methods": {},
    "version": 1
  }
}