{
  "contractName": "StakingRewards",
  "abi": [
    {
      "inputs": [
        {
          "internalType": "address",
          "name": "stakingToken",
          "type": "address"
        },
        {
          "internalType": "address",
          "name": "rewardsToken",
          "type": "address"
        },
        {
          "internalType": "uint256",
          "name": "rewardPool",
          "type": "uint256"
        }
      ],
      "stateMutability": "nonpayable",
      "type": "constructor"
    },
    {
      "anonymous": false,
      "inputs": [
        {
          "indexed": true,
          "internalType": "address",
          "name": "user",
          "type": "address"
        },
        {
          "indexed": false,
          "internalType": "uint256",
          "name": "amount",
          "type": "uint256"
        }
      ],
      "name": "ClaimReward",
      "type": "event"
    },
    {
      "anonymous": false,
      "inputs": [
        {
          "indexed": true,
          "internalType": "address",
          "name": "user",
          "type": "address"
        },
        {
          "indexed": false,
          "internalType": "uint256",
          "name": "amount",
          "type": "uint256"
        }
      ],
      "name": "Stake",
      "type": "event"
    },
    {
      "anonymous": false,
      "inputs": [
        {
          "indexed": false,
          "internalType": "bool",
          "name": "poolStatus",
          "type": "bool"
        }
      ],
      "name": "StakingPoolLive",
      "type": "event"
    },
    {
      "anonymous": false,
      "inputs": [
        {
          "indexed": true,
          "internalType": "address",
          "name": "user",
          "type": "address"
        },
        {
          "indexed": false,
          "internalType": "uint256",
          "name": "amount",
          "type": "uint256"
        }
      ],
      "name": "Withdraw",
      "type": "event"
    },
    {
      "inputs": [],
      "name": "accGemPerShare",
      "outputs": [
        {
          "internalType": "uint256",
          "name": "",
          "type": "uint256"
        }
      ],
      "stateMutability": "view",
      "type": "function"
    },
    {
      "inputs": [],
      "name": "contractOwner",
      "outputs": [
        {
          "internalType": "address",
          "name": "",
          "type": "address"
        }
      ],
      "stateMutability": "view",
      "type": "function"
    },
    {
      "inputs": [],
      "name": "gem",
      "outputs": [
        {
          "internalType": "contract Gem",
          "name": "",
          "type": "address"
        }
      ],
      "stateMutability": "view",
      "type": "function"
    },
    {
      "inputs": [],
      "name": "lastRewardTimestamp",
      "outputs": [
        {
          "internalType": "uint256",
          "name": "",
          "type": "uint256"
        }
      ],
      "stateMutability": "view",
      "type": "function"
    },
    {
      "inputs": [],
      "name": "lpToken",
      "outputs": [
        {
          "internalType": "contract LPtoken",
          "name": "",
          "type": "address"
        }
      ],
      "stateMutability": "view",
      "type": "function"
    },
    {
      "inputs": [],
      "name": "maxDailyReward",
      "outputs": [
        {
          "internalType": "uint256",
          "name": "",
          "type": "uint256"
        }
      ],
      "stateMutability": "view",
      "type": "function"
    },
    {
      "inputs": [],
      "name": "rewardPerSecond",
      "outputs": [
        {
          "internalType": "uint256",
          "name": "",
          "type": "uint256"
        }
      ],
      "stateMutability": "view",
      "type": "function"
    },
    {
      "inputs": [
        {
          "internalType": "address",
          "name": "",
          "type": "address"
        }
      ],
      "name": "stakers",
      "outputs": [
        {
          "internalType": "uint256",
          "name": "amount",
          "type": "uint256"
        },
        {
          "internalType": "uint256",
          "name": "rewardDebt",
          "type": "uint256"
        }
      ],
      "stateMutability": "view",
      "type": "function"
    },
    {
      "inputs": [],
      "name": "stakingPoolLive",
      "outputs": [
        {
          "internalType": "bool",
          "name": "",
          "type": "bool"
        }
      ],
      "stateMutability": "view",
      "type": "function"
    },
    {
      "inputs": [],
      "name": "totalRewardPool",
      "outputs": [
        {
          "internalType": "uint256",
          "name": "",
          "type": "uint256"
        }
      ],
      "stateMutability": "view",
      "type": "function"
    },
    {
      "inputs": [],
      "name": "totalStakingShares",
      "outputs": [
        {
          "internalType": "uint256",
          "name": "",
          "type": "uint256"
        }
      ],
      "stateMutability": "view",
      "type": "function"
    },
    {
      "inputs": [],
      "name": "setStakingPoolLive",
      "outputs": [],
      "stateMutability": "nonpayable",
      "type": "function"
    },
    {
      "inputs": [
        {
          "internalType": "address",
          "name": "_user",
          "type": "address"
        }
      ],
      "name": "pendingReward",
      "outputs": [
        {
          "internalType": "uint256",
          "name": "",
          "type": "uint256"
        }
      ],
      "stateMutability": "view",
      "type": "function"
    },
    {
      "inputs": [
        {
          "internalType": "uint256",
          "name": "amountToStake",
          "type": "uint256"
        }
      ],
      "name": "stake",
      "outputs": [],
      "stateMutability": "nonpayable",
      "type": "function"
    },
    {
      "inputs": [
        {
          "internalType": "uint256",
          "name": "amountToWithdraw",
          "type": "uint256"
        }
      ],
      "name": "withdraw",
      "outputs": [],
      "stateMutability": "nonpayable",
      "type": "function"
    },
    {
      "inputs": [],
      "name": "claimReward",
      "outputs": [],
      "stateMutability": "nonpayable",
      "type": "function"
    }
  ],
  "bytecode": "0x60806040523480156200001157600080fd5b5060405162001d5838038062001d58833981810160405281019062000037919062000216565b826000806101000a81548173ffffffffffffffffffffffffffffffffffffffff021916908373ffffffffffffffffffffffffffffffffffffffff16021790555081600160006101000a81548173ffffffffffffffffffffffffffffffffffffffff021916908373ffffffffffffffffffffffffffffffffffffffff1602179055508060078190555061016d670de0b6b3a7640000600754620000da9190620002a1565b620000e691906200031b565b60068190555062015180600654620000ff91906200031b565b600281905550426005819055506000600860146101000a81548160ff02191690831515021790555033600860006101000a81548173ffffffffffffffffffffffffffffffffffffffff021916908373ffffffffffffffffffffffffffffffffffffffff16021790555050505062000353565b600080fd5b600073ffffffffffffffffffffffffffffffffffffffff82169050919050565b6000620001a38262000176565b9050919050565b620001b58162000196565b8114620001c157600080fd5b50565b600081519050620001d581620001aa565b92915050565b6000819050919050565b620001f081620001db565b8114620001fc57600080fd5b50565b6000815190506200021081620001e5565b92915050565b60008060006060848603121562000232576200023162000171565b5b60006200024286828701620001c4565b93505060206200025586828701620001c4565b92505060406200026886828701620001ff565b9150509250925092565b7f4e487b7100000000000000000000000000000000000000000000000000000000600052601160045260246000fd5b6000620002ae82620001db565b9150620002bb83620001db565b9250828202620002cb81620001db565b91508282048414831517620002e557620002e462000272565b5b5092915050565b7f4e487b7100000000000000000000000000000000000000000000000000000000600052601260045260246000fd5b60006200032882620001db565b91506200033583620001db565b925082620003485762000347620002ec565b5b828204905092915050565b6119f580620003636000396000f3fe608060405234801561001057600080fd5b50600436106101005760003560e01c80639168ae7211610097578063bef8c25911610066578063bef8c25914610254578063ce606ee014610272578063f40f0f5214610290578063f8077fae146102c057610100565b80639168ae72146101df578063924f85bc14610210578063a694fc3a1461022e578063b88a802f1461024a57610100565b80635fcbd285116100d35780635fcbd2851461016757806370c6a17e146101855780637bd2bea7146101a35780638f10369a146101c157610100565b806309c85e241461010557806326be0c86146101235780632e1a7d4d1461012d5780635fb8720614610149575b600080fd5b61010d6102de565b60405161011a91906111d1565b60405180910390f35b61012b6102e4565b005b6101476004803603810190610142919061121d565b610592565b005b6101516108dc565b60405161015e91906111d1565b60405180910390f35b61016f6108e2565b60405161017c91906112c9565b60405180910390f35b61018d610906565b60405161019a91906111d1565b60405180910390f35b6101ab61090c565b6040516101b89190611305565b60405180910390f35b6101c9610932565b6040516101d691906111d1565b60405180910390f35b6101f960048036038101906101f4919061135e565b610938565b60405161020792919061138b565b60405180910390f35b61021861095c565b60405161022591906113cf565b60405180910390f35b6102486004803603810190610243919061121d565b61096f565b005b610252610cb3565b005b61025c610f0b565b60405161026991906111d1565b60405180910390f35b61027a610f11565b60405161028791906113f9565b60405180910390f35b6102aa60048036038101906102a5919061135e565b610f37565b6040516102b791906111d1565b60405180910390f35b6102c86110b3565b6040516102d591906111d1565b60405180910390f35b60075481565b600860009054906101000a900473ffffffffffffffffffffffffffffffffffffffff1673ffffffffffffffffffffffffffffffffffffffff163373ffffffffffffffffffffffffffffffffffffffff1614610374576040517f08c379a000000000000000000000000000000000000000000000000000000000815260040161036b90611471565b60405180910390fd5b600754600160009054906101000a900473ffffffffffffffffffffffffffffffffffffffff1673ffffffffffffffffffffffffffffffffffffffff166346ed2bcb336040518263ffffffff1660e01b81526004016103d291906113f9565b602060405180830381865afa1580156103ef573d6000803e3d6000fd5b505050506040513d601f19601f8201168201806040525081019061041391906114a6565b1015610454576040517f08c379a000000000000000000000000000000000000000000000000000000000815260040161044b90611545565b60405180910390fd5b60001515600860149054906101000a900460ff161515146104aa576040517f08c379a00000000000000000000000000000000000000000000000000000000081526004016104a1906115b1565b60405180910390fd5b600160009054906101000a900473ffffffffffffffffffffffffffffffffffffffff1673ffffffffffffffffffffffffffffffffffffffff16632a73ac1f33306007546040518463ffffffff1660e01b815260040161050b939291906115d1565b600060405180830381600087803b15801561052557600080fd5b505af1158015610539573d6000803e3d6000fd5b505050506001600860146101000a81548160ff0219169083151502179055507f8e05118adcbab216d6887fc6d2b13f074d9a0fa4e8d3a1146686bd0bdfebfe37600160405161058891906113cf565b60405180910390a1565b600860149054906101000a900460ff166105e1576040517f08c379a00000000000000000000000000000000000000000000000000000000081526004016105d8906116a0565b60405180910390fd5b6000600960003373ffffffffffffffffffffffffffffffffffffffff1673ffffffffffffffffffffffffffffffffffffffff1681526020019081526020016000209050818160000154101561066b576040517f08c379a00000000000000000000000000000000000000000000000000000000081526004016106629061170c565b60405180910390fd5b6106736110b9565b60006106be82600101546106b0670de0b6b3a76400006106a2600454876000015461116090919063ffffffff16565b61117690919063ffffffff16565b61118c90919063ffffffff16565b9050600081111561076b57600160009054906101000a900473ffffffffffffffffffffffffffffffffffffffff1673ffffffffffffffffffffffffffffffffffffffff1663a9059cbb33836040518363ffffffff1660e01b815260040161072692919061172c565b6020604051808303816000875af1158015610745573d6000803e3d6000fd5b505050506040513d601f19601f820116820180604052508101906107699190611781565b505b600083111561084e5761078b83836000015461118c90919063ffffffff16565b82600001819055506107a88360035461118c90919063ffffffff16565b60038190555060008054906101000a900473ffffffffffffffffffffffffffffffffffffffff1673ffffffffffffffffffffffffffffffffffffffff1663a9059cbb33856040518363ffffffff1660e01b815260040161080992919061172c565b6020604051808303816000875af1158015610828573d6000803e3d6000fd5b505050506040513d601f19601f8201168201806040525081019061084c9190611781565b505b610881670de0b6b3a7640000610873600454856000015461116090919063ffffffff16565b61117690919063ffffffff16565b82600101819055503373ffffffffffffffffffffffffffffffffffffffff167f884edad9ce6fa2440d8a54cc123490eb96d2768479d49ff9c7366125a9424364846040516108cf91906111d1565b60405180910390a2505050565b60065481565b60008054906101000a900473ffffffffffffffffffffffffffffffffffffffff1681565b60035481565b600160009054906101000a900473ffffffffffffffffffffffffffffffffffffffff1681565b60025481565b60096020528060005260406000206000915090508060000154908060010154905082565b600860149054906101000a900460ff1681565b600860149054906101000a900460ff166109be576040517f08c379a00000000000000000000000000000000000000000000000000000000081526004016109b5906116a0565b60405180910390fd5b60008111610a01576040517f08c379a00000000000000000000000000000000000000000000000000000000081526004016109f8906117fa565b60405180910390fd5b610a096110b9565b6000600960003373ffffffffffffffffffffffffffffffffffffffff1673ffffffffffffffffffffffffffffffffffffffff1681526020019081526020016000209050600081600001541115610b53576000610aa48260010154610a96670de0b6b3a7640000610a88600454876000015461116090919063ffffffff16565b61117690919063ffffffff16565b61118c90919063ffffffff16565b90506000811115610b5157600160009054906101000a900473ffffffffffffffffffffffffffffffffffffffff1673ffffffffffffffffffffffffffffffffffffffff1663a9059cbb33836040518363ffffffff1660e01b8152600401610b0c92919061172c565b6020604051808303816000875af1158015610b2b573d6000803e3d6000fd5b505050506040513d601f19601f82011682018060405250810190610b4f9190611781565b505b505b6000821115610c265760008054906101000a900473ffffffffffffffffffffffffffffffffffffffff1673ffffffffffffffffffffffffffffffffffffffff1663121af5493330856040518463ffffffff1660e01b8152600401610bb9939291906115d1565b600060405180830381600087803b158015610bd357600080fd5b505af1158015610be7573d6000803e3d6000fd5b50505050610c028282600001546111a290919063ffffffff16565b8160000181905550610c1f826003546111a290919063ffffffff16565b6003819055505b610c59670de0b6b3a7640000610c4b600454846000015461116090919063ffffffff16565b61117690919063ffffffff16565b81600101819055503373ffffffffffffffffffffffffffffffffffffffff167febedb8b3c678666e7f36970bc8f57abf6d8fa2e828c0da91ea5b75bf68ed101a83604051610ca791906111d1565b60405180910390a25050565b600860149054906101000a900460ff16610d02576040517f08c379a0000000000000000000000000000000000000000000000000000000008152600401610cf9906116a0565b60405180910390fd5b610d0a6110b9565b6000600960003373ffffffffffffffffffffffffffffffffffffffff1673ffffffffffffffffffffffffffffffffffffffff16815260200190815260200160002090506000610d988260010154610d8a670de0b6b3a7640000610d7c600454876000015461116090919063ffffffff16565b61117690919063ffffffff16565b61118c90919063ffffffff16565b905060008111610ddd576040517f08c379a0000000000000000000000000000000000000000000000000000000008152600401610dd490611866565b60405180910390fd5b610e10670de0b6b3a7640000610e02600454856000015461116090919063ffffffff16565b61117690919063ffffffff16565b8260010181905550600160009054906101000a900473ffffffffffffffffffffffffffffffffffffffff1673ffffffffffffffffffffffffffffffffffffffff1663a9059cbb33836040518363ffffffff1660e01b8152600401610e7592919061172c565b6020604051808303816000875af1158015610e94573d6000803e3d6000fd5b505050506040513d601f19601f82011682018060405250810190610eb89190611781565b503373ffffffffffffffffffffffffffffffffffffffff167fba8de60c3403ec381d1d484652ea1980e3c3e56359195c92525bff4ce47ad98e82604051610eff91906111d1565b60405180910390a25050565b60045481565b600860009054906101000a900473ffffffffffffffffffffffffffffffffffffffff1681565b6000600860149054906101000a900460ff16610f88576040517f08c379a0000000000000000000000000000000000000000000000000000000008152600401610f7f906116a0565b60405180910390fd5b6000600960008473ffffffffffffffffffffffffffffffffffffffff1673ffffffffffffffffffffffffffffffffffffffff16815260200190815260200160002090506000600454905060055442118015610fe65750600060035414155b156110635760006110026005544261118c90919063ffffffff16565b9050600061101b6002548361116090919063ffffffff16565b905061105e61104f600354611041670de0b6b3a76400008561116090919063ffffffff16565b61117690919063ffffffff16565b846111a290919063ffffffff16565b925050505b6110aa826001015461109c670de0b6b3a764000061108e85876000015461116090919063ffffffff16565b61117690919063ffffffff16565b61118c90919063ffffffff16565b92505050919050565b60055481565b60055442111561115e576000600354036110d9574260058190555061115e565b60006110f06005544261118c90919063ffffffff16565b905060006111096002548361116090919063ffffffff16565b905061114e61113d60035461112f670de0b6b3a76400008561116090919063ffffffff16565b61117690919063ffffffff16565b6004546111a290919063ffffffff16565b6004819055504260058190555050505b565b6000818361116e91906118b5565b905092915050565b600081836111849190611926565b905092915050565b6000818361119a9190611957565b905092915050565b600081836111b0919061198b565b905092915050565b6000819050919050565b6111cb816111b8565b82525050565b60006020820190506111e660008301846111c2565b92915050565b600080fd5b6111fa816111b8565b811461120557600080fd5b50565b600081359050611217816111f1565b92915050565b600060208284031215611233576112326111ec565b5b600061124184828501611208565b91505092915050565b600073ffffffffffffffffffffffffffffffffffffffff82169050919050565b6000819050919050565b600061128f61128a6112858461124a565b61126a565b61124a565b9050919050565b60006112a182611274565b9050919050565b60006112b382611296565b9050919050565b6112c3816112a8565b82525050565b60006020820190506112de60008301846112ba565b92915050565b60006112ef82611296565b9050919050565b6112ff816112e4565b82525050565b600060208201905061131a60008301846112f6565b92915050565b600061132b8261124a565b9050919050565b61133b81611320565b811461134657600080fd5b50565b60008135905061135881611332565b92915050565b600060208284031215611374576113736111ec565b5b600061138284828501611349565b91505092915050565b60006040820190506113a060008301856111c2565b6113ad60208301846111c2565b9392505050565b60008115159050919050565b6113c9816113b4565b82525050565b60006020820190506113e460008301846113c0565b92915050565b6113f381611320565b82525050565b600060208201905061140e60008301846113ea565b92915050565b600082825260208201905092915050565b7f4f776e61626c653a2063616c6c6572206973206e6f7420746865206f776e6572600082015250565b600061145b602083611414565b915061146682611425565b602082019050919050565b6000602082019050818103600083015261148a8161144e565b9050919050565b6000815190506114a0816111f1565b92915050565b6000602082840312156114bc576114bb6111ec565b5b60006114ca84828501611491565b91505092915050565b7f596f7520646f206e6f7420686176652073756666696369656e742047656d206660008201527f6f722074686520726577617264506f6f6c000000000000000000000000000000602082015250565b600061152f603183611414565b915061153a826114d3565b604082019050919050565b6000602082019050818103600083015261155e81611522565b9050919050565b7f5374616b696e6720706f6f6c20697320616c7265616479206c69766500000000600082015250565b600061159b601c83611414565b91506115a682611565565b602082019050919050565b600060208201905081810360008301526115ca8161158e565b9050919050565b60006060820190506115e660008301866113ea565b6115f360208301856113ea565b61160060408301846111c2565b949350505050565b7f5374616b696e6720506f6f6c206973206e6f74206c697665207965742c20506c60008201527f656173652067657420746865204f776e657220746f206465706f73697420746860208201527f6520726577617264730000000000000000000000000000000000000000000000604082015250565b600061168a604983611414565b915061169582611608565b606082019050919050565b600060208201905081810360008301526116b98161167d565b9050919050565b7f77697468647261773a206e6f7420656e6f7567682062616c616e636500000000600082015250565b60006116f6601c83611414565b9150611701826116c0565b602082019050919050565b60006020820190508181036000830152611725816116e9565b9050919050565b600060408201905061174160008301856113ea565b61174e60208301846111c2565b9392505050565b61175e816113b4565b811461176957600080fd5b50565b60008151905061177b81611755565b92915050565b600060208284031215611797576117966111ec565b5b60006117a58482850161176c565b91505092915050565b7f43616e6e6f74207374616b65203020746f6b656e730000000000000000000000600082015250565b60006117e4601583611414565b91506117ef826117ae565b602082019050919050565b60006020820190508181036000830152611813816117d7565b9050919050565b7f636c61696d5265776172643a206e6f207265776172647320746f20636c61696d600082015250565b6000611850602083611414565b915061185b8261181a565b602082019050919050565b6000602082019050818103600083015261187f81611843565b9050919050565b7f4e487b7100000000000000000000000000000000000000000000000000000000600052601160045260246000fd5b60006118c0826111b8565b91506118cb836111b8565b92508282026118d9816111b8565b915082820484148315176118f0576118ef611886565b5b5092915050565b7f4e487b7100000000000000000000000000000000000000000000000000000000600052601260045260246000fd5b6000611931826111b8565b915061193c836111b8565b92508261194c5761194b6118f7565b5b828204905092915050565b6000611962826111b8565b915061196d836111b8565b925082820390508181111561198557611984611886565b5b92915050565b6000611996826111b8565b91506119a1836111b8565b92508282019050808211156119b9576119b8611886565b5b9291505056fea264697066735822122061e8ce02475d01c4b5bf3dce8297278bda5dd9e372ca428053080da8e70fe50a64736f6c63430008120033",
  "immutableReferences": {},
  "source": "// SPDX-License-Identifier: MIT\npragma solidity ^0.8.0;\n\nimport './ERC20.sol';\nimport './Gem.sol';\nimport'./LPtoken.sol';\n\nimport \"@openzeppelin/contracts/utils/math/SafeMath.sol\"; // npm install @openzeppelin/contracts\n\ncontract StakingRewards {\n    using SafeMath for uint256;\n    LPtoken public lpToken;\n    Gem public gem;\n\n    uint256 public rewardPerSecond;\n    uint256 public totalStakingShares;\n    uint256 public accGemPerShare;\n    uint256 public lastRewardTimestamp;\n    uint256 public maxDailyReward;\n    uint256 public totalRewardPool;\n\n    address public contractOwner;\n    bool public stakingPoolLive;\n    \n    event Stake(address indexed user, uint256 amount);\n    event Withdraw(address indexed user, uint256 amount);\n    event ClaimReward(address indexed user, uint256 amount);\n    event StakingPoolLive(bool poolStatus);\n\n    struct StakeInfo {\n        uint256 amount;\n        uint256 rewardDebt;\n    }\n\n    mapping(address => StakeInfo) public stakers;\n\n    constructor(address stakingToken, address rewardsToken, uint256 rewardPool) {\n        lpToken = LPtoken(stakingToken);\n        gem = Gem(rewardsToken);\n        totalRewardPool = rewardPool;\n        maxDailyReward = (totalRewardPool * 1e18) / 365;\n        rewardPerSecond = maxDailyReward / 86400; // Fixed reward distribution by the second but the proportion of the reward \n                                                // will be determined by the staker share in the pool (accGemPerShare)\n        lastRewardTimestamp = block.timestamp;\n        stakingPoolLive = false; // this variable will turn to true once the contract deployer sends the gem (_rewardPool) \n                                //into the contract\n        contractOwner = msg.sender;\n    }\n\n    function setStakingPoolLive() public onlyOwner {\n        require(gem.checkGemsOf(msg.sender) >= totalRewardPool, \"You do not have sufficient Gem for the rewardPool\");\n        require(stakingPoolLive == false, \"Staking pool is already live\");\n        gem.transferGemsFrom(msg.sender, address(this), totalRewardPool);\n        stakingPoolLive = true;\n        emit StakingPoolLive(true);\n    }\n\n    function updatePool() internal {\n        if (block.timestamp <= lastRewardTimestamp) {\n            return;\n        }\n\n        if (totalStakingShares == 0) {\n            lastRewardTimestamp = block.timestamp;\n            return;\n        }\n\n        uint256 multiplier = block.timestamp.sub(lastRewardTimestamp);\n        uint256 gemReward = multiplier.mul(rewardPerSecond);\n        accGemPerShare = accGemPerShare.add(gemReward.mul(1e18).div(totalStakingShares));\n        lastRewardTimestamp = block.timestamp;\n    }\n\n    function pendingReward(address _user) external view checkStakingPoolStatus returns (uint256) {\n        StakeInfo storage user = stakers[_user];\n        uint256 _accGemPerShare = accGemPerShare;\n        if (block.timestamp > lastRewardTimestamp && totalStakingShares != 0) {\n            uint256 multiplier = block.timestamp.sub(lastRewardTimestamp);\n            uint256 gemReward = multiplier.mul(rewardPerSecond);\n            _accGemPerShare = _accGemPerShare.add(gemReward.mul(1e18).div(totalStakingShares));\n        }\n        return user.amount.mul(_accGemPerShare).div(1e18).sub(user.rewardDebt);\n    }\n\n    function stake(uint256 amountToStake) external checkStakingPoolStatus {\n        require(amountToStake > 0, \"Cannot stake 0 tokens\");\n        updatePool();\n        StakeInfo storage user = stakers[msg.sender];\n        if (user.amount > 0) {\n            uint256 pending = user.amount.mul(accGemPerShare).div(1e18).sub(user.rewardDebt);\n            if (pending > 0) {\n                gem.transfer(msg.sender, pending);\n            }\n        }\n        if (amountToStake > 0) {\n            lpToken.transferLPtokenFrom(msg.sender, address(this), amountToStake);\n            user.amount = user.amount.add(amountToStake);\n            totalStakingShares = totalStakingShares.add(amountToStake);\n        }\n        user.rewardDebt = user.amount.mul(accGemPerShare).div(1e18);\n        emit Stake(msg.sender, amountToStake);\n    }\n\n    function withdraw(uint256 amountToWithdraw) external checkStakingPoolStatus {\n        StakeInfo storage user = stakers[msg.sender];\n        require(user.amount >= amountToWithdraw, \"withdraw: not enough balance\");\n        updatePool();\n        uint256 pending = user.amount.mul(accGemPerShare).div(1e18).sub(user.rewardDebt);\n        if (pending > 0) {\n            gem.transfer(msg.sender, pending);\n        }\n        if (amountToWithdraw > 0) {\n            user.amount = user.amount.sub(amountToWithdraw);\n            totalStakingShares = totalStakingShares.sub(amountToWithdraw);\n            lpToken.transfer(msg.sender, amountToWithdraw);\n        }\n        user.rewardDebt = user.amount.mul(accGemPerShare).div(1e18);\n        emit Withdraw(msg.sender, amountToWithdraw);\n    }\n\n    function claimReward() external checkStakingPoolStatus {\n        updatePool();\n        StakeInfo storage user = stakers[msg.sender];\n        uint256 pending = user.amount.mul(accGemPerShare).div(1e18).sub(user.rewardDebt);\n        require(pending > 0, \"claimReward: no rewards to claim\");\n        user.rewardDebt = user.amount.mul(accGemPerShare).div(1e18);\n        gem.transfer(msg.sender, pending);\n        emit ClaimReward(msg.sender, pending);\n    }\n\n    modifier onlyOwner() {\n        require(msg.sender == contractOwner, 'Ownable: caller is not the owner');\n        _;\n    }\n\n    modifier checkStakingPoolStatus() {\n        require(stakingPoolLive, 'Staking Pool is not live yet, Please get the Owner to deposit the rewards');\n        _;\n    }\n}\n\n",
  "sourcePath": "/Users/bryanwonggy/nus/is4302placeholdername/contracts/StakingRewards.sol",
  "compiler": {
    "name": "solc",
    "version": "0.8.18+commit.87f61d96.Emscripten.clang"
  },
  "schemaVersion": "3.4.11",
  "updatedAt": "2023-04-09T18:23:49.237Z",
  "devdoc": {
    "kind": "dev",
    "methods": {},
    "version": 1
  },
  "userdoc": {
    "kind": "user",
    "methods": {},
    "version": 1
  }
}