{
  "contractName": "StakingRewards",
  "abi": [
    {
      "inputs": [
        {
          "internalType": "address",
          "name": "_stakingToken",
          "type": "address"
        },
        {
          "internalType": "address",
          "name": "_rewardsToken",
          "type": "address"
        },
        {
          "internalType": "uint256",
          "name": "_rewardPool",
          "type": "uint256"
        }
      ],
      "stateMutability": "nonpayable",
      "type": "constructor"
    },
    {
      "anonymous": false,
      "inputs": [
        {
          "indexed": true,
          "internalType": "address",
          "name": "user",
          "type": "address"
        },
        {
          "indexed": false,
          "internalType": "uint256",
          "name": "reward",
          "type": "uint256"
        }
      ],
      "name": "RewardPaid",
      "type": "event"
    },
    {
      "anonymous": false,
      "inputs": [
        {
          "indexed": true,
          "internalType": "address",
          "name": "user",
          "type": "address"
        },
        {
          "indexed": false,
          "internalType": "uint256",
          "name": "amount",
          "type": "uint256"
        }
      ],
      "name": "Staked",
      "type": "event"
    },
    {
      "anonymous": false,
      "inputs": [
        {
          "indexed": true,
          "internalType": "address",
          "name": "user",
          "type": "address"
        },
        {
          "indexed": false,
          "internalType": "uint256",
          "name": "amount",
          "type": "uint256"
        }
      ],
      "name": "Withdrawn",
      "type": "event"
    },
    {
      "inputs": [],
      "name": "contractOwner",
      "outputs": [
        {
          "internalType": "address",
          "name": "",
          "type": "address"
        }
      ],
      "stateMutability": "view",
      "type": "function",
      "constant": true
    },
    {
      "inputs": [],
      "name": "dailyRewardCounter",
      "outputs": [
        {
          "internalType": "uint256",
          "name": "",
          "type": "uint256"
        }
      ],
      "stateMutability": "view",
      "type": "function",
      "constant": true
    },
    {
      "inputs": [],
      "name": "gem",
      "outputs": [
        {
          "internalType": "contract Gem",
          "name": "",
          "type": "address"
        }
      ],
      "stateMutability": "view",
      "type": "function",
      "constant": true
    },
    {
      "inputs": [],
      "name": "lastUpdateTime",
      "outputs": [
        {
          "internalType": "uint256",
          "name": "",
          "type": "uint256"
        }
      ],
      "stateMutability": "view",
      "type": "function",
      "constant": true
    },
    {
      "inputs": [],
      "name": "lpToken",
      "outputs": [
        {
          "internalType": "contract ERC20",
          "name": "",
          "type": "address"
        }
      ],
      "stateMutability": "view",
      "type": "function",
      "constant": true
    },
    {
      "inputs": [],
      "name": "maxDailyReward",
      "outputs": [
        {
          "internalType": "uint256",
          "name": "",
          "type": "uint256"
        }
      ],
      "stateMutability": "view",
      "type": "function",
      "constant": true
    },
    {
      "inputs": [],
      "name": "rewardPerTokenStored",
      "outputs": [
        {
          "internalType": "uint256",
          "name": "",
          "type": "uint256"
        }
      ],
      "stateMutability": "view",
      "type": "function",
      "constant": true
    },
    {
      "inputs": [],
      "name": "rewardRate",
      "outputs": [
        {
          "internalType": "uint256",
          "name": "",
          "type": "uint256"
        }
      ],
      "stateMutability": "view",
      "type": "function",
      "constant": true
    },
    {
      "inputs": [
        {
          "internalType": "address",
          "name": "",
          "type": "address"
        }
      ],
      "name": "stakers",
      "outputs": [
        {
          "internalType": "uint256",
          "name": "amount",
          "type": "uint256"
        },
        {
          "internalType": "uint256",
          "name": "rewardPerTokenPaid",
          "type": "uint256"
        },
        {
          "internalType": "uint256",
          "name": "rewards",
          "type": "uint256"
        }
      ],
      "stateMutability": "view",
      "type": "function",
      "constant": true
    },
    {
      "inputs": [],
      "name": "stakingPoolLive",
      "outputs": [
        {
          "internalType": "bool",
          "name": "",
          "type": "bool"
        }
      ],
      "stateMutability": "view",
      "type": "function",
      "constant": true
    },
    {
      "inputs": [],
      "name": "totalRewardPool",
      "outputs": [
        {
          "internalType": "uint256",
          "name": "",
          "type": "uint256"
        }
      ],
      "stateMutability": "view",
      "type": "function",
      "constant": true
    },
    {
      "inputs": [],
      "name": "totalStaked",
      "outputs": [
        {
          "internalType": "uint256",
          "name": "",
          "type": "uint256"
        }
      ],
      "stateMutability": "view",
      "type": "function",
      "constant": true
    },
    {
      "inputs": [],
      "name": "setStakingPoolLive",
      "outputs": [],
      "stateMutability": "nonpayable",
      "type": "function"
    },
    {
      "inputs": [],
      "name": "rewardPerToken",
      "outputs": [
        {
          "internalType": "uint256",
          "name": "",
          "type": "uint256"
        }
      ],
      "stateMutability": "view",
      "type": "function",
      "constant": true
    },
    {
      "inputs": [
        {
          "internalType": "address",
          "name": "account",
          "type": "address"
        }
      ],
      "name": "earned",
      "outputs": [
        {
          "internalType": "uint256",
          "name": "",
          "type": "uint256"
        }
      ],
      "stateMutability": "view",
      "type": "function",
      "constant": true
    },
    {
      "inputs": [
        {
          "internalType": "uint256",
          "name": "amount",
          "type": "uint256"
        }
      ],
      "name": "stake",
      "outputs": [],
      "stateMutability": "nonpayable",
      "type": "function"
    },
    {
      "inputs": [
        {
          "internalType": "uint256",
          "name": "amount",
          "type": "uint256"
        }
      ],
      "name": "withdraw",
      "outputs": [],
      "stateMutability": "nonpayable",
      "type": "function"
    },
    {
      "inputs": [],
      "name": "exit",
      "outputs": [],
      "stateMutability": "nonpayable",
      "type": "function"
    },
    {
      "inputs": [],
      "name": "claimReward",
      "outputs": [],
      "stateMutability": "nonpayable",
      "type": "function"
    },
    {
      "inputs": [
        {
          "internalType": "address",
          "name": "account",
          "type": "address"
        }
      ],
      "name": "getPendingReward",
      "outputs": [
        {
          "internalType": "uint256",
          "name": "",
          "type": "uint256"
        }
      ],
      "stateMutability": "nonpayable",
      "type": "function"
    }
  ],
  "bytecode": "0x60806040523480156200001157600080fd5b5060405162001a8038038062001a80833981810160405281019062000037919062000201565b826000806101000a81548173ffffffffffffffffffffffffffffffffffffffff021916908373ffffffffffffffffffffffffffffffffffffffff16021790555081600160006101000a81548173ffffffffffffffffffffffffffffffffffffffff021916908373ffffffffffffffffffffffffffffffffffffffff1602179055508060088190555061016d600854620000d191906200028c565b60048190555062015180600454620000ea91906200028c565b600581905550426002819055506000600960146101000a81548160ff02191690831515021790555033600960006101000a81548173ffffffffffffffffffffffffffffffffffffffff021916908373ffffffffffffffffffffffffffffffffffffffff160217905550505050620002c4565b600080fd5b600073ffffffffffffffffffffffffffffffffffffffff82169050919050565b60006200018e8262000161565b9050919050565b620001a08162000181565b8114620001ac57600080fd5b50565b600081519050620001c08162000195565b92915050565b6000819050919050565b620001db81620001c6565b8114620001e757600080fd5b50565b600081519050620001fb81620001d0565b92915050565b6000806000606084860312156200021d576200021c6200015c565b5b60006200022d86828701620001af565b93505060206200024086828701620001af565b92505060406200025386828701620001ea565b9150509250925092565b7f4e487b7100000000000000000000000000000000000000000000000000000000600052601260045260246000fd5b60006200029982620001c6565b9150620002a683620001c6565b925082620002b957620002b86200025d565b5b828204905092915050565b6117ac80620002d46000396000f3fe608060405234801561001057600080fd5b506004361061012b5760003560e01c8063817b1cd2116100ad578063c8f33c9111610071578063c8f33c91146102fe578063cd3daf9d1461031c578063ce606ee01461033a578063df136d6514610358578063e9fad8ee146103765761012b565b8063817b1cd21461026a5780639168ae7214610288578063924f85bc146102ba578063a694fc3a146102d8578063b88a802f146102f45761012b565b80634df9d6ba116100f45780634df9d6ba146101c25780635fb87206146101f25780635fcbd285146102105780637b0a47ee1461022e5780637bd2bea71461024c5761012b565b80628cc2621461013057806309c85e2414610160578063214e0d9d1461017e57806326be0c861461019c5780632e1a7d4d146101a6575b600080fd5b61014a600480360381019061014591906110e8565b610380565b604051610157919061112e565b60405180910390f35b610168610478565b604051610175919061112e565b60405180910390f35b61018661047e565b604051610193919061112e565b60405180910390f35b6101a4610484565b005b6101c060048036038101906101bb9190611175565b6106fa565b005b6101dc60048036038101906101d791906110e8565b610920565b6040516101e9919061112e565b60405180910390f35b6101fa61093b565b604051610207919061112e565b60405180910390f35b610218610941565b6040516102259190611201565b60405180910390f35b610236610965565b604051610243919061112e565b60405180910390f35b61025461096b565b604051610261919061123d565b60405180910390f35b610272610991565b60405161027f919061112e565b60405180910390f35b6102a2600480360381019061029d91906110e8565b610997565b6040516102b193929190611258565b60405180910390f35b6102c26109c1565b6040516102cf91906112aa565b60405180910390f35b6102f260048036038101906102ed9190611175565b6109d4565b005b6102fc610bba565b005b610306610d4e565b604051610313919061112e565b60405180910390f35b610324610d54565b604051610331919061112e565b60405180910390f35b610342610da4565b60405161034f91906112d4565b60405180910390f35b610360610dca565b60405161036d919061112e565b60405180910390f35b61037e610dd0565b005b6000600a60008373ffffffffffffffffffffffffffffffffffffffff1673ffffffffffffffffffffffffffffffffffffffff16815260200190815260200160002060020154600a60008473ffffffffffffffffffffffffffffffffffffffff1673ffffffffffffffffffffffffffffffffffffffff16815260200190815260200160002060010154610410610d54565b61041a919061131e565b600a60008573ffffffffffffffffffffffffffffffffffffffff1673ffffffffffffffffffffffffffffffffffffffff168152602001908152602001600020600001546104679190611352565b6104719190611394565b9050919050565b60085481565b60075481565b600960009054906101000a900473ffffffffffffffffffffffffffffffffffffffff1673ffffffffffffffffffffffffffffffffffffffff163373ffffffffffffffffffffffffffffffffffffffff1614610514576040517f08c379a000000000000000000000000000000000000000000000000000000000815260040161050b90611425565b60405180910390fd5b600854600160009054906101000a900473ffffffffffffffffffffffffffffffffffffffff1673ffffffffffffffffffffffffffffffffffffffff166346ed2bcb336040518263ffffffff1660e01b815260040161057291906112d4565b602060405180830381865afa15801561058f573d6000803e3d6000fd5b505050506040513d601f19601f820116820180604052508101906105b3919061145a565b10156105f4576040517f08c379a00000000000000000000000000000000000000000000000000000000081526004016105eb906114f9565b60405180910390fd5b60001515600960149054906101000a900460ff1615151461064a576040517f08c379a000000000000000000000000000000000000000000000000000000000815260040161064190611565565b60405180910390fd5b600160009054906101000a900473ffffffffffffffffffffffffffffffffffffffff1673ffffffffffffffffffffffffffffffffffffffff16632a73ac1f33306008546040518463ffffffff1660e01b81526004016106ab93929190611585565b600060405180830381600087803b1580156106c557600080fd5b505af11580156106d9573d6000803e3d6000fd5b505050506001600960146101000a81548160ff021916908315150217905550565b80600a60003373ffffffffffffffffffffffffffffffffffffffff1673ffffffffffffffffffffffffffffffffffffffff16815260200190815260200160002060000154101561077f576040517f08c379a000000000000000000000000000000000000000000000000000000000815260040161077690611608565b60405180910390fd5b61078833610edf565b80600a60003373ffffffffffffffffffffffffffffffffffffffff1673ffffffffffffffffffffffffffffffffffffffff168152602001908152602001600020600001546107d6919061131e565b600a60003373ffffffffffffffffffffffffffffffffffffffff1673ffffffffffffffffffffffffffffffffffffffff168152602001908152602001600020600001819055508060065461082a919061131e565b60068190555060008054906101000a900473ffffffffffffffffffffffffffffffffffffffff1673ffffffffffffffffffffffffffffffffffffffff1663a9059cbb33836040518363ffffffff1660e01b815260040161088b929190611628565b6020604051808303816000875af11580156108aa573d6000803e3d6000fd5b505050506040513d601f19601f820116820180604052508101906108ce919061167d565b503373ffffffffffffffffffffffffffffffffffffffff167f7084f5476618d8e60b11ef0d7d3f06914655adb8793e28ff7f018d4c76d505d582604051610915919061112e565b60405180910390a250565b600061092b33610edf565b61093482610380565b9050919050565b60045481565b60008054906101000a900473ffffffffffffffffffffffffffffffffffffffff1681565b60055481565b600160009054906101000a900473ffffffffffffffffffffffffffffffffffffffff1681565b60065481565b600a6020528060005260406000206000915090508060000154908060010154908060020154905083565b600960149054906101000a900460ff1681565b60008111610a17576040517f08c379a0000000000000000000000000000000000000000000000000000000008152600401610a0e906116f6565b60405180910390fd5b610a2033610edf565b60008054906101000a900473ffffffffffffffffffffffffffffffffffffffff1673ffffffffffffffffffffffffffffffffffffffff166323b872dd3330846040518463ffffffff1660e01b8152600401610a7d93929190611585565b6020604051808303816000875af1158015610a9c573d6000803e3d6000fd5b505050506040513d601f19601f82011682018060405250810190610ac0919061167d565b5080600654610acf9190611394565b60068190555080600a60003373ffffffffffffffffffffffffffffffffffffffff1673ffffffffffffffffffffffffffffffffffffffff16815260200190815260200160002060000154610b239190611394565b600a60003373ffffffffffffffffffffffffffffffffffffffff1673ffffffffffffffffffffffffffffffffffffffff168152602001908152602001600020600001819055503373ffffffffffffffffffffffffffffffffffffffff167f9e71bc8eea02a63969f509818f2dafb9254532904319f9dbda79b67bd34a5f3d82604051610baf919061112e565b60405180910390a250565b610bc333610edf565b6000600a60003373ffffffffffffffffffffffffffffffffffffffff1673ffffffffffffffffffffffffffffffffffffffff1681526020019081526020016000206002015490506000811115610d4b576000600a60003373ffffffffffffffffffffffffffffffffffffffff1673ffffffffffffffffffffffffffffffffffffffff16815260200190815260200160002060020181905550600160009054906101000a900473ffffffffffffffffffffffffffffffffffffffff1673ffffffffffffffffffffffffffffffffffffffff1663f09910e433836040518363ffffffff1660e01b8152600401610cb8929190611628565b6020604051808303816000875af1158015610cd7573d6000803e3d6000fd5b505050506040513d601f19601f82011682018060405250810190610cfb919061167d565b503373ffffffffffffffffffffffffffffffffffffffff167fe2403640ba68fed3a2f88b7557551d1993f84b99bb10ff833f0cf8db0c5e048682604051610d42919061112e565b60405180910390a25b50565b60025481565b60008060065403610d69576003549050610da1565b60065460055460025442610d7d919061131e565b610d879190611352565b610d919190611745565b600354610d9e9190611394565b90505b90565b600960009054906101000a900473ffffffffffffffffffffffffffffffffffffffff1681565b60035481565b3073ffffffffffffffffffffffffffffffffffffffff16632e1a7d4d600a60003373ffffffffffffffffffffffffffffffffffffffff1673ffffffffffffffffffffffffffffffffffffffff168152602001908152602001600020600001546040518263ffffffff1660e01b8152600401610e4b919061112e565b600060405180830381600087803b158015610e6557600080fd5b505af1158015610e79573d6000803e3d6000fd5b505050503073ffffffffffffffffffffffffffffffffffffffff1663b88a802f6040518163ffffffff1660e01b8152600401600060405180830381600087803b158015610ec557600080fd5b505af1158015610ed9573d6000803e3d6000fd5b50505050565b610ee7611063565b6000429050600060025482610efc919061131e565b905060006006541115610f8a57600060055482610f199190611352565b9050600060045482600754610f2e9190611394565b1115610f4957600754600454610f44919061131e565b610f4b565b815b905060065481610f5b9190611745565b600354610f689190611394565b6003819055508060076000828254610f809190611394565b9250508190555050505b81600281905550600073ffffffffffffffffffffffffffffffffffffffff168373ffffffffffffffffffffffffffffffffffffffff161461105e57610fce83610380565b600a60008573ffffffffffffffffffffffffffffffffffffffff1673ffffffffffffffffffffffffffffffffffffffff16815260200190815260200160002060020181905550600354600a60008573ffffffffffffffffffffffffffffffffffffffff1673ffffffffffffffffffffffffffffffffffffffff168152602001908152602001600020600101819055505b505050565b6201518060025442611075919061131e565b106110835760006007819055505b565b600080fd5b600073ffffffffffffffffffffffffffffffffffffffff82169050919050565b60006110b58261108a565b9050919050565b6110c5816110aa565b81146110d057600080fd5b50565b6000813590506110e2816110bc565b92915050565b6000602082840312156110fe576110fd611085565b5b600061110c848285016110d3565b91505092915050565b6000819050919050565b61112881611115565b82525050565b6000602082019050611143600083018461111f565b92915050565b61115281611115565b811461115d57600080fd5b50565b60008135905061116f81611149565b92915050565b60006020828403121561118b5761118a611085565b5b600061119984828501611160565b91505092915050565b6000819050919050565b60006111c76111c26111bd8461108a565b6111a2565b61108a565b9050919050565b60006111d9826111ac565b9050919050565b60006111eb826111ce565b9050919050565b6111fb816111e0565b82525050565b600060208201905061121660008301846111f2565b92915050565b6000611227826111ce565b9050919050565b6112378161121c565b82525050565b6000602082019050611252600083018461122e565b92915050565b600060608201905061126d600083018661111f565b61127a602083018561111f565b611287604083018461111f565b949350505050565b60008115159050919050565b6112a48161128f565b82525050565b60006020820190506112bf600083018461129b565b92915050565b6112ce816110aa565b82525050565b60006020820190506112e960008301846112c5565b92915050565b7f4e487b7100000000000000000000000000000000000000000000000000000000600052601160045260246000fd5b600061132982611115565b915061133483611115565b925082820390508181111561134c5761134b6112ef565b5b92915050565b600061135d82611115565b915061136883611115565b925082820261137681611115565b9150828204841483151761138d5761138c6112ef565b5b5092915050565b600061139f82611115565b91506113aa83611115565b92508282019050808211156113c2576113c16112ef565b5b92915050565b600082825260208201905092915050565b7f4f776e61626c653a2063616c6c6572206973206e6f7420746865206f776e6572600082015250565b600061140f6020836113c8565b915061141a826113d9565b602082019050919050565b6000602082019050818103600083015261143e81611402565b9050919050565b60008151905061145481611149565b92915050565b6000602082840312156114705761146f611085565b5b600061147e84828501611445565b91505092915050565b7f596f7520646f206e6f7420686176652073756666696369656e742047656d206660008201527f6f722074686520726577617264506f6f6c000000000000000000000000000000602082015250565b60006114e36031836113c8565b91506114ee82611487565b604082019050919050565b60006020820190508181036000830152611512816114d6565b9050919050565b7f5374616b696e6720706f6f6c20697320616c7265616479206c69766500000000600082015250565b600061154f601c836113c8565b915061155a82611519565b602082019050919050565b6000602082019050818103600083015261157e81611542565b9050919050565b600060608201905061159a60008301866112c5565b6115a760208301856112c5565b6115b4604083018461111f565b949350505050565b7f496e73756666696369656e74207374616b65642062616c616e63650000000000600082015250565b60006115f2601b836113c8565b91506115fd826115bc565b602082019050919050565b60006020820190508181036000830152611621816115e5565b9050919050565b600060408201905061163d60008301856112c5565b61164a602083018461111f565b9392505050565b61165a8161128f565b811461166557600080fd5b50565b60008151905061167781611651565b92915050565b60006020828403121561169357611692611085565b5b60006116a184828501611668565b91505092915050565b7f43616e6e6f74207374616b65203020746f6b656e730000000000000000000000600082015250565b60006116e06015836113c8565b91506116eb826116aa565b602082019050919050565b6000602082019050818103600083015261170f816116d3565b9050919050565b7f4e487b7100000000000000000000000000000000000000000000000000000000600052601260045260246000fd5b600061175082611115565b915061175b83611115565b92508261176b5761176a611716565b5b82820490509291505056fea2646970667358221220a2ee35abebb706027fcb3b5611fcdd15293c6a98daf08da0f3dccbb65b9d75da64736f6c63430008120033",
  "immutableReferences": {},
  "source": "pragma solidity ^0.8.0;\n\nimport './ERC20.sol';\nimport './Gem.sol';\n\ncontract StakingRewards {\n    ERC20 public lpToken;\n    Gem public gem;\n\n    uint256 public lastUpdateTime;\n    uint256 public rewardPerTokenStored;\n    uint256 public maxDailyReward;\n    uint256 public rewardRate;\n    uint256 public totalStaked;\n    uint256 public dailyRewardCounter;\n    uint256 public totalRewardPool;\n    address public contractOwner;\n    bool public stakingPoolLive;\n\n    struct StakeInfo {\n        uint256 amount;\n        uint256 rewardPerTokenPaid;\n        uint256 rewards;\n    }\n\n    mapping(address => StakeInfo) public stakers;\n\n    event Staked(address indexed user, uint256 amount);\n    event Withdrawn(address indexed user, uint256 amount);\n    event RewardPaid(address indexed user, uint256 reward);\n\n    constructor(address _stakingToken, address _rewardsToken, uint256 _rewardPool) {\n        lpToken = ERC20(_stakingToken);\n        gem = Gem(_rewardsToken);\n        totalRewardPool = _rewardPool;\n        maxDailyReward = totalRewardPool/ 365;\n        rewardRate = maxDailyReward/ 86400; // Assuming rewards are distributed evenly over 24 hours\n        lastUpdateTime = block.timestamp;\n        stakingPoolLive = false; // this variable will turn to true once the contract deployer sends the gem (_rewardPool) \n                                //into the contract\n        contractOwner = msg.sender;\n    }\n\n    function setStakingPoolLive() public onlyOwner {\n        require(gem.checkGemsOf(msg.sender) >= totalRewardPool, \"You do not have sufficient Gem for the rewardPool\");\n        require(stakingPoolLive == false, \"Staking pool is already live\");\n        gem.transferGemsFrom(msg.sender, address(this), totalRewardPool);\n        stakingPoolLive = true;\n    }\n\n    function _resetDailyRewardCounterIfNeeded() private {\n        if (block.timestamp - lastUpdateTime >= 86400) {\n            dailyRewardCounter = 0;\n        }\n    }\n\n    function _updateRewards(address account) internal {\n        _resetDailyRewardCounterIfNeeded();\n        uint256 currentTime = block.timestamp;\n        uint256 timeElapsed = currentTime - lastUpdateTime;\n        if (totalStaked > 0) {\n            uint256 rewardAmount = timeElapsed * rewardRate;\n            uint256 rewardToDistribute = (dailyRewardCounter + rewardAmount <= maxDailyReward) ? rewardAmount : maxDailyReward - dailyRewardCounter;\n\n            rewardPerTokenStored = rewardPerTokenStored + (rewardToDistribute/ totalStaked);\n            dailyRewardCounter += rewardToDistribute;\n        }\n        lastUpdateTime = currentTime;\n        if (account != address(0)) {\n            stakers[account].rewards = earned(account);\n            stakers[account].rewardPerTokenPaid = rewardPerTokenStored;\n        }\n    }\n\n    function rewardPerToken() public view returns (uint256) {\n        if (totalStaked == 0) {\n            return rewardPerTokenStored;\n        }\n        return rewardPerTokenStored + (((block.timestamp - lastUpdateTime) * rewardRate) / totalStaked);\n    }\n\n    function earned(address account) public view returns (uint256) {\n        return (stakers[account].amount * (rewardPerToken() - stakers[account].rewardPerTokenPaid)) + stakers[account].rewards;\n    }\n\n    function stake(uint256 amount) external {\n        require(amount > 0, \"Cannot stake 0 tokens\");\n        _updateRewards(msg.sender);\n        lpToken.transferFrom(msg.sender, address(this), amount);\n        totalStaked = totalStaked + amount;\n        stakers[msg.sender].amount = stakers[msg.sender].amount + amount;\n        emit Staked(msg.sender, amount);\n    }\n\n    function withdraw(uint256 amount) external {\n        require(stakers[msg.sender].amount >= amount, \"Insufficient staked balance\");\n        // withdraw can only be called by the depositor\n        _updateRewards(msg.sender);\n        stakers[msg.sender].amount = stakers[msg.sender].amount - amount;\n        totalStaked = totalStaked - amount;\n        lpToken.transfer(msg.sender, amount);\n        emit Withdrawn(msg.sender, amount);\n    }\n\n    function exit() external {\n        this.withdraw(stakers[msg.sender].amount);\n        this.claimReward();\n    }\n\n    function claimReward() external {\n        _updateRewards(msg.sender);\n        uint256 reward = stakers[msg.sender].rewards;\n\n        if (reward > 0) {\n            stakers[msg.sender].rewards = 0;\n            gem.transferGems(msg.sender, reward);\n            emit RewardPaid(msg.sender, reward);\n        }\n    }\n\n    function getPendingReward(address account) public returns (uint256) {\n        _updateRewards(msg.sender);\n        return earned(account);\n    }\n\n    modifier onlyOwner() {\n        require(msg.sender == contractOwner, 'Ownable: caller is not the owner');\n        _;\n    }\n\n    modifier checkStakingPoolStatus() {\n        require(stakingPoolLive, 'Staking Pool is not live yet, Please get the Owner to deposit the rewards');\n        _;\n    }\n}\n",
  "sourcePath": "/Users/luthertan/Documents/Y3S2/BT3103/YourmaskedID/is4302placeholdername/contracts/StakingRewards.sol",
  "compiler": {
    "name": "solc",
    "version": "0.8.18+commit.87f61d96.Emscripten.clang"
  },
  "schemaVersion": "3.4.11",
  "updatedAt": "2023-04-06T20:39:00.733Z",
  "networkType": "ethereum",
  "devdoc": {
    "kind": "dev",
    "methods": {},
    "version": 1
  },
  "userdoc": {
    "kind": "user",
    "methods": {},
    "version": 1
  }
}