{
  "contractName": "StakingRewards",
  "abi": [
    {
      "inputs": [
        {
          "internalType": "address",
          "name": "_stakingToken",
          "type": "address"
        },
        {
          "internalType": "address",
          "name": "_rewardsToken",
          "type": "address"
        },
        {
          "internalType": "uint256",
          "name": "_rewardPool",
          "type": "uint256"
        }
      ],
      "stateMutability": "nonpayable",
      "type": "constructor"
    },
    {
      "inputs": [],
      "name": "accGemPerShare",
      "outputs": [
        {
          "internalType": "uint256",
          "name": "",
          "type": "uint256"
        }
      ],
      "stateMutability": "view",
      "type": "function"
    },
    {
      "inputs": [],
      "name": "contractOwner",
      "outputs": [
        {
          "internalType": "address",
          "name": "",
          "type": "address"
        }
      ],
      "stateMutability": "view",
      "type": "function"
    },
    {
      "inputs": [],
      "name": "dailyRewardCounter",
      "outputs": [
        {
          "internalType": "uint256",
          "name": "",
          "type": "uint256"
        }
      ],
      "stateMutability": "view",
      "type": "function"
    },
    {
      "inputs": [],
      "name": "gem",
      "outputs": [
        {
          "internalType": "contract Gem",
          "name": "",
          "type": "address"
        }
      ],
      "stateMutability": "view",
      "type": "function"
    },
    {
      "inputs": [],
      "name": "lastRewardTimestamp",
      "outputs": [
        {
          "internalType": "uint256",
          "name": "",
          "type": "uint256"
        }
      ],
      "stateMutability": "view",
      "type": "function"
    },
    {
      "inputs": [],
      "name": "lastUpdateTime",
      "outputs": [
        {
          "internalType": "uint256",
          "name": "",
          "type": "uint256"
        }
      ],
      "stateMutability": "view",
      "type": "function"
    },
    {
      "inputs": [],
      "name": "lpToken",
      "outputs": [
        {
          "internalType": "contract ERC20",
          "name": "",
          "type": "address"
        }
      ],
      "stateMutability": "view",
      "type": "function"
    },
    {
      "inputs": [],
      "name": "maxDailyReward",
      "outputs": [
        {
          "internalType": "uint256",
          "name": "",
          "type": "uint256"
        }
      ],
      "stateMutability": "view",
      "type": "function"
    },
    {
      "inputs": [],
      "name": "rewardPerSecond",
      "outputs": [
        {
          "internalType": "uint256",
          "name": "",
          "type": "uint256"
        }
      ],
      "stateMutability": "view",
      "type": "function"
    },
    {
      "inputs": [],
      "name": "rewardPerTokenStored",
      "outputs": [
        {
          "internalType": "uint256",
          "name": "",
          "type": "uint256"
        }
      ],
      "stateMutability": "view",
      "type": "function"
    },
    {
      "inputs": [],
      "name": "rewardRate",
      "outputs": [
        {
          "internalType": "uint256",
          "name": "",
          "type": "uint256"
        }
      ],
      "stateMutability": "view",
      "type": "function"
    },
    {
      "inputs": [
        {
          "internalType": "address",
          "name": "",
          "type": "address"
        }
      ],
      "name": "stakers",
      "outputs": [
        {
          "internalType": "uint256",
          "name": "amount",
          "type": "uint256"
        },
        {
          "internalType": "uint256",
          "name": "rewardDebt",
          "type": "uint256"
        }
      ],
      "stateMutability": "view",
      "type": "function"
    },
    {
      "inputs": [],
      "name": "stakingPoolLive",
      "outputs": [
        {
          "internalType": "bool",
          "name": "",
          "type": "bool"
        }
      ],
      "stateMutability": "view",
      "type": "function"
    },
    {
      "inputs": [],
      "name": "totalRewardPool",
      "outputs": [
        {
          "internalType": "uint256",
          "name": "",
          "type": "uint256"
        }
      ],
      "stateMutability": "view",
      "type": "function"
    },
    {
      "inputs": [],
      "name": "totalStaked",
      "outputs": [
        {
          "internalType": "uint256",
          "name": "",
          "type": "uint256"
        }
      ],
      "stateMutability": "view",
      "type": "function"
    },
    {
      "inputs": [],
      "name": "totalStakingShares",
      "outputs": [
        {
          "internalType": "uint256",
          "name": "",
          "type": "uint256"
        }
      ],
      "stateMutability": "view",
      "type": "function"
    },
    {
      "inputs": [],
      "name": "setStakingPoolLive",
      "outputs": [],
      "stateMutability": "nonpayable",
      "type": "function"
    },
    {
      "inputs": [
        {
          "internalType": "address",
          "name": "_user",
          "type": "address"
        }
      ],
      "name": "pendingReward",
      "outputs": [
        {
          "internalType": "uint256",
          "name": "",
          "type": "uint256"
        }
      ],
      "stateMutability": "view",
      "type": "function"
    },
    {
      "inputs": [
        {
          "internalType": "uint256",
          "name": "_amount",
          "type": "uint256"
        }
      ],
      "name": "stake",
      "outputs": [],
      "stateMutability": "nonpayable",
      "type": "function"
    },
    {
      "inputs": [
        {
          "internalType": "uint256",
          "name": "_amount",
          "type": "uint256"
        }
      ],
      "name": "withdraw",
      "outputs": [],
      "stateMutability": "nonpayable",
      "type": "function"
    },
    {
      "inputs": [],
      "name": "claimReward",
      "outputs": [],
      "stateMutability": "nonpayable",
      "type": "function"
    }
  ],
  "bytecode": "0x60806040523480156200001157600080fd5b5060405162001a7438038062001a74833981810160405281019062000037919062000216565b826000806101000a81548173ffffffffffffffffffffffffffffffffffffffff021916908373ffffffffffffffffffffffffffffffffffffffff16021790555081600160006101000a81548173ffffffffffffffffffffffffffffffffffffffff021916908373ffffffffffffffffffffffffffffffffffffffff1602179055508060078190555061016d670de0b6b3a7640000600754620000da9190620002a1565b620000e691906200031b565b60048190555062015180600454620000ff91906200031b565b60098190555042600c819055506000600860146101000a81548160ff02191690831515021790555033600860006101000a81548173ffffffffffffffffffffffffffffffffffffffff021916908373ffffffffffffffffffffffffffffffffffffffff16021790555050505062000353565b600080fd5b600073ffffffffffffffffffffffffffffffffffffffff82169050919050565b6000620001a38262000176565b9050919050565b620001b58162000196565b8114620001c157600080fd5b50565b600081519050620001d581620001aa565b92915050565b6000819050919050565b620001f081620001db565b8114620001fc57600080fd5b50565b6000815190506200021081620001e5565b92915050565b60008060006060848603121562000232576200023162000171565b5b60006200024286828701620001c4565b93505060206200025586828701620001c4565b92505060406200026886828701620001ff565b9150509250925092565b7f4e487b7100000000000000000000000000000000000000000000000000000000600052601160045260246000fd5b6000620002ae82620001db565b9150620002bb83620001db565b9250828202620002cb81620001db565b91508282048414831517620002e557620002e462000272565b5b5092915050565b7f4e487b7100000000000000000000000000000000000000000000000000000000600052601260045260246000fd5b60006200032882620001db565b91506200033583620001db565b925082620003485762000347620002ec565b5b828204905092915050565b61171180620003636000396000f3fe608060405234801561001057600080fd5b50600436106101375760003560e01c80638f10369a116100b8578063bef8c2591161007c578063bef8c259146102e5578063c8f33c9114610303578063ce606ee014610321578063df136d651461033f578063f40f0f521461035d578063f8077fae1461038d57610137565b80638f10369a146102525780639168ae7214610270578063924f85bc146102a1578063a694fc3a146102bf578063b88a802f146102db57610137565b80635fcbd285116100ff5780635fcbd285146101bc57806370c6a17e146101da5780637b0a47ee146101f85780637bd2bea714610216578063817b1cd21461023457610137565b806309c85e241461013c578063214e0d9d1461015a57806326be0c86146101785780632e1a7d4d146101825780635fb872061461019e575b600080fd5b6101446103ab565b6040516101519190611011565b60405180910390f35b6101626103b1565b60405161016f9190611011565b60405180910390f35b6101806103b7565b005b61019c6004803603810190610197919061105d565b61062d565b005b6101a66108d4565b6040516101b39190611011565b60405180910390f35b6101c46108da565b6040516101d19190611109565b60405180910390f35b6101e26108fe565b6040516101ef9190611011565b60405180910390f35b610200610904565b60405161020d9190611011565b60405180910390f35b61021e61090a565b60405161022b9190611145565b60405180910390f35b61023c610930565b6040516102499190611011565b60405180910390f35b61025a610936565b6040516102679190611011565b60405180910390f35b61028a6004803603810190610285919061119e565b61093c565b6040516102989291906111cb565b60405180910390f35b6102a9610960565b6040516102b6919061120f565b60405180910390f35b6102d960048036038101906102d4919061105d565b610973565b005b6102e3610be3565b005b6102ed610d98565b6040516102fa9190611011565b60405180910390f35b61030b610d9e565b6040516103189190611011565b60405180910390f35b610329610da4565b6040516103369190611239565b60405180910390f35b610347610dca565b6040516103549190611011565b60405180910390f35b6103776004803603810190610372919061119e565b610dd0565b6040516103849190611011565b60405180910390f35b610395610ef6565b6040516103a29190611011565b60405180910390f35b60075481565b600d5481565b600860009054906101000a900473ffffffffffffffffffffffffffffffffffffffff1673ffffffffffffffffffffffffffffffffffffffff163373ffffffffffffffffffffffffffffffffffffffff1614610447576040517f08c379a000000000000000000000000000000000000000000000000000000000815260040161043e906112b1565b60405180910390fd5b600754600160009054906101000a900473ffffffffffffffffffffffffffffffffffffffff1673ffffffffffffffffffffffffffffffffffffffff166346ed2bcb336040518263ffffffff1660e01b81526004016104a59190611239565b602060405180830381865afa1580156104c2573d6000803e3d6000fd5b505050506040513d601f19601f820116820180604052508101906104e691906112e6565b1015610527576040517f08c379a000000000000000000000000000000000000000000000000000000000815260040161051e90611385565b60405180910390fd5b60001515600860149054906101000a900460ff1615151461057d576040517f08c379a0000000000000000000000000000000000000000000000000000000008152600401610574906113f1565b60405180910390fd5b600160009054906101000a900473ffffffffffffffffffffffffffffffffffffffff1673ffffffffffffffffffffffffffffffffffffffff16632a73ac1f33306007546040518463ffffffff1660e01b81526004016105de93929190611411565b600060405180830381600087803b1580156105f857600080fd5b505af115801561060c573d6000803e3d6000fd5b505050506001600860146101000a81548160ff021916908315150217905550565b6000600e60003373ffffffffffffffffffffffffffffffffffffffff1673ffffffffffffffffffffffffffffffffffffffff168152602001908152602001600020905081816000015410156106b7576040517f08c379a00000000000000000000000000000000000000000000000000000000081526004016106ae90611494565b60405180910390fd5b6106bf610efc565b600061070782600101546106f964e8d4a510006106eb600b548760000154610fa090919063ffffffff16565b610fb690919063ffffffff16565b610fcc90919063ffffffff16565b905060008111156107b457600160009054906101000a900473ffffffffffffffffffffffffffffffffffffffff1673ffffffffffffffffffffffffffffffffffffffff1663a9059cbb33836040518363ffffffff1660e01b815260040161076f9291906114b4565b6020604051808303816000875af115801561078e573d6000803e3d6000fd5b505050506040513d601f19601f820116820180604052508101906107b29190611509565b505b6000831115610897576107d4838360000154610fcc90919063ffffffff16565b82600001819055506107f183600a54610fcc90919063ffffffff16565b600a8190555060008054906101000a900473ffffffffffffffffffffffffffffffffffffffff1673ffffffffffffffffffffffffffffffffffffffff1663a9059cbb33856040518363ffffffff1660e01b81526004016108529291906114b4565b6020604051808303816000875af1158015610871573d6000803e3d6000fd5b505050506040513d601f19601f820116820180604052508101906108959190611509565b505b6108c764e8d4a510006108b9600b548560000154610fa090919063ffffffff16565b610fb690919063ffffffff16565b8260010181905550505050565b60045481565b60008054906101000a900473ffffffffffffffffffffffffffffffffffffffff1681565b600a5481565b60055481565b600160009054906101000a900473ffffffffffffffffffffffffffffffffffffffff1681565b60065481565b60095481565b600e6020528060005260406000206000915090508060000154908060010154905082565b600860149054906101000a900460ff1681565b61097b610efc565b6000600e60003373ffffffffffffffffffffffffffffffffffffffff1673ffffffffffffffffffffffffffffffffffffffff1681526020019081526020016000209050600081600001541115610ac2576000610a138260010154610a0564e8d4a510006109f7600b548760000154610fa090919063ffffffff16565b610fb690919063ffffffff16565b610fcc90919063ffffffff16565b90506000811115610ac057600160009054906101000a900473ffffffffffffffffffffffffffffffffffffffff1673ffffffffffffffffffffffffffffffffffffffff1663a9059cbb33836040518363ffffffff1660e01b8152600401610a7b9291906114b4565b6020604051808303816000875af1158015610a9a573d6000803e3d6000fd5b505050506040513d601f19601f82011682018060405250810190610abe9190611509565b505b505b6000821115610ba75760008054906101000a900473ffffffffffffffffffffffffffffffffffffffff1673ffffffffffffffffffffffffffffffffffffffff166323b872dd3330856040518463ffffffff1660e01b8152600401610b2893929190611411565b6020604051808303816000875af1158015610b47573d6000803e3d6000fd5b505050506040513d601f19601f82011682018060405250810190610b6b9190611509565b50610b83828260000154610fe290919063ffffffff16565b8160000181905550610ba082600a54610fe290919063ffffffff16565b600a819055505b610bd764e8d4a51000610bc9600b548460000154610fa090919063ffffffff16565b610fb690919063ffffffff16565b81600101819055505050565b610beb610efc565b6000600e60003373ffffffffffffffffffffffffffffffffffffffff1673ffffffffffffffffffffffffffffffffffffffff16815260200190815260200160002090506000610c768260010154610c6864e8d4a51000610c5a600b548760000154610fa090919063ffffffff16565b610fb690919063ffffffff16565b610fcc90919063ffffffff16565b905060008111610cbb576040517f08c379a0000000000000000000000000000000000000000000000000000000008152600401610cb290611582565b60405180910390fd5b610ceb64e8d4a51000610cdd600b548560000154610fa090919063ffffffff16565b610fb690919063ffffffff16565b8260010181905550600160009054906101000a900473ffffffffffffffffffffffffffffffffffffffff1673ffffffffffffffffffffffffffffffffffffffff1663a9059cbb33836040518363ffffffff1660e01b8152600401610d509291906114b4565b6020604051808303816000875af1158015610d6f573d6000803e3d6000fd5b505050506040513d601f19601f82011682018060405250810190610d939190611509565b505050565b600b5481565b60025481565b600860009054906101000a900473ffffffffffffffffffffffffffffffffffffffff1681565b60035481565b600080600e60008473ffffffffffffffffffffffffffffffffffffffff1673ffffffffffffffffffffffffffffffffffffffff16815260200190815260200160002090506000600b549050600c5442118015610e2f57506000600a5414155b15610ea9576000610e4b600c5442610fcc90919063ffffffff16565b90506000610e6460095483610fa090919063ffffffff16565b9050610ea4610e95600a54610e8764e8d4a5100085610fa090919063ffffffff16565b610fb690919063ffffffff16565b84610fe290919063ffffffff16565b925050505b610eed8260010154610edf64e8d4a51000610ed1858760000154610fa090919063ffffffff16565b610fb690919063ffffffff16565b610fcc90919063ffffffff16565b92505050919050565b600c5481565b600c54421115610f9e576000600a5403610f1c5742600c81905550610f9e565b6000610f33600c5442610fcc90919063ffffffff16565b90506000610f4c60095483610fa090919063ffffffff16565b9050610f8e610f7d600a54610f6f64e8d4a5100085610fa090919063ffffffff16565b610fb690919063ffffffff16565b600b54610fe290919063ffffffff16565b600b8190555042600c8190555050505b565b60008183610fae91906115d1565b905092915050565b60008183610fc49190611642565b905092915050565b60008183610fda9190611673565b905092915050565b60008183610ff091906116a7565b905092915050565b6000819050919050565b61100b81610ff8565b82525050565b60006020820190506110266000830184611002565b92915050565b600080fd5b61103a81610ff8565b811461104557600080fd5b50565b60008135905061105781611031565b92915050565b6000602082840312156110735761107261102c565b5b600061108184828501611048565b91505092915050565b600073ffffffffffffffffffffffffffffffffffffffff82169050919050565b6000819050919050565b60006110cf6110ca6110c58461108a565b6110aa565b61108a565b9050919050565b60006110e1826110b4565b9050919050565b60006110f3826110d6565b9050919050565b611103816110e8565b82525050565b600060208201905061111e60008301846110fa565b92915050565b600061112f826110d6565b9050919050565b61113f81611124565b82525050565b600060208201905061115a6000830184611136565b92915050565b600061116b8261108a565b9050919050565b61117b81611160565b811461118657600080fd5b50565b60008135905061119881611172565b92915050565b6000602082840312156111b4576111b361102c565b5b60006111c284828501611189565b91505092915050565b60006040820190506111e06000830185611002565b6111ed6020830184611002565b9392505050565b60008115159050919050565b611209816111f4565b82525050565b60006020820190506112246000830184611200565b92915050565b61123381611160565b82525050565b600060208201905061124e600083018461122a565b92915050565b600082825260208201905092915050565b7f4f776e61626c653a2063616c6c6572206973206e6f7420746865206f776e6572600082015250565b600061129b602083611254565b91506112a682611265565b602082019050919050565b600060208201905081810360008301526112ca8161128e565b9050919050565b6000815190506112e081611031565b92915050565b6000602082840312156112fc576112fb61102c565b5b600061130a848285016112d1565b91505092915050565b7f596f7520646f206e6f7420686176652073756666696369656e742047656d206660008201527f6f722074686520726577617264506f6f6c000000000000000000000000000000602082015250565b600061136f603183611254565b915061137a82611313565b604082019050919050565b6000602082019050818103600083015261139e81611362565b9050919050565b7f5374616b696e6720706f6f6c20697320616c7265616479206c69766500000000600082015250565b60006113db601c83611254565b91506113e6826113a5565b602082019050919050565b6000602082019050818103600083015261140a816113ce565b9050919050565b6000606082019050611426600083018661122a565b611433602083018561122a565b6114406040830184611002565b949350505050565b7f77697468647261773a206e6f7420656e6f7567682062616c616e636500000000600082015250565b600061147e601c83611254565b915061148982611448565b602082019050919050565b600060208201905081810360008301526114ad81611471565b9050919050565b60006040820190506114c9600083018561122a565b6114d66020830184611002565b9392505050565b6114e6816111f4565b81146114f157600080fd5b50565b600081519050611503816114dd565b92915050565b60006020828403121561151f5761151e61102c565b5b600061152d848285016114f4565b91505092915050565b7f636c61696d5265776172643a206e6f207265776172647320746f20636c61696d600082015250565b600061156c602083611254565b915061157782611536565b602082019050919050565b6000602082019050818103600083015261159b8161155f565b9050919050565b7f4e487b7100000000000000000000000000000000000000000000000000000000600052601160045260246000fd5b60006115dc82610ff8565b91506115e783610ff8565b92508282026115f581610ff8565b9150828204841483151761160c5761160b6115a2565b5b5092915050565b7f4e487b7100000000000000000000000000000000000000000000000000000000600052601260045260246000fd5b600061164d82610ff8565b915061165883610ff8565b92508261166857611667611613565b5b828204905092915050565b600061167e82610ff8565b915061168983610ff8565b92508282039050818111156116a1576116a06115a2565b5b92915050565b60006116b282610ff8565b91506116bd83610ff8565b92508282019050808211156116d5576116d46115a2565b5b9291505056fea2646970667358221220ce5696efc28020fd25300f1138c6e2d29dbd2ca2757d9633874831b04c2aaa2f64736f6c63430008120033",
  "immutableReferences": {},
  "source": "pragma solidity ^0.8.0;\n\nimport './ERC20.sol';\nimport './Gem.sol';\n\nimport \"@openzeppelin/contracts/utils/math/SafeMath.sol\";\n\ncontract StakingRewards {\n    using SafeMath for uint256;\n    ERC20 public lpToken;\n    Gem public gem;\n\n    uint256 public lastUpdateTime;\n    uint256 public rewardPerTokenStored;\n    uint256 public maxDailyReward;\n    uint256 public rewardRate;\n    uint256 public totalStaked;\n    uint256 public totalRewardPool;\n\n    address public contractOwner;\n    bool public stakingPoolLive;\n    \n    uint256 public rewardPerSecond;\n    uint256 public totalStakingShares;\n    uint256 public accGemPerShare;\n    uint256 public lastRewardTimestamp;\n    uint256 public dailyRewardCounter;\n\n    struct StakeInfo {\n        uint256 amount;\n        uint256 rewardDebt;\n    }\n\n    mapping(address => StakeInfo) public stakers;\n\n    constructor(address _stakingToken, address _rewardsToken, uint256 _rewardPool) {\n        lpToken = ERC20(_stakingToken);\n        gem = Gem(_rewardsToken);\n        totalRewardPool = _rewardPool;\n        maxDailyReward = (totalRewardPool * 1e18) / 365;\n        rewardPerSecond = maxDailyReward / 86400; // Assuming rewards are distributed evenly over 24 hours\n        lastRewardTimestamp = block.timestamp;\n        stakingPoolLive = false; // this variable will turn to true once the contract deployer sends the gem (_rewardPool) \n                                //into the contract\n        contractOwner = msg.sender;\n    }\n\n    function setStakingPoolLive() public onlyOwner {\n        require(gem.checkGemsOf(msg.sender) >= totalRewardPool, \"You do not have sufficient Gem for the rewardPool\");\n        require(stakingPoolLive == false, \"Staking pool is already live\");\n        gem.transferGemsFrom(msg.sender, address(this), totalRewardPool);\n        stakingPoolLive = true;\n    }\n\n    function _resetDailyRewardCounterIfNeeded() private {\n        if (block.timestamp - lastUpdateTime >= 86400) {\n            dailyRewardCounter = 0;\n        }\n    }\n\n    function updatePool() internal {\n        if (block.timestamp <= lastRewardTimestamp) {\n            return;\n        }\n\n        if (totalStakingShares == 0) {\n            lastRewardTimestamp = block.timestamp;\n            return;\n        }\n\n        uint256 multiplier = block.timestamp.sub(lastRewardTimestamp);\n        uint256 gemReward = multiplier.mul(rewardPerSecond);\n        accGemPerShare = accGemPerShare.add(gemReward.mul(1e12).div(totalStakingShares));\n        lastRewardTimestamp = block.timestamp;\n    }\n\n    function pendingReward(address _user) external view returns (uint256) {\n        StakeInfo storage user = stakers[_user];\n        uint256 _accGemPerShare = accGemPerShare;\n        if (block.timestamp > lastRewardTimestamp && totalStakingShares != 0) {\n            uint256 multiplier = block.timestamp.sub(lastRewardTimestamp);\n            uint256 gemReward = multiplier.mul(rewardPerSecond);\n            _accGemPerShare = _accGemPerShare.add(gemReward.mul(1e12).div(totalStakingShares));\n        }\n        return user.amount.mul(_accGemPerShare).div(1e12).sub(user.rewardDebt);\n    }\n\n    function stake(uint256 _amount) external {\n        updatePool();\n        StakeInfo storage user = stakers[msg.sender];\n        if (user.amount > 0) {\n            uint256 pending = user.amount.mul(accGemPerShare).div(1e12).sub(user.rewardDebt);\n            if (pending > 0) {\n                gem.transfer(msg.sender, pending);\n            }\n        }\n        if (_amount > 0) {\n            lpToken.transferFrom(msg.sender, address(this), _amount);\n            user.amount = user.amount.add(_amount);\n            totalStakingShares = totalStakingShares.add(_amount);\n        }\n        user.rewardDebt = user.amount.mul(accGemPerShare).div(1e12);\n    }\n\n    function withdraw(uint256 _amount) external {\n        StakeInfo storage user = stakers[msg.sender];\n        require(user.amount >= _amount, \"withdraw: not enough balance\");\n        updatePool();\n        uint256 pending = user.amount.mul(accGemPerShare).div(1e12).sub(user.rewardDebt);\n        if (pending > 0) {\n            gem.transfer(msg.sender, pending);\n        }\n        if (_amount > 0) {\n            user.amount = user.amount.sub(_amount);\n            totalStakingShares = totalStakingShares.sub(_amount);\n            lpToken.transfer(msg.sender, _amount);\n        }\n        user.rewardDebt = user.amount.mul(accGemPerShare).div(1e12);\n    }\n\n    function claimReward() external {\n        updatePool();\n        StakeInfo storage user = stakers[msg.sender];\n        uint256 pending = user.amount.mul(accGemPerShare).div(1e12).sub(user.rewardDebt);\n        require(pending > 0, \"claimReward: no rewards to claim\");\n        user.rewardDebt = user.amount.mul(accGemPerShare).div(1e12);\n        gem.transfer(msg.sender, pending);\n    }\n\n\n    // function _updateRewards(address account) public{\n    //     _resetDailyRewardCounterIfNeeded();\n    //     uint256 currentTime = block.timestamp;\n\n    //     uint256 timeElapsed = currentTime - lastUpdateTime;\n    //     if (totalStaked > 0) {\n    //         uint256 rewardAmount = (timeElapsed * rewardRate);\n    //         uint256 rewardToDistribute = (dailyRewardCounter + rewardAmount <= maxDailyReward) ? rewardAmount : maxDailyReward - dailyRewardCounter;\n\n    //         rewardPerTokenStored = rewardPerTokenStored + (rewardToDistribute / totalStaked);\n    //         dailyRewardCounter += rewardToDistribute;\n    //     }\n\n    //     lastUpdateTime = currentTime;\n        \n    //     if (account != address(0)) {\n    //         stakers[account].rewards = earned(account);\n    //         stakers[account].rewardPerTokenPaid = rewardPerTokenStored;\n    //     }\n    // }\n    \n    // function rewardPerToken() public view returns (uint256) {\n    //     if (totalStaked == 0) {\n    //         return rewardPerTokenStored;\n    //     }\n    //     return rewardPerTokenStored + (((block.timestamp - lastUpdateTime) * rewardRate) / totalStaked);\n    // }\n\n    // function earned(address account) public view returns (uint256) {\n    //     return (stakers[account].amount * (rewardPerToken() - stakers[account].rewardPerTokenPaid)) + stakers[account].rewards;\n    // }\n\n    // function stake(uint256 amount) external {\n    //     require(amount > 0, \"Cannot stake 0 tokens\");\n    //     _updateRewards(msg.sender);\n    //     lpToken.transferFrom(msg.sender, address(this), amount);\n    //     totalStaked = (totalStaked + amount);\n    //     stakers[msg.sender].amount = stakers[msg.sender].amount + amount;\n    // }\n\n\n    // function withdraw(uint256 amount) external {\n    //     require(stakers[msg.sender].amount >= amount, \"Insufficient staked balance\");\n    //     // withdraw can only be called by the depositor\n    //     _updateRewards(msg.sender);\n    //     stakers[msg.sender].amount = stakers[msg.sender].amount - amount;\n    //     totalStaked = totalStaked - amount;\n    //     lpToken.transfer(msg.sender, amount);\n    //     //this.claimReward();\n    // }\n\n    // function claimReward() external {\n    //     _updateRewards(msg.sender);\n    //     uint256 reward = stakers[msg.sender].rewards;\n\n    //     if (reward > 0) {\n    //         stakers[msg.sender].rewards = 0;\n    //         gem.transferGems(msg.sender, reward);\n    //     }\n    // }\n\n    // function getPendingReward(address account) public view returns (uint256) {\n    //     StakeInfo memory user = stakers[account];\n    //     uint256 _rewardPerToken = rewardPerToken();\n    //     return (user.amount * (_rewardPerToken - user.rewardPerTokenPaid)) + user.rewards;\n    // }\n\n    modifier onlyOwner() {\n        require(msg.sender == contractOwner, 'Ownable: caller is not the owner');\n        _;\n    }\n\n    modifier checkStakingPoolStatus() {\n        require(stakingPoolLive, 'Staking Pool is not live yet, Please get the Owner to deposit the rewards');\n        _;\n    }\n}\n\n",
  "sourcePath": "/Users/luthertan/Documents/Y3S2/BT3103/YourmaskedID/is4302placeholdername/contracts/StakingRewards.sol",
  "compiler": {
    "name": "solc",
    "version": "0.8.18+commit.87f61d96.Emscripten.clang"
  },
  "schemaVersion": "3.4.11",
  "updatedAt": "2023-04-07T18:15:26.790Z",
  "devdoc": {
    "kind": "dev",
    "methods": {},
    "version": 1
  },
  "userdoc": {
    "kind": "user",
    "methods": {},
    "version": 1
  }
}