{
  "contractName": "StakingRewards",
  "abi": [
    {
      "inputs": [
        {
          "internalType": "address",
          "name": "_stakingToken",
          "type": "address"
        },
        {
          "internalType": "address",
          "name": "_rewardsToken",
          "type": "address"
        },
        {
          "internalType": "uint256",
          "name": "_rewardPool",
          "type": "uint256"
        }
      ],
      "stateMutability": "nonpayable",
      "type": "constructor"
    },
    {
      "anonymous": false,
      "inputs": [
        {
          "indexed": true,
          "internalType": "address",
          "name": "user",
          "type": "address"
        },
        {
          "indexed": false,
          "internalType": "uint256",
          "name": "reward",
          "type": "uint256"
        }
      ],
      "name": "RewardPaid",
      "type": "event"
    },
    {
      "anonymous": false,
      "inputs": [
        {
          "indexed": false,
          "internalType": "uint256",
          "name": "rewardToDistribute",
          "type": "uint256"
        }
      ],
      "name": "RewardToDistribute",
      "type": "event"
    },
    {
      "anonymous": false,
      "inputs": [
        {
          "indexed": false,
          "internalType": "uint256",
          "name": "currentTime",
          "type": "uint256"
        },
        {
          "indexed": false,
          "internalType": "uint256",
          "name": "timeElapsed",
          "type": "uint256"
        },
        {
          "indexed": false,
          "internalType": "uint256",
          "name": "rewardAmount",
          "type": "uint256"
        },
        {
          "indexed": false,
          "internalType": "uint256",
          "name": "rewardToDistribute",
          "type": "uint256"
        }
      ],
      "name": "RewardUpdated",
      "type": "event"
    },
    {
      "anonymous": false,
      "inputs": [
        {
          "indexed": true,
          "internalType": "address",
          "name": "user",
          "type": "address"
        },
        {
          "indexed": false,
          "internalType": "uint256",
          "name": "amount",
          "type": "uint256"
        },
        {
          "indexed": false,
          "internalType": "uint256",
          "name": "currentTime",
          "type": "uint256"
        },
        {
          "indexed": false,
          "internalType": "uint256",
          "name": "lastUpdateTime",
          "type": "uint256"
        },
        {
          "indexed": false,
          "internalType": "uint256",
          "name": "timeElapsed",
          "type": "uint256"
        },
        {
          "indexed": false,
          "internalType": "uint256",
          "name": "rewardRate",
          "type": "uint256"
        },
        {
          "indexed": false,
          "internalType": "uint256",
          "name": "rewardAmount",
          "type": "uint256"
        }
      ],
      "name": "Staked",
      "type": "event"
    },
    {
      "anonymous": false,
      "inputs": [
        {
          "indexed": true,
          "internalType": "address",
          "name": "user",
          "type": "address"
        },
        {
          "indexed": false,
          "internalType": "uint256",
          "name": "amount",
          "type": "uint256"
        }
      ],
      "name": "Withdrawn",
      "type": "event"
    },
    {
      "inputs": [],
      "name": "contractOwner",
      "outputs": [
        {
          "internalType": "address",
          "name": "",
          "type": "address"
        }
      ],
      "stateMutability": "view",
      "type": "function",
      "constant": true
    },
    {
      "inputs": [],
      "name": "dailyRewardCounter",
      "outputs": [
        {
          "internalType": "uint256",
          "name": "",
          "type": "uint256"
        }
      ],
      "stateMutability": "view",
      "type": "function",
      "constant": true
    },
    {
      "inputs": [],
      "name": "gem",
      "outputs": [
        {
          "internalType": "contract Gem",
          "name": "",
          "type": "address"
        }
      ],
      "stateMutability": "view",
      "type": "function",
      "constant": true
    },
    {
      "inputs": [],
      "name": "lastUpdateTime",
      "outputs": [
        {
          "internalType": "uint256",
          "name": "",
          "type": "uint256"
        }
      ],
      "stateMutability": "view",
      "type": "function",
      "constant": true
    },
    {
      "inputs": [],
      "name": "lpToken",
      "outputs": [
        {
          "internalType": "contract ERC20",
          "name": "",
          "type": "address"
        }
      ],
      "stateMutability": "view",
      "type": "function",
      "constant": true
    },
    {
      "inputs": [],
      "name": "maxDailyReward",
      "outputs": [
        {
          "internalType": "uint256",
          "name": "",
          "type": "uint256"
        }
      ],
      "stateMutability": "view",
      "type": "function",
      "constant": true
    },
    {
      "inputs": [],
      "name": "rewardPerTokenStored",
      "outputs": [
        {
          "internalType": "uint256",
          "name": "",
          "type": "uint256"
        }
      ],
      "stateMutability": "view",
      "type": "function",
      "constant": true
    },
    {
      "inputs": [],
      "name": "rewardRate",
      "outputs": [
        {
          "internalType": "uint256",
          "name": "",
          "type": "uint256"
        }
      ],
      "stateMutability": "view",
      "type": "function",
      "constant": true
    },
    {
      "inputs": [
        {
          "internalType": "address",
          "name": "",
          "type": "address"
        }
      ],
      "name": "stakers",
      "outputs": [
        {
          "internalType": "uint256",
          "name": "amount",
          "type": "uint256"
        },
        {
          "internalType": "uint256",
          "name": "rewardPerTokenPaid",
          "type": "uint256"
        },
        {
          "internalType": "uint256",
          "name": "rewards",
          "type": "uint256"
        },
        {
          "internalType": "uint256",
          "name": "lastUpdateTimeForAccount",
          "type": "uint256"
        }
      ],
      "stateMutability": "view",
      "type": "function",
      "constant": true
    },
    {
      "inputs": [],
      "name": "stakingPoolLive",
      "outputs": [
        {
          "internalType": "bool",
          "name": "",
          "type": "bool"
        }
      ],
      "stateMutability": "view",
      "type": "function",
      "constant": true
    },
    {
      "inputs": [],
      "name": "totalRewardPool",
      "outputs": [
        {
          "internalType": "uint256",
          "name": "",
          "type": "uint256"
        }
      ],
      "stateMutability": "view",
      "type": "function",
      "constant": true
    },
    {
      "inputs": [],
      "name": "totalStaked",
      "outputs": [
        {
          "internalType": "uint256",
          "name": "",
          "type": "uint256"
        }
      ],
      "stateMutability": "view",
      "type": "function",
      "constant": true
    },
    {
      "inputs": [],
      "name": "setStakingPoolLive",
      "outputs": [],
      "stateMutability": "nonpayable",
      "type": "function"
    },
    {
      "inputs": [
        {
          "internalType": "address",
          "name": "account",
          "type": "address"
        }
      ],
      "name": "_updateRewards",
      "outputs": [],
      "stateMutability": "nonpayable",
      "type": "function"
    },
    {
      "inputs": [],
      "name": "rewardPerToken",
      "outputs": [
        {
          "internalType": "uint256",
          "name": "",
          "type": "uint256"
        }
      ],
      "stateMutability": "view",
      "type": "function",
      "constant": true
    },
    {
      "inputs": [
        {
          "internalType": "address",
          "name": "account",
          "type": "address"
        }
      ],
      "name": "earned",
      "outputs": [
        {
          "internalType": "uint256",
          "name": "",
          "type": "uint256"
        }
      ],
      "stateMutability": "view",
      "type": "function",
      "constant": true
    },
    {
      "inputs": [
        {
          "internalType": "uint256",
          "name": "amount",
          "type": "uint256"
        }
      ],
      "name": "stake",
      "outputs": [],
      "stateMutability": "nonpayable",
      "type": "function"
    },
    {
      "inputs": [
        {
          "internalType": "uint256",
          "name": "amount",
          "type": "uint256"
        }
      ],
      "name": "withdraw",
      "outputs": [],
      "stateMutability": "nonpayable",
      "type": "function"
    },
    {
      "inputs": [],
      "name": "claimReward",
      "outputs": [],
      "stateMutability": "nonpayable",
      "type": "function"
    },
    {
      "inputs": [
        {
          "internalType": "address",
          "name": "account",
          "type": "address"
        }
      ],
      "name": "getPendingReward",
      "outputs": [
        {
          "internalType": "uint256",
          "name": "",
          "type": "uint256"
        }
      ],
      "stateMutability": "view",
      "type": "function",
      "constant": true
    }
  ],
  "bytecode": "0x60806040523480156200001157600080fd5b5060405162001b6c38038062001b6c833981810160405281019062000037919062000216565b826000806101000a81548173ffffffffffffffffffffffffffffffffffffffff021916908373ffffffffffffffffffffffffffffffffffffffff16021790555081600160006101000a81548173ffffffffffffffffffffffffffffffffffffffff021916908373ffffffffffffffffffffffffffffffffffffffff1602179055508060088190555061016d670de0b6b3a7640000600854620000da9190620002a1565b620000e691906200031b565b60048190555062015180600454620000ff91906200031b565b600581905550426002819055506000600960146101000a81548160ff02191690831515021790555033600960006101000a81548173ffffffffffffffffffffffffffffffffffffffff021916908373ffffffffffffffffffffffffffffffffffffffff16021790555050505062000353565b600080fd5b600073ffffffffffffffffffffffffffffffffffffffff82169050919050565b6000620001a38262000176565b9050919050565b620001b58162000196565b8114620001c157600080fd5b50565b600081519050620001d581620001aa565b92915050565b6000819050919050565b620001f081620001db565b8114620001fc57600080fd5b50565b6000815190506200021081620001e5565b92915050565b60008060006060848603121562000232576200023162000171565b5b60006200024286828701620001c4565b93505060206200025586828701620001c4565b92505060406200026886828701620001ff565b9150509250925092565b7f4e487b7100000000000000000000000000000000000000000000000000000000600052601160045260246000fd5b6000620002ae82620001db565b9150620002bb83620001db565b9250828202620002cb81620001db565b91508282048414831517620002e557620002e462000272565b5b5092915050565b7f4e487b7100000000000000000000000000000000000000000000000000000000600052601260045260246000fd5b60006200032882620001db565b91506200033583620001db565b925082620003485762000347620002ec565b5b828204905092915050565b61180980620003636000396000f3fe608060405234801561001057600080fd5b506004361061012b5760003560e01c80637bd2bea7116100ad578063b88a802f11610071578063b88a802f14610311578063c8f33c911461031b578063cd3daf9d14610339578063ce606ee014610357578063df136d65146103755761012b565b80637bd2bea714610268578063817b1cd2146102865780639168ae72146102a4578063924f85bc146102d7578063a694fc3a146102f55761012b565b80632e1a7d4d116100f45780632e1a7d4d146101c25780634df9d6ba146101de5780635fb872061461020e5780635fcbd2851461022c5780637b0a47ee1461024a5761012b565b80628cc2621461013057806309c85e2414610160578063214e0d9d1461017e57806326be0c861461019c5780632bc51f6d146101a6575b600080fd5b61014a60048036038101906101459190611137565b610393565b604051610157919061117d565b60405180910390f35b6101686104a5565b604051610175919061117d565b60405180910390f35b6101866104ab565b604051610193919061117d565b60405180910390f35b6101a46104b1565b005b6101c060048036038101906101bb9190611137565b610727565b005b6101dc60048036038101906101d791906111c4565b61091a565b005b6101f860048036038101906101f39190611137565b610b40565b604051610205919061117d565b60405180910390f35b610216610c52565b604051610223919061117d565b60405180910390f35b610234610c58565b6040516102419190611250565b60405180910390f35b610252610c7c565b60405161025f919061117d565b60405180910390f35b610270610c82565b60405161027d919061128c565b60405180910390f35b61028e610ca8565b60405161029b919061117d565b60405180910390f35b6102be60048036038101906102b99190611137565b610cae565b6040516102ce94939291906112a7565b60405180910390f35b6102df610cde565b6040516102ec9190611307565b60405180910390f35b61030f600480360381019061030a91906111c4565b610cf1565b005b610319610e89565b005b61032361101d565b604051610330919061117d565b60405180910390f35b610341611023565b60405161034e919061117d565b60405180910390f35b61035f611086565b60405161036c9190611331565b60405180910390f35b61037d6110ac565b60405161038a919061117d565b60405180910390f35b600080600a60008473ffffffffffffffffffffffffffffffffffffffff1673ffffffffffffffffffffffffffffffffffffffff16815260200190815260200160002060030154905060008082036103eb5760006103ff565b816103f4611023565b6103fe919061137b565b5b9050600a60008573ffffffffffffffffffffffffffffffffffffffff1673ffffffffffffffffffffffffffffffffffffffff1681526020019081526020016000206002015481600a60008773ffffffffffffffffffffffffffffffffffffffff1673ffffffffffffffffffffffffffffffffffffffff1681526020019081526020016000206000015461049291906113af565b61049c91906113f1565b92505050919050565b60085481565b60075481565b600960009054906101000a900473ffffffffffffffffffffffffffffffffffffffff1673ffffffffffffffffffffffffffffffffffffffff163373ffffffffffffffffffffffffffffffffffffffff1614610541576040517f08c379a000000000000000000000000000000000000000000000000000000000815260040161053890611482565b60405180910390fd5b600854600160009054906101000a900473ffffffffffffffffffffffffffffffffffffffff1673ffffffffffffffffffffffffffffffffffffffff166346ed2bcb336040518263ffffffff1660e01b815260040161059f9190611331565b602060405180830381865afa1580156105bc573d6000803e3d6000fd5b505050506040513d601f19601f820116820180604052508101906105e091906114b7565b1015610621576040517f08c379a000000000000000000000000000000000000000000000000000000000815260040161061890611556565b60405180910390fd5b60001515600960149054906101000a900460ff16151514610677576040517f08c379a000000000000000000000000000000000000000000000000000000000815260040161066e906115c2565b60405180910390fd5b600160009054906101000a900473ffffffffffffffffffffffffffffffffffffffff1673ffffffffffffffffffffffffffffffffffffffff16632a73ac1f33306008546040518463ffffffff1660e01b81526004016106d8939291906115e2565b600060405180830381600087803b1580156106f257600080fd5b505af1158015610706573d6000803e3d6000fd5b505050506001600960146101000a81548160ff021916908315150217905550565b61072f6110b2565b6000429050600060025482610744919061137b565b9050600060065411156107f8576000670de0b6b3a76400006005548361076a91906113af565b6107749190611648565b905060006004548260075461078991906113f1565b11156107a45760075460045461079f919061137b565b6107a6565b815b9050600654670de0b6b3a7640000826107bf91906113af565b6107c99190611648565b6003546107d691906113f1565b60038190555080600760008282546107ee91906113f1565b9250508190555050505b81600281905550600073ffffffffffffffffffffffffffffffffffffffff168373ffffffffffffffffffffffffffffffffffffffff161461091557600254600a60008573ffffffffffffffffffffffffffffffffffffffff1673ffffffffffffffffffffffffffffffffffffffff1681526020019081526020016000206003018190555061088583610393565b600a60008573ffffffffffffffffffffffffffffffffffffffff1673ffffffffffffffffffffffffffffffffffffffff16815260200190815260200160002060020181905550600354600a60008573ffffffffffffffffffffffffffffffffffffffff1673ffffffffffffffffffffffffffffffffffffffff168152602001908152602001600020600101819055505b505050565b80600a60003373ffffffffffffffffffffffffffffffffffffffff1673ffffffffffffffffffffffffffffffffffffffff16815260200190815260200160002060000154101561099f576040517f08c379a0000000000000000000000000000000000000000000000000000000008152600401610996906116c5565b60405180910390fd5b6109a833610727565b80600a60003373ffffffffffffffffffffffffffffffffffffffff1673ffffffffffffffffffffffffffffffffffffffff168152602001908152602001600020600001546109f6919061137b565b600a60003373ffffffffffffffffffffffffffffffffffffffff1673ffffffffffffffffffffffffffffffffffffffff1681526020019081526020016000206000018190555080600654610a4a919061137b565b60068190555060008054906101000a900473ffffffffffffffffffffffffffffffffffffffff1673ffffffffffffffffffffffffffffffffffffffff1663a9059cbb33836040518363ffffffff1660e01b8152600401610aab9291906116e5565b6020604051808303816000875af1158015610aca573d6000803e3d6000fd5b505050506040513d601f19601f82011682018060405250810190610aee919061173a565b503373ffffffffffffffffffffffffffffffffffffffff167f7084f5476618d8e60b11ef0d7d3f06914655adb8793e28ff7f018d4c76d505d582604051610b35919061117d565b60405180910390a250565b600080600a60008473ffffffffffffffffffffffffffffffffffffffff1673ffffffffffffffffffffffffffffffffffffffff1681526020019081526020016000206003015490506000808203610b98576000610bac565b81610ba1611023565b610bab919061137b565b5b9050600a60008573ffffffffffffffffffffffffffffffffffffffff1673ffffffffffffffffffffffffffffffffffffffff1681526020019081526020016000206002015481600a60008773ffffffffffffffffffffffffffffffffffffffff1673ffffffffffffffffffffffffffffffffffffffff16815260200190815260200160002060000154610c3f91906113af565b610c4991906113f1565b92505050919050565b60045481565b60008054906101000a900473ffffffffffffffffffffffffffffffffffffffff1681565b60055481565b600160009054906101000a900473ffffffffffffffffffffffffffffffffffffffff1681565b60065481565b600a6020528060005260406000206000915090508060000154908060010154908060020154908060030154905084565b600960149054906101000a900460ff1681565b60008111610d34576040517f08c379a0000000000000000000000000000000000000000000000000000000008152600401610d2b906117b3565b60405180910390fd5b610d3d33610727565b60008054906101000a900473ffffffffffffffffffffffffffffffffffffffff1673ffffffffffffffffffffffffffffffffffffffff166323b872dd3330846040518463ffffffff1660e01b8152600401610d9a939291906115e2565b6020604051808303816000875af1158015610db9573d6000803e3d6000fd5b505050506040513d601f19601f82011682018060405250810190610ddd919061173a565b5080600654610dec91906113f1565b60068190555080600a60003373ffffffffffffffffffffffffffffffffffffffff1673ffffffffffffffffffffffffffffffffffffffff16815260200190815260200160002060000154610e4091906113f1565b600a60003373ffffffffffffffffffffffffffffffffffffffff1673ffffffffffffffffffffffffffffffffffffffff1681526020019081526020016000206000018190555050565b610e9233610727565b6000600a60003373ffffffffffffffffffffffffffffffffffffffff1673ffffffffffffffffffffffffffffffffffffffff168152602001908152602001600020600201549050600081111561101a576000600a60003373ffffffffffffffffffffffffffffffffffffffff1673ffffffffffffffffffffffffffffffffffffffff16815260200190815260200160002060020181905550600160009054906101000a900473ffffffffffffffffffffffffffffffffffffffff1673ffffffffffffffffffffffffffffffffffffffff1663f09910e433836040518363ffffffff1660e01b8152600401610f879291906116e5565b6020604051808303816000875af1158015610fa6573d6000803e3d6000fd5b505050506040513d601f19601f82011682018060405250810190610fca919061173a565b503373ffffffffffffffffffffffffffffffffffffffff167fe2403640ba68fed3a2f88b7557551d1993f84b99bb10ff833f0cf8db0c5e048682604051611011919061117d565b60405180910390a25b50565b60025481565b60008060065403611038576003549050611083565b600654670de0b6b3a764000060055460025442611055919061137b565b61105f91906113af565b6110699190611648565b6110739190611648565b60035461108091906113f1565b90505b90565b600960009054906101000a900473ffffffffffffffffffffffffffffffffffffffff1681565b60035481565b62015180600254426110c4919061137b565b106110d25760006007819055505b565b600080fd5b600073ffffffffffffffffffffffffffffffffffffffff82169050919050565b6000611104826110d9565b9050919050565b611114816110f9565b811461111f57600080fd5b50565b6000813590506111318161110b565b92915050565b60006020828403121561114d5761114c6110d4565b5b600061115b84828501611122565b91505092915050565b6000819050919050565b61117781611164565b82525050565b6000602082019050611192600083018461116e565b92915050565b6111a181611164565b81146111ac57600080fd5b50565b6000813590506111be81611198565b92915050565b6000602082840312156111da576111d96110d4565b5b60006111e8848285016111af565b91505092915050565b6000819050919050565b600061121661121161120c846110d9565b6111f1565b6110d9565b9050919050565b6000611228826111fb565b9050919050565b600061123a8261121d565b9050919050565b61124a8161122f565b82525050565b60006020820190506112656000830184611241565b92915050565b60006112768261121d565b9050919050565b6112868161126b565b82525050565b60006020820190506112a1600083018461127d565b92915050565b60006080820190506112bc600083018761116e565b6112c9602083018661116e565b6112d6604083018561116e565b6112e3606083018461116e565b95945050505050565b60008115159050919050565b611301816112ec565b82525050565b600060208201905061131c60008301846112f8565b92915050565b61132b816110f9565b82525050565b60006020820190506113466000830184611322565b92915050565b7f4e487b7100000000000000000000000000000000000000000000000000000000600052601160045260246000fd5b600061138682611164565b915061139183611164565b92508282039050818111156113a9576113a861134c565b5b92915050565b60006113ba82611164565b91506113c583611164565b92508282026113d381611164565b915082820484148315176113ea576113e961134c565b5b5092915050565b60006113fc82611164565b915061140783611164565b925082820190508082111561141f5761141e61134c565b5b92915050565b600082825260208201905092915050565b7f4f776e61626c653a2063616c6c6572206973206e6f7420746865206f776e6572600082015250565b600061146c602083611425565b915061147782611436565b602082019050919050565b6000602082019050818103600083015261149b8161145f565b9050919050565b6000815190506114b181611198565b92915050565b6000602082840312156114cd576114cc6110d4565b5b60006114db848285016114a2565b91505092915050565b7f596f7520646f206e6f7420686176652073756666696369656e742047656d206660008201527f6f722074686520726577617264506f6f6c000000000000000000000000000000602082015250565b6000611540603183611425565b915061154b826114e4565b604082019050919050565b6000602082019050818103600083015261156f81611533565b9050919050565b7f5374616b696e6720706f6f6c20697320616c7265616479206c69766500000000600082015250565b60006115ac601c83611425565b91506115b782611576565b602082019050919050565b600060208201905081810360008301526115db8161159f565b9050919050565b60006060820190506115f76000830186611322565b6116046020830185611322565b611611604083018461116e565b949350505050565b7f4e487b7100000000000000000000000000000000000000000000000000000000600052601260045260246000fd5b600061165382611164565b915061165e83611164565b92508261166e5761166d611619565b5b828204905092915050565b7f496e73756666696369656e74207374616b65642062616c616e63650000000000600082015250565b60006116af601b83611425565b91506116ba82611679565b602082019050919050565b600060208201905081810360008301526116de816116a2565b9050919050565b60006040820190506116fa6000830185611322565b611707602083018461116e565b9392505050565b611717816112ec565b811461172257600080fd5b50565b6000815190506117348161170e565b92915050565b6000602082840312156117505761174f6110d4565b5b600061175e84828501611725565b91505092915050565b7f43616e6e6f74207374616b65203020746f6b656e730000000000000000000000600082015250565b600061179d601583611425565b91506117a882611767565b602082019050919050565b600060208201905081810360008301526117cc81611790565b905091905056fea2646970667358221220f78d95a9447d8409e901927faefe3db7494c6c3c5a09cf5a8d5fee5df12dbb3d64736f6c63430008120033",
  "immutableReferences": {},
  "source": "pragma solidity ^0.8.0;\n\nimport './ERC20.sol';\nimport './Gem.sol';\n\ncontract StakingRewards {\n    ERC20 public lpToken;\n    Gem public gem;\n\n    uint256 public lastUpdateTime;\n    uint256 public rewardPerTokenStored;\n    uint256 public maxDailyReward;\n    uint256 public rewardRate;\n    uint256 public totalStaked;\n    uint256 public dailyRewardCounter;\n    uint256 public totalRewardPool;\n    address public contractOwner;\n    bool public stakingPoolLive;\n\n    struct StakeInfo {\n        uint256 amount;\n        uint256 rewardPerTokenPaid;\n        uint256 rewards;\n        uint256 lastUpdateTimeForAccount;\n    }\n\n    mapping(address => StakeInfo) public stakers;\n\n    event Staked(address indexed user, uint256 amount, uint256 currentTime, uint256 lastUpdateTime, uint256 timeElapsed, uint256 rewardRate, uint256 rewardAmount);\n    event Withdrawn(address indexed user, uint256 amount);\n    event RewardPaid(address indexed user, uint256 reward);\n    event RewardUpdated(uint256 currentTime, uint256 timeElapsed, uint256 rewardAmount, uint256 rewardToDistribute);\n    event RewardToDistribute(uint256 rewardToDistribute);\n\n    constructor(address _stakingToken, address _rewardsToken, uint256 _rewardPool) {\n        lpToken = ERC20(_stakingToken);\n        gem = Gem(_rewardsToken);\n        totalRewardPool = _rewardPool;\n        maxDailyReward = (totalRewardPool * 1e18) / 365;\n        rewardRate = maxDailyReward / 86400; // Assuming rewards are distributed evenly over 24 hours\n        lastUpdateTime = block.timestamp;\n        stakingPoolLive = false; // this variable will turn to true once the contract deployer sends the gem (_rewardPool) \n                                //into the contract\n        contractOwner = msg.sender;\n    }\n\n    function setStakingPoolLive() public onlyOwner {\n        require(gem.checkGemsOf(msg.sender) >= totalRewardPool, \"You do not have sufficient Gem for the rewardPool\");\n        require(stakingPoolLive == false, \"Staking pool is already live\");\n        gem.transferGemsFrom(msg.sender, address(this), totalRewardPool);\n        stakingPoolLive = true;\n    }\n\n    function _resetDailyRewardCounterIfNeeded() private {\n        if (block.timestamp - lastUpdateTime >= 86400) {\n            dailyRewardCounter = 0;\n        }\n    }\n\n    // function _updateRewards(address account) public {\n    //     _resetDailyRewardCounterIfNeeded();\n    //     uint256 currentTime = block.timestamp;\n    //     uint256 timeElapsed = currentTime - lastUpdateTime;\n    //     if (totalStaked > 0) {\n    //         uint256 rewardAmount = (timeElapsed * rewardRate) / 1e18;\n    //         uint256 rewardToDistribute = (dailyRewardCounter + rewardAmount <= maxDailyReward) ? rewardAmount : maxDailyReward - dailyRewardCounter;\n\n    //         rewardPerTokenStored = rewardPerTokenStored + (rewardToDistribute/ totalStaked);\n    //         dailyRewardCounter += rewardToDistribute;\n    //         emit RewardUpdated(currentTime, timeElapsed, rewardAmount, rewardToDistribute);\n    //     }\n    //     lastUpdateTime = currentTime;\n    //     if (account != address(0)) {\n    //         stakers[account].rewards = earned(account);\n    //         stakers[account].rewardPerTokenPaid = rewardPerTokenStored;\n    //     }\n    // }\n    function _updateRewards(address account) public {\n        _resetDailyRewardCounterIfNeeded();\n        uint256 currentTime = block.timestamp;\n\n        uint256 timeElapsed = currentTime - lastUpdateTime;\n        if (totalStaked > 0) {\n            uint256 rewardAmount = (timeElapsed * rewardRate)/ 1e18;\n            uint256 rewardToDistribute = (dailyRewardCounter + rewardAmount <= maxDailyReward) ? rewardAmount : maxDailyReward - dailyRewardCounter;\n\n\n            rewardPerTokenStored = rewardPerTokenStored + (rewardToDistribute * 1e18 / totalStaked);\n            dailyRewardCounter += rewardToDistribute;\n        }\n\n        lastUpdateTime = currentTime;\n        \n        if (account != address(0)) {\n            stakers[account].lastUpdateTimeForAccount = lastUpdateTime;\n            stakers[account].rewards = earned(account);\n            stakers[account].rewardPerTokenPaid = rewardPerTokenStored;\n        }\n    }\n\n\n\n    function rewardPerToken() public view returns (uint256) {\n        if (totalStaked == 0) {\n            return rewardPerTokenStored;\n        }\n        return rewardPerTokenStored + ((((block.timestamp - lastUpdateTime) * rewardRate)/ 1e18) / totalStaked);\n    }\n\n    function earned(address account) public view returns (uint256) {\n        uint256 lastUpdateTimeAccount = stakers[account].lastUpdateTimeForAccount;\n        uint256 rewardPerTokenAccount = lastUpdateTimeAccount != 0 ? rewardPerToken() - lastUpdateTimeAccount : 0;\n        return (stakers[account].amount * rewardPerTokenAccount) + stakers[account].rewards;    }\n\n    // function stake(uint256 amount) external {\n    //     require(amount > 0, \"Cannot stake 0 tokens\");\n    //     _updateRewards(msg.sender);\n    //     lpToken.transferFrom(msg.sender, address(this), amount);\n    //     totalStaked = totalStaked + amount;\n    //     stakers[msg.sender].amount = stakers[msg.sender].amount + amount;\n    //     emit Staked(msg.sender, amount);\n    // }\n\n    function stake(uint256 amount) external {\n        require(amount > 0, \"Cannot stake 0 tokens\");\n        _updateRewards(msg.sender);\n        lpToken.transferFrom(msg.sender, address(this), amount);\n        totalStaked = totalStaked + amount;\n        stakers[msg.sender].amount = stakers[msg.sender].amount + amount;        \n    }\n\n\n    function withdraw(uint256 amount) external {\n        require(stakers[msg.sender].amount >= amount, \"Insufficient staked balance\");\n        // withdraw can only be called by the depositor\n        _updateRewards(msg.sender);\n        stakers[msg.sender].amount = stakers[msg.sender].amount - amount;\n        totalStaked = totalStaked - amount;\n        lpToken.transfer(msg.sender, amount);\n        //this.claimReward();\n        emit Withdrawn(msg.sender, amount);\n    }\n\n    function claimReward() external {\n        _updateRewards(msg.sender);\n        uint256 reward = stakers[msg.sender].rewards;\n\n        if (reward > 0) {\n            stakers[msg.sender].rewards = 0;\n            gem.transferGems(msg.sender, reward);\n            emit RewardPaid(msg.sender, reward);\n        }\n    }\n\n    // function getPendingReward(address account) public returns (uint256) {\n    //     _updateRewards(msg.sender);\n    //     return earned(account);\n    // }\n\n    function getPendingReward(address account) public view returns (uint256) {\n        uint256 lastUpdateTimeAccount = stakers[account].lastUpdateTimeForAccount;\n        uint256 rewardPerTokenAccount = lastUpdateTimeAccount != 0 ? rewardPerToken() - lastUpdateTimeAccount : 0;\n        return (stakers[account].amount * rewardPerTokenAccount) + stakers[account].rewards;\n    }\n\n\n\n    modifier onlyOwner() {\n        require(msg.sender == contractOwner, 'Ownable: caller is not the owner');\n        _;\n    }\n\n    modifier checkStakingPoolStatus() {\n        require(stakingPoolLive, 'Staking Pool is not live yet, Please get the Owner to deposit the rewards');\n        _;\n    }\n}\n",
  "sourcePath": "/Users/luthertan/Documents/Y3S2/BT3103/YourmaskedID/is4302placeholdername/contracts/StakingRewards.sol",
  "compiler": {
    "name": "solc",
    "version": "0.8.18+commit.87f61d96.Emscripten.clang"
  },
  "schemaVersion": "3.4.11",
  "updatedAt": "2023-04-07T13:40:40.139Z",
  "networkType": "ethereum",
  "devdoc": {
    "kind": "dev",
    "methods": {},
    "version": 1
  },
  "userdoc": {
    "kind": "user",
    "methods": {},
    "version": 1
  }
}